:020000040800F2
:100000000000022095B00008C19A0008C99A0008B3
:10001000D19A0008D99A0008E19A0008000000006F
:10002000000000000000000000000000498F0008F0
:10003000E99A000800000000058F0008358E0008CE
:10004000E5B00008E5B00008E5B00008E5B000083C
:10005000E5B00008E5B00008E5B00008E5B000082C
:10006000E5B00008E5B00008E5B00008E5B000081C
:10007000E5B00008E5B00008E5B00008E5B000080C
:10008000111D0008F11C0008E5B00008E5B00008EB
:10009000E5B00008E5B00008E5B00008E5B00008EC
:1000A000E5B00008F99A0008E5B00008E5B00008DE
:1000B000E5B00008E5B00008E5B00008E5B00008CC
:1000C000E5B00008E5B00008E5B00008E5B00008BC
:1000D000E5B00008E5B00008C91C0008E5B000085C
:1000E000E5B00008E5B00008E5B00008E5B000089C
:1000F000E5B00008E5B00008E5B00008E5B000088C
:10010000E5B00008E5B00008E5B00008E5B000087B
:10011000DD1C0008E5B00008E5B00008E5B0000807
:10012000E5B00008E5B00008E5B00008E5B000085B
:10013000E5B000080000000000000000E5B0000885
:10014000E5B00008E5B00008E5B00008E5B000083B
:10015000E5B00008E5B00008E5B00008E5B000082B
:10016000E5B00008E5B00008E5B00008E5B000081B
:10017000E5B00008E5B00008000000000000000045
:08018000E5B00008E5B000083D
:1001880081F0004102E000BF83F0004330B54FEA40
:1001980041044FEA430594EA050F08BF90EA020FAD
:1001A8001FBF54EA000C55EA020C7FEA645C7FEA40
:1001B800655C00F0E2804FEA5454D4EB5555B8BF63
:1001C8006D420CDD2C4480EA020281EA030382EAD4
:1001D800000083EA010180EA020281EA0303362D66
:1001E80088BF30BD11F0004F4FEA01314FF4801C39
:1001F8004CEA113102D0404261EB410113F0004F4B
:100208004FEA03334CEA133302D0524263EB430301
:1002180094EA050F00F0A780A4F10104D5F1200E9F
:100228000DDB02FA0EFC22FA05F2801841F10001FA
:1002380003FA0EF2801843FA05F359410EE0A5F1CE
:1002480020050EF1200E012A03FA0EFC28BF4CF0FF
:10025800020C43FA05F3C01851EBE37101F00045B5
:1002680007D54FF0000EDCF1000C7EEB00006EEBC2
:100278000101B1F5801F1BD3B1F5001F0CD349084C
:100288005FEA30004FEA3C0C04F101044FEA4452A3
:1002980012F5800F80F09A80BCF1004F08BF5FEA2A
:1002A800500C50F1000041EB045141EA050130BD0A
:1002B8005FEA4C0C404141EB0101013C28BFB1F51C
:1002C800801FE9D291F0000F04BF01460020B1FA67
:1002D80081F308BF2033A3F10B03B3F120020CDA3A
:1002E8000C3208DD02F1140CC2F10C0201FA0CF018
:1002F80021FA02F10CE002F11402D8BFC2F1200C7D
:1003080001FA02F120FA0CFCDCBF41EA0C01904032
:10031800E41AA2BF01EB0451294330BD6FEA04047B
:100328001F3C1CDA0C340EDC04F11404C4F1200266
:1003380020FA04F001FA02F340EA030021FA04F378
:1003480045EA030130BDC4F10C04C4F1200220FACF
:1003580002F001FA04F340EA0300294630BD21FA0D
:1003680004F0294630BD94F0000F83F4801306BFD3
:1003780081F480110134013D4EE77FEA645C18BFC7
:100388007FEA655C29D094EA050F08BF90EA020F5E
:1003980005D054EA000C04BF1946104630BD91EA56
:1003A800030F1EBF0021002030BD5FEA545C05D159
:1003B8004000494128BF41F0004130BD14F5800498
:1003C8003CBF01F5801130BD01F0004545F0FE410C
:1003D80041F470014FF0000030BD7FEA645C1ABF41
:1003E800194610467FEA655C1CBF0B46024650EA78
:1003F800013406BF52EA033591EA030F41F40021A4
:1004080030BD00BF90F0000F04BF0021704730B529
:100418004FF4806404F132044FF000054FF00001FE
:1004280050E700BF90F0000F04BF0021704730B5BF
:100438004FF4806404F1320410F0004548BF404294
:100448004FF000013EE700BF42004FEAE2014FEAE9
:1004580031014FEA02701FBF12F07F4393F07F4FC4
:1004680081F06051704732F07F4208BF704793F0C7
:100478007F4F04BF41F40021704730B54FF46074DA
:1004880001F0004521F000411CE700BF50EA0102DD
:1004980008BF704730B54FF000050AE050EA010286
:1004A80008BF704730B511F0004502D5404261EBF6
:1004B80041014FF4806404F132045FEA915C3FF437
:1004C800D8AE4FF003025FEADC0C18BF03325FEAD4
:1004D800DC0C18BF033202EBDC02C2F1200300FA85
:1004E80003FC20FA02F001FA03FE40EA0E0021FAAA
:1004F80002F11444BDE600BF70B54FF0FF0C4CF498
:10050800E06C1CEA11541DBF1CEA135594EA0C0F49
:1005180095EA0C0F00F0DEF82C4481EA030621EA84
:100528004C5123EA4C5350EA013518BF52EA0335BF
:1005380041F4801143F4801338D0A0FB02CE4FF071
:100548000005E1FB02E506F00042E0FB03E54FF0A1
:100558000006E1FB03569CF0000F18BF4EF0010E99
:10056800A4F1FF04B6F5007F64F5407404D25FEA95
:100578004E0E6D4146EB060642EAC62141EA555148
:100588004FEAC52040EA5E504FEACE2EB4F1FD0C8A
:1005980088BFBCF5E06F1ED8BEF1004F08BF5FEA08
:1005A800500E50F1000041EB045170BD06F00046BA
:1005B80046EA010140EA020081EA0301B4EB5C0467
:1005C800C2BFD4EB0C0541EA045170BD41F480115F
:1005D8004FF0000E013C00F3AB8014F1360FDEBF84
:1005E800002001F0004170BDC4F10004203C35DA60
:1005F8000C341BDC04F11404C4F1200500FA05F3E3
:1006080020FA04F001FA05F240EA020001F0004283
:1006180021F0004110EBD37021FA04F642EB0601F9
:100628005EEA430E08BF20EAD37070BDC4F10C0423
:10063800C4F1200500FA04F320FA05F001FA04F2E7
:1006480040EA020001F0004110EBD37041F10001D3
:100658005EEA430E08BF20EAD37070BDC4F12005DE
:1006680000FA05F24EEA020E20FA04F301FA05F246
:1006780043EA020321FA04F001F0004121FA04F2EE
:1006880020EA020000EBD3705EEA430E08BF20EABE
:10069800D37070BD94F0000F0FD101F000464000F8
:1006A80041EB010111F4801F08BF013CF7D041EA7A
:1006B800060195F0000F18BF704703F0004652007E
:1006C80043EB030313F4801F08BF013DF7D043EA4F
:1006D8000603704794EA0C0F0CEA135518BF95EA05
:1006E8000C0F0CD050EA410618BF52EA4306D1D18C
:1006F80081EA030101F000414FF0000070BD50EAAB
:10070800410606BF1046194652EA430619D094EA34
:100718000C0F02D150EA013613D195EA0C0F05D11E
:1007280052EA03361CBF104619460AD181EA030172
:1007380001F0004141F0FE4141F470014FF000002A
:1007480070BD41F0FE4141F4780170BD70B54FF0C5
:10075800FF0C4CF4E06C1CEA11541DBF1CEA135545
:1007680094EA0C0F95EA0C0F00F0A7F8A4EB050427
:1007780081EA030E52EA03354FEA013100F088801E
:100788004FEA03334FF0805545EA131343EA1263E7
:100798004FEA022245EA111545EA10654FEA00269C
:1007A8000EF000419D4208BF964244F1FD0404F555
:1007B800407402D25B084FEA3202B61A65EB0305B1
:1007C8005B084FEA32024FF480104FF4002CB6EB6E
:1007D800020E75EB030E22BFB61A754640EA0C00EE
:1007E8005B084FEA3202B6EB020E75EB030E22BF2E
:1007F800B61A754640EA5C005B084FEA3202B6EB6F
:10080800020E75EB030E22BFB61A754640EA9C002D
:100818005B084FEA3202B6EB020E75EB030E22BFFD
:10082800B61A754640EADC0055EA060E18D04FEABB
:10083800051545EA16754FEA06164FEAC30343EA5B
:1008480052734FEAC2025FEA1C1CC0D111F4801F28
:100858000BD141EA00014FF000004FF0004CB6E721
:1008680011F4801F04BF01430020B4F1FD0C88BFC0
:10087800BCF5E06F3FF6AFAEB5EB030C04BFB6EBCB
:10088800020C5FEA500C50F1000041EB045170BDBE
:100898000EF0004E4EEA113114EB5C04C2BFD4EBEB
:1008A8000C0541EA045170BD41F480114FF0000E6F
:1008B800013C90E645EA060E8DE60CEA135594EAEB
:1008C8000C0F08BF95EA0C0F3FF43BAF94EA0C0FEE
:1008D8000AD150EA01347FF434AF95EA0C0F7FF463
:1008E80025AF104619462CE795EA0C0F06D152EAB7
:1008F80003353FF4FDAE1046194622E750EA41069B
:1009080018BF52EA43067FF4C5AE50EA41047FF4AB
:100918000DAF52EA43057FF4EBAE12E74FF0FF3C10
:1009280006E000BF4FF0010C02E000BF4FF0010CE1
:100938004DF804CD4FEA410C7FEA6C5C4FEA430C5A
:1009480018BF7FEA6C5C1BD001B050EA410C0CBFA9
:1009580052EA430C91EA030F02BF90EA020F00200B
:10096800704710F1000F91EA030F58BF994208BF72
:1009780090422CBFD8176FEAE37040F0010070472F
:100988004FEA410C7FEA6C5C02D150EA013C07D186
:100998004FEA430C7FEA6C5CD6D152EA033CD3D0D1
:1009A8005DF8040B704700BF8446104662468C46CB
:1009B8001946634600E000BF01B5FFF7B7FF0028FE
:1009C80048BF10F1000F01BD4DF808EDFFF7F4FF27
:1009D8000CBF012000205DF808FB00BF4DF808EDB2
:1009E800FFF7EAFF34BF012000205DF808FB00BFD5
:1009F8004DF808EDFFF7E0FF94BF012000205DF8F7
:100A080008FB00BF4DF808EDFFF7CEFF94BF0120AB
:100A180000205DF808FB00BF4DF808EDFFF7C4FFA4
:100A280034BF012000205DF808FB00BF4FEA410CED
:100A38007FEA6C5C02D150EA013C0AD14FEA430CD0
:100A48007FEA6C5C02D152EA033C02D14FF000000D
:100A580070474FF0010070474A0011D212F500129A
:100A680011D20DD56FF47873B3EB62520ED44FEAFE
:100A7800C12343F0004343EA505323FA02F070477E
:100A88004FF00000704750EA013002D14FF0FF30BC
:100A980070474FF00000704753B94AB9002908BFA2
:100AA80000281CBF4FF0FF314FF0FF3000F00CB8AA
:100AB800ADF1080C6DE904CE0AF0CEFCDDF804E0D7
:100AC800DDE9022304B07047704700BF844641EA5D
:100AD800000313F003036DD1403A41D351F8043BAE
:100AE80040F8043B51F8043B40F8043B51F8043B00
:100AF80040F8043B51F8043B40F8043B51F8043BF0
:100B080040F8043B51F8043B40F8043B51F8043BDF
:100B180040F8043B51F8043B40F8043B51F8043BCF
:100B280040F8043B51F8043B40F8043B51F8043BBF
:100B380040F8043B51F8043B40F8043B51F8043BAF
:100B480040F8043B51F8043B40F8043B51F8043B9F
:100B580040F8043B51F8043B40F8043B403ABDD20E
:100B6800303211D351F8043B40F8043B51F8043BB0
:100B780040F8043B51F8043B40F8043B51F8043B6F
:100B880040F8043B103AEDD20C3205D351F8043B3F
:100B980040F8043B043AF9D2043208D0D2071CBF0B
:100BA80011F8013B00F8013B01D30B880380604634
:100BB800704700BF082A13D38B078DD010F00303AA
:100BC8008AD0C3F10403D21ADB071CBF11F8013B1A
:100BD80000F8013B80D331F8023B20F8023B7BE769
:100BE800043AD9D3013A11F8013B00F8013BF9D294
:100BF8000B7803704B7843708B788370604670472E
:100C08000348044B834202D0034B03B11847704793
:100C1800BC010020BC010020000000000548064B74
:100C28001B1AD90F01EBA301491002D0034B03B1E2
:100C380018477047BC010020BC01002000000000DC
:100C480010B5064C237843B9FFF7DAFF044B13B10C
:100C58000448AFF300800123237010BDC0010020B9
:100C680000000000ECB8000808B5054B1BB10549A9
:100C78000548AFF30080BDE80840FFF7CFBF00BFCD
:100C880000000000C4010020ECB8000880B400AFE8
:100C9800044BDB681B0A03F007031846BD465DF8E2
:100CA800047B704700ED00E080B483B000AF0346DA
:100CB800FB7197F90730002B0BDBFB7903F01F0260
:100CC800074997F907305B09012000FA02F241F859
:100CD800232000BF0C37BD465DF8047B704700BF7A
:100CE80000E100E080B483B000AF03463960FB71D7
:100CF80097F90730002B0ADB3B68DAB20C4997F901
:100D080007301201D2B20B4483F800230AE03B6893
:100D1800DAB20849FB7903F00F03043B1201D2B29F
:100D28000B441A7600BF0C37BD465DF8047B70474C
:100D380000E100E000ED00E080B489B000AFF860A9
:100D4800B9607A60FB6803F00703FB61FB69C3F1D4
:100D58000703042B28BF0423BB61FB690433062B5C
:100D680002D9FB69033B00E000237B614FF0FF32AF
:100D7800BB6902FA03F3DA43BB681A407B699A40FD
:100D88004FF0FF317B6901FA03F3D9437B680B40CD
:100D9800134318462437BD465DF8047B70470000AE
:100DA80080B483B000AF786039600C4A3B68134464
:100DB8001B781A467B6813441B6808493A680A443A
:100DC800127811467A680A4443F00103136000BFA1
:100DD8000C37BD465DF8047B704700BF90E1000802
:100DE80080B483B000AF786039600C4A3B68134424
:100DF8001B781A467B6813441B6808493A680A44FA
:100E0800127811467A680A4423F00103136000BF80
:100E18000C37BD465DF8047B704700BF90E10008C1
:100E280080B483B000AF78603960084A3B681344E7
:100E38001B781A467B6813441B6803F490731846A2
:100E48000C37BD465DF8047B704700BF90E1000891
:100E580080B485B000AFF860B9607A600D4ABB68AD
:100E680013441B781A46FB6813445B681B0C1B046D
:100E78000849BA680A4412781146FA680A441146C1
:100E88007A6813434B6000BF1437BD465DF8047B96
:100E9800704700BF90E1000880B483B000AF78606D
:100EA8003960074A3B6813441B781A467B68134429
:100EB8005B689BB218460C37BD465DF8047B7047EB
:100EC80090E1000880B485B000AFF860B9607A603E
:100ED8003B60BB69402B14D1174ABB6813441B788D
:100EE8001A46FB6813441A467B68D360124ABB68EB
:100EF80013441B781A46FB6813441A463B689360F0
:100F080013E00D4ABB6813441B781A46FB68134468
:100F18001A467B689360084ABB6813441B781A46D4
:100F2800FB6813441A463B68D36000BF1437BD46BC
:100F38005DF8047B704700BF90E1000880B485B07D
:100F480000AFF860B9607A60074ABB6813441B7841
:100F58001A46FB6813441A467B68D36000BF1437EF
:100F6800BD465DF8047B704790E1000880B483B00B
:100F780000AF78607B685B6803F40063B3F5006FCB
:100F88000CBF01230023DBB218460C37BD465DF8C1
:100F9800047B704780B483B000AF78607B685B687F
:100FA80003F40013B3F5001F0CBF01230023DBB2C9
:100FB80018460C37BD465DF8047B704780B483B093
:100FC80000AF78607B684FF40062DA6000BF0C37CE
:100FD800BD465DF8047B704780B483B000AF78608D
:100FE8007B684FF40012DA6000BF0C37BD465DF82D
:100FF800047B704780B483B000AF786039600C4AD6
:101008003B6813441B781A467B6813441B680849DD
:101018003A680A44127811467A680A4443F0100381
:10102800136000BF0C37BD465DF8047B704700BFF6
:1010380090E1000880B483B000AF786039600C4A52
:101048003B6813441B781A467B6813441B6808499D
:101058003A680A44127811467A680A4423F0100361
:10106800136000BF0C37BD465DF8047B704700BFB6
:1010780090E1000880B483B000AF786039600A4A14
:101088003B6813441B781A467B6813441B6803F0BB
:101098001003102B0CBF01230023DBB218460C37BA
:1010A800BD465DF8047B704790E1000880B483B0CA
:1010B80000AF78607B68DB6843F400527B68DA60D5
:1010C80000BF0C37BD465DF8047B704780B483B021
:1010D80000AF78607B68DB6823F400527B68DA60D5
:1010E80000BF0C37BD465DF8047B704780B483B001
:1010F80000AF78607B681B6803F00103012B0CBF0D
:1011080001230023DBB218460C37BD465DF8047B8B
:10111800704780B483B000AF78607B681B6803F0C9
:101128000203022B0CBF01230023DBB218460C3745
:10113800BD465DF8047B704780B483B000AF78602B
:101148007B681B6803F00403042B0CBF01230023F6
:10115800DBB218460C37BD465DF8047B704780B497
:1011680083B000AF78607B681B6803F00803082B26
:101178000CBF01230023DBB218460C37BD465DF8CF
:10118800047B704780B483B000AF78607B681B68CD
:1011980003F08003802B0CBF01230023DBB2184629
:1011A8000C37BD465DF8047B704780B485B000AF4E
:1011B80078607B681B68FB60FB687B685B68FB602A
:1011C800FB6800BF1437BD465DF8047B704780B4E8
:1011D80085B000AF78607B681B68FB60FB687B6844
:1011E8005B68FB60FB6800BF1437BD465DF8047B95
:1011F800704780B489B000AF78607B680C33FB60BF
:10120800FB6853E8003FBB60BB6843F02003FB6109
:101218007B680C33FA69BA617B617969BA6941E81C
:1012280000233B613B69002BE7D100BF00BF243797
:10123800BD465DF8047B704780B489B000AF786024
:101248007B680C33FB60FB6853E8003FBB60BB68FE
:1012580043F08003FB617B680C33FA69BA617B61F8
:101268007969BA6941E800233B613B69002BE7D102
:1012780000BF00BF2437BD465DF8047B704780B4CB
:1012880089B000AF78607B680C33FB60FB6853E87B
:10129800003FBB60BB6843F48073FB617B680C3321
:1012A800FA69BA617B617969BA6941E800233B61EF
:1012B8003B69002BE7D100BF00BF2437BD465DF86E
:1012C800047B704780B489B000AF78607B681433C2
:1012D800FB60FB6853E8003FBB60BB6843F0010359
:1012E800FB617B681433FA69BA617B617969BA6911
:1012F80041E800233B613B69002BE7D100BF00BFF9
:101308002437BD465DF8047B704780B489B000AFD0
:1013180078607B680C33FB60FB6853E8003FBB6078
:10132800BB6823F01003FB617B680C33FA69BA6170
:101338007B617969BA6941E800233B613B69002B0D
:10134800E7D100BF00BF2437BD465DF8047B704776
:1013580080B489B000AF78607B680C33FB60FB68B1
:1013680053E8003FBB60BB6823F02003FB617B6848
:101378000C33FA69BA617B617969BA6941E800237B
:101388003B613B69002BE7D100BF00BF2437BD4656
:101398005DF8047B704780B489B000AF78607B68E3
:1013A8000C33FB60FB6853E8003FBB60BB6823F06D
:1013B8008003FB617B680C33FA69BA617B617969E8
:1013C800BA6941E800233B613B69002BE7D100BFC4
:1013D80000BF2437BD465DF8047B704780B489B0F0
:1013E80000AF78607B680C33FB60FB6853E8003F14
:1013F800BB60BB6823F48073FB617B680C33FA69BC
:10140800BA617B617969BA6941E800233B613B694C
:10141800002BE7D100BF00BF2437BD465DF8047B31
:10142800704780B489B000AF78607B681433FB6084
:10143800FB6853E8003FBB60BB6823F00103FB6116
:101448007B681433FA69BA617B617969BA6941E8E2
:1014580000233B613B69002BE7D100BF00BF243765
:10146800BD465DF8047B704780B489B000AF7860F2
:101478007B681433FB60FB6853E8003FBB60BB68C4
:1014880043F04003FB617B681433FA69BA617B61FE
:101498007969BA6941E800233B613B69002BE7D1D0
:1014A80000BF00BF2437BD465DF8047B704780B499
:1014B80089B000AF78607B681433FB60FB6853E841
:1014C800003FBB60BB6823F04003FB617B681433BB
:1014D800FA69BA617B617969BA6941E800233B61BD
:1014E8003B69002BE7D100BF00BF2437BD465DF83C
:1014F800047B704780B489B000AF78607B68143390
:10150800FB60FB6853E8003FBB60BB6843F08003A7
:10151800FB617B681433FA69BA617B617969BA69DE
:1015280041E800233B613B69002BE7D100BF00BFC6
:101538002437BD465DF8047B704780B489B000AF9E
:1015480078607B681433FB60FB6853E8003FBB603E
:10155800BB6823F08003FB617B681433FA69BA61C6
:101568007B617969BA6941E800233B613B69002BDB
:10157800E7D100BF00BF2437BD465DF8047B704744
:1015880080B483B000AF78607B68043318460C37AA
:10159800BD465DF8047B704780B483B000AF7860C7
:1015A8007B685B68DBB218460C37BD465DF8047B88
:1015B800704780B483B000AF78600B46FB70FA7850
:1015C8007B685A6000BF0C37BD465DF8047B7047E6
:1015D80080B485B000AF786039607B685B6B3A682F
:1015E8001344FB607B685A6B7B689B6B9A4204D2FE
:1015F8007B689B6BFA689A4212D27B685A6B7B684D
:101608009B6B9A420ED37B689B6AFA689A4209D30D
:101618007B689B6AFA68D21A7B689B6B9A4201D3F3
:10162800012300E00023DBB218461437BD465DF8FD
:10163800047B704780B586B000AFF860B9607A6007
:101648003B607968F868FFF7C3FF0346002B21D099
:101658003B68002B1CD009F0FBFC786100BF79685F
:10166800F868FFF7B5FF0346002B07D0012178691A
:1016780007F056FB02463B689342F0D20121786995
:1016880007F04EFB02463B68934203D2012347E032
:10169800012345E0FB685A6B7B681A44FB689B6A28
:1016A8009A4223D9FB689A6AFB685B6BD31A3B6141
:1016B800FB681A6AFB685B6B13443A69B968184699
:1016C800FFF704FAFB685A6B7B681A44FB689B6A4D
:1016D800D21AFB685A63FB68186A3B69BA68D11862
:1016E800FB685B6B1A46FFF7F1F90FE0FB681A6AB3
:1016F800FB685B6B13447A68B9681846FFF7E6F92C
:10170800FB685A6B7B681A44FB685A63FB685A6B20
:10171800FB689B6A9A4202D1FB6800225A63002345
:1017280018461837BD4680BD80B586B000AF7860D2
:101738007B6893F83C30FB737B689B7D03F0040364
:10174800002B03D07B681B6B7B610DE07B685A68BC
:101758007B681B7C19461046FFF79EFBB8607B68C8
:101768005A6ABB68D31A7B617B685B6A7A699A425A
:1017780001D100237B61FB7B012B14D17B689B7D0E
:1017880003F01003002B0ED07B68DB6A7A699A425B
:1017980009D97B681B8B43F020039AB27B681A83B4
:1017A8007B687A69DA627B68DB6A7A699A4205D96A
:1017B8007B68DB6A7A69D31A3B6116E07B68DB6A6F
:1017C8007A699A4208D27B685A6A7B68DB6AD31ABC
:1017D8007A6913443B6108E0FB7B012B03D17B68EA
:1017E8005B6A3B6101E000233B613B69184618379F
:1017F800BD4680BD80B588B000AFF860B9607A603A
:101808000023BB61F868FFF78FFF0246BB6893426D
:1018180015D97B68002B12D009F01AFC786100BF3B
:10182800F868FFF781FF0246BB68934207D9012198
:10183800786907F075FA02467B689342F0D2F86837
:10184800FFF772FFB861BA69BB689A4202D2BB69F6
:10185800FB6101E0BB68FB61FB6918462037BD46A8
:1018680080BD80B586B000AFF860B9607A603B6033
:101878003B6800221A600023FB82FB68DA6A7B68F7
:101888001A44FB685B6A9A4227D9FB685A6AFB6864
:10189800DB6AD31A3B61FB68DA69FB68DB6A1344CD
:1018A8003A691946B868FFF711F9FB68DA6A7B6884
:1018B8001A44FB685B6AD21AFB68DA623B69BA6849
:1018C800D018FB68D969FB68DB6A1A46FFF7FEF88F
:1018D800FB68002283F83C200FE0FB68DA69FB68AC
:1018E800DB6A13447A681946B868FFF7EFF8FB68B3
:1018F800DA6A7B681A44FB68DA62FB68DA6AFB68B2
:101908005B6A9A4206D1FB680022DA62FB68002211
:1019180083F83C20F86800F075FA0346FB823B68C0
:101928007A681A60FB8A18461837BD4680BD80B5AC
:1019380084B000AFF860B9607A60FB685A68FB68E9
:101948001B7C19461046FFF795FB0346002B54D025
:10195800FB685A68BB68104698470346002B4CD072
:10196800FB685A687B6810469847FB6893F83C30D8
:10197800012B09D1FB681B8B43F020039AB2FB684B
:101988001A83FB680022DA62FB68012283F83C2094
:10199800FB685A68FB681B7C19461046FFF740FA3B
:1019A8000346002B29D1FB681B7D002B0BD0FB685D
:1019B8001B7D012B21D1FB681B8B002B03D0FB68FF
:1019C8001B8B202B19D1FB685A68FB681B7C1946B6
:1019D8001046FFF705FAFB685868FB681B7C194638
:1019E800FB685B6A1A46FFF733FAFB685A68FB68BC
:1019F8001B7C19461046FFF7D3F900BF1037BD46C8
:101A080080BD80B584B000AFF860B9607A60FB68CB
:101A18009A68FB685B7C19461046FFF72BFB034668
:101A2800002B00F09C80FB689A68BB6810469847BA
:101A38000346002B00F09380FB689A687B68104689
:101A48009847FB689A68FB685B7C19461046FFF765
:101A5800E7F90346002B40F08280FB689A6BFB682D
:101A6800DB681A44FB689A63FB689A6BFB689B6A9D
:101A78009A4202D1FB6800229A63FB680022DA745A
:101A8800FB689A6BFB685B6B9A4231D2FB685A6BB6
:101A9800FB689B6BD21AFB68DA60FB689A68FB6884
:101AA8005B7C19461046FFF79BF9FB689868FB6852
:101AB8005B7C1946FB681A6AFB689B6B13441A46E1
:101AC800FFF73CFAFB689868FB685B7C1946FB6883
:101AD800DB681A46FFF7BCF9FB689A68FB685B7C11
:101AE80019461046FFF75CF9FB680122DA7436E004
:101AF800FB689A6BFB685B6B9A4230D9FB689A6A01
:101B0800FB689B6BD21AFB68DA60FB689A68FB6813
:101B18005B7C19461046FFF763F9FB689868FB6819
:101B28005B7C1946FB681A6AFB689B6B13441A4670
:101B3800FFF704FAFB689868FB685B7C1946FB684A
:101B4800DB681A46FFF784F9FB689A68FB685B7CD8
:101B580019461046FFF724F9FB680122DA7400BF22
:101B68001037BD4680BD80B584B000AF78600023D3
:101B7800FB737B681B681846FFF7F1FA0346012BD5
:101B880008D17B681B8B43F002039AB27B681A83E7
:101B98000123FB737B681B681846FFF7BAFA0346F4
:101BA800012B08D17B681B8B43F008039AB27B6832
:101BB8001A830123FB737B681B681846FFF7BCFA7E
:101BC8000346012B08D17B681B8B43F010039AB2A4
:101BD8007B681A830123FB737B681B681846FFF731
:101BE80085FA0346012B08D17B681B8B43F004035D
:101BF8009AB27B681A830123FB73FB7B012B1ED1EE
:101C08007B681B7D012B15D17B689B7D03F004034A
:101C1800002B0AD07B681B681846FFF799FB7B6886
:101C28001B681846FFF771FB04E07B681B681846C1
:101C3800FFF73DFC7B681B681846FFF7B6FA00BF44
:101C48001037BD4680BD80B584B000AF78607B6832
:101C58001B681846FFF796FA0346FB73FB7B012BBC
:101C680029D17B689A6B7B685B6B9A421BD07B6837
:101C780018687B681A6A7B689B6B13441B78194643
:101C8800FFF797FC7B689B6B5A1C7B689B6A9A42A0
:101C980003D17B6800229A630DE07B689B6B5A1C1A
:101CA8007B689A6307E07B681B681846FFF773FB3D
:101CB8007B6800229A74FB7B18461037BD4680BDAE
:101CC80080B500AF0248FFF74EFF00BF80BD00BFE0
:101CD800DC01002080B500AF0248FFF7B4FF00BF69
:101CE80080BD00BF1C0A002080B500AF034A04492C
:101CF8000448FFF786FE00BF80BD00BFE10F000863
:101D08009D0F0008DC01002080B500AF034A04499C
:101D18000448FFF70CFE00BF80BD00BFC50F0008D8
:101D2800750F0008DC010020B0B584B002AF786000
:101D38007B685C687B681B7C1D467B681B68184653
:101D4800FFF71EFC02467B68DB69194600230093F7
:101D58000B4629462046FFF7B5F87B6858687B682C
:101D68001B7C19467B685B6A1A46FFF771F87B682B
:101D78005A687B681B7C19461046FFF73BF97B685D
:101D88001B681846FFF770FB7B681B685A697B68FD
:101D98001B6842F040025A617B685A687B681B7C6A
:101DA80019461046FEF7FCFF00BF0837BD46B0BD18
:101DB800F0B585B002AF78607B689C687B685B7C17
:101DC8001D467B681B6A1E467B681B681846FFF722
:101DD800D7FB034640220092324629462046FFF7A9
:101DE80071F87B689A687B685B7C19461046FFF738
:101DF80001F97B681B681846FFF77CFB00BF0C37AE
:101E0800BD46F0BD80B584B000AF78600023FB818B
:101E18007B681B8B03F02003002B0AD0FB8943F05F
:101E28002003FB817B681B8B23F020039AB27B681D
:101E38001A837B681B7D002B08D17B681A8BFB8972
:101E48001343FB817B6800221A833AE07B681B7D81
:101E5800012B36D17868FFF767FC0346002B30D199
:101E68007B681B8B002B2CD07B681A8BFB89134358
:101E7800FB817B6800221A837B689B7D03F0040347
:101E8800002B0FD07B681B681846FFF785FB7B6823
:101E98001B681846FFF79BF97B681B681846FFF715
:101EA800A8F90EE07B681B681846FFF775FB7B688E
:101EB8001B681846FFF78BF97B681B681846FFF705
:101EC800D3FAFB8918461037BD4680BD80B584B06B
:101ED80000AF78607B681B686D4A934203D06D4AF7
:101EE800934203D005E06C4BFB6005E06B4BFB6055
:101EF80002E00023FB6000BFFB68002B00F0C380FA
:101F0800FB685A7D7B685B7D1343DAB2FB685A75C0
:101F1800FB689A7D7B689B7D1343DAB2FB689A75F0
:101F28007B681A68FB681A60FB6800221A83FB68E2
:101F380000225A83FB681B681846FFF7C7F87B68BE
:101F48005B7D03F00103002B3CD07B685A6AFB6879
:101F58005A627B68DA69FB68DA61FB680022DA6238
:101F6800FB6800221A637B681A7DFB681A75FB6898
:101F7800002283F83C20FB689B7D03F01003002BB4
:101F880015D07B685A68FB685A607B681A7CFB68C6
:101F98001A74F868FFF7C8FEFB681B681846FFF755
:101FA80091F9FB681B681846FFF769F90AE0FB68B6
:101FB8009B7D03F00403002B04D0FB681B681846C4
:101FC800FFF717F97B685B7D03F00203002B27D02E
:101FD8007B689A6AFB689A627B681A6AFB681A626D
:101FE800FB6800225A63FB6800229A63FB680022A0
:101FF8009A74FB680022DA74FB689B7D03F0200367
:10200800002B0DD07B689A68FB689A607B685A7CC5
:10201800FB685A74FB680022DA60F868FFF7C8FEAC
:10202800FB681B681846FFF741F87B681B68184A6D
:10203800934203D0174A934211D021E0FEF726FEBF
:102048000346002200211846FEF776FE034619468D
:102058002620FEF747FE2620FEF726FE13E0FEF7B1
:1020680015FE0346002200211846FEF765FE0346CA
:1020780019463420FEF736FE3420FEF715FE02E03E
:102088000023FB6000BFFB6818461037BD4680BDC3
:1020980000440040004C0040DC0100201C0A0020E5
:1020A80080B586B000AFF860B9607A603B603B6885
:1020B80000221A60FB685B8B03F48073002B02D04C
:1020C8004FF4807316E0FB685B8B43F480739AB21D
:1020D800FB685A833B687A68B968F868FFF7C1FB00
:1020E8000346FB82FB685B8B23F480739AB2FB6820
:1020F8005A83FB8A18461837BD4680BD80B584B020
:1021080000AFF860B9607A603B60BB6900221A6072
:10211800FB685B8B03F08003002B01D0802353E026
:102128007B68002B4FD0FB685B8B43F080039AB22F
:10213800FB685A833B687A68B968F868FFF77AFAE7
:102148000346012B08D1FB685B8B23F080039AB20E
:10215800FB685A83402337E0FB689B7C002B28D11F
:10216800FB681868FB681A6AFB689B6B13441B784A
:102178001946FFF71EFAFB689B6B5A1CFB689B6AA3
:102188009A4203D1FB6800229A6304E0FB689B6BC8
:102198005A1CFB689A63FB689A6BFB685B6B9A42F4
:1021A80007D0FB6801229A74FB681B681846FFF782
:1021B80043F8BB697A681A60FB685B8B23F080037D
:1021C8009AB2FB685A83002318461037BD4680BD73
:1021D80080B586B000AFF860B9607A603B603B6A52
:1021E80000221A60FB685B8B03F08003002B01D090
:1021F800802367E07B68002B63D0FB685B8B43F030
:1022080080039AB2FB685A83FB685B6B7B613B680F
:102218007A68B968F868FFF70DFA0346012B08D108
:10222800FB685B8B23F080039AB2FB685A834023D8
:1022380048E0FB68DB7C002B39D1FB685A6BFB68F4
:102248009B6B9A4206D2FB689A6A7B69D21AFB6832
:10225800DA6002E0FB687A68DA60FB680122DA7407
:10226800FB689A68FB685B7C19461046FEF7B8FD68
:10227800FB689868FB685B7C1946FB681A6AFB6810
:102288009B6B13441A46FEF759FEFB689868FB6877
:102298005B7C1946FB68DB681A46FEF7D9FDFB68CC
:1022A8009A68FB685B7C19461046FEF779FD3B6A25
:1022B8007A681A60FB685B8B23F080039AB2FB682C
:1022C8005A83002318461837BD4680BD80B582B0B2
:1022D80000AF78607B681B681846FEF7F7FE7B68DE
:1022E8009B7D03F02003002B0DD07B689A687B68E8
:1022F8005B7C19461046FEF79DFE7B681B681846F6
:10230800FFF71BF90AE07B689B7D03F00803002BAD
:1023180004D07B681B681846FFF73DF87B689B7DF7
:1023280003F01003002B17D07B681B681846FFF7D3
:1023380078F87B681B681846FFF750F87B685A687E
:102348007B681B7C19461046FEF774FE7B681B6889
:102358001846FFF7ACF80AE07B689B7D03F004039E
:10236800002B04D07B681B681846FEF7F1FF00BFFE
:102378000837BD4680BD80B485B000AF786039604D
:102388000023FB7397F90F3018461437BD465DF8E4
:10239800047B704780B584B000AF78603960002353
:1023A800FB727B68002B05D1374800F07DFB4FF0AE
:1023B800FF3365E03B68002B05D1344800F074FB1F
:1023C8004FF0FF335CE0324BD3E900014FF00002DD
:1023D8004FF04043FEF7F8FA0346002B06D03B685F
:1023E800D3E900232A49C1E9002305E0284BD3E9B2
:1023F80000233968C1E90023254BD3E900014FF0D8
:102408000002244BFEF7E0FA0346002B02D02248D4
:1024180000F04AFB7B685B681B68204A13607B6896
:102428005B685B681E4A13607B685B689B681D4A33
:1024380013607B685B68DB681B4A13601B4B0022D8
:102448001A6000F0EFFF0023FB600023FB6007E049
:10245800174AFB68174942F82310FB680133FB60F1
:10246800FB68012BF4D900F01DFC0346FB7297F9B9
:102478000B30002B02D1104B01221A7097F90B3048
:1024880018461037BD4680BD08B900082CB90008A9
:10249800000000200000F0BF58B90008680B0020B9
:1024A8006C0B0020700B0020740B0020780B0020B0
:1024B8005C0A002095340008650B002080B586B0C2
:1024C80000AF78600023FB7500233B610023FB739A
:1024D8002A4B1B78DBB2002B0CBF01230023DBB295
:1024E800BB73274B02221A707B68002B0BD1234B3E
:1024F8001B78DBB2002B06D1224B1B78DBB2002BFA
:1025080001D1012300E00023FB7316E00A2006F046
:10251800C7FB3B6903F51C5310333B617B68B3F180
:10252800FF3F05D03A697B689A4201D9012300E050
:102538000023FB73002000F00DFC104B1B78DBB26E
:10254800002B07D10F4B1B78DBB2002B02D1FB7B92
:10255800002BDBD00A4B03221A70FB7B002B01D027
:102568009C23FB75BB7B002B01D001F089F897F900
:10257800173018461837BD4680BD00BF630B0020D2
:10258800650B0020640B002080B588B000AF0346BF
:1025980087ED000BFB810023FB770123BB774FF00E
:1025A80000024FF00003D7E90001FEF717FA0346CF
:1025B800002B05D02F4800F077FA4FF0FF3355E095
:1025C800FB89FF2B08D9FB89FF2219462A4800F00E
:1025D8006BFA4FF0FF3349E0284B1B78DBB2032B33
:1025E80004D0264B1B78DBB2012B02D1234B0422EB
:1025F8001A70FB89012B15D8FB89214A52F8233020
:10260800002B0FD001F0FEFB03467B777B7F022B6C
:1026180008D1FB891A4A52F82330FA89104698479C
:102628000346BB77FB897B83FB89184697ED000B34
:1026380000F0F6FA7861BB7F002B07D07B8B7969B5
:10264800184601F0BBFB0346FB7703E07B8B18467B
:1026580001F013FC97F91F30002B05D097F91F30B4
:102668001946084800F020FA97F91F301846203715
:10267800BD4680BDC4B9000808BA0008650B002033
:102688005C0A002048BA000880B582B000AF002379
:10269800FB71002000F05EFB0346FB7197F90730E1
:1026A80018460837BD4680BD80B582B000AF00230C
:1026B800FB710B4B06221A7000F0EAFB0346FB7114
:1026C80008220021074809F025F800F05FFF044BB5
:1026D80000221A7097F9073018460837BD4680BDA2
:1026E800650B00205C0A002080B400AF034B1B7808
:1026F800DBB21846BD465DF8047B7047640B0020CA
:1027080080B400AF034B1B78DBB21846BD465DF8BA
:10271800047B70477C0B002080B592B000AF7860D6
:102728007B681033BB6202237B770823BB770A4B95
:10273800BB6000233B6100237B7680233B6307F16A
:1027480008031846FFF7C2FB02467B68DA6000BF41
:102758004837BD4680BD00BF004C004090B585B0ED
:1027680002AF114B1B78FB70104BD868F91C3B1D4E
:10277800009364230122FFF7C1FC0D4B9A6A0132D2
:102788009A629B6A1846FDF73DFE094BD3E90C2374
:10279800074CFDF7B1FE02460B46C4E9082300BF0B
:1027A8000C37BD4690BD00BFA0E10008640A0020B8
:1027B800F80A00200000000080B500AF24494FF05F
:1027C8000002244BC1E90E2321491FA3D3E90023AA
:1027D800C1E90C231E4B204A9A601D4B1F4ADA6040
:1027E8001B4B1F4A1A611A4B1E4A5A61184B1E4A44
:1027F8005A601D4B1D4A1A601C4B1D4A1A601B4B20
:102808001B4A5A60124A124B5B6818329A60104A87
:102818000F4B5B6808325A600D4A0D4B5B682032DB
:10282800DA60144B00221A70124B00221A72114BF4
:1028380001225A600F48FFF76FFF0E4B01221A72F0
:1028480000BF80BDAFF300809A9999999999C93FC3
:10285800F80A002000002440FA367A77D3595479D0
:102868008F7C57F5A0AD26EF400B0020540B0020BD
:102878009CE10008640A002080B500AF0A4B1B7871
:10288800002B0FD1084B01221A70074B5B68012BF4
:1028980008D1054B1B7A002B04D0034BDB68184684
:1028A800FFF714FD00BF80BD640A002080B582B028
:1028B80000AF4FF000024FF00003C7E90023164BAA
:1028C8001B785A1CD1B2144A1170002B09D0134B33
:1028D80001221A60104B1B78013BDAB20E4B1A70BA
:1028E80016E062B600BF0E4B1B68D3E90823C7E9A0
:1028F8000023FFF733FF97ED000B0020FFF744FE9E
:1029080072B600BF044B1B78013BDAB2024B1A7057
:102918000837BD4680BD00BF600B00205C0B00205F
:1029280098E1000880B586B000AF78603960584BF0
:102938007B61584B3B610023FB73574B00221A7095
:10294800564B00221A7001DF08F04CFB06F00AFF14
:1029580006F0BEF907F066F807F08CF806F054FFA9
:1029680006F0B2FF4E4B1B6800221A6000210020BF
:10297800FFF701FD0346FB7397F90F30002B02D0D8
:1029880097F90F3080E0FFF717FF72B600BF62B605
:1029980000BF434B1B685A68414B1B6838331946C4
:1029A8001046FFF7F7FC0346FB7397F90F30002B2F
:1029B8000DD14FF0FF30FFF781FDFFF795FE03467D
:1029C800002B04D0364B1B68012283F8402072B6D6
:1029D80000BF97ED050A06F039FAFFF791FE0346A6
:1029E800002B0CD1FFF780FE0346002B07D12C4BA0
:1029F8001B6893F84030002B01D1012300E000232D
:102A0800DAB2264B1A7062B600BF62B600BF2FE07A
:102A1800FFF73AFE0346FB73FFF772FE0346002BEF
:102A28000AD1FFF761FE0346002B05D11C4B1B683A
:102A380093F84030002B01D0012300E00023DAB2E4
:102A4800154B1A70144B1B78DBB2002B0CBF0123FB
:102A58000023DBB21A46114B1A700F4B1B78DBB2FE
:102A6800002B05D00F4B1B680E4A23F0010313609F
:102A78000A4B1B78DBB2002BCAD1FFF7FDFEFFF72C
:102A880013FE72B600BF002318461837BD4680BD36
:102A9800CDCC4C3E00002843610B0020620B002087
:102AA80098E1000810E000E00FB480B400AF00BF68
:102AB800BD465DF8047B04B0704780B485B000AFB4
:102AC800F860B9607A60FB68BA681A60FB6804331A
:102AD8007A681A6000BF1437BD465DF8047B7047FA
:102AE800F0B58BB000AF87ED020B0346FB80FB8887
:102AF800002B77D14FF00002414BD7E90201FDF7D7
:102B0800FBFC02460B46C7E906239FED391B97EDF0
:102B1800060B08F0E5FA53EC102B10461946FDF7A2
:102B28009BFF03467B6100237B6233A3D3E9002329
:102B3800D7E90601FDF770FF0346002B0ED02EA340
:102B4800D3E90023D7E90601FDF700FE02460B464C
:102B580010461946FDF780FF03467B627A6A796959
:102B68002848FFF7AAFF284BD3E900014FF00002DD
:102B7800264BFDF729FF0346002B2ED1224BD3E924
:102B880000014FF000024FF04043FDF71DFF0346E0
:102B9800002B22D11C4BD3E90001D7E90223FDF712
:102BA800F3FA02460B4614461D464FF00002184B36
:102BB800D7E90201FDF7A0FC02460B4601210E46AB
:102BC80020462946FDF70AFF0346002B01D10023C2
:102BD8001E46F3B21A460F4B1A700F49D7E9022363
:102BE800C1E9002300BF2C37BD46F0BDAFF300801C
:102BF800000000000000F0410000E0FFFFFFEF418F
:102C080000408F40900B0020000000200000F0BF23
:102C18000000B03C7C0B0020980B00200000000056
:102C280080B586B000AF87ED020B0346FB8000231A
:102C38007B61FB88184697ED020BFFF751FF17A33E
:102C4800D3E90023D7E90201FDF756FC02460B46FB
:102C5800104619464FF000020F4BFDF797FA02464F
:102C68000B4643EC172B9FED0A1BB0EE470AF0EE1C
:102C7800670A08F035FA53EC102B10461946FDF791
:102C8800EBFE03467B617B6918461837BD4680BD5D
:102C9800000000000000F0410000E03F00000000DC
:102CA80080842E4180B584B000AF0023BB60002330
:102CB8007B600023FB7323494FF000024FF00003B1
:102CC800C1E9002320494FF000024FF00003C1E999
:102CD80000233A1D07F108031146184605F0B2FF14
:102CE800BB687A681146184604F0CEF80346FB73B1
:102CF80097F90F30002B05D01448FFF7D5FE97F948
:102D08000F301AE03A1D07F108031146184605F07E
:102D1800B0FFBB687A681146184600F053FF0346B7
:102D2800FB7397F90F30002B05D097F90F30194630
:102D38000748FFF7B9FE97F90F3018461037BD4618
:102D480080BD00BF800B0020880B0020C4BB00089A
:102D5800ECBB000880B584B000AF0346FB710023CC
:102D6800FB730023BB73002005F09AFF00237B73DD
:102D780004F058FA0346FB7397F90F30002B0DD077
:102D880097F90F3013F1020F08D097F90F30194651
:102D98003C48FFF789FE0123BB730BE07B7B002BCC
:102DA80004D197F90F3013F1020F01D0012300E08D
:102DB80000237B73BB7B002B21D100F035FF03463A
:102DC800FB7397F90F30002B0DD097F90F3013F1E3
:102DD800020F08D097F90F3019462B48FFF764FE09
:102DE8000123BB730BE07B7B002B04D197F90F30D9
:102DF80013F1020F01D0012300E000237B73BB7B9A
:102E0800002B21D104F098F90346FB7397F90F3092
:102E1800002B0DD097F90F3013F1020F08D097F956
:102E28000F3019461948FFF73FFE0123BB730BE02B
:102E38007B7B002B04D197F90F3013F1020F01D0DF
:102E4800012300E000237B73FB79002B0DD00020C9
:102E580005F026FFBB7B002B02D17B7B002B01D129
:102E6800012300E00023BB7301E00123BB73BB7B9C
:102E7800002B3FF47BAF97F90F3018461037BD464B
:102E880080BD00BF14BC00084CBC00087CBC000816
:102E980080B582B000AF0023BB70394B1B78DBB222
:102EA800002B02D0002000F0D9FF00F0ABFF034652
:102EB800FB7000237B600EE00A2005F0F1FE7B68C2
:102EC80003F51C5310337B600120FFF743FF00F02C
:102ED80099FF0346FB707B682A4A934202D2FB782B
:102EE800002BE9D100F09AFF0346BB7097F9023036
:102EF800002B05D097F9023019462348FFF7D4FD77
:102F080004F00AFB0346BB7097F90230002B05D08A
:102F180097F9023019461D48FFF7C6FD1C4B0022E1
:102F28001A701C4B00221A701B4B00221A601B4B94
:102F380000221A601A4B00221A601A4B00221A60EB
:102F4800194B00221A6019494FF000024FF0404314
:102F5800C1E900230A4B00221A70082200211448F4
:102F680008F0D8FB13494FF000024FF00003C1E905
:102F7800002397F9023018460837BD4680BD00BFC8
:102F88007C0B002000879303B4BC0008D0BC000869
:102F9800630B0020640B0020680B00206C0B0020E2
:102FA800700B0020740B0020780B0020000000201C
:102FB800900B0020980B002080B586B000AF614BC5
:102FC8001B687B617B69002B00F0B8805E4B1B7827
:102FD800DBB2002B04D15B4B1B68002B00F0AE80EA
:102FE8005A4B1B78DBB2022B40F0A880584B1B7859
:102FF800002B40F0A3807B69D3E90023C7E90223B3
:10300800544B1B78002B00F08A80534B1B78DBB2A3
:10301800002B04D0504B1B78DBB2022B01D10123CB
:1030280000E00023FB714C4B1B78DBB2012B04D072
:10303800494B1B78DBB2022B01D1012300E00023AE
:10304800BB71FB79002B33D0444BD3E90023D7E97C
:103058000201FDF7D7FC0346002B0AD0404BD3E909
:1030680000013E4BD3E90023FDF7B8FC0346002BD3
:1030780014D13A4BD3E90023D7E90201FDF7CCFC80
:103088000346002B14D0364BD3E90001334BD3E968
:103098000023FDF799FC0346002B09D0314B1B6830
:1030A800002B02D1304B01221A70294B01221A70D1
:1030B800BB79002B33D0294BD3E90023D7E9020190
:1030C800FDF78CFC0346002B0AD0254BD3E9000101
:1030D800224BD3E90023FDF795FC0346002B14D1BE
:1030E8001E4BD3E90023D7E90201FDF76DFC034627
:1030F800002B14D01A4BD3E90001184BD3E9002355
:10310800FDF78AFC0346002B09D0164B1B68002BE1
:1031180002D1154B01221A700D4B01221A700C4B6B
:103128001B78002B0CBF01230023DBB21A46094B86
:103138001A700B49D7E90223C1E9002300BF1837E9
:10314800BD4680BDA40B0020A80B0020C40B0020A6
:10315800D30B0020D00B0020C00B0020B00B0020A8
:10316800C80B0020BC0B0020D20B002080B582B019
:1031780000AF0023FB719E4B1B78DBB2002B18D1EC
:103188009C4B00221A709C4B00221A709B4B1B7898
:10319800DBB2002B2DD0964B02221A70974B0022DF
:1031A8001A70974B1B78DBB2002B22D10123FB71DD
:1031B8001FE0924B00221A708E4B1B78DBB2002B5B
:1031C80009D0904B00221A70894B00221A70894B43
:1031D80000221A700DE08A4B1B78DBB2002B02D15B
:1031E8000123FB7105E0844B1B78FB71824B0022A5
:1031F8001A707F4B1B78DBB2042B00F2D78001A238
:1032080052F823F0213200085B3300083B320008F3
:103218000F33000899320008784B1B78DBB2002B7B
:1032280000F0D880724B02221A70744B00221A7078
:10323800D0E0FB79002B00F0CF80734B1B68002B8C
:103248000DDD6F4B1B78DBB2012B08D16E4B1B6871
:103258001A466E4B1A60664B03221A70BCE06C4B20
:103268001B68002B0AD0674B01221A70684B1B6839
:10327800664A13605E4B04221A70ADE06548FFF79A
:1032880013FC604B00221A70594B00221A70A3E0FD
:103298005E4B1B68002B04D05C4B1B68013B5B4AF0
:1032A80013605A4B1B68002B40F098805A4B1B78D0
:1032B800DBB2012B06D1534B00221A704C4B002273
:1032C8001A708BE0554B1B68002B0AD04D4B00221F
:1032D8001A70524B1B684D4A1360454B01221A70F5
:1032E8007CE0FB79002B07D0494B1B68474A1360E9
:1032F8003F4B04221A7071E0424B00221A703C4B7B
:1033080002221A706AE0414B1B68002B04D03F4B25
:103318001B68013B3D4A13603C4B1B68002B5FD187
:103328003B4B1B68002B0AD0364B01221A70384BD6
:103338001B68364A13602E4B04221A7050E0354839
:10334800FFF7B2FB2F4B00221A70294B00221A708C
:1033580046E02E4B1B68002B04D02C4B1B68013B0E
:103368002A4A1360294B1B68002B3BD1FB79002BA1
:1033780018D0274B1B68002B0AD0224B01221A7049
:10338800234B1B68214A1360194B04221A7029E049
:103398002048FFF789FB1B4B00221A70144B0022B0
:1033A8001A701FE0124B02221A701BE0104B1B7898
:1033B800DBB219461A48FFF777FB124B00221A7046
:1033C8000D4B00221A700B4B00221A70084B00227A
:1033D8001A7008E000BF06E000BF04E000BF02E08A
:1033E80000BF00E000BF00BF0837BD4680BD00BF7A
:1033F800C40B0020C10B0020D30B00200C000020C0
:10340800C20B0020D20B0020BC0B0020D40B0020E4
:1034180008000020F4BC0008C30B0020B80B0020F3
:103428001CBD000880B400AF10494FF000024FF0F7
:103438000003C1E900230E4B00221A700D4B1B78C4
:10344800DAB20D4B1A700D4B00221A700C4B002289
:103458001A700C4B00221A600B4B00221A700023C2
:103468001846BD465DF8047B704700BFC80B0020B6
:10347800D00B0020C20B0020D10B0020D20B002063
:10348800D30B0020D40B0020C40B002080B584B0DF
:1034980000AF0346FB80FB88002B3FD1314B1B78E4
:1034A800DAB2314B1B789A4214BF01230023DBB2F6
:1034B800FB732C4B1B78DAB22B4B1A70FB7B002B5F
:1034C8000BD02A4B00221A70294B00221A70294B64
:1034D80000221A60284B00221A70224B1B78DBB29C
:1034E800012B1BD1244B1B78DBB2002B04D1234BBF
:1034F8001B78DBB2002B08D11F4B1B78DBB2012BEA
:103508000CD11C4B1B68012B08D11A4B00221A60E6
:103518001A4B00221A70184B02221A70114B1B7892
:10352800DBB2012B07D1164B1B889BB2FA889A4253
:1035380001D1FFF741FDFB88002B05D1FFF716FEEF
:10354800104B00221A7006E00E4B1B78002B02D09D
:103558000D4B1B7801E0054B1B7818461037BD460C
:1035680080BD00BFC20B0020D10B0020D20B002071
:10357800D30B0020D40B0020C40B00200C0000202B
:10358800A00B0020D90B0020D80B002080B400AF7E
:1035980026494FF000024FF00003C1E90023244BF5
:1035A80000221A70234B00221A70234B00221A7033
:1035B800224B00221A80224B00221A70214B002233
:1035C8001A70214B00221A60204B00221A70204BDF
:1035D80000221A701F4B00221A601F4B00221A701B
:1035E8001E494FF000024FF00003C1E900231C4BB5
:1035F8004FF47A721A601B4B00221A601A4B002291
:103608001A601A4B00221A70194B01221A70194BB2
:1036180000221A70184B00221A70184B00221A70D8
:1036280000231846BD465DF8047B7047C80B002090
:10363800D00B0020C40B0020D10B0020A00B0020D1
:10364800D20B0020D30B0020D40B0020D80B002075
:10365800D90B0020A40B0020A80B0020B00B0020E1
:1036680008000020B80B0020BC0B0020C00B002075
:103678000C000020C10B0020C20B0020C30B00204F
:1036880080B400AF174B1B78DBB2002B25D1164B4B
:103698001B78DBB2002B0BD0144B1B78DBB2002B52
:1036A80006D1134B01221A70124B01221A7014E032
:1036B8000E4B1B78DBB2002B0BD00B4B1B78DBB20D
:1036C800002B06D10A4B00221A700A4B01221A70ED
:1036D80003E0084B00221A70FFE700BFBD465DF803
:1036E800047B7047C20B00200C000020C10B002097
:1036F800D80B0020D90B002080B586B000AFF86049
:10370800B9607A603B600023FB7503F0F9FE38610D
:10371800FB681B68184604F009F90021386803F0B3
:1037280067FE0246BB681A6003F052FE02467B68D9
:103738001A60BB681B68002B0FD0BB681B68194652
:10374800386904F0F9FB0246FB681A60FB681B68DD
:10375800002B04D1F623FB7501E0F823FB7597F9DC
:10376800173018461837BD4680BD000080B584B0B4
:1037780000AFF860B9607A60FA68BB6813441B78D8
:1037880019460848FFF790F9FB68002B02D0F86843
:1037980004F0CCF87B6800221A6000231846103722
:1037A800BD4680BD40BD000880B584B000AFF8605C
:1037B800B9607A60FA68BB6813441B7819460648F2
:1037C800FFF772F97B6802221A604FF0FF33184640
:1037D8001037BD4680BD00BF9CBD000880B485B0D1
:1037E80000AF03460A46FB711346BB710523FB7302
:1037F800FB79F02B02D90023FB7322E0FB79E32B42
:1038080005D9FB79F02B02D80123FB7319E0FB796A
:10381800D22B02D9FB79E22B08D9FB79C02B08D12E
:10382800BB79002B05D0BB79022B02D80223FB738E
:1038380007E0FB79C72B04D9FB79D22B01D80323E6
:10384800FB73FB7B18461437BD465DF8047B704755
:1038580080B58CB000AFF860B9607A603B60FB68F7
:10386800BB62BB6A1B7887F82730002387F82F30A4
:1038780097F82730C02B06D1BB68012B03D9BB6A48
:103888005B7887F82F30364B1B78002B3ED097F8A3
:103898002F2097F8273011461846FFF79FFF034659
:1038A800FB76002387F82E30FB7E052B23D0FB7E8A
:1038B8002C4A52F823307B6100233B617B69002B43
:1038C80019D097F827207B691046984738613B69DB
:1038D800002B14BF01230023DBB287F82E3097F8A2
:1038E8002E30002B07D03B695A687B681A603B6909
:1038F8009A683B681A6097F82E30002B2CD17B68A9
:10390800194A1A603B68194A1A6025E097F8273067
:10391800FF2B1BD1134B1B683B627B6800221A608C
:103928003B6800221A603B6A002B15D03B6AFF20D7
:103938009847F861FB69002B0ED0FB695A687B68D1
:103948001A60FB699A683B681A6005E07B68084A58
:103958001A603B6800221A6000BF3037BD4680BD40
:10396800DB0B0020E00B0020B1370008413A0008CB
:103978007537000880B483B000AF0346FB71044A72
:10398800FB79137000BF0C37BD465DF8047B7047A8
:10399800DB0B002080B400AF034B1B781846BD46F4
:1039A8005DF8047B704700BFDC0B002080B483B057
:1039B80000AF0346FB71064B1A78FB791343DAB262
:1039C800034B1A7000BF0C37BD465DF8047B704787
:1039D800DC0B002080B483B000AF0346FB7197F97D
:1039E8000730DB435AB2074B1B785BB213405BB21C
:1039F800DAB2044B1A7000BF0C37BD465DF8047B81
:103A0800704700BFDC0B002080B400AF034B1B786D
:103A18001846BD465DF8047B704700BFDD0B0020EB
:103A280080B400AF034B1B881846BD465DF8047B85
:103A3800704700BFDE0B002080B586B000AF03469C
:103A4800B9607A60FB7397F90F30002B05D1BB681A
:103A58003B613B69FF221A7076E0BB687B617B693A
:103A6800FE221A7097F90F3010330F2B62D801A27B
:103A780052F823F0353B00082D3B0008253B000891
:103A88001D3B0008153B00080D3B0008FD3A0008E7
:103A9800053B0008F53A0008ED3A0008E53A000849
:103AA800DD3A0008C53A0008BD3A0008CD3A0008DA
:103AB800D53A00087B6930225A7045E07B69292293
:103AC8005A7041E07B6922225A703DE07B692022CE
:103AD8005A7039E07B6900225A7035E07B692322ED
:103AE8005A7031E07B6921225A702DE07B691122DE
:103AF8005A7029E07B6927225A7025E07B692A22BF
:103B08005A7021E07B6910225A701DE07B692422DB
:103B18005A7019E07B6928225A7015E07B692622C1
:103B28005A7011E07B6931225A700DE07B693322AB
:103B38005A7009E097F90F3019460548FEF7B4FFA7
:103B48007B6920225A70FFE700BF1837BD4680BD49
:103B5800CCBD000880B487B000AF0346B9607A6076
:103B6800FB7300237B61BB68002B23D000233B61E0
:103B780000233B6117E03A6913465B0013449B003E
:103B88001A46BB6813441B78FA7B9A4208D13A69F3
:103B980013465B0013449B001A46BB6813447B61C1
:103BA8003B6901333B613A697B689A4202D27B697F
:103BB800002BE0D07B6918461C37BD465DF8047BB6
:103BC8007047000080B582B000AF78603960134B51
:103BD8001B78002B05D01248FEF766FF6FF00B0329
:103BE80018E000F077FC00F081FC03460D4A1360F2
:103BF80002F04EFA02F068FA03460A4A936003F0AC
:103C080041F803F049F80346064A5360034B012282
:103C18001A70002318460837BD4680BDDA0B00200D
:103C280010BE0008E00B002080B58CB002AF002366
:103C380087F82730002387F826300023FB6100230C
:103C4800BB6100237B6100233B610023FB600023F1
:103C58003B620023BB6000237B60554B1B78002B25
:103C680005D15448FEF720FF6FF008039BE007F1E9
:103C7800140007F1180207F11C0107F11003009363
:103C88000346002003F00EFB034687F8273097F918
:103C98002730002B09D097F9273013F1040F04D0EF
:103CA80097F9273013F1050F71D1FB69002B05D067
:103CB8007A693B691A44BB699A4203D9F82387F8A1
:103CC800273067E0FA697B6913443B6239693B1D19
:103CD80007F10802386AFFF7BBFDBB68002B09D162
:103CE8003B6A1B7819463448FEF7DEFEF42387F852
:103CF80027304FE0BB68F869796907F10C029847EB
:103D0800034687F826307B68002B3DD0FB68002BE4
:103D18003AD0002387F827303A69FB689A420BD2D9
:103D2800FB6807F1140207F1180107F11C00FFF7FF
:103D3800E3FC034687F827303B691A460021386AB6
:103D480007F0E8FC97F92730002B1DD1FA697B6949
:103D580013443B627B68FA6897F92600396A9847EA
:103D6800F969B8697B69FA680192009303460A46C3
:103D78004FF6FF71012003F03DF9034687F827301D
:103D880097F92730002B04D197F927300BE000BFB3
:103D980000E000BFFB69002B03D0FB69184603F065
:103DA800C5FD97F9273018462837BD4680BD00BFA6
:103DB800DA0B002040BE000868BE000880B584B059
:103DC80000AF03463960FB800023FB730B4B1B7865
:103DD800002B05D10A48FEF767FE6FF0080309E0DB
:103DE800FB8800223968184602F06CFB0346FB7317
:103DF80097F90F3018461037BD4680BDDA0B002002
:103E080098BE000880B400AF034B1B781846BD4627
:103E18005DF8047B704700BFDB0B002080B500AF66
:103E28000B4B1B78002B02D10A48FEF73DFE02F02F
:103E38004FFF02F0F1FD00F075FB1022002106484B
:103E480007F068FC024B00221A700023184680BD58
:103E5800DA0B002090BF0008E00B002080B584B08A
:103E680000AF7860786802F0B1FB0346FB7397F9FE
:103E78000F3018461037BD4680BD80B584B000AFFE
:103E88000346FB800123FB73FA7BFB88002118465D
:103E980002F018FB0346BB7397F90E30184610372B
:103EA800BD4680BD80B584B000AF0346FB710123D9
:103EB800FB6003F0DCFAB860FA79B968FB68B1FB1B
:103EC800F3F39A4234BF01230023DBB218461037BC
:103ED800BD4680BD80B584B000AF78600B46FB70EE
:103EE80000F02AFBF860F9680648FEF7DDFD064B8E
:103EF8001B781A46F9687868FCF7E8FD00BF1037A8
:103F0800BD4680BDB8BF0008F80B002080B588B05A
:103F180000AFF860B9607A600023FB77FA68BB6885
:103F28001344BB61BB697B610023FB7402F0A6FCF0
:103F38000346FB74FB7C002B08D11A48FEF7B4FD3E
:103F48007B6802221A606FF00A0327E07B695B78BE
:103F5800002B03D07B695B78012B01D1012300E0A2
:103F68000023FB74FB7C002B0BD17B695B78194623
:103F78000D48FEF799FD7B6802221A606FF0010375
:103F88000CE00A48FEF790FD0120FFF7F3FC002340
:103F9800FB777B6808221A6097F91F30184620378C
:103FA800BD4680BDD0BF00081CC0000840C0000846
:103FB80080B586B000AF0346B9607A60FB7397F9A5
:103FC8000F30002B47D1BB687B610822002178693C
:103FD80007F0A0FB7B69FF221A7005227B695A70E3
:103FE80000227B699A7003F042FA0346DAB27B69D1
:103FF800DA7003F035FA03469AB27B699A807B69D6
:1040080001229A717B690122DA717B695B78194612
:104018001648FEF749FD7B699B7819461448FEF758
:1040280043FD7B69DB7819461248FEF73DFD7B6945
:104038009B889BB219461048FEF736FD7B699B7931
:1040480019460E48FEF730FD7B69DB7919460C48A6
:10405800FEF72AFD06E097F90F307A68B968184626
:10406800FFF7EAFC00BF1837BD4680BD68C00008EE
:1040780084C00008A0C00008BCC00008D8C0000860
:10408800F4C0000880B586B000AFF860B9607A6007
:104098000123FB7502F0F2FB0346FB75FB7D002B49
:1040A80008D10B48FEF700FD7B6802221A606FF00A
:1040B8000A0309E00748FEF7F7FC0020FFF75AFC5F
:1040C8007B6801221A60002318461837BD4680BD58
:1040D80010C1000860C1000880B584B000AFF86066
:1040E800B9607A600548FEF7DFFC7B6806221A6033
:1040F800002318461037BD4680BD00BF90C1000898
:1041080080B586B000AF0346B9607A60FB73BB68C0
:104118007B6106220021786907F0FCFA7B69FF229F
:104128001A70FFF737FC03461A467B695A70FFF787
:104138006BFC03461A467B699A70FFF771FC0346CD
:104148001A467B699A807B695B7819460948FEF7AD
:10415800ABFC7B699B7819460748FEF7A5FC7B6991
:104168009B889BB219460548FEF79EFC00BF18378E
:10417800BD4680BD9CC10008C0C10008E4C100085C
:1041880080B586B000AFF860B9607A600023FB752F
:104198000B48FEF789FC02F05BFB0346FB75FB7DD1
:1041A800002B03D003F08CF902F061FB7B6802223C
:1041B8001A606FF0040318461837BD4680BD00BF6B
:1041C80008C2000880B588B000AFF860B9607A60AE
:1041D8000023FB77FA68BB681344BB61BB697B614A
:1041E8000023FB747B695A687B69DB7819461046A3
:1041F80000F0AEF90346FB74FB7C002B08D10D4898
:10420800FEF752FC7B6802221A606FF00B030CE089
:104218007B6959687B69DB781A460748FEF744FCD6
:104228007B6801221A6097F91F3018462037BD466F
:1042380080BD00BF10C200082CC2000880B58AB03B
:1042480000AFF860B9607A60002387F82730FA6811
:10425800BB6813443B623B6AFB610023FB7600F0BA
:104268006BF97861FB695B781846FFF71BFE03461C
:10427800FB76FB7E002B0BD1FB695B781946124855
:10428800FEF712FC7B6802221A606FF0010316E049
:104298007B69002B08D10D48FEF706FC7B680222DB
:1042A8001A606FF00B030AE0FB695A78084B1A7022
:1042B800074B1B785A1C7B681A6097F927301846F9
:1042C8002837BD4680BD00BF60C2000890C2000804
:1042D800F80B002080B588B000AF0346B9607A605B
:1042E800FB7397F90F30002B30D100F025F9F861F6
:1042F800BB68BB6101220021B86907F00BFABB69F2
:10430800FF221A70FB69002B1CD0164B1B78013357
:104318007A689A4216D1BB6801337B610023FB742B
:104328001148FEF7C1FBFB7C19467869FFF7D2FDFF
:104338000C4B1B78184600F029F90A4B00221A701A
:1043480000BF0AE00948FEF7AFFB06E097F90F3017
:104358007A68B9681846FFF76FFB00BF2037BD467B
:1043680080BD00BFF80B0020ACC20008B8C200082E
:1043780080B588B000AFF860B9607A600023FB7739
:10438800FA68BB681344BB61BB697B610023FB749B
:104398007B695B781846FFF785FD0346FB74FB7C59
:1043A800002B0BD17B695B7819461748FEF77CFB1D
:1043B8007B6802221A606FF0010320E07B695A686B
:1043C8007B69DB781946104600F0C2F80346FB7497
:1043D800FB7C002B08D10D48FEF766FB7B680222A8
:1043E8001A606FF00B030AE07B695A78084B1A7061
:1043F800074B1B785A1C7B681A6097F91F301846C0
:104408002037BD4680BD00BFD8C200080CC30008D5
:10441800F80B002080B588B000AF0346B9607A6019
:10442800FB7397F90F30002B30D100F085F8F86155
:10443800BB68BB6101220021B86907F06BF9BB6951
:10444800FF221A70FB69002B1CD0164B1B78013316
:104458007A689A4216D1BB6801337B610023FB74EA
:104468001148FEF721FBFB7C19467869FFF732FDFE
:104478000C4B1B78184600F089F80A4B00221A707A
:1044880000BF0AE00948FEF70FFB06E097F90F3076
:104498007A68B9681846FFF7CFFA00BF2037BD46DB
:1044A80080BD00BFF80B00202CC300083CC30008E7
:1044B80080B582B000AF0346FB71FB79072204493F
:1044C8001846FFF747FB034618460837BD4680BD28
:1044D800A4E1000880B500AF034800F013F800F02D
:1044E80069F800BF80BD00BFB944000880B400AFC0
:1044F800034B1B681846BD465DF8047B704700BF38
:10450800FC0B002080B483B000AF7860044A7B685D
:10451800136000BF0C37BD465DF8047B704700BFD1
:10452800FC0B002080B500AF00F04BF80020FFF72F
:10453800E9FF00BF80BD000080B400AF034B1B68DB
:104548001846BD465DF8047B704700BFF00B00209D
:1045580080B483B000AF78600B46FB70FB78002B0B
:1045680004D17B68002B01D1002306E0064A7B6852
:104578001360054AFB781371012318460C37BD46B2
:104588005DF8047B704700BFF00B002080B483B057
:1045980000AF0346FB71064B1A68FB791344044AC3
:1045A800136000BF0C37BD465DF8047B704700BF41
:1045B800F00B002080B400AF00BFBD465DF8047B5F
:1045C800704780B400AF00BFBD465DF8047B7047FC
:1045D80080B584B000AF0346FB800023FB7304F072
:1045E80055FD03460B4A13600B4B1B68002B0CBF91
:1045F80001230023DBB2FB73FB7B002B04D1054BAB
:104608001B68184604F053FDFB7B18461037BD465F
:1046180080BD00BF0C0C0020080C002080B582B0C3
:1046280000AF0346FB80044B1B68184604F03FFDAF
:1046380000BF0837BD4680BD0C0C002080B582B095
:1046480000AF0346FB8004F021FD0346074A1360D0
:10465800074B1B680133064A1360044B1B68184656
:1046680004F025FD00BF0837BD4680BD0C0C0020B6
:10467800080C002080B582B000AF0346FB8004F030
:1046880005FD0346074A1360074B1B68013B064AB2
:104698001360044B1B68184604F009FD00BF083777
:1046A800BD4680BD0C0C0020080C002080B483B0EF
:1046B80000AF0346FB80104B1968FA8813465B006D
:1046C8001344DB000B445B79022B0AD00A4B1968B0
:1046D800FA8813465B001344DB000B445B79032B19
:1046E80001D1012300E00023DBB218460C37BD4698
:1046F8005DF8047B704700BF000C002080B582B0D5
:1047080000AF0023FB710023BB800023BB8008E0BF
:10471800BB881846FFF7CAFF0346FB71BB88013305
:10472800BB80094B9B88BA889A4202D2FB79002B3E
:10473800EED0FB79002B0CBF01230023DBB2184617
:104748000837BD4680BD00BF000C002080B485B08E
:1047580000AF0346FB800B467B7113463B71284B29
:104768001B68002B42D0264B9B88FA889A423DD280
:10477800234B1968FA8813465B001344DB000B448B
:104788001B68002B32D01E4B1968FA8813465B0051
:104798001344DB000B441B797A799A4226D2184BD2
:1047A8001968FA8813465B001344DB000B44196848
:1047B8007A791346DB009B1A9B000B441B68002B7D
:1047C80014D00F4B1968FA8813465B001344DB00BA
:1047D8000B4419687A791346DB009B1A9B000B443B
:1047E8001B793A799A4201D2012300E00023FB7336
:1047F800FB7B18461437BD465DF8047B704700BF45
:10480800000C002080B485B000AF03463A60FB710D
:104818000B46BB710023FB73BB79BB81FB79FF2B74
:1048280004D1BB89FF2B01D80123FB73FB7B1846FE
:104838001437BD465DF8047B704780B483B000AF81
:104848000346FB71FB7923F01003002B0CBF0123F7
:104858000023DBB218460C37BD465DF8047B704771
:1048680080B485B000AF0346FB710023FB73FB796E
:10487800002B05D0FB79012B02D0FB79022B01D14B
:104888000123FB73FB7B18461437BD465DF8047B98
:10489800704780B485B000AF0346FB710023FB73FB
:1048A800FB79002B05D0FB79012B02D0FB79022B79
:1048B80001D10123FB73FB7B18461437BD465DF815
:1048C800047B704780B400AF01231846BD465DF8ED
:1048D800047B704780B485B000AF0346FB80164B5D
:1048E8001968FA8813465B001344DB000B441B7BF2
:1048F800022B0ED1104B1968FA8813465B0013443B
:10490800DB000B44DA880D4B1B889A4201D0012347
:1049180000E00023FB73FB7B002B04D0FB88002BFB
:1049280001D1012300E00023FB73FB7B18461437F9
:10493800BD465DF8047B7047000C0020180000207D
:1049480080B485B000AF78600B46FB707B6819684F
:10495800FA781346DB009B1A9B000B44BB60BB68CC
:104968009B687A68D28902FB03F30133FB60FB780A
:10497800002B08D17B681B7A03F01003002B02D0B0
:10498800FB680433FB60FB6818461437BD465DF8C6
:10499800047B704780B586B000AF78600023BB7495
:1049A80000237B610023FB740023FB7415E0FB7C70
:1049B80019467868FFF7C4FFF8600023BB6001213F
:1049C800F86802F015FDB860BA687B699A4201D9A7
:1049D800BB687B61FB7C0133FB747B681B79FA7CC9
:1049E8009A42E4D37B681B791A4613465B009918F0
:1049F8007B6814331A46786903F050F80346BB7491
:104A080097F91230002B03D07B684FF0FF325A61C0
:104A180097F9123018461837BD4680BD80B582B068
:104A280000AF78607B685B69B3F1FF3F04D07B68B7
:104A38005B69184603F044F97B684FF0FF325A610E
:104A480000BF0837BD4680BD80B58AB000AFF860AA
:104A5800B9607A60002387F82730FA68BB68134486
:104A68003B623B6AFB61FB699A78DB781B02134364
:104A78007B83FB691B797B76FB695B793B7600233B
:104A8800FB753A7E797E7B8B1846FFF75FFE0346FF
:104A9800FB75FB7D002B0BD1798B7A7E3B7E1D4805
:104AA800FEF702F87B6802221A606FF001032CE01F
:104AB8007B8B1846FFF7FAFD0346002B0CBF01233A
:104AC8000023DBB2FB75FB7D002B0AD17B8B1946DB
:104AD8001148FDF7E9FF7B6802221A606FF00703AF
:104AE80013E0798B7A7E3B7E0C48FDF7DDFF0C4A9C
:104AF8007B8B13800A4A7B7E9370094A3B7ED37076
:104B08007B6801221A6097F9273018462837BD4676
:104B180080BD00BF64C30008A8C30008D8C300084C
:104B280014000020F0B58FB004AFF860B9607A6067
:104B3800002387F82730FA68BB6813443B623B6A56
:104B4800FB61584B1B887B83564B9B787B76554B78
:104B5800DB783B7600237B610023FB743A7E797E09
:104B68007B8B1846FFF7F2FD0346FB74FB7C002B9A
:104B78000BD1798B7A7E3B7E4B48FDF795FF7B689E
:104B880002221A606FF0050387E07B8B1846FFF757
:104B98008DFD0346002B0CBF01230023DBB2FB7401
:104BA800FB7C002B0AD17B8B19464048FDF77CFF24
:104BB8007B6802221A606FF007036EE0FB69587881
:104BC800FB699978FB695B681A46FFF71BFE034689
:104BD800FB74FB7C002B1BD1798B7A7E387EFB69BA
:104BE8005B781C46FB699B781D46FB69DB781E4693
:104BF800FB695B68039302960195009403462C4871
:104C0800FDF752FF7B6802221A606FF0010344E04F
:104C1800798B7A7E387EFB695B781C46FB699B78CA
:104C28001D46FB69DB781E46FB695B6803930296A9
:104C38000195009403461F48FDF736FF1E4B19687F
:104C48007A8B13465B001344DB000B4419687A7EA9
:104C58001346DB009B1A9B000B441A683B7EDB0063
:104C680013447B61FB695A787B691A70FB699A78EF
:104C78007B695A70FB69DA787B699A70FB695A68B4
:104C88007B695A60074BDB780133DAB2054BDA707F
:104C98007B6801221A6097F9273018462C37BD46E1
:104CA800F0BD00BF1400002028C4000884C4000818
:104CB800B4C400082CC50008000C002090B58DB0C5
:104CC80002AFF860B9607A60002387F82730FA6885
:104CD800BB6813443B623B6AFB610023BB61002352
:104CE800FB75614B1B68002B08D0FB695B889AB287
:104CF8005D4B9B889A4201D2012300E00023FB759B
:104D0800FB7D002B0CD1FB695B889BB21946574889
:104D1800FDF7CAFE7B6802221A606FF001039FE06C
:104D2800514B1A68FB695B889BB219460B465B00BE
:104D38000B44DB001344BB61FB695B889BB21846DC
:104D4800FFF7B4FC0346002B0CBF01230023DBB2A2
:104D5800FB75FB7D002B0CD1FB695B889BB2194668
:104D68004348FDF7A1FE7B6802221A606FF0070333
:104D780076E0FB699B889BB27F2B94BF01230023BD
:104D8800DBB2FB75FB7D002B0CD1FB699B889BB2CA
:104D980019463848FDF788FE7B6802221A606FF0D2
:104DA80001035DE0FB69DB79002B0CBF01230023C5
:104DB800DBB2FB75FB7D002B08D12F48FDF774FE95
:104DC8007B6802221A606FF0010349E0FB695B7897
:104DD8001846FFF732FD0346FB75FB7D002B0BD110
:104DE800FB695B7819462548FDF75EFE7B68022261
:104DF8001A606FF0090333E0FB695B889BB21946C0
:104E0800FB695B781846FB699B889BB21C46FB696B
:104E18009B791A46FB69DB79019300922346024687
:104E28001748FDF741FEFB695A78BB691A72FB699E
:104E38009B889AB2BB69DA80FB699A79BB695A7216
:104E4800FB69DA79BB699A72BB695B7A012B02D874
:104E5800BB6901225A727B6801221A6097F92730D0
:104E680018462C37BD4690BD000C00209CC5000894
:104E7800CCC5000800C6000830C600086CC600088B
:104E8800A0C6000890B58FB000AFF860B9607A602E
:104E9800002387F82630FA68BB6813443B623B6AF4
:104EA800FB610023BB61FB695B889BB27B610023CC
:104EB80087F837300023FB748A4B1B68002B07D018
:104EC800884B9B881A467B69934201DA012300E0EC
:104ED800002387F8373097F83730002B09D17969E4
:104EE8008148FDF7E1FD7B6802221A606FF001033B
:104EF800B2E17E4A7B6913607A4B19687A69134676
:104F08005B001344DB000B44BB61FB695B7818460C
:104F1800FFF7A6FC034687F8373097F83730002BA1
:104F28000BD1FB695B7819467148FDF7BDFD7B68BD
:104F380002221A606FF009038EE1FFF7C3FC0346F3
:104F4800002B5AD0BB695B79002B56D1BB691B7A01
:104F580003F00203002B21D0BB691B68002B09D08A
:104F6800604BDB791A46BB691B791344802B01DC43
:104F7800012300E0002387F8373097F83730002BFB
:104F88002DD0584BDA79BB69DA72564BDA79BB699E
:104F98001B791344DAB2534BDA7120E0BB691B6802
:104FA800002B09D04F4B9B791A46BB691B791344D8
:104FB800FC2B01DC012300E0002387F8373097F849
:104FC8003730002B0BD0474B9A79BB69DA72454BC7
:104FD8009A79BB691B791344DAB2424B9A7197F8F4
:104FE8003730002B09D179694248FDF75DFD7B68B0
:104FF80002221A606FF008032EE1FB695B78012B2F
:1050080004D0FB695B78022B40F0908000233B635F
:10501800012387F8373000233B637CE00023FB62E1
:105028000023BB620023FB6213E0BB6919683A6B7B
:105038001346DB009B1A9B000B441A68FB6ADB00D3
:1050480013445B781A46BB6A1344BB62FB6A01339C
:10505800FB62BB6919683A6B1346DB009B1A9B001D
:105068000B441B791A46FB6A9342DEDB3B6B002B31
:1050780017D1BB691B7A03F01003002B11D0BB6951
:10508800DB891A46BB6A02FB03F35C1D02F0E8F9F0
:1050980003469C4294BF01230023DBB287F83730D4
:1050A80010E0BB69DB891A46BB6A02FB03F35C1C90
:1050B80002F0D6F903469C4294BF01230023DBB2D9
:1050C80087F8373097F83730002B17D13A6B796962
:1050D8000948FDF7E9FC7B6802221A606FF00803B3
:1050E800BAE000BF000C002004C700081000002030
:1050F80034C7000864C70008A0C70008BB6919685E
:105108003A6B1346DB009B1A9B000B44BA6A9A6001
:105118003B6B01333B63BB691B791A463B6B93427C
:1051280004DA97F83730002B7FF478AFBB69DB8857
:105138001846FFF74DFA0346FB74FB7C002B7DD025
:10514800002387F82730FB695B78022B53D0022BAA
:105158005FDC002B02D0012B13D05AE0796940485C
:10516800FDF7A2FCBB6901225A71FFF7C7FA034693
:10517800002B4BD00120FEF7FDFB4020FEF72AFC58
:1051880044E079693748FDF78FFCBB695B69B3F187
:10519800FF3F22D1BB69DA88334B1B889A420CD176
:1051A800314B5868304B9968BB6914331A4602F082
:1051B80033FE034687F827300FE07B69002B0CDCB1
:1051C800BB69DB88002B08D1B869FFF7E3FB03460E
:1051D80087F82730BB6900221A8297F92730002BFD
:1051E80016D1BB6903225A710220FEF7C3FB402087
:1051F800FEF7DCFB0CE0FB695B889BB219461B4899
:10520800FDF752FCBB6902225A7102E000BF00E0C0
:1052180000BFBB69DB881846FFF700FA7B680222EB
:105228001A6097F92730002B08D01148FDF73CFC8D
:105238007B6802221A606FF002030DE0FB7C002BF2
:1052480008D10C48FDF730FC7B6802221A606FF029
:105258000A0301E097F9263018463C37BD4690BD51
:1052680004C8000830C80008180000205CC80008FE
:1052780088C80008D4C8000880B586B000AF0346C7
:10528800B9607A60FB7397F90F30002B12D1BB68B5
:105298007B617B69FF221A700C4B1A680C4B1B68E8
:1052A80019460B465B000B44DB001344DA7A7B6932
:1052B8005A7006E097F90F307A68B9681846FEF711
:1052C800BBFB00BF1837BD4680BD00BF000C0020E7
:1052D8001000002090B58BB000AFF860B9607A601C
:1052E8000023FB77FA68BB681344BB61BB697B6129
:1052F8000023FB740023BB7400237B627B695B780B
:105308001846FFF7C6FA0346FB74FB7C002B0BD14B
:105318007B695B781946A648FDF7C6FB7B680222C5
:105328001A606FF0090362E1A24B1B68002B05D0DD
:10533800A04B9B88002B01D0012300E00023FB74C5
:10534800FB7C002B08D19C48FDF7AEFB7B68022252
:105358001A606FF001034AE101F07AFA0346BB7460
:10536800BB7C002B00F03581002387F82330002315
:105378003B847B695B78022B00F0D580022B00F31D
:105388000681002B02D0012B2CD000E100237B6288
:105398001BE0884B19687A6A13465B001344DB00EC
:1053A8000B445B79002B0DD0796A8448FDF77CFBB0
:1053B800804B19687A6A13465B001344DB000B4480
:1053C80001225A717B6A01337B627A4B9B881A46A9
:1053D8007B6A9342DDDB0120FEF7CCFA4020FEF722
:1053E800F9FAD4E000237B6263E0724B19687A6AA9
:1053F80013465B001344DB000B445B79022B55D149
:105408006C4B19687A6A13465B001344DB000B4443
:105418005B69B3F1FF3F49D1664B19687A6A134655
:105428005B001344DB000B44DA88654B1B889A4207
:1054380014D1634B5868624B9C685E4B19687A6A52
:1054480013465B001344DB000B4414331A46214611
:1054580002F0E2FC034687F8233027E07B6A002B42
:1054680024DC544B19687A6A13465B001344DB004A
:105478000B44DB88002B19D14E4B19687A6A134606
:105488005B001344DB000B441846FFF783FA03461E
:1054980087F82330474B19687A6A13465B00134430
:1054A800DB000B4400221A827B6A3B847B6A01334F
:1054B8007B62404B9B881A467B6A934203DA97F9D2
:1054C8002330002B91D097F92330002B5CD1002397
:1054D8007B6221E0374B19687A6A13465B001344F4
:1054E800DB000B445B79022B13D1796A3548FDF751
:1054F800DBFA304B19687A6A13465B001344DB0009
:105508000B4403225A710220FEF734FA4020FEF7BA
:105518004DFA7B6A01337B62264B9B881A467B6A6D
:105528009342D7DB30E000237B621BE0214B1968F4
:105538007A6A13465B001344DB000B445B79022B49
:105548000DD1796A1D48FDF7AFFA1A4B19687A6AC6
:1055580013465B001344DB000B4401225A717B6A3B
:1055680001337B62134B9B881A467B6A9342DDDBCF
:10557800FFF7C4F80346002B08D00120FEF7FAF91C
:105588004020FEF727FA01E000BF00E000BF01F06D
:105598006EF997F92330002B18D03B8C19460A482E
:1055A800FDF782FA7B6802221A606FF002031EE0A0
:1055B8001CC90008000C00204CC9000878C9000864
:1055C80018000020A0C90008C8C900087B6801228B
:1055D8001A60BB7C002B08D10748FDF765FA7B6889
:1055E80002221A606FF00A0301E097F91F3018468B
:1055F8002C37BD4690BD00BF14CA000880B584B0E2
:1056080000AFF860B9607A600548FDF74DFA7B682D
:1056180008221A60002318461037BD4680BD00BF17
:1056280058CA000880B586B000AF0346B9607A60F2
:10563800FB73BB687B6108220021786906F06AF871
:105648007B69FF221A707B6911225A707B694FF0BF
:10565800FF329A704FF0FF32DA707B69002262F0F5
:105668007F021A7100225A717B6900229A717B6944
:105678000022DA717B695B7819461048FDF714FA45
:105688007B695B889BB219460D48FDF70DFA7B696B
:105698009B889BB219460B48FDF706FA7B699B79F4
:1056A80019460948FDF700FA7B69DB79194607486E
:1056B800FDF7FAF900BF1837BD4680BD70CA00086B
:1056C8008CCA0008A8CA0008C4CA0008E0CA0008B2
:1056D80080B584B000AFF860B9607A600548FDF71E
:1056E800E3F97B6808221A60002318461037BD4684
:1056F80080BD00BFFCCA000880B586B000AF034675
:10570800B9607A60FB73BB687B6108220021786905
:1057180006F000F87B69FF221A707B6901225A7033
:105728007B69FF229A707B690122DA707B69FF220C
:105738001A717B6934225A717B69002242F0010296
:105748009A710022DA717B695B7819461248FDF775
:10575800ABF97B699B7819461048FDF7A5F97B6979
:10576800DB7819460E48FDF79FF97B691B791946C6
:105778000C48FDF799F97B695B7919460A48FDF7EA
:1057880093F97B69DB889BB219460848FDF78CF9C9
:1057980000BF1837BD4680BD18CB000840CB0008B5
:1057A80068CB000890CB0008B8CB0008E4CB000811
:1057B80080B586B000AFF860B9607A600023FB75E9
:1057C8000023BB750F48FDF76FF901F057F8034642
:1057D800BB75BB7D002B08D10B48FDF765F97B68CD
:1057E80002221A606FF00A0307E00120FEF7C2F8F0
:1057F8007B6801221A6097F9173018461837BD469A
:1058080080BD00BF0CCC00083CCC000880B58CB033
:1058180000AFF860B9607A60002387F82B30FA6827
:10582800BB6813447B627B6A3B623B6A5B889BB2C2
:10583800FB610023BB610023FB750023FB62514B16
:105848001B68002B0CBF01230023DBB2FB75FB7D1B
:10585800002B08D14C48FDF727F97B6802221A6013
:105868006FF003038AE0FB69002B05DDFB69B3F5E4
:10587800803F01DA012300E00023FB75FB7D002B4C
:1058880009D1F9694148FDF70FF97B6802221A60CE
:105898006FF0010372E0FA6913465B001344DB0002
:1058A8001A46F9693A48FDF7FFF8FA6913465B00AA
:1058B8001344DB00184601F0C5FFB861BB69002B33
:1058C80009D1F9693348FDF7EFF87B6802221A60BD
:1058D8006FF0020352E0FA6913465B001344DB00E1
:1058E8001A460021B86905F015FF264ABB691360FE
:1058F800FB699AB2234B9A800023FB6235E0FA6A6F
:1059080013465B001344DB001A46BB6913444FF08F
:10591800FF325A61FA6A13465B001344DB001A46E9
:10592800BB69134400221A73FA6A13465B001344D6
:10593800DB001A46BB69134401225A73FA6A1346FC
:105948005B001344DB001A46BB6913440122DA8169
:10595800FA6A13465B001344DB001A46BB6913441A
:1059680000221A82FB6A0133FB62FA6AFB699A42D7
:10597800C5DB7B6801221A6097F92B30184630374F
:10598800BD4680BD000C002078CC0008BCCC0008C7
:10599800ECCC000818CD000890B589B000AFF860CD
:1059A800B9607A600023FB77FA68BB681344BB616F
:1059B800BB697B617B699A78DB781B0213437B8226
:1059C8007B691B797B7400233B745C4B1B68002B41
:1059D80014BF01230023DBB23B743B7C002B08D1AE
:1059E8005748FDF761F87B6802221A606FF00303DD
:1059F8009FE0524B9B887A8A9A4234BF0123002346
:105A0800DBB23B743B7C002B0AD17B8A19464D489C
:105A1800FDF74AF87B6802221A606FF0010388E0FC
:105A28007B7C002B04D07B7CFC2B01D8012300E07D
:105A380000233B743B7C002B0BD17B7C7A8A194674
:105A48004148FDF731F87B6802221A606FF00103C4
:105A58006FE03A4B19687A8A13465B001344DB00FF
:105A68000B441B68002B0CBF01230023DBB23B74E3
:105A78003B7C002B08D13548FDF716F87B680222DD
:105A88001A606FF0030354E0797C788A7A7C1346B5
:105A9800DB009B1A9B0002462D48FDF705F87A7C2F
:105AA8001346DB009B1A9B001846244B19687A8A18
:105AB80013465B001344DB00CC1801F0C3FE034619
:105AC80023601E4B19687A8A13465B001344DB0077
