:020000040800F2
:1000000000000220F54F0108F93001080131010814
:1000100009310108113101081931010800000000FF
:10002000000000000000000000000000AD17010803
:100030002131010800000000691701089916010824
:100040004550010845500108455001084550010838
:100050004550010845500108455001084550010828
:100060004550010845500108455001082F3101084D
:100070004550010845500108455001084550010808
:100080005D2801083D280108F35D0108455001087D
:1000900045500108455001084550010845500108E8
:1000A000455001083D3101084550010845500108FF
:1000B00045500108455001084550010845500108C8
:1000C00045500108455001084550010845500108B8
:1000D00045500108455001082928010845500108EC
:1000E0004550010845500108455001084550010898
:1000F000455001084550010845500108513101089B
:100100004550010845500108455001084550010877
:100110004550010845500108455001084550010867
:100120004550010845500108455001084550010857
:100130004550010800000000000000004550010883
:100140004550010845500108455001084550010837
:100150004550010845500108455001084550010827
:100160004550010845500108455001084550010817
:100170004550010845500108000000000000000043
:0801800045500108455001083B
:1001880081F0004102E000BF83F0004330B54FEA40
:1001980041044FEA430594EA050F08BF90EA020FAD
:1001A8001FBF54EA000C55EA020C7FEA645C7FEA40
:1001B800655C00F0E2804FEA5454D4EB5555B8BF63
:1001C8006D420CDD2C4480EA020281EA030382EAD4
:1001D800000083EA010180EA020281EA0303362D66
:1001E80088BF30BD11F0004F4FEA01314FF4801C39
:1001F8004CEA113102D0404261EB410113F0004F4B
:100208004FEA03334CEA133302D0524263EB430301
:1002180094EA050F00F0A780A4F10104D5F1200E9F
:100228000DDB02FA0EFC22FA05F2801841F10001FA
:1002380003FA0EF2801843FA05F359410EE0A5F1CE
:1002480020050EF1200E012A03FA0EFC28BF4CF0FF
:10025800020C43FA05F3C01851EBE37101F00045B5
:1002680007D54FF0000EDCF1000C7EEB00006EEBC2
:100278000101B1F5801F1BD3B1F5001F0CD349084C
:100288005FEA30004FEA3C0C04F101044FEA4452A3
:1002980012F5800F80F09A80BCF1004F08BF5FEA2A
:1002A800500C50F1000041EB045141EA050130BD0A
:1002B8005FEA4C0C404141EB0101013C28BFB1F51C
:1002C800801FE9D291F0000F04BF01460020B1FA67
:1002D80081F308BF2033A3F10B03B3F120020CDA3A
:1002E8000C3208DD02F1140CC2F10C0201FA0CF018
:1002F80021FA02F10CE002F11402D8BFC2F1200C7D
:1003080001FA02F120FA0CFCDCBF41EA0C01904032
:10031800E41AA2BF01EB0451294330BD6FEA04047B
:100328001F3C1CDA0C340EDC04F11404C4F1200266
:1003380020FA04F001FA02F340EA030021FA04F378
:1003480045EA030130BDC4F10C04C4F1200220FACF
:1003580002F001FA04F340EA0300294630BD21FA0D
:1003680004F0294630BD94F0000F83F4801306BFD3
:1003780081F480110134013D4EE77FEA645C18BFC7
:100388007FEA655C29D094EA050F08BF90EA020F5E
:1003980005D054EA000C04BF1946104630BD91EA56
:1003A800030F1EBF0021002030BD5FEA545C05D159
:1003B8004000494128BF41F0004130BD14F5800498
:1003C8003CBF01F5801130BD01F0004545F0FE410C
:1003D80041F470014FF0000030BD7FEA645C1ABF41
:1003E800194610467FEA655C1CBF0B46024650EA78
:1003F800013406BF52EA033591EA030F41F40021A4
:1004080030BD00BF90F0000F04BF0021704730B529
:100418004FF4806404F132044FF000054FF00001FE
:1004280050E700BF90F0000F04BF0021704730B5BF
:100438004FF4806404F1320410F0004548BF404294
:100448004FF000013EE700BF42004FEAE2014FEAE9
:1004580031014FEA02701FBF12F07F4393F07F4FC4
:1004680081F06051704732F07F4208BF704793F0C7
:100478007F4F04BF41F40021704730B54FF46074DA
:1004880001F0004521F000411CE700BF50EA0102DD
:1004980008BF704730B54FF000050AE050EA010286
:1004A80008BF704730B511F0004502D5404261EBF6
:1004B80041014FF4806404F132045FEA915C3FF437
:1004C800D8AE4FF003025FEADC0C18BF03325FEAD4
:1004D800DC0C18BF033202EBDC02C2F1200300FA85
:1004E80003FC20FA02F001FA03FE40EA0E0021FAAA
:1004F80002F11444BDE600BF70B54FF0FF0C4CF498
:10050800E06C1CEA11541DBF1CEA135594EA0C0F49
:1005180095EA0C0F00F0DEF82C4481EA030621EA84
:100528004C5123EA4C5350EA013518BF52EA0335BF
:1005380041F4801143F4801338D0A0FB02CE4FF071
:100548000005E1FB02E506F00042E0FB03E54FF0A1
:100558000006E1FB03569CF0000F18BF4EF0010E99
:10056800A4F1FF04B6F5007F64F5407404D25FEA95
:100578004E0E6D4146EB060642EAC62141EA555148
:100588004FEAC52040EA5E504FEACE2EB4F1FD0C8A
:1005980088BFBCF5E06F1ED8BEF1004F08BF5FEA08
:1005A800500E50F1000041EB045170BD06F00046BA
:1005B80046EA010140EA020081EA0301B4EB5C0467
:1005C800C2BFD4EB0C0541EA045170BD41F480115F
:1005D8004FF0000E013C00F3AB8014F1360FDEBF84
:1005E800002001F0004170BDC4F10004203C35DA60
:1005F8000C341BDC04F11404C4F1200500FA05F3E3
:1006080020FA04F001FA05F240EA020001F0004283
:1006180021F0004110EBD37021FA04F642EB0601F9
:100628005EEA430E08BF20EAD37070BDC4F10C0423
:10063800C4F1200500FA04F320FA05F001FA04F2E7
:1006480040EA020001F0004110EBD37041F10001D3
:100658005EEA430E08BF20EAD37070BDC4F12005DE
:1006680000FA05F24EEA020E20FA04F301FA05F246
:1006780043EA020321FA04F001F0004121FA04F2EE
:1006880020EA020000EBD3705EEA430E08BF20EABE
:10069800D37070BD94F0000F0FD101F000464000F8
:1006A80041EB010111F4801F08BF013CF7D041EA7A
:1006B800060195F0000F18BF704703F0004652007E
:1006C80043EB030313F4801F08BF013DF7D043EA4F
:1006D8000603704794EA0C0F0CEA135518BF95EA05
:1006E8000C0F0CD050EA410618BF52EA4306D1D18C
:1006F80081EA030101F000414FF0000070BD50EAAB
:10070800410606BF1046194652EA430619D094EA34
:100718000C0F02D150EA013613D195EA0C0F05D11E
:1007280052EA03361CBF104619460AD181EA030172
:1007380001F0004141F0FE4141F470014FF000002A
:1007480070BD41F0FE4141F4780170BD70B54FF0C5
:10075800FF0C4CF4E06C1CEA11541DBF1CEA135545
:1007680094EA0C0F95EA0C0F00F0A7F8A4EB050427
:1007780081EA030E52EA03354FEA013100F088801E
:100788004FEA03334FF0805545EA131343EA1263E7
:100798004FEA022245EA111545EA10654FEA00269C
:1007A8000EF000419D4208BF964244F1FD0404F555
:1007B800407402D25B084FEA3202B61A65EB0305B1
:1007C8005B084FEA32024FF480104FF4002CB6EB6E
:1007D800020E75EB030E22BFB61A754640EA0C00EE
:1007E8005B084FEA3202B6EB020E75EB030E22BF2E
:1007F800B61A754640EA5C005B084FEA3202B6EB6F
:10080800020E75EB030E22BFB61A754640EA9C002D
:100818005B084FEA3202B6EB020E75EB030E22BFFD
:10082800B61A754640EADC0055EA060E18D04FEABB
:10083800051545EA16754FEA06164FEAC30343EA5B
:1008480052734FEAC2025FEA1C1CC0D111F4801F28
:100858000BD141EA00014FF000004FF0004CB6E721
:1008680011F4801F04BF01430020B4F1FD0C88BFC0
:10087800BCF5E06F3FF6AFAEB5EB030C04BFB6EBCB
:10088800020C5FEA500C50F1000041EB045170BDBE
:100898000EF0004E4EEA113114EB5C04C2BFD4EBEB
:1008A8000C0541EA045170BD41F480114FF0000E6F
:1008B800013C90E645EA060E8DE60CEA135594EAEB
:1008C8000C0F08BF95EA0C0F3FF43BAF94EA0C0FEE
:1008D8000AD150EA01347FF434AF95EA0C0F7FF463
:1008E80025AF104619462CE795EA0C0F06D152EAB7
:1008F80003353FF4FDAE1046194622E750EA41069B
:1009080018BF52EA43067FF4C5AE50EA41047FF4AB
:100918000DAF52EA43057FF4EBAE12E74FF0FF3C10
:1009280006E000BF4FF0010C02E000BF4FF0010CE1
:100938004DF804CD4FEA410C7FEA6C5C4FEA430C5A
:1009480018BF7FEA6C5C1BD001B050EA410C0CBFA9
:1009580052EA430C91EA030F02BF90EA020F00200B
:10096800704710F1000F91EA030F58BF994208BF72
:1009780090422CBFD8176FEAE37040F0010070472F
:100988004FEA410C7FEA6C5C02D150EA013C07D186
:100998004FEA430C7FEA6C5CD6D152EA033CD3D0D1
:1009A8005DF8040B704700BF8446104662468C46CB
:1009B8001946634600E000BF01B5FFF7B7FF0028FE
:1009C80048BF10F1000F01BD4DF808EDFFF7F4FF27
:1009D8000CBF012000205DF808FB00BF4DF808EDB2
:1009E800FFF7EAFF34BF012000205DF808FB00BFD5
:1009F8004DF808EDFFF7E0FF94BF012000205DF8F7
:100A080008FB00BF4DF808EDFFF7CEFF94BF0120AB
:100A180000205DF808FB00BF4DF808EDFFF7C4FFA4
:100A280034BF012000205DF808FB00BF4FEA410CED
:100A38007FEA6C5C02D150EA013C0AD14FEA430CD0
:100A48007FEA6C5C02D152EA033C02D14FF000000D
:100A580070474FF0010070474FEA410212F500124B
:100A680015D211D56FF47873B3EB625212D94FEAED
:100A7800C12343F0004343EA505311F0004F23FAD7
:100A880002F018BF404270474FF00000704750EA2C
:100A9800013005D111F0004008BF6FF000407047E9
:100AA8004FF00000704700BF4A0011D212F5001243
:100AB80011D20DD56FF47873B3EB62520ED44FEAAE
:100AC800C12343F0004343EA505323FA02F070472E
:100AD8004FF00000704750EA013002D14FF0FF306C
:100AE80070474FF0000070474FEA4102B2F1E0430F
:100AF80024BFB3F5001CDCF1FE5C0DD901F0004CFD
:100B08004FEAC0024CEA5070B2F1004F40EB83004C
:100B180008BF20F00100704711F0804F21D113F178
:100B28003872BCBF01F00040704741F480114FEAB1
:100B38005252C2F11802C2F1200C10FA0CF320FA3A
:100B480002F018BF40F001004FEAC1234FEAD32357
:100B580003FA0CFC40EA0C0023FA02F34FEA4303C1
:100B6800CCE77FEA625307D150EA01331EBF4FF04A
:100B7800FE4040F44000704701F0004040F0FE4065
:100B880040F40000704700BF53B94AB9002908BFB4
:100B980000281CBF4FF0FF314FF0FF3000F00CB8B9
:100BA800ADF1080C6DE904CE17F084F9DDF804E026
:100BB800DDE9022304B07047704700BF844641EA6C
:100BC800000313F003036DD1403A41D351F8043BBD
:100BD80040F8043B51F8043B40F8043B51F8043B0F
:100BE80040F8043B51F8043B40F8043B51F8043BFF
:100BF80040F8043B51F8043B40F8043B51F8043BEF
:100C080040F8043B51F8043B40F8043B51F8043BDE
:100C180040F8043B51F8043B40F8043B51F8043BCE
:100C280040F8043B51F8043B40F8043B51F8043BBE
:100C380040F8043B51F8043B40F8043B51F8043BAE
:100C480040F8043B51F8043B40F8043B403ABDD21D
:100C5800303211D351F8043B40F8043B51F8043BBF
:100C680040F8043B51F8043B40F8043B51F8043B7E
:100C780040F8043B103AEDD20C3205D351F8043B4E
:100C880040F8043B043AF9D2043208D0D2071CBF1A
:100C980011F8013B00F8013B01D30B880380604643
:100CA800704700BF082A13D38B078DD010F00303B9
:100CB8008AD0C3F10403D21ADB071CBF11F8013B29
:100CC80000F8013B80D331F8023B20F8023B7BE778
:100CD800043AD9D3013A11F8013B00F8013BF9D2A3
:100CE8000B7803704B7843708B788370604670473D
:100CF8000348044B834202D0034B03B118477047A3
:100D0800C4010020C4010020000000000548064B73
:100D18001B1AD90F01EBA301491002D0034B03B1F1
:100D280018477047C4010020C401002000000000DB
:100D380010B5064C237843B9FFF7DAFF044B13B11B
:100D48000448AFF300800123237010BDC8010020C0
:100D5800000000004883010808B5054B1BB1054990
:100D68000548AFF30080BDE80840FFF7CFBF00BFDC
:100D780000000000CC0100204883010880B483B043
:100D880000AF786039600C4A3B6813441B781A46F8
:100D98007B6813441B6808493A680A44127811466C
:100DA8007A680A4443F00103136000BF0C37BD465C
:100DB8005DF8047B704700BF04AC010880B485B0BF
:100DC80000AFF860B9607A600D4ABB6813441B78BD
:100DD8001A46FB6813445B681B0C1B040849BA6875
:100DE8000A4412781146FA680A4411467A6813438D
:100DF8004B6000BF1437BD465DF8047B704700BFE9
:100E080004AC010880B485B000AFF860B9607A60BE
:100E18003B60BB69402B14D1174ABB6813441B784D
:100E28001A46FB6813441A467B68D360124ABB68AB
:100E380013441B781A46FB6813441A463B689360B0
:100E480013E00D4ABB6813441B781A46FB68134429
:100E58001A467B689360084ABB6813441B781A4695
:100E6800FB6813441A463B68D36000BF1437BD467D
:100E78005DF8047B704700BF04AC010880B483B000
:100E880000AF786039600C4A3B6813441B781A46F7
:100E98007B6813441B6808493A680A44127811466B
:100EA8007A680A4443F01003136000BF0C37BD464C
:100EB8005DF8047B704700BF04AC010880B483B0C0
:100EC80000AF78607B681B6843F040027B681A605B
:100ED80000BF0C37BD465DF8047B704780B483B013
:100EE80000AF78607B681B6823F040027B681A605B
:100EF80000BF0C37BD465DF8047B704780B483B0F3
:100F080000AF78607B681B6803F04003402B01D179
:100F1800012300E0002318460C37BD465DF8047B2A
:100F2800704780B483B000AF78607B681B6803F4B7
:100F3800827318460C37BD465DF8047B704780B451
:100F480083B000AF786039607B681B6823F00102CA
:100F58003B681A437B681A6000BF0C37BD465DF8D2
:100F6800047B704780B483B000AF78607B681B68EF
:100F780003F0010318460C37BD465DF8047B704743
:100F880080B483B000AF786039607B681B6823F059
:100F980002023B681A437B681A6000BF0C37BD46E3
:100FA8005DF8047B704780B483B000AF78607B68DD
:100FB8001B6803F0020318460C37BD465DF8047B36
:100FC800704780B483B000AF786039607B681B6875
:100FD80023F444423B681A437B681A6000BF0C370D
:100FE800BD465DF8047B704780B483B000AF78607D
:100FF8007B681B6803F4444318460C37BD465DF80C
:10100800047B704780B483B000AF786039607B6838
:101018001B6823F400623B681A437B681A6000BFB0
:101028000C37BD465DF8047B704780B483B000AFD1
:1010380078607B681B6803F4006318460C37BD466C
:101048005DF8047B704780B483B000AF78607B683C
:101058009B6803F00103012B01D1012300E0002369
:1010680018460C37BD465DF8047B704780B483B0E2
:1010780000AF78607B689B6803F00203022B01D104
:10108800012300E0002318460C37BD465DF8047BB9
:10109800704780B483B000AF78607B689B6803F0CA
:1010A8008003802B01D1012300E0002318460C3770
:1010B800BD465DF8047B704780B483B000AF7860AC
:1010C8007B685B6843F040027B685A6000BF0C375E
:1010D800BD465DF8047B704780B483B000AF78608C
:1010E8007B685B6843F001027B685A6000BF0C377D
:1010F800BD465DF8047B704780B483B000AF78606C
:101108007B685B6843F002027B685A6000BF0C375B
:10111800BD465DF8047B704780B483B000AF78604B
:101128007B680C3318460C37BD465DF8047B704766
:1011380080B483B000AF78607B680C331B78DBB277
:1011480018460C37BD465DF8047B704780B483B001
:1011580000AF78607B68DB689BB218460C37BD46E9
:101168005DF8047B704780B485B000AF78600B46AB
:10117800FB707B680C33FB60FB68FA781A7000BF61
:101188001437BD465DF8047B704780B485B000AF66
:1011980078600B467B807B680C33FB60FB687A8841
:1011A8001A8000BF1437BD465DF8047B7047000005
:1011B80080B584B000AF786039600023FB600023FD
:1011C800BB607B68002B0BD03B68002B08D07B688A
:1011D800BB60BB681B68654A934201D1644BFB60E6
:1011E800FB68002B00F0BC80BB681A68FB681A60BB
:1011F800FB6893F84620BB6893F846301343DAB28D
:10120800FB6883F84620FB6893F84420BB6893F892
:1012180044301343DAB2FB6883F84420FB6893F840
:101228004520BB6893F845301343DAB2FB6883F86E
:101238004520FB683A68DA61BB6893F8463003F0EA
:101248000103002B32D0BB689A6AFB689A62BB68BC
:101258001A6AFB681A62FB6800225A63FB6800225C
:101268001A63FB68002283F84020FB6893F8443037
:1012780003F00403002B05D0FB681B681846FFF732
:101288001BFF13E0FB6893F8443003F01003002BB6
:101298000CD0BB685A68FB685A60BB6893F8542046
:1012A800FB6883F85420F86800F0FEFABB6893F8EE
:1012B800463003F00203002B28D0BB68DA6AFB68CB
:1012C800DA62BB685A6AFB685A62FB6800229A6352
:1012D800FB680022DA63FB6800229A61FB6800223F
:1012E80083F85620FB6893F8453003F02003002B61
:1012F8000CD0BB689A68FB689A60BB6893F8552065
:10130800FB6883F85520F86800F00FFB3B68FA6823
:101318001A60FB681B681846FFF766FE0346B3F5BC
:10132800004F0ED1FB681B681846FFF7FAFD03460D
:10133800B3F5827F05D1FB681B681846FFF7CEFD21
:1013480004E0FB681B681846FFF7B8FDBB681B681C
:101358001A46064B9A4202D000233B6000E000BFC9
:101368003B6818461037BD4680BD00BF003C0040B2
:10137800E401002080B582B000AF78600B467B8026
:101388007868FFF731FE0346B3F5004F0BD17B8831
:10139800012B08D1786800F0F4FA4FF440417868DE
:1013A800FFF70FFE11E07868FFF71EFE0346B3F55E
:1013B800404F0AD17B88002B07D1786800F0E1FA0A
:1013C8004FF400417868FFF7FCFD00231846083702
:1013D800BD4680BD80B586B000AFF8607A601A4619
:1013E8000B467B8113467B7200237B61FB68002BD5
:1013F80006D0FB681B68002B02D0FB681B687B616A
:101408007B689BB21B0A7B827B897A69134493F8B9
:101418004E30002B0CD07B69B3F84C207B7A9BB202
:101428009A4205D17B695B697A689A4200F0C88064
:101438007B7A9AB27B69A3F84C207B697A685A61F7
:101448007B691B68184600F09CFA7B69B3F84C303E
:10145800002B1CD17B691B681846FFF783FD0346E8
:10146800002B05D07B691B6800211846FFF767FD34
:101478007B691B681846FFF796FD0346022B66D06A
:101488007B691B6802211846FFF77AFD5FE07B69DC
:10149800B3F84C30012B1CD17B691B681846FFF749
:1014A80061FD0346012B05D07B691B6801211846A5
:1014B800FFF745FD7B691B681846FFF774FD034677
:1014C800022B44D07B691B6802211846FFF758FDA0
:1014D8003DE07B69B3F84C30022B1CD17B691B685B
:1014E8001846FFF73FFD0346002B05D07B691B68B4
:1014F80000211846FFF723FD7B691B681846FFF794
:1015080052FD0346002B22D07B691B680021184638
:10151800FFF736FD1BE07B691B681846FFF722FDC5
:101528000346012B05D07B691B6801211846FFF78C
:1015380006FD7B691B681846FFF735FD0346002B3F
:1015480005D07B691B6800211846FFF719FD7B69E8
:101558001B681846FFF769FD02467B6893420CD06A
:101568007B691A687B8A082B01D8002301E04FF4B5
:10157800006319461046FFF745FD7B691B6818464E
:10158800FFF732FD0346B3F5004F0ED17B691B68A8
:101598001846FFF7C6FC0346B3F5827F05D17B6981
:1015A8001B68184600F0EDF904E07B691B681846D3
:1015B800FFF784FC7B897A691344012283F84E2063
:1015C800002318461837BD4680BD80B58AB000AFE5
:1015D800F860B96011461A460B46FB801346BB807B
:1015E8000023BB840023FB6112F050FEF861002346
:1015F8003B62FB68002B06D0FB681B68002B02D0FF
:10160800FB681B683B623B6A1B6801211846FFF7B1
:10161800B1FE0346BB843B8E002B01D100237B63C4
:101628003B6A1B681846FFF769FC0346002B04D188
:101638003B6A1B681846FFF741FCBB88DBB2002BEE
:101648002CD1BB687B610023FB8422E03B6A1B68CA
:101658001846FFF70BFD0346012B0CD13B6A1868AF
:10166800FB8C7A6913441B781946FFF77CFDFB8CC9
:101678000133FB840DE00121F8690FF083FF024676
:101688007B6B934205D2386A00F0C3F90346BB84EA
:1016980035E0FA8CFB889A42D8D330E0BB88DBB2BD
:1016A800012B2CD1BB68BB610023FB8423E03B6A80
:1016B8001B681846FFF7DAFC0346012B0DD13B6A7D
:1016C8001868FB8C5B00BA6913441B881946FFF73E
:1016D8005CFDFB8C0133FB840DE00121F8690FF000
:1016E80051FF02467B6B934205D2386A00F091F9AC
:1016F8000346BB8403E0FA8CFB889A42D7D3BB8CA1
:1017080018462837BD4680BD90B58FB004AFF86045
:10171800B96011461A460B46FB801346BB8000236E
:10172800BB840023BB6112F0B1FDB861FB887B84E8
:101738000023FB61FB68002B06D0FB681B68002BAD
:1017480002D0FB681B68FB61FB691B680021184617
:10175800FFF710FE0346BB843B8F002B01D100230B
:10176800FB63FB691B681846FFF7DBFB0346B3F511
:10177800827F0BD1FB691B681846FFF735FC0346CF
:10178800B3F5004F02D17B8C013B7B84FB691B685E
:101798001846FFF7B3FB0346002B04D1FB691B680F
:1017A8001846FFF78BFBBB88DBB2002B39D1BB682F
:1017B8003B610023FB842FE0FB691B681846FFF799
:1017C80042FC0346002B0DD0FB691968FB8C3A6973
:1017D800D4180846FFF7ACFC03462370FB8C013392
:1017E800FB8419E00121B8690FF0CCFE0246FB6BBF
:1017F800934211D2798CFA8CFB6B0393BB690293E9
:10180800BB880193FB8800930B463969F86900F09F
:101818000BF90346BB8442E0FA8C7B8C9A42CBD30B
:101828003DE0BB88DBB2012B39D1BB687B6100236B
:10183800FB8430E0FB691B681846FFF704FC03468D
:10184800002B0ED0FB691968FB8C5B007A69D418F1
:101858000846FFF77BFC03462380FB8C0133FB849F
:1018680019E00121B8690FF08DFE0246FB6B934227
:1018780011D2798CFA8CFB6B0393BB690293BB88FA
:101888000193FB8800930B467969F86900F0CCF85E
:101898000346BB8403E0FA8C7B8C9A42CAD3BB8C88
:1018A80018462C37BD4690BDB0B584B002AF7860FD
:1018B8007B685C687B6893F854301D467B681B68BE
:1018C8001846FFF729FC02467B681B6A1946002365
:1018D80000930B4629462046FFF794FA7B68586820
:1018E8007B6893F8543019467B68DB691B691A4694
:1018F800FFF764FA7B685A687B6893F85430194696
:101908001046FFF7BBFA7B681B681846FFF7E4FB35
:101918007B685A687B6893F8543019461046FFF77D
:101928002DFA00BF0837BD46B0BDF0B585B002AF8F
:1019380078607B689C687B6893F855301D467B68A7
:101948005B6A1E467B681B681846FFF7E5FB034683
:1019580040220092324629462046FFF753FA7B6818
:101968009A687B6893F8553019461046FFF786FA4F
:101978007B681B681846FFF7BFFB00BF0C37BD46E6
:10198800F0BD80B582B000AF78607868FFF7B6FA2E
:101998000346002B2CD07868FFF726FB0346002B64
:1019A8000AD100BF7868FFF774FB0346002BF9D112
:1019B8007868FFF793FA1BE07868FFF715FB034692
:1019C800B3F5806F06D07868FFF70EFB0346B3F5D2
:1019D800004F03D17868FFF781FA09E000BF786803
:1019E800FFF757FB0346002BF9D17868FFF776FA23
:1019F80000BF0837BD4680BD80B485B000AFF86031
:101A0800B9607A603B6000BF1437BD465DF8047B5F
:101A1800704780B483B000AF7860012318460C3754
:101A2800BD465DF8047B704790B587B000AFF8609D
:101A3800B96011461A460B46FB801346BB80FB680B
:101A48001B681846FFF74AFAFB681B681846FFF739
:101A580068FA0346B3F5827F37D1FB681B681846DE
:101A6800FFF7C2FA0346B3F5004F2ED1BA883B8D73
:101A78009A422AD0FB681B681846FFF7E4FA034627
:101A8800002BF7D0BB8DDBB2002B0CD1BB683B61C0
:101A9800FB681968FB883A69D4180846FFF748FBC1
:101AA8000346237010E0BB8DDBB2012B0CD1BB6861
:101AB8007B61FB681968FB885B007A69D418084663
:101AC800FFF744FB0346238000BF012318461C3759
:101AD800BD4690BD80B485B000AF78603960002302
:101AE800FB7397F90F3018461437BD465DF8047B31
:101AF8007047000080B584B000AF7860396000237B
:101B0800FB727B68002B05D1374809F0FBFB4FF0CF
:101B1800FF3365E03B68002B05D1344809F0F2FB40
:101B28004FF0FF335CE0324BD3E900014FF0000285
:101B38004FF04043FEF748FF0346002B06D03B68B2
:101B4800D3E900232A49C1E9002305E0284BD3E95A
:101B580000233968C1E90023254BD3E900014FF080
:101B68000002244BFEF730FF0346002B02D0224828
:101B780009F0C8FB7B685B681B68204A13607B68B8
:101B88005B685B681E4A13607B685B689B681D4ADC
:101B980013607B685B68DB681B4A13601B4B002281
:101BA8001A600AF06FF80023FB600023FB6007E06F
:101BB800174AFB68174942F82310FB680133FB609A
:101BC800FB68052BF4D909F09DFC0346FB7297F9D5
:101BD8000B30002B02D1104B01221A7097F90B30F1
:101BE80018461037BD4680BD60830108848301080C
:101BF800080000200000F0BFB0830108DC0E0020C0
:101C0800E00E0020E40E0020E80E0020EC0E00207C
:101C18003C020020F5BC0008D90E002080B586B033
:101C280000AF78600023FB7500233B610023FB7342
:101C38002A4B1B78DBB2002B0CBF01230023DBB23D
:101C4800BB73274B02221A707B68002B0BD1234BE6
:101C58001B78DBB2002B06D1224B1B78DBB2002BA2
:101C680001D1012300E00023FB7316E00A200FF0E6
:101C780049FC3B6903F51C5310333B617B68B3F1A6
:101C8800FF3F05D03A697B689A4201D9012300E0F9
:101C98000023FB73002009F08DFC104B1B78DBB28E
:101CA800002B07D10F4B1B78DBB2002B02D1FB7B3B
:101CB800002BDBD00A4B03221A70FB7B002B01D0D0
:101CC8009C23FB75BB7B002B01D00AF009F997F91F
:101CD800173018461837BD4680BD00BFD70E002004
:101CE800D90E0020D80E002080B588B000AF03467A
:101CF80087ED000BFB810023FB770123BB774FF0B7
:101D080000024FF00003D7E90001FEF767FE034623
:101D1800002B05D02F4809F0F5FA4FF0FF3355E0B6
:101D2800FB89FF2B08D9FB89FF2219462A4809F0AD
:101D3800E9FA4FF0FF3349E0284B1B78DBB2032B5D
:101D480004D0264B1B78DBB2012B02D1234B042293
:101D58001A70FB89052B15D8FB89214A52F82330C4
:101D6800002B0FD00AF07EFC03467B777B7F022B8B
:101D780008D1FB891A4A52F82330FA891046984745
:101D88000346BB77FB897B83FB89184697ED000BDD
:101D980009F076FB7861BB7F002B07D07B8B7969D4
:101DA80018460AF03BFC0346FB7703E07B8B18469A
:101DB8000AF093FC97F91F30002B05D097F91F30D4
:101DC8001946084809F09EFA97F91F301846203737
:101DD800BD4680BD1C84010860840108D90E00201E
:101DE8003C020020A084010880B582B000AF002327
:101DF800FB71002009F0DEFB0346FB7197F9073001
:101E080018460837BD4680BD80B582B000AF0023B4
:101E1800FB710B4B06221A7009F06AFC0346FB7132
:101E280018220021074816F0A3F909F0DFFF044B38
:101E380000221A7097F9073018460837BD4680BD4A
:101E4800D90E00203C02002080B400AF034B1B7861
:101E5800DBB21846BD465DF8047B7047D80E0020FB
:101E680080B400AF034B1B78DBB21846BD465DF863
:101E7800047B7047F00E002080B483B000AF786018
:101E88007B681B6843F001027B681A6000BF0C374F
:101E9800BD465DF8047B704780B483B000AF7860BE
:101EA8007B681B6823F001027B681A6000BF0C374F
:101EB800BD465DF8047B704780B483B000AF78609E
:101EC80039607B681B6823F004023B681A437B680F
:101ED8001A6000BF0C37BD465DF8047B704780B4BC
:101EE80083B000AF78607B681B6803F00403184672
:101EF8000C37BD465DF8047B704780B483B000AFF3
:101F0800786039607B683A68DA6200BF0C37BD4692
:101F18005DF8047B704780B483B000AF78607B685D
:101F2800DB6A18460C37BD465DF8047B704780B401
:101F380083B000AF786039607B683A681A6300BF85
:101F48000C37BD465DF8047B704780B483B000AFA2
:101F5800786039607B681A6A3B681A437B681A6242
:101F680000BF0C37BD465DF8047B704780B483B072
:101F780000AF786039607B683A685A6300BF0C37F5
:101F8800BD465DF8047B704780B483B000AF7860CD
:101F980039607B683A689A6300BF0C37BD465DF8C4
:101FA800047B704780B483B000AF786039607B6889
:101FB8003A68DA6300BF0C37BD465DF8047B7047AA
:101FC80080B483B000AF78607B685B6B18460C37D1
:101FD800BD465DF8047B704780B483B000AF78607D
:101FE8007B689B6B18460C37BD465DF8047B7047D1
:101FF80080B483B000AF78607B68DB6B18460C3721
:10200800BD465DF8047B704780B483B000AF78604C
:102018007B685B6943F001027B685A6100BF0C373B
:10202800BD465DF8047B704780B483B000AF78602C
:1020380039607B683A689A6100BF0C37BD465DF825
:10204800047B704780B483B000AF786039603B6828
:102058001A047B689A6100BF0C37BD465DF8047BA3
:102068007047000080B584B000AF786087ED000A43
:10207800D7ED007AF5EEC07AF1EE10FA03D54FF0FD
:1020880000033B600AE0D7ED007A9FED167AF4EE84
:10209800C77AF1EE10FA01DD134B3B607B681B68D1
:1020A8001846FFF738FFF8607B681B79002B0CBFD8
:1020B80001230023DBB21A46FB68134407EE903A6B
:1020C800B8EE677AD7ED007A27EE277ADFED056A52
:1020D800C7EE267AFCEEE77A17EE903A18461037E4
:1020E800BD4680BD0000C8420000C84280B582B02D
:1020F80000AF786039607B681B681846FFF70BFFF4
:1021080002463B68934205D07B681B6839681846CD
:10211800FFF7F3FE00BF0837BD4680BD80B582B02B
:1021280000AF786039607B681B681846FFF748FF86
:1021380002463B68934205D07B681B68396818469D
:10214800FFF714FF00BF0837BD4680BD80B582B0D9
:1021580000AF786039607B681B681846FFF73CFF62
:1021680002463B68934205D07B681B68396818466D
:10217800FFF70AFF00BF0837BD4680BD80B582B0B3
:1021880000AF786039607B681B681846FFF730FF3E
:1021980002463B68934205D07B681B68396818463D
:1021A800FFF700FF00BF0837BD4680BD80B584B08B
:1021B80000AF786087ED000A97ED000A7868FFF7AE
:1021C80051FFF860F9687868FFF7A8FF00BF10377B
:1021D800BD4680BD80B584B000AF786087ED000A49
:1021E80097ED000A7868FFF73DFFF860F9687868AE
:1021F800FFF7ACFF00BF1037BD4680BD80B584B087
:1022080000AF786087ED000A97ED000A7868FFF75D
:1022180029FFF860F9687868FFF7B0FF00BF10374A
:10222800BD4680BD80B485B000AF78607B681B6810
:102238009B6803F00703FB60FB68062B0CBF0123B8
:102248000023DBB218461437BD465DF8047B70479F
:1022580080B584B000AF78600B46FB707B681B6864
:102268001846FFF73CFEF860FB78002B0FD07B6820
:102278001B68234A934204D07B681B68214A934217
:1022880005D17B681B6800211846FFF750FEFB68E4
:10229800042B11D07B681B6804211846FFF70CFE3D
:1022A8007B681B681846FFF7AFFE7B681B68F968F8
:1022B8001846FFF701FE04E07B681B681846FFF725
:1022C800A3FE7B681B681846FFF7D6FDFB78002B3A
:1022D80011D07B681B680A4A934204D07B681B684C
:1022E800084A934207D17B681A687B685B7919466C
:1022F8001046FFF71CFE00BF1037BD4680BD00BF6B
:10230800000001400004014080B582B000AF786051
:102318007B681B681846FFF7BFFD00BF0837BD463E
:1023280080BD000080B400AF1B4BB3F826220132F9
:1023380092B2A3F82622184BB3F82632092B03D9F8
:10234800154B0022A3F82622134BB3F8282201329A
:1023580092B2A3F82822104BB3F82832B3F57A7F4B
:1023680003D30D4B0022A3F828220B4BB3F82A22E3
:10237800013292B2A3F82A22074BB3F82A3242F26A
:102388000F72934203D9044B0022A3F82A2200BFFC
:10239800BD465DF8047B7047E80A002090B591B00F
:1023A80000AFF860B9607A603B600023FB630023EC
:1023B800BB6369E0FB6B9B00BA6813441B687B63D3
:1023C800BB6B5A1CBA63DB003A681344D3E9002399
:1023D800C7E90A237B6BDB00FA681344D3E90001E1
:1023E800D7E90A23FDF7D0FE02460B46C7E90823C2
:1023F800BB6BDB003A681344D3E90001D7E90A2331
:10240800FDF7C2FE02460B46C7E90623D7E90623B5
:10241800D7E90801FEF79AF902460B4643EC172B59
:10242800B0EE470AF0EE670A14F046F953EC102BA9
:1024380010461946FEF710FB03467B617B69002BAB
:102448001CD07869FDF7EEFFD7E90623FEF754F8AC
:1024580002460B46D7E90801FDF796FE02460B46F1
:10246800104619467B6BDB00FA68D418D7E90A23B3
:10247800FDF78CFE02460B46C4E90023FB6B0133D3
:10248800FB63BB6B0133BB63FA6B7B689A4291DBDE
:1024980000BF00BF4437BD4690BD00002DE9F043A2
:1024A80095B000AF78607B68DB6F1B68D3E90023C9
:1024B800C7E910237B68D3E90623C7E90E237B68A5
:1024C8001B6AD3E90023C7E90C237B68D3F884305F
:1024D8001B68FB627B689B68BB62BB6A1B687B628C
:1024E800BB6A5B683B62BB6A9B68FB61BB6ADB6873
:1024F800BB61BB6A1B697B6104233B617B685B68CA
:1025080000221A703B69DB001A46F96A786AFEF7FE
:1025180055FB7B689B6F3A6A1A6006F0ADFC4FF07A
:1025280000029E4BD7E90C01FDF7E6FF02460B4679
:10253800C7E902230023FB6424E0FB6CDB007A6A12
:102548001344D3E90045FB6CDB003A6A1344D3E932
:102558000001D7E90223FDF7CFFF02460B461046DC
:102568001946FB6CDB00FA6AD61802460B46204671
:102578002946FDF70BFE02460B46C6E90023FB6C15
:102588000133FB64FA6C3B699A42D6DB7B68DB6FEC
:102598001C68D7E90223D7E91001FDF7F7FD0246C9
:1025A8000B46C4E900237B689B6FFA691A6001F047
:1025B80043F906F061FC0023FB6424E0FB6CDB00BC
:1025C8007A6A1344D3E90045FB6CDB00FA691344CB
:1025D800D3E90001D7E90223FDF78EFF02460B4637
:1025E80010461946FB6CDB00FA6AD61802460B4601
:1025F80020462946FDF7CAFD02460B46C6E90023D8
:10260800FB6C0133FB64FA6C3B699A42D6DB7B684E
:102618009B6FBA691A6001F00FF906F02DFC0023D0
:10262800FB6424E0FB6CDB007A6A1344D3E90045C1
:10263800FB6CDB00BA691344D3E90001D7E90C232A
:10264800FDF75AFF02460B4610461946FB6CDB00A5
:10265800FA6AD61802460B4620462946FDF796FD2B
:1026680002460B46C6E90023FB6C0133FB64FA6C97
:102678003B699A42D6DB7B68DB6F1968D7E90E2382
:10268800C1E900237B689B6F7A691A6001F0D4F86E
:1026980006F0F2FB4FF00002414BD7E90C01FEF7C0
:1026A80055F802460B46C7E902230023FB6458E0AD
:1026B800FB6CDB007A6A1344D3E90045FB6CDB0052
:1026C8003A6A1344D3E90089FB6CDB00FA691344C6
:1026D800D3E9000102460B46FDF758FD02460B46BA
:1026E80040464946FDF752FD02460B46904699463C
:1026F800FB6CDB00BA691344D3E9000102460B46C0
:10270800FDF744FD02460B4640464946FDF73EFDAF
:1027180002460B4610461946FB6CDB007A691344E7
:10272800D3E90023FDF732FD02460B461046194651
:10273800D7E90223FDF7E0FE02460B46104619468C
:10274800FB6CDB00FA6AD61802460B46204629467F
:10275800FDF71CFD02460B46C6E90023FB6C01335E
:10276800FB64FA6C3B699A42A2DB7B68D3F884303D
:1027780018687B68D3F88C3019687B68D3F8903078
:102788001B680122FFF70AFE7B685B6801221A704A
:1027980000BF5437BD46BDE8F08300BF0000E03FEE
:1027A8000000184080B483B000AF78607B684FF0B9
:1027B800FF321A6000BF0C37BD465DF8047B7047D6
:1027C80080B483B000AF78607B684FF0FF321A6046
:1027D80000BF0C37BD465DF8047B704780B485B0F8
:1027E80000AF0346B9607A60FB817B684FF0FF3227
:1027F8001A60FB89DB039AB2BB681A8000BF1437E2
:10280800BD465DF8047B704780B483B000AF786044
:102818007B684FF0FF321A6000BF0C37BD465DF889
:10282800047B704780B483B000AF78607B684FF05A
:10283800FF321A6000BF0C37BD465DF8047B704755
:1028480080B485B000AF0346B9607A60FB817B68CD
:102858004FF0FF321A60FB89DB029AB2BB681A801C
:1028680000BF1437BD465DF8047B704780B59AB049
:1028780000AF78607B6800221A727B6801225A6078
:102888000023BB620023FB62254BBB60002387F853
:102898004E3000233B6300237B63012387F84C30D1
:1028A800022387F84D300023FB60002387F85C3053
:1028B80000233B61002387F85D307B6800221A61A2
:1028C8007B68184A5A61012387F867307B680E22B3
:1028D8009A617B68012283F824207B6897F8672037
:1028E8001A777B680F221A627B6810333B6607F100
:1028F8000803396E1846FEF75BFC02467B68DA600F
:102908007B68D86803234FF470620221FEF762FDEA
:102918007B6801221A7200BF6837BD4680BD00BFC0
:10292800003C00400008024080B582B000AF7860EB
:102938007B6800225A607B6800221A707B6801223B
:1029480083F828207B681846FFF790FF00BF0837F8
:10295800BD4680BD80B58CB002AF78607B68D86812
:1029680003234FF470620221FEF734FD0346FB8413
:10297800FB8C002B10D17B68D86807F10801012374
:1029880001930123009301230F22FEF7BDFE4FF4AC
:1029980080410348FFF748FB00BF2837BD4680BD8C
:1029A8000008024080B586B002AF78607B681B786B
:1029B800002B16D17B6801221A707B685B68012B9B
:1029C8000FD17B681B7A002B0BD04FF0FF33FB60D5
:1029D8007B68D8680E230093FB68FA68F968FFF7EC
:1029E8000BF800BF1037BD4680BD000080B59AB017
:1029F80000AF78600023BB620023FB62234BBB60FF
:102A0800002387F84E3000233B6300237B630123B8
:102A180087F84C30022387F84D300023FB600023F1
:102A280087F85C3000233B61002387F85D307B68C2
:102A380000221A617B68164A5A61012387F86730B9
:102A48007B680E229A617B68012283F824207B68C8
:102A580097F867201A777B6801221A627B6810331F
:102A68003B6607F10803396E1846FEF7A1FB0246DC
:102A78007B68DA607B68D86803234FF470620221B0
:102A8800FEF7A8FC00BF6837BD4680BD003C00408B
:102A98000008024080B582B000AF78607B680022F1
:102AA8001A707B68012283F828207B6800221A723A
:102AB8007B6801225A607B681846FFF797FF7B689E
:102AC80001221A7200BF0837BD4680BD80B586B0A6
:102AD80002AF03463960FB803B68D86803234FF494
:102AE80070620221FEF776FC0346FB81FB89002B0E
:102AF8000FD14FF480410948FFF7A4FA3B68D86822
:102B0800B91D012301930123009301230122FEF73C
:102B18005CFD00BF1037BD4680BD00BF0008024005
:102B280080B586B002AF78607B681B78002B16D121
:102B38007B6801221A707B685B68012B0FD17B6868
:102B48001B7A002B0BD04FF0FF33FB607B68D868F3
:102B58000E230093FB68FA68F968FEF74DFF00BF83
:102B68001037BD4680BD000080B59AB000AF7860D0
:102B78007B6800221A727B6801225A600023BB62BC
:102B88000023FB62254BBB60002387F84E300023EF
:102B98003B6300237B63012387F84C30022387F8CB
:102BA8004D300023FB60002387F85C3000233B6135
:102BB800002387F85D307B6800221A617B68184A19
:102BC8005A61012387F867307B680E229A617B6817
:102BD800012283F824207B6897F867201A777B689E
:102BE80001221A627B6810333B6607F10803396ECD
:102BF8001846FEF7DDFA02467B68DA607B68D8681B
:102C080003234FF470620221FEF7E4FB7B68012284
:102C18001A7200BF6837BD4680BD00BF003C004047
:102C28000008024080B582B000AF78607B6800225F
:102C38005A607B6800221A707B68012283F828207A
:102C48007B681846FFF790FF00BF0837BD4680BD78
:102C580080B586B002AF786039603B68D8680323D6
:102C68004FF470620221FEF7B5FB0346FB81FB8936
:102C7800002B0FD13B68D8687968012301930123A1
:102C8800009301230122FEF73FFD4FF480410348E2
:102C9800FFF7CAF900BF1037BD4680BD00080240E3
:102CA80080B586B002AF78607B681B78002B16D1A0
:102CB8007B6801221A707B685B68012B0FD17B68E7
:102CC8001B7A002B0BD04FF0FF33FB607B68D86872
:102CD8000E230093FB68FA68F968FEF78DFE00BFC3
:102CE8001037BD4680BD000080B59AB000AF78604F
:102CF8007B6800221A727B6801225A600023BB623B
:102D08000023FB62254BBB60002387F84E3000236D
:102D18003B6300237B63012387F84C30022387F849
:102D28004D300023FB60002387F85C3000233B61B3
:102D3800002387F85D307B6800221A617B68184A97
:102D48005A61012387F867307B680E229A617B6895
:102D5800012283F824207B6897F867201A777B681C
:102D68000F221A627B6810333B6607F10803396E3D
:102D78001846FEF71DFA02467B68DA607B68D86859
:102D880003234FF470620221FEF724FB7B680122C3
:102D98001A7200BF6837BD4680BD00BF003C0040C6
:102DA8000008024080B582B000AF78607B680022DE
:102DB8005A607B6800221A707B68012283F82820F9
:102DC8007B681846FFF790FF00BF0837BD4680BDF7
:102DD80080B586B002AF786039603B68D868032355
:102DE8004FF470620221FEF7F5FA0346FB81FB8976
:102DF800002B0FD13B68D868796801230193012320
:102E0800009301230F22FEF77FFC4FF48041034813
:102E1800FFF70AF900BF1037BD4680BD0008024021
:102E280080B586B002AF78607B681B78002B16D11E
:102E38007B6801221A707B685B68012B0FD17B6865
:102E48001B7A002B0BD04FF0FF33FB607B68D868F0
:102E58000E230093FB68FA68F968FEF7CDFD00BF02
:102E68001037BD4680BD000080B59AB000AF7860CD
:102E78000023BB620023FB62234BBB60002387F85F
:102E88004E3000233B6300237B63012387F84C30DB
:102E9800022387F84D300023FB60002387F85C305D
:102EA80000233B61002387F85D307B6800221A61AC
:102EB8007B68164A5A61012387F867307B680E22BF
:102EC8009A617B68012283F824207B6897F8672041
:102ED8001A777B6801221A627B6810333B6607F118
:102EE8000803396E1846FEF763F902467B68DA6014
:102EF8007B68D86803234FF470620221FEF76AFAF0
:102F080000BF6837BD4680BD003C00400008024055
:102F180080B582B000AF78607B6800221A707B6849
:102F2800012283F828207B6800221A727B6801221C
:102F38005A607B681846FFF797FF7B6801221A7270
:102F480000BF0837BD4680BD80B586B002AF0346D6
:102F58003960FB803B68D86803234FF47062022114
:102F6800FEF738FA0346FB81FB89002B0FD14FF49B
:102F780080410948FFF766F83B68D868B91D012306
:102F880001930123009301230122FEF71EFB00BFDA
:102F98001037BD4680BD00BF0008024080B586B02E
:102FA80002AF78607B681B78002B16D17B68012202
:102FB8001A707B685B68012B0FD17B681B7A002B2A
:102FC8000BD04FF0FF33FB607B68D8680E2300936B
:102FD800FB68FA68F968FEF70FFD00BF1037BD46B9
:102FE80080BD000000000000B0B586B000AF87EDDE
:102FF800020B786097ED020B13F05EFB87ED040B74
:1030080097ED040B06F022FF0346002B06D197ED3F
:10301800040B06F0CBFE0346002B06D04FF000024F
:103028004FF00003C7E9042307E09FED1F1B97ED4E
:10303800040B13F0AFF887ED040B4FF000024FF0CC
:103048000003D7E90401FDF7C9FC0346002B12D0A1
:103058003C697B6983F0004520462946FDF724FD3D
:1030680003469BB25B429BB21BB21846FDF7DAF9E6
:1030780002460B460BE0D7E90401FDF715FD0346B0
:103088009BB21BB21846FDF7CDF902460B46D7E9AD
:103098000201FDF779F802460B467968C1E9002379
:1030A80000BF1837BD46B0BD000000000000F0406A
:1030B800B0B586B000AF87ED020B786097ED020BD4
:1030C80013F07EFB87ED040B97ED040B06F0BEFEB4
:1030D8000346002B06D197ED040B06F067FE034666
:1030E800002B06D04FF000024FF00003C7E904237D
:1030F80007E09FED1F1B97ED040B13F04BF887EDCE
:10310800040B4FF000024FF00003D7E90401FDF76C
:1031180065FC0346002B12D03C697B6983F00045AF
:1031280020462946FDF7C0FC03469BB25B429BB292
:103138001BB21846FDF776F902460B460BE0D7E9B5
:103148000401FDF7B1FC03469BB21BB21846FDF71C
:1031580069F902460B46D7E90201FDF715F8024660
:103168000B467968C1E9002300BF1837BD46B0BDDA
:10317800000000000000F040F0B58BB000AF87ED14
:10318800020B87ED001BD7E90223C7E908234FF09C
:1031980000024FF00003D7E90001FDF715FC0346D4
:1031A800002B10D04FF000024FF00003D7E90201C6
:1031B800FDF70AFC0346002B00F01281D7E9002333
:1031C800C7E908230CE197ED020B06F03FFE034622
:1031D800002B0DD197ED000B06F038FE0346002BAF
:1031E80006D197ED020B06F0E1FD0346002B05D052
:1031F800814BD3E90023C7E90823F1E04FF000022F
:103208004FF00003D7E90201FDF7DEFB0346002B70
:103218000CD0D7E900234FF000004FF00001FDF774
:1032280095FA02460B46C7E90823D9E097ED000B4B
:1032380006F0BCFD0346002B29D001231C464FF0A5
:1032480000024FF00003D7E90001FDF7C7FB034672
:10325800002B01D100231C46E4B201231D464FF088
:1032680000024FF00003D7E90201FDF7B7FB034660
:10327800002B01D100231D46EBB26340DBB2002BCB
:1032880000F0AE80D7E90023C7E90823A8E097ED4E
:10329800001B97ED020B12F07DFF87ED080B012351
:1032A8001E464FF000024FF00003D7E90801FDF772
:1032B8008BFB0346002B01D100231E46F3B2FB779C
:1032C800FB7F002B4ED197ED000B13F0F5F953EC73
:1032D800102BD7E90001FDF79FFB0346002B41D0D7
:1032E800D7E90023D7E90201FDF730FA02460B4679
:1032F8001146396123F000437B614FF000023F4BD8
:10330800D7E90401FCF742FF02460B4643EC172BB2
:10331800B0EE470AF0EE670A13F0CEF953EC102B23
:10332800D7E90401FCF730FF02460B46144623F0A8
:1033380000454FF00002324BD7E90401FDF7DCF8F5
:1033480002460B4601210E4620462946FDF764FB3E
:103358000346002B01D100231E46F3B283F001037C
:10336800DBB2FB77FB7F002B0CD04FF000024FF055
:103378000003D7E90001FDF7BFF802460B46C7E98D
:1033880008232DE001231C464FF000024FF00003F4
:10339800D7E90201FDF722FB0346002B01D10023E8
:1033A8001C46E4B201231D464FF000024FF0000313
:1033B800D7E90001FDF712FB0346002B01D10023DA
:1033C8001D46EBB26340DBB2002B09D0D7E90023DE
:1033D800D7E90801FCF7DAFE02460B46C7E90823DD
:1033E800D7E9082343EC172BB0EE470AF0EE670A3B
:1033F8002C37BD46F0BD00BF000000200000E03FB4
:103408000000B03C80B59AB000AF78607B680022BD
:103418001A727B6801225A600023BB620023FB6298
:10342800254BBB60002387F84E3000233B63002305
:103438007B63012387F84C30022387F84D30002343
:10344800FB60002387F85C3000233B61002387F88A
:103458005D307B6800221A617B68184A5A61012333
:1034680087F867307B680E229A617B68012283F8AF
:1034780024207B6897F867201A777B6810221A62E5
:103488007B6810333B6607F10803396E1846FDF771
:103498008FFE02467B68DA607B68D86803234FF4A6
:1034A80070620221FDF796FF7B6801221A7200BF45
:1034B8006837BD4680BD00BF003C004000080240A0
:1034C80080B59AB000AF78600023BB620023FB622E
:1034D800234BBB60002387F84E3000233B63002357
:1034E8007B63012387F84C30022387F84D30002393
:1034F800FB60002387F85C3000233B61002387F8DA
:103508005D307B6800221A617B68164A5A61012384
:1035180087F867307B680E229A617B68012283F8FE
:1035280024207B6897F867201A777B6801221A6243
:103538007B6810333B6607F10803396E1846FDF7C0
:1035480037FE02467B68DA607B68D86803234FF44D
:1035580070620221FDF73EFF00BF6837BD4680BD9F
:10356800003C00400008024080B59AB000AF786087
:103578007B6800221A727B6801225A600023BB62B2
:103588000023FB62254BBB60002387F84E300023E5
:103598003B6300237B63012387F84C30022387F8C1
:1035A8004D300023FB60002387F85C3000233B612B
:1035B800002387F85D307B6800221A617B68184A0F
:1035C8005A61012387F867307B680E229A617B680D
:1035D800012283F824207B6897F867201A777B6894
:1035E80001221A627B6810333B6607F10803396EC3
:1035F8001846FDF7DDFD02467B68DA607B68D8680F
:1036080003234FF470620221FDF7E4FE7B68012278
:103618001A7200BF6837BD4680BD00BF003C00403D
:103628000008024080B5A6B000AF78601D4BBB60B3
:1036380000233B7300237B7307F10803184612F03D
:1036480091F902467B68DA607B68DB6800211846DE
:1036580011F0E4FE7B68DB680421184612F012F8CA
:103668007B68DB680421184612F084F87B68DB6805
:103678000421184612F0F6F87B68DB681846FEF756
:10368800D1FD034687F8973097F89730002B05D17E
:103698007B68DB6801211846FEF7DAFD00BF983722
:1036A800BD4680BD0004014080B58CB002AF786093
:1036B8007B6800221A727B6801225A600023BB6172
:1036C80000237B74184BFB6100233B620023BB740F
:1036D800002387F82430012387F825300123FB6075
:1036E80001233B7407F10C000023009304230122FB
:1036F800012112F08DFB02467B68DA607B68DB688B
:10370800184612F02DFC7B68DB680121184612F080
:1037180073FB7B6801221A727B6800225A7200BF11
:103728002837BD4680BD00BF0021014080B58CB060
:1037380002AF78607B6800221A727B6801225A60A7
:103748000023BB6100237B74184BFB6100233B62A1
:103758000023BB74002387F82430012387F8253021
:103768000123FB6001233B7407F10C000023009345
:1037780004230122012112F04BFB02467B68DA6028
:103788007B68DB68184612F0EBFB7B68DB6801217D
:10379800184612F031FB7B6801221A727B680022FE
:1037A8005A7200BF2837BD4680BD00BF00220140C5
:1037B80080B58CB002AF78607B6800221A727B6893
:1037C80001225A600023BB6100237B74184BFB6104
:1037D80000233B620023BB74002387F824300123B5
:1037E80087F825300123FB6001233B7407F10C00A7
:1037F8000023009304230122012112F009FB024651
:103808007B68DA607B68DB68184612F0A9FB7B6886
:10381800DB680121184612F0EFFA7B6801221A7260
:103828007B6800225A7200BF2837BD4680BD00BFA2
:1038380000200140000000002DE9F04FADF5097DA2
:1038480002AFD04B93F84032012B10D1CD4BD3F8B7
:10385800003201331846FCF7D5FDCA4BD3E9822361
:10386800C84CFCF749FE02460B46C4E90823C54B81
:1038780093F84032002B0AD1C24BD3F884301A682F
:10388800C04BD3F84412D2E90023C1E90023BE4B50
:1038980093F9D73287F87331002387F8A43197F862
:1038A8007331042B1FD801A252F823F0C93800083D
:1038B800D1380008D9380008E1380008E93800088C
:1038C800002387F8A4310EE0032387F8A4310AE027
:1038D800032387F8A43106E0002387F8A43102E027
:1038E800002387F8A43197F9A431A74A82F8D73280
:1038F800A54B93F9D63287F87231002387F8A331A4
:1039080097F87231042B20D801A252F823F000BF97
:103918002D390008353900083D39000845390008B7
:103928004D390008002387F8A3310EE0032387F8F8
:10393800A3310AE0032387F8A33106E0002387F8C0
:10394800A33102E0002387F8A33197F9A3318E4A07
:1039580082F8D6328C4B93F9D53287F8713100232F
:1039680087F8A23197F87131042B20D801A252F8B8
:1039780023F000BF9139000899390008A1390008DF
:10398800A9390008B1390008002387F8A2310EE0F0
:10399800032387F8A2310AE0032387F8A23106E05F
:1039A800002387F8A23102E0002387F8A23197F9B3
:1039B800A231754A82F8D532734B93F9D43287F81D
:1039C8007031002387F8A13197F87031042B20D883
:1039D80001A252F823F000BFF5390008FD390008AC
:1039E800053A00080D3A0008153A0008002387F840
:1039F800A1310EE0032387F8A1310AE0032387F8F9
:103A0800A13106E0002387F8A13102E0002387F8FE
:103A1800A13197F9A1315C4A82F8D4325A4B93F913
:103A2800D33287F86F31002387F8A03197F86F31C8
:103A3800042B20D801A252F823F000BF593A0008FD
:103A4800613A0008693A0008713A0008793A0008B2
:103A5800002387F8A0310EE0032387F8A0310AE09D
:103A6800032387F8A03106E0002387F8A03102E09D
:103A7800002387F8A03197F9A031434A82F8D3325E
:103A8800414B93F9D23287F86E31002387F89F3182
:103A980097F86E31042B20D801A252F823F000BF0A
:103AA800BD3A0008C53A0008CD3A0008D53A0008E2
:103AB800DD3A0008002387F89F310EE0032387F8DA
:103AC8009F310AE0032387F89F3106E0002387F837
:103AD8009F3102E0002387F89F3197F99F312A4AE6
:103AE80082F8D232284B93F9D13287F86D3100230E
:103AF80087F89E3197F86D31042B20D801A252F82F
:103B080023F000BF213B0008293B0008313B000897
:103B1800393B0008413B0008002387F89E310EE03E
:103B2800032387F89E310AE0032387F89E3106E0D5
:103B3800002387F89E3102E0002387F89E3197F929
:103B48009E31114A82F8D1320F4B93F9D03287F85F
:103B58006C31002387F89D3197F86C31042B24D8F9
:103B680001A252F823F000BF853B0008953B0008EE
:103B78009D3B0008A53B0008AD3B0008002387F8E3
:103B88009D3112E0E80A002060050020032387F831
:103B98009D310AE0032387F89D3106E0002387F86A
:103BA8009D3102E0002387F89D3197F99D31D64A6F
:103BB80082F8D032D44B93F9CF3287F86B31002397
:103BC80087F89C3197F86B31042B20D801A252F862
:103BD80023F000BFF13B0008F93B0008013C000856
:103BE800093C0008113C0008002387F89C310EE0CE
:103BF800032387F89C310AE0032387F89C3106E009
:103C0800002387F89C3102E0002387F89C3197F95C
:103C18009C31BD4A82F8CF32BB4B93F9CE3287F83C
:103C28006A31002387F89B3197F86A31042B20D832
:103C380001A252F823F000BF553C00085D3C000883
:103C4800653C00086D3C0008753C0008002387F8B7
:103C58009B310EE0032387F89B310AE0032387F8A2
:103C68009B3106E0002387F89B3102E0002387F8A8
:103C78009B3197F99B31A44A82F8CE32A24B93F933
:103C8800F13287F86931002387F89A3197F869315A
:103C9800042B20D801A252F823F000BFB93C000839
:103CA800C13C0008C93C0008D13C0008D93C0008C8
:103CB800002387F89A310EE0032387F89A310AE047
:103CC800032387F89A3106E0002387F89A3102E047
:103CD800002387F89A3197F99A318B4A82F8F132A2
:103CE800894B93F9F03287F86831002387F89931C6
:103CF80097F86831042B20D801A252F823F000BFAE
:103D08001D3D0008253D00082D3D0008353D0008F3
:103D18003D3D0008002387F899310EE0032387F81A
:103D280099310AE0032387F8993106E0002387F8E0
:103D3800993102E0002387F8993197F99931724A4D
:103D480082F8F032704B93F9CD3287F8673100234F
:103D580087F8983197F86731042B20D801A252F8D8
:103D680023F000BF813D0008893D0008913D00080F
:103D7800993D0008A13D0008002387F898310EE01E
:103D8800032387F898310AE0032387F8983106E07F
:103D9800002387F8983102E0002387F8983197F9D3
:103DA8009831594A82F8CD32574B93F9CC3287F87B
:103DB8006631002387F8973197F86631042B20D8AD
:103DC80001A252F823F000BFE53D0008ED3D0008D0
:103DD800F53D0008FD3D0008053E0008002387F872
:103DE80097310EE0032387F897310AE0032387F819
:103DF800973106E0002387F8973102E0002387F81F
:103E0800973197F99731404A82F8CC323E4B93F973
:103E1800CB3287F86531002387F8963197F86531FA
:103E2800042B20D801A252F823F000BF493E000815
:103E3800513E0008593E0008613E0008693E0008EE
:103E4800002387F896310EE0032387F896310AE0BD
:103E5800032387F8963106E0002387F8963102E0BD
:103E6800002387F8963197F99631274A82F8CB32A2
:103E7800254B93F9CA3287F86431002387F89531C6
:103E880097F86431042B20D801A252F823F000BF20
:103E9800AD3E0008B53E0008BD3E0008C53E00081E
:103EA800CD3E0008002387F895310EE0032387F8FC
:103EB80095310AE0032387F8953106E0002387F857
:103EC800953102E0002387F8953197F995310E4A2C
:103ED80082F8CA320C4B93F9C93287F86331002350
:103EE80087F8943197F86331042B22D801A252F84D
:103EF80023F000BF153F00081D3F0008253F0008BC
:103F08002D3F0008353F000860050020002387F892
:103F180094310EE0032387F894310AE0032387F8ED
:103F2800943106E0002387F8943102E0002387F8F3
:103F3800943197F99431C64A82F8C932C44B93F93F
:103F4800C83287F86231002387F8933197F86231D5
:103F5800042B20D801A252F823F000BF793F0008B3
:103F6800813F0008893F0008913F0008993F0008F9
:103F7800002387F893310EE0032387F893310AE092
:103F8800032387F8933106E0002387F8933102E092
:103F9800002387F8933197F99331AD4A82F8C832F4
:103FA800AB4B93F9C73287F86131002387F8923118
:103FB80097F86131042B20D801A252F823F000BFF2
:103FC800DD3F0008E53F0008ED3F0008F53F000829
:103FD800FD3F0008002387F892310EE0032387F89D
:103FE80092310AE0032387F8923106E0002387F82C
:103FF800923102E0002387F8923197F99231944A7E
:1040080082F8C732924B93F9C63287F860310023A1
:1040180087F8913197F86031042B20D801A252F823
:1040280023F000BF41400008494000085140000803
:104038005940000861400008002387F891310EE0DC
:10404800032387F891310AE0032387F8913106E0CA
:10405800002387F8913102E0002387F8913197F91E
:1040680091317B4A82F8C632794B93F9C53287F889
:104078005F31002387F8903197F85F31042B20D8FF
:1040880001A252F823F000BFA5400008AD40000887
:10409800B5400008BD400008C5400008002387F867
:1040A80090310EE0032387F890310AE0032387F864
:1040B800903106E0002387F8903102E0002387F86A
:1040C800903197F99031624A82F8C532604B93F982
:1040D800C43287F85E31002387F88F3197F85E3154
:1040E800042B20D801A252F823F000BF0941000890
:1040F8001141000819410008214100082941000820
:10410800002387F88F310EE0032387F88F310AE008
:10411800032387F88F3106E0002387F88F3102E008
:10412800002387F88F3197F98F31494A82F8C432D2
:10413800474B93F9C33287F85D31002387F88E31F6
:1041480097F85D31042B20D801A252F823F000BF64
:104158006D410008754100087D410008854100084F
:104168008D410008002387F88E310EE0032387F87D
:104178008E310AE0032387F88E3106E0002387F8A2
:104188008E3102E0002387F88E3197F98E31304A5C
:1041980082F8C3322E4B93F9B83287F85C3100238A
:1041A80087F88D3197F85C31042B20D801A252F89A
:1041B80023F000BFD1410008D9410008E1410008BF
:1041C800E9410008F1410008002387F88D310EE02D
:1041D800032387F88D310AE0032387F88D3106E041
:1041E800002387F88D3102E0002387F88D3197F995
:1041F8008D31174A82F8B832164B93F84032012BAA
:1042080006D1144BB3F82432002B01D1012300E06E
:10421800002387F85B3197F85B31002B0BD00C4BF0
:1042280093F8B6320C4A82F89832094B93F8B732B1
:10423800094A82F89932074B93F84032012B0DD185
:10424800044BB3F82632002B08D1012307E000BF46
:1042580060050020E80A002058020020002387F8A3
:104268005A3197F85A31002B00F03482A54BB3F835
:10427800B42241F6FE739A4207D8A24BB3F8B4327F
:1042880001339BB29F4AA2F8B4329E4B93F8D832BE
:10429800002B19D19B4A012382F8D832994A00236E
:1042A800A2F8B432974A0323C2F8B03295494FF0C6
:1042B8000002954BC1E9802394494FF000024FF06A
:1042C8000003C1E98C2305E28E4BD3F8B032013BE1
:1042D8000D2B00F2C88101A252F823F01D430008FB
:1042E8004343000895430008E543000821440008BB
:1042F8005B44000897440008D144000819450008A9
:10430800534500088D450008C7450008FF450008CB
:10431800374600087D494FF000027B4BC1E99623E0
:104328007A494FF00002784BC1E9982377494FF05A
:104338000002754BC1E99E23CCE174494FF000029D
:10434800714BC1E98C23714BD3E98C014FF000020A
:104358006D4BFCF739FB0346002B00D19FE1694BFD
:10436800B3F8B42241F287339A4240F29881654A01
:104378000023A2F8B432634A0423C2F8B032634976
:104388004FF00002604BC1E9902388E15F494FF08C
:1043980000024FF00003C1E98C235A4BD3E9800196
:1043A8004FF00002584BFCF70FFB0346002B00D1DF
:1043B80077E1544BB3F8B432272B40F27281514A5B
:1043C8000023A2F8B4324F4A0223C2F8B0324F4950
:1043D8004FF000024C4BC1E98C2362E14B494FF08E
:1043E8000002494BC1E99023464BB3F8B42241F28D
:1043F80087339A4240F25781424A0023A2F8B432E6
:10440800404A0523C2F8B03240494FF000024FF04D
:104418000003C1E9902346E13C494FF000024FF008
:104428000003C1E99023374BB3F8B432B3F57A7F70
:10443800C0F03B81334A0023A2F8B432314A062344
:10444800C2F8B03231494FF000022F4BC1E98E2338
:104458002BE12E494FF000022B4BC1E98E23294B4B
:10446800B3F8B42240F6B7339A4240F22081254A85
:104478000023A2F8B432234A0723C2F8B0322349F2
:104488004FF000024FF00003C1E98E230FE11F49EE
:104498004FF000024FF00003C1E98E23194BB3F827
:1044A800B432B3F57A7FC0F00481164A0023A2F82B
:1044B800B432144A0823C2F8B03214494FF000024B
:1044C800114BC1E99223F4E010494FF000020E4B62
:1044D800C1E992230B4BB3F8B432B3F5FA6FC0F0CD
:1044E800EA80084A0023A2F8B432064A0A23C2F82E
:1044F800B03206494FF000024FF00003C1E99223A1
:10450800D9E000BF600500200000F03F58020020FD
:1045180080494FF000024FF00003C1E99C237E4B15
:10452800B3F8B432B3F57A7FC0F0C7807A4A002373
:10453800A2F8B432784A0823C2F8B03275494FF06D
:104548000002764BC1E99223B7E072494FF00002AE
:104558004FF00003C1E992236F4BB3F8B432B3F5BF
:10456800FA6FC0F0AC806C4A0023A2F8B4326A4AF1
:104578000B23C2F8B03267494FF00002674BC1E91C
:1045880094239CE063494FF00002644BC1E99423F3
:10459800614BB3F8B432B3F5FA6FC0F092805E4A5B
:1045A8000023A2F8B4325C4A0C23C2F8B03259494D
:1045B8004FF000024FF00003C1E9942381E0554910
:1045C8004FF000024FF00003C1E99423524BB3F8B7
:1045D800B432B3F5FA6F76D34F4A0023A2F8B43257
:1045E8004D4A0D23C2F8B0324A494FF000024B4BF6
:1045F800C1E99A2367E047494FF00002474BC1E9F8
:104608009A23454BB3F8B432B3F5FA6F5DD3424AF7
:104618000023A2F8B432404A0E23C2F8B0323D4912
:104628004FF000024FF00003C1E99A234DE03949E9
:104638004FF000024FF00003C1E99A23364BB3F85C
:10464800B432B3F5FA6F42D3334A0023A2F8B43236
:10465800314A0F23C2F8B0322E494FF000022F4BD7
:10466800C1E99C2333E02B494FF000022B4BC1E9F1
:104678009C23294BB3F8B432B3F5FA6F29D3264AF1
:104688000023A2F8B432244A0923C2F8B0322149DF
:104698004FF000024FF00003C1E99C2319E000BF6E
:1046A80018E000BF16E000BF14E000BF12E000BF32
:1046B80010E000BF0EE000BF0CE000BF0AE000BF42
:1046C80008E000BF06E000BF04E000BF02E000BF52
:1046D80000E000BF97F85B31002B00F0C5810D4B5F
:1046E800D3E98C014FF000024FF00003FCF76CF99E
:1046F8000346002B14D1074BD3E98E014FF000027B
:104708004FF00003FCF760F90346002B08D10123A2
:1047180007E000BF58020020600500200000F03FBD
:104728000023DBB2C44A82F89D32C34B93F89D3212
:10473800002B00F0B080C14B93F8ED32002B09D16B
:10474800BF48FEF73DF8BF48FEF76CF8BB4A0123A7
:1047580082F8ED32B94B586B03234FF47062022193
:10476800FCF738FE0346194607F50673A3F5E5720C
:104778000B46138007F50673A3F5E5731B88002B1A
:1047880010D1AE4B586B07F150010123019301235F
:10479800009301231022FCF7B7FF4FF48041AA4889
:1047A800FDF742FC07F14E03A54A19460020FEF723
:1047B80015F807F14C03A34A19460320FEF740F801
:1047C80007F50673A3F5E5731A8807F50673A3F5CD
:1047D800E6731B8813439AB29C4BB3F8A630134375
:1047E8009BB2954AA2F89232934BB3F89232924A0E
:1047F800A2F89432914BD3F8840003234FF47062EB
:104808000221FCF7E7FD0346194607F50673A3F5F1
:10481800E5720B46138007F50673A3F5E5731B884D
:10482800002B11D14FF480418748FDF70BFC834BD7
:10483800D3F884004FF47A73019301230093012382
:1048480001228349FCF7C1FE7C4B93F9D53287F8E6
:10485800593197F8593187F88C3197F85931042B29
:1048680013D801A252F823F085480008934800089D
:10487800934800088D48000893480008022387F8E9
:104888008C3102E0012387F88C3197F98C316B4A1F
:1048980082F8D53203E0694A002382F8ED32664B8C
:1048A800D3E98C014FF000024FF00003FCF78CF8BD
:1048B8000346002B0DD1604BD3E990014FF0000265
:1048C8004FF00003FCF780F80346002B01D10123C9
:1048D80000E00023DBB2584A82F89E32564B93F828
:1048E8009E32002B00F0BC80544B93F8EC32002B26
:1048F80009D15848FDF764FF5748FDF793FF4F4A21
:10490800012382F8EC3207F14E03524A194600207F
:10491800FDF764FF07F14C034F4A19460220FDF7E3
:104928008FFF07F50673A3F5E5731A8807F5067375
:10493800A3F5E6731B8813439AB2444BB3F8A4302B
:1049480013439BB23C4AA2F890323C4BD86D0323E8
:104958004FF470620221FCF73DFD0346194607F546
:104968000673A3F5E5720B46138007F50673A3F5E6
:10497800E5731B88002B0FD14FF480413248FDF7B7
:1049880061FB2E4BD86D0A23019301230093012369
:1049980001223249FCF719FE284BD86803234FF44B
:1049A80070620221FCF716FD0346194607F50673E7
:1049B800A3F5E5720B46138007F50673A3F5E573B7
:1049C8001B88002B10D11D4BD86807F14E0101231D
:1049D80001930123009301230122FCF795FE4FF474
:1049E80080411948FDF720FB144B93F9D43287F81E
:1049F800583197F8583187F88B3197F85831042B8C
:104A080013D801A252F823F0254A0008334A0008B7
:104A1800334A00082D4A0008334A0008022387F861
:104A28008B3102E0012387F88B3197F98B31034AE8
:104A380082F8D43218E000BF580200206005002038
:104A4800BC0A0020B40A00200008024018AC010883
:104A5800EC040020AC0A0020A40A0020E80400208E
:104A6800A84A002382F8EC3297F85A31002B00F05C
:104A78006D81A54BDB681B78012B04D0A24B93F802
:104A8800FC30002B06D0A04B93F80C31002B01D141
:104A9800012300E0002387F8573197F85731002B9E
:104AA80039D09A4BD3E994014FF000024FF000033C
:104AB800FBF7B2FF0346002B0FD0924B93F8E63278
:104AC800002B28D19248FDF77BFE9248FDF7AAFEFD
:104AD8008C4A012382F8E6321DE08A4B93F8E632CD
:104AE800002B18D00023C7F8B4310CE08749D7F859
:104AF800B43103F5A872002321F81230D7F8B43185
:104B08000133C7F8B431D7F8B4310E2BEEDD7D4A46
:104B1800002382F8E6327B4B93F8E632002B57D01D
:104B28007D497E48FEF754F907F14E03784A194645
:104B38000120FDF753FE07F14C03764A1946012080
:104B4800FDF77EFE07F50673A3F5E5731A8807F5EA
:104B58000673A3F5E6731B8813439AB2704BB3F838
:104B68009C3013439BB2694AA2F88632674BB3F86C
:104B780086326C491846FEF7E7F997F85731002B4B
:104B880026D0604B93F9CE3287F8563197F85631D4
:104B980087F88A3197F85631042B14D801A252F8B5
:104BA80023F000BFC14B0008CF4B0008CF4B0008D3
:104BB800C94B0008CF4B0008022387F88A3102E06E
:104BC800012387F88A3197F98A314E4A82F8CE3222
:104BD80097F85731002B3AD04C4BD3E992014FF05C
:104BE80000024FF00003FBF717FF0346002B0FD01E
:104BF800444B93F8E732002B29D14B48FDF7E0FDF1
:104C08004A48FDF70FFE3F4A012382F8E7321EE0CB
:104C18003C4B93F8E732002B19D00023C7F8B43186
:104C28000DE03A49D7F8B43103F5AE735A000A4497
:104C38000023D380D7F8B4310133C7F8B431D7F89B
:104C4800B4310E2BEDDD2F4A002382F8E7322D4BCD
:104C580093F8E732002B79D035493648FEF7B8F893
:104C680007F14E03304A19460120FDF7B7FD07F159
:104C78004C032E4A19460020FDF7E2FD07F506739E
:104C8800A3F5E5731A8807F50673A3F5E6731B8881
:104C980013439AB2224BB3F89E3013439BB21B4A7C
:104CA800A2F88832194BB3F88832184AA2F88A3227
:104CB800164BB3F88A3220491846FEF745F997F89B
:104CC8005731002B42D00F4B93F9CF3287F855312B
:104CD80097F8553187F8893197F85531042B30D832
:104CE80001A252F823F000BF054D00084B4D000803
:104CF8004B4D0008454D00084B4D0008022387F82E
:104D080089311EE060050020E80A002058020020D2
:104D1800B4080020AC08002080080020F804002017
:104D280018AC0108540800201C09002014090020B0
:104D3800E808002016050020BC080020012387F899
:104D4800893197F98931964A82F8CF32954B93F891
:104D58004032012B97F85A31002B00F00881914B13
:104D6800DB681B78012B05D08E4B93F8FC30002BA9
:104D780000F0FD808B4B93F80C31002B40F0F7804E
:104D8800894BD3E99E014FF000024FF00003FBF777
:104D980043FE0346002B00F0A180814B93F8E532D7
:104DA800002B40F0E48004220021804813F0E0F951
:104DB8007B494FF000024FF00003C1E93C237849DA
:104DC8004FF000024FF00003C1E93E2374494FF051
:104DD80000024FF00003C1E94023714A4FF000037D
:104DE800C2F8A83240220021714813F0C1F96C4979
:104DF8004FF000024FF00003C1E9522368494FF019
:104E080000024FF00003C1E95423654A012382F8E8
:104E1800D932634A012382F8DC3261494FF000023B
:104E28004FF00003C1E95C235D494FF000024FF0E9
:104E38000003C1E95E235A4A002382F8BE32584A69
:104E4800012382F8DD325B4BD3E902235449C1E9DF
:104E58006223534A002382F8C032514A4FF00003BC
:104E6800C2F8AC3254494FF000024FF00003C1E9D8
:104E78000023504BD3E900234949C1E96423484A38
:104E8800002382F8C132464A012382F8DE324A49B9
:104E98004FF000024FF00003C1E90223414B93F8A1
:104EA8002032002B0DD044494FF000024FF0000390
:104EB800C1E9042340494FF000024FF00003C1E963
:104EC8000623374A012382F8DF32354A012382F864
:104ED800E032334A012382F8E53248E0314BD3F817
:104EE80014321846FBF78EFA2BA3D3E90023FBF7FD
:104EF80003FB02460B46104619462A4BD3E98C237E
:104F0800FBF762FD0346002B04D004220121274849
:104F180013F02EF9224B93F8E532002B27D0042208
:104F28000121224813F024F91D4AFF2382F8B932DF
:104F38001B4AFF2382F8BA321A4A01235376184AC9
:104F4800FF2382F8BB32164AFF2382F8BC32144A88
:104F5800FF2382F8BD32124AFF2382F8BF32104A7B
:104F6800FF2382F8C2320E4A002382F8E5320C4B46
:104F780093F8E532002B03F03B820A4B93F840325A
:104F8800012B1BD1074BB3F82432002B16D1012378
:104F980015E000BFAFF30080FCA9F1D24D62503F8D
:104FA80060050020E80A002058020020580500206B
:104FB8006806002018AC010838050020002387F88F
:104FC800573197F85731002B00F05785B44BD3E988
:104FD8003C23B449C1E90223B14BD3E93E23B1498B
:104FE800C1E90423AE4BD3E94023AE49C1E9062306
:104FF800AC4BD3E90201AB4BD3E90423FBF7C6F86A
:1050080002460B4610461946A64BD3E90623FBF782
:10501800BDF802460B461046194697A3D3E900236C
:10502800FBF76AFA02460B46C7E976239D4BD3E99C
:105038000201D7E97623FBF7A7F802460B4610468C
:105048001946984BC3E90801964BD3E90401954BDF
:10505800D3E90623FBF798F802460B461046194693
:1050680087A3D3E90023FBF747FA02460B4610460D
:1050780019468C4BC3E90A018A49D7E97623C1E965
:105088000C23894B1B78012B04D1854A4FF0000370
:10509800C2F8A832844A00231370814BD3F8A8328F
:1050A8001846FBF7D1F978A3D3E90023FBF724FAD4
:1050B80002460B46C7E95223794BD3E9440174A34E
:1050C800D3E90023FBF718FA02460B46C7E9702319
:1050D800734BD3E942016EA3D3E90023FBF70CFA23
:1050E80002460B46C7E97623D7F84851D7F84C3122
:1050F80083F00046D7E9702328463146FBF7FCF9D0
:1051080002460B4610461946D7E97623FBF73CF8CA
:1051180002460B46C7E97A23D7E95223D7E9760135
:10512800FBF7EAF902460B4610461946D7E9702301
:10513800FBF72AF802460B46C7E95223584BD3F827
:10514800A8321846FBF780F94FA3D3E90023FBF7F1
:10515800D3F902460B46C7E97623514BD3E94601FA
:10516800D7E97623FBF7C8F902460B4610461946DD
:105178004B4BD3E94823FBF707F802460B46C7E930
:105188007023D7F8D8313B64D7F8DC3183F000437B
:105198007B64434BD3E94823D7E91001FBF7ACF90B
:1051A80002460B46104619463D4BD3E94623FAF70B
:1051B800EBFF02460B461046194607F1780343E910
:1051C800020133A3D3E90023D7E97001FBF794F96F
:1051D80002460B46C7E9722307F1780353E9020137
:1051E8002BA3D3E90023FBF787F902460B46C7E94F
:1051F8005023D7F84031BB63D7F8443183F00043DC
:10520800FB63D7E97623D7E90E01FBF775F9024668
:105218000B46D7E97201FAF7B9FF02460B46C7E910
:1052280078231F4BD3E948011BA3D3E90023FBF7DD
:1052380063F902460B461046194607F1A803C3E96D
:105248000001174BD3E94645154BD3F8A832184649
:10525800FBF7FAF802460B4620462946FBF74CF9BD
:1052680002460B46104619464FF000024FF0000365
:105278001CE000BFAFF30080555555555555D53F37
:105288001D339045A779E23F00000040BF7D5DBF18
:10529800C7711CC7715C8140E3388EE3388E34C017
:1052A8006005002058020020C80A0020FBF724F9F6
:1052B80002460B461046194607F1A803D3E9002316
:1052C800FAF764FF02460B461046194607F1A80391
:1052D800C3E90001D7F8D8313B63D7F8DC3183F054
:1052E80000437B6307F1A803D3E90023D7E90C0146
:1052F800FBF702F902460B46C7E94E23C64BD3E932
:105308004845C54BD3F8A8321846FBF79DF8024626
:105318000B4620462946FBF7EFF802460B46904617
:1053280083F000494FF000024FF000034046494621
:10533800FBF7E2F802460B4614461D46B64BD3E986
:105348004601A9A3D3E90023FBF7D6F802460B468A
:1053580020462946FAF71AFF02460B46C7E94C23AE
:10536800D7E97623D7E94C01FBF7C6F802460B4686
:105378001046194607F1A803D3E90023FAF704FFFA
:1053880002460B461046194607F1A803C3E9000177
:10539800A24B5B78012B0DD19F494FF000024FF0D3
:1053A8000003C1E952239C494FF000024FF000036B
:1053B800C1E95423994A00235370974BD3E95223E8
:1053C800C7E97423944BD3E95423C7E94A23924B82
:1053D800D3F8A8321846FBF737F8D7E97023FBF75C
:1053E8008BF802460B46924683F0004BD7E97623AA
:1053F800D7E97201FBF780F802460B4610461946BA
:10540800D7E95023FAF7C2FE02460B4650465946E2
:10541800FAF7BAFE02460B4614461D46D7E94C2356
:10542800D7E94E01FAF7B0FE02460B462046294658
:10543800FAF7AAFE02460B4610461946D7E97A2320
:10544800FAF7A2FE02460B461046194668A3D3E9AE
:105458000023FBF751F802460B4610461946D7E9D8
:105468007423FAF793FE02460B461046194662A3C8
:10547800D3E90023FBF740F802460B4610461946CD
:10548800654BC3E95201644BD3F8A8321846FAF7C2
:10549800DBFF07F1780353E90223FBF72DF80246F7
:1054A8000B4610461946D7E97823FAF76DFE0246EF
:1054B8000B461046194607F1A803D3E90023FAF76B
:1054C80063FE02460B4610461946D7E95223FAF7FF
:1054D8005BFE02460B461046194645A3D3E9002356
:1054E800FBF70AF802460B4610461946D7E94A2345
:1054F800FAF74CFE02460B46104619463EA3D3E97E
:105508000023FAF7F9FF02460B4610461946424BAC
:10551800C3E95401404B93F8D932002B0DD03E49D2
:105528004FF000024FF00003C1E956233A494FF00B
:1055380000024FF00003C1E95823374BD3E9520169
:1055480007F1780353E90223FAF720FE02460B46D7
:10555800104619462AA3D3E90023FAF7CDFF0246DD
:105568000B461046194628A3D3E90023FAF7C4FFCF
:1055780002460B4614461D46274BD3E9560124A381
:10558800D3E90023FAF7B8FF02460B46204629461E
:10559800FAF7FCFD02460B461046194607F5067356
:1055A800A3F5B473C3E900011B4BD3E95401D7E950
:1055B8007023FAF7EBFD02460B461046194610A376
:1055C800D3E90023FAF798FF02460B46104619461E
:1055D8000DA3D3E90023FAF78FFF02460B461446C2
:1055E8001D461DE0AFF30080E3388EE3388E34C0EB
:1055F8002D431CEBE2360A3F2AF259379822EF3F37
:10560800555555555555953FE0E749E82377E63F09
:1056180040306C2FB811D33F60050020C80A002025
:10562800B54BD3E95801AEA3D3E90023FAF764FFD9
:1056380002460B4620462946FAF7A8FD02460B46C5
:105648001046194607F50673A3F5B473C3E90201BA
:1056580007F50673A3F5B473D3E90001A2A3D3E950
:105668000023FBF7CFF90346002B1CD107F506737F
:10567800A3F5B473D3E9000101231C469CA3D3E925
:105688000023FBF7B5F90346002B01D100231C4684
:10569800E3B283F00103DBB2002B06D0964B93F8FC
:1056A800DA32002B01D0012300E00023DBB2924A5A
:1056B80082F8DA3207F50673A3F5B473D3E9020169
:1056C80089A3D3E90023FBF79DF90346002B1CD1DE
:1056D80007F50673A3F5B473D3E9020101231C4649
:1056E80083A3D3E90023FBF783F90346002B01D1F9
:1056F80000231C46E3B283F00103DBB2002B06D083
:105708007D4B93F8DB32002B01D0012300E000230E
:10571800DBB2794A82F8DB32784BDB681B78012BE5
:1057280004D0764B93F8FC30002B06D0734B93F8DB
:105738000C31002B01D1012300E0002387F8273129
:1057480097F82731002B2CD06B4B93F8DA32002BCB
:1057580016D06B4BDB7A012B12D0674B93F8DB32F8
:10576800002B05D0674A4FF6FF73A2F8963203E084
:10577800644A0123A2F896325F4A042382F8CD32A4
:105788005D4B93F8DA325E4AD3725E4BB3F99632C8
:10579800002BD4BF01230023DBB25BB2564A82F848
:1057A800B932002387F8A531534B93F9B932002B4E
:1057B80042D107F50673A3F5B473D3E90023114664
:1057C800C7F8E81183F00043C7F8EC3107F5067312
:1057D800A3F5B473D3E90223C7E9762397F82731F1
:1057E800002B6CD0444B93F9CC3287F8253197F8CD
:1057F800253187F8883197F82531042B13D801A271
:1058080052F823F0215800082F5800082F58000894
:10581800295800082F580008022387F8883102E029
:10582800012387F8883197F98831334A82F8CC32D6
:10583800012387F8A53142E007F50673A3F5B47391
:10584800D3E902231146C7F8D81183F00043C7F8FB
:10585800DC3107F50673A3F5B473D3E90023C7E970
:105868007A2397F82731002B29D0234B93F9CB3291
:1058780087F8263197F8263187F8873197F8263147
:10588800042B14D801A252F823F000BFA95800082D
:10589800B7580008B7580008B1580008B7580008AA
:1058A800022387F8873102E0012387F8873197F9C7
:1058B8008731114A82F8CB32012387F8A53197F84E
:1058C800A531002B26D0104BD3F89830012B1DD1D1
:1058D800094A002382F8BA321CE000BFAFF3008007
:1058E80040306C2FB811D33F7B14AE47E17A943F18
:1058F8007B14AE47E17A94BF60050020E80A0020D7
:10590800C80A00205802002018AC0108AC4A01233C
:1059180082F8BA32AA4B93F9BA32002B39D1A94985
:105928004FF000024FF00003C1E90E23A5494FF0E4
:1059380000024FF00003C1E9102397F82731002B2C
:105948005CD09F4B93F9C63287F8233197F82331FF
:1059580087F8863197F82331042B14D801A252F81E
:1059680023F000BF815900088F5900088F5900089B
:10597800895900088F590008022387F8863102E008
:10598800012387F8863197F986318D4A82F8C63225
:1059980034E08C49D7E97A23C1E90E238949D7E94C
:1059A8007623C1E9102397F82731002B26D0844BA2
:1059B80093F9C53287F8243197F8243187F885316F
:1059C80097F82431042B14D801A252F823F000BF11
:1059D800ED590008FB590008FB590008F559000863
:1059E800FB590008022387F8853102E0012387F874
:1059F800853197F98531724A82F8C532714BD3E9FE
:105A08000E01704BD3E90E23FAF776FD02460B46DA
:105A1800C7E976236B4BD3E910016A4BD3E910230E
:105A2800FAF76AFD02460B461046194607F1A80325
:105A3800C3E9000107F1A803D3E90001D7E97623F8
:105A4800FAF7A4FB02460B46104619465D4BC3E91C
:105A580012015C4BD3E9120101231C464FF00002EE
:105A68004FF00003FAF7D8FF0346002B01D10023BB
:105A78001C46E3B2534A82F89A32514B93F8BB3230
:105A880087F8A631504BDB681B78012B04D04E4BAE
:105A980093F8FC30002B06D04B4B93F80C31002BBD
:105AA80001D1012300E0002387F8273197F8273137
:105AB800002B0FD0434B93F89A32002B0CBF0123D5
:105AC8000023DBB287F8A7313D4A97F8A73182F85F
