:020000040800F2
:1000000000000220B9E40008D9C50008E1C50008D5
:10001000E9C50008F1C50008F9C5000800000000A6
:10002000000000000000000000000000019D00082A
:1000300001C6000800000000BD9C0008ED9B000800
:1000400009E5000809E5000809E5000809E50008D8
:1000500009E5000809E5000809E5000809E50008C8
:1000600009E5000809E5000809E5000809E50008B8
:1000700009E5000809E5000809E5000809E50008A8
:10008000B1AD000891AD000809E5000809E50008D8
:1000900009E5000809E5000809E5000809E5000888
:1000A00009E5000811C6000809E5000809E500088F
:1000B00009E5000809E5000809E5000809E5000868
:1000C00009E5000809E5000809E5000809E5000858
:1000D00009E5000809E500087DAD000809E500080C
:1000E00009E5000809E5000809E5000809E5000838
:1000F00009E5000809E5000809E5000809E5000828
:1001000009E5000809E5000809E50008611E000886
:1001100009E5000809E5000809E5000809E5000807
:1001200009E5000809E5000809E5000809E50008F7
:1001300009E50008000000000000000009E50008D3
:1001400009E5000809E5000809E5000809E50008D7
:1001500009E5000809E5000809E5000809E50008C7
:1001600009E5000809E5000809E5000809E50008B7
:1001700009E5000809E50008000000000000000093
:0801800009E5000809E500088B
:1001880081F0004102E000BF83F0004330B54FEA40
:1001980041044FEA430594EA050F08BF90EA020FAD
:1001A8001FBF54EA000C55EA020C7FEA645C7FEA40
:1001B800655C00F0E2804FEA5454D4EB5555B8BF63
:1001C8006D420CDD2C4480EA020281EA030382EAD4
:1001D800000083EA010180EA020281EA0303362D66
:1001E80088BF30BD11F0004F4FEA01314FF4801C39
:1001F8004CEA113102D0404261EB410113F0004F4B
:100208004FEA03334CEA133302D0524263EB430301
:1002180094EA050F00F0A780A4F10104D5F1200E9F
:100228000DDB02FA0EFC22FA05F2801841F10001FA
:1002380003FA0EF2801843FA05F359410EE0A5F1CE
:1002480020050EF1200E012A03FA0EFC28BF4CF0FF
:10025800020C43FA05F3C01851EBE37101F00045B5
:1002680007D54FF0000EDCF1000C7EEB00006EEBC2
:100278000101B1F5801F1BD3B1F5001F0CD349084C
:100288005FEA30004FEA3C0C04F101044FEA4452A3
:1002980012F5800F80F09A80BCF1004F08BF5FEA2A
:1002A800500C50F1000041EB045141EA050130BD0A
:1002B8005FEA4C0C404141EB0101013C28BFB1F51C
:1002C800801FE9D291F0000F04BF01460020B1FA67
:1002D80081F308BF2033A3F10B03B3F120020CDA3A
:1002E8000C3208DD02F1140CC2F10C0201FA0CF018
:1002F80021FA02F10CE002F11402D8BFC2F1200C7D
:1003080001FA02F120FA0CFCDCBF41EA0C01904032
:10031800E41AA2BF01EB0451294330BD6FEA04047B
:100328001F3C1CDA0C340EDC04F11404C4F1200266
:1003380020FA04F001FA02F340EA030021FA04F378
:1003480045EA030130BDC4F10C04C4F1200220FACF
:1003580002F001FA04F340EA0300294630BD21FA0D
:1003680004F0294630BD94F0000F83F4801306BFD3
:1003780081F480110134013D4EE77FEA645C18BFC7
:100388007FEA655C29D094EA050F08BF90EA020F5E
:1003980005D054EA000C04BF1946104630BD91EA56
:1003A800030F1EBF0021002030BD5FEA545C05D159
:1003B8004000494128BF41F0004130BD14F5800498
:1003C8003CBF01F5801130BD01F0004545F0FE410C
:1003D80041F470014FF0000030BD7FEA645C1ABF41
:1003E800194610467FEA655C1CBF0B46024650EA78
:1003F800013406BF52EA033591EA030F41F40021A4
:1004080030BD00BF90F0000F04BF0021704730B529
:100418004FF4806404F132044FF000054FF00001FE
:1004280050E700BF90F0000F04BF0021704730B5BF
:100438004FF4806404F1320410F0004548BF404294
:100448004FF000013EE700BF42004FEAE2014FEAE9
:1004580031014FEA02701FBF12F07F4393F07F4FC4
:1004680081F06051704732F07F4208BF704793F0C7
:100478007F4F04BF41F40021704730B54FF46074DA
:1004880001F0004521F000411CE700BF50EA0102DD
:1004980008BF704730B54FF000050AE050EA010286
:1004A80008BF704730B511F0004502D5404261EBF6
:1004B80041014FF4806404F132045FEA915C3FF437
:1004C800D8AE4FF003025FEADC0C18BF03325FEAD4
:1004D800DC0C18BF033202EBDC02C2F1200300FA85
:1004E80003FC20FA02F001FA03FE40EA0E0021FAAA
:1004F80002F11444BDE600BF70B54FF0FF0C4CF498
:10050800E06C1CEA11541DBF1CEA135594EA0C0F49
:1005180095EA0C0F00F0DEF82C4481EA030621EA84
:100528004C5123EA4C5350EA013518BF52EA0335BF
:1005380041F4801143F4801338D0A0FB02CE4FF071
:100548000005E1FB02E506F00042E0FB03E54FF0A1
:100558000006E1FB03569CF0000F18BF4EF0010E99
:10056800A4F1FF04B6F5007F64F5407404D25FEA95
:100578004E0E6D4146EB060642EAC62141EA555148
:100588004FEAC52040EA5E504FEACE2EB4F1FD0C8A
:1005980088BFBCF5E06F1ED8BEF1004F08BF5FEA08
:1005A800500E50F1000041EB045170BD06F00046BA
:1005B80046EA010140EA020081EA0301B4EB5C0467
:1005C800C2BFD4EB0C0541EA045170BD41F480115F
:1005D8004FF0000E013C00F3AB8014F1360FDEBF84
:1005E800002001F0004170BDC4F10004203C35DA60
:1005F8000C341BDC04F11404C4F1200500FA05F3E3
:1006080020FA04F001FA05F240EA020001F0004283
:1006180021F0004110EBD37021FA04F642EB0601F9
:100628005EEA430E08BF20EAD37070BDC4F10C0423
:10063800C4F1200500FA04F320FA05F001FA04F2E7
:1006480040EA020001F0004110EBD37041F10001D3
:100658005EEA430E08BF20EAD37070BDC4F12005DE
:1006680000FA05F24EEA020E20FA04F301FA05F246
:1006780043EA020321FA04F001F0004121FA04F2EE
:1006880020EA020000EBD3705EEA430E08BF20EABE
:10069800D37070BD94F0000F0FD101F000464000F8
:1006A80041EB010111F4801F08BF013CF7D041EA7A
:1006B800060195F0000F18BF704703F0004652007E
:1006C80043EB030313F4801F08BF013DF7D043EA4F
:1006D8000603704794EA0C0F0CEA135518BF95EA05
:1006E8000C0F0CD050EA410618BF52EA4306D1D18C
:1006F80081EA030101F000414FF0000070BD50EAAB
:10070800410606BF1046194652EA430619D094EA34
:100718000C0F02D150EA013613D195EA0C0F05D11E
:1007280052EA03361CBF104619460AD181EA030172
:1007380001F0004141F0FE4141F470014FF000002A
:1007480070BD41F0FE4141F4780170BD70B54FF0C5
:10075800FF0C4CF4E06C1CEA11541DBF1CEA135545
:1007680094EA0C0F95EA0C0F00F0A7F8A4EB050427
:1007780081EA030E52EA03354FEA013100F088801E
:100788004FEA03334FF0805545EA131343EA1263E7
:100798004FEA022245EA111545EA10654FEA00269C
:1007A8000EF000419D4208BF964244F1FD0404F555
:1007B800407402D25B084FEA3202B61A65EB0305B1
:1007C8005B084FEA32024FF480104FF4002CB6EB6E
:1007D800020E75EB030E22BFB61A754640EA0C00EE
:1007E8005B084FEA3202B6EB020E75EB030E22BF2E
:1007F800B61A754640EA5C005B084FEA3202B6EB6F
:10080800020E75EB030E22BFB61A754640EA9C002D
:100818005B084FEA3202B6EB020E75EB030E22BFFD
:10082800B61A754640EADC0055EA060E18D04FEABB
:10083800051545EA16754FEA06164FEAC30343EA5B
:1008480052734FEAC2025FEA1C1CC0D111F4801F28
:100858000BD141EA00014FF000004FF0004CB6E721
:1008680011F4801F04BF01430020B4F1FD0C88BFC0
:10087800BCF5E06F3FF6AFAEB5EB030C04BFB6EBCB
:10088800020C5FEA500C50F1000041EB045170BDBE
:100898000EF0004E4EEA113114EB5C04C2BFD4EBEB
:1008A8000C0541EA045170BD41F480114FF0000E6F
:1008B800013C90E645EA060E8DE60CEA135594EAEB
:1008C8000C0F08BF95EA0C0F3FF43BAF94EA0C0FEE
:1008D8000AD150EA01347FF434AF95EA0C0F7FF463
:1008E80025AF104619462CE795EA0C0F06D152EAB7
:1008F80003353FF4FDAE1046194622E750EA41069B
:1009080018BF52EA43067FF4C5AE50EA41047FF4AB
:100918000DAF52EA43057FF4EBAE12E74FF0FF3C10
:1009280006E000BF4FF0010C02E000BF4FF0010CE1
:100938004DF804CD4FEA410C7FEA6C5C4FEA430C5A
:1009480018BF7FEA6C5C1BD001B050EA410C0CBFA9
:1009580052EA430C91EA030F02BF90EA020F00200B
:10096800704710F1000F91EA030F58BF994208BF72
:1009780090422CBFD8176FEAE37040F0010070472F
:100988004FEA410C7FEA6C5C02D150EA013C07D186
:100998004FEA430C7FEA6C5CD6D152EA033CD3D0D1
:1009A8005DF8040B704700BF8446104662468C46CB
:1009B8001946634600E000BF01B5FFF7B7FF0028FE
:1009C80048BF10F1000F01BD4DF808EDFFF7F4FF27
:1009D8000CBF012000205DF808FB00BF4DF808EDB2
:1009E800FFF7EAFF34BF012000205DF808FB00BFD5
:1009F8004DF808EDFFF7E0FF94BF012000205DF8F7
:100A080008FB00BF4DF808EDFFF7CEFF94BF0120AB
:100A180000205DF808FB00BF4DF808EDFFF7C4FFA4
:100A280034BF012000205DF808FB00BF4FEA410CED
:100A38007FEA6C5C02D150EA013C0AD14FEA430CD0
:100A48007FEA6C5C02D152EA033C02D14FF000000D
:100A580070474FF0010070474A0011D212F500129A
:100A680011D20DD56FF47873B3EB62520ED44FEAFE
:100A7800C12343F0004343EA505323FA02F070477E
:100A88004FF00000704750EA013002D14FF0FF30BC
:100A980070474FF00000704753B94AB9002908BFA2
:100AA80000281CBF4FF0FF314FF0FF3000F00CB8AA
:100AB800ADF1080C6DE904CE0DF0E0FEDDF804E0C0
:100AC800DDE9022304B07047704700BF844641EA5D
:100AD800000313F003036DD1403A41D351F8043BAE
:100AE80040F8043B51F8043B40F8043B51F8043B00
:100AF80040F8043B51F8043B40F8043B51F8043BF0
:100B080040F8043B51F8043B40F8043B51F8043BDF
:100B180040F8043B51F8043B40F8043B51F8043BCF
:100B280040F8043B51F8043B40F8043B51F8043BBF
:100B380040F8043B51F8043B40F8043B51F8043BAF
:100B480040F8043B51F8043B40F8043B51F8043B9F
:100B580040F8043B51F8043B40F8043B403ABDD20E
:100B6800303211D351F8043B40F8043B51F8043BB0
:100B780040F8043B51F8043B40F8043B51F8043B6F
:100B880040F8043B103AEDD20C3205D351F8043B3F
:100B980040F8043B043AF9D2043208D0D2071CBF0B
:100BA80011F8013B00F8013B01D30B880380604634
:100BB800704700BF082A13D38B078DD010F00303AA
:100BC8008AD0C3F10403D21ADB071CBF11F8013B1A
:100BD80000F8013B80D331F8023B20F8023B7BE769
:100BE800043AD9D3013A11F8013B00F8013BF9D294
:100BF8000B7803704B7843708B788370604670472E
:100C08000348044B834202D0034B03B11847704793
:100C1800BC010020BC010020000000000548064B74
:100C28001B1AD90F01EBA301491002D0034B03B1E2
:100C380018477047BC010020BC01002000000000DC
:100C480010B5064C237843B9FFF7DAFF044B13B10C
:100C58000448AFF300800123237010BDC0010020B9
:100C68000000000010ED000808B5054B1BB1054950
:100C78000548AFF30080BDE80840FFF7CFBF00BFCD
:100C880000000000C401002010ED000880B400AF8F
:100C9800044BDB681B0A03F007031846BD465DF8E2
:100CA800047B704700ED00E080B483B000AF0346DA
:100CB800FB7197F90730002B0BDBFB7903F01F0260
:100CC800074997F907305B09012000FA02F241F859
:100CD800232000BF0C37BD465DF8047B704700BF7A
:100CE80000E100E080B483B000AF03463960FB71D7
:100CF80097F90730002B0ADB3B68DAB20C4997F901
:100D080007301201D2B20B4483F800230AE03B6893
:100D1800DAB20849FB7903F00F03043B1201D2B29F
:100D28000B441A7600BF0C37BD465DF8047B70474C
:100D380000E100E000ED00E080B489B000AFF860A9
:100D4800B9607A60FB6803F00703FB61FB69C3F1D4
:100D58000703042B28BF0423BB61FB690433062B5C
:100D680002D9FB69033B00E000237B614FF0FF32AF
:100D7800BB6902FA03F3DA43BB681A407B699A40FD
:100D88004FF0FF317B6901FA03F3D9437B680B40CD
:100D9800134318462437BD465DF8047B70470000AE
:100DA80080B483B000AF786039600C4A3B68134464
:100DB8001B781A467B6813441B6808493A680A443A
:100DC800127811467A680A4443F00103136000BFA1
:100DD8000C37BD465DF8047B704700BFB0150108AD
:100DE80080B485B000AFF860B9607A600D4ABB681E
:100DF80013441B781A46FB6813445B681B0C1B04DE
:100E08000849BA680A4412781146FA680A44114631
:100E18007A6813434B6000BF1437BD465DF8047B06
:100E2800704700BFB015010880B485B000AFF86006
:100E3800B9607A603B60BB69402B14D1174ABB6824
:100E480013441B781A46FB6813441A467B68D36020
:100E5800124ABB6813441B781A46FB6813441A46A7
:100E68003B68936013E00D4ABB6813441B781A462D
:100E7800FB6813441A467B689360084ABB681344AE
:100E88001B781A46FB6813441A463B68D36000BFB8
:100E98001437BD465DF8047B704700BFB0150108E4
:100EA80080B483B000AF786039600C4A3B68134463
:100EB8001B781A467B6813441B6808493A680A4439
:100EC800127811467A680A4443F01003136000BF91
:100ED8000C37BD465DF8047B704700BFB0150108AC
:100EE80080B483B000AF78607B681B6843F0400231
:100EF8007B681A6000BF0C37BD465DF8047B7047FD
:100F080080B483B000AF78607B681B6823F0400230
:100F18007B681A6000BF0C37BD465DF8047B7047DC
:100F280080B483B000AF78607B681B6803F040032F
:100F3800402B01D1012300E0002318460C37BD46A1
:100F48005DF8047B704780B483B000AF78607B683D
:100F58001B6803F4827318460C37BD465DF8047BA2
:100F6800704780B483B000AF786039607B681B68D5
:100F780023F001023B681A437B681A6000BF0C37F4
:100F8800BD465DF8047B704780B483B000AF7860DD
:100F98007B681B6803F0010318460C37BD465DF8F3
:100FA800047B704780B483B000AF786039607B6899
:100FB8001B6823F002023B681A437B681A6000BF73
:100FC8000C37BD465DF8047B704780B483B000AF32
:100FD80078607B681B6803F0020318460C37BD462F
:100FE8005DF8047B704780B483B000AF78607B689D
:100FF8001B6803F4444318460C37BD465DF8047B70
:10100800704780B483B000AF786039607B681B6834
:1010180023F400623B681A437B681A6000BF0C37F0
:10102800BD465DF8047B704780B483B000AF78603C
:101038007B681B6803F4006318460C37BD465DF8EF
:10104800047B704780B483B000AF78607B689B688E
:1010580003F00103012B01D1012300E0002318460E
:101068000C37BD465DF8047B704780B483B000AF91
:1010780078607B689B6803F00203022B01D101238F
:1010880000E0002318460C37BD465DF8047B704726
:1010980080B483B000AF78607B689B6803F08003FE
:1010A800802B01D1012300E0002318460C37BD46F0
:1010B8005DF8047B704780B483B000AF78607B68CC
:1010C8005B6843F040027B685A6000BF0C37BD463E
:1010D8005DF8047B704780B483B000AF78607B68AC
:1010E8005B6843F080027B685A6000BF0C37BD46DE
:1010F8005DF8047B704780B483B000AF78607B688C
:101108005B6823F080027B685A6000BF0C37BD46DD
:101118005DF8047B704780B483B000AF78607B686B
:101128005B6803F08003802B01D1012300E00023DA
:1011380018460C37BD465DF8047B704780B483B011
:1011480000AF78607B685B6843F001027B685A6097
:1011580000BF0C37BD465DF8047B704780B483B090
:1011680000AF78607B685B6843F002027B685A6076
:1011780000BF0C37BD465DF8047B704780B483B070
:1011880000AF78607B680C3318460C37BD465DF8B5
:10119800047B704780B483B000AF78607B680C3301
:1011A8001B78DBB218460C37BD465DF8047B7047E8
:1011B80080B483B000AF78607B68DB689BB2184668
:1011C8000C37BD465DF8047B704780B485B000AF2E
:1011D80078600B46FB707B680C33FB60FB68FA7821
:1011E8001A7000BF1437BD465DF8047B704780B4A1
:1011F80085B000AF78600B467B807B680C33FB6062
:10120800FB687A881A8000BF1437BD465DF8047BF6
:101218007047000080B584B000AF78603960002363
:10122800FB600023BB607B68002B0BD03B68002B66
:1012380008D07B68BB60BB681B686D4A934201D1CC
:101248006C4BFB60FB68002B00F0CC80BB681A6815
:10125800FB681A60FB6893F84620BB6893F8463031
:101268001343DAB2FB6883F84620FB6893F84420FE
:10127800BB6893F844301343DAB2FB6883F8442020
:10128800FB6893F84520BB6893F845301343DAB2FE
:10129800FB6883F84520FB683A68DA61BB6893F815
:1012A800463003F00103002B32D0BB689A6AFB6812
:1012B8009A62BB681A6AFB681A62FB6800225A6362
:1012C800FB6800221A63FB68002283F84020FB6851
:1012D80093F8443003F00403002B05D0FB681B6827
:1012E8001846FFF7E8FE13E0FB6893F8443003F074
:1012F8001003002B0CD0BB685A68FB685A60BB68A7
:1013080093F85420FB6883F85420F86800F082FAB8
:10131800BB6893F8463003F00203002B28D0BB6863
:10132800DA6AFB68DA62BB685A6AFB685A62FB6869
:1013380000229A63FB680022DA63FB6800229A6144
:10134800FB68002283F85620FB6893F8453003F0C9
:101358002003002B0CD0BB689A68FB689A60BB68B6
:1013680093F85520FB6883F85520F86800F093FA45
:101378003B68FA681A60FB681B681846FFF733FE7B
:101388000346B3F5004F0ED1FB681B681846FFF7FC
:10139800DAFD0346B3F5827F05D1FB681B68184662
:1013A800FFF7AEFD04E0FB681B681846FFF798FDE1
:1013B800BB681B681A460E4B9A4210D1FFF766FCB1
:1013C8000346002200211846FFF7B6FC03461946DB
:1013D8003320FFF787FC3320FFF766FC02E0002389
:1013E8003B6000BF3B6818461037BD4680BD00BF54
:1013F800003C0040DC01002080B586B000AFF860FA
:101408007A601A460B467B8113467B7200237B6108
:10141800FB68002B06D0FB681B68002B02D0FB681A
:101428001B687B617B689BB21B0A7B827B897A691C
:10143800134493F84E30002B0CD07B69B3F84C2042
:101448007B7A9BB29A4205D17B695B697A689A423A
:1014580000F0C8807B7A9AB27B69A3F84C207B693C
:101468007A685A617B691B68184600F040FA7B6904
:10147800B3F84C30002B1CD17B691B681846FFF76A
:1014880083FD0346002B05D07B691B6800211846A5
:10149800FFF767FD7B691B681846FFF796FD034653
:1014A800022B66D07B691B6802211846FFF77AFD7C
:1014B8005FE07B69B3F84C30012B1CD17B691B685A
:1014C8001846FFF761FD0346012B05D07B691B68B1
:1014D80001211846FFF745FD7B691B681846FFF791
:1014E80074FD0346022B44D07B691B680221184611
:1014F800FFF758FD3DE07B69B3F84C30022B1CD157
:101508007B691B681846FFF73FFD0346002B05D093
:101518007B691B6800211846FFF723FD7B691B6860
:101528001846FFF752FD0346002B22D07B691B6843
:1015380000211846FFF736FD1BE07B691B6818463B
:10154800FFF722FD0346012B05D07B691B680121AB
:101558001846FFF706FD7B691B681846FFF735FD3F
:101568000346002B05D07B691B6800211846FFF74E
:1015780019FD7B691B681846FFF756FD02467B6814
:1015880093420CD07B691A687B8A082B01D8002308
:1015980001E04FF4006319461046FFF732FD7B69FE
:1015A8001B681846FFF71FFD0346B3F5004F0ED121
:1015B8007B691B681846FFF7C6FC0346B3F5827FB4
:1015C80005D17B691B68184600F091F904E07B6936
:1015D8001B681846FFF784FC7B897A69134401224B
:1015E80083F84E20002318461837BD4680BD90B5B5
:1015F8008DB000AFF860B9607A607B8000237B858E
:1016080000233B620CF0A4F8386201233B850023D9
:101618007B62FB68002B06D0FB681B68002B02D09E
:10162800FB681B687B62B7F84430002B01D10023AC
:10163800BB647B6A1B681846FFF772FC0346002BE5
:1016480004D17B6A1B681846FFF74AFC7B88DBB22B
:10165800002B6AD17B687B61BB683B610023FB85FB
:101668000023BB8558E07B6A1B681846FFF7FDFC22
:101678000346012B15D13B8D012B12D1FB8D3A6C02
:101688009A420ED97B6A1868FB8D3A6913441B7815
:101698001946FFF79AFDFB8D0133FB8500233B8537
:1016A8000DE00121386A08F017FA0246BB6C934234
:1016B80005D2786A00F063F903467B85A5E07B6A6A
:1016C8001B681846FFF7BEFC0346012B16D1BB8DDD
:1016D8003A6C9A4212D93B8D002B0FD17B6A19685C
:1016E800BB8D7A69D4180846FFF754FD034623706A
:1016F800BB8D0133BB8501233B850DE00121386A91
:1017080008F0EAF90246BB6C934205D2786A00F009
:1017180036F903467B8578E0FB8D3A6C9A42A2D86D
:10172800BB8D3A6C9A429ED86FE07B88DBB2012B66
:101738006BD17B68FB61BB68BB610023FB85002321
:10174800BB855AE07B6A1B681846FFF78EFC034688
:10175800012B16D13B8D012B13D1FB8D3A6C9A428C
:101768000FD97B6A1868FB8D5B00BA6913441B8824
:101778001946FFF73CFDFB8D0133FB8500233B85B4
:101788000DE00121386A08F0A7F90246BB6C9342C4
:1017980005D2786A00F0F3F803467B8535E07B6A6A
:1017A8001B681846FFF74EFC0346012B17D1BB8D6B
:1017B8003A6C9A4213D93B8D002B10D17B6A196879
:1017C800BB8D5B00FA69D4180846FFF7F1FC0346A5
:1017D8002380BB8D0133BB8501233B850DE00121AF
:1017E800386A08F079F90246BB6C934205D2786AE8
:1017F80000F0C5F803467B8507E0FB8D3A6C9A42FA
:10180800A0D8BB8D3A6C9A429CD87B8D1846343749
:10181800BD4690BDB0B584B002AF78607B685C68A7
:101828007B6893F854301D467B681B681846FFF7A1
:10183800A5FC02467B681B6A1946002300930B46E9
:1018480029462046FFF7F0FA7B6858687B6893F8CA
:10185800543019467B68DB691B691A46FFF7C0FAE2
:101868007B685A687B6893F8543019461046FFF72E
:1018780017FB7B681B681846FFF760FC7B685A6893
:101888007B6893F8543019461046FFF789FA00BF71
:101898000837BD46B0BDF0B585B002AF78607B684B
:1018A8009C687B6893F855301D467B685B6A1E46CA
:1018B8007B681B681846FFF761FC034640220092CC
:1018C800324629462046FFF7AFFA7B689A687B685C
:1018D80093F8553019461046FFF7E2FA7B681B6803
:1018E8001846FFF73BFC00BF0C37BD46F0BD80B57E
:1018F80082B000AF78607868FFF712FB0346002BD0
:101908002CD07868FFF76FFB0346002B0AD100BF85
:101918007868FFF7BDFB0346002BF9D17868FFF71D
:10192800EFFA1BE07868FFF75EFB0346B3F5806FBC
:1019380006D07868FFF757FB0346B3F5004F03D18D
:101948007868FFF7DDFA09E000BF7868FFF7A0FBC9
:101958000346002BF9D17868FFF7D2FA00BF0837A1
:10196800BD4680BD80B485B000AFF860B9607A60CC
:101978003B6000BF1437BD465DF8047B704780B5F7
:1019880082B000AF78607B681B681846FFF7DBFA07
:101998000346B3F5827F08D100BF7B681B681846F1
:1019A800FFF776FB0346002BF7D1012318460837CB
:1019B800BD4680BD80B485B000AF786039607B6873
:1019C8009B6B3A681344FB607B689A6B7B68DB6BA4
:1019D8009A4204D27B68DB6BFA689A4212D27B681F
:1019E8009A6B7B68DB6B9A420ED37B68DB6AFA687A
:1019F8009A4209D37B68DB6AFA68D21A7B68DB6B88
:101A08009A4201D3012300E00023DBB218461437C1
:101A1800BD465DF8047B704780B588B000AFF860BC
:101A2800B9607A603B607968F868FFF7C3FF0346DE
:101A3800002B21D03B68002B1CD00BF089FEB8612D
:101A480000BF7968F868FFF7B5FF0346002B07D099
:101A58000121B86908F040F802463B689342F0D289
:101A68000121B86908F038F802463B68934203D26E
:101A78000123EEE00123ECE000237B610023FB77E8
:101A8800FB68DB691B7B022B02D10423FB770EE08A
:101A9800FB68DB691B7B012B02D10223FB7706E085
:101AA800FB68DB691B7B002B01D10123FB77FB68FB
:101AB8009A6BFB7F796801FB03F31A44FB68DB6AC6
:101AC8009A427CD9FB68DA6AFB689B6BD31A7B6104
:101AD800FB68DB691B7B022B15D1FB685A6AFB6824
:101AE8009B6BD0187B699B001A46B968FEF7EEFF1E
:101AF800FB689A6B7B685B001A44FB68DB6AD21A46
:101B0800FB689A632DE0FB68DB691B7B012B15D111
:101B1800FB685A6AFB689B6BD0187B695B001A46A6
:101B2800B968FEF7D3FFFB689A6B7B685B001A44C1
:101B3800FB68DB6AD21AFB689A6312E0FB685A6A90
:101B4800FB689B6B13447A69B9681846FEF7BEFFB9
:101B5800FB689A6B7B681A44FB68DB6AD21AFB68DD
:101B68009A63FB68DB691B7B022B0BD1FB68586A05
:101B78007B699B00BA68D118FB689B6B9B001A466F
:101B8800FEF7A4FFFB68DB691B7B012B0CD1FB680C
:101B9800586A7B695B00BA68D118FB689B6B5B006D
:101BA8001A46FEF793FF4AE0FB68586A7B69BA68F1
:101BB800D118FB689B6B1A46FEF788FF3FE0FB686D
:101BC800DB691B7B022B12D1FB685A6AFB689B6B93
:101BD800D0187B689B001A46B968FEF777FFFB6848
:101BE8009A6B7B689B001A44FB689A6327E0FB6842
:101BF800DB691B7B012B12D1FB685A6AFB689B6B64
:101C0800D0187B685B001A46B968FEF75FFFFB686F
:101C18009A6B7B685B001A44FB689A630FE0FB6869
:101C28005A6AFB689B6B13447A68B9681846FEF7D2
:101C38004DFFFB689A6B7B681A44FB689A63FB68E4
:101C48009A6BFB68DB6A9A4202D1FB6800229A63AE
:101C5800002318462037BD4680BD80B586B000AF4A
:101C6800F860B9607A603B6000237B61FB68002BF9
:101C78000CD0FB681B68002B08D0FB681B687B61D5
:101C8800FB687A681A617B69FA68DA617B69B3F87C
:101C98004A3003F04003002B01D0402361E07B6809
:101CA800002B5DD07B6900221A617B69B3F84A304A
:101CB80043F040039AB27B69A3F84A203B687A68EC
:101CC800B9687869FFF7A8FE0346012B0AD17B693A
:101CD800B3F84A3023F040039AB27B69A3F84A204C
:101CE80080233EE07B699B69002B1FD116E07B694E
:101CF800DA6B7B699B6B9A4207D07B6901229A61F8
:101D08007B691B681846FFF7E6F97B69DA6B7B6924
:101D1800DB6A9A4202D37B690022DA637B691B691A
:101D28007A689A42E3D87B6900229A617B699B6949
:101D3800002B0CD17B691B681846FFF7ECF90346AA
:101D4800002B04D07B691B681846FFF7D4F97B6920
:101D5800B3F84A3023F040039AB27B69A3F84A20CB
:101D6800002318461837BD4680BD80B584B000AF43
:101D780078607B681B681846FFF777F90346BB73E2
:101D88000023FB73BB7B012B60D17B68DA6B7B681C
:101D98009B6B9A4252D07B68DB691B7B012B0ED16F
:101DA8007B6818687B685A6A7B68DB6B5B00134446
:101DB8001B881946FFF71BFA0223FB730CE07B68AC
:101DC80018687B685A6A7B68DB6B13441B78194672
:101DD800FFF7FBF90123FB737B681B695A1C7B68BF
:101DE8001A617B68DA6BFB7B1A447B68DB6A9A4270
:101DF80003D17B680022DA6328E07B68DB691B7B00
:101E0800022B05D17B68DB6B1A1D7B68DA631DE04A
:101E18007B68DB691B7B012B05D17B68DB6B9A1C1C
:101E28007B68DA6312E07B68DB691B7B002B0DD1D2
:101E38007B68DB6B5A1C7B68DA6307E07B681B688E
:101E48001846FFF758F97B6800229A61BB7B184651
:101E58001037BD4680BD000080B500AF0248FFF7CF
:101E680084FF00BF80BD00BFDC01002080B485B0C6
:101E780000AF786039600023FB7397F90F3018467C
:101E88001437BD465DF8047B7047000080B584B008
:101E980000AF786039600023FB727B68002B05D1A6
:101EA800374801F0DDFC4FF0FF3365E03B68002B5D
:101EB80005D1344801F0D4FC4FF0FF335CE0324BDD
:101EC800D3E900014FF000024FF04043FEF77CFDDC
:101ED8000346002B06D03B68D3E900232A49C1E911
:101EE800002305E0284BD3E900233968C1E9002322
:101EF800254BD3E900014FF00002244BFEF764FDA7
:101F08000346002B02D0224801F0AAFC7B685B68DC
:101F18001B68204A13607B685B685B681E4A136015
:101F28007B685B689B681D4A13607B685B68DB683D
:101F38001B4A13601B4B00221A6002F04FF9002362
:101F4800FB600023FB6007E0174AFB68174942F86B
:101F58002310FB680133FB60FB68012BF4D901F007
:101F68007DFD0346FB7297F90B30002B02D1104B15
:101F780001221A7097F90B3018461037BD4680BDFC
:101F880028ED00084CED0008000000200000F0BF1C
:101F980078ED00080C0B0020100B0020140B00201B
:101FA800180B00201C0B0020340200204D420008B2
:101FB800090B002080B586B000AF78600023FB7560
:101FC80000233B610023FB732A4B1B78DBB2002BF9
:101FD8000CBF01230023DBB2BB73274B02221A700C
:101FE8007B68002B0BD1234B1B78DBB2002B06D16F
:101FF800224B1B78DBB2002B01D1012300E0002328
:10200800FB7316E00A2007F027FD3B6903F51C5314
:1020180010333B617B68B3F1FF3F05D03A697B68B9
:102028009A4201D9012300E00023FB73002001F04C
:102038006DFD104B1B78DBB2002B07D10F4B1B78C3
:10204800DBB2002B02D1FB7B002BDBD00A4B032237
:102058001A70FB7B002B01D09C23FB75BB7B002BEC
:1020680001D002F0E9F997F9173018461837BD463C
:1020780080BD00BF070B0020090B0020080B0020C3
:1020880080B588B000AF034687ED000BFB810023C5
:10209800FB770123BB774FF000024FF00003D7E92D
:1020A8000001FEF79BFC0346002B05D02F4801F0EA
:1020B800D7FB4FF0FF3355E0FB89FF2B08D9FB898D
:1020C800FF2219462A4801F0CBFB4FF0FF3349E0C5
:1020D800284B1B78DBB2032B04D0264B1B78DBB2D2
:1020E800012B02D1234B04221A70FB89012B15D82E
:1020F800FB89214A52F82330002B0FD002F05EFDF5
:1021080003467B777B7F022B08D1FB891A4A52F85A
:102118002330FA89104698470346BB77FB897B83AF
:10212800FB89184697ED000B01F056FC7861BB7FE0
:10213800002B07D07B8B7969184602F01BFD0346FC
:10214800FB7703E07B8B184602F073FD97F91F308D
:10215800002B05D097F91F301946084801F080FB7D
:1021680097F91F3018462037BD4680BDE4ED0008BA
:1021780028EE0008090B00203402002068EE000851
:1021880080B582B000AF0023FB71002001F0BEFCD7
:102198000346FB7197F9073018460837BD4680BDDE
:1021A80080B582B000AF0023FB710B4B06221A707A
:1021B80001F04AFD0346FB710822002107480CF094
:1021C800BBFC02F0BFF8044B00221A7097F90730E5
:1021D80018460837BD4680BD090B00203402002090
:1021E80080B400AF034B1B78DBB21846BD465DF8E0
:1021F800047B7047080B002080B400AF034B1B78AA
:10220800DBB21846BD465DF8047B7047200B002002
:1022180080B483B000AF786039607B683A689A61AF
:1022280000BF0C37BD465DF8047B704780B483B0AF
:1022380000AF786039603B681A047B689A6100BF18
:102248000C37BD465DF8047B7047000080B400AFD2
:10225800084BDA8F013292B2DA87064BDB8FB3F57F
:102268007A7F02D3034B0022DA8700BFBD465DF8B0
:10227800047B7047200A002080B483B000AF7860E8
:102288007B684FF0FF321A6000BF0C37BD465DF81F
:10229800047B704780B483B000AF78607B684FF0F0
:1022A800FF321A6000BF0C37BD465DF8047B7047EB
:1022B80080B485B000AF0346B9607A60FB817B6863
:1022C8004FF0FF321A60FB89DB039AB2BB681A80B1
:1022D80000BF1437BD465DF8047B704780B483B0F7
:1022E80000AF78607B684FF0FF321A6000BF0C3790
:1022F800BD465DF8047B704780B483B000AF78605A
:102308007B684FF0FF321A6000BF0C37BD465DF89E
:10231800047B704780B485B000AF0346B9607A602B
:10232800FB817B684FF0FF321A60FB89DB029AB2AF
:10233800BB681A8000BF1437BD465DF8047B704740
:1023480080B59AB000AF78607B682833FB620023C1
:10235800BB62244BBB60022387F84E3000233B63EB
:1023680080237B63012387F84C30082387F84D309E
:102378000023FB60002387F85C3000233B610023C7
:1023880087F85D307B6800221A617B68164A5A61BB
:10239800012387F867307B680E229A617B680122E7
:1023A80083F824207B6897F867201A777B680122D6
:1023B8001A627B6810333B6607F10803396E1846CA
:1023C800FEF728FF02467B68DA607B68D86803233B
:1023D8004FF470620221FFF70FF800BF6837BD465F
:1023E80080BD00BF003C00400008024080B582B0BC
:1023F80000AF78607B6800221A707B68012283F83E
:1024080028217B6800221A727B6801225A607B6847
:102418001846FFF795FF7B6801221A7200BF08373C
:10242800BD4680BD80B584B000AF03463960FB80EF
:10243800FB88FB814FF480410748FFF7F7FE3B68B4
:10244800D86807F10E010A230122FFF706FC00BF36
:102458001037BD4680BD00BF0008024080B586B079
:1024680002AF78607B681B78002B16D17B6801224D
:102478001A707B685B68012B0FD17B681B7A002B75
:102488000BD04FF0FF33FB607B68D8680E230093B6
:10249800FB68FA68F968FFF765FA00BF1037BD46B0
:1024A80080BD000080B59AB000AF78607B682833A3
:1024B800FB620023BB62244BBB60022387F84E30CB
:1024C80000233B6380237B63012387F84C30082378
:1024D80087F84D300023FB60002387F85C30002329
:1024E8003B61002387F85D307B6800221A617B68B6
:1024F800164A5A61012387F867307B680E229A6171
:102508007B68012283F824207B6897F867201A7774
:102518007B6801221A627B6810333B6607F1080367
:10252800396E1846FEF776FE02467B68DA607B68ED
:10253800D86803234FF470620221FEF75DFF00BFE5
:102548006837BD4680BD00BF003C0040000802401F
:1025580080B582B000AF78607B6800221A707B6813
:10256800012283F828217B6800221A727B680122E5
:102578005A607B681846FFF795FF7B6801221A723C
:1025880000BF0837BD4680BD80B586B000AF0346A2
:10259800B9607A60FB81FB89FB824FF4804109486E
:1025A800FFF744FE7B68D86807F116010A23012269
:1025B800FFF753FB03461A46BB681A8000BF18375B
:1025C800BD4680BD0008024080B586B002AF786085
:1025D8007B681B78002B16D17B6801221A707B68F8
:1025E8005B68012B0FD17B681B7A002B0BD04FF057
:1025F800FF33FB607B68D8680E230093FB68FA689A
:10260800F968FFF7AFF900BF1037BD4680BD00007D
:1026180080B59AB000AF78607B682833FB620023EE
:10262800BB62244BBB60022387F84E3000233B6318
:1026380080237B63012387F84C30082387F84D30CB
:102648000023FB60002387F85C3000233B610023F4
:1026580087F85D307B6800221A617B68164A5A61E8
:10266800012387F867307B680E229A617B68012214
:1026780083F824207B6897F867201A777B68012203
:102688001A627B6810333B6607F10803396E1846F7
:10269800FEF7C0FD02467B68DA607B68D8680223D3
:1026A8004FF470620221FEF7A7FE00BF6837BD46EF
:1026B80080BD00BF003C00400008024080B59AB0D1
:1026C80000AF78607B682833FB620023BB62244B31
:1026D800BB60022387F84E3000233B6380237B6373
:1026E800012387F84C30082387F84D300023FB601E
:1026F800002387F85C3000233B61002387F85D30B6
:102708007B6800221A617B68164A5A61012387F8A0
:1027180067307B680E229A617B68012283F8242047
:102728007B6897F867201A777B6801221A627B68B2
:1027380010333B6607F10803396E1846FEF76AFD49
:1027480002467B68DA607B68D86803234FF47062BE
:102758000221FEF751FE00BF6837BD4680BD00BFAD
:10276800003C00400008024090B59BB004AFB84B55
:1027780093F99F3287F84730002387F8533097F84A
:102788004730042B1FD801A252F823F0A9270008CC
:10279800B1270008B9270008C1270008C927000881
:1027A800002387F853300EE0032387F853300AE0FC
:1027B800032387F8533006E0002387F8533002E0FC
:1027C800002387F8533097F95320A14B83F89F22B1
:1027D8009F4B93F99E3287F84630002387F8523092
:1027E80097F84630042B20D801A252F823F000BFF6
:1027F8000D280008152800081D28000825280008AD
:102808002D280008002387F852300EE0032387F8AC
:1028180052300AE0032387F8523006E0002387F895
:10282800523002E0002387F8523097F95220884B43
:1028380083F89E22864B93F99D3287F84530002312
:1028480087F8513097F84530042B20D801A252F868
:1028580023F000BF712800087928000881280008A3
:102868008928000891280008002387F851300EE0D5
:10287800032387F851300AE0032387F8513006E034
:10288800002387F8513002E0002387F8513097F988
:1028980051206F4B83F89D226D4B93F99C3287F83A
:1028A8004430002387F8503097F84430042B20D860
:1028B80001A252F823F000BFD5280008DD2800083F
:1028C800E5280008ED280008F5280008002387F807
:1028D80050300EE0032387F850300AE0032387F8CE
:1028E800503006E0002387F8503002E0002387F8D4
:1028F800503097F95020564B83F89C22544B93F94B
:102908009B3287F84330002387F84F3097F84330DD
:10291800042B20D801A252F823F000BF392900085F
:1029280041290008492900085129000859290008A7
:10293800002387F84F300EE0032387F84F300AE072
:10294800032387F84F3006E0002387F84F3002E072
:10295800002387F84F3097F94F203D4B83F89B228F
:102968003B4B93F99A3287F84230002387F84E3070
:1029780097F84230042B20D801A252F823F000BF68
:102988009D290008A5290008AD290008B5290008D7
:10299800BD290008002387F84E300EE0032387F88E
:1029A8004E300AE0032387F84E3006E0002387F80C
:1029B8004E3002E0002387F84E3097F94E20244B22
:1029C80083F89A22234BDB8F002B40F09084204B16
:1029D80093F8A132062B07D81D4B93F8A132013387
:1029E800DAB21B4B83F8A122194B93F8A032002BC3
:1029F80019D1174B012283F8A022154B002283F826
:102A0800A122134B0222C3F88C2211494FF0000275
:102A1800114BC1E9982311494FF000024FF0000310
:102A2800C1E9002312E10A4BD3F88C32013B042B95
:102A380000F2DA8001A252F823F000BF692A0008E8
:102A4800BB2A0008FF2A0008432B0008A12B000816
:102A580088020020200A00200000F03F40020020E9
:102A680087494FF00002874BC1E90023864B93F852
:102A7800A132042B40F2E180834B002283F8A1228B
:102A8800814B0622C3F88C227D494FF000027D4B12
:102A9800C1E904237A494FF000024FF00003C1E96D
:102AA800082377494FF000024FF00003C1E90623DD
:102AB800C3E073494FF000024FF00003C1E900235F
:102AC800714BD3E998014FF000026E4BFDF77CFF84
:102AD8000346002B00D1B9E06B4B002283F8A122FA
:102AE800694B0122C3F88C2265494FF00002654BFF
:102AF800C1E90023AAE062494FF00002614BC1E935
:102B08000623614B93F8A132022B40F298805E4B6A
:102B1800002283F8A1225C4B0522C3F88C22584975
:102B28004FF00002574BC1E9022355494FF000020C
:102B38004FF00003C1E9062381E051494FF000023C
:102B48004FF00003C1E902234D494FF000024D4BFD
:102B5800C1E908234C4B93F8A132022B71D94A4B97
:102B6800002283F8A122484B0622C3F88C2244494C
:102B78004FF00002434BC1E9042341494FF00002E2
:102B88004FF00003C1E908233D494FF000024FF020
:102B98000003C1E9062354E039494FF00002394BDC
:102BA800C1E9022336494FF000024FF00003C1E9A2
:102BB8000623354B93F8A132022B44D9324B00221D
:102BC80083F8A122304B0422C3F88C222C494FF001
:102BD80000024FF00003C1E9022329494FF0000227
:102BE800284BC1E908232EE025494FF000024FF099
:102BF8000003C1E9082322494FF000024FF0000307
:102C0800C1E90623204B93F8A132042B1DD91C4996
:102C18004FF000024FF00003C1E904231A4B0022D1
:102C280083F8A122184B0322C3F88C2214494FF0D1
:102C38000002144BC1E9062307E000BF06E000BF0D
:102C480004E000BF02E000BF00E000BF0C4BD3E986
:102C580000014FF000024FF00003FDF7B5FE0346F8
:102C6800002B13D1064BD3E902014FF000024FF0BD
:102C78000003FDF7A9FE0346002B07D1012306E058
:102C8800400200200000F03F880200200023DAB252
:102C9800B54B83F83A20B44B93F83A30002B52D016
:102CA800B24B93F8A532002B09D1B148FFF7F2FADD
:102CB800B048FFF721FBAD4B012283F8A522BB1DCD
:102CC800AB4A19460020FFF7F3FA3B1DA94A1946FB
:102CD8000320FFF71FFBFA88BB8813439AB2A64B61
:102CE800DB8813439AB2A04B1A879F4B1B8FA349CB
:102CF8001846FFF797FB9D4B93F99F3287F84130B1
:102D080097F8413087F84D3097F84130042B14D8A4
:102D180001A252F823F000BF352D0008432D00080A
:102D2800432D00083D2D0008432D0008022387F895
:102D38004D3002E0012387F84D3097F94D208B4B39
:102D480083F89F2203E0894B002283F8A522864B53
:102D5800D3E900014FF000024FF00003FDF734FE05
:102D68000346002B0DD1804BD3E904014FF000023C
:102D78004FF00003FDF728FE0346002B01D1012385
:102D880000E00023DAB2784B83F83B20764B93F8C7
:102D98003B30002B5BD0754B93F8A432002B0DD140
:102DA800724B0022A3F894227548FFF773FA75480E
:102DB800FFF7A2FA6D4B012283F8A4226B4BB3F8FC
:102DC800943271491846FFF72DFBBB1D6C4A194612
:102DD8000020FFF76DFA3B1D6A4A19460220FFF7EB
:102DE80099FAFA88BB8813439AB2634B9B881343BA
:102DF8009AB25D4BDA865C4BDA8E5C4BA3F8942270
:102E08005A4B93F99E3287F8403097F8403087F84C
:102E18004C3097F84030042B13D801A252F823F015
:102E28003D2E00084B2E00084B2E0008452E0008AA
:102E38004B2E0008022387F84C3002E0012387F864
:102E48004C3097F94C20494B83F89E2203E0474BBE
:102E5800002283F8A422444BD3E906014FF0000274
:102E68004FF00003FDF7D8FD0346002B00F0018169
:102E78003E4B93F8A332002B15D13C4B002283F82C
:102E880098223A4B002283F89922384B0022A3F863
:102E980092223E48FFF7FEF93D48FFF72DFA334BE3
:102EA800012283F8A322314B93F89832002B0CBFF0
:102EB80001230023DBB21A462B4B83F83D202A4B13
:102EC80093F83D30002B6FD002233B814FF6FF7300
:102ED8007B81264BD3F8340102234FF47062022120
:102EE800FEF78AFA0346FB80FB88002B1BD1294B8F
:102EF800FB634FF48041F86BFFF798F91B4BD3F84D
:102F0800340107F10C0207F108016423029301233D
:102F18000193022300930123FEF769FB4FF48041DC
:102F2800F86BFFF775F9FA890F4B9A860F4B93F9EF
:102F38009D3287F83B3097F83B3087F84B3097F84D
:102F48003B30042B2BD801A252F823F0692F00083C
:102F5800A72F0008A72F0008A12F0008A72F0008F7
:102F6800022387F84B301AE0400200208802002034
:102F7800180A0020100A0020C0150108E4080020E3
:102F8800DC080020D4080020A8070020A0070020A3
:102F98009807002000080240012387F84B3097F972
:102FA8004B20B94B83F89D22B84B9A8EB74BDA85E4
:102FB800B54BB3F89222B54B1A86B44B1B8EB44A64
:102FC800B4491846FFF7E0FABB1DB34A1946012079
:102FD800FFF76EF93B1DB14A19460220FFF79AF92F
:102FE800FA88BB8813439AB2AD4B5B8813439AB2F5
:102FF800A64B5A86A44B93F89922A34B83F89822A0
:10300800A24BB3F84030002B0CBF01230023DBB2E6
:103018001A469D4B83F899229C4B5A8E9A4BA3F8DB
:103028009222994B93F99C3287F83A3097F83A30C4
:1030380087F84A3097F83A30042B14D801A252F88E
:1030480023F000BF613000086F3000086F300008BF
:10305800693000086F300008022387F84A3002E020
:10306800012387F84A3097F94A20874B83F89C2236
:1030780003E0854B002283F8A322844BD3E908019F
:103088004FF000024FF00003FDF7C6FC0346002B8B
:1030980000F0E1807C4B93F8A232002B15D17A4BDB
:1030A800002283F89622784B002283F89722764BE9
:1030B8000022A3F890227B48FFF7ECF87A48FFF744
:1030C8001BF9714B012283F8A2226F4B93F89632B9
:1030D800002B0CBF01230023DBB21A466B4B83F88D
:1030E8003C206A4B93F83C30002B55D002233B819F
:1030F8004FF6FF737B81644BD86803234FF47062EB
:103108000221FEF779F90346FB80FB88002B1AD1D0
:10311800664BFB634FF48041F86BFFF787F85A4B17
:10312800D86807F10C0207F1080164230293012310
:103138000193022300930123FEF759FA4FF48041CB
:10314800F86BFFF765F8FA89504B9A854E4B93F95F
:103158009B3287F8393097F8393087F8493097F833
:103168003930042B13D801A252F823F08931000812
:10317800973100089731000891310008973100080D
:10318800022387F8493002E0012387F8493097F98C
:1031980049203D4B83F89B223C4B9A8D3B4B1A852B
:1031A800394BB3F89022394B5A85384B5B8D404ADE
:1031B80040491846FFF7E8F9BB1D3A4A194601206D
:1031C800FFF776F83B1D384A19460320FFF7A2F8A7
:1031D800FA88BB8813439AB2314B1B8813439AB2BF
:1031E800294BA3F89022284B93F89722264B83F873
:1031F8009622264BDB8F002B0CBF01230023DBB26A
:103208001A46214B83F897221F4B93F99A3287F875
:10321800383097F8383087F8483097F83830042B2A
:1032280013D801A252F823F045320008533200089F
:10323800533200084D32000853320008022387F841
:10324800483002E0012387F8483097F948200E4BB0
:1032580083F89A2203E00C4B002283F8A222164B33
:10326800FB6300237B63094BD3E900014FF00002A5
:103278004FF00003FDF7A8FB0346002B1ED14FF4C7
:1032880080537B651CE000BF8802002040020020BC
:103298006C06002080020020A0070020980700206C
:1032A800C0150108640600205C06002000080240E2
:1032B800300500207E0200200004024000237B65C8
:1032C8007A6D7B6B02FA03F37B654FF480527B6B5C
:1032D80002FA03F33B63796DF86BFEF799FF7B6D98
:1032E800DA433B6B13401946F86BFEF79FFF002348
:1032F80087F82F30214BD3E90823C7E9082397ED36
:10330800080B0020FEF7BCFE034687F82F301B4B46
:10331800DB8F002B11D10023FB77184B9B6B1846D2
:10332800FDF770F802460B46C7E9042397ED040B36
:103338000120FEF7A5FE0346FB77104B9A6A01327F
:103348009A629B6A1846FDF75DF80C4BD3E90C238B
:103358000A4CFDF7D1F802460B46C4E90823074B8F
:10336800DB8F002B03D1054B9A6B01329A63FEF772
:103378006DFF00BF5C37BD4690BD00BF200A00202E
:1033880080B500AF70494FF00002704BC1E91023BF
:103398006D496BA3D3E90023C1E90C236A4B6C4A3E
:1033A8009A60694B6B4ADA60674B6B4A1A61664BE5
:1033B8006A4A5A61644B6A4A5A60694B694A1A6098
:1033C800684B694A1A60674B674A5A60654B674A97
:1033D8009A60644B654ADA60624B644A1A61614BD1
:1033E800624A5A615F4B614A9A615E4B5F4ADA6191
:1033F8005C4B5F4A1A625B4B5D4A5A62594B5C4AA6
:103408009A62584B5A4ADA62564B594A1A63554BD4
:10341800574A5A63534B544A9A63524B554ADA6394
:10342800504B544A1A644F4B524A5A644D4B514AB6
:103438009A644C4B4F4ADA644A4B4F4A1A65494BD7
:103448004D4A5A65474B4B4A9A65464B4B4ADA6593
:10345800444B4A4A1A66434B484A5A66414B474AC4
:103468009A66404B454ADA663E4B454A1A673D4BD9
:10347800434A5A673B4B414A9A67334A324B5B6827
:1034880018329A60304A304B5B6808325A602E4ACC
:103498002D4B5B682032DA603A48FEF7EDFE3A4879
:1034A800FEF71CFF3948FEF7A1FF3948FEF7E4FE96
:1034B8003848FEF713FF3848FEF798FF374B0022CD
:1034C80083F82821354B002283F83021334B012221
:1034D800C3F82C213248FFF79BF8304B012283F8C0
:1034E80030213048FEF7C8FE2F48FEF7F7FE2F4878
:1034F800FFF72EF8294B00221A70284B00221A7267
:10350800264B01225A602548FFF7D8F8234B0122A1
:103518001A722748FEF7B0FE2648FEF7DFFE264857
:10352800FFF716F81D4B002283F850221B4B01228F
:10353800C3F85422194B012283F8582200BF80BDDA
:10354800FCA9F1D24D62503F200A002000005940EA
:10355800E8A1F6B1CFA9BA39C03FDA1E2242E35535
:10356800700A0020840A0020BC15010827050020E5
:10357800260500202405002025050020220500201E
:1035880023050020180A0020100A0020E408002063
:10359800DC080020D4080020A807002088020020AA
:1035A800B0030020A0070020980700206C06002028
:1035B800640600205C0600203005002080B584B039
:1035C80002AF2A48FEF74AFF2948FEF747FF294B72
:1035D80093F82831002B1AD1264B012283F8282191
:1035E800244BD3F82C31012B11D1224B93F83031D5
:1035F800002B0CD04FF0FF337B601E4BD3F8340107
:103608000E2300937B687A687968FEF7ABF91A484D
:10361800FEF7DAFF174B1B78002B16D1154B01224A
:103628001A70144B5B68012B0FD1124B1B7A002BBD
:103638000BD04FF0FF337B600E4BD8680E230093FE
:103648007B687A687968FEF78DF90C48FEF7BCFF4D
:10365800084B93F85032002B03D1064B012283F814
:10366800502200BF0837BD4680BD00BFE4080020D7
:10367800A8070020880200206C06002030050020E2
:1036880080B500AF0F4B1B785A1CD1B20D4A117090
:10369800002B09D00C4B01221A600A4B1B78013B06
:1036A800DAB2084B1A700BE062B600BFFFF75CF89D
:1036B80072B600BF034B1B78013BDAB2014B1A709C
:1036C80080BD00BF040B0020000B002080B586B031
:1036D80000AF786039605C4B7B615C4B3B610023D9
:1036E800FB735B4B00221A705A4B00221A7009F0C8
:1036F800F9FF08F063FB06F0C7F908F0DFFE08F0F1
:1037080005FF08F0ABFB08F02BFE08F01DFC08F0E5
:1037180033FD08F07BFC08F0DBFC4F4B1B680022F4
:103728001A6000210020FEF7A1FB0346FB7397F9FE
:103738000F30002B02D097F90F3080E0FFF720FE02
:1037480072B600BF62B600BF434B1B685A68424B53
:103758001B68403319461046FEF798FB0346FB7377
:1037680097F90F30002B0DD14FF0FF30FEF722FCF8
:10377800FEF736FD0346002B04D0374B1B680122A9
:1037880083F8482072B600BF97ED050A06F03AFAAA
:10379800FEF732FD0346002B0CD1FEF721FD034650
:1037A800002B07D12C4B1B6893F84830002B01D114
:1037B800012300E00023DAB2264B1A7062B600BF7C
:1037C80062B600BF2FE0FEF7DBFC0346FB73FEF793
:1037D80013FD0346002B0AD1FEF702FD0346002B1A
:1037E80005D11D4B1B6893F84830002B01D00123ED
:1037F80000E00023DAB2164B1A70154B1B78DBB2C7
:10380800002B0CBF01230023DBB21A46114B1A70A0
:103818000F4B1B78DBB2002B05D0104B1B680F4AEF
:1038280023F0010313600B4B1B78DBB2002BCAD1CA
:10383800FFF7C4FEFEF7B4FC72B600BF00231846BB
:103848001837BD4680BD00BF6F12833A0000C842DA
:10385800050B0020060B0020B815010810E000E059
:103868000FB480B400AF00BFBD465DF8047B04B060
:10387800704780B485B000AFF860B9607A60FB68C3
:10388800BA681A60FB6804337A681A6000BF143794
:10389800BD465DF8047B7047F0B58BB000AF87ED8F
:1038A800020B0346FB80FB88002B77D14FF0000208
:1038B800414BD7E90201FCF71FFE02460B46C7E958
:1038C80006239FED391B97ED060B0AF01BFE53EC00
:1038D800102B10461946FDF7BFF803467B610023FD
:1038E8007B6233A3D3E90023D7E90601FDF794F8F7
:1038F8000346002B0ED02EA3D3E90023D7E90601F7
:10390800FCF724FF02460B4610461946FDF7A4F8BB
:1039180003467B627A6A79692848FFF7AAFF284B31
:10392800D3E900014FF00002264BFDF74DF803469E
:10393800002B2ED1224BD3E900014FF000024FF0AB
:103948004043FDF741F80346002B22D11C4BD3E935
:103958000001D7E90223FCF717FC02460B46144680
:103968001D464FF00002184BD7E90201FCF7C4FDD1
:1039780002460B4601210E4620462946FDF72EF841
:103988000346002B01D100231E46F3B21A460F4B03
:103998001A700F49D7E90223C1E9002300BF2C3769
:1039A800BD46F0BDAFF30080000000000000F0410C
:1039B8000000E0FFFFFFEF4100408F40380B002080
:1039C800000000200000F0BF0000B03C200B0020E9
:1039D800400B00200000000080B586B000AF87EDE6
:1039E800020B0346FB8000237B61FB88184697ED9A
:1039F800020BFFF751FF17A3D3E90023D7E9020110
:103A0800FCF77AFD02460B46104619464FF00002B5
:103A18000F4BFCF7BBFB02460B4643EC172B9FED05
:103A28000A1BB0EE470AF0EE670A0AF06BFD53EC8A
:103A3800102B10461946FDF70FF803467B617B698A
:103A480018461837BD4680BD000000000000F04150
:103A58000000E03F0000000080842E4180B584B063
:103A680000AF0023BB6000237B600023FB73234966
:103A78004FF000024FF00003C1E9002320494FF046
:103A880000024FF00003C1E900233A1D07F10803C3
:103A98001146184605F0B2FFBB687A681146184609
:103AA80004F0CEF80346FB7397F90F30002B05D0CE
:103AB8001448FFF7D5FE97F90F301AE03A1D07F1C1
:103AC80008031146184605F0B0FFBB687A6811462E
:103AD800184600F053FF0346FB7397F90F30002B8D
:103AE80005D097F90F3019460748FFF7B9FE97F93F
:103AF8000F3018461037BD4680BD00BF280B002088
:103B0800300B0020E4EF00080CF0000880B584B00A
:103B180000AF0346FB710023FB730023BB73002037
:103B280005F09AFF00237B7304F058FA0346FB73F1
:103B380097F90F30002B0DD097F90F3013F1020FC2
:103B480008D097F90F3019463C48FFF789FE012342
:103B5800BB730BE07B7B002B04D197F90F3013F17B
:103B6800020F01D0012300E000237B73BB7B002BF5
:103B780021D100F035FF0346FB7397F90F30002B76
:103B88000DD097F90F3013F1020F08D097F90F30C5
:103B980019462B48FFF764FE0123BB730BE07B7BC0
:103BA800002B04D197F90F3013F1020F01D0012334
:103BB80000E000237B73BB7B002B21D104F098F934
:103BC8000346FB7397F90F30002B0DD097F90F3090
:103BD80013F1020F08D097F90F3019461948FFF76B
:103BE8003FFE0123BB730BE07B7B002B04D197F9CD
:103BF8000F3013F1020F01D0012300E000237B7383
:103C0800FB79002B0DD0002005F026FFBB7B002B95
:103C180002D17B7B002B01D1012300E00023BB7381
:103C280001E00123BB73BB7B002B3FF47BAF97F90B
:103C38000F3018461037BD4680BD00BF34F000086D
:103C48006CF000089CF0000880B582B000AF00233B
:103C5800BB70394B1B78DBB2002B02D0002000F080
:103C6800D9FF00F0ABFF0346FB7000237B600EE03A
:103C78000A2005F0F1FE7B6803F51C5310337B60C6
:103C88000120FFF743FF00F099FF0346FB707B68B4
:103C98002A4A934202D2FB78002BE9D100F09AFF1E
:103CA8000346BB7097F90230002B05D097F9023014
:103CB80019462348FFF7D4FD04F00AFB0346BB70FE
:103CC80097F90230002B05D097F9023019461D48A4
:103CD800FFF7C6FD1C4B00221A701C4B00221A70FD
:103CE8001B4B00221A601B4B00221A601A4B002241
:103CF8001A601A4B00221A60194B00221A601949DF
:103D08004FF000024FF04043C1E900230A4B002264
:103D18001A700822002114480AF00EFF13494FF0C8
:103D280000024FF00003C1E9002397F9023018465A
:103D38000837BD4680BD00BF200B002000879303D5
:103D4800D4F00008F0F00008070B0020080B002052
:103D58000C0B0020100B0020140B0020180B002067
:103D68001C0B002000000020380B0020400B002016
:103D780080B586B000AF614B1B687B617B69002B07
:103D880000F0B8805E4B1B78DBB2002B04D15B4B94
:103D98001B68002B00F0AE805A4B1B78DBB2022B5D
:103DA80040F0A880584B1B78002B40F0A3807B691B
:103DB800D3E90023C7E90223544B1B78002B00F0FA
:103DC8008A80534B1B78DBB2002B04D0504B1B78F6
:103DD800DBB2022B01D1012300E00023FB714C4B25
:103DE8001B78DBB2012B04D0494B1B78DBB2022BCA
:103DF80001D1012300E00023BB71FB79002B33D0F4
:103E0800444BD3E90023D7E90201FCF7FBFD034645
:103E1800002B0AD0404BD3E900013E4BD3E90023E5
:103E2800FCF7DCFD0346002B14D13A4BD3E9002301
:103E3800D7E90201FCF7F0FD0346002B14D0364BFE
:103E4800D3E90001334BD3E90023FCF7BDFD03465A
:103E5800002B09D0314B1B68002B02D1304B0122BB
:103E68001A70294B01221A70BB79002B33D0294BC9
:103E7800D3E90023D7E90201FCF7B0FD0346002B84
:103E88000AD0254BD3E90001224BD3E90023FCF7E4
:103E9800B9FD0346002B14D11E4BD3E90023D7E903
:103EA8000201FCF791FD0346002B14D01A4BD3E90D
:103EB8000001184BD3E90023FCF7AEFD0346002BA5
:103EC80009D0164B1B68002B02D1154B01221A7022
:103ED8000D4B01221A700C4B1B78002B0CBF0123D1
:103EE8000023DBB21A46094B1A700B49D7E90223A3
:103EF800C1E9002300BF1837BD4680BD4C0B002028
:103F0800500B00206C0B00207B0B0020780B00204E
:103F1800680B0020580B0020700B0020640B002059
:103F28007A0B002080B582B000AF0023FB719E4B56
:103F38001B78DBB2002B18D19C4B00221A709C4BCB
:103F480000221A709B4B1B78DBB2002B2DD0964BAE
:103F580002221A70974B00221A70974B1B78DBB21B
:103F6800002B22D10123FB711FE0924B00221A7013
:103F78008E4B1B78DBB2002B09D0904B00221A70B5
:103F8800894B00221A70894B00221A700DE08A4B67
:103F98001B78DBB2002B02D10123FB7105E0844BB7
:103FA8001B78FB71824B00221A707F4B1B78DBB2A7
:103FB800042B00F2D78001A252F823F0D93F000861
:103FC80013410008F33F0008C740000851400008AB
:103FD800784B1B78DBB2002B00F0D880724B0222A2
:103FE8001A70744B00221A70D0E0FB79002B00F095
:103FF800CF80734B1B68002B0DDD6F4B1B78DBB23A
:10400800012B08D16E4B1B681A466E4B1A60664B23
:1040180003221A70BCE06C4B1B68002B0AD0674B5C
:1040280001221A70684B1B68664A13605E4B0422B3
:104038001A70ADE06548FFF713FC604B00221A7058
:10404800594B00221A70A3E05E4B1B68002B04D06A
:104058005C4B1B68013B5B4A13605A4B1B68002B87
:1040680040F098805A4B1B78DBB2012B06D1534B9A
:1040780000221A704C4B00221A708BE0554B1B68BB
:10408800002B0AD04D4B00221A70524B1B684D4A28
:104098001360454B01221A707CE0FB79002B07D096
:1040A800494B1B68474A13603F4B04221A7071E062
:1040B800424B00221A703C4B02221A706AE0414BB4
:1040C8001B68002B04D03F4B1B68013B3D4A136023
:1040D8003C4B1B68002B5FD13B4B1B68002B0AD065
:1040E800364B01221A70384B1B68364A13602E4B28
:1040F80004221A7050E03548FFF7B2FB2F4B00221C
:104108001A70294B00221A7046E02E4B1B68002BB0
:1041180004D02C4B1B68013B2A4A1360294B1B68AF
:10412800002B3BD1FB79002B18D0274B1B68002BA9
:104138000AD0224B01221A70234B1B68214A1360B4
:10414800194B04221A7029E02048FFF789FB1B4B02
:1041580000221A70144B00221A701FE0124B022220
:104168001A701BE0104B1B78DBB219461A48FFF790
:1041780077FB124B00221A700D4B00221A700B4B62
:1041880000221A70084B00221A7008E000BF06E0EF
:1041980000BF04E000BF02E000BF00E000BF00BFB6
:1041A8000837BD4680BD00BF6C0B0020690B00209E
:1041B8007B0B00200C0000206A0B00207A0B0020EB
:1041C800640B00207C0B00200800002014F100087C
:1041D8006B0B0020600B00203CF1000880B400AF9E
:1041E80010494FF000024FF00003C1E900230E4BC5
:1041F80000221A700D4B1B78DAB20D4B1A700D4B5A
:1042080000221A700C4B00221A700C4B00221A6004
:104218000B4B00221A7000231846BD465DF8047B3C
:10422800704700BF700B0020780B00206A0B00203D
:10423800790B00207A0B00207B0B00207C0B0020E0
:104248006C0B002080B584B000AF0346FB80FB8870
:10425800002B3FD1314B1B78DAB2314B1B789A4295
:1042680014BF01230023DBB2FB732C4B1B78DAB29B
:104278002B4B1A70FB7B002B0BD02A4B00221A7099
:10428800294B00221A70294B00221A60284B002261
:104298001A70224B1B78DBB2012B1BD1244B1B78E5
:1042A800DBB2002B04D1234B1B78DBB2002B08D1E7
:1042B8001F4B1B78DBB2012B0CD11C4B1B68012B4D
:1042C80008D11A4B00221A601A4B00221A70184B98
:1042D80002221A70114B1B78DBB2012B07D1164B47
:1042E8001B889BB2FA889A4201D1FFF741FDFB88EF
:1042F800002B05D1FFF716FE104B00221A7006E0BE
:104308000E4B1B78002B02D00D4B1B7801E0054BA0
:104318001B7818461037BD4680BD00BF6A0B0020C9
:10432800790B00207A0B00207B0B00207C0B0020EF
:104338006C0B00200C000020480B0020810B002093
:10434800800B002080B400AF26494FF000024FF0E8
:104358000003C1E90023244B00221A70234B0022DA
:104368001A70234B00221A70224B00221A80224B0B
:1043780000221A70214B00221A70214B00221A6069
:10438800204B00221A70204B00221A701F4B00226B
:104398001A601F4B00221A701E494FF000024FF09E
:1043A8000003C1E900231C4B4FF47A721A601B4BBF
:1043B80000221A601A4B00221A601A4B00221A7047
:1043C800194B01221A70194B00221A70184B00223F
:1043D8001A70184B00221A7000231846BD465DF863
:1043E800047B7047700B0020780B00206C0B0020BA
:1043F800790B0020480B00207A0B00207B0B002053
:104408007C0B0020800B0020810B00204C0B00202F
:10441800500B0020580B002008000020600B0020E3
:10442800640B0020680B00200C000020690B0020A2
:104438006A0B00206B0B002080B400AF174B1B7871
:10444800DBB2002B25D1164B1B78DBB2002B0BD02F
:10445800144B1B78DBB2002B06D1134B01221A70C8
:10446800124B01221A7014E00E4B1B78DBB2002BA2
:104478000BD00B4B1B78DBB2002B06D10A4B00226A
:104488001A700A4B01221A7003E0084B00221A70B6
:10449800FFE700BFBD465DF8047B70476A0B00204C
:1044A8000C000020690B0020800B0020810B0020ED
:1044B80080B586B000AFF860B9607A603B600023D1
:1044C800FB7503F0F9FE3861FB681B68184604F0B9
:1044D80009F90021386803F067FE0246BB681A60D4
:1044E80003F052FE02467B681A60BB681B68002B0B
:1044F8000FD0BB681B681946386904F0F9FB0246FF
:10450800FB681A60FB681B68002B04D1F623FB7557
:1045180001E0F823FB7597F9173018461837BD46A0
:1045280080BD000080B584B000AFF860B9607A60E3
:10453800FA68BB6813441B7819460848FFF790F9D6
:10454800FB68002B02D0F86804F0CCF87B680022E6
:104558001A60002318461037BD4680BD60F1000878
:1045680080B584B000AFF860B9607A60FA68BB685B
:1045780013441B7819460648FFF772F97B68022234
:104588001A604FF0FF3318461037BD4680BD00BF94
:10459800BCF1000880B485B000AF03460A46FB7141
:1045A8001346BB710523FB73FB79F02B02D900235B
:1045B800FB7322E0FB79E32B05D9FB79F02B02D8BA
:1045C8000123FB7319E0FB79D22B02D9FB79E22B8B
:1045D80008D9FB79C02B08D1BB79002B05D0BB7952
:1045E800022B02D80223FB7307E0FB79C72B04D9FF
:1045F800FB79D22B01D80323FB73FB7B18461437B6
:10460800BD465DF8047B704780B58CB000AFF8609C
:10461800B9607A603B60FB68BB62BB6A1B7887F84D
:104628002730002387F82F3097F82730C02B06D182
:10463800BB68012B03D9BB6A5B7887F82F30364BF0
:104648001B78002B3ED097F82F2097F8273011467B
:104658001846FFF79FFF0346FB76002387F82E30A6
:10466800FB7E052B23D0FB7E2C4A52F823307B613E
:1046780000233B617B69002B19D097F827207B69C1
:104688001046984738613B69002B14BF012300236B
:10469800DBB287F82E3097F82E30002B07D03B6915
:1046A8005A687B681A603B699A683B681A6097F891
:1046B8002E30002B2CD17B68194A1A603B68194AA6
:1046C8001A6025E097F82730FF2B1BD1134B1B6886
:1046D8003B627B6800221A603B6800221A603B6AD2
:1046E800002B15D03B6AFF209847F861FB69002B27
:1046F8000ED0FB695A687B681A60FB699A683B6848
:104708001A6005E07B68084A1A603B6800221A6054
:1047180000BF3037BD4680BD830B0020880B0020CA
:1047280069450008F94700082D45000880B483B0A2
:1047380000AF0346FB71044AFB79137000BF0C37C6
:10474800BD465DF8047B7047830B002080B400AF42
:10475800034B1B781846BD465DF8047B704700BFC5
:10476800840B002080B483B000AF0346FB71064B76
:104778001A78FB791343DAB2034B1A7000BF0C376F
:10478800BD465DF8047B7047840B002080B483B07D
:1047980000AF0346FB7197F90730DB435AB2074B6A
:1047A8001B785BB213405BB2DAB2044B1A7000BFDD
:1047B8000C37BD465DF8047B704700BF840B0020B2
:1047C80080B400AF034B1B781846BD465DF8047BE8
:1047D800704700BF850B002080B400AF034B1B88D7
:1047E8001846BD465DF8047B704700BF860B002065
:1047F80080B586B000AF0346B9607A60FB7397F95D
:104808000F30002B05D1BB683B613B69FF221A7052
:1048180076E0BB687B617B69FE221A7097F90F30DE
:1048280010330F2B62D801A252F823F0ED4800088C
:10483800E5480008DD480008D5480008CD480008CC
:10484800C5480008B5480008BD480008AD4800083C
:10485800A54800089D480008954800087D480008BC
:1048680075480008854800088D4800087B69302293
:104878005A7045E07B6929225A7041E07B692222FF
:104888005A703DE07B6920225A7039E07B6900222A
:104898005A7035E07B6923225A7031E07B69212206
:1048A8005A702DE07B6911225A7029E07B69272212
:1048B8005A7025E07B692A225A7021E07B69102210
:1048C8005A701DE07B6924225A7019E07B692822FE
:1048D8005A7015E07B6926225A7011E07B693122F3
:1048E8005A700DE07B6933225A7009E097F90F304E
:1048F80019460548FEF7B4FF7B6920225A70FFE786
:1049080000BF1837BD4680BDECF1000880B487B001
:1049180000AF0346B9607A60FB7300237B61BB6814
:10492800002B23D000233B6100233B6117E03A6949
:1049380013465B0013449B001A46BB6813441B785C
:10494800FA7B9A4208D13A6913465B0013449B00EC
:104958001A46BB6813447B613B6901333B613A6982
:104968007B689A4202D27B69002BE0D07B691846AB
:104978001C37BD465DF8047B7047000080B582B0E7
:1049880000AF78603960134B1B78002B05D01248B4
:10499800FEF766FF6FF00B0318E000F077FC00F0FD
:1049A80081FC03460D4A136002F04EFA02F068FAE1
:1049B80003460A4A936003F041F803F049F80346B6
:1049C800064A5360034B01221A7000231846083721
:1049D800BD4680BD820B002030F20008880B002005
:1049E80080B58CB002AF002387F82730002387F802
:1049F80026300023FB610023BB6100237B61002379
:104A08003B610023FB6000233B620023BB60002363
:104A18007B60554B1B78002B05D15448FEF720FFCF
:104A28006FF008039BE007F1140007F1180207F183
:104A38001C0107F1100300930346002003F00EFB4E
:104A4800034687F8273097F92730002B09D097F9C4
:104A5800273013F1040F04D097F9273013F1050F0D
:104A680071D1FB69002B05D07A693B691A44BB698F
:104A78009A4203D9F82387F8273067E0FA697B69F7
:104A880013443B6239693B1D07F10802386AFFF796
:104A9800BBFDBB68002B09D13B6A1B78194634481B
:104AA800FEF7DEFEF42387F827304FE0BB68F8698D
:104AB800796907F10C029847034687F826307B6826
:104AC800002B3DD0FB68002B3AD0002387F8273015
:104AD8003A69FB689A420BD2FB6807F1140207F1A6
:104AE800180107F11C00FFF7E3FC034687F827309D
:104AF8003B691A460021386A0AF01EF897F92730F0
:104B0800002B1DD1FA697B6913443B627B68FA6804
:104B180097F92600396A9847F969B8697B69FA688C
:104B28000192009303460A464FF6FF71012003F0F5
:104B38003DF9034687F8273097F92730002B04D131
:104B480097F927300BE000BF00E000BFFB69002B9E
:104B580003D0FB69184603F0C5FD97F927301846BE
:104B68002837BD4680BD00BF820B002060F20008D8
:104B780088F2000880B584B000AF03463960FB8036
:104B88000023FB730B4B1B78002B05D10A48FEF75B
:104B980067FE6FF0080309E0FB88002239681846B1
:104BA80002F06CFB0346FB7397F90F301846103779
:104BB800BD4680BD820B0020B8F2000880B400AF6B
:104BC800034B1B781846BD465DF8047B704700BF51
:104BD800830B002080B500AF0B4B1B78002B02D154
:104BE8000A48FEF73DFE02F04FFF02F0F1FD00F02B
:104BF80075FB10220021064809F09EFF024B002297
:104C08001A700023184680BD820B0020B0F30008FC
:104C1800880B002080B584B000AF7860786802F017
:104C2800B1FB0346FB7397F90F3018461037BD46A2
:104C380080BD80B584B000AF0346FB800123FB73C1
:104C4800FA7BFB880021184602F018FB0346BB7369
:104C580097F90E3018461037BD4680BD80B584B030
:104C680000AF0346FB710123FB6003F0DCFAB86078
:104C7800FA79B968FB68B1FBF3F39A4234BF0123B0
:104C88000023DBB218461037BD4680BD80B584B01E
:104C980000AF78600B46FB7000F02AFBF860F968FB
:104CA8000648FEF7DDFD064B1B781A46F96878685A
:104CB800FBF70CFF00BF1037BD4680BDD8F30008D6
:104CC800A00B002080B588B000AFF860B9607A60AA
:104CD8000023FB77FA68BB681344BB61BB697B613F
:104CE8000023FB7402F0A6FC0346FB74FB7C002B3C
:104CF80008D11A48FEF7B4FD7B6802221A606FF0EB
:104D08000A0327E07B695B78002B03D07B695B781B
:104D1800012B01D1012300E00023FB74FB7C002B55
:104D28000BD17B695B7819460D48FEF799FD7B68C6
:104D380002221A606FF001030CE00A48FEF790FDAA
:104D48000120FFF7F3FC0023FB777B6808221A6039
:104D580097F91F3018462037BD4680BDF0F300088C
:104D68003CF4000860F4000880B586B000AF034644
:104D7800B9607A60FB7397F90F30002B47D1BB6895
:104D88007B6108220021786909F0D6FE7B69FF2241
:104D98001A7005227B695A7000227B699A7003F0A9
:104DA80042FA0346DAB27B69DA7003F035FA034651
:104DB8009AB27B699A807B6901229A717B69012288
:104DC800DA717B695B7819461648FEF749FD7B69FD
:104DD8009B7819461448FEF743FD7B69DB78194632
:104DE8001248FEF73DFD7B699B889BB21946104827
:104DF800FEF736FD7B699B7919460E48FEF730FDB4
:104E08007B69DB7919460C48FEF72AFD06E097F91D
:104E18000F307A68B9681846FFF7EAFC00BF183700
:104E2800BD4680BD88F40008A4F40008C0F400085A
:104E3800DCF40008F8F4000814F5000880B586B022
:104E480000AFF860B9607A600123FB7502F0F2FBED
:104E58000346FB75FB7D002B08D10B48FEF700FDD0
:104E68007B6802221A606FF00A0309E00748FEF720
:104E7800F7FC0020FFF75AFC7B6801221A60002328
:104E880018461837BD4680BD30F5000880F5000883
:104E980080B584B000AFF860B9607A600548FEF765
:104EA800DFFC7B6806221A60002318461037BD46CF
:104EB80080BD00BFB0F5000880B586B000AF0346DE
:104EC800B9607A60FB73BB687B6106220021786950
:104ED80009F032FE7B69FF221A70FFF737FC0346A0
:104EE8001A467B695A70FFF76BFC03461A467B69C2
:104EF8009A70FFF771FC03461A467B699A807B69B2
:104F08005B7819460948FEF7ABFC7B699B78194624
:104F18000748FEF7A5FC7B699B889BB219460548A4
:104F2800FEF79EFC00BF1837BD4680BDBCF50008E3
:104F3800E0F5000804F6000880B586B000AFF86018
:104F4800B9607A600023FB750B48FEF789FC02F014
:104F58005BFB0346FB75FB7D002B03D003F08CF94C
:104F680002F061FB7B6802221A606FF004031846A6
:104F78001837BD4680BD00BF28F6000880B588B048
:104F880000AFF860B9607A600023FB77FA68BB6805
:104F98001344BB61BB697B610023FB747B695A685E
:104FA8007B69DB781946104600F0AEF90346FB74BE
:104FB800FB7C002B08D10D48FEF752FC7B680222CF
:104FC8001A606FF00B030CE07B6959687B69DB782A
:104FD8001A460748FEF744FC7B6801221A6097F9D5
:104FE8001F3018462037BD4680BD00BF30F6000888
:104FF8004CF6000880B58AB000AFF860B9607A60F6
:10500800002387F82730FA68BB6813443B623B6A81
:10501800FB610023FB7600F06BF97861FB695B7834
:105028001846FFF71BFE0346FB76FB7E002B0BD1D1
:10503800FB695B7819461248FEF712FC7B6802226E
:105048001A606FF0010316E07B69002B08D10D4848
:10505800FEF706FC7B6802221A606FF00B030AE079
:10506800FB695A78084B1A70074B1B785A1C7B68E7
:105078001A6097F9273018462837BD4680BD00BF0B
:1050880080F60008B0F60008A00B002080B588B0B4
:1050980000AF0346B9607A60FB7397F90F30002BB5
:1050A80030D100F025F9F861BB68BB61012200210D
:1050B800B86909F041FDBB69FF221A70FB69002B32
:1050C8001CD0164B1B7801337A689A4216D1BB68FC
:1050D80001337B610023FB741148FEF7C1FBFB7CA5
:1050E80019467869FFF7D2FD0C4B1B78184600F07B
:1050F80029F90A4B00221A7000BF0AE00948FEF796
:10510800AFFB06E097F90F307A68B9681846FFF7E1
:105118006FFB00BF2037BD4680BD00BFA00B00203D
:10512800CCF60008D8F6000880B588B000AFF86063
:10513800B9607A600023FB77FA68BB681344BB61E7
:10514800BB697B610023FB747B695B781846FFF7BA
:1051580085FD0346FB74FB7C002B0BD17B695B78D8
:1051680019461748FEF77CFB7B6802221A606FF02D
:10517800010320E07B695A687B69DB781946104691
:1051880000F0C2F80346FB74FB7C002B08D10D48E5
:10519800FEF766FB7B6802221A606FF00B030AE0D9
:1051A8007B695A78084B1A70074B1B785A1C7B6826
:1051B8001A6097F91F3018462037BD4680BD00BFDA
:1051C800F8F600082CF70008A00B002080B588B07E
:1051D80000AF0346B9607A60FB7397F90F30002B74
:1051E80030D100F085F8F861BB68BB61012200216D
:1051F800B86909F0A1FCBB69FF221A70FB69002B92
:105208001CD0164B1B7801337A689A4216D1BB68BA
:1052180001337B610023FB741148FEF721FBFB7C03
:1052280019467869FFF732FD0C4B1B78184600F0D9
:1052380089F80A4B00221A7000BF0AE00948FEF7F5
:105248000FFB06E097F90F307A68B9681846FFF740
:10525800CFFA00BF2037BD4680BD00BFA00B00209D
:105268004CF700085CF7000880B582B000AF034631
:10527800FB71FB79072204491846FFF747FB0346F1
:1052880018460837BD4680BDC815010880B500AF6F
:10529800034800F013F800F069F800BF80BD00BFB4
:1052A8007152000880B400AF034B1B681846BD4616
:1052B8005DF8047B704700BFA40B002080B483B066
:1052C80000AF7860044A7B68136000BF0C37BD46A6
:1052D8005DF8047B704700BFA40B002080B500AFC9
:1052E80000F04BF80020FFF7E9FF00BF80BD000089
:1052F80080B400AF034B1B681846BD465DF8047BBD
:10530800704700BF980B002080B483B000AF78606E
:105318000B46FB70FB78002B04D17B68002B01D176
:10532800002306E0064A7B681360054AFB78137180
:10533800012318460C37BD465DF8047B704700BF53
:10534800980B002080B483B000AF0346FB71064B76
:105358001A68FB791344044A136000BF0C37BD4632
:105368005DF8047B704700BF980B002080B400AF45
:1053780000BFBD465DF8047B704780B400AF00BF36
:10538800BD465DF8047B704780B584B000AF034626
:10539800FB800023FB7305F0B6FF03460B4A13603E
:1053A8000B4B1B68002B0CBF01230023DBB2FB73E4
:1053B800FB7B002B04D1054B1B68184605F0B4FF96
:1053C800FB7B18461037BD4680BD00BFB40B0020DC
:1053D800B00B002080B582B000AF0346FB80044BC1
:1053E8001B68184605F0A0FF00BF0837BD4680BD02
:1053F800B40B002080B582B000AF0346FB8005F0F7
:1054080082FF0346074A1360074B1B680133064AAD
:105418001360044B1B68184605F086FF00BF083769
:10542800BD4680BDB40B0020B00B002080B582B013
:1054380000AF0346FB8005F066FF0346074A13608A
:10544800074B1B68013B064A1360044B1B68184650
:1054580005F06AFF00BF0837BD4680BDB40B0020C9
:10546800B00B002080B483B000AF0346FB80104B24
:105478001968FA8813465B001344DB000B445B7918
:10548800022B0AD00A4B1968FA8813465B001344AA
:10549800DB000B445B79032B01D1012300E00023DF
:1054A800DBB218460C37BD465DF8047B704700BF79
:1054B800A80B002080B582B000AF0023FB71002349
:1054C800BB800023BB8008E0BB881846FFF7CAFFF3
:1054D8000346FB71BB880133BB80094B9B88BA88A4
:1054E8009A4202D2FB79002BEED0FB79002B0CBF3D
:1054F80001230023DBB218460837BD4680BD00BF34
:10550800A80B002080B485B000AF0346FB800B4693
:105518007B7113463B71284B1B68002B42D0264BEE
:105528009B88FA889A423DD2234B1968FA88134619
:105538005B001344DB000B441B68002B32D01E4B6E
:105548001968FA8813465B001344DB000B441B7987
:105558007A799A4226D2184B1968FA8813465B0062
:105568001344DB000B4419687A791346DB009B1A55
:105578009B000B441B68002B14D00F4B1968FA884A
:1055880013465B001344DB000B4419687A79134611
:10559800DB009B1A9B000B441B793A799A4201D293
:1055A800012300E00023FB73FB7B18461437BD463C
:1055B8005DF8047B704700BFA80B002080B485B05D
:1055C80000AF03463A60FB710B46BB710023FB73C7
:1055D800BB79BB81FB79FF2B04D1BB89FF2B01D899
:1055E8000123FB73FB7B18461437BD465DF8047B2B
:1055F800704780B483B000AF0346FB71FB7923F09A
:105608001003002B0CBF01230023DBB218460C3714
:10561800BD465DF8047B704780B485B000AF034693
:10562800FB710023FB73FB79002B05D0FB79012B61
:1056380002D0FB79022B01D10123FB73FB7B1846B7
:105648001437BD465DF8047B704780B485B000AF61
:105658000346FB710023FB73FB79002B05D0FB7914
:10566800012B02D0FB79022B01D10123FB73FB7BB9
:1056780018461437BD465DF8047B704780B400AF08
:1056880001231846BD465DF8047B704780B485B099
:1056980000AF0346FB80164B1968FA8813465B0077
:1056A8001344DB000B441B7B022B0ED1104B1968F3
:1056B800FA8813465B001344DB000B44DA880D4B71
:1056C8001B889A4201D0012300E00023FB73FB7B77
:1056D800002B04D0FB88002B01D1012300E000231C
:1056E800FB73FB7B18461437BD465DF8047B704797
:1056F800A80B00201800002080B485B000AF7860A7
:105708000B46FB707B681968FA781346DB009B1A16
:105718009B000B44BB60BB689B687A68D28902FB1C
:1057280003F30133FB60FB78002B08D17B681B7AFD
:1057380003F01003002B02D0FB680433FB60FB6806
:1057480018461437BD465DF8047B704780B586B0AF
:1057580000AF78600023BB7400237B610023FB74D7
:105768000023FB7415E0FB7C19467868FFF7C4FF3B
:10577800F8600023BB600121F86802F015FDB860ED
:10578800BA687B699A4201D9BB687B61FB7C0133AB
:10579800FB747B681B79FA7C9A42E4D37B681B799B
:1057A8001A4613465B0099187B6814331A467869C1
:1057B80003F050F80346BB7497F91230002B03D05E
:1057C8007B684FF0FF325A6197F912301846183744
:1057D800BD4680BD80B582B000AF78607B685B69EC
:1057E800B3F1FF3F04D07B685B69184603F044F9C6
:1057F8007B684FF0FF325A6100BF0837BD4680BD55
:1058080080B58AB000AFF860B9607A60002387F885
:105818002730FA68BB6813443B623B6AFB61FB694B
:105828009A78DB781B0213437B83FB691B797B76B1
:10583800FB695B793B760023FB753A7E797E7B8B2F
:105848001846FFF75FFE0346FB75FB7D002B0BD167
:10585800798B7A7E3B7E1D48FEF702F87B68022230
:105868001A606FF001032CE07B8B1846FFF7FAFDF6
:105878000346002B0CBF01230023DBB2FB75FB7D25
:10588800002B0AD17B8B19461148FDF7E9FF7B688D
:1058980002221A606FF0070313E0798B7A7E3B7E51
:1058A8000C48FDF7DDFF0C4A7B8B13800A4A7B7E90
:1058B8009370094A3B7ED3707B6801221A6097F97E
:1058C800273018462837BD4680BD00BF84F700083A
:1058D800C8F70008F8F7000814000020F0B58FB0EA
:1058E80004AFF860B9607A60002387F82730FA6857
:1058F800BB6813443B623B6AFB61584B1B887B8344
:10590800564B9B787B76554BDB783B7600237B6147
:105918000023FB743A7E797E7B8B1846FFF7F2FDF5
:105928000346FB74FB7C002B0BD1798B7A7E3B7E84
:105938004B48FDF795FF7B6802221A606FF005035C
:1059480087E07B8B1846FFF78DFD0346002B0CBFC5
:1059580001230023DBB2FB74FB7C002B0AD17B8B79
:1059680019464048FDF77CFF7B6802221A606FF0F9
:1059780007036EE0FB695878FB699978FB695B68F7
:105988001A46FFF71BFE0346FB74FB7C002B1BD15A
:10599800798B7A7E387EFB695B781C46FB699B783D
:1059A8001D46FB69DB781E46FB695B68039302961C
:1059B8000195009403462C48FDF752FF7B680222AC
:1059C8001A606FF0010344E0798B7A7E387EFB69B8
:1059D8005B781C46FB699B781D46FB69DB781E4695
:1059E800FB695B68039302960195009403461F4880
:1059F800FDF736FF1E4B19687A8B13465B0013447C
:105A0800DB000B4419687A7E1346DB009B1A9B0067
:105A18000B441A683B7EDB0013447B61FB695A78B0
:105A28007B691A70FB699A787B695A70FB69DA7826
:105A38007B699A70FB695A687B695A60074BDB7807
:105A48000133DAB2054BDA707B6801221A6097F9E4
:105A5800273018462C37BD46F0BD00BF1400002083
:105A680048F80008A4F80008D4F800084CF9000821
:105A7800A80B002090B58DB002AFF860B9607A60CD
:105A8800002387F82730FA68BB6813443B623B6AF7
:105A9800FB610023BB610023FB75614B1B68002B76
:105AA80008D0FB695B889AB25D4B9B889A4201D209
:105AB800012300E00023FB75FB7D002B0CD1FB6963
:105AC8005B889BB219465748FDF7CAFE7B680222DD
