:020000040800F2
:10000000000002207552010879330108813301088C
:100010008933010891330108993301080000000079
:100020000000000000000000000000002D1A010880
:10003000A133010800000000E9190108191901089D
:10004000C5520108C5520108C5520108C552010830
:10005000C5520108C5520108C5520108C552010820
:10006000C5520108C5520108C5520108AF33010845
:10007000C5520108C5520108C5520108C552010800
:10008000DD2A0108BD2A010873600108C552010874
:10009000C5520108C5520108C5520108C5520108E0
:1000A000C5520108BD330108C5520108C5520108F7
:1000B000C5520108C5520108C5520108C5520108C0
:1000C000C5520108C5520108C5520108C5520108B0
:1000D000C5520108C5520108A92A0108C5520108E4
:1000E000C5520108C5520108C5520108C552010890
:1000F000C5520108C5520108C5520108D133010893
:10010000C5520108C5520108C5520108C55201086F
:10011000C5520108C5520108C5520108C55201085F
:10012000C5520108C5520108C5520108C55201084F
:10013000C55201080000000000000000C55201087F
:10014000C5520108C5520108C5520108C55201082F
:10015000C5520108C5520108C5520108C55201081F
:10016000C5520108C5520108C5520108C55201080F
:10017000C5520108C552010800000000000000003F
:08018000C5520108C552010837
:1001880081F0004102E000BF83F0004330B54FEA40
:1001980041044FEA430594EA050F08BF90EA020FAD
:1001A8001FBF54EA000C55EA020C7FEA645C7FEA40
:1001B800655C00F0E2804FEA5454D4EB5555B8BF63
:1001C8006D420CDD2C4480EA020281EA030382EAD4
:1001D800000083EA010180EA020281EA0303362D66
:1001E80088BF30BD11F0004F4FEA01314FF4801C39
:1001F8004CEA113102D0404261EB410113F0004F4B
:100208004FEA03334CEA133302D0524263EB430301
:1002180094EA050F00F0A780A4F10104D5F1200E9F
:100228000DDB02FA0EFC22FA05F2801841F10001FA
:1002380003FA0EF2801843FA05F359410EE0A5F1CE
:1002480020050EF1200E012A03FA0EFC28BF4CF0FF
:10025800020C43FA05F3C01851EBE37101F00045B5
:1002680007D54FF0000EDCF1000C7EEB00006EEBC2
:100278000101B1F5801F1BD3B1F5001F0CD349084C
:100288005FEA30004FEA3C0C04F101044FEA4452A3
:1002980012F5800F80F09A80BCF1004F08BF5FEA2A
:1002A800500C50F1000041EB045141EA050130BD0A
:1002B8005FEA4C0C404141EB0101013C28BFB1F51C
:1002C800801FE9D291F0000F04BF01460020B1FA67
:1002D80081F308BF2033A3F10B03B3F120020CDA3A
:1002E8000C3208DD02F1140CC2F10C0201FA0CF018
:1002F80021FA02F10CE002F11402D8BFC2F1200C7D
:1003080001FA02F120FA0CFCDCBF41EA0C01904032
:10031800E41AA2BF01EB0451294330BD6FEA04047B
:100328001F3C1CDA0C340EDC04F11404C4F1200266
:1003380020FA04F001FA02F340EA030021FA04F378
:1003480045EA030130BDC4F10C04C4F1200220FACF
:1003580002F001FA04F340EA0300294630BD21FA0D
:1003680004F0294630BD94F0000F83F4801306BFD3
:1003780081F480110134013D4EE77FEA645C18BFC7
:100388007FEA655C29D094EA050F08BF90EA020F5E
:1003980005D054EA000C04BF1946104630BD91EA56
:1003A800030F1EBF0021002030BD5FEA545C05D159
:1003B8004000494128BF41F0004130BD14F5800498
:1003C8003CBF01F5801130BD01F0004545F0FE410C
:1003D80041F470014FF0000030BD7FEA645C1ABF41
:1003E800194610467FEA655C1CBF0B46024650EA78
:1003F800013406BF52EA033591EA030F41F40021A4
:1004080030BD00BF90F0000F04BF0021704730B529
:100418004FF4806404F132044FF000054FF00001FE
:1004280050E700BF90F0000F04BF0021704730B5BF
:100438004FF4806404F1320410F0004548BF404294
:100448004FF000013EE700BF42004FEAE2014FEAE9
:1004580031014FEA02701FBF12F07F4393F07F4FC4
:1004680081F06051704732F07F4208BF704793F0C7
:100478007F4F04BF41F40021704730B54FF46074DA
:1004880001F0004521F000411CE700BF50EA0102DD
:1004980008BF704730B54FF000050AE050EA010286
:1004A80008BF704730B511F0004502D5404261EBF6
:1004B80041014FF4806404F132045FEA915C3FF437
:1004C800D8AE4FF003025FEADC0C18BF03325FEAD4
:1004D800DC0C18BF033202EBDC02C2F1200300FA85
:1004E80003FC20FA02F001FA03FE40EA0E0021FAAA
:1004F80002F11444BDE600BF70B54FF0FF0C4CF498
:10050800E06C1CEA11541DBF1CEA135594EA0C0F49
:1005180095EA0C0F00F0DEF82C4481EA030621EA84
:100528004C5123EA4C5350EA013518BF52EA0335BF
:1005380041F4801143F4801338D0A0FB02CE4FF071
:100548000005E1FB02E506F00042E0FB03E54FF0A1
:100558000006E1FB03569CF0000F18BF4EF0010E99
:10056800A4F1FF04B6F5007F64F5407404D25FEA95
:100578004E0E6D4146EB060642EAC62141EA555148
:100588004FEAC52040EA5E504FEACE2EB4F1FD0C8A
:1005980088BFBCF5E06F1ED8BEF1004F08BF5FEA08
:1005A800500E50F1000041EB045170BD06F00046BA
:1005B80046EA010140EA020081EA0301B4EB5C0467
:1005C800C2BFD4EB0C0541EA045170BD41F480115F
:1005D8004FF0000E013C00F3AB8014F1360FDEBF84
:1005E800002001F0004170BDC4F10004203C35DA60
:1005F8000C341BDC04F11404C4F1200500FA05F3E3
:1006080020FA04F001FA05F240EA020001F0004283
:1006180021F0004110EBD37021FA04F642EB0601F9
:100628005EEA430E08BF20EAD37070BDC4F10C0423
:10063800C4F1200500FA04F320FA05F001FA04F2E7
:1006480040EA020001F0004110EBD37041F10001D3
:100658005EEA430E08BF20EAD37070BDC4F12005DE
:1006680000FA05F24EEA020E20FA04F301FA05F246
:1006780043EA020321FA04F001F0004121FA04F2EE
:1006880020EA020000EBD3705EEA430E08BF20EABE
:10069800D37070BD94F0000F0FD101F000464000F8
:1006A80041EB010111F4801F08BF013CF7D041EA7A
:1006B800060195F0000F18BF704703F0004652007E
:1006C80043EB030313F4801F08BF013DF7D043EA4F
:1006D8000603704794EA0C0F0CEA135518BF95EA05
:1006E8000C0F0CD050EA410618BF52EA4306D1D18C
:1006F80081EA030101F000414FF0000070BD50EAAB
:10070800410606BF1046194652EA430619D094EA34
:100718000C0F02D150EA013613D195EA0C0F05D11E
:1007280052EA03361CBF104619460AD181EA030172
:1007380001F0004141F0FE4141F470014FF000002A
:1007480070BD41F0FE4141F4780170BD70B54FF0C5
:10075800FF0C4CF4E06C1CEA11541DBF1CEA135545
:1007680094EA0C0F95EA0C0F00F0A7F8A4EB050427
:1007780081EA030E52EA03354FEA013100F088801E
:100788004FEA03334FF0805545EA131343EA1263E7
:100798004FEA022245EA111545EA10654FEA00269C
:1007A8000EF000419D4208BF964244F1FD0404F555
:1007B800407402D25B084FEA3202B61A65EB0305B1
:1007C8005B084FEA32024FF480104FF4002CB6EB6E
:1007D800020E75EB030E22BFB61A754640EA0C00EE
:1007E8005B084FEA3202B6EB020E75EB030E22BF2E
:1007F800B61A754640EA5C005B084FEA3202B6EB6F
:10080800020E75EB030E22BFB61A754640EA9C002D
:100818005B084FEA3202B6EB020E75EB030E22BFFD
:10082800B61A754640EADC0055EA060E18D04FEABB
:10083800051545EA16754FEA06164FEAC30343EA5B
:1008480052734FEAC2025FEA1C1CC0D111F4801F28
:100858000BD141EA00014FF000004FF0004CB6E721
:1008680011F4801F04BF01430020B4F1FD0C88BFC0
:10087800BCF5E06F3FF6AFAEB5EB030C04BFB6EBCB
:10088800020C5FEA500C50F1000041EB045170BDBE
:100898000EF0004E4EEA113114EB5C04C2BFD4EBEB
:1008A8000C0541EA045170BD41F480114FF0000E6F
:1008B800013C90E645EA060E8DE60CEA135594EAEB
:1008C8000C0F08BF95EA0C0F3FF43BAF94EA0C0FEE
:1008D8000AD150EA01347FF434AF95EA0C0F7FF463
:1008E80025AF104619462CE795EA0C0F06D152EAB7
:1008F80003353FF4FDAE1046194622E750EA41069B
:1009080018BF52EA43067FF4C5AE50EA41047FF4AB
:100918000DAF52EA43057FF4EBAE12E74FF0FF3C10
:1009280006E000BF4FF0010C02E000BF4FF0010CE1
:100938004DF804CD4FEA410C7FEA6C5C4FEA430C5A
:1009480018BF7FEA6C5C1BD001B050EA410C0CBFA9
:1009580052EA430C91EA030F02BF90EA020F00200B
:10096800704710F1000F91EA030F58BF994208BF72
:1009780090422CBFD8176FEAE37040F0010070472F
:100988004FEA410C7FEA6C5C02D150EA013C07D186
:100998004FEA430C7FEA6C5CD6D152EA033CD3D0D1
:1009A8005DF8040B704700BF8446104662468C46CB
:1009B8001946634600E000BF01B5FFF7B7FF0028FE
:1009C80048BF10F1000F01BD4DF808EDFFF7F4FF27
:1009D8000CBF012000205DF808FB00BF4DF808EDB2
:1009E800FFF7EAFF34BF012000205DF808FB00BFD5
:1009F8004DF808EDFFF7E0FF94BF012000205DF8F7
:100A080008FB00BF4DF808EDFFF7CEFF94BF0120AB
:100A180000205DF808FB00BF4DF808EDFFF7C4FFA4
:100A280034BF012000205DF808FB00BF4FEA410CED
:100A38007FEA6C5C02D150EA013C0AD14FEA430CD0
:100A48007FEA6C5C02D152EA033C02D14FF000000D
:100A580070474FF0010070474FEA410212F500124B
:100A680015D211D56FF47873B3EB625212D94FEAED
:100A7800C12343F0004343EA505311F0004F23FAD7
:100A880002F018BF404270474FF00000704750EA2C
:100A9800013005D111F0004008BF6FF000407047E9
:100AA8004FF00000704700BF4A0011D212F5001243
:100AB80011D20DD56FF47873B3EB62520ED44FEAAE
:100AC800C12343F0004343EA505323FA02F070472E
:100AD8004FF00000704750EA013002D14FF0FF306C
:100AE80070474FF0000070474FEA4102B2F1E0430F
:100AF80024BFB3F5001CDCF1FE5C0DD901F0004CFD
:100B08004FEAC0024CEA5070B2F1004F40EB83004C
:100B180008BF20F00100704711F0804F21D113F178
:100B28003872BCBF01F00040704741F480114FEAB1
:100B38005252C2F11802C2F1200C10FA0CF320FA3A
:100B480002F018BF40F001004FEAC1234FEAD32357
:100B580003FA0CFC40EA0C0023FA02F34FEA4303C1
:100B6800CCE77FEA625307D150EA01331EBF4FF04A
:100B7800FE4040F44000704701F0004040F0FE4065
:100B880040F40000704700BF53B94AB9002908BFB4
:100B980000281CBF4FF0FF314FF0FF3000F00CB8B9
:100BA800ADF1080C6DE904CE17F0C4FADDF804E0E5
:100BB800DDE9022304B07047704700BF844641EA6C
:100BC800000313F003036DD1403A41D351F8043BBD
:100BD80040F8043B51F8043B40F8043B51F8043B0F
:100BE80040F8043B51F8043B40F8043B51F8043BFF
:100BF80040F8043B51F8043B40F8043B51F8043BEF
:100C080040F8043B51F8043B40F8043B51F8043BDE
:100C180040F8043B51F8043B40F8043B51F8043BCE
:100C280040F8043B51F8043B40F8043B51F8043BBE
:100C380040F8043B51F8043B40F8043B51F8043BAE
:100C480040F8043B51F8043B40F8043B403ABDD21D
:100C5800303211D351F8043B40F8043B51F8043BBF
:100C680040F8043B51F8043B40F8043B51F8043B7E
:100C780040F8043B103AEDD20C3205D351F8043B4E
:100C880040F8043B043AF9D2043208D0D2071CBF1A
:100C980011F8013B00F8013B01D30B880380604643
:100CA800704700BF082A13D38B078DD010F00303B9
:100CB8008AD0C3F10403D21ADB071CBF11F8013B29
:100CC80000F8013B80D331F8023B20F8023B7BE778
:100CD800043AD9D3013A11F8013B00F8013BF9D2A3
:100CE8000B7803704B7843708B788370604670473D
:100CF8000348044B834202D0034B03B118477047A3
:100D0800C4010020C4010020000000000548064B73
:100D18001B1AD90F01EBA301491002D0034B03B1F1
:100D280018477047C4010020C401002000000000DB
:100D380010B5064C237843B9FFF7DAFF044B13B11B
:100D48000448AFF300800123237010BDC8010020C0
:100D580000000000C885010808B5054B1BB105490E
:100D68000548AFF30080BDE80840FFF7CFBF00BFDC
:100D780000000000CC010020C885010880B483B0C1
:100D880000AF786039600C4A3B6813441B781A46F8
:100D98007B6813441B6808493A680A44127811466C
:100DA8007A680A4443F00103136000BF0C37BD465C
:100DB8005DF8047B704700BF84AE010880B485B03D
:100DC80000AFF860B9607A600D4ABB6813441B78BD
:100DD8001A46FB6813445B681B0C1B040849BA6875
:100DE8000A4412781146FA680A4411467A6813438D
:100DF8004B6000BF1437BD465DF8047B704700BFE9
:100E080084AE010880B485B000AFF860B9607A603C
:100E18003B60BB69402B14D1174ABB6813441B784D
:100E28001A46FB6813441A467B68D360124ABB68AB
:100E380013441B781A46FB6813441A463B689360B0
:100E480013E00D4ABB6813441B781A46FB68134429
:100E58001A467B689360084ABB6813441B781A4695
:100E6800FB6813441A463B68D36000BF1437BD467D
:100E78005DF8047B704700BF84AE010880B483B07E
:100E880000AF786039600C4A3B6813441B781A46F7
:100E98007B6813441B6808493A680A44127811466B
:100EA8007A680A4443F01003136000BF0C37BD464C
:100EB8005DF8047B704700BF84AE010880B483B03E
:100EC80000AF78607B681B6843F040027B681A605B
:100ED80000BF0C37BD465DF8047B704780B483B013
:100EE80000AF78607B681B6823F040027B681A605B
:100EF80000BF0C37BD465DF8047B704780B483B0F3
:100F080000AF78607B681B6803F04003402B01D179
:100F1800012300E0002318460C37BD465DF8047B2A
:100F2800704780B483B000AF78607B681B6803F4B7
:100F3800827318460C37BD465DF8047B704780B451
:100F480083B000AF786039607B681B6823F00102CA
:100F58003B681A437B681A6000BF0C37BD465DF8D2
:100F6800047B704780B483B000AF78607B681B68EF
:100F780003F0010318460C37BD465DF8047B704743
:100F880080B483B000AF786039607B681B6823F059
:100F980002023B681A437B681A6000BF0C37BD46E3
:100FA8005DF8047B704780B483B000AF78607B68DD
:100FB8001B6803F0020318460C37BD465DF8047B36
:100FC800704780B483B000AF786039607B681B6875
:100FD80023F444423B681A437B681A6000BF0C370D
:100FE800BD465DF8047B704780B483B000AF78607D
:100FF8007B681B6803F4444318460C37BD465DF80C
:10100800047B704780B483B000AF786039607B6838
:101018001B6823F400623B681A437B681A6000BFB0
:101028000C37BD465DF8047B704780B483B000AFD1
:1010380078607B681B6803F4006318460C37BD466C
:101048005DF8047B704780B483B000AF78607B683C
:101058009B6803F00103012B01D1012300E0002369
:1010680018460C37BD465DF8047B704780B483B0E2
:1010780000AF78607B689B6803F00203022B01D104
:10108800012300E0002318460C37BD465DF8047BB9
:10109800704780B483B000AF78607B689B6803F0CA
:1010A8008003802B01D1012300E0002318460C3770
:1010B800BD465DF8047B704780B483B000AF7860AC
:1010C8007B685B6843F040027B685A6000BF0C375E
:1010D800BD465DF8047B704780B483B000AF78608C
:1010E8007B685B6843F001027B685A6000BF0C377D
:1010F800BD465DF8047B704780B483B000AF78606C
:101108007B685B6843F002027B685A6000BF0C375B
:10111800BD465DF8047B704780B483B000AF78604B
:101128007B680C3318460C37BD465DF8047B704766
:1011380080B483B000AF78607B680C331B78DBB277
:1011480018460C37BD465DF8047B704780B483B001
:1011580000AF78607B68DB689BB218460C37BD46E9
:101168005DF8047B704780B485B000AF78600B46AB
:10117800FB707B680C33FB60FB68FA781A7000BF61
:101188001437BD465DF8047B704780B485B000AF66
:1011980078600B467B807B680C33FB60FB687A8841
:1011A8001A8000BF1437BD465DF8047B7047000005
:1011B80080B584B000AF786039600023FB600023FD
:1011C800BB607B68002B0BD03B68002B08D07B688A
:1011D800BB60BB681B68654A934201D1644BFB60E6
:1011E800FB68002B00F0BC80BB681A68FB681A60BB
:1011F800FB6893F84620BB6893F846301343DAB28D
:10120800FB6883F84620FB6893F84420BB6893F892
:1012180044301343DAB2FB6883F84420FB6893F840
:101228004520BB6893F845301343DAB2FB6883F86E
:101238004520FB683A68DA61BB6893F8463003F0EA
:101248000103002B32D0BB689A6AFB689A62BB68BC
:101258001A6AFB681A62FB6800225A63FB6800225C
:101268001A63FB68002283F84020FB6893F8443037
:1012780003F00403002B05D0FB681B681846FFF732
:101288001BFF13E0FB6893F8443003F01003002BB6
:101298000CD0BB685A68FB685A60BB6893F8542046
:1012A800FB6883F85420F86800F0FEFABB6893F8EE
:1012B800463003F00203002B28D0BB68DA6AFB68CB
:1012C800DA62BB685A6AFB685A62FB6800229A6352
:1012D800FB680022DA63FB6800229A61FB6800223F
:1012E80083F85620FB6893F8453003F02003002B61
:1012F8000CD0BB689A68FB689A60BB6893F8552065
:10130800FB6883F85520F86800F00FFB3B68FA6823
:101318001A60FB681B681846FFF766FE0346B3F5BC
:10132800004F0ED1FB681B681846FFF7FAFD03460D
:10133800B3F5827F05D1FB681B681846FFF7CEFD21
:1013480004E0FB681B681846FFF7B8FDBB681B681C
:101358001A46064B9A4202D000233B6000E000BFC9
:101368003B6818461037BD4680BD00BF003C0040B2
:10137800E401002080B582B000AF78600B467B8026
:101388007868FFF731FE0346B3F5004F0BD17B8831
:10139800012B08D1786800F0F4FA4FF440417868DE
:1013A800FFF70FFE11E07868FFF71EFE0346B3F55E
:1013B800404F0AD17B88002B07D1786800F0E1FA0A
:1013C8004FF400417868FFF7FCFD00231846083702
:1013D800BD4680BD80B586B000AFF8607A601A4619
:1013E8000B467B8113467B7200237B61FB68002BD5
:1013F80006D0FB681B68002B02D0FB681B687B616A
:101408007B689BB21B0A7B827B897A69134493F8B9
:101418004E30002B0CD07B69B3F84C207B7A9BB202
:101428009A4205D17B695B697A689A4200F0C88064
:101438007B7A9AB27B69A3F84C207B697A685A61F7
:101448007B691B68184600F09CFA7B69B3F84C303E
:10145800002B1CD17B691B681846FFF783FD0346E8
:10146800002B05D07B691B6800211846FFF767FD34
:101478007B691B681846FFF796FD0346022B66D06A
:101488007B691B6802211846FFF77AFD5FE07B69DC
:10149800B3F84C30012B1CD17B691B681846FFF749
:1014A80061FD0346012B05D07B691B6801211846A5
:1014B800FFF745FD7B691B681846FFF774FD034677
:1014C800022B44D07B691B6802211846FFF758FDA0
:1014D8003DE07B69B3F84C30022B1CD17B691B685B
:1014E8001846FFF73FFD0346002B05D07B691B68B4
:1014F80000211846FFF723FD7B691B681846FFF794
:1015080052FD0346002B22D07B691B680021184638
:10151800FFF736FD1BE07B691B681846FFF722FDC5
:101528000346012B05D07B691B6801211846FFF78C
:1015380006FD7B691B681846FFF735FD0346002B3F
:1015480005D07B691B6800211846FFF719FD7B69E8
:101558001B681846FFF769FD02467B6893420CD06A
:101568007B691A687B8A082B01D8002301E04FF4B5
:10157800006319461046FFF745FD7B691B6818464E
:10158800FFF732FD0346B3F5004F0ED17B691B68A8
:101598001846FFF7C6FC0346B3F5827F05D17B6981
:1015A8001B68184600F0EDF904E07B691B681846D3
:1015B800FFF784FC7B897A691344012283F84E2063
:1015C800002318461837BD4680BD80B58AB000AFE5
:1015D800F860B96011461A460B46FB801346BB807B
:1015E8000023BB840023FB6112F090FFF861002305
:1015F8003B62FB68002B06D0FB681B68002B02D0FF
:10160800FB681B683B623B6A1B6801211846FFF7B1
:10161800B1FE0346BB843B8E002B01D100237B63C4
:101628003B6A1B681846FFF769FC0346002B04D188
:101638003B6A1B681846FFF741FCBB88DBB2002BEE
:101648002CD1BB687B610023FB8422E03B6A1B68CA
:101658001846FFF70BFD0346012B0CD13B6A1868AF
:10166800FB8C7A6913441B781946FFF77CFDFB8CC9
:101678000133FB840DE00121F86910F0C3F802463C
:101688007B6B934205D2386A00F0C3F90346BB84EA
:1016980035E0FA8CFB889A42D8D330E0BB88DBB2BD
:1016A800012B2CD1BB68BB610023FB8423E03B6A80
:1016B8001B681846FFF7DAFC0346012B0DD13B6A7D
:1016C8001868FB8C5B00BA6913441B881946FFF73E
:1016D8005CFDFB8C0133FB840DE00121F86910F0FF
:1016E80091F802467B6B934205D2386A00F091F973
:1016F8000346BB8403E0FA8CFB889A42D7D3BB8CA1
:1017080018462837BD4680BD90B58FB004AFF86045
:10171800B96011461A460B46FB801346BB8000236E
:10172800BB840023BB6112F0F1FEB861FB887B84A7
:101738000023FB61FB68002B06D0FB681B68002BAD
:1017480002D0FB681B68FB61FB691B680021184617
:10175800FFF710FE0346BB843B8F002B01D100230B
:10176800FB63FB691B681846FFF7DBFB0346B3F511
:10177800827F0BD1FB691B681846FFF735FC0346CF
:10178800B3F5004F02D17B8C013B7B84FB691B685E
:101798001846FFF7B3FB0346002B04D1FB691B680F
:1017A8001846FFF78BFBBB88DBB2002B39D1BB682F
:1017B8003B610023FB842FE0FB691B681846FFF799
:1017C80042FC0346002B0DD0FB691968FB8C3A6973
:1017D800D4180846FFF7ACFC03462370FB8C013392
:1017E800FB8419E00121B86910F00CF80246FB6B84
:1017F800934211D2798CFA8CFB6B0393BB690293E9
:10180800BB880193FB8800930B463969F86900F09F
:101818000BF90346BB8442E0FA8C7B8C9A42CBD30B
:101828003DE0BB88DBB2012B39D1BB687B6100236B
:10183800FB8430E0FB691B681846FFF704FC03468D
:10184800002B0ED0FB691968FB8C5B007A69D418F1
:101858000846FFF77BFC03462380FB8C0133FB849F
:1018680019E00121B8690FF0CDFF0246FB6B9342E6
:1018780011D2798CFA8CFB6B0393BB690293BB88FA
:101888000193FB8800930B467969F86900F0CCF85E
:101898000346BB8403E0FA8C7B8C9A42CAD3BB8C88
:1018A80018462C37BD4690BDB0B584B002AF7860FD
:1018B8007B685C687B6893F854301D467B681B68BE
:1018C8001846FFF729FC02467B681B6A1946002365
:1018D80000930B4629462046FFF794FA7B68586820
:1018E8007B6893F8543019467B68DB691B691A4694
:1018F800FFF764FA7B685A687B6893F85430194696
:101908001046FFF7BBFA7B681B681846FFF7E4FB35
:101918007B685A687B6893F8543019461046FFF77D
:101928002DFA00BF0837BD46B0BDF0B585B002AF8F
:1019380078607B689C687B6893F855301D467B68A7
:101948005B6A1E467B681B681846FFF7E5FB034683
:1019580040220092324629462046FFF753FA7B6818
:101968009A687B6893F8553019461046FFF786FA4F
:101978007B681B681846FFF7BFFB00BF0C37BD46E6
:10198800F0BD80B582B000AF78607868FFF7B6FA2E
:101998000346002B2CD07868FFF726FB0346002B64
:1019A8000AD100BF7868FFF774FB0346002BF9D112
:1019B8007868FFF793FA1BE07868FFF715FB034692
:1019C800B3F5806F06D07868FFF70EFB0346B3F5D2
:1019D800004F03D17868FFF781FA09E000BF786803
:1019E800FFF757FB0346002BF9D17868FFF776FA23
:1019F80000BF0837BD4680BD80B485B000AFF86031
:101A0800B9607A603B6000BF1437BD465DF8047B5F
:101A1800704780B483B000AF7860012318460C3754
:101A2800BD465DF8047B704790B587B000AFF8609D
:101A3800B96011461A460B46FB801346BB80FB680B
:101A48001B681846FFF74AFAFB681B681846FFF739
:101A580068FA0346B3F5827F37D1FB681B681846DE
:101A6800FFF7C2FA0346B3F5004F2ED1BA883B8D73
:101A78009A422AD0FB681B681846FFF7E4FA034627
:101A8800002BF7D0BB8DDBB2002B0CD1BB683B61C0
:101A9800FB681968FB883A69D4180846FFF748FBC1
:101AA8000346237010E0BB8DDBB2012B0CD1BB6861
:101AB8007B61FB681968FB885B007A69D418084663
:101AC800FFF744FB0346238000BF012318461C3759
:101AD800BD4690BD80B485B000AF78603960002302
:101AE800FB7397F90F3018461437BD465DF8047B31
:101AF8007047000080B584B000AF7860396000237B
:101B0800FB727B68002B05D1374809F03BFD4FF08D
:101B1800FF3365E03B68002B05D1344809F032FDFE
:101B28004FF0FF335CE0324BD3E900014FF0000285
:101B38004FF04043FEF748FF0346002B06D03B68B2
:101B4800D3E900232A49C1E9002305E0284BD3E95A
:101B580000233968C1E90023254BD3E900014FF080
:101B68000002244BFEF730FF0346002B02D0224828
:101B780009F008FD7B685B681B68204A13607B6876
:101B88005B685B681E4A13607B685B689B681D4ADC
:101B980013607B685B68DB681B4A13601B4B002281
:101BA8001A600AF0AFF90023FB600023FB6007E02E
:101BB800174AFB68174942F82310FB680133FB609A
:101BC800FB68062BF4D909F0DDFD0346FB7297F993
:101BD8000B30002B02D1104B01221A7097F90B30F1
:101BE80018461037BD4680BDE08501080486010807
:101BF800080000200000F0BF30860108040F002014
:101C0800080F00200C0F0020100F0020140F0020D8
:101C18003C02002075BF0008010F002080B586B087
:101C280000AF78600023FB7500233B610023FB7342
:101C38002A4B1B78DBB2002B0CBF01230023DBB23D
:101C4800BB73274B02221A707B68002B0BD1234BE6
:101C58001B78DBB2002B06D1224B1B78DBB2002BA2
:101C680001D1012300E00023FB7316E00A200FF0E6
:101C780089FD3B6903F51C5310333B617B68B3F165
:101C8800FF3F05D03A697B689A4201D9012300E0F9
:101C98000023FB73002009F0CDFD104B1B78DBB24D
:101CA800002B07D10F4B1B78DBB2002B02D1FB7B3B
:101CB800002BDBD00A4B03221A70FB7B002B01D0D0
:101CC8009C23FB75BB7B002B01D00AF049FA97F9DE
:101CD800173018461837BD4680BD00BFFF0E0020DC
:101CE800010F0020000F002080B588B000AF034628
:101CF80087ED000BFB810023FB770123BB774FF0B7
:101D080000024FF00003D7E90001FEF767FE034623
:101D1800002B05D02F4809F035FC4FF0FF3355E074
:101D2800FB89FF2B08D9FB89FF2219462A4809F0AD
:101D380029FC4FF0FF3349E0284B1B78DBB2032B1B
:101D480004D0264B1B78DBB2012B02D1234B042293
:101D58001A70FB89062B15D8FB89214A52F82330C3
:101D6800002B0FD00AF0BEFD03467B777B7F022B4A
:101D780008D1FB891A4A52F82330FA891046984745
:101D88000346BB77FB897B83FB89184697ED000BDD
:101D980009F0B6FC7861BB7F002B07D07B8B796993
:101DA80018460AF07BFD0346FB7703E07B8B184659
:101DB8000AF0D3FD97F91F30002B05D097F91F3093
:101DC8001946084809F0DEFB97F91F3018462037F6
:101DD800BD4680BD9C860108E0860108010F0020F1
:101DE8003C0200202087010880B582B000AF0023A4
:101DF800FB71002009F01EFD0346FB7197F90730BF
:101E080018460837BD4680BD80B582B000AF0023B4
:101E1800FB710B4B06221A7009F0AAFD0346FB71F1
:101E28001C220021074816F0E3FA0AF01FF9044BB8
:101E380000221A7097F9073018460837BD4680BD4A
:101E4800010F00203C02002080B400AF034B1B7838
:101E5800DBB21846BD465DF8047B7047000F0020D2
:101E680080B400AF034B1B78DBB21846BD465DF863
:101E7800047B7047180F002080B483B000AF7860EF
:101E88007B681B6843F001027B681A6000BF0C374F
:101E9800BD465DF8047B704780B483B000AF7860BE
:101EA8007B681B6823F001027B681A6000BF0C374F
:101EB800BD465DF8047B704780B483B000AF78609E
:101EC80039607B681B6823F004023B681A437B680F
:101ED8001A6000BF0C37BD465DF8047B704780B4BC
:101EE80083B000AF78607B681B6803F00403184672
:101EF8000C37BD465DF8047B704780B483B000AFF3
:101F0800786039607B683A681A6300BF0C37BD4651
:101F18005DF8047B704780B483B000AF78603960A7
:101F28007B681A6A3B681A437B681A6200BF0C37E1
:101F3800BD465DF8047B704780B483B000AF78601D
:101F480039607B681A6A3B68DB431A407B681A620F
:101F580000BF0C37BD465DF8047B704780B483B082
:101F680000AF786039607B683A685A6300BF0C3705
:101F7800BD465DF8047B704780B483B000AF7860DD
:101F880039607B683A689A6300BF0C37BD465DF8D4
:101F9800047B704780B483B000AF786039607B6899
:101FA8003A68DA6300BF0C37BD465DF8047B7047BA
:101FB80080B483B000AF78607B685B6B18460C37E1
:101FC800BD465DF8047B704780B483B000AF78608D
:101FD8007B689B6B18460C37BD465DF8047B7047E1
:101FE80080B483B000AF78607B68DB6B18460C3731
:101FF800BD465DF8047B704780B483B000AF78605D
:102008007B685B6C43F400427B685A6400BF0C3702
:10201800BD465DF8047B704780B483B000AF78603C
:102028007B685B6C03F40043B3F5004F01D10123D7
:1020380000E0002318460C37BD465DF8047B704766
:1020480080B483B000AF78607B685B6943F00102BD
:102058007B685A6100BF0C37BD465DF8047B70474A
:1020680080B483B000AF786039607B683A689A6161
:1020780000BF0C37BD465DF8047B704780B483B061
:1020880000AF786039603B681A047B689A6100BFCA
:102098000C37BD465DF8047B704780B582B000AF51
:1020A800786039607B681B681846FFF781FF024635
:1020B8003B68934205D07B681B6839681846FFF770
:1020C8004DFF00BF0837BD4680BD80B582B000AF68
:1020D800786039607B681B681846FFF775FF024611
:1020E8003B68934205D07B681B6839681846FFF740
:1020F80043FF00BF0837BD4680BD80B582B000AF42
:10210800786039607B681B681846FFF769FF0246EC
:102118003B68934205D07B681B6839681846FFF70F
:1021280039FF00BF0837BD4680BD80B485B000AF19
:1021380078607B681B689B6803F00703FB60FB689B
:10214800062B0CBF01230023DBB218461437BD460B
:102158005DF8047B7047000080B584B000AF7860FC
:102168000B46FB707B681B681846FFF7B8FEF860E3
:10217800FB78002B0FD07B681B68234A934204D05E
:102188007B681B68214A934205D17B681B68002144
:102198001846FFF7B2FEFB68042B11D07B681B685A
:1021A80004211846FFF788FE7B681B681846FFF76E
:1021B80047FF7B681B68F9681846FFF77DFE04E057
:1021C8007B681B681846FFF73BFF7B681B6818464F
:1021D800FFF752FEFB78002B11D07B681B680A4A78
:1021E800934204D07B681B68084A934207D17B68F6
:1021F8001A687B685B7919461046FFF77EFE00BFB8
:102208001037BD4680BD00BF0000014000040140FA
:1022180080B582B000AF78607B681B681846FFF70E
:102228003BFE00BF0837BD4680BD000080B582B0C8
:1022380000AF78600B46FB70FB78012B16D17B68EA
:102248001B680C4A934204D07B681B680A4A934275
:102258000CD17B681B681846FFF7DEFE0346002B8F
:1022680004D17B681B681846FFF7C6FE00BF083715
:10227800BD4680BD000001400004014080B400AFAD
:10228800234BB3F80222013292B2A3F80222204B68
:10229800B3F80232012B03D91D4B0022A3F8022206
:1022A8001B4BB3F80422013292B2A3F80422184B54
:1022B800B3F80432132B03D9154B0022A3F80422D8
:1022C800134BB3F80622013292B2A3F80622104B40
:1022D800B3F80632B3F5FA6F03D30D4B0022A3F817
:1022E80006220B4BB3F80822013292B2A3F8082257
:1022F800074BB3F8083244F61F62934203D9044BE4
:102308000022A3F8082200BFBD465DF8047B704791
:10231800280B002090B591B000AFF860B9607A60E2
:102328003B600023FB630023BB6369E0FB6B9B00FE
:10233800BA6813441B687B63BB6B5A1CBA63DB0027
:102348003A681344D3E90023C7E90A237B6BDB000F
:10235800FA681344D3E90001D7E90A23FDF714FF0B
:1023680002460B46C7E90823BB6BDB003A681344F7
:10237800D3E90001D7E90A23FDF706FF02460B4619
:10238800C7E90623D7E90623D7E90801FEF7DEF9EE
:1023980002460B4643EC172BB0EE470AF0EE670AED
:1023A80014F0CAFA53EC102B10461946FEF754FBEA
:1023B80003467B617B69002B1CD07869FEF732F8F5
:1023C800D7E90623FEF798F802460B46D7E9080135
:1023D800FDF7DAFE02460B46104619467B6BDB001A
:1023E800FA68D418D7E90A23FDF7D0FE02460B464F
:1023F800C4E90023FB6B0133FB63BB6B0133BB6395
:10240800FA6B7B689A4291DB00BF00BF4437BD4638
:1024180090BD00002DE9F04399B000AF78607B686B
:10242800DB6F1B68D3E90023C7E914237B68D3E972
:102438000623C7E912237B681B6AD3E90023C7E98F
:1024480010237B68D3F884301B68FB637B689B6828
:10245800BB63BB6B1B687B63BB6B5B683B63BB6B22
:102468009B68FB62BB6BDB68BB6204237B627B6897
:102478005B6800221A707B6ADB001A46F96B786B7E
:10248800FEF79CFB7B689B6F3A6B1A6006F094FE24
:10249800774BD3E90001D7E91023FEF72DF8024660
:1024A8000B46C7E902230023FB6524E0FB6DDB0034
:1024B8007A6B1344D3E90045FB6DDB003A6B134498
:1024C800D3E90001D7E90223FEF716F802460B46C6
:1024D80010461946FB6DDB00FA6BD61802460B4610
:1024E80020462946FDF752FE02460B46C6E9002360
:1024F800FB6D0133FB65FA6D7B6A9A42D6DB5D4B57
:10250800D3E90001D7E91023FDF7F6FF02460B4691
:10251800104619467B68DB6F1C68D7E91423FDF762
:1025280035FE02460B46C4E900237B689B6FFA6AB6
:102538001A6001F059F906F03FFE0023FB6516E02A
:102548004B4AFB6D0333DB001344D3E90001D7E9A1
:102558001023FDF7D1FF02460B46F96DC900603123
:1025680039445839C1E90023FB6D0133FB65FB6D24
:10257800012BE5DD0023FB6538E0FB6DDB007A6BA2
:102588001344D3E90045FB6DDB003A6B1344D3E9F0
:102598000001D7E90223FDF7AFFF02460B4690463C
:1025A8009946FB6DDB00FA6A1344D3E90001D7E9C9
:1025B8000423FDF7A1FF02460B4640464946FDF7B6
:1025C800E5FD02460B4610461946FB6DDB00FA6B2B
:1025D800D61802460B4620462946FDF7D7FD024687
:1025E8000B46C6E90023FB6D0133FB65FA6D7B6A78
:1025F8009A42C2DB1F4BD3E90201D7E91023FDF74A
:102608007BFF02460B46104619467B68DB6F1C6849
:10261800D7E91423FDF7BAFD02460B46C4E90023A7
:102628007B689B6FBA6A1A6001F0DEF806F0C4FD99
:102638000023FB6516E00E4AFB6D0633DB001344EE
:10264800D3E90001D7E91023FDF756FF02460B46F0
:10265800F96DC900603139445839C1E90023FB6D6F
:102668000133FB65FB6D022BE5DD0023FB6550E0C4
:1026780090AE0108D8AE0108FB6DDB007A6B1344FD
:10268800D3E90045FB6DDB003A6B1344D3E9000145
:10269800D7E90223FDF730FF02460B4690469946DC
:1026A800FB6DDB00FA6A1344D3E90001D7E9042380
:1026B800FDF722FF02460B4640464946FDF766FDF8
:1026C80002460B4690469946FB6DDB00BA6A1344F6
:1026D800D3E90001D7E90623FDF70EFF02460B46B2
:1026E80040464946FDF752FD02460B46104619463C
:1026F800FB6DDB00FA6BD61802460B4620462946CE
:10270800FDF744FD02460B46C6E90023FB6D013385
:10271800FB65FA6D7B6A9A42AEDB7B68DB6F1968F2
:10272800D7E91223C1E900237B68D3F884301868FD
:102738007B68D3F88C3019687B68D3F890301B68B5
:102748000122FFF7E7FD7B685B6801221A7000BF72
:102758006437BD46BDE8F08380B483B000AF7860CD
:102768007B684FF0FF321A6000BF0C37BD465DF83A
:10277800047B704780B483B000AF78607B684FF00B
:10278800FF321A6000BF0C37BD465DF8047B704706
:1027980080B485B000AF0346B9607A60FB817B687E
:1027A8004FF0FF321A60FB89DB039AB2BB681A80CC
:1027B80000BF1437BD465DF8047B704780B483B012
:1027C80000AF78607B684FF0FF321A6000BF0C37AB
:1027D800BD465DF8047B704780B483B000AF786075
:1027E8007B684FF0FF321A6000BF0C37BD465DF8BA
:1027F800047B704780B485B000AF0346B9607A6047
:10280800FB817B684FF0FF321A60FB89DB029AB2CA
:10281800BB681A8000BF1437BD465DF8047B70475B
:1028280080B59AB000AF78607B6800221A727B6826
:1028380001225A600023BB620023FB62254BBB6068
:10284800002387F84E3000233B6300237B6301237A
:1028580087F84C30022387F84D300023FB600023B3
:1028680087F85C3000233B61002387F85D307B6884
:1028780000221A617B68184A5A61012387F8673079
:102888007B680E229A617B68012283F824207B688A
:1028980097F867201A777B680F221A627B681033D3
:1028A8003B6607F10803396E1846FEF781FC0246BD
:1028B8007B68DA607B68D86803234FF47062022172
:1028C800FEF788FD7B6801221A7200BF6837BD4693
:1028D80080BD00BF003C00400008024080B582B0C7
:1028E80000AF78607B6800225A607B6800221A700B
:1028F8007B68012283F828207B681846FFF790FF41
:1029080000BF0837BD4680BD80B58CB002AF786087
:102918007B68D86803234FF470620221FEF75AFDE2
:102928000346FB84FB8C002B10D17B68D86807F129
:102938000801012301930123009301230F22FEF7CD
:10294800E3FE4FF480410348FFF78AFB00BF2837B6
:10295800BD4680BD0008024080B586B002AF7860F1
:102968007B681B78002B16D17B6801221A707B6864
:102978005B68012B0FD17B681B7A002B0BD04FF0C3
:10298800FF33FB607B68D8680E230093FB68FA6806
:10299800F968FFF731F800BF1037BD4680BD000069
:1029A80080B59AB000AF78600023BB620023FB6259
:1029B800234BBB60002387F84E3000233B63002382
:1029C8007B63012387F84C30022387F84D300023BE
:1029D800FB60002387F85C3000233B61002387F805
:1029E8005D307B6800221A617B68164A5A610123B0
:1029F80087F867307B680E229A617B68012283F82A
:102A080024207B6897F867201A777B6801221A626E
:102A18007B6810333B6607F10803396E1846FEF7EA
:102A2800C7FB02467B68DA607B68D86803234FF4EB
:102A380070620221FEF7CEFC00BF6837BD4680BD3C
:102A4800003C00400008024080B582B000AF7860CA
:102A58007B6800221A707B68012283F828207B6833
:102A680000221A727B6801225A607B681846FFF7B9
:102A780097FF7B6801221A7200BF0837BD4680BDE8
:102A880080B586B002AF03463960FB803B68D868E2
:102A980003234FF470620221FEF79CFC0346FB817E
:102AA800FB89002B0FD14FF480410948FFF7E6FA64
:102AB8003B68D868B91D01230193012300930123C2
:102AC8000122FEF782FD00BF1037BD4680BD00BF62
:102AD8000008024080B586B002AF78607B681B783A
:102AE800002B16D17B6801221A707B685B68012B6A
:102AF8000FD17B681B7A002B0BD04FF0FF33FB60A4
:102B08007B68D8680E230093FB68FA68F968FEF7BB
:102B180073FF00BF1037BD4680BD000080B59AB076
:102B280000AF78607B6800221A727B6801225A60C5
:102B38000023BB620023FB62254BBB60002387F8A0
:102B48004E3000233B6300237B63012387F84C301E
:102B5800022387F84D300023FB60002387F85C30A0
:102B680000233B61002387F85D307B6800221A61EF
:102B78007B68184A5A61012387F867307B680E2200
:102B88009A617B68012283F824207B6897F8672084
:102B98001A777B6801221A627B6810333B6607F15B
:102BA8000803396E1846FEF703FB02467B68DA60B5
:102BB8007B68D86803234FF470620221FEF70AFC91
:102BC8007B6801221A7200BF6837BD4680BD00BF0E
:102BD800003C00400008024080B582B000AF786039
:102BE8007B6800225A607B6800221A707B68012289
:102BF80083F828207B681846FFF790FF00BF083746
:102C0800BD4680BD80B586B002AF786039603B684C
:102C1800D86803234FF470620221FEF7DBFB0346FA
:102C2800FB81FB89002B0FD13B68D86879680123A9
:102C380001930123009301230122FEF765FD4FF460
:102C480080410348FFF70CFA00BF1037BD4680BD2E
:102C58000008024080B586B002AF78607B681B78B8
:102C6800002B16D17B6801221A707B685B68012BE8
:102C78000FD17B681B7A002B0BD04FF0FF33FB6022
:102C88007B68D8680E230093FB68FA68F968FEF73A
:102C9800B3FE00BF1037BD4680BD000080B59AB0B6
:102CA80000AF78607B6800221A727B6801225A6044
:102CB8000023BB620023FB62254BBB60002387F81F
:102CC8004E3000233B6300237B63012387F84C309D
:102CD800022387F84D300023FB60002387F85C301F
:102CE80000233B61002387F85D307B6800221A616E
:102CF8007B68184A5A61012387F867307B680E227F
:102D08009A617B68012283F824207B6897F8672002
:102D18001A777B680F221A627B6810333B6607F1CB
:102D28000803396E1846FEF743FA02467B68DA60F4
:102D38007B68D86803234FF470620221FEF74AFBD0
:102D48007B6801221A7200BF6837BD4680BD00BF8C
:102D5800003C00400008024080B582B000AF7860B7
:102D68007B6800225A607B6800221A707B68012207
:102D780083F828207B681846FFF790FF00BF0837C4
:102D8800BD4680BD80B586B002AF786039603B68CB
:102D9800D86803234FF470620221FEF71BFB034639
:102DA800FB81FB89002B0FD13B68D8687968012328
:102DB80001930123009301230F22FEF7A5FC4FF492
:102DC80080410348FFF74CF900BF1037BD4680BD6E
:102DD8000008024080B586B002AF78607B681B7837
:102DE800002B16D17B6801221A707B685B68012B67
:102DF8000FD17B681B7A002B0BD04FF0FF33FB60A1
:102E08007B68D8680E230093FB68FA68F968FEF7B8
:102E1800F3FD00BF1037BD4680BD000080B59AB0F5
:102E280000AF78600023BB620023FB62234BBB60CA
:102E3800002387F84E3000233B6300237B63012384
:102E480087F84C30022387F84D300023FB600023BD
:102E580087F85C3000233B61002387F85D307B688E
:102E680000221A617B68164A5A61012387F8673085
:102E78007B680E229A617B68012283F824207B6894
:102E880097F867201A777B6801221A627B681033EB
:102E98003B6607F10803396E1846FEF789F90246C2
:102EA8007B68DA607B68D86803234FF4706202217C
:102EB800FEF790FA00BF6837BD4680BD003C004071
:102EC8000008024080B582B000AF78607B680022BD
:102ED8001A707B68012283F828207B6800221A7206
:102EE8007B6801225A607B681846FFF797FF7B686A
:102EF80001221A7200BF0837BD4680BD80B586B072
:102F080002AF03463960FB803B68D86803234FF45F
:102F180070620221FEF75EFA0346FB81FB89002BF3
:102F28000FD14FF480410948FFF7A8F83B68D868EB
:102F3800B91D012301930123009301230122FEF708
:102F480044FB00BF1037BD4680BD00BF00080240EB
:102F580080B586B002AF78607B681B78002B16D1ED
:102F68007B6801221A707B685B68012B0FD17B6834
:102F78001B7A002B0BD04FF0FF33FB607B68D868BF
:102F88000E230093FB68FA68F968FEF735FD00BF69
:102F98001037BD4680BD0000B0B586B000AF87EDE4
:102FA800020B786097ED020B13F0C6FC87ED040B5B
:102FB80097ED040B07F0F6F80346002B06D197EDC2
:102FC800040B07F09FF80346002B06D04FF00002D1
:102FD8004FF00003C7E9042307E09FED1F1B97ED9F
:102FE800040B13F017FA87ED040B4FF000024FF0B3
:102FF8000003D7E90401FDF7F1FC0346002B12D0CA
:103008003C697B6983F0004520462946FDF74CFD65
:1030180003469BB25B429BB21BB21846FDF702FA0D
:1030280002460B460BE0D7E90401FDF73DFD0346D8
:103038009BB21BB21846FDF7F5F902460B46D7E9D5
:103048000201FDF7A1F802460B467968C1E90023A1
:1030580000BF1837BD46B0BD000000000000F040BA
:10306800B0B586B000AF87ED020B786097ED020B24
:1030780013F0E6FC87ED040B97ED040B07F092F8CC
:103088000346002B06D197ED040B07F03BF80346E7
:10309800002B06D04FF000024FF00003C7E90423CD
:1030A80007E09FED1F1B97ED040B13F0B3F987EDB5
:1030B800040B4FF000024FF00003D7E90401FDF7BD
:1030C8008DFC0346002B12D03C697B6983F00045D8
:1030D80020462946FDF7E8FC03469BB25B429BB2BB
:1030E8001BB21846FDF79EF902460B460BE0D7E9DE
:1030F8000401FDF7D9FC03469BB21BB21846FDF745
:1031080091F902460B46D7E90201FDF73DF8024660
:103118000B467968C1E9002300BF1837BD46B0BD2A
:10312800000000000000F040F0B58BB000AF87ED64
:10313800020B87ED001BD7E90223C7E908234FF0EC
:1031480000024FF00003D7E90001FDF73DFC0346FC
:10315800002B10D04FF000024FF00003D7E9020116
:10316800FDF732FC0346002B00F01281D7E900235B
:10317800C7E908230CE197ED020B07F013F80346A3
:10318800002B0DD197ED000B07F00CF80346002B30
:1031980006D197ED020B06F0B5FF0346002B05D0CC
:1031A800814BD3E90023C7E90823F1E04FF000027F
:1031B8004FF00003D7E90201FDF706FC0346002B98
:1031C8000CD0D7E900234FF000004FF00001FDF7C5
:1031D800BDFA02460B46C7E90823D9E097ED000B74
:1031E80006F090FF0346002B29D001231C464FF020
:1031F80000024FF00003D7E90001FDF7EFFB03469B
:10320800002B01D100231C46E4B201231D464FF0D8
:1032180000024FF00003D7E90201FDF7DFFB034688
:10322800002B01D100231D46EBB26340DBB2002B1B
:1032380000F0AE80D7E90023C7E90823A8E097ED9E
:10324800001B97ED020B13F0E5F887ED080B01233F
:103258001E464FF000024FF00003D7E90801FDF7C2
:10326800B3FB0346002B01D100231E46F3B2FB77C4
:10327800FB7F002B4ED197ED000B13F05DFB53EC59
:10328800102BD7E90001FDF7C7FB0346002B41D0FF
:10329800D7E90023D7E90201FDF758FA02460B46A1
:1032A8001146396123F000437B614FF000023F4B28
:1032B800D7E90401FCF76AFF02460B4643EC172BDB
:1032C800B0EE470AF0EE670A13F036FB53EC102B0A
:1032D800D7E90401FCF758FF02460B46144623F0D1
:1032E80000454FF00002324BD7E90401FDF704F91D
:1032F80002460B4601210E4620462946FDF78CFB67
:103308000346002B01D100231E46F3B283F00103CC
:10331800DBB2FB77FB7F002B0CD04FF000024FF0A5
:103328000003D7E90001FDF7E7F802460B46C7E9B5
:1033380008232DE001231C464FF000024FF0000344
:10334800D7E90201FDF74AFB0346002B01D1002310
:103358001C46E4B201231D464FF000024FF0000363
:10336800D7E90001FDF73AFB0346002B01D1002302
:103378001D46EBB26340DBB2002B09D0D7E900232E
:10338800D7E90801FCF702FF02460B46C7E9082304
:10339800D7E9082343EC172BB0EE470AF0EE670A8B
:1033A8002C37BD46F0BD00BF000000200000E03F04
:1033B8000000B03C80B59AB000AF78607B6800220E
:1033C8001A727B6801225A600023BB620023FB62E9
:1033D800254BBB60002387F84E3000233B63002356
:1033E8007B63012387F84C30022387F84D30002394
:1033F800FB60002387F85C3000233B61002387F8DB
:103408005D307B6800221A617B68184A5A61012383
:1034180087F867307B680E229A617B68012283F8FF
:1034280024207B6897F867201A777B6810221A6235
:103438007B6810333B6607F10803396E1846FDF7C1
:10344800B7FE02467B68DA607B68D86803234FF4CE
:1034580070620221FDF7BEFF7B6801221A7200BF6D
:103468006837BD4680BD00BF003C004000080240F0
:1034780080B59AB000AF78600023BB620023FB627E
:10348800234BBB60002387F84E3000233B630023A7
:103498007B63012387F84C30022387F84D300023E3
:1034A800FB60002387F85C3000233B61002387F82A
:1034B8005D307B6800221A617B68164A5A610123D5
:1034C80087F867307B680E229A617B68012283F84F
:1034D80024207B6897F867201A777B6801221A6294
:1034E8007B6810333B6607F10803396E1846FDF711
:1034F8005FFE02467B68DA607B68D86803234FF476
:1035080070620221FDF766FF00BF6837BD4680BDC7
:10351800003C00400008024080B59AB000AF7860D7
:103528007B6800221A727B6801225A600023BB6202
:103538000023FB62254BBB60002387F84E30002335
:103548003B6300237B63012387F84C30022387F811
:103558004D300023FB60002387F85C3000233B617B
:10356800002387F85D307B6800221A617B68184A5F
:103578005A61012387F867307B680E229A617B685D
:10358800012283F824207B6897F867201A777B68E4
:1035980001221A627B6810333B6607F10803396E13
:1035A8001846FDF705FE02467B68DA607B68D86836
:1035B80003234FF470620221FDF70CFF7B680122A0
:1035C8001A7200BF6837BD4680BD00BF003C00408E
:1035D8000008024080B58CB002AF78607B6800229A
:1035E8001A727B6801225A600023BB6100237B7436
:1035F800184BFB6100233B620023BB74002387F850
:103608002430012387F825300123FB6001233B7414
:1036180007F10C000023009304230122012112F07A
:1036280037FD02467B68DA607B68DB68184612F073
:10363800D7FD7B68DB680121184612F01DFD7B6809
:1036480001221A727B6800225A7200BF2837BD46D1
:1036580080BD00BF0021014080B58CB002AF78600A
:103668007B6800221A727B6801225A600023BB61C2
:1036780000237B74184BFB6100233B620023BB745F
:10368800002387F82430012387F825300123FB60C5
:1036980001233B7407F10C0000230093042301224B
:1036A800012112F0F5FC02467B68DA607B68DB6872
:1036B800184612F095FD7B68DB680121184612F068
:1036C800DBFC7B6801221A727B6800225A7200BFF9
:1036D8002837BD4680BD00BF0022014080B5A6B096
:1036E80000AF78601D4BBB6000233B7300237B73E6
:1036F80007F10803184612F075FA02467B68DA608B
:103708007B68DB680021184611F0C8FF7B68DB681E
:103718000421184612F0F6F87B68DB680421184685
:1037280012F068F97B68DB680421184612F0DAF9B0
:103738007B68DB681846FEF7F8FC034687F8973085
:1037480097F89730002B05D17B68DB680021184675
:10375800FEF702FD00BF9837BD4680BD000401405A
:1037680080B58CB002AF78607B6800221A727B68E3
:1037780001225A600023BB6100237B74184BFB6154
:1037880000233B620023BB74002387F82430012305
:1037980087F825300123FB6001233B7407F10C00F7
:1037A8000023009304230122012112F071FC024638
:1037B8007B68DA607B68DB68184612F011FD7B686D
:1037C800DB680121184612F057FC7B6801221A7247
:1037D8007B6800225A7200BF2837BD4680BD00BFF3
:1037E80000200140000000002DE9F04FADF5137DE9
:1037F80002AFD04B93F82032012B10D1CD4BD3F828
:10380800D83101331846FCF7FDFDCA4BD3E97823BC
:10381800C84CFCF771FE02460B46C4E90823C54BA9
:1038280093F82032002B0AD1C24BD3F884301A689F
:10383800C04BD3F82412D2E90023C1E90023BE4BC0
:1038480093F9FD3287F89331002387F8C43197F84C
:103858009331042B1FD801A252F823F079380008BD
:10386800813800088938000891380008993800081C
:10387800002387F8C4310EE0032387F8C4310AE037
:10388800032387F8C43106E0002387F8C43102E037
:10389800002387F8C43197F9C431A74A82F8FD326A
:1038A800A54B93F9FC3287F89231002387F8C3318E
:1038B80097F89231042B20D801A252F823F000BFC8
:1038C800DD380008E5380008ED380008F53800084C
:1038D800FD380008002387F8C3310EE0032387F87A
:1038E800C3310AE0032387F8C33106E0002387F8D1
:1038F800C33102E0002387F8C33197F9C3318E4AF8
:1039080082F8FC328C4B93F9FB3287F89131002313
:1039180087F8C23197F89131042B20D801A252F8C8
:1039280023F000BF4139000849390008513900081F
:103938005939000861390008002387F8C2310EE0C0
:10394800032387F8C2310AE0032387F8C23106E06F
:10395800002387F8C23102E0002387F8C23197F9C3
:10396800C231754A82F8FB32734B93F9FA3287F801
:103978009031002387F8C13197F89031042B20D873
:1039880001A252F823F000BFA5390008AD3900089C
:10399800B5390008BD390008C5390008002387F883
:1039A800C1310EE0032387F8C1310AE0032387F809
:1039B800C13106E0002387F8C13102E0002387F80F
:1039C800C13197F9C1315C4A82F8FA325A4B93F9FE
:1039D800F93287F88F31002387F8C03197F88F3193
:1039E800042B20D801A252F823F000BF093A00089E
:1039F800113A0008193A0008213A0008293A000843
:103A0800002387F8C0310EE0032387F8C0310AE0AD
:103A1800032387F8C03106E0002387F8C03102E0AD
:103A2800002387F8C03197F9C031434A82F8F93248
:103A3800414B93F9F83287F88E31002387F8BF316C
:103A480097F88E31042B20D801A252F823F000BF3A
:103A58006D3A0008753A00087D3A0008853A000872
:103A68008D3A0008002387F8BF310EE0032387F85A
:103A7800BF310AE0032387F8BF3106E0002387F847
:103A8800BF3102E0002387F8BF3197F9BF312A4AD6
:103A980082F8F832284B93F9F73287F88D310023F2
:103AA80087F8BE3197F88D31042B20D801A252F83F
:103AB80023F000BFD13A0008D93A0008E13A0008DB
:103AC800E93A0008F13A0008002387F8BE310EE011
:103AD800032387F8BE310AE0032387F8BE3106E0E6
:103AE800002387F8BE3102E0002387F8BE3197F93A
:103AF800BE31114A82F8F7320F4B93F9F63287F844
:103B08008C31002387F8BD3197F88C31042B24D8E9
:103B180001A252F823F000BF353B0008453B0008DE
:103B28004D3B0008553B00085D3B0008002387F823
:103B3800BD3112E0280B002078050020032387F808
:103B4800BD310AE0032387F8BD3106E0002387F87A
:103B5800BD3102E0002387F8BD3197F9BD31D64A5F
:103B680082F8F632D44B93F9F53287F88B3100237B
:103B780087F8BC3197F88B31042B20D801A252F872
:103B880023F000BFA13B0008A93B0008B13B000897
:103B9800B93B0008C13B0008002387F8BC310EE0A0
:103BA800032387F8BC310AE0032387F8BC3106E019
:103BB800002387F8BC3102E0002387F8BC3197F96D
:103BC800BC31BD4A82F8F532BB4B93F9F43287F821
:103BD8008A31002387F8BB3197F88A31042B20D823
:103BE80001A252F823F000BF053C00080D3C000874
:103BF800153C00081D3C0008253C0008002387F8F8
:103C0800BB310EE0032387F8BB310AE0032387F8B2
:103C1800BB3106E0002387F8BB3102E0002387F8B8
:103C2800BB3197F9BB31A44A82F8F432A24B93F91D
:103C38001B3387F88931002387F8BA3197F889311F
:103C4800042B20D801A252F823F000BF693C0008D9
:103C5800713C0008793C0008813C0008893C000858
:103C6800002387F8BA310EE0032387F8BA310AE057
:103C7800032387F8BA3106E0002387F8BA3102E057
:103C8800002387F8BA3197F9BA318B4A82F81B3387
:103C9800894B93F91A3387F88831002387F8B931AB
:103CA80097F88831042B20D801A252F823F000BFDE
:103CB800CD3C0008D53C0008DD3C0008E53C000888
:103CC800ED3C0008002387F8B9310EE0032387F89C
:103CD800B9310AE0032387F8B93106E0002387F8F1
:103CE800B93102E0002387F8B93197F9B931724A3E
:103CF80082F81A33704B93F9F33287F8873100232F
:103D080087F8B83197F88731042B20D801A252F8E8
:103D180023F000BF313D0008393D0008413D00084F
:103D2800493D0008513D0008002387F8B8310EE0EE
:103D3800032387F8B8310AE0032387F8B83106E08F
:103D4800002387F8B83102E0002387F8B83197F9E3
:103D5800B831594A82F8F332574B93F9F23287F85F
:103D68008631002387F8B73197F88631042B20D89D
:103D780001A252F823F000BF953D00089D3D0008C0
:103D8800A53D0008AD3D0008B53D0008002387F8B3
:103D9800B7310EE0032387F8B7310AE0032387F829
:103DA800B73106E0002387F8B73102E0002387F82F
:103DB800B73197F9B731404A82F8F2323E4B93F95E
:103DC800F13287F88531002387F8B63197F88531C5
:103DD800042B20D801A252F823F000BFF93D0008B7
:103DE800013E0008093E0008113E0008193E00087F
:103DF800002387F8B6310EE0032387F8B6310AE0CE
:103E0800032387F8B63106E0002387F8B63102E0CD
:103E1800002387F8B63197F9B631274A82F8F1328C
:103E2800254B93F9F03287F88431002387F8B531B0
:103E380097F88431042B20D801A252F823F000BF50
:103E48005D3E0008653E00086D3E0008753E0008AE
:103E58007D3E0008002387F8B5310EE0032387F87C
:103E6800B5310AE0032387F8B53106E0002387F867
:103E7800B53102E0002387F8B53197F9B5310E4A1C
:103E880082F8F0320C4B93F9EF3287F88331002334
:103E980087F8B43197F88331042B22D801A252F85D
:103EA80023F000BFC53E0008CD3E0008D53E0008FF
:103EB800DD3E0008E53E000878050020002387F86D
:103EC800B4310EE0032387F8B4310AE0032387F8FE
:103ED800B43106E0002387F8B43102E0002387F804
:103EE800B43197F9B431CE4A82F8EF32CC4B93F91A
:103EF800EE3287F88231002387F8B33197F88231A0
:103F0800042B20D801A252F823F000BF293F000853
:103F1800313F0008393F0008413F0008493F000889
:103F2800002387F8B3310EE0032387F8B3310AE0A2
:103F3800032387F8B33106E0002387F8B33102E0A2
:103F4800002387F8B33197F9B331B54A82F8EE32D6
:103F5800B34B93F9ED3287F88131002387F8B231FA
:103F680097F88131042B20D801A252F823F000BF22
:103F78008D3F0008953F00089D3F0008A53F0008B9
:103F8800AD3F0008002387F8B2310EE0032387F81D
:103F9800B2310AE0032387F8B23106E0002387F83C
:103FA800B23102E0002387F8B23197F9B2319C4A66
:103FB80082F8ED329A4B93F9EC3287F8803100237E
:103FC80087F8B13197F88031042B20D801A252F834
:103FD80023F000BFF13F0008F93F00080140000846
:103FE8000940000811400008002387F8B1310EE0AD
:103FF800032387F8B1310AE0032387F8B13106E0DB
:10400800002387F8B13102E0002387F8B13197F92E
:10401800B131834A82F8EC32814B93F9EB3287F85D
:104028007F31002387F8B03197F87F31042B20D8EF
:1040380001A252F823F000BF554000085D40000877
:10404800654000086D40000875400008002387F8A7
:10405800B0310EE0032387F8B0310AE0032387F874
:10406800B03106E0002387F8B03102E0002387F87A
:10407800B03197F9B0316A4A82F8EB32684B93F95C
:10408800EA3287F87E31002387F8AF3197F87E311E
:10409800042B20D801A252F823F000BFB940000831
:1040A800C1400008C9400008D1400008D9400008B4
:1040B800002387F8AF310EE0032387F8AF310AE019
:1040C800032387F8AF3106E0002387F8AF3102E019
:1040D800002387F8AF3197F9AF31514A82F8EA32B5
:1040E8004F4B93F9E93287F87D31002387F8AE31D9
:1040F80097F87D31042B20D801A252F823F000BF95
:104108001D410008254100082D41000835410008DF
:104118003D410008002387F8AE310EE0032387F8FD
:10412800AE310AE0032387F8AE3106E0002387F8B2
:10413800AE3102E0002387F8AE3197F9AE31384A44
:1041480082F8E932364B93F9DE3287F87C31002366
:1041580087F8AD3197F87C31042B20D801A252F8AA
:1041680023F000BF814100088941000891410008FF
:1041780099410008A1410008002387F8AD310EE0FD
:10418800032387F8AD310AE0032387F8AD3106E051
:10419800002387F8AD3102E0002387F8AD3197F9A5
:1041A800AD311F4A82F8DE321E4B93F82032012BC4
:1041B8000AD11C4BB3F80032002B05D1184BD3F8A9
:1041C800C422194BC3F89022164B93F82032012BC6
:1041D80006D1144BB3F80232002B01D1012300E0C1
:1041E800002387F87B3197F87B31002B0BD00C4BE1
:1041F80093F8DC320C4A82F8AC32094B93F8DD3282
:10420800094A82F8AD32074B93F82032012B0DD1C1
:10421800044BB3F80432002B08D1012307E000BF98
:1042280078050020280B002058020020002387F87A
:104238007A3197F87A31002B00F07A82A64BB3F8DE
:10424800D82247F6FE739A4207D8A34BB3F8D83260
:1042580001339BB2A04AA2F8D8329F4BB3F8DA22B6
:1042680041F6FE739A4207D89B4BB3F8DA32013312
:104278009BB2994AA2F8DA32974B93F8FE32002B98
:1042880030D1954A012382F8FE32934A012382F8FD
:10429800FF32914A0023A2F8D8328F4A0123C2F88C
:1042A800D0328D494FF000024FF00003C1E984235A
:1042B800894A012382F80033874A0023A2F8DA32B8
:1042C800854A0323C2F8D43283494FF00002834B56
:1042D800C1E9822382494FF000024FF00003C1E98F
:1042E800902325E27C4BD3F8D032013B072B00F218
:1042F800F98001A252F823F0214300084F43000837
:1043080089430008C3430008FD43000837440008F8
:104318006F440008A74400086F4BB3F8D82244F64E
:104328001F639A4240F200816B4A0023A2F8D832F8
:10433800694A0223C2F8D03269494FF00002674B3C
:10434800C1E99623F0E066494FF00002634BC1E9EA
:104358009623614BB3F8D832B3F5FA6FC0F0E68014
:104368005D4A0023A2F8D8325B4A0423C2F8D0324F
:104378005B494FF000024FF00003C1E99623D5E0F6
:1043880057494FF000024FF00003C1E9A023524BF8
:10439800B3F8D832B3F5FA6FC0F0CA804E4A00239A
:1043A800A2F8D8324C4A0223C2F8D0324C494FF016
:1043B80000024A4BC1E99623BAE049494FF000028E
:1043C8004FF00003C1E99623434BB3F8D832B3F555
:1043D800FA6FC0F0AF80404A0023A2F8D8323E4AB4
:1043E8000523C2F8D0323E494FF000023B4BC1E9E9
:1043F80098239FE03A494FF00002384BC1E99823CF
:10440800354BB3F8D832B3F5FA6FC0F09580324A1D
:104418000023A2F8D832304A0623C2F8D0323049F5
:104428004FF000024FF00003C1E9982384E02C49C3
:104438004FF000024FF00003C1E99823264BB3F870
:10444800D832B3F5FA6F79D3234A0023A2F8D832C9
:10445800214A0723C2F8D03221494FF000021F4BEE
:10446800C1E99E236AE01E494FF000021B4BC1E9D7
:104478009E23194BB3F8D832B3F5FA6F60D3164AB6
:104488000023A2F8D832144A0823C2F8D0321449BB
:104498004FF000024FF00003C1E99E2350E010499D
:1044A8004FF000024FF00003C1E99E230A4BB3F816
:1044B800D832B3F5FA6F45D3074A0023A2F8D832A9
:1044C800054A0923C2F8D03205494FF00002034BD0
:1044D800C1E9A02336E000BF780500200000F03FC6
:1044E80058020020A2494FF00002A24BC1E9A023C4
:1044F800A14BB3F8D832B3F5FA6F25D39E4A0023FF
:10450800A2F8D8329C4A0323C2F8D03298494FF017
:1045180000024FF00003C1E9A02397494FF00002C1
:10452800944BC1E984230FE000BF0EE000BF0CE00C
:1045380000BF0AE000BF08E000BF06E000BF04E0DB
:1045480000BF02E000BF00E000BF8B4BD3F8D432BD
:10455800013B052B00F2B98001A252F823F000BFFD
:1045680081450008A7450008DF4500082F460008D8
:1045780069460008A14600087D494FF000027D4BBE
:10458800C1E99A237A494FF000027A4BC1E99C238A
:1045980077494FF00002774BC1E9A223C8E074497C
:1045A8004FF00002734BC1E99023734BB3F8DA3232
:1045B800B3F57A6FC0F0B3806F4A0023A2F8DA32FD
:1045C8006D4A0423C2F8D43269494FF00002694B9E
:1045D800C1E99423A3E066494FF000024FF00003BD
:1045E800C1E99023644BD3E982014FF00002614B8B
:1045F800FCF7EAF90346002B00D192E05E4BB3F8D2
:10460800DA32272B40F28D805B4A0023A2F8DA3297
:10461800594A0223C2F8D43255494FF00002554B8B
:10462800C1E990237DE052494FF00002514BC1E9A6
:104638009423514BB3F8DA2241F287339A4272D964
:104648004D4A0023A2F8DA324B4A0523C2F8D43285
:1046580047494FF000024FF00003C1E9942362E09C
:1046680043494FF000024FF00003C1E99423424B45
:10467800B3F8DA32B3F57A7F57D33F4A0023A2F86A
:10468800DA323D4A0623C2F8D43239494FF00002E3
:10469800384BC1E9922348E035494FF00002354BC9
:1046A800C1E99223344BB3F8DA2240F6B7339A4281
:1046B8003DD9314A0723C2F8D4322D494FF00002C0
:1046C8004FF00003C1E9922331E029494FF000027D
:1046D8004FF00003C1E99223274BD3E984014FF03F
:1046E8000002244BFCF770F90346002B00D11FE0B1
:1046F800214A0123C2F8D4321D494FF000021D4B54
:10470800C1E99A231A494FF000021A4BC1E99C23C8
:1047180017494FF00002174BC1E9A22308E000BF78
:1047280006E000BF04E000BF02E000BF00E000BFF9
:1047380097F87B31002B00F0C5810D4BD3E9900130
:104748004FF000024FF00003FCF73EF90346002B40
:1047580014D1074BD3E992014FF000024FF0000348
:10476800FCF732F90346002B08D1012307E000BF0C
:10477800580200200000F03F780500200023DBB23B
:10478800C44A82F8B132C34B93F8B132002B00F01F
:10479800B080C14B93F81533002B09D1BF48FDF702
:1047A800E9FFBF48FEF718F8BB4A012382F8153322
:1047B800B94B586B03234FF470620221FCF70AFED1
:1047C8000346194607F51073A3F5F9720B461380D3
:1047D80007F51073A3F5F9731B88002B10D1AE4BA6
:1047E800586B07F150010123019301230093012322
:1047F8001022FCF789FF4FF48041AA48FDF730FCEE
:1048080007F14E03A54A19460020FDF7C1FF07F13D
:104818004C03A34A19460320FDF7ECFF07F5107374
:10482800A3F5F9731A8807F51073A3F5FA731B88B3
:1048380013439AB29C4BB3F8AE3013439BB2954ADC
:10484800A2F8A632934BB3F8A632924AA2F8A8323D
:10485800914BD3F8840003234FF470620221FCF7D4
:10486800B9FD0346194607F51073A3F5F9720B460F
:10487800138007F51073A3F5F9731B88002B11D16A
:104888004FF480418748FDF7F9FB834BD3F8840048
:104898004FF47A7301930123009301230122834982
:1048A800FCF793FE7C4B93F9FB3287F8793197F844
:1048B800793187F8AC3197F87931042B13D801A2F4
:1048C80052F823F0E1480008EF480008EF480008D4
:1048D800E9480008EF480008022387F8AC3102E0F5
:1048E800012387F8AC3197F9AC316B4A82F8FB3277
:1048F80003E0694A002382F81533664BD3E9900137
:104908004FF000024FF00003FCF75EF80346002B5F
:104918000DD1604BD3E994014FF000024FF0000332
:10492800FCF752F80346002B01D1012300E00023D5
:10493800DBB2584A82F8B232564B93F8B232002BA7
:1049480000F0BC80544B93F81433002B09D158481D
:10495800FDF710FF5748FDF73FFF4F4A012382F844
:10496800143307F14E03524A19460020FDF710FF91
:1049780007F14C034F4A19460220FDF73BFF07F5A4
:104988001073A3F5F9731A8807F51073A3F5FA7372
:104998001B8813439AB2444BB3F8AC3013439BB211
:1049A8003C4AA2F8A4323C4BD86D03234FF4706202
:1049B8000221FCF70FFD0346194607F51073A3F50E
:1049C800F9720B46138007F51073A3F5F9731B886A
:1049D800002B0FD14FF480413248FDF74FFB2E4B8F
:1049E800D86D0A2301930123009301230122324940
:1049F800FCF7EBFD284BD86803234FF470620221C3
:104A0800FCF7E8FC0346194607F51073A3F5F9729D
:104A18000B46138007F51073A3F5F9731B88002B59
:104A280010D11D4BD86807F14E01012301930123D2
:104A3800009301230122FCF767FE4FF480411948D7
:104A4800FDF70EFB144B93F9FA3287F8783197F893
:104A5800783187F8AB3197F87831042B13D801A255
:104A680052F823F0814A00088F4A00088F4A00084C
:104A7800894A00088F4A0008022387F8AB3102E010
:104A8800012387F8AB3197F9AB31034A82F8FA3240
:104A980018E000BF5802002078050020FC0A00201A
:104AA800F40A002000080240F8AE010800050020C2
:104AB800EC0A0020E40A0020FC040020B44A002389
:104AC80082F8143397F87A31002B00F05181B14BFA
:104AD800DB681B78012B04D0AE4B93F8FC30002B1D
:104AE80006D0AC4B93F80C31002B01D1012300E028
:104AF800002387F8773197F87731002B3AD0A64B07
:104B0800D3E998014FF000024FF00003FBF784FF50
:104B18000346002B0FD09E4B93F80E33002B29D160
:104B28009E48FDF727FE9E48FDF756FE984A01234A
:104B380082F80E331EE0964B93F80E33002B19D0F3
:104B48000023C7F8D4310DE09349D7F8D43103F5E1
:104B5800AC735A000A4400239380D7F8D431013348
:104B6800C7F8D431D7F8D4310E2BEDDD884A0023AD
:104B780082F80E33864B93F80E33002B56D08949B2
:104B88008948FEF7FFF807F14E03844A19460120C9
:104B9800FDF7FEFD07F14C03814A19460120FDF798
:104BA80029FE07F51073A3F5F9731A8807F5107332
:104BB800A3F5FA731B8813439AB27C4BB3F8A4305D
:104BC80013439BB2744AA2F89A32734BB3F89A32E1
:104BD80077491846FEF792F997F87731002B25D0D8
:104BE8006B4B93F9F43287F8763197F8763187F87A
:104BF800AA3197F87631042B13D801A252F823F082
:104C08001D4C00082B4C00082B4C0008254C0008B4
:104C18002B4C0008022387F8AA3102E0012387F809
:104C2800AA3197F9AA315A4A82F8F43297F87731BB
:104C3800002B3AD0584BD3E996014FF000024FF0C1
:104C48000003FBF7E9FE0346002B0FD0504B93F807
:104C58000F33002B29D15748FDF78CFD5648FDF737
:104C6800BBFD4B4A012382F80F331EE0484B93F8F3
:104C78000F33002B19D00023C7F8D4310DE0464973
:104C8800D7F8D43103F5B4735A000A44002353808B
:104C9800D7F8D4310133C7F8D431D7F8D4310E2B33
:104CA800EDDD3B4A002382F80F33394B93F80F337D
:104CB800002B5DD041494248FEF764F807F14E03E6
:104CC8003C4A19460120FDF763FD07F14C033A4AB7
:104CD80019460020FDF78EFD07F51073A3F5F9734B
:104CE8001A8807F51073A3F5FA731B8813439AB251
:104CF8002E4BB3F8A63013439BB2274AA2F89C3236
:104D0800254BB3F89C32244AA2F89E32224BB3F8C2
:104D18009E322C491846FEF7F1F897F87731002BA8
:104D280026D01B4B93F9F53287F8753197F8753112
:104D380087F8A93197F87531042B14D801A252F8D5
:104D480023F000BF614D00086F4D00086F4D00084B
:104D5800694D00086F4D0008022387F8A93102E069
:104D6800012387F8A93197F9A931094A82F8F53260
:104D7800084B93F82032012B064B93F82032012B75
:104D880022D1044BB3F80432002B1DD101231CE0BF
:104D980078050020280B002058020020F408002085
:104DA800EC080020C00800200C050020F8AE01081F
:104DB800940800205C0900205409002028090020DC
:104DC8002A050020FC080020002387F8773197F88F
:104DD8007731002B13D0A84BD3E99A0101231C4645
:104DE8004FF000024FF00003FBF716FE0346002BBE
:104DF80001D100231C46E3B2A04A82F817339F4B27
:104E080093F81733002B55D09D4B93F82032012B84
:104E18002AD19B4BB3F80232002B25D1974B93F83C
:104E2800C930002B03D0954A002382F8C930934B30
:104E3800D3F8CC0007F14E031A46042111F0E5F926
:104E480007F51073A3F5F9731B881846FBF7DAFA10
:104E580087A3D3E90023FBF74FFB02460B46104616
:104E68001946854BC3E98E01844B93F9FD3287F8C7
:104E7800743197F8743187F8A83197F87431042B96
:104E880013D801A252F823F0A54E0008B34E00082B
:104E9800B34E0008AD4E0008B34E0008022387F851
:104EA800A83102E0012387F8A83197F9A831734A9D
:104EB80082F8FD3297F87731002B13D06E4BD3E987
:104EC8009C0101231C464FF000024FF00003FBF742
:104ED800A3FD0346002B01D100231C46E3B2674A19
:104EE80082F81633654B93F81633002B56D0644B73
:104EF80093F82032012B2AD1614BB3F80232002BF0
:104F080025D15E4B93F8B930002B03D05B4A0023C0
:104F180082F8B930594BD3F8BC0007F14E031A4652
:104F2800042111F072F907F51073A3F5F9731B88C2
:104F38001846FBF767FA4EA3D3E90023FBF7DCFA20
:104F480002460B46104619464B4BC3E98C014B4BA6
:104F580093F9FC3287F8733197F8733187F8A731E2
:104F680097F87331042B14D801A252F823F000BF2C
:104F78008D4F00089B4F00089B4F0008954F000875
:104F88009B4F0008022387F8A73102E0012387F826
:104F9800A73197F9A731394A82F8FC3297F87B3163
:104FA800002B00F0EB81344BD3E98E0107F5107329
:104FB800A3F5CC73C3E900012F4BD3E98C0107F5A6
:104FC8001073A3F5CC73C3E902012C4BD3E93C233E
:104FD8002949C1E9002307F51073A3F5CC73D3E978
:104FE80000232549C1E90223234BD3E998014FF057
:104FF80000024FF00003FBF70FFD0346002B47D0DC
:105008001E4A012382F812331E491F48FDF7FAFD94
:105018001E494FF41040FDF733FD184B93F9F83251
:1050280087F8723197F8723187F8A63197F872319C
:10503800042B14D801A252F823F000BF59500008DD
:105048006750000867500008615000086750000862
:10505800022387F8A63102E0012387F8A63197F9E1
:10506800A631064A82F8F8321FE000BFAFF300808D
:10507800199001199001993F5802002078050020E5
:10508800280B0020500A00204A050020240A00208E
:10509800AA4B93F81233002B07D0A94A0023A2F891
:1050A800F232A64A002382F81233A54BD3E9A001B5
:1050B8004FF000024FF00003FBF7AEFC0346002B55
:1050C80033D09E4A012382F810339E499E48FDF74B
:1050D80099FD9E494FF41840FDF7D2FC974B93F980
:1050E800F63287F8713197F8713187F8A53197F85A
:1050F8007131042B13D801A252F823F0195100087A
:10510800275100082751000821510008275100089D
:10511800022387F8A53102E0012387F8A53197F922
:10512800A531864A82F8F6320CE0844B93F81033A6
:10513800002B07D0824A0023A2F8F0327F4A0023CE
:1051480082F810337E4BB3F8F02241F604039A42FA
:105158000CBF01230023DBB2794A82F8AF32784BC7
:10516800B3F8F22241F250539A420CBF01230023B4
:10517800DBB2734A82F8B032714BD3E996014FF033
:1051880000024FF00003FBF747FC0346002B62D0F8
:105198006A4B93F81333002B09D16D48FDF7EAFAEF
:1051A8006C48FDF719FB654A012382F813336A48F6
:1051B800FDF7AAFB07F14E03654A19460120FDF7E2
:1051C800E7FA07F14C03634A19460220FDF712FB80
:1051D80007F51073A3F5F9731A8807F51073A3F58B
:1051E800FA731B8813439AB25C4BB3F8AA30134383
:1051F8009BB2534AA2F8A232514BB3F8A232584993
:105208001846FDF73DFC4D4B93F9F93287F870319C
:1052180097F8703187F8A43197F87031042B14D8B7
:1052280001A252F823F000BF45520008535200086B
:10523800535200084D52000853520008022387F8C1
:10524800A43102E0012387F8A43197F9A4313B4A3D
:1052580082F8F93203E0394A002382F81333384BD5
:10526800D3E99E014FF000024FF00003FBF7D4FB97
:105278000346002B7ED0314B93F81133002B09D114
:105288003848FDF777FA3848FDF7A6FA2B4A012384
:1052980082F811333548FDF737FB07F14E03314AE1
:1052A80019460120FDF774FA07F14C032E4A1946F6
:1052B8000320FDF79FFA07F51073A3F5F9731A8811
:1052C80007F51073A3F5FA731B8813439AB2234B9F
:1052D800B3F8A83013439BB2194AA2F8A032184B6E
:1052E800B3F8A03222491846FDF7CAFB134B93F9CD
:1052F800F73287F86F3197F86F3187F8A33197F84D
:105308006F31042B13D801A252F823F02953000857
:105318003753000837530008315300083753000843
:10532800022387F8A33102E0012387F8A33197F914
:10533800A331024A82F8F73220E000BF7805002046
:105348005802002090090020480500206409002028
:10535800DC0A0020D40A0020A80A0020F8AE0108C0
:105368007C0A00201C0A0020140A0020E8090020FA
:10537800BC090020944A002382F8113397F87A3147
:10538800002B00F00881914BDB681B78012B05D0BE
:105398008E4B93F8FC30002B00F0FD808B4B93F87C
:1053A8000C31002B40F0F780894BD3E9A2014FF074
:1053B80000024FF00003FBF72FFB0346002B00F021
:1053C800A180814B93F80D33002B40F0E480042238
:1053D8000021804813F00CF87B494FF000024FF091
:1053E8000003C1E93E2378494FF000024FF0000363
:1053F800C1E9402374494FF000024FF00003C1E9AE
:105408004223714A4FF00003C2F8C83240220021FB
:10541800714812F0EDFF6C494FF000024FF00003A5
:10542800C1E9542368494FF000024FF00003C1E975
:105438005623654A012382F80133634A012382F81F
:10544800043361494FF000024FF00003C1E95E23C5
:105458005D494FF000024FF00003C1E960235A4A4A
:10546800002382F8E432584A012382F805335B4B63
:10547800D3E904235449C1E96423534A002382F839
:10548800E632514A4FF00003C2F8CC3254494FF08B
:1054980000024FF00003C1E90023504BD3E9022377
:1054A8004949C1E96623484A002382F8E732464A57
:1054B800012382F806334A494FF000024FF00003F7
:1054C800C1E90223414B93F8FC31002B0DD044492C
:1054D8004FF000024FF00003C1E9042340494FF0A8
:1054E80000024FF00003C1E90623374A012382F87E
:1054F8000733354A012382F80833334A012382F8F7
:105508000D3348E0314BD3F8F0311846FAF77AFFFB
:105518002BA3D3E90023FAF7EFFF02460B46104608
:1055280019462A4BD3E98423FBF74EFA0346002B8E
:1055380004D004220121274812F05AFF224B93F885
:105548000D33002B27D004220121224812F050FFEE
:105558001D4AFF2382F8DF321B4AFF2382F8E0321C
:105568001A4A01235376184AFF2382F8E132164A71
:10557800FF2382F8E232144AFF2382F8E332124A08
:10558800FF2382F8E532104AFF2382F8E8320E4AF8
:10559800002382F80D330C4B93F80D33002B03F0E6
:1055A80025830A4B93F82032012B1BD1074BB3F804
:1055B8000032002B16D1012315E000BFAFF30080A5
:1055C800FCA9F1D24D62503F78050020280B00203D
:1055D800580200207005002088060020F8AE010857
:1055E80050050020002387F8773197F87731002B92
:1055F80000F09785B44BD3E93E23B449C1E90823A9
:10560800B14BD3E94023B149C1E90A23AE4BD3E9F1
:105618004223AE49C1E90C23AC4BD3E90801AB4B9B
:10562800D3E90A23FAF7B2FD02460B46104619469B
:10563800A64BD3E90C23FAF7A9FD02460B46104600
:10564800194697A3D3E90023FAF756FF02460B46FB
:10565800C7E97E239D4BD3E90801D7E97E23FAF7F2
:1056680093FD02460B4610461946984BC3E90E01B6
:10567800964BD3E90A01954BD3E90C23FAF784FD3D
:1056880002460B461046194687A3D3E90023FAF7CA
:1056980033FF02460B46104619468C4BC3E91001EE
:1056A8008A49D7E97E23C1E91223894B1B78012B4C
:1056B80004D1854A4FF00003C2F8C832844A002357
:1056C8001370814BD3F8C8321846FAF7BDFE78A399
:1056D800D3E90023FAF710FF02460B46C7E958231F
:1056E800794BD3E9460174A3D3E90023FAF704FF01
:1056F80002460B46C7E97823734BD3E944016EA3EE
:10570800D3E90023FAF7F8FE02460B46C7E97E23E1
:10571800D7F86051D7F8643183F00046D7E9782389
:1057280028463146FAF7E8FE02460B461046194667
:10573800D7E97E23FAF728FD02460B46C7E98223FC
:10574800D7E95823D7E97E01FAF7D6FE02460B4679
:1057580010461946D7E97823FAF716FD02460B4694
:10576800C7E95823584BD3F8C8321846FAF76CFEE5
:105778004FA3D3E90023FAF7BFFE02460B46C7E959
:105788007E23514BD3E94801D7E97E23FAF7B4FECB
:1057980002460B46104619464B4BD3E94A23FAF703
:1057A800F3FC02460B46C7E97823D7F8F8313B6487
:1057B800D7F8FC3183F000437B64434BD3E94A2399
:1057C800D7E91001FAF798FE02460B46104619462B
:1057D8003D4BD3E94823FAF7D7FC02460B4610465F
:1057E800194607F17003C3E9000133A3D3E9002385
:1057F800D7E97801FAF780FE02460B46C7E97A2313
:1058080007F17003D3E900012BA3D3E90023FAF7CA
:1058180073FE02460B46C7E95623D7F85831BB63D7
:10582800D7F85C3183F00043FB63D7E97E23D7E9DF
:105838000E01FAF761FE02460B46D7E97A01FAF73C
:10584800A5FC02460B46C7E980231F4BD3E94A0152
:105858001BA3D3E90023FAF74FFE02460B46104676
:10586800194607F1C00343E90201174BD3E948453C
:10587800154BD3F8C8321846FAF7E6FD02460B4630
:1058880020462946FAF738FE02460B4610461946C6
:105898004FF000024FF000031CE000BFAFF30080A0
:1058A800555555555555D53F1D339045A779E23F78
:1058B80000000040BF7D5DBFC7711CC7715C81409F
:1058C800E3388EE3388E34C0780500205802002073
:1058D800080B0020FAF710FE02460B461046194640
:1058E80007F1C00353E90223FAF750FC02460B46BE
:1058F8001046194607F1C00343E90201D7F8F83109
:105908003B63D7F8FC3183F000437B6307F1C003A6
:1059180053E90223D7E90C01FAF7EEFD02460B46DC
:10592800C7E95423C44BD3E94A45C34BD3F8C8321B
:105938001846FAF789FD02460B4620462946FAF72B
:10594800DBFD02460B46904683F000494FF000020B
:105958004FF0000340464946FAF7CEFD02460B4693
:1059680014461D46B44BD3E94801A7A3D3E9002345
:10597800FAF7C2FD02460B4620462946FAF706FC0E
:1059880002460B46C7E95223D7E97E23D7E95201DD
:10599800FAF7B2FD02460B461046194607F1C00356
:1059A80053E90223FAF7F0FB02460B461046194664
:1059B80007F1C00343E90201A04B5B78012B0DD12D
:1059C8009D494FF000024FF00003C1E954239A4962
:1059D8004FF000024FF00003C1E95623974A002315
:1059E8005370954BD3E95423C7E97C2307F5A0737B
:1059F8001946914BD3E95623C1E900238E4BD3F8BE
:105A0800C8321846FAF720FDD7E97823FAF774FD6B
:105A180002460B46924683F0004BD7E97E23D7E92E
:105A28007A01FAF769FD02460B4610461946D7E98E
:105A38005623FAF7ABFB02460B4650465946FAF78F
:105A4800A3FB02460B4614461D46D7E95223D7E965
:105A58005401FAF799FB02460B4620462946FAF705
:105A680093FB02460B4610461946D7E98223FAF7FC
:105A78008BFB02460B461046194665A3D3E9002363
:105A8800FAF73AFD02460B4610461946D7E97C2339
:105A9800FAF77CFB02460B46104619465EA3D3E98B
:105AA8000023FAF729FD02460B4610461946624BB9
:105AB800C3E95401604BD3F8C8321846FAF7C4FC5E
:105AC80007F17003D3E90023FAF716FD02460B46E7
