:020000040800F2
:1000000000000220D1CD0008A5AE0008ADAE00086A
:10001000B5AE0008BDAE0008C5AE00080000000087
:1000200000000000000000000000000059950008DA
:10003000CDAE0008000000001595000845940008AA
:1000400021CE000821CE000821CE000821CE0008D4
:1000500021CE000821CE000821CE000821CE0008C4
:1000600021CE000821CE000821CE000821CE0008B4
:1000700021CE000821CE000821CE000821CE0008A4
:1000800009A60008E9A5000821CE000821CE000835
:1000900021CE000821CE000821CE000821CE000884
:1000A00021CE0008DDAE000821CE000821CE0008D8
:1000B00021CE000821CE000821CE000821CE000864
:1000C00021CE000821CE000821CE000821CE000854
:1000D00021CE000821CE0008D5A5000821CE0008B9
:1000E00021CE000821CE000821CE000821CE000834
:1000F00021CE000821CE000821CE000821CE000824
:1001000021CE000821CE000821CE000821CE000813
:1001100021CE000821CE000821CE000821CE000803
:1001200021CE000821CE000821CE000821CE0008F3
:1001300021CE0008000000000000000021CE0008D1
:1001400021CE000821CE000821CE000821CE0008D3
:1001500021CE000821CE000821CE000821CE0008C3
:1001600021CE000821CE000821CE000821CE0008B3
:1001700021CE000821CE0008000000000000000091
:0801800021CE000821CE000889
:1001880081F0004102E000BF83F0004330B54FEA40
:1001980041044FEA430594EA050F08BF90EA020FAD
:1001A8001FBF54EA000C55EA020C7FEA645C7FEA40
:1001B800655C00F0E2804FEA5454D4EB5555B8BF63
:1001C8006D420CDD2C4480EA020281EA030382EAD4
:1001D800000083EA010180EA020281EA0303362D66
:1001E80088BF30BD11F0004F4FEA01314FF4801C39
:1001F8004CEA113102D0404261EB410113F0004F4B
:100208004FEA03334CEA133302D0524263EB430301
:1002180094EA050F00F0A780A4F10104D5F1200E9F
:100228000DDB02FA0EFC22FA05F2801841F10001FA
:1002380003FA0EF2801843FA05F359410EE0A5F1CE
:1002480020050EF1200E012A03FA0EFC28BF4CF0FF
:10025800020C43FA05F3C01851EBE37101F00045B5
:1002680007D54FF0000EDCF1000C7EEB00006EEBC2
:100278000101B1F5801F1BD3B1F5001F0CD349084C
:100288005FEA30004FEA3C0C04F101044FEA4452A3
:1002980012F5800F80F09A80BCF1004F08BF5FEA2A
:1002A800500C50F1000041EB045141EA050130BD0A
:1002B8005FEA4C0C404141EB0101013C28BFB1F51C
:1002C800801FE9D291F0000F04BF01460020B1FA67
:1002D80081F308BF2033A3F10B03B3F120020CDA3A
:1002E8000C3208DD02F1140CC2F10C0201FA0CF018
:1002F80021FA02F10CE002F11402D8BFC2F1200C7D
:1003080001FA02F120FA0CFCDCBF41EA0C01904032
:10031800E41AA2BF01EB0451294330BD6FEA04047B
:100328001F3C1CDA0C340EDC04F11404C4F1200266
:1003380020FA04F001FA02F340EA030021FA04F378
:1003480045EA030130BDC4F10C04C4F1200220FACF
:1003580002F001FA04F340EA0300294630BD21FA0D
:1003680004F0294630BD94F0000F83F4801306BFD3
:1003780081F480110134013D4EE77FEA645C18BFC7
:100388007FEA655C29D094EA050F08BF90EA020F5E
:1003980005D054EA000C04BF1946104630BD91EA56
:1003A800030F1EBF0021002030BD5FEA545C05D159
:1003B8004000494128BF41F0004130BD14F5800498
:1003C8003CBF01F5801130BD01F0004545F0FE410C
:1003D80041F470014FF0000030BD7FEA645C1ABF41
:1003E800194610467FEA655C1CBF0B46024650EA78
:1003F800013406BF52EA033591EA030F41F40021A4
:1004080030BD00BF90F0000F04BF0021704730B529
:100418004FF4806404F132044FF000054FF00001FE
:1004280050E700BF90F0000F04BF0021704730B5BF
:100438004FF4806404F1320410F0004548BF404294
:100448004FF000013EE700BF42004FEAE2014FEAE9
:1004580031014FEA02701FBF12F07F4393F07F4FC4
:1004680081F06051704732F07F4208BF704793F0C7
:100478007F4F04BF41F40021704730B54FF46074DA
:1004880001F0004521F000411CE700BF50EA0102DD
:1004980008BF704730B54FF000050AE050EA010286
:1004A80008BF704730B511F0004502D5404261EBF6
:1004B80041014FF4806404F132045FEA915C3FF437
:1004C800D8AE4FF003025FEADC0C18BF03325FEAD4
:1004D800DC0C18BF033202EBDC02C2F1200300FA85
:1004E80003FC20FA02F001FA03FE40EA0E0021FAAA
:1004F80002F11444BDE600BF70B54FF0FF0C4CF498
:10050800E06C1CEA11541DBF1CEA135594EA0C0F49
:1005180095EA0C0F00F0DEF82C4481EA030621EA84
:100528004C5123EA4C5350EA013518BF52EA0335BF
:1005380041F4801143F4801338D0A0FB02CE4FF071
:100548000005E1FB02E506F00042E0FB03E54FF0A1
:100558000006E1FB03569CF0000F18BF4EF0010E99
:10056800A4F1FF04B6F5007F64F5407404D25FEA95
:100578004E0E6D4146EB060642EAC62141EA555148
:100588004FEAC52040EA5E504FEACE2EB4F1FD0C8A
:1005980088BFBCF5E06F1ED8BEF1004F08BF5FEA08
:1005A800500E50F1000041EB045170BD06F00046BA
:1005B80046EA010140EA020081EA0301B4EB5C0467
:1005C800C2BFD4EB0C0541EA045170BD41F480115F
:1005D8004FF0000E013C00F3AB8014F1360FDEBF84
:1005E800002001F0004170BDC4F10004203C35DA60
:1005F8000C341BDC04F11404C4F1200500FA05F3E3
:1006080020FA04F001FA05F240EA020001F0004283
:1006180021F0004110EBD37021FA04F642EB0601F9
:100628005EEA430E08BF20EAD37070BDC4F10C0423
:10063800C4F1200500FA04F320FA05F001FA04F2E7
:1006480040EA020001F0004110EBD37041F10001D3
:100658005EEA430E08BF20EAD37070BDC4F12005DE
:1006680000FA05F24EEA020E20FA04F301FA05F246
:1006780043EA020321FA04F001F0004121FA04F2EE
:1006880020EA020000EBD3705EEA430E08BF20EABE
:10069800D37070BD94F0000F0FD101F000464000F8
:1006A80041EB010111F4801F08BF013CF7D041EA7A
:1006B800060195F0000F18BF704703F0004652007E
:1006C80043EB030313F4801F08BF013DF7D043EA4F
:1006D8000603704794EA0C0F0CEA135518BF95EA05
:1006E8000C0F0CD050EA410618BF52EA4306D1D18C
:1006F80081EA030101F000414FF0000070BD50EAAB
:10070800410606BF1046194652EA430619D094EA34
:100718000C0F02D150EA013613D195EA0C0F05D11E
:1007280052EA03361CBF104619460AD181EA030172
:1007380001F0004141F0FE4141F470014FF000002A
:1007480070BD41F0FE4141F4780170BD70B54FF0C5
:10075800FF0C4CF4E06C1CEA11541DBF1CEA135545
:1007680094EA0C0F95EA0C0F00F0A7F8A4EB050427
:1007780081EA030E52EA03354FEA013100F088801E
:100788004FEA03334FF0805545EA131343EA1263E7
:100798004FEA022245EA111545EA10654FEA00269C
:1007A8000EF000419D4208BF964244F1FD0404F555
:1007B800407402D25B084FEA3202B61A65EB0305B1
:1007C8005B084FEA32024FF480104FF4002CB6EB6E
:1007D800020E75EB030E22BFB61A754640EA0C00EE
:1007E8005B084FEA3202B6EB020E75EB030E22BF2E
:1007F800B61A754640EA5C005B084FEA3202B6EB6F
:10080800020E75EB030E22BFB61A754640EA9C002D
:100818005B084FEA3202B6EB020E75EB030E22BFFD
:10082800B61A754640EADC0055EA060E18D04FEABB
:10083800051545EA16754FEA06164FEAC30343EA5B
:1008480052734FEAC2025FEA1C1CC0D111F4801F28
:100858000BD141EA00014FF000004FF0004CB6E721
:1008680011F4801F04BF01430020B4F1FD0C88BFC0
:10087800BCF5E06F3FF6AFAEB5EB030C04BFB6EBCB
:10088800020C5FEA500C50F1000041EB045170BDBE
:100898000EF0004E4EEA113114EB5C04C2BFD4EBEB
:1008A8000C0541EA045170BD41F480114FF0000E6F
:1008B800013C90E645EA060E8DE60CEA135594EAEB
:1008C8000C0F08BF95EA0C0F3FF43BAF94EA0C0FEE
:1008D8000AD150EA01347FF434AF95EA0C0F7FF463
:1008E80025AF104619462CE795EA0C0F06D152EAB7
:1008F80003353FF4FDAE1046194622E750EA41069B
:1009080018BF52EA43067FF4C5AE50EA41047FF4AB
:100918000DAF52EA43057FF4EBAE12E74FF0FF3C10
:1009280006E000BF4FF0010C02E000BF4FF0010CE1
:100938004DF804CD4FEA410C7FEA6C5C4FEA430C5A
:1009480018BF7FEA6C5C1BD001B050EA410C0CBFA9
:1009580052EA430C91EA030F02BF90EA020F00200B
:10096800704710F1000F91EA030F58BF994208BF72
:1009780090422CBFD8176FEAE37040F0010070472F
:100988004FEA410C7FEA6C5C02D150EA013C07D186
:100998004FEA430C7FEA6C5CD6D152EA033CD3D0D1
:1009A8005DF8040B704700BF8446104662468C46CB
:1009B8001946634600E000BF01B5FFF7B7FF0028FE
:1009C80048BF10F1000F01BD4DF808EDFFF7F4FF27
:1009D8000CBF012000205DF808FB00BF4DF808EDB2
:1009E800FFF7EAFF34BF012000205DF808FB00BFD5
:1009F8004DF808EDFFF7E0FF94BF012000205DF8F7
:100A080008FB00BF4DF808EDFFF7CEFF94BF0120AB
:100A180000205DF808FB00BF4DF808EDFFF7C4FFA4
:100A280034BF012000205DF808FB00BF4FEA410CED
:100A38007FEA6C5C02D150EA013C0AD14FEA430CD0
:100A48007FEA6C5C02D152EA033C02D14FF000000D
:100A580070474FF0010070474A0011D212F500129A
:100A680011D20DD56FF47873B3EB62520ED44FEAFE
:100A7800C12343F0004343EA505323FA02F070477E
:100A88004FF00000704750EA013002D14FF0FF30BC
:100A980070474FF00000704753B94AB9002908BFA2
:100AA80000281CBF4FF0FF314FF0FF3000F00CB8AA
:100AB800ADF1080C6DE904CE0CF06CFBDDF804E038
:100AC800DDE9022304B07047704700BF844641EA5D
:100AD800000313F003036DD1403A41D351F8043BAE
:100AE80040F8043B51F8043B40F8043B51F8043B00
:100AF80040F8043B51F8043B40F8043B51F8043BF0
:100B080040F8043B51F8043B40F8043B51F8043BDF
:100B180040F8043B51F8043B40F8043B51F8043BCF
:100B280040F8043B51F8043B40F8043B51F8043BBF
:100B380040F8043B51F8043B40F8043B51F8043BAF
:100B480040F8043B51F8043B40F8043B51F8043B9F
:100B580040F8043B51F8043B40F8043B403ABDD20E
:100B6800303211D351F8043B40F8043B51F8043BB0
:100B780040F8043B51F8043B40F8043B51F8043B6F
:100B880040F8043B103AEDD20C3205D351F8043B3F
:100B980040F8043B043AF9D2043208D0D2071CBF0B
:100BA80011F8013B00F8013B01D30B880380604634
:100BB800704700BF082A13D38B078DD010F00303AA
:100BC8008AD0C3F10403D21ADB071CBF11F8013B1A
:100BD80000F8013B80D331F8023B20F8023B7BE769
:100BE800043AD9D3013A11F8013B00F8013BF9D294
:100BF8000B7803704B7843708B788370604670472E
:100C08000348044B834202D0034B03B11847704793
:100C1800BC010020BC010020000000000548064B74
:100C28001B1AD90F01EBA301491002D0034B03B1E2
:100C380018477047BC010020BC01002000000000DC
:100C480010B5064C237843B9FFF7DAFF044B13B10C
:100C58000448AFF300800123237010BDC0010020B9
:100C68000000000028D6000808B5054B1BB105494F
:100C78000548AFF30080BDE80840FFF7CFBF00BFCD
:100C880000000000C401002028D6000880B485B008
:100C980000AF786039600023FB7397F90F3018466E
:100CA8001437BD465DF8047B7047000080B584B0FA
:100CB80000AF786039600023FB727B68002B05D198
:100CC800374802F0F9F94FF0FF3365E03B68002B35
:100CD80005D1344802F0F0F94FF0FF335CE0324BB5
:100CE800D3E900014FF000024FF04043FFF76CFEDC
:100CF8000346002B06D03B68D3E900232A49C1E903
:100D0800002305E0284BD3E900233968C1E9002313
:100D1800254BD3E900014FF00002244BFFF754FEA6
:100D28000346002B02D0224802F0C6F97B685B68B4
:100D38001B68204A13607B685B685B681E4A136007
:100D48007B685B689B681D4A13607B685B68DB682F
:100D58001B4A13601B4B00221A6002F06BFE002333
:100D6800FB600023FB6007E0174AFB68174942F85D
:100D78002310FB680133FB60FB68012BF4D902F0F8
:100D880099FA0346FB7297F90B30002B02D1104BEE
:100D980001221A7097F90B3018461037BD4680BDEE
:100DA80040D6000864D60008000000200000F0BF0C
:100DB80090D600085C030020600300206403002034
:100DC800680300206C030020DC010020A53A00081D
:100DD8005903002080B586B000AF78600023FB750A
:100DE80000233B610023FB732A4B1B78DBB2002BEB
:100DF8000CBF01230023DBB2BB73274B02221A70FE
:100E08007B68002B0BD1234B1B78DBB2002B06D160
:100E1800224B1B78DBB2002B01D1012300E0002319
:100E2800FB7316E00A2008F043FA3B6903F51C53EC
:100E380010333B617B68B3F1FF3F05D03A697B68AB
:100E48009A4201D9012300E00023FB73002002F03D
:100E580089FA104B1B78DBB2002B07D10F4B1B789C
:100E6800DBB2002B02D1FB7B002BDBD00A4B032229
:100E78001A70FB7B002B01D09C23FB75BB7B002BDE
:100E880001D002F005FF97F9173018461837BD460C
:100E980080BD00BF570300205903002058030020DD
:100EA80080B588B000AF034687ED000BFB810023B7
:100EB800FB770123BB774FF000024FF00003D7E91F
:100EC8000001FFF78BFD0346002B05D02F4802F0E9
:100ED800F3F84FF0FF3355E0FB89FF2B08D9FB8966
:100EE800FF2219462A4802F0E7F84FF0FF3349E09D
:100EF800284B1B78DBB2032B04D0264B1B78DBB2C4
:100F0800012B02D1234B04221A70FB89012B15D81F
:100F1800FB89214A52F82330002B0FD003F07AFACC
:100F280003467B777B7F022B08D1FB891A4A52F84C
:100F38002330FA89104698470346BB77FB897B83A1
:100F4800FB89184697ED000B02F072F97861BB7FB8
:100F5800002B07D07B8B7969184603F037FA0346D4
:100F6800FB7703E07B8B184603F08FFA97F91F3065
:100F7800002B05D097F91F301946084802F09CF855
:100F880097F91F3018462037BD4680BDFCD60008AB
:100F980040D7000859030020DC01002080D7000852
:100FA80080B582B000AF0023FB71002002F0DAF9AF
:100FB8000346FB7197F9073018460837BD4680BDD0
:100FC80080B582B000AF0023FB710B4B06221A706C
:100FD80002F066FA0346FB710822002107480CF06C
:100FE80037FA02F0DBFD044B00221A7097F907303C
:100FF80018460837BD4680BD59030020DC01002093
:1010080080B400AF034B1B78DBB21846BD465DF8D1
:10101800047B70475803002080B400AF034B1B7853
:10102800DBB21846BD465DF8047B704770030020AC
:1010380080B483B000AF786039607B683A689A61A1
:1010480000BF0C37BD465DF8047B704780B483B0A1
:1010580000AF786039603B681A047B689A6100BF0A
:101068000C37BD465DF8047B7047000080B400AFC4
:10107800084BDA8F013292B2DA87064BDB8FB3F571
:101088007A7F02D3034B0022DA8700BFBD465DF8A2
:10109800047B7047B002002080B483B000AF786052
:1010A8007B684FF0FF321A6000BF0C37BD465DF811
:1010B800047B704780B483B000AF78607B684FF0E2
:1010C800FF321A6000BF0C37BD465DF8047B7047DD
:1010D80080B485B000AF0346B9607A60FB817B6855
:1010E8004FF0FF321A60FB89DB039AB2BB681A80A3
:1010F80000BF1437BD465DF8047B704780B483B0E9
:1011080000AF78607B684FF0FF321A6000BF0C3781
:10111800BD465DF8047B704780B483B000AF78604B
:101128007B684FF0FF321A6000BF0C37BD465DF890
:10113800047B704780B485B000AF0346B9607A601D
:10114800FB817B684FF0FF321A60FB89DB029AB2A1
:10115800BB681A8000BF1437BD465DF8047B704732
:1011680090B593B000AFC14B93F9573087F83B3037
:10117800002387F8433097F83B30042B1FD801A28F
:1011880052F823F0A1110008A9110008B1110008B4
:10119800B9110008C1110008002387F843300EE098
:1011A800032387F843300AE0032387F8433006E037
:1011B800002387F8433002E0002387F8433097F98B
:1011C8004320AA4B83F85720A84B93F9563087F849
:1011D8003A30002387F8423097F83A30042B20D869
:1011E80001A252F823F000BF051200080D120008F2
:1011F800151200081D12000825120008002387F8A0
:1012080042300EE0032387F842300AE0032387F8D0
:10121800423006E0002387F8423002E0002387F8D6
:10122800423097F94220914B83F856208F4B93F91F
:10123800553087F83930002387F8413097F839302E
:10124800042B20D801A252F823F000BF691200082D
:10125800711200087912000881120008891200082A
:10126800002387F841300EE0032387F841300AE075
:10127800032387F8413006E0002387F8413002E075
:10128800002387F8413097F94120784B83F855209F
:10129800764B93F9543087F83830002387F840307C
:1012A80097F83830042B20D801A252F823F000BF59
:1012B800CD120008D5120008DD120008E51200085A
:1012C800ED120008002387F840300EE0032387F86A
:1012D80040300AE0032387F8403006E0002387F80F
:1012E800403002E0002387F8403097F940205F4BF8
:1012F80083F854205E4BDB8F002B40F0DB835B4B85
:1013080093F85930062B07D8584B93F859300133C6
:10131800DAB2564B83F85920544B93F85830002BC7
:1013280018D1524B012283F85820504B002283F8E1
:1013380059204E4B0222DA644C494FF000024D4BC3
:10134800C1E904234C494FF000024FF00003C1E902
:101358000023DAE1454BDB6C013B0C2B00F2998151
:1013680001A252F823F000BFA5130008F1130008EA
:101378003F14000885140008BB140008F114000885
:10138800271500085D15000893150008C915000801
:10139800FF150008331600086716000836494FF095
:1013A8000002344BC1E90023334BD3E900014FF06D
:1013B8000002304BFFF708FB0346002B00D182E107
:1013C8002A4B93F85930042B40F27D81274B002299
:1013D80083F85920254B0322DA6427494FF000028D
:1013E800244BC1E904236EE123494FF000024FF07A
:1013F8000003C1E900231D4BD3E904014FF00002AB
:101408001C4BFFF7E1FA0346002B00D15DE1174BB7
:1014180093F85930002B00F05881144B002283F8C0
:101428005920124B0122DA6413494FF00002114B84
:10143800C1E9002349E110494FF000020D4BC1E911
:1014480004230A4B93F85930042B40F24081074B90
:10145800002283F85920054B0422DA6406494FF02C
:1014680000024FF00003C1E9042330E130020020FC
:10147800B00200200000F03FE80100209F494FF033
:1014880000024FF00003C1E904239D4B93F8593043
:10149800002B00F01E819A4B002283F85920984BAC
:1014A8000522DA6495494FF00002964BC1E9022300
:1014B8000FE192494FF00002924BC1E90223904B91
:1014C80093F85930022B40F206818D4B002283F8A5
:1014D80059208B4B0622DA6488494FF000024FF0FE
:1014E8000003C1E90223F6E084494FF000024FF0FF
:1014F8000003C1E90223824B93F85930002B00F016
:10150800EC807F4B002283F859207D4B0722DA6458
:101518007A494FF000027B4BC1E90A23DDE07749A5
:101528004FF00002774BC1E90A23754B93F8593005
:10153800012B40F2D480724B002283F85920704B63
:101548000822DA646D494FF000024FF00003C1E948
:101558000A23C4E069494FF000024FF00003C1E9D3
:101568000A23674B93F85930012B40F2BA80644B39
:10157800002283F85920624B0922DA645F494FF050
:101588000002604BC1E90623ABE05C494FF0000262
:101598005C4BC1E906235A4B93F85930012B40F2B2
:1015A800A280574B002283F85920554B0A22DA644F
:1015B80052494FF000024FF00003C1E9062392E0C0
:1015C8004E494FF000024FF00003C1E906234C4B8F
:1015D80093F85930012B40F28880494B002283F858
:1015E8005920474B0B22DA6444494FF00002454B1F
:1015F800C1E90C2379E041494FF00002414BC1E9B0
:101608000C233F4B93F85930012B70D93C4B0022E7
:1016180083F859203A4B0C22DA6438494FF000021B
:101628004FF00003C1E90C2361E034494FF0000298
:101638004FF00003C1E90C23314B93F85930012BCB
:1016480057D92F4B002283F859202D4B0D22DA64ED
:101658002A494FF000022B4BC1E9082349E02749EA
:101668004FF00002274BC1E90823254B93F8593066
:10167800012B40D9224B002283F85920204B0E22FF
:10168800DA641E494FF000024FF00003C1E9082355
:1016980031E01A494FF000024FF00003C1E9082376
:1016A800174B93F85930012B2ED9154B002283F88C
:1016B8005920134B0722DA6410494FF00002114BEE
:1016C800C1E90A2320E000BF1FE000BF1DE000BF02
:1016D8001BE000BF19E000BF17E000BF15E000BF26
:1016E80013E000BF11E000BF0FE000BF0DE000BF36
:1016F8000BE000BF09E000BF07E000BFE8010020E1
:10170800300200200000F03F00BFB74B7B6300238E
:101718003B63B64BD3E900014FF000024FF00003E2
:10172800FFF752F90346002B03D14FF480537B6433
:1017380001E000237B647A6C3B6B02FA03F37B6461
:101748004FF480523B6B02FA03F3FB62796C786BBF
:10175800FFF76EFC7B6CDA43FB6A13401946786B23
:10176800FFF774FCA14BD3E90A014FF000024FF0D8
:101778000003FFF751F90346002B66D09C4B93F802
:101788005B30002B0DD19A4B0022A3F852209948C8
:10179800FFF790FC9848FFF7BFFC954B012283F8B0
:1017A8005B20934BB3F85220904BDA878F4BDB8F3B
:1017B800184600F0C7FB03461A468C4BA3F8402096
:1017C800BB1D8C4A19460120FFF782FC3B1D8A4A43
:1017D80019460220FFF7AEFCFA88BB8813439AB279
:1017E800864B5B8813439AB2804BA3F842207F4B09
:1017F800B3F842207E4BA3F852207D4B93F9573023
:1018080087F82B3097F82B3087F83F3097F82B3034
:10181800042B14D801A252F823F000BF391800088D
:10182800471800084718000841180008471800081A
:10183800022387F83F3002E0012387F83F3097F909
:101848003F206B4B83F857200CE0694B93F85B30D3
:10185800002B07D0654B0022A3F84020644B0022E0
:1018680083F85B20614BD3E90C014FF000024FF085
:101878000003FFF7D1F80346002B5ED05C4B93F8CA
:101888005A30002B0DD15A4B0022A3F850205C4847
:10189800FFF710FC5B48FFF73FFC554B012283F82C
:1018A8005A20534BB3F85020504B5A874F4B5B8FFD
:1018B800184600F047FB03461A464C4B9A87BB1D57
:1018C8004F4A19460120FFF703FC3B1D4D4A1946B4
:1018D8000320FFF72FFCFA88BB8813439AB2474BC3
:1018E8001B8813439AB2424BA3F85020404B93F9FC
:1018F800563087F82A3097F82A3087F83E3097F81C
:101908002A30042B13D801A252F823F02919000811
:101918003719000837190008311900083719000865
:10192800022387F83E3002E0012387F83E3097F91A
:101938003E202F4B83F856200BE02D4B93F85A305E
:10194800002B06D0294B00229A87294B002283F8C6
:101958005A20264BD3E900014FF000024FF0000354
:10196800FFF732F80346002B0DD1204BD3E90201D3
:101978004FF000024FF00003FFF726F80346002B54
:1019880001D1012300E00023DAB2184B83F8442088
:10199800164B93F84430002B3ED0144B41F604020A
:1019A8001A87124B1B8F184600F0AAFA104B93F9AE
:1019B800553087F8293097F8293087F83D3097F85F
:1019C8002930042B23D801A252F823F0E919000882
:1019D800171A0008171A0008111A0008171A000821
:1019E800022387F83D3012E000040240E80100209D
:1019F80030020020A40200209C020020D0FE000833
:101A0800940200208C020020012387F83D3097F9CA
:101A18003D204B4B83F855204A4BD3E900014FF04A
:101A280000024FF00003FEF7CFFF0346002B0DD155
:101A3800444BD3E904014FF000024FF00003FEF7D6
:101A4800C3FF0346002B01D1012300E00023DAB2D3
:101A58003C4B83F845203B4B93F84530002B29D06D
:101A680041F2505000F04CFA354B93F9543087F856
:101A7800283097F8283087F83C3097F82830042B1E
:101A880013D801A252F823F0A51A0008B31A0008C7
:101A9800B31A0008AD1A0008B31A0008022387F821
:101AA8003C3002E0012387F83C3097F93C20244B76
:101AB80083F85420002387F82730234BD3E90823E1
:101AC800C7E9062397ED060B0020FFF7E9F903465F
:101AD80087F827301C4BDB8F002B11D10023FB75B7
:101AE800194B9B6B1846FEF78DFC02460B46C7E95F
:101AF800022397ED020B0120FFF7D2F90346FB758D
:101B0800114B9A6A01329A629B6A1846FEF77AFC70
:101B18000D4BD3E90C230C4CFEF7EEFC02460B46AA
:101B2800C4E90823084BDB8F002B03D1064B9A6BC3
:101B380001329A63FFF79AFA00BF4C37BD4690BD51
:101B480030020020E8010020B00200200000000060
:101B580080B500AF3A494FF000023A4BC1E9102373
:101B6800374935A3D3E90023C1E90C23344B364A5E
:101B78009A60334B354ADA60314B354A1A61304B3B
:101B8800344A5A612E4B344A5A60334B334A1A60EE
:101B9800324B334A1A60314B314A5A602F4B304A24
:101BA8009A602E4B2F4ADA602C4B2E4A1A612B4B27
:101BB8002C4A5A61294B2B4A9A61284B294ADA61E7
:101BC800264B294A1A62254B274A5A62234B264A32
:101BD8009A62224B244ADA62204B234A1A631F4B2B
:101BE800224A5A631D4B224A9A63154A144B5B6872
:101BF80018329A60124A124B5B6808325A60104ACF
:101C08000F4B5B682032DA601A48FFF745FA1A482A
:101C1800FFF774FA1948FFF73FFA1948FFF76EFA09
:101C2800184B00221A70174B01225A60154B0122DB
:101C38001A7200BF80BD00BFFCA9F1D24D62503FAF
:101C4800B0020020000059405DEFFA300599970B6B
:101C58008C2EC80D8F9E7C97000300201403002053
:101C6800CCFE0008870200208602002085020020A2
:101C780084020020A40200209C020020940200207C
:101C88008C0200203002002080B400AF054B1B7886
:101C9800002B02D1034B01221A7000BFBD465DF82C
:101CA800047B70473002002080B500AF0F4B1B78D3
:101CB8005A1CD1B20D4A1170002B09D00C4B0122CD
:101CC8001A600A4B1B78013BDAB2084B1A700BE01A
:101CD80062B600BFFFF744FA72B600BF034B1B7829
:101CE800013BDAB2014B1A7080BD00BF54030020DB
:101CF8005003002080B586B000AF786039605C4B37
:101D08007B615C4B3B610023FB735B4B00221A70C9
:101D18005A4B00221A700AF071F909F057F807F0C7
:101D2800DFFA00F0AFFC00F0FDFC00F0CFFA01F0A4
:101D380015F900F041FB00F087FE00F09FFB00F072
:101D48008FF94F4B1B6800221A6000210020FEF714
:101D58009DFF0346FB7397F90F30002B02D097F9CC
:101D68000F3080E0FFF7F4FE72B600BF62B600BF26
:101D7800434B1B685A68424B1B6840331946104650
:101D8800FEF794FF0346FB7397F90F30002B0DD134
:101D98004FF0FF30FFF71EF8FFF732F90346002B2C
:101DA80004D0374B1B68012283F8482072B600BF65
:101DB80097ED050A07F052FBFFF72EF90346002BB3
:101DC8000CD1FFF71DF90346002B07D12C4B1B68DC
:101DD80093F84830002B01D1012300E00023DAB248
:101DE800264B1A7062B600BF62B600BF2FE0FFF73D
:101DF800D7F80346FB73FFF70FF90346002B0AD108
:101E0800FFF7FEF80346002B05D11D4B1B6893F81E
:101E18004830002B01D0012300E00023DAB2164B32
:101E28001A70154B1B78DBB2002B0CBF0123002363
:101E3800DBB21A46114B1A700F4B1B78DBB2002B22
:101E480005D0104B1B680F4A23F0010313600B4B9E
:101E58001B78DBB2002BCAD1FFF716FFFFF7B0F8EB
:101E680072B600BF002318461837BD4680BD00BFB4
:101E78006F12833A0000C842550300205603002021
:101E8800C8FE000810E000E080B483B000AF7860BE
:101E98007B68DB689BB218460C37BD465DF8047B4F
:101EA800704780B485B000AF78600B467B807B6854
:101EB8000C33FB60FB687A881A8000BF1437BD4674
:101EC8005DF8047B704780B483B000AF78603960F8
:101ED8007B683A689A6100BF0C37BD465DF8047BA1
:101EE800704780B483B000AF786039603B681A04EB
:101EF8007B689A6100BF0C37BD465DF8047B70476C
:101F080080B582B000AF0346FB804FF480410B4898
:101F1800FFF7E7FF0A2009F007FFFB881946084882
:101F2800FFF7BFFF642009F0FFFE4FF4804103482C
:101F3800FFF7C9FF00BF0837BD4680BD0008024053
:101F4800003C004080B584B000AF0346FB8000230E
:101F5800FB814FF6FF73BB814FF480411C48FFF7AC
:101F6800C0FF0A2009F0E0FEFB8819461948FFF770
:101F780098FF0A2009F0D8FE4FF480411448FFF773
:101F8800A2FF4FF47A7009F0CFFE4FF48041104859
:101F9800FFF7A7FF0A2009F0C7FEBB8919460D48BD
:101FA800FFF77FFF0A2009F0BFFE0A48FFF76CFF22
:101FB8000346FB81642009F0B7FE4FF480410448D2
:101FC800FFF781FFFB8918461037BD4680BD00BF6B
:101FD80000080240003C004080B485B000AF786043
:101FE800084B1A6B07497B6813430B63054B1A6B45
:101FF8007B681340FB60FB6800BF1437BD465DF883
:10200800047B70470038024080B485B000AF786028
:10201800084B1A6C07497B6813430B64054B1A6C11
:102028007B681340FB60FB6800BF1437BD465DF852
:10203800047B70470038024080B483B000AF7860FA
:1020480039607B685B6823F010023B681A437B6841
:102058005A6000BF0C37BD465DF8047B704700002E
:1020680080B590B000AF07F1180328220021184668
:102078000BF0EEF93B4600221A605A609A60DA606B
:102088001A615A614FF40040FFF7BEFF0420FFF7C2
:10209800A3FF4FF4E0533B6002237B600323BB6044
:1020A8000023FB6000233B6106237B613B46194606
:1020B800134809F0A2FB0023BB614FF48273FB6154
:1020C8004FF400633B6200237B620123BB624FF441
:1020D8000073FB6200233B6300237B630023BB6325
:1020E8000A23FB6307F118031946064809F0EBFFBA
:1020F80000210448FFF7A0FF00BF4037BD4680BD60
:1021080000080240003C004080B489B000AFF8608D
:10211800B9607A60FB682C331946BB6803F44073D6
:102128004FF440727A617A6992FAA2F23A613A6996
:10213800BA61BA69002A01D1202203E0BA69B2FA69
:1021480082F2D2B2D3409B000B44FB61FB691A6850
:10215800BB6803F01F031F2101FA03F3DB431A4096
:102168007B6803F01F01BB6803F01F0301FA03F348
:102178001A43FB691A6000BF2437BD465DF8047B2B
:10218800704780B483B000AF786039607B689B6823
:1021980023F480623B681A437B689A6000BF0C375F
:1021A800BD465DF8047B704780B48FB000AFF8601F
:1021B800B9607A60FB680C331946BB6803F000739A
:1021C8004FF000727A617A6992FAA2F23A613A693A
:1021D800BA61BA69002A01D1202203E0BA69B2FAC9
:1021E80082F2D2B2D3409B000B447B637B6B1A68AC
:1021F800BB6803F0F8734FF0F8713962396A91FAE5
:10220800A1F1F961F9697962796A002901D120217E
:1022180003E0796AB1FA81F1C9B2CB40072101FA2A
:1022280003F3DB431A40BB6803F0F8734FF0F8710F
:10223800F962F96A91FAA1F1B962B96A3963396B3D
:10224800002901D1202103E0396BB1FA81F1C9B22B
:10225800CB40796801FA03F31A437B6B1A6000BF1D
:102268003C37BD465DF8047B7047000080B485B0FC
:1022780000AF7860084B1A6B07497B6813430B6300
:10228800054B1A6B7B681340FB60FB6800BF143773
:10229800BD465DF8047B70470038024080B485B0C5
:1022A80000AF7860084B5A6C07497B6813434B644E
:1022B800054B5A6C7B681340FB60FB6800BF143702
:1022C800BD465DF8047B70470038024080B592B087
:1022D80000AF07F13C0300221A605A609A6007F1C8
:1022E800280300221A605A609A60DA601A6107F1BE
:1022F800180300221A605A609A60DA603B4600228E
:102308001A605A609A60DA601A615A614FF48070F4
:10231800FFF7C4FF0120FFF7A9FF40233B60032319
:102328007B6000233B613B4619461F4809F065FA6C
:102338000023FB6300233B6400237B6407F13C0319
:1023480019461A4809F048FB0023BB620023FB62C8
:1023580000233B6300237B630023BB6307F128034F
:102368001946124809F064FB4FF480610F48FFF7E3
:1023780008FF4FF48033BB610023FB6107F11803AA
:1023880019460B4809F0E0FA0A4A4FF40071074869
:10239800FFF7BAFE002207490448FFF705FF00BF10
:1023A8004837BD4680BD00BF000002400020014004
:1023B800002301400600200380B58EB000AF07F16E
:1023C8002C0300221A605A609A6007F11803002251
:1023D8001A605A609A60DA601A613B4600221A60F5
:1023E8005A609A60DA601A615A614FF40070FFF718
:1023F80055FF0420FFF73AFF04233B6003237B606B
:1024080000233B613B461946194809F0F6F90023B9
:10241800FB6200233B6300237B6307F12C0319460F
:10242800144809F0D9FA0023BB610023FB6100239B
:102438003B6200237B620023BB6207F11803194645
:102448000C4809F0F5FA4FF480610A48FFF799FE45
:10245800094A4FF400710748FFF756FE0022064963
:102468000448FFF7A1FE00BF3837BD4680BD00BF56
:1024780000080240002101400C00600080B58EB0C9
:1024880000AF07F12C0300221A605A609A6007F126
:10249800180300221A605A609A60DA601A613B4693
:1024A80000221A605A609A60DA601A615A614FF421
:1024B8008060FFF7F3FE0420FFF7D8FE08233B6097
:1024C80003237B6000233B613B461946194809F00A
:1024D80094F90023FB6200233B6300237B6307F12D
:1024E8002C031946144809F077FA0023BB6100232E
:1024F800FB6100233B6200237B620023BB6207F180
:10250800180319460C4809F093FA4FF480610A48F9
:10251800FFF737FE094A4FF400710748FFF7F4FD4B
:10252800002206490448FFF73FFE00BF3837BD4682
:1025380080BD00BF00080240002201400D0090004D
:1025480080B400AF044BDB681B0A03F0070318468E
:10255800BD465DF8047B704700ED00E080B483B0B1
:1025680000AF0346FB7197F90730002B0BDBFB79B3
:1025780003F01F02074997F907305B09012000FAA9
:1025880002F241F8232000BF0C37BD465DF8047BFA
:10259800704700BF00E100E080B483B000AF03469D
:1025A8003960FB7197F90730002B0ADB3B68DAB218
:1025B8000C4997F907301201D2B20B4483F8002373
:1025C8000AE03B68DAB20849FB7903F00F03043BE1
:1025D8001201D2B20B441A7600BF0C37BD465DF823
:1025E800047B704700E100E000ED00E080B489B0B2
:1025F80000AFF860B9607A60FB6803F00703FB611D
:10260800FB69C3F10703042B28BF0423BB61FB69E3
:102618000433062B02D9FB69033B00E000237B61EE
:102628004FF0FF32BB6902FA03F3DA43BB681A4082
:102638007B699A404FF0FF317B6901FA03F3D94374
:102648007B680B40134318462437BD465DF8047B6E
:102658007047000080B485B000AF7860084B1A6BF3
:1026680007497B6813430B63054B1A6B7B68134060
:10267800FB60FB6800BF1437BD465DF8047B7047FC
:102688000038024080B500AF4FF40010FFF7E2FFBA
:10269800FFF756FF0346002200211846FFF7A6FF62
:1026A800034619461020FFF777FF1020FFF756FF63
:1026B800FFF746FF0346002200211846FFF796FF62
:1026C800034619461120FFF767FF1120FFF746FF61
:1026D80000BF80BD80B485B000AF7860084B1A6B2E
:1026E80007497B6813430B63054B1A6B7B681340E0
:1026F800FB60FB6800BF1437BD465DF8047B70477C
:102708000038024080B483B000AF786039603B681D
:102718001A047B689A6100BF0C37BD465DF8047BDC
:102728007047000080B586B000AF3B4600221A60B3
:102738005A609A60DA601A615A610420FFF7CAFF8A
:102748008020FFF7C7FF0120FFF7C4FF0220FFF733
:10275800C1FF44F210011648FFF7D4FF4FF480512F
:102768001448FFF7CFFF44F210033B6001237B605E
:102778000023BB600023FB6000233B613B461946F6
:102788000B4809F03AF84FF480533B6001237B6013
:102798000023BB600023FB6000233B613B461946D6
:1027A800044809F02AF800BF1837BD4680BD00BFAD
:1027B800000802400004024080B485B000AF786091
:1027C800084B1A6B07497B6813430B63054B1A6B5D
:1027D8007B681340FB60FB6800BF1437BD465DF89B
:1027E800047B70470038024080B485B000AF786041
:1027F800084B5A6C07497B6813434B64054B5A6C6A
:102808007B681340FB60FB6800BF1437BD465DF86A
:10281800047B70470038024080B483B000AF786012
:102828007B681B6823F080027B681A6000BF0C3746
:10283800BD465DF8047B704780B485B000AF786012
:1028480039603B68012B1CD03B68042B17D03B68D0
:10285800102B12D03B68402B0DD03B68B3F5807F1E
:1028680007D03B68B3F5806F01D105230AE0062342
:1028780008E0042306E0032304E0022302E0012326
:1028880000E00023FB737B6818331946FB7B0B4A77
:10289800D35C0B44BB60BB681A68FB7B0849CB5C04
:1028A800194604238B40DB431A40BB681A6000BFFB
:1028B8001437BD465DF8047B704700BFD4FE00089E
:1028C800DCFE000880B485B000AF786039603B68F2
:1028D800012B1CD03B68042B17D03B68102B12D05F
:1028E8003B68402B0DD03B68B3F5807F07D03B6831
:1028F800B3F5806F01D105230AE0062308E004231D
:1029080006E0032304E0022302E0012300E00023A1
:10291800FB737B6818331946FB7B0A4AD35C0B446C
:10292800BB60BB681A68FB7B0749CB5C1946082368
:102938008B401A43BB681A6000BF1437BD465DF868
:10294800047B7047D4FE0008DCFE000880B483B026
:1029580000AF786039607B689B6823F4804323F07C
:1029680007033A681A437B689A6000BF0C37BD4674
:102978005DF8047B704780B483B000AF786039603D
:102988007B685B6823F070023B681A437B685A6077
:1029980000BF0C37BD465DF8047B704780B483B038
:1029A80000AF786039607B689B6823F007023B685A
:1029B8001A437B689A6000BF0C37BD465DF8047BFC
:1029C800704780B483B000AF786039607B689B68DB
:1029D80023F070023B681A437B689A6000BF0C378B
:1029E800BD465DF8047B704780B483B000AF786063
:1029F8007B689B6823F080027B689A6000BF0C3775
:102A0800BD465DF8047B704780B483B000AF786042
:102A18007B68DB6823F040027B68DA6000BF0C3714
:102A2800BD465DF8047B704780B483B000AF786022
:102A38007B68DB6823F480427B68DA6000BF0C3770
:102A4800BD465DF8047B704780B59AB000AF07F1CA
:102A5800540300221A605A609A60DA601A6107F11A
:102A680034032022002118460AF0F2FC07F11C0367
:102A780000221A605A609A60DA601A615A613B1D36
:102A880000221A605A609A60DA601A615A6102205C
:102A9800FFF7AAFE0023A7F854300023BB654FF6C2
:102AA800FF73FB6500233B6600237B6607F1540335
:102AB80019465B4809F0CCFB5948FFF7ADFE0021E9
:102AC8005748FFF743FF01215548FFF7FBFE6023F6
:102AD8007B630023BB630023FB6300233B64002369
:102AE8007B640223BB640023FB6400233B6507F17E
:102AF80034031A4601214A4809F044FC0121484898
:102B0800FFF79AFE10214648FFF7DCFE07F1340371
:102B18001A461021424809F035FC10214048FFF7B9
:102B28008BFE4FF480713E48FFF7CCFE07F134036B
:102B38001A464FF480713A4809F024FC4FF480712A
:102B48003748FFF779FE00213548FFF73AFF0021A3
:102B58003348FFF723FF3248FFF756FF3048FFF7A7
:102B680063FF00212E48FFF706FF2D48FFF73CFFC3
:102B78000023FB6100233B6200237B62642387F808
:102B8800283000237B854FF40053FB6200233B630E
:102B980007F11C031946224809F035FC0120FFF70C
:102BA8000BFE0220FFF708FE0420FFF705FE802336
:102BB8007B600223BB600023FB6000233B61002392
:102BC8007B610323BB613B1D1946164808F015FEBF
:102BD80003237B600223BB600023FB6000233B616F
:102BE80000237B610323BB613B1D19460E4808F097
:102BF80004FE4FF4E0737B600223BB600023FB609C
:102C080000233B6100237B610323BB613B1D194605
:102C1800064808F0F2FD00BF6837BD4680BD00BF1A
:102C28000004014000000240000402400008024085
:102C380080B485B000AFF860B9607A600D4ABB68AF
:102C480013441B781A46FB6813441B6823F0C00220
:102C58000849BB680B441B781946FB680B441946A6
:102C68007B6813430B6000BF1437BD465DF8047BD7
:102C7800704700BFE4FE000880B485B000AFF8607C
:102C8800B9607A600D4ABB6813441B781A46FB6822
:102C980013441B6823F490720849BB680B441B78E3
:102CA8001946FB680B4419467B6813430B6000BF49
:102CB8001437BD465DF8047B704700BFE4FE00088A
:102CC80080B485B000AFF860B9607A600D4ABB681F
:102CD80013441B781A46FB6813441B6823F40072DC
:102CE8000849BB680B441B781946FB680B44194616
:102CF8007B6813430B6000BF1437BD465DF8047B47
:102D0800704700BFE4FE000880B485B000AFF860EB
:102D1800B9607A600D4ABB6813441B781A46FB6891
:102D280013441B6823F480620849BB680B441B7872
:102D38001946FB680B4419467B6813430B6000BFB8
:102D48001437BD465DF8047B704700BFE4FE0008F9
:102D580080B485B000AFF860B9607A600D4ABB688E
:102D680013441B781A46FB6813441B6823F4C052AB
:102D78000849BB680B441B781946FB680B44194685
:102D88007B6813430B6000BF1437BD465DF8047BB6
:102D9800704700BFE4FE000880B485B000AFF8605B
:102DA800B9607A600D4ABB6813441B781A46FB6801
:102DB80013441B6823F4C0420849BB680B441B78C2
:102DC8001946FB680B4419467B6813430B6000BF28
:102DD8001437BD465DF8047B704700BFE4FE000869
:102DE80080B485B000AFF860B9607A600D4ABB68FE
:102DF80013441B781A46FB6813441B6823F44032BB
:102E08000849BB680B441B781946FB680B441946F4
:102E18007B6813430B6000BF1437BD465DF8047B25
:102E2800704700BFE4FE000880B485B000AFF860CA
:102E3800B9607A600D4ABB6813441B781A46FB6870
:102E480013441B6823F060620849BB680B441B7875
:102E58001946FB680B4419467B6813430B6000BF97
:102E68001437BD465DF8047B704700BFE4FE0008D8
:102E780080B483B000AF786039600C4A3B68134473
:102E88001B781A467B6813445B6908493A680A4408
:102E9800127811467A680A4423F00403536100BF8C
:102EA8000C37BD465DF8047B704700BFE4FE0008A0
:102EB80080B485B000AF7860084B1A6B07497B680F
:102EC80013430B63054B1A6B7B681340FB60FB686D
:102ED80000BF1437BD465DF8047B704700380240D8
:102EE80080B485B000AF7860084B1A6C07497B68DE
:102EF80013430B64054B1A6C7B681340FB60FB683B
:102F080000BF1437BD465DF8047B704700380240A7
:102F180080B483B000AF78607B68DB6843F400520C
:102F28007B68DA6000BF0C37BD465DF8047B7047EC
:102F380080B483B000AF78607B681B6923F490424B
:102F48007B681A617B685B6923F02A027B685A6197
:102F580000BF0C37BD465DF8047B704780B58EB066
:102F680000AF07F11C0300221A605A609A60DA6009
:102F78001A615A619A613B1D00221A605A609A6070
:102F8800DA601A615A614FF40030FFF7A9FF012097
:102F9800FFF78EFF0C237B600223BB600323FB60DB
:102FA80000233B6100237B610723BB613B1D19465E
:102FB8003E4808F022FC4FF0006205213C48FFF72C
:102FC80033FF002205213A48FFF732FE002205218F
:102FD8003748FFF705FF002205213548FFF74CFE6B
:102FE800002205213248FFF76BFE4FF4806205216D
:102FF8002F48FFF789FE002205212D48FFF7A8FE7C
:10300800002205212A48FFF7C7FE05212848FFF7B7
:103018002FFF4FF0006206212548FFF705FF4022E9
:1030280006212348FFF704FE002206212048FFF767
:10303800D7FE002206211E48FFF71EFE00220621A9
:103048001B48FFF73DFE4FF4806206211848FFF742
:103058005BFE002206211648FFF77AFE00220621B1
:103068001348FFF799FE06211148FFF701FF4FF4B7
:10307800E133FB6100233B6200237B620023BB62D8
:103088000C23FB6200233B6300237B6307F11C03D3
:103098001946084809F006FE0648FFF749FF0548A3
:1030A800FFF736FF00BF3837BD4680BD000002403D
:1030B80000600240004400400FB480B400AF00BF7D
:1030C800BD465DF8047B04B0704780B485B000AF9E
:1030D800F860B9607A60FB68BA681A60FB68043304
:1030E8007A681A6000BF1437BD465DF8047B7047E4
:1030F800F0B58BB000AF87ED020B0346FB80FB8871
:10310800002B77D14FF00002414BD7E90201FDF7C0
:10311800F3F902460B46C7E906239FED391B97EDE5
:10312800060B09F07BFE53EC102B10461946FDF7F1
:1031380093FC03467B6100237B6233A3D3E900231E
:10314800D7E90601FDF768FC0346002B0ED02EA335
:10315800D3E90023D7E90601FDF7F8FA02460B4642
:1031680010461946FDF778FC03467B627A6A79694E
:103178002848FFF7AAFF284BD3E900014FF00002C7
:10318800264BFDF721FC0346002B2ED1224BD3E919
:1031980000014FF000024FF04043FDF715FC0346D5
:1031A800002B22D11C4BD3E90001D7E90223FCF7FD
:1031B800EBFF02460B4614461D464FF00002184B23
:1031C800D7E90201FDF798F902460B4601210E46A0
:1031D80020462946FDF702FC0346002B01D10023B7
:1031E8001E46F3B21A460F4B1A700F49D7E902234D
:1031F800C1E9002300BF2C37BD46F0BDAFF3008006
:10320800000000000000F0410000E0FFFFFFEF4178
:1032180000408F4088030020000000200000F0BF1D
:103228000000B03C70030020900300200000000064
:1032380080B586B000AF87ED020B0346FB80002304
:103248007B61FB88184697ED020BFFF751FF17A328
:10325800D3E90023D7E90201FDF74EF902460B46F0
:10326800104619464FF000020F4BFCF78FFF02463D
:103278000B4643EC172B9FED0A1BB0EE470AF0EE06
:10328800670A09F0CBFD53EC102B10461946FDF7E1
:10329800E3FB03467B617B6918461837BD4680BD52
:1032A800000000000000F0410000E03F00000000C6
:1032B80080842E4180B584B000AF0023BB6000231A
:1032C8007B600023FB7323494FF000024FF000039B
:1032D800C1E9002320494FF000024FF00003C1E983
:1032E80000233A1D07F108031146184605F0B2FFFE
:1032F800BB687A681146184604F0CEF80346FB739B
:1033080097F90F30002B05D01448FFF7D5FE97F931
:103318000F301AE03A1D07F108031146184605F068
:10332800B0FFBB687A681146184600F053FF0346A1
:10333800FB7397F90F30002B05D097F90F3019461A
:103348000748FFF7B9FE97F90F3018461037BD4602
:1033580080BD00BF7803002080030020FCD800084F
:1033680024D9000880B584B000AF0346FB71002360
:10337800FB730023BB73002005F09AFF00237B73C7
:1033880004F058FA0346FB7397F90F30002B0DD061
:1033980097F90F3013F1020F08D097F90F3019463B
:1033A8003C48FFF789FE0123BB730BE07B7B002BB6
:1033B80004D197F90F3013F1020F01D0012300E077
:1033C80000237B73BB7B002B21D100F035FF034624
:1033D800FB7397F90F30002B0DD097F90F3013F1CD
:1033E800020F08D097F90F3019462B48FFF764FEF3
:1033F8000123BB730BE07B7B002B04D197F90F30C3
:1034080013F1020F01D0012300E000237B73BB7B83
:10341800002B21D104F098F90346FB7397F90F307C
:10342800002B0DD097F90F3013F1020F08D097F940
:103438000F3019461948FFF73FFE0123BB730BE015
:103448007B7B002B04D197F90F3013F1020F01D0C9
:10345800012300E000237B73FB79002B0DD00020B3
:1034680005F026FFBB7B002B02D17B7B002B01D113
:10347800012300E00023BB7301E00123BB73BB7B86
:10348800002B3FF47BAF97F90F3018461037BD4635
:1034980080BD00BF4CD9000884D90008B4D9000801
:1034A80080B582B000AF0023BB70394B1B78DBB20C
:1034B800002B02D0002000F0D9FF00F0ABFF03463C
:1034C800FB7000237B600EE00A2005F0F1FE7B68AC
:1034D80003F51C5310337B600120FFF743FF00F016
:1034E80099FF0346FB707B682A4A934202D2FB7815
:1034F800002BE9D100F09AFF0346BB7097F9023020
:10350800002B05D097F9023019462348FFF7D4FD60
:1035180004F00AFB0346BB7097F90230002B05D074
:1035280097F9023019461D48FFF7C6FD1C4B0022CB
:103538001A701C4B00221A701B4B00221A601B4B7E
:1035480000221A601A4B00221A601A4B00221A60D5
:10355800194B00221A6019494FF000024FF04043FE
:10356800C1E900230A4B00221A70082200211448DE
:1035780009F06EFF13494FF000024FF00003C1E954
:10358800002397F9023018460837BD4680BD00BFB2
:103598007003002000879303ECD9000808DA0008BC
:1035A80057030020580300205C030020600300201C
:1035B80064030020680300206C0300200000002042
:1035C800880300209003002080B586B000AF614BCF
:1035D8001B687B617B69002B00F0B8805E4B1B7811
:1035E800DBB2002B04D15B4B1B68002B00F0AE80D4
:1035F8005A4B1B78DBB2022B40F0A880584B1B7843
:10360800002B40F0A3807B69D3E90023C7E902239C
:10361800544B1B78002B00F08A80534B1B78DBB28D
:10362800002B04D0504B1B78DBB2022B01D10123B5
:1036380000E00023FB714C4B1B78DBB2012B04D05C
:10364800494B1B78DBB2022B01D1012300E0002398
:10365800BB71FB79002B33D0444BD3E90023D7E966
:103668000201FDF7CFF90346002B0AD0404BD3E9FE
:1036780000013E4BD3E90023FDF7B0F90346002BC8
:1036880014D13A4BD3E90023D7E90201FDF7C4F975
:103698000346002B14D0364BD3E90001334BD3E952
:1036A8000023FDF791F90346002B09D0314B1B6825
:1036B800002B02D1304B01221A70294B01221A70BB
:1036C800BB79002B33D0294BD3E90023D7E902017A
:1036D800FDF784F90346002B0AD0254BD3E90001F6
:1036E800224BD3E90023FDF78DF90346002B14D1B3
:1036F8001E4BD3E90023D7E90201FDF765F903461C
:10370800002B14D01A4BD3E90001184BD3E900233E
:10371800FDF782F90346002B09D0164B1B68002BD6
:1037280002D1154B01221A700D4B01221A700C4B55
:103738001B78002B0CBF01230023DBB21A46094B70
:103748001A700B49D7E90223C1E9002300BF1837D3
:10375800BD4680BD9C030020A0030020BC030020C0
:10376800CB030020C8030020B8030020A8030020D2
:10377800C0030020B4030020CA03002080B582B033
:1037880000AF0023FB719E4B1B78DBB2002B18D1D6
:103798009C4B00221A709C4B00221A709B4B1B7882
:1037A800DBB2002B2DD0964B02221A70974B0022C9
:1037B8001A70974B1B78DBB2002B22D10123FB71C7
:1037C8001FE0924B00221A708E4B1B78DBB2002B45
:1037D80009D0904B00221A70894B00221A70894B2D
:1037E80000221A700DE08A4B1B78DBB2002B02D145
:1037F8000123FB7105E0844B1B78FB71824B00228F
:103808001A707F4B1B78DBB2042B00F2D78001A221
:1038180052F823F0313800086B3900084B3800089B
:103828001F390008A9380008784B1B78DBB2002B39
:1038380000F0D880724B02221A70744B00221A7062
:10384800D0E0FB79002B00F0CF80734B1B68002B76
:103858000DDD6F4B1B78DBB2012B08D16E4B1B685B
:103868001A466E4B1A60664B03221A70BCE06C4B0A
:103878001B68002B0AD0674B01221A70684B1B6823
:10388800664A13605E4B04221A70ADE06548FFF784
:1038980013FC604B00221A70594B00221A70A3E0E7
:1038A8005E4B1B68002B04D05C4B1B68013B5B4ADA
:1038B80013605A4B1B68002B40F098805A4B1B78BA
:1038C800DBB2012B06D1534B00221A704C4B00225D
:1038D8001A708BE0554B1B68002B0AD04D4B002209
:1038E8001A70524B1B684D4A1360454B01221A70DF
:1038F8007CE0FB79002B07D0494B1B68474A1360D3
:103908003F4B04221A7071E0424B00221A703C4B64
:1039180002221A706AE0414B1B68002B04D03F4B0F
:103928001B68013B3D4A13603C4B1B68002B5FD171
:103938003B4B1B68002B0AD0364B01221A70384BC0
:103948001B68364A13602E4B04221A7050E0354823
:10395800FFF7B2FB2F4B00221A70294B00221A7076
:1039680046E02E4B1B68002B04D02C4B1B68013BF8
:103978002A4A1360294B1B68002B3BD1FB79002B8B
:1039880018D0274B1B68002B0AD0224B01221A7033
:10399800234B1B68214A1360194B04221A7029E033
:1039A8002048FFF789FB1B4B00221A70144B00229A
:1039B8001A701FE0124B02221A701BE0104B1B7882
:1039C800DBB219461A48FFF777FB124B00221A7030
:1039D8000D4B00221A700B4B00221A70084B002264
:1039E8001A7008E000BF06E000BF04E000BF02E074
:1039F80000BF00E000BF00BF0837BD4680BD00BF64
:103A0800BC030020B9030020CB0300200C000020D9
:103A1800BA030020CA030020B4030020CC0300200E
:103A2800080000202CDA0008BB030020B0030020A7
:103A380054DA000880B400AF10494FF000024FF08C
:103A48000003C1E900230E4B00221A700D4B1B78AE
:103A5800DAB20D4B1A700D4B00221A700C4B002273
:103A68001A700C4B00221A600B4B00221A700023AC
:103A78001846BD465DF8047B704700BFC0030020B0
:103A8800C8030020BA030020C9030020CA0300208D
:103A9800CB030020CC030020BC03002080B584B0F9
:103AA80000AF0346FB80FB88002B3FD1314B1B78CE
:103AB800DAB2314B1B789A4214BF01230023DBB2E0
:103AC800FB732C4B1B78DAB22B4B1A70FB7B002B49
:103AD8000BD02A4B00221A70294B00221A70294B4E
:103AE80000221A60284B00221A70224B1B78DBB286
:103AF800012B1BD1244B1B78DBB2002B04D1234BA9
:103B08001B78DBB2002B08D11F4B1B78DBB2012BD3
:103B18000CD11C4B1B68012B08D11A4B00221A60D0
:103B28001A4B00221A70184B02221A70114B1B787C
:103B3800DBB2012B07D1164B1B889BB2FA889A423D
:103B480001D1FFF741FDFB88002B05D1FFF716FED9
:103B5800104B00221A7006E00E4B1B78002B02D087
:103B68000D4B1B7801E0054B1B7818461037BD46F6
:103B780080BD00BFBA030020C9030020CA0300208B
:103B8800CB030020CC030020BC0300200C00002045
:103B980098030020D1030020D003002080B400AF98
:103BA80026494FF000024FF00003C1E90023244BDF
:103BB80000221A70234B00221A70234B00221A701D
:103BC800224B00221A80224B00221A70214B00221D
:103BD8001A70214B00221A60204B00221A70204BC9
:103BE80000221A701F4B00221A601F4B00221A7005
:103BF8001E494FF000024FF00003C1E900231C4B9F
:103C08004FF47A721A601B4B00221A601A4B00227A
:103C18001A601A4B00221A70194B01221A70194B9C
:103C280000221A70184B00221A70184B00221A70C2
:103C380000231846BD465DF8047B7047C00300208A
:103C4800C8030020BC030020C903002098030020FB
:103C5800CA030020CB030020CC030020D00300209F
:103C6800D10300209C030020A0030020A80300200B
:103C780008000020B0030020B4030020B80300208F
:103C88000C000020B9030020BA030020BB03002069
:103C980080B400AF174B1B78DBB2002B25D1164B35
:103CA8001B78DBB2002B0BD0144B1B78DBB2002B3C
:103CB80006D1134B01221A70124B01221A7014E01C
:103CC8000E4B1B78DBB2002B0BD00B4B1B78DBB2F7
:103CD800002B06D10A4B00221A700A4B01221A70D7
:103CE80003E0084B00221A70FFE700BFBD465DF8ED
:103CF800047B7047BA0300200C000020B9030020A1
:103D0800D0030020D103002080B586B000AFF86052
:103D1800B9607A603B600023FB7503F0F9FE3861F7
:103D2800FB681B68184604F009F90021386803F09D
:103D380067FE0246BB681A6003F052FE02467B68C3
:103D48001A60BB681B68002B0FD0BB681B6819463C
:103D5800386904F0F9FB0246FB681A60FB681B68C7
:103D6800002B04D1F623FB7501E0F823FB7597F9C6
:103D7800173018461837BD4680BD000080B584B09E
:103D880000AFF860B9607A60FA68BB6813441B78C2
:103D980019460848FFF790F9FB68002B02D0F8682D
:103DA80004F0CCF87B6800221A600023184610370C
:103DB800BD4680BD78DA000880B584B000AFF860F1
:103DC800B9607A60FA68BB6813441B7819460648DC
:103DD800FFF772F97B6802221A604FF0FF3318462A
:103DE8001037BD4680BD00BFD4DA000880B485B066
:103DF80000AF03460A46FB711346BB710523FB73EC
:103E0800FB79F02B02D90023FB7322E0FB79E32B2B
:103E180005D9FB79F02B02D80123FB7319E0FB7954
:103E2800D22B02D9FB79E22B08D9FB79C02B08D118
:103E3800BB79002B05D0BB79022B02D80223FB7378
:103E480007E0FB79C72B04D9FB79D22B01D80323D0
:103E5800FB73FB7B18461437BD465DF8047B70473F
:103E680080B58CB000AFF860B9607A603B60FB68E1
:103E7800BB62BB6A1B7887F82730002387F82F308E
:103E880097F82730C02B06D1BB68012B03D9BB6A32
:103E98005B7887F82F30364B1B78002B3ED097F88D
:103EA8002F2097F8273011461846FFF79FFF034643
:103EB800FB76002387F82E30FB7E052B23D0FB7E74
:103EC8002C4A52F823307B6100233B617B69002B2D
:103ED80019D097F827207B691046984738613B69C5
:103EE800002B14BF01230023DBB287F82E3097F88C
:103EF8002E30002B07D03B695A687B681A603B69F3
:103F08009A683B681A6097F82E30002B2CD17B6892
:103F1800194A1A603B68194A1A6025E097F8273051
:103F2800FF2B1BD1134B1B683B627B6800221A6076
:103F38003B6800221A603B6A002B15D03B6AFF20C1
:103F48009847F861FB69002B0ED0FB695A687B68BB
:103F58001A60FB699A683B681A6005E07B68084A42
:103F68001A603B6800221A6000BF3037BD4680BD2A
:103F7800D3030020D8030020C13D000851400008A9
:103F8800853D000880B483B000AF0346FB71044A46
:103F9800FB79137000BF0C37BD465DF8047B704792
:103FA800D303002080B400AF034B1B781846BD46EE
:103FB8005DF8047B704700BFD403002080B483B051
:103FC80000AF0346FB71064B1A78FB791343DAB24C
:103FD800034B1A7000BF0C37BD465DF8047B704771
:103FE800D403002080B483B000AF0346FB7197F977
:103FF8000730DB435AB2074B1B785BB213405BB206
:10400800DAB2044B1A7000BF0C37BD465DF8047B6A
:10401800704700BFD403002080B400AF034B1B7867
:104028001846BD465DF8047B704700BFD5030020E5
:1040380080B400AF034B1B881846BD465DF8047B6F
:10404800704700BFD603002080B586B000AF034696
:10405800B9607A60FB7397F90F30002B05D1BB6804
:104068003B613B69FF221A7076E0BB687B617B6924
:10407800FE221A7097F90F3010330F2B62D801A265
:1040880052F823F0454100083D4100083541000839
:104098002D410008254100081D4100080D41000878
:1040A8001541000805410008FD400008F5400008DA
:1040B800ED400008D5400008CD400008DD4000086C
:1040C800E54000087B6930225A7045E07B69292267
:1040D8005A7041E07B6922225A703DE07B692022B8
:1040E8005A7039E07B6900225A7035E07B692322D7
:1040F8005A7031E07B6921225A702DE07B691122C8
:104108005A7029E07B6927225A7025E07B692A22A8
:104118005A7021E07B6910225A701DE07B692422C5
:104128005A7019E07B6928225A7015E07B692622AB
:104138005A7011E07B6931225A700DE07B69332295
:104148005A7009E097F90F3019460548FEF7B4FF91
:104158007B6920225A70FFE700BF1837BD4680BD33
:1041680004DB000880B487B000AF0346B9607A600A
:10417800FB7300237B61BB68002B23D000233B61CA
:1041880000233B6117E03A6913465B0013449B0028
:104198001A46BB6813441B78FA7B9A4208D13A69DD
:1041A80013465B0013449B001A46BB6813447B61AB
:1041B8003B6901333B613A697B689A4202D27B6969
:1041C800002BE0D07B6918461C37BD465DF8047BA0
:1041D8007047000080B582B000AF78603960134B3B
:1041E8001B78002B05D01248FEF766FF6FF00B0313
:1041F80018E000F077FC00F081FC03460D4A1360DC
:1042080002F04EFA02F068FA03460A4A936003F095
:1042180041F803F049F80346064A5360034B01226C
:104228001A70002318460837BD4680BDD203002007
:1042380048DB0008D803002080B58CB002AF00230B
:1042480087F82730002387F826300023FB610023F6
:10425800BB6100237B6100233B610023FB600023DB
:104268003B620023BB6000237B60554B1B78002B0F
:1042780005D15448FEF720FF6FF008039BE007F1D3
:10428800140007F1180207F11C0107F1100300934D
:104298000346002003F00EFB034687F8273097F902
:1042A8002730002B09D097F9273013F1040F04D0D9
:1042B80097F9273013F1050F71D1FB69002B05D051
:1042C8007A693B691A44BB699A4203D9F82387F88B
:1042D800273067E0FA697B6913443B6239693B1D03
:1042E80007F10802386AFFF7BBFDBB68002B09D14C
:1042F8003B6A1B7819463448FEF7DEFEF42387F83C
:1043080027304FE0BB68F869796907F10C029847D4
:10431800034687F826307B68002B3DD0FB68002BCE
:104328003AD0002387F827303A69FB689A420BD2C3
:10433800FB6807F1140207F1180107F11C00FFF7E9
:10434800E3FC034687F827303B691A460021386AA0
:1043580009F07EF897F92730002B1DD1FA697B699F
:1043680013443B627B68FA6897F92600396A9847D4
:10437800F969B8697B69FA680192009303460A46AD
:104388004FF6FF71012003F03DF9034687F8273007
:1043980097F92730002B04D197F927300BE000BF9D
:1043A80000E000BFFB69002B03D0FB69184603F04F
:1043B800C5FD97F9273018462837BD4680BD00BF90
:1043C800D203002078DB0008A0DB000880B584B0A9
:1043D80000AF03463960FB800023FB730B4B1B784F
:1043E800002B05D10A48FEF767FE6FF0080309E0C5
:1043F800FB8800223968184602F06CFB0346FB7301
:1044080097F90F3018461037BD4680BDD2030020FB
:10441800D0DB000880B400AF034B1B781846BD46BC
:104428005DF8047B704700BFD303002080B500AF60
:104438000B4B1B78002B02D10A48FEF73DFE02F019
:104448004FFF02F0F1FD00F075FB10220021064835
:1044580008F0FEFF024B00221A700023184680BDA8
:10446800D2030020C8DC0008D803002080B584B03F
:1044780000AF7860786802F0B1FB0346FB7397F9E8
:104488000F3018461037BD4680BD80B584B000AFE8
:104498000346FB800123FB73FA7BFB880021184647
:1044A80002F018FB0346BB7397F90E301846103715
:1044B800BD4680BD80B584B000AF0346FB710123C3
:1044C800FB6003F0DCFAB860FA79B968FB68B1FB05
:1044D800F3F39A4234BF01230023DBB218461037A6
:1044E800BD4680BD80B584B000AF78600B46FB70D8
:1044F80000F02AFBF860F9680648FEF7DDFD064B78
:104508001B781A46F9687868FCF7E0FA00BF10379C
:10451800BD4680BDF0DC0008F003002080B588B0FF
:1045280000AFF860B9607A600023FB77FA68BB686F
:104538001344BB61BB697B610023FB7402F0A6FCDA
:104548000346FB74FB7C002B08D11A48FEF7B4FD28
:104558007B6802221A606FF00A0327E07B695B78A8
:10456800002B03D07B695B78012B01D1012300E08C
:104578000023FB74FB7C002B0BD17B695B7819460D
:104588000D48FEF799FD7B6802221A606FF001035F
:104598000CE00A48FEF790FD0120FFF7F3FC00232A
:1045A800FB777B6808221A6097F91F301846203776
:1045B800BD4680BD08DD000854DD000878DD000830
:1045C80080B586B000AF0346B9607A60FB7397F98F
:1045D8000F30002B47D1BB687B6108220021786926
:1045E80008F036FF7B69FF221A7005227B695A7032
:1045F80000227B699A7003F042FA0346DAB27B69BB
:10460800DA7003F035FA03469AB27B699A807B69BF
:1046180001229A717B690122DA717B695B781946FC
:104628001648FEF749FD7B699B7819461448FEF742
:1046380043FD7B69DB7819461248FEF73DFD7B692F
:104648009B889BB219461048FEF736FD7B699B791B
:1046580019460E48FEF730FD7B69DB7919460C4890
:10466800FEF72AFD06E097F90F307A68B968184610
:10467800FFF7EAFC00BF1837BD4680BDA0DD000883
:10468800BCDD0008D8DD0008F4DD000810DE0008F5
:104698002CDE000880B586B000AFF860B9607A609B
:1046A8000123FB7502F0F2FB0346FB75FB7D002B33
:1046B80008D10B48FEF700FD7B6802221A606FF0F4
:1046C8000A0309E00748FEF7F7FC0020FFF75AFC49
:1046D8007B6801221A60002318461837BD4680BD42
:1046E80048DE000898DE000880B584B000AFF860A6
:1046F800B9607A600548FEF7DFFC7B6806221A601D
:10470800002318461037BD4680BD00BFC8DE00082C
:1047180080B586B000AF0346B9607A60FB73BB68AA
:104728007B6106220021786908F092FE7B69FF22EE
:104738001A70FFF737FC03461A467B695A70FFF771
:104748006BFC03461A467B699A70FFF771FC0346B7
:104758001A467B699A807B695B7819460948FEF797
:10476800ABFC7B699B7819460748FEF7A5FC7B697B
:104778009B889BB219460548FEF79EFC00BF183778
:10478800BD4680BDD4DE0008F8DE00081CDF000846
:1047980080B586B000AFF860B9607A600023FB7519
:1047A8000B48FEF789FC02F05BFB0346FB75FB7DBB
:1047B800002B03D003F08CF902F061FB7B68022226
:1047C8001A606FF0040318461837BD4680BD00BF55
:1047D80040DF000880B588B000AFF860B9607A6043
:1047E8000023FB77FA68BB681344BB61BB697B6134
:1047F8000023FB747B695A687B69DB78194610468D
:1048080000F0AEF90346FB74FB7C002B08D10D4881
:10481800FEF752FC7B6802221A606FF00B030CE073
:104828007B6959687B69DB781A460748FEF744FCC0
:104838007B6801221A6097F91F3018462037BD4659
:1048480080BD00BF48DF000864DF000880B58AB07B
:1048580000AFF860B9607A60002387F82730FA68FB
:10486800BB6813443B623B6AFB610023FB7600F0A4
:104878006BF97861FB695B781846FFF71BFE034606
:10488800FB76FB7E002B0BD1FB695B78194612483F
:10489800FEF712FC7B6802221A606FF0010316E033
:1048A8007B69002B08D10D48FEF706FC7B680222C5
:1048B8001A606FF00B030AE0FB695A78084B1A700C
:1048C800074B1B785A1C7B681A6097F927301846E3
:1048D8002837BD4680BD00BF98DF0008C8DF000844
:1048E800F003002080B588B000AF0346B9607A6055
:1048F800FB7397F90F30002B30D100F025F9F861E0
:10490800BB68BB6101220021B86908F0A1FDBB6941
:10491800FF221A70FB69002B1CD0164B1B78013341
:104928007A689A4216D1BB6801337B610023FB7415
:104938001148FEF7C1FBFB7C19467869FFF7D2FDE9
:104948000C4B1B78184600F029F90A4B00221A7004
:1049580000BF0AE00948FEF7AFFB06E097F90F3001
:104968007A68B9681846FFF76FFB00BF2037BD4665
:1049780080BD00BFF0030020E4DF0008F0DF00087E
:1049880080B588B000AFF860B9607A600023FB7723
:10499800FA68BB681344BB61BB697B610023FB7485
:1049A8007B695B781846FFF785FD0346FB74FB7C43
:1049B800002B0BD17B695B7819461748FEF77CFB07
:1049C8007B6802221A606FF0010320E07B695A6855
:1049D8007B69DB781946104600F0C2F80346FB7481
:1049E800FB7C002B08D10D48FEF766FB7B68022292
:1049F8001A606FF00B030AE07B695A78084B1A704B
:104A0800074B1B785A1C7B681A6097F91F301846A9
:104A18002037BD4680BD00BF10E0000844E0000814
:104A2800F003002080B588B000AF0346B9607A6013
:104A3800FB7397F90F30002B30D100F085F8F8613F
:104A4800BB68BB6101220021B86908F001FDBB69A0
:104A5800FF221A70FB69002B1CD0164B1B78013300
:104A68007A689A4216D1BB6801337B610023FB74D4
:104A78001148FEF721FBFB7C19467869FFF732FDE8
:104A88000C4B1B78184600F089F80A4B00221A7064
:104A980000BF0AE00948FEF70FFB06E097F90F3060
:104AA8007A68B9681846FFF7CFFA00BF2037BD46C5
:104AB80080BD00BFF003002064E0000874E0000837
:104AC80080B582B000AF0346FB71FB790722044929
:104AD8001846FFF747FB034618460837BD4680BD12
:104AE800ECFE000880B500AF034800F013F800F0B2
:104AF80069F800BF80BD00BFC94A000880B400AF94
:104B0800034B1B681846BD465DF8047B704700BF21
:104B1800F403002080B483B000AF7860044A7B6857
:104B2800136000BF0C37BD465DF8047B704700BFBB
:104B3800F403002080B500AF00F04BF80020FFF729
:104B4800E9FF00BF80BD000080B400AF034B1B68C5
:104B58001846BD465DF8047B704700BFE803002097
:104B680080B483B000AF78600B46FB70FB78002BF5
:104B780004D17B68002B01D1002306E0064A7B683C
:104B88001360054AFB781371012318460C37BD469C
:104B98005DF8047B704700BFE803002080B483B051
:104BA80000AF0346FB71064B1A68FB791344044AAD
:104BB800136000BF0C37BD465DF8047B704700BF2B
:104BC800E803002080B400AF00BFBD465DF8047B59
:104BD800704780B400AF00BFBD465DF8047B7047E6
:104BE80080B584B000AF0346FB800023FB7305F05B
:104BF800B6FF03460B4A13600B4B1B68002B0CBF18
:104C080001230023DBB2FB73FB7B002B04D1054B94
:104C18001B68184605F0B4FFFB7B18461037BD46E5
:104C280080BD00BF040400200004002080B582B0CD
:104C380000AF0346FB80044B1B68184605F0A0FF35
:104C480000BF0837BD4680BD0404002080B582B08F
:104C580000AF0346FB8005F082FF0346074A136056
:104C6800074B1B680133064A1360044B1B68184640
:104C780005F086FF00BF0837BD4680BD040400204C
:104C88000004002080B582B000AF0346FB8005F029
:104C980066FF0346074A1360074B1B68013B064A39
:104CA8001360044B1B68184605F06AFF00BF0837FD
:104CB800BD4680BD040400200004002080B483B0F9
:104CC80000AF0346FB80104B1968FA8813465B0057
:104CD8001344DB000B445B79022B0AD00A4B19689A
:104CE800FA8813465B001344DB000B445B79032B03
:104CF80001D1012300E00023DBB218460C37BD4682
:104D08005DF8047B704700BFF803002080B582B0CF
:104D180000AF0023FB710023BB800023BB8008E0A9
:104D2800BB881846FFF7CAFF0346FB71BB880133EF
:104D3800BB80094B9B88BA889A4202D2FB79002B28
:104D4800EED0FB79002B0CBF01230023DBB2184601
:104D58000837BD4680BD00BFF803002080B485B089
:104D680000AF0346FB800B467B7113463B71284B13
:104D78001B68002B42D0264B9B88FA889A423DD26A
:104D8800234B1968FA8813465B001344DB000B4475
:104D98001B68002B32D01E4B1968FA8813465B003B
:104DA8001344DB000B441B797A799A4226D2184BBC
:104DB8001968FA8813465B001344DB000B44196832
:104DC8007A791346DB009B1A9B000B441B68002B67
:104DD80014D00F4B1968FA8813465B001344DB00A4
:104DE8000B4419687A791346DB009B1A9B000B4425
:104DF8001B793A799A4201D2012300E00023FB7320
:104E0800FB7B18461437BD465DF8047B704700BF2E
:104E1800F803002080B485B000AF03463A60FB7108
:104E28000B46BB710023FB73BB79BB81FB79FF2B5E
:104E380004D1BB89FF2B01D80123FB73FB7B1846E8
:104E48001437BD465DF8047B704780B483B000AF6B
:104E58000346FB71FB7923F01003002B0CBF0123E1
:104E68000023DBB218460C37BD465DF8047B70475B
:104E780080B485B000AF0346FB710023FB73FB7958
:104E8800002B05D0FB79012B02D0FB79022B01D135
:104E98000123FB73FB7B18461437BD465DF8047B82
:104EA800704780B485B000AF0346FB710023FB73E5
:104EB800FB79002B05D0FB79012B02D0FB79022B63
:104EC80001D10123FB73FB7B18461437BD465DF8FF
:104ED800047B704780B400AF01231846BD465DF8D7
:104EE800047B704780B485B000AF0346FB80164B47
:104EF8001968FA8813465B001344DB000B441B7BDC
:104F0800022B0ED1104B1968FA8813465B00134424
:104F1800DB000B44DA880D4B1B889A4201D0012331
:104F280000E00023FB73FB7B002B04D0FB88002BE5
:104F380001D1012300E00023FB73FB7B18461437E3
:104F4800BD465DF8047B7047F80300201800002078
:104F580080B485B000AF78600B46FB707B68196839
:104F6800FA781346DB009B1A9B000B44BB60BB68B6
:104F78009B687A68D28902FB03F30133FB60FB78F4
:104F8800002B08D17B681B7A03F01003002B02D09A
:104F9800FB680433FB60FB6818461437BD465DF8B0
:104FA800047B704780B586B000AF78600023BB747F
:104FB80000237B610023FB740023FB7415E0FB7C5A
:104FC80019467868FFF7C4FFF8600023BB60012129
:104FD800F86802F015FDB860BA687B699A4201D991
:104FE800BB687B61FB7C0133FB747B681B79FA7CB3
:104FF8009A42E4D37B681B791A4613465B009918DA
:105008007B6814331A46786903F050F80346BB747A
:1050180097F91230002B03D07B684FF0FF325A61AA
:1050280097F9123018461837BD4680BD80B582B052
:1050380000AF78607B685B69B3F1FF3F04D07B68A1
:105048005B69184603F044F97B684FF0FF325A61F8
:1050580000BF0837BD4680BD80B58AB000AFF86094
:10506800B9607A60002387F82730FA68BB68134470
:105078003B623B6AFB61FB699A78DB781B0213434E
:105088007B83FB691B797B76FB695B793B76002325
:10509800FB753A7E797E7B8B1846FFF75FFE0346E9
:1050A800FB75FB7D002B0BD1798B7A7E3B7E1D48EF
:1050B800FEF702F87B6802221A606FF001032CE009
:1050C8007B8B1846FFF7FAFD0346002B0CBF012324
:1050D8000023DBB2FB75FB7D002B0AD17B8B1946C5
:1050E8001148FDF7E9FF7B6802221A606FF0070399
:1050F80013E0798B7A7E3B7E0C48FDF7DDFF0C4A86
:105108007B8B13800A4A7B7E9370094A3B7ED3705F
:105118007B6801221A6097F9273018462837BD4660
:1051280080BD00BF9CE00008E0E0000810E1000836
:1051380014000020F0B58FB004AFF860B9607A6051
:10514800002387F82730FA68BB6813443B623B6A40
:10515800FB61584B1B887B83564B9B787B76554B62
:10516800DB783B7600237B610023FB743A7E797EF3
:105178007B8B1846FFF7F2FD0346FB74FB7C002B84
:105188000BD1798B7A7E3B7E4B48FDF795FF7B6888
:1051980002221A606FF0050387E07B8B1846FFF741
:1051A8008DFD0346002B0CBF01230023DBB2FB74EB
:1051B800FB7C002B0AD17B8B19464048FDF77CFF0E
:1051C8007B6802221A606FF007036EE0FB6958786B
:1051D800FB699978FB695B681A46FFF71BFE034673
:1051E800FB74FB7C002B1BD1798B7A7E387EFB69A4
:1051F8005B781C46FB699B781D46FB69DB781E467D
:10520800FB695B68039302960195009403462C485A
:10521800FDF752FF7B6802221A606FF0010344E039
:10522800798B7A7E387EFB695B781C46FB699B78B4
:105238001D46FB69DB781E46FB695B680393029693
:105248000195009403461F48FDF736FF1E4B196869
:105258007A8B13465B001344DB000B4419687A7E93
:105268001346DB009B1A9B000B441A683B7EDB004D
:1052780013447B61FB695A787B691A70FB699A78D9
:105288007B695A70FB69DA787B699A70FB695A689E
:105298007B695A60074BDB780133DAB2054BDA7069
:1052A8007B6801221A6097F9273018462C37BD46CB
:1052B800F0BD00BF1400002060E10008BCE1000858
:1052C800ECE1000864E20008F803002090B58DB016
:1052D80002AFF860B9607A60002387F82730FA686F
:1052E800BB6813443B623B6AFB610023BB6100233C
:1052F800FB75614B1B68002B08D0FB695B889AB271
:105308005D4B9B889A4201D2012300E00023FB7584
:10531800FB7D002B0CD1FB695B889BB21946574873
:10532800FDF7CAFE7B6802221A606FF001039FE056
:10533800514B1A68FB695B889BB219460B465B00A8
:105348000B44DB001344BB61FB695B889BB21846C6
:10535800FFF7B4FC0346002B0CBF01230023DBB28C
:10536800FB75FB7D002B0CD1FB695B889BB2194652
:105378004348FDF7A1FE7B6802221A606FF007031D
:1053880076E0FB699B889BB27F2B94BF01230023A7
:10539800DBB2FB75FB7D002B0CD1FB699B889BB2B4
:1053A80019463848FDF788FE7B6802221A606FF0BC
:1053B80001035DE0FB69DB79002B0CBF01230023AF
:1053C800DBB2FB75FB7D002B08D12F48FDF774FE7F
:1053D8007B6802221A606FF0010349E0FB695B7881
:1053E8001846FFF732FD0346FB75FB7D002B0BD1FA
:1053F800FB695B7819462548FDF75EFE7B6802224B
:105408001A606FF0090333E0FB695B889BB21946A9
:10541800FB695B781846FB699B889BB21C46FB6955
:105428009B791A46FB69DB79019300922346024671
:105438001748FDF741FEFB695A78BB691A72FB6988
:105448009B889AB2BB69DA80FB699A79BB695A7200
:10545800FB69DA79BB699A72BB695B7A012B02D85E
:10546800BB6901225A727B6801221A6097F92730BA
:1054780018462C37BD4690BDF8030020D4E200083A
:1054880004E3000838E3000868E30008A4E3000820
:10549800D8E3000890B58FB000AFF860B9607A60C3
:1054A800002387F82630FA68BB6813443B623B6ADE
:1054B800FB610023BB61FB695B889BB27B610023B6
:1054C80087F837300023FB748A4B1B68002B07D002
:1054D800884B9B881A467B69934201DA012300E0D6
:1054E800002387F8373097F83730002B09D17969CE
:1054F8008148FDF7E1FD7B6802221A606FF0010325
:10550800B2E17E4A7B6913607A4B19687A6913465F
:105518005B001344DB000B44BB61FB695B781846F6
:10552800FFF7A6FC034687F8373097F83730002B8B
:105538000BD1FB695B7819467148FDF7BDFD7B68A7
:1055480002221A606FF009038EE1FFF7C3FC0346DD
:10555800002B5AD0BB695B79002B56D1BB691B7AEB
:1055680003F00203002B21D0BB691B68002B09D074
:10557800604BDB791A46BB691B791344802B01DC2D
:10558800012300E0002387F8373097F83730002BE5
:105598002DD0584BDA79BB69DA72564BDA79BB6988
:1055A8001B791344DAB2534BDA7120E0BB691B68EC
:1055B800002B09D04F4B9B791A46BB691B791344C2
:1055C800FC2B01DC012300E0002387F8373097F833
:1055D8003730002B0BD0474B9A79BB69DA72454BB1
:1055E8009A79BB691B791344DAB2424B9A7197F8DE
:1055F8003730002B09D179694248FDF75DFD7B689A
:1056080002221A606FF008032EE1FB695B78012B18
:1056180004D0FB695B78022B40F0908000233B6349
:10562800012387F8373000233B637CE00023FB62CB
:105638000023BB620023FB6213E0BB6919683A6B65
:105648001346DB009B1A9B000B441A68FB6ADB00BD
:1056580013445B781A46BB6A1344BB62FB6A013386
:10566800FB62BB6919683A6B1346DB009B1A9B0007
:105678000B441B791A46FB6A9342DEDB3B6B002B1B
:1056880017D1BB691B7A03F01003002B11D0BB693B
:10569800DB891A46BB6A02FB03F35C1D02F0E8F9DA
:1056A80003469C4294BF01230023DBB287F83730BE
:1056B80010E0BB69DB891A46BB6A02FB03F35C1C7A
:1056C80002F0D6F903469C4294BF01230023DBB2C3
:1056D80087F8373097F83730002B17D13A6B79694C
:1056E8000948FDF7E9FC7B6802221A606FF008039D
:1056F800BAE000BFF80300203CE4000810000020D6
:105708006CE400089CE40008D8E40008BB69196848
:105718003A6B1346DB009B1A9B000B44BA6A9A60EB
:105728003B6B01333B63BB691B791A463B6B934266
:1057380004DA97F83730002B7FF478AFBB69DB8841
:105748001846FFF74DFA0346FB74FB7C002B7DD00F
:10575800002387F82730FB695B78022B53D0022B94
:105768005FDC002B02D0012B13D05AE07969404846
:10577800FDF7A2FCBB6901225A71FFF7C7FA03467D
:10578800002B4BD00120FEF7FDFB4020FEF72AFC42
:1057980044E079693748FDF78FFCBB695B69B3F171
:1057A800FF3F22D1BB69DA88334B1B889A420CD160
:1057B800314B5868304B9968BB6914331A4602F06C
:1057C80033FE034687F827300FE07B69002B0CDC9B
:1057D800BB69DB88012B08D8B869FFF7E3FB0346F0
:1057E80087F82730BB6900221A8297F92730002BE7
:1057F80016D1BB6903225A710220FEF7C3FB402071
:10580800FEF7DCFB0CE0FB695B889BB219461B4882
:10581800FDF752FCBB6902225A7102E000BF00E0AA
:1058280000BFBB69DB881846FFF700FA7B680222D5
:105838001A6097F92730002B08D01148FDF73CFC77
:105848007B6802221A606FF002030DE0FB7C002BDC
:1058580008D10C48FDF730FC7B6802221A606FF013
:105868000A0301E097F9263018463C37BD4690BD3B
:105878003CE5000868E500081800002094E50008E9
:10588800C0E500080CE6000880B586B000AF034606
:10589800B9607A60FB7397F90F30002B12D1BB689F
:1058A8007B617B69FF221A700C4B1A680C4B1B68D2
:1058B80019460B465B000B44DB001344DA7A7B691C
:1058C8005A7006E097F90F307A68B9681846FEF7FB
:1058D800BBFB00BF1837BD4680BD00BFF8030020E2
:1058E8001000002090B58BB000AFF860B9607A6006
:1058F8000023FB77FA68BB681344BB61BB697B6113
:105908000023FB740023BB7400237B627B695B78F4
:105918001846FFF7C6FA0346FB74FB7C002B0BD135
:105928007B695B781946A648FDF7C6FB7B680222AF
:105938001A606FF0090362E1A24B1B68002B05D0C7
:10594800A04B9B88002B01D0012300E00023FB74AF
:10595800FB7C002B08D19C48FDF7AEFB7B6802223C
:105968001A606FF001034AE101F07AFA0346BB744A
:10597800BB7C002B00F03581002387F823300023FF
:105988003B847B695B78022B00F0D580022B00F307
:105998000681002B02D0012B2CD000E100237B6272
:1059A8001BE0884B19687A6A13465B001344DB00D6
:1059B8000B445B79002B0DD0796A8448FDF77CFB9A
:1059C800804B19687A6A13465B001344DB000B446A
:1059D80001225A717B6A01337B627A4B9B881A4693
:1059E8007B6A9342DDDB0120FEF7CCFA4020FEF70C
:1059F800F9FAD4E000237B6263E0724B19687A6A93
:105A080013465B001344DB000B445B79022B55D132
:105A18006C4B19687A6A13465B001344DB000B442D
:105A28005B69B3F1FF3F49D1664B19687A6A13463F
:105A38005B001344DB000B44DA88654B1B889A42F1
:105A480014D1634B5868624B9C685E4B19687A6A3C
:105A580013465B001344DB000B4414331A462146FB
:105A680002F0E2FC034687F8233027E07B6A002B2C
:105A780024DC544B19687A6A13465B001344DB0034
:105A88000B44DB88012B19D84E4B19687A6A1346E8
:105A98005B001344DB000B441846FFF783FA034608
:105AA80087F82330474B19687A6A13465B0013441A
:105AB800DB000B4400221A827B6A3B847B6A013339
:105AC8007B62404B9B881A467B6A934203DA97F9BC
