:020000040800F2
:1000000000000220E9D8000809BA000811BA000867
:1000100019BA000821BA000829BA00080000000037
:100020000000000000000000000000003191000806
:1000300031BA000800000000ED9000081D90000893
:1000400039D9000839D9000839D9000839D9000848
:1000500039D9000839D9000839D9000839D9000838
:1000600039D9000839D9000839D9000839D9000828
:1000700039D9000839D9000839D9000839D9000818
:10008000E1A10008C1A1000839D9000839D9000848
:1000900039D9000839D9000839D9000839D90008F8
:1000A00039D9000841BA000839D9000839D90008FF
:1000B00039D9000839D9000839D9000839D90008D8
:1000C00039D9000839D9000839D9000839D90008C8
:1000D00039D9000839D90008ADA1000839D900087C
:1000E00039D9000839D9000839D9000839D90008A8
:1000F00039D9000839D9000839D9000839D9000898
:1001000039D9000839D9000839D9000839D9000887
:1001100039D9000839D9000839D9000839D9000877
:1001200039D9000839D9000839D9000839D9000867
:1001300039D90008000000000000000039D900088B
:1001400039D9000839D9000839D9000839D9000847
:1001500039D9000839D9000839D9000839D9000837
:1001600039D9000839D9000839D9000839D9000827
:1001700039D9000839D9000800000000000000004B
:0801800039D9000839D9000843
:1001880081F0004102E000BF83F0004330B54FEA40
:1001980041044FEA430594EA050F08BF90EA020FAD
:1001A8001FBF54EA000C55EA020C7FEA645C7FEA40
:1001B800655C00F0E2804FEA5454D4EB5555B8BF63
:1001C8006D420CDD2C4480EA020281EA030382EAD4
:1001D800000083EA010180EA020281EA0303362D66
:1001E80088BF30BD11F0004F4FEA01314FF4801C39
:1001F8004CEA113102D0404261EB410113F0004F4B
:100208004FEA03334CEA133302D0524263EB430301
:1002180094EA050F00F0A780A4F10104D5F1200E9F
:100228000DDB02FA0EFC22FA05F2801841F10001FA
:1002380003FA0EF2801843FA05F359410EE0A5F1CE
:1002480020050EF1200E012A03FA0EFC28BF4CF0FF
:10025800020C43FA05F3C01851EBE37101F00045B5
:1002680007D54FF0000EDCF1000C7EEB00006EEBC2
:100278000101B1F5801F1BD3B1F5001F0CD349084C
:100288005FEA30004FEA3C0C04F101044FEA4452A3
:1002980012F5800F80F09A80BCF1004F08BF5FEA2A
:1002A800500C50F1000041EB045141EA050130BD0A
:1002B8005FEA4C0C404141EB0101013C28BFB1F51C
:1002C800801FE9D291F0000F04BF01460020B1FA67
:1002D80081F308BF2033A3F10B03B3F120020CDA3A
:1002E8000C3208DD02F1140CC2F10C0201FA0CF018
:1002F80021FA02F10CE002F11402D8BFC2F1200C7D
:1003080001FA02F120FA0CFCDCBF41EA0C01904032
:10031800E41AA2BF01EB0451294330BD6FEA04047B
:100328001F3C1CDA0C340EDC04F11404C4F1200266
:1003380020FA04F001FA02F340EA030021FA04F378
:1003480045EA030130BDC4F10C04C4F1200220FACF
:1003580002F001FA04F340EA0300294630BD21FA0D
:1003680004F0294630BD94F0000F83F4801306BFD3
:1003780081F480110134013D4EE77FEA645C18BFC7
:100388007FEA655C29D094EA050F08BF90EA020F5E
:1003980005D054EA000C04BF1946104630BD91EA56
:1003A800030F1EBF0021002030BD5FEA545C05D159
:1003B8004000494128BF41F0004130BD14F5800498
:1003C8003CBF01F5801130BD01F0004545F0FE410C
:1003D80041F470014FF0000030BD7FEA645C1ABF41
:1003E800194610467FEA655C1CBF0B46024650EA78
:1003F800013406BF52EA033591EA030F41F40021A4
:1004080030BD00BF90F0000F04BF0021704730B529
:100418004FF4806404F132044FF000054FF00001FE
:1004280050E700BF90F0000F04BF0021704730B5BF
:100438004FF4806404F1320410F0004548BF404294
:100448004FF000013EE700BF42004FEAE2014FEAE9
:1004580031014FEA02701FBF12F07F4393F07F4FC4
:1004680081F06051704732F07F4208BF704793F0C7
:100478007F4F04BF41F40021704730B54FF46074DA
:1004880001F0004521F000411CE700BF50EA0102DD
:1004980008BF704730B54FF000050AE050EA010286
:1004A80008BF704730B511F0004502D5404261EBF6
:1004B80041014FF4806404F132045FEA915C3FF437
:1004C800D8AE4FF003025FEADC0C18BF03325FEAD4
:1004D800DC0C18BF033202EBDC02C2F1200300FA85
:1004E80003FC20FA02F001FA03FE40EA0E0021FAAA
:1004F80002F11444BDE600BF70B54FF0FF0C4CF498
:10050800E06C1CEA11541DBF1CEA135594EA0C0F49
:1005180095EA0C0F00F0DEF82C4481EA030621EA84
:100528004C5123EA4C5350EA013518BF52EA0335BF
:1005380041F4801143F4801338D0A0FB02CE4FF071
:100548000005E1FB02E506F00042E0FB03E54FF0A1
:100558000006E1FB03569CF0000F18BF4EF0010E99
:10056800A4F1FF04B6F5007F64F5407404D25FEA95
:100578004E0E6D4146EB060642EAC62141EA555148
:100588004FEAC52040EA5E504FEACE2EB4F1FD0C8A
:1005980088BFBCF5E06F1ED8BEF1004F08BF5FEA08
:1005A800500E50F1000041EB045170BD06F00046BA
:1005B80046EA010140EA020081EA0301B4EB5C0467
:1005C800C2BFD4EB0C0541EA045170BD41F480115F
:1005D8004FF0000E013C00F3AB8014F1360FDEBF84
:1005E800002001F0004170BDC4F10004203C35DA60
:1005F8000C341BDC04F11404C4F1200500FA05F3E3
:1006080020FA04F001FA05F240EA020001F0004283
:1006180021F0004110EBD37021FA04F642EB0601F9
:100628005EEA430E08BF20EAD37070BDC4F10C0423
:10063800C4F1200500FA04F320FA05F001FA04F2E7
:1006480040EA020001F0004110EBD37041F10001D3
:100658005EEA430E08BF20EAD37070BDC4F12005DE
:1006680000FA05F24EEA020E20FA04F301FA05F246
:1006780043EA020321FA04F001F0004121FA04F2EE
:1006880020EA020000EBD3705EEA430E08BF20EABE
:10069800D37070BD94F0000F0FD101F000464000F8
:1006A80041EB010111F4801F08BF013CF7D041EA7A
:1006B800060195F0000F18BF704703F0004652007E
:1006C80043EB030313F4801F08BF013DF7D043EA4F
:1006D8000603704794EA0C0F0CEA135518BF95EA05
:1006E8000C0F0CD050EA410618BF52EA4306D1D18C
:1006F80081EA030101F000414FF0000070BD50EAAB
:10070800410606BF1046194652EA430619D094EA34
:100718000C0F02D150EA013613D195EA0C0F05D11E
:1007280052EA03361CBF104619460AD181EA030172
:1007380001F0004141F0FE4141F470014FF000002A
:1007480070BD41F0FE4141F4780170BD70B54FF0C5
:10075800FF0C4CF4E06C1CEA11541DBF1CEA135545
:1007680094EA0C0F95EA0C0F00F0A7F8A4EB050427
:1007780081EA030E52EA03354FEA013100F088801E
:100788004FEA03334FF0805545EA131343EA1263E7
:100798004FEA022245EA111545EA10654FEA00269C
:1007A8000EF000419D4208BF964244F1FD0404F555
:1007B800407402D25B084FEA3202B61A65EB0305B1
:1007C8005B084FEA32024FF480104FF4002CB6EB6E
:1007D800020E75EB030E22BFB61A754640EA0C00EE
:1007E8005B084FEA3202B6EB020E75EB030E22BF2E
:1007F800B61A754640EA5C005B084FEA3202B6EB6F
:10080800020E75EB030E22BFB61A754640EA9C002D
:100818005B084FEA3202B6EB020E75EB030E22BFFD
:10082800B61A754640EADC0055EA060E18D04FEABB
:10083800051545EA16754FEA06164FEAC30343EA5B
:1008480052734FEAC2025FEA1C1CC0D111F4801F28
:100858000BD141EA00014FF000004FF0004CB6E721
:1008680011F4801F04BF01430020B4F1FD0C88BFC0
:10087800BCF5E06F3FF6AFAEB5EB030C04BFB6EBCB
:10088800020C5FEA500C50F1000041EB045170BDBE
:100898000EF0004E4EEA113114EB5C04C2BFD4EBEB
:1008A8000C0541EA045170BD41F480114FF0000E6F
:1008B800013C90E645EA060E8DE60CEA135594EAEB
:1008C8000C0F08BF95EA0C0F3FF43BAF94EA0C0FEE
:1008D8000AD150EA01347FF434AF95EA0C0F7FF463
:1008E80025AF104619462CE795EA0C0F06D152EAB7
:1008F80003353FF4FDAE1046194622E750EA41069B
:1009080018BF52EA43067FF4C5AE50EA41047FF4AB
:100918000DAF52EA43057FF4EBAE12E74FF0FF3C10
:1009280006E000BF4FF0010C02E000BF4FF0010CE1
:100938004DF804CD4FEA410C7FEA6C5C4FEA430C5A
:1009480018BF7FEA6C5C1BD001B050EA410C0CBFA9
:1009580052EA430C91EA030F02BF90EA020F00200B
:10096800704710F1000F91EA030F58BF994208BF72
:1009780090422CBFD8176FEAE37040F0010070472F
:100988004FEA410C7FEA6C5C02D150EA013C07D186
:100998004FEA430C7FEA6C5CD6D152EA033CD3D0D1
:1009A8005DF8040B704700BF8446104662468C46CB
:1009B8001946634600E000BF01B5FFF7B7FF0028FE
:1009C80048BF10F1000F01BD4DF808EDFFF7F4FF27
:1009D8000CBF012000205DF808FB00BF4DF808EDB2
:1009E800FFF7EAFF34BF012000205DF808FB00BFD5
:1009F8004DF808EDFFF7E0FF94BF012000205DF8F7
:100A080008FB00BF4DF808EDFFF7CEFF94BF0120AB
:100A180000205DF808FB00BF4DF808EDFFF7C4FFA4
:100A280034BF012000205DF808FB00BF4FEA410CED
:100A38007FEA6C5C02D150EA013C0AD14FEA430CD0
:100A48007FEA6C5C02D152EA033C02D14FF000000D
:100A580070474FF0010070474A0011D212F500129A
:100A680011D20DD56FF47873B3EB62520ED44FEAFE
:100A7800C12343F0004343EA505323FA02F070477E
:100A88004FF00000704750EA013002D14FF0FF30BC
:100A980070474FF00000704753B94AB9002908BFA2
:100AA80000281CBF4FF0FF314FF0FF3000F00CB8AA
:100AB800ADF1080C6DE904CE0DF07CF9DDF804E029
:100AC800DDE9022304B07047704700BF844641EA5D
:100AD800000313F003036DD1403A41D351F8043BAE
:100AE80040F8043B51F8043B40F8043B51F8043B00
:100AF80040F8043B51F8043B40F8043B51F8043BF0
:100B080040F8043B51F8043B40F8043B51F8043BDF
:100B180040F8043B51F8043B40F8043B51F8043BCF
:100B280040F8043B51F8043B40F8043B51F8043BBF
:100B380040F8043B51F8043B40F8043B51F8043BAF
:100B480040F8043B51F8043B40F8043B51F8043B9F
:100B580040F8043B51F8043B40F8043B403ABDD20E
:100B6800303211D351F8043B40F8043B51F8043BB0
:100B780040F8043B51F8043B40F8043B51F8043B6F
:100B880040F8043B103AEDD20C3205D351F8043B3F
:100B980040F8043B043AF9D2043208D0D2071CBF0B
:100BA80011F8013B00F8013B01D30B880380604634
:100BB800704700BF082A13D38B078DD010F00303AA
:100BC8008AD0C3F10403D21ADB071CBF11F8013B1A
:100BD80000F8013B80D331F8023B20F8023B7BE769
:100BE800043AD9D3013A11F8013B00F8013BF9D294
:100BF8000B7803704B7843708B788370604670472E
:100C08000348044B834202D0034B03B11847704793
:100C1800BC010020BC010020000000000548064B74
:100C28001B1AD90F01EBA301491002D0034B03B1E2
:100C380018477047BC010020BC01002000000000DC
:100C480010B5064C237843B9FFF7DAFF044B13B10C
:100C58000448AFF300800123237010BDC0010020B9
:100C68000000000048E2000808B5054B1BB1054923
:100C78000548AFF30080BDE80840FFF7CFBF00BFCD
:100C880000000000C401002048E2000880B483B0DE
:100C980000AF786039600C4A3B6813441B781A46E9
:100CA8007B6813441B6808493A680A44127811465D
:100CB8007A680A4443F00103136000BF0C37BD464D
:100CC8005DF8047B704700BFE80A010880B485B06E
:100CD80000AFF860B9607A600D4ABB6813441B78AE
:100CE8001A46FB6813445B681B0C1B040849BA6866
:100CF8000A4412781146FA680A4411467A6813437E
:100D08004B6000BF1437BD465DF8047B704700BFD9
:100D1800E80A010880B485B000AFF860B9607A606D
:100D28003B60BB69402B14D1174ABB6813441B783E
:100D38001A46FB6813441A467B68D360124ABB689C
:100D480013441B781A46FB6813441A463B689360A1
:100D580013E00D4ABB6813441B781A46FB6813441A
:100D68001A467B689360084ABB6813441B781A4686
:100D7800FB6813441A463B68D36000BF1437BD466E
:100D88005DF8047B704700BFE80A010880B483B0AF
:100D980000AF786039600C4A3B6813441B781A46E8
:100DA8007B6813441B6808493A680A44127811465C
:100DB8007A680A4443F01003136000BF0C37BD463D
:100DC8005DF8047B704700BFE80A010880B483B06F
:100DD80000AF78607B681B6843F040027B681A604C
:100DE80000BF0C37BD465DF8047B704780B483B004
:100DF80000AF78607B681B6823F040027B681A604C
:100E080000BF0C37BD465DF8047B704780B483B0E3
:100E180000AF78607B681B6803F04003402B01D16A
:100E2800012300E0002318460C37BD465DF8047B1B
:100E3800704780B483B000AF78607B681B6803F4A8
:100E4800827318460C37BD465DF8047B704780B442
:100E580083B000AF786039607B681B6823F00102BB
:100E68003B681A437B681A6000BF0C37BD465DF8C3
:100E7800047B704780B483B000AF78607B681B68E0
:100E880003F0010318460C37BD465DF8047B704734
:100E980080B483B000AF786039607B681B6823F04A
:100EA80002023B681A437B681A6000BF0C37BD46D4
:100EB8005DF8047B704780B483B000AF78607B68CE
:100EC8001B6803F0020318460C37BD465DF8047B27
:100ED800704780B483B000AF786039607B681B6866
:100EE80023F444423B681A437B681A6000BF0C37FE
:100EF800BD465DF8047B704780B483B000AF78606E
:100F08007B681B6803F4444318460C37BD465DF8FC
:100F1800047B704780B483B000AF786039607B6829
:100F28001B6823F400623B681A437B681A6000BFA1
:100F38000C37BD465DF8047B704780B483B000AFC2
:100F480078607B681B6803F4006318460C37BD465D
:100F58005DF8047B704780B483B000AF78607B682D
:100F68009B6803F00103012B01D1012300E000235A
:100F780018460C37BD465DF8047B704780B483B0D3
:100F880000AF78607B689B6803F00203022B01D1F5
:100F9800012300E0002318460C37BD465DF8047BAA
:100FA800704780B483B000AF78607B689B6803F0BB
:100FB8008003802B01D1012300E0002318460C3761
:100FC800BD465DF8047B704780B483B000AF78609D
:100FD8007B685B6843F040027B685A6000BF0C374F
:100FE800BD465DF8047B704780B483B000AF78607D
:100FF8007B685B6843F001027B685A6000BF0C376E
:10100800BD465DF8047B704780B483B000AF78605C
:101018007B685B6843F002027B685A6000BF0C374C
:10102800BD465DF8047B704780B483B000AF78603C
:101038007B680C3318460C37BD465DF8047B704757
:1010480080B483B000AF78607B680C331B78DBB268
:1010580018460C37BD465DF8047B704780B483B0F2
:1010680000AF78607B68DB689BB218460C37BD46DA
:101078005DF8047B704780B485B000AF78600B469C
:10108800FB707B680C33FB60FB68FA781A7000BF52
:101098001437BD465DF8047B704780B485B000AF57
:1010A80078600B467B807B680C33FB60FB687A8832
:1010B8001A8000BF1437BD465DF8047B70470000F6
:1010C80080B584B000AF786039600023FB600023EE
:1010D800BB607B68002B0BD03B68002B08D07B687B
:1010E800BB60BB681B68654A934201D1644BFB60D7
:1010F800FB68002B00F0BC80BB681A68FB681A60AC
:10110800FB6893F84620BB6893F846301343DAB27D
:10111800FB6883F84620FB6893F84420BB6893F883
:1011280044301343DAB2FB6883F84420FB6893F831
:101138004520BB6893F845301343DAB2FB6883F85F
:101148004520FB683A68DA61BB6893F8463003F0DB
:101158000103002B32D0BB689A6AFB689A62BB68AD
:101168001A6AFB681A62FB6800225A63FB6800224D
:101178001A63FB68002283F84020FB6893F8443028
:1011880003F00403002B05D0FB681B681846FFF723
:101198001BFF13E0FB6893F8443003F01003002BA7
:1011A8000CD0BB685A68FB685A60BB6893F8542037
:1011B800FB6883F85420F86800F041FBBB6893F89B
:1011C800463003F00203002B28D0BB68DA6AFB68BC
:1011D800DA62BB685A6AFB685A62FB6800229A6343
:1011E800FB680022DA63FB6800229A61FB68002230
:1011F80083F85620FB6893F8453003F02003002B52
:101208000CD0BB689A68FB689A60BB6893F8552055
:10121800FB6883F85520F86800F052FB3B68FA68D1
:101228001A60FB681B681846FFF766FE0346B3F5AD
:10123800004F0ED1FB681B681846FFF7FAFD0346FE
:10124800B3F5827F05D1FB681B681846FFF7CEFD12
:1012580004E0FB681B681846FFF7B8FDBB681B680D
:101268001A46064B9A4202D000233B6000E000BFBA
:101278003B6818461037BD4680BD00BF003C0040A3
:10128800DC01002080B582B000AF78600B467B801F
:101298007868FFF731FE0346B3F5004F0BD17B8822
:1012A800012B08D1786800F037FB4FF4404178688B
:1012B800FFF70FFE11E07868FFF71EFE0346B3F54F
:1012C800404F0AD17B88002B07D1786800F024FBB7
:1012D8004FF400417868FFF7FCFD002318460837F3
:1012E800BD4680BD80B586B000AFF8607A601A460A
:1012F8000B467B8113467B7200237B61FB68002BC6
:1013080006D0FB681B68002B02D0FB681B687B615A
:101318007B689BB21B0A7B827B897A69134493F8AA
:101328004E30002B0CD07B69B3F84C207B7A9BB2F3
:101338009A4205D17B695B697A689A4200F0C88055
:101348007B7A9AB27B69A3F84C207B697A685A61E8
:101358007B691B68184600F0DFFA7B69B3F84C30EC
:10136800002B1CD17B691B681846FFF783FD0346D9
:10137800002B05D07B691B6800211846FFF767FD25
:101388007B691B681846FFF796FD0346022B66D05B
:101398007B691B6802211846FFF77AFD5FE07B69CD
:1013A800B3F84C30012B1CD17B691B681846FFF73A
:1013B80061FD0346012B05D07B691B680121184696
:1013C800FFF745FD7B691B681846FFF774FD034668
:1013D800022B44D07B691B6802211846FFF758FD91
:1013E8003DE07B69B3F84C30022B1CD17B691B684C
:1013F8001846FFF73FFD0346002B05D07B691B68A5
:1014080000211846FFF723FD7B691B681846FFF784
:1014180052FD0346002B22D07B691B680021184629
:10142800FFF736FD1BE07B691B681846FFF722FDB6
:101438000346012B05D07B691B6801211846FFF77D
:1014480006FD7B691B681846FFF735FD0346002B30
:1014580005D07B691B6800211846FFF719FD7B69D9
:101468001B681846FFF769FD02467B6893420CD05B
:101478007B691A687B8A082B01D8002301E04FF4A6
:10148800006319461046FFF745FD7B691B6818463F
:10149800FFF732FD0346B3F5004F0ED17B691B6899
:1014A8001846FFF7C6FC0346B3F5827F05D17B6972
:1014B8001B68184600F030FA04E07B691B68184680
:1014C800FFF784FC7B897A691344012283F84E2054
:1014D800002318461837BD4680BD80B58AB000AFD6
:1014E800F860B96011461A460B46FB801346BB806C
:1014F8000023BB840023FB610BF042FBF86100234F
:101508003B62FB68002B06D0FB681B68002B02D0EF
:10151800FB681B683B623B6A1B6801211846FFF7A2
:10152800B1FE0346BB843B8E002B01D100237B63B5
:101538003B6A1B681846FFF769FC0346002B04D179
:101548003B6A1B681846FFF741FCBB88DBB2002BDF
:101558002CD1BB687B610023FB8422E03B6A1B68BB
:101568001846FFF70BFD0346012B0CD13B6A1868A0
:10157800FB8C7A6913441B781946FFF77CFDFB8CBA
:101588000133FB840DE00121F86907F0BDFC024638
:101598007B6B934205D2386A00F006FA0346BB8497
:1015A80035E0FA8CFB889A42D8D330E0BB88DBB2AE
:1015B800012B2CD1BB68BB610023FB8423E03B6A71
:1015C8001B681846FFF7DAFC0346012B0DD13B6A6E
:1015D8001868FB8C5B00BA6913441B881946FFF72F
:1015E8005CFDFB8C0133FB840DE00121F86907F0F9
:1015F8008BFC02467B6B934205D2386A00F0D4F923
:101608000346BB8403E0FA8CFB889A42D7D3BB8C91
:1016180018462837BD4680BD90B58DB000AFF8603C
:10162800B9607A607B8000237B8500233B620BF0E6
:10163800A7FA386201233B8500237B62FB68002BF5
:1016480006D0FB681B68002B02D0FB681B687B6216
:10165800B7F84430002B01D10023BB647B6A1B68B8
:101668001846FFF7D3FB0346002B04D17B6A1B689F
:101678001846FFF7ABFB7B88DBB2002B6AD17B688F
:101688007B61BB683B610023FB850023BB8558E079
:101698007B6A1B681846FFF771FC0346012B15D1BE
:1016A8003B8D012B12D1FB8D3A6C9A420ED97B6A85
:1016B8001868FB8D3A6913441B781946FFF7DBFC61
:1016C800FB8D0133FB8500233B850DE00121386A42
:1016D80007F01AFC0246BB6C934205D2786A00F008
:1016E8006EF903467B85A5E07B6A1B681846FFF701
:1016F80032FC0346012B16D1BB8D3A6C9A4212D9A3
:101708003B8D002B0FD17B6A1968BB8D7A69D41881
:101718000846FFF795FC03462370BB8D0133BB8554
:1017280001233B850DE00121386A07F0EDFB0246F5
:10173800BB6C934205D2786A00F041F903467B8579
:1017480078E0FB8D3A6C9A42A2D8BB8D3A6C9A42EB
:101758009ED86FE07B88DBB2012B6BD17B68FB6185
:10176800BB68BB610023FB850023BB855AE07B6A0D
:101778001B681846FFF702FC0346012B16D13B8D68
:10178800012B13D1FB8D3A6C9A420FD97B6A1868EA
:10179800FB8D5B00BA6913441B881946FFF77DFC73
:1017A800FB8D0133FB8500233B850DE00121386A61
:1017B80007F0AAFB0246BB6C934205D2786A00F098
:1017C800FEF803467B8535E07B6A1B681846FFF701
:1017D800C2FB0346012B17D1BB8D3A6C9A4213D931
:1017E8003B8D002B10D17B6A1968BB8D5B00FA69B1
:1017F800D4180846FFF732FC03462380BB8D01331B
:10180800BB8501233B850DE00121386A07F07CFB8D
:101818000246BB6C934205D2786A00F0D0F80346C2
:101828007B8507E0FB8D3A6C9A42A0D8BB8D3A6C59
:101838009A429CD87B8D18463437BD4690BDB0B5CA
:1018480084B002AF78607B685C687B6893F854303A
:101858001D467B681B681846FFF7E6FB02467B6857
:101868001B6A1946002300930B4629462046FFF7BA
:1018780051FA7B6858687B6893F8543019467B683E
:10188800DB691B691A46FFF721FA7B685A687B688F
:1018980093F8543019461046FFF778FA7B681B68AE
:1018A8001846FFF7A1FB7B685A687B6893F85430A9
:1018B80019461046FFF7EAF900BF0837BD46B0BD24
:1018C800F0B585B002AF78607B689C687B6893F858
:1018D80055301D467B685B6A1E467B681B68184648
:1018E800FFF7A2FB034640220092324629462046D3
:1018F800FFF710FA7B689A687B6893F855301946A9
:101908001046FFF743FA7B681B681846FFF77CFB15
:1019180000BF0C37BD46F0BD80B582B000AF78601F
:101928007868FFF773FA0346002B2CD07868FFF726
:10193800E3FA0346002B0AD100BF7868FFF731FBB2
:101948000346002BF9D17868FFF750FA1BE0786856
:10195800FFF7D2FA0346B3F5806F06D07868FFF731
:10196800CBFA0346B3F5004F03D17868FFF73EFA88
:1019780009E000BF7868FFF714FB0346002BF9D194
:101988007868FFF733FA00BF0837BD4680BD80B4DA
:1019980085B000AFF860B9607A603B6000BF14376B
:1019A800BD465DF8047B704780B483B000AF7860B3
:1019B800012318460C37BD465DF8047B704780B597
:1019C80082B000AF78607B681B681846FFF731FA71
:1019D8000346B3F5827F08D100BF7B681B681846B1
:1019E800FFF7DFFA0346002BF7D101231846083723
:1019F800BD4680BD80B485B000AF786039600023F3
:101A0800FB7397F90F3018461437BD465DF8047B11
:101A18007047000080B584B000AF7860396000235B
:101A2800FB727B68002B05D1374801F02FF94FF086
:101A3800FF3365E03B68002B05D1344801F026F9F7
:101A48004FF0FF335CE0324BD3E900014FF0000266
:101A58004FF04043FEF7B8FF0346002B06D03B6823
:101A6800D3E900232A49C1E9002305E0284BD3E93B
:101A780000233968C1E90023254BD3E900014FF061
:101A88000002244BFEF7A0FF0346002B02D0224899
:101A980001F0FCF87B685B681B68204A13607B6870
:101AA8005B685B681E4A13607B685B689B681D4ABD
:101AB80013607B685B68DB681B4A13601B4B002262
:101AC8001A6001F0A3FD0023FB600023FB6007E020
:101AD800174AFB68174942F82310FB680133FB607B
:101AE800FB68022BF4D901F0D1F90346FB7297F990
:101AF8000B30002B02D1104B01221A7097F90B30D2
:101B080018461037BD4680BD60E2000884E2000830
:101B1800000000200000F0BFB0E20008EC03002045
:101B2800F0030020F4030020F8030020FC03002049
:101B3800340200207D360008EA03002080B586B014
:101B480000AF78600023FB7500233B610023FB7323
:101B58002A4B1B78DBB2002B0CBF01230023DBB21E
:101B6800BB73274B02221A707B68002B0BD1234BC7
:101B78001B78DBB2002B06D1224B1B78DBB2002B83
:101B880001D1012300E00023FB7316E00A2007F0CF
:101B98007BF93B6903F51C5310333B617B68B3F158
:101BA800FF3F05D03A697B689A4201D9012300E0DA
:101BB8000023FB73002001F0C1F9104B1B78DBB246
:101BC800002B07D10F4B1B78DBB2002B02D1FB7B1C
:101BD800002BDBD00A4B03221A70FB7B002B01D0B1
:101BE8009C23FB75BB7B002B01D001F03DFE97F9D0
:101BF800173018461837BD4680BD00BFE8030020DF
:101C0800EA030020E903002080B588B000AF03464E
:101C180087ED000BFB810023FB770123BB774FF097
:101C280000024FF00003D7E90001FEF7D7FE034694
:101C3800002B05D02F4801F029F84FF0FF3355E06D
:101C4800FB89FF2B08D9FB89FF2219462A4801F096
:101C58001DF84FF0FF3349E0284B1B78DBB2032B0C
:101C680004D0264B1B78DBB2012B02D1234B042274
:101C78001A70FB89022B15D8FB89214A52F82330A8
:101C8800002B0FD002F0B2F903467B777B7F022B43
:101C980008D1FB891A4A52F82330FA891046984726
:101CA8000346BB77FB897B83FB89184697ED000BBE
:101CB80001F0AAF87861BB7F002B07D07B8B79698C
:101CC800184602F06FF90346FB7703E07B8B184652
:101CD80002F0C7F997F91F30002B05D097F91F308C
:101CE8001946084800F0D2FF97F91F3018462037E8
:101CF800BD4680BD1CE3000860E30008EA0300203D
:101D080034020020A0E3000880B582B000AF0023B1
:101D1800FB71002001F012F90346FB7197F90730B7
:101D280018460837BD4680BD80B582B000AF002395
:101D3800FB710B4B06221A7001F09EF90346FB71EA
:101D48000C22002107480CF093F901F013FD044B15
:101D580000221A7097F9073018460837BD4680BD2B
:101D6800EA0300203402002080B400AF034B1B7844
:101D7800DBB21846BD465DF8047B7047E9030020D6
:101D880080B400AF034B1B78DBB21846BD465DF844
:101D9800047B70470004002080B483B000AF7860F3
:101DA80039607B683A689A6100BF0C37BD465DF8B8
:101DB800047B704780B483B000AF786039603B68BB
:101DC8001A047B689A6100BF0C37BD465DF8047B36
:101DD8007047000080B483B000AF7860074BDB8F9A
:101DE800002B0CBF01230023DAB27B6801331A7081
:101DF80000BF0C37BD465DF8047B704738030020F0
:101E080080B400AF084BDA8F013292B2DA87064B02
:101E1800DB8FB3F57A7F02D3034B0022DA8700BF4A
:101E2800BD465DF8047B70473803002080B483B05A
:101E380000AF78607B684FF0FF321A6000BF0C3744
:101E4800BD465DF8047B704780B483B000AF78600E
:101E58007B684FF0FF321A6000BF0C37BD465DF853
:101E6800047B704780B485B000AF0346B9607A60E0
:101E7800FB817B684FF0FF321A60FB89DB039AB263
:101E8800BB681A8000BF1437BD465DF8047B7047F5
:101E980080B483B000AF78607B684FF0FF321A607F
:101EA80000BF0C37BD465DF8047B704780B483B033
:101EB80000AF78607B684FF0FF321A6000BF0C37C4
:101EC800BD465DF8047B704780B485B000AF03461B
:101ED800B9607A60FB817B684FF0FF321A60FB893A
:101EE800DB029AB2BB681A8000BF1437BD465DF8A2
:101EF800047B704780B59AB000AF78600023BB625E
:101F08000023FB62234BBB60002387F84E3000237D
:101F18003B6300237B63012387F84C30022387F857
:101F28004D300023FB60002387F85C3000233B61C1
:101F3800002387F85D307B6800221A617B68164AA7
:101F48005A61012387F867307B680E229A617B68A3
:101F5800012283F824207B6897F867201A777B682A
:101F680001221A627B6810333B6607F10803396E59
:101F78001846FFF7A5F802467B68DA607B68D868E0
:101F880003234FF470620221FFF7ACF900BF6837F2
:101F9800BD4680BD003C00400008024080B59AB0B4
:101FA80000AF78600023BB620023FB62234BBB6059
:101FB800002387F84E3000233B6300237B63012313
:101FC80087F84C30022387F84D300023FB6000234C
:101FD80087F85C3000233B61002387F85D307B681D
:101FE80000221A617B68164A5A61012387F8673014
:101FF8007B680E229A617B68012283F824207B6823
:1020080097F867201A777B6801221A627B68103379
:102018003B6607F10803396E1846FFF751F8024688
:102028007B68DA607B68D86803234FF4706202210A
:10203800FFF758F900BF6837BD4680BD003C004037
:102048000008024000000000B0B588B000AFFFF7FC
:10205800D7FEA74B93F8A630002B0AD0A44B00223A
:1020680083F8A6204FF000024FF00003C7E90623CB
:1020780025E09F4BD3E918459D4BD3E918014FF054
:1020880000029C4BFEF738FA02460B4643EC172B2E
:10209800B0EE470AF0EE670A0BF082FC51EC100B29
:1020A8008FA3D3E90023FEF727FA02460B46204602
:1020B8002946FEF769F802460B46C7E906238C4B0A
:1020C800D3E918014FF000024FF00003FEF786FC39
:1020D8000346002B0AD1864BD3E9180180A3D3E924
:1020E8000023FEF78FFC0346002B04D08049D7E974
:1020F8000623C1E91823804BD3E9002378A1D1E94D
:102108000001FEF741F802460B4675A1D1E900012E
:10211800FEF71CFB02460B4610461946744BD3E9E2
:102128001823FEF7E9F902460B46C7E90623704B68
:1021380093F8A730002B0AD06D4B002283F8A72014
:102148004FF000024FF00003C7E9042325E0684B75
:10215800D3E91A45664BD3E91A014FF00002674BE1
:10216800FEF7CAF902460B4643EC172BB0EE470AB6
:10217800F0EE670A0BF014FC51EC100B5AA3D3E9EC
:102188000023FEF7B9F902460B4620462946FDF71B
:10219800FBFF02460B46C7E90423554BD3E91A0156
:1021A8004FF000024FF00003FEF718FC0346002B27
:1021B8000AD14F4BD3E91A014BA3D3E90023FEF709
:1021C80021FC0346002B04D04949D7E90423C1E97F
:1021D8001A23494BD3E9000141A3D3E90023FDF7B2
:1021E800D5FF02460B46D7E90601FEF7AFFA0246CD
:1021F8000B4643EC172BB0EE470AF0EE670A0BF0DC
:10220800CFFB55EC104B3C4BD3E9000134A3D3E989
:102218000023FDF7BBFF02460B4620462946FEF782
:102228006BF902460B46D7E90601FDF7ADFF0246FA
:102238000B46104619464FF000022E4BFEF75CF98C
:1022480002460B46C7E906234FF000022C4BD7E99C
:102258000601FEF7E1FB0346002B05D04FF0000214
:10226800274BC7E9062310E04FF000024FF00003A8
:10227800D7E90601FEF7B2FB0346002B05D04FF065
:1022880000024FF00003C7E90623194BD3E91C01EC
:10229800D7E90623FDF77AFF02460B461449C1E940
:1022A8001C23134BD3E91C0101231C464FF00002E9
:1022B800144BFEF7A7FB0346002B01D100231C4655
:1022C800E3B21A460C4B9A770F4BBB6000237B6036
:1022D800094B9B7F002B19D04FF48053FB6017E00C
:1022E8007B14AE47E17A843F7B14AE47E17A943F92
:1022F80068020020000059404002002000004940C8
:102308000000F03F00003440000402400023FB605E
:10231800FA687B6802FA03F3FB604FF480527B682B
:1023280002FA03F33B60F968B868FFF735FDFB680C
:10233800DA433B6813401946B868FFF73BFD1A4B70
:10234800D3E9180116A3D3E90023FDF71FFF0246BE
:102358000B461549C1E91823134BD3E91A0110A3F9
:10236800D3E90023FDF712FF02460B460E49C1E9E7
:102378001A230E4B9A6A01329A629B6A1846FEF734
:1023880041F80A4BD3E90C23084CFEF7B5F802468E
:102398000B46C4E9082300BF2037BD46B0BD00BFC7
:1023A800FCA9F1D24D62503F68020020380300209A
:1023B80080B588B004AFB54B93F9A530FB72002304
:1023C800FB73FB7A042B1BD801A252F823F000BF41
:1023D800ED230008F3230008F9230008FF23000871
:1023E800052400080023FB730AE00323FB7307E0BE
:1023F8000323FB7304E00023FB7301E00023FB735A
:1024080097F90F20A14B83F8A520A04B93F9A4308E
:10241800BB720023BB73BB7A042B1BD801A252F8F2
:1024280023F000BF41240008472400084D24000879
:1024380053240008592400080023BB730AE003232F
:10244800BB7307E00323BB7304E00023BB7301E005
:102458000023BB7397F90E208C4B83F8A4208B4B79
:10246800D3E91E014FF00002894BFDF78FFE0246AB
:102478000B468649C1E91E23844BD3E91E014FF060
:1024880000024FF08043FEF7BDFA0346002B54D0FC
:102498007E4BD3E91E014FF000027E4BFEF7A8FAEF
:1024A8000346002B49D0794B93F8A930002B09D16A
:1024B8007948FFF7C9FC7948FFF7F8FC734B01220C
:1024C80083F8A920BB1C744A19460020FFF7CAFCF0
:1024D8003B46724A19460220FFF7F6FC7A883B8889
:1024E80013439AB26E4B5B8813439AB26D4B5A836F
:1024F8006C4B5A8B6B4B9A83644B93F9A5307B7268
:102508007B7A7B737B7A042B11D801A252F823F0D3
:102518002D25000837250008372500083325000831
:102528003725000802237B7301E001237B7397F9A9
:102538000D20564B83F8A5200BE0544B93F8A93097
:10254800002B06D0574B00229A83504B002283F869
:10255800A9204E4BD86803234FF470620221FEF77E
:10256800C1FE03461A464F4B1A834E4B1B8B002B5A
:1025780013D14FF480414C48FFF71CFC434BD868FB
:102588000A23019301230093012301224749FEF7FF
:10259800A4FF03461A46434B1A833C4BD3E9200158
:1025A8004FF000023A4BFDF7F1FD02460B46374962
:1025B800C1E92023354BD3E920014FF000023C4B01
:1025C800FEF720FA0346002B0CD0304BD3E920014C
:1025D8004FF00002374BFEF70BFA0346002B01D0F1
:1025E800012300E00023DAB22E4BDA772D4BDB7F94
:1025F800002B65D0254B93F8A830002B09D12E4825
:10260800FFF722FC2D48FFF751FC204B012283F8ED
:10261800A820BB1C284A19460120FFF723FC3B468B
:10262800264A19460220FFF74FFC7A883B88134355
:102638009AB21B4B1B8813439AB21A4B9A82194BB6
:102648009A8A184BDA82114B93F9A4303B723B7A81
:102658003B733B7A042B12D801A252F823F000BF37
:102668007D2600088726000887260008832600089C
:102678008726000802233B7301E001233B7397F987
:102688000C20024B83F8A42026E000BF680200203B
:102698000000F03F000020402C030020240300200D
:1026A800F80A010840020020000802405C020020ED
:1026B80000002C40000030401C03002014030020C0
:1026C8002E4B93F8A830002B06D02D4B0022DA822F
:1026D8002A4B002283F8A820284B586B03234FF479
:1026E80070620221FEF7FEFD03467B807B88002B8B
:1026F80018D1244B7B604FF480417868FFF75AFB70
:102708001E4B586B0A230293012301930123009364
:1027180001231D4A1D49FEF77FFF4FF48041786869
:10272800FFF73AFB164B5B8AC3F30E039AB2144BBE
:102738001A82124BD3E920014FF00002144BFEF726
:1027480061F90346002B0CD00C4BD3E920014FF064
:102758000002104BFEF74CF90346002B01D0012371
:1027680000E00023DAB2064B83F820200A4B9A6B6C
:1027780001329A6300BF1037BD4680BD6802002051
:1027880040020020000802405202002056020020A9
:1027980000003540000039403803002000000000E8
:1027A80080B500AF58494FF00002584BC1E91023DB
:1027B800554953A3D3E90023C1E90C23524B544A8A
:1027C8009A60514B534ADA604F4B534A1A614E4B49
:1027D800524A5A614C4B524A5A60514B514A1A60FC
:1027E800504B514A1A604F4B4F4A5A604D4B4E4A14
:1027F8009A604C4B4C4ADA604A4B4C4A1A61494B36
:102808004A4A5A61474B494A9A61464B474ADA61F4
:10281800444B464A1A62434B434A5A62414B444A24
:102828009A62404B424ADA623E4B414A1A633D4B38
:102838003F4A5A633B4B3E4A9A633A4B3A4ADA63F9
:10284800314A314B5B6818329A602F4A2E4B5B68CD
:1028580008325A602C4A2C4B5B682032DA603549C2
:1028680027A3D3E90023C1E9002332494FF000022E
:102878004FF00003C1E902232F4B012283F8A62061
:102888002D4B012283F8A7202C48FFF7CFFA2C48BC
:10289800FFF7FEFA2B48FFF7C9FA2B48FFF7F8FABB
:1028A800254B002283F85020234B01225A65224BE6
:1028B800012283F85820204B00221A701E4B002258
:1028C8001A721D4B01225A601B48FFF713FB1A4B63
:1028D80001221A72184B002283F82820164B002276
:1028E80083F83020144B0122DA621848FFF756FBB0
:1028F800114B012283F8302000BF80BDAFF3008068
:10290800FCA9F1D24D62503F380300200000F0BF0F
:1029180088A2B153EA3396C7746172E79E0EBA6112
:10292800880300209C030020F40A01080D030020FE
:102938000C03002040020020680200202C03002025
:10294800240300201C030020140300209002002010
:1029580080B584B002AF234B93F85030002B03D1DD
:10296800204B012283F850201E4B1B78002B16D1D8
:102978001C4B01221A701B4B5B68012B0FD1194BA2
:102988001B7A002B0BD04FF0FF337B60154BD868B8
:102998000E2300937B687A687968FEF7F8FF114B7D
:1029A80093F82830002B18D10E4B012283F82820E9
:1029B8000C4BDB6A012B10D10A4B93F83030002BFB
:1029C8000BD04FF0FF337B60064B586B0E23009300
:1029D8007B687A687968FEF7DAFF00BF0837BD467A
:1029E80080BD00BF6802002080B584B000AF4FF002
:1029F80000024FF00003C7E902233B4B1B785A1C27
:102A0800D1B2394A1170002B09D0384B01221A6013
:102A1800354B1B78013BDAB2334B1A7061E03B1D32
:102A28001846FFF7D7F962B600BF314B1B68D3E9E8
:102A38000823C7E90223FFF707FB97ED020B0020E5
:102A4800FFF7E2F872B600BF274B1B78013BDAB2FA
:102A5800254B1A707B79002B11D0264B5B785A1CBA
:102A6800D1B2244A5170002B09D0204B01221A60A0
:102A7800204B5B78013BDAB21E4B5A7031E01D4B9C
:102A88005B78002B2DD0184B5B78002B28D1164B88
:102A98005B780133DAB2144B5A7062B600BF144B3C
:102AA8001B689B6B1846FDF7ADFC02460B46C7E951
:102AB8000223FFF77DFC97ED020B0120FFF7A4F836
:102AC80000BF72B600BF0B4B5B78013BDAB2094B13
:102AD8005A70054B5B78013BDAB2034B5A7000E041
:102AE80000BF1037BD4680BDE0030020DC03002096
:102AF800F00A0108E403002080B586B000AF7860D2
:102B080039605C4B7B615C4B3B610023FB735B4B27
:102B180000221A705A4B00221A7001DF09F0FAFFDE
:102B280008F064FB06F0C8F908F0E0FE08F006FFBC
:102B380008F0ACFB08F02CFE08F01EFC08F034FD91
:102B480008F07CFC08F0DCFC4E4B1B6800221A6085
:102B580000210020FEF74EFF0346FB7397F90F3064
:102B6800002B02D097F90F3080E0FFF719FE72B6FC
:102B780000BF62B600BF434B1B685A68414B1B68D5
:102B8800403319461046FEF745FF0346FB7397F995
:102B98000F30002B0DD14FF0FF30FEF7CFFFFFF7BE
:102BA800E3F80346002B04D0364B1B68012283F858
:102BB800482072B600BF97ED050A06F03BFAFFF70A
:102BC800DFF80346002B0CD1FFF7CEF80346002BA5
:102BD80007D12C4B1B6893F84830002B01D10123F7
:102BE80000E00023DAB2264B1A7062B600BF62B664
:102BF80000BF2FE0FFF788F80346FB73FFF7C0F824
:102C08000346002B0AD1FFF7AFF80346002B05D186
:102C18001C4B1B6893F84830002B01D0012300E0BF
:102C28000023DAB2154B1A70144B1B78DBB2002B59
:102C38000CBF01230023DBB21A46114B1A700F4B4D
:102C48001B78DBB2002B05D00F4B1B680E4A23F014
:102C5800010313600A4B1B78DBB2002BCAD1FFF7C4
:102C680077FEFFF761F872B600BF002318461837E1
:102C7800BD4680BD6F12833A0000C842E6030020BB
:102C8800E7030020F00A010810E000E00FB480B468
:102C980000AF00BFBD465DF8047B04B0704780B448
:102CA80085B000AFF860B9607A60FB68BA681A60EE
:102CB800FB6804337A681A6000BF1437BD465DF8B4
:102CC800047B704700000000F0B58BB000AF87EDC3
:102CD800020B0346FB80FB88002B77D14FF00002E4
:102CE800414BD7E90201FDF707FC02460B46C7E94D
:102CF80006239FED391B97ED060B0AF01BFE53ECDC
:102D0800102B10461946FDF7A7FE03467B610023EA
:102D18007B6233A3D3E90023D7E90601FDF77CFEE4
:102D28000346002B0ED02EA3D3E90023D7E90601D2
:102D3800FDF70CFD02460B4610461946FDF78CFEC2
:102D480003467B627A6A79692848FFF7A8FF284B0F
:102D5800D3E900014FF00002264BFDF735FE03468C
:102D6800002B2ED1224BD3E900014FF000024FF087
:102D78004043FDF729FE0346002B22D11C4BD3E923
:102D88000001D7E90223FDF7FFF902460B46144676
:102D98001D464FF00002184BD7E90201FDF7ACFBC6
:102DA80002460B4601210E4620462946FDF716FE2F
:102DB8000346002B01D100231E46F3B21A460F4BDF
:102DC8001A700F49D7E90223C1E9002300BF2C3745
:102DD800BD46F0BDAFF30080000000000000F041E8
:102DE8000000E0FFFFFFEF4100408F401804002083
:102DF800000000200000F0BF0000B03C00040020EC
:102E0800200400200000000080B586B000AF87EDE8
:102E1800020B0346FB8000237B61FB88184697ED75
:102E2800020BFFF751FF17A3D3E90023D7E90201EB
:102E3800FDF762FB02460B46104619464FF00002AA
:102E48000F4BFDF7A3F902460B4643EC172B9FEDFA
:102E58000A1BB0EE470AF0EE670A0AF06BFD53EC66
:102E6800102B10461946FDF7F7FD03467B617B6979
:102E780018461837BD4680BD000000000000F0412C
:102E88000000E03F0000000080842E4180B584B03F
:102E980000AF0023BB6000237B600023FB73234942
:102EA8004FF000024FF00003C1E9002320494FF022
:102EB80000024FF00003C1E900233A1D07F108039F
:102EC8001146184605F0B2FFBB687A6811461846E5
:102ED80004F0CEF80346FB7397F90F30002B05D0AA
:102EE8001448FFF7D3FE97F90F301AE03A1D07F19F
:102EF80008031146184605F0B0FFBB687A6811460A
:102F0800184600F053FF0346FB7397F90F30002B68
:102F180005D097F90F3019460748FFF7B7FE97F91C
:102F28000F3018461037BD4680BD00BF080400208A
:102F3800100400201CE5000844E5000880B584B0B2
:102F480000AF0346FB710023FB730023BB73002013
:102F580005F09AFF00237B7304F058FA0346FB73CD
:102F680097F90F30002B0DD097F90F3013F1020F9E
:102F780008D097F90F3019463C48FFF787FE012320
:102F8800BB730BE07B7B002B04D197F90F3013F157
:102F9800020F01D0012300E000237B73BB7B002BD1
:102FA80021D100F035FF0346FB7397F90F30002B52
:102FB8000DD097F90F3013F1020F08D097F90F30A1
:102FC80019462B48FFF762FE0123BB730BE07B7B9E
:102FD800002B04D197F90F3013F1020F01D0012310
:102FE80000E000237B73BB7B002B21D104F098F910
:102FF8000346FB7397F90F30002B0DD097F90F306C
:1030080013F1020F08D097F90F3019461948FFF746
:103018003DFE0123BB730BE07B7B002B04D197F9AA
:103028000F3013F1020F01D0012300E000237B735E
:10303800FB79002B0DD0002005F026FFBB7B002B71
:1030480002D17B7B002B01D1012300E00023BB735D
:1030580001E00123BB73BB7B002B3FF47BAF97F9E7
:103068000F3018461037BD4680BD00BF6CE500081C
:10307800A4E50008D4E5000880B582B000AF0023BD
:10308800BB70394B1B78DBB2002B02D0002000F05C
:10309800D9FF00F0ABFF0346FB7000237B600EE016
:1030A8000A2005F0F1FE7B6803F51C5310337B60A2
:1030B8000120FFF743FF00F099FF0346FB707B6890
:1030C8002A4A934202D2FB78002BE9D100F09AFFFA
:1030D8000346BB7097F90230002B05D097F90230F0
:1030E80019462348FFF7D2FD04F00AFB0346BB70DC
:1030F80097F90230002B05D097F9023019461D4880
:10310800FFF7C4FD1C4B00221A701C4B00221A70DA
:103118001B4B00221A601B4B00221A601A4B00221C
:103128001A601A4B00221A60194B00221A601949BA
:103138004FF000024FF04043C1E900230A4B002240
:103148001A700822002114480AF092FF13494FF020
:1031580000024FF00003C1E9002397F90230184636
:103168000837BD4680BD00BF0004002000879303D8
:103178000CE6000828E60008E8030020E903002020
:10318800EC030020F0030020F4030020F8030020E3
:10319800FC03002000000020180400202004002068
:1031A80080B586B000AF614B1B687B617B69002BE3
:1031B80000F0B8805E4B1B78DBB2002B04D15B4B70
:1031C8001B68002B00F0AE805A4B1B78DBB2022B39
:1031D80040F0A880584B1B78002B40F0A3807B69F7
:1031E800D3E90023C7E90223544B1B78002B00F0D6
:1031F8008A80534B1B78DBB2002B04D0504B1B78D2
:10320800DBB2022B01D1012300E00023FB714C4B00
:103218001B78DBB2012B04D0494B1B78DBB2022BA5
:1032280001D1012300E00023BB71FB79002B33D0CF
:10323800444BD3E90023D7E90201FDF7E3FB03463A
:10324800002B0AD0404BD3E900013E4BD3E90023C1
:10325800FDF7C4FB0346002B14D13A4BD3E90023F6
:10326800D7E90201FDF7D8FB0346002B14D0364BF3
:10327800D3E90001334BD3E90023FDF7A5FB03464F
:10328800002B09D0314B1B68002B02D1304B012297
:103298001A70294B01221A70BB79002B33D0294BA5
:1032A800D3E90023D7E90201FDF798FB0346002B79
:1032B8000AD0254BD3E90001224BD3E90023FDF7BF
:1032C800A1FB0346002B14D11E4BD3E90023D7E9F9
:1032D8000201FDF779FB0346002B14D01A4BD3E902
:1032E8000001184BD3E90023FDF796FB0346002B9A
:1032F80009D0164B1B68002B02D1154B01221A70FE
:103308000D4B01221A700C4B1B78002B0CBF0123AC
:103318000023DBB21A46094B1A700B49D7E902237E
:10332800C1E9002300BF1837BD4680BD2C0400202A
:10333800300400204C0400205B04002058040020C6
:1033480048040020380400205004002044040020D1
:103358005A04002080B582B000AF0023FB719E4B59
:103368001B78DBB2002B18D19C4B00221A709C4BA7
:1033780000221A709B4B1B78DBB2002B2DD0964B8A
:1033880002221A70974B00221A70974B1B78DBB2F7
:10339800002B22D10123FB711FE0924B00221A70EF
:1033A8008E4B1B78DBB2002B09D0904B00221A7091
:1033B800894B00221A70894B00221A700DE08A4B43
:1033C8001B78DBB2002B02D10123FB7105E0844B93
:1033D8001B78FB71824B00221A707F4B1B78DBB283
:1033E800042B00F2D78001A252F823F00934000818
:1033F8004335000823340008F734000881340008F6
:10340800784B1B78DBB2002B00F0D880724B02227D
:103418001A70744B00221A70D0E0FB79002B00F070
:10342800CF80734B1B68002B0DDD6F4B1B78DBB215
:10343800012B08D16E4B1B681A466E4B1A60664BFF
:1034480003221A70BCE06C4B1B68002B0AD0674B38
:1034580001221A70684B1B68664A13605E4B04228F
:103468001A70ADE06548FFF711FC604B00221A7036
:10347800594B00221A70A3E05E4B1B68002B04D046
:103488005C4B1B68013B5B4A13605A4B1B68002B63
:1034980040F098805A4B1B78DBB2012B06D1534B76
:1034A80000221A704C4B00221A708BE0554B1B6897
:1034B800002B0AD04D4B00221A70524B1B684D4A04
:1034C8001360454B01221A707CE0FB79002B07D072
:1034D800494B1B68474A13603F4B04221A7071E03E
:1034E800424B00221A703C4B02221A706AE0414B90
:1034F8001B68002B04D03F4B1B68013B3D4A1360FF
:103508003C4B1B68002B5FD13B4B1B68002B0AD040
:10351800364B01221A70384B1B68364A13602E4B03
:1035280004221A7050E03548FFF7B0FB2F4B0022F9
:103538001A70294B00221A7046E02E4B1B68002B8C
:1035480004D02C4B1B68013B2A4A1360294B1B688B
:10355800002B3BD1FB79002B18D0274B1B68002B85
:103568000AD0224B01221A70234B1B68214A136090
:10357800194B04221A7029E02048FFF787FB1B4BE0
:1035880000221A70144B00221A701FE0124B0222FC
:103598001A701BE0104B1B78DBB219461A48FFF76C
:1035A80075FB124B00221A700D4B00221A700B4B40
:1035B80000221A70084B00221A7008E000BF06E0CB
:1035C80000BF04E000BF02E000BF00E000BF00BF92
:1035D8000837BD4680BD00BF4C04002049040020C8
:1035E8005B0400200C0000204A0400205A0400203C
:1035F800440400205C040020080000204CE6000879
:103608004B0400204004002074E6000880B400AF9A
:1036180010494FF000024FF00003C1E900230E4BA0
:1036280000221A700D4B1B78DAB20D4B1A700D4B35
:1036380000221A700C4B00221A700C4B00221A60E0
:103648000B4B00221A7000231846BD465DF8047B18
:10365800704700BF50040020580400204A0400208E
:10366800590400205A0400205B0400205C04002058
:103678004C04002080B584B000AF0346FB80FB8873
:10368800002B3FD1314B1B78DAB2314B1B789A4271
:1036980014BF01230023DBB2FB732C4B1B78DAB277
:1036A8002B4B1A70FB7B002B0BD02A4B00221A7075
:1036B800294B00221A70294B00221A60284B00223D
:1036C8001A70224B1B78DBB2012B1BD1244B1B78C1
:1036D800DBB2002B04D1234B1B78DBB2002B08D1C3
:1036E8001F4B1B78DBB2012B0CD11C4B1B68012B29
:1036F80008D11A4B00221A601A4B00221A70184B74
:1037080002221A70114B1B78DBB2012B07D1164B22
:103718001B889BB2FA889A4201D1FFF741FDFB88CA
:10372800002B05D1FFF716FE104B00221A7006E099
:103738000E4B1B78002B02D00D4B1B7801E0054B7C
:103748001B7818461037BD4680BD00BF4A040020CC
:10375800590400205A0400205B0400205C04002067
:103768004C0400200C0000202804002061040020E4
:103778006004002080B400AF26494FF000024FF0EB
:103788000003C1E90023244B00221A70234B0022B6
:103798001A70234B00221A70224B00221A80224BE7
:1037A80000221A70214B00221A70214B00221A6045
:1037B800204B00221A70204B00221A701F4B002247
:1037C8001A601F4B00221A701E494FF000024FF07A
:1037D8000003C1E900231C4B4FF47A721A601B4B9B
:1037E80000221A601A4B00221A601A4B00221A7023
:1037F800194B01221A70194B00221A70184B00221B
:103808001A70184B00221A7000231846BD465DF83E
:10381800047B704750040020580400204C0400200A
:1038280059040020280400205A0400205B040020CA
:103838005C04002060040020610400202C040020A7
:103848003004002038040020080000204004002034
:1038580044040020480400200C00002049040020F3
:103868004A0400204B04002080B400AF174B1B789B
:10387800DBB2002B25D1164B1B78DBB2002B0BD00B
:10388800144B1B78DBB2002B06D1134B01221A70A4
:10389800124B01221A7014E00E4B1B78DBB2002B7E
:1038A8000BD00B4B1B78DBB2002B06D10A4B002246
:1038B8001A700A4B01221A7003E0084B00221A7092
:1038C800FFE700BFBD465DF8047B70474A0400204F
:1038D8000C0000204904002060040020610400203E
:1038E80080B586B000AFF860B9607A603B600023AD
:1038F800FB7503F0F9FE3861FB681B68184604F095
:1039080009F90021386803F067FE0246BB681A60AF
:1039180003F052FE02467B681A60BB681B68002BE6
:103928000FD0BB681B681946386904F0F9FB0246DA
:10393800FB681A60FB681B68002B04D1F623FB7533
:1039480001E0F823FB7597F9173018461837BD467C
:1039580080BD000080B584B000AFF860B9607A60BF
:10396800FA68BB6813441B7819460848FFF78EF9B4
:10397800FB68002B02D0F86804F0CCF87B680022C2
:103988001A60002318461037BD4680BD98E6000827
:1039980080B584B000AFF860B9607A60FA68BB6837
:1039A80013441B7819460648FFF770F97B68022212
:1039B8001A604FF0FF3318461037BD4680BD00BF70
:1039C800F4E6000880B485B000AF03460A46FB71F0
:1039D8001346BB710523FB73FB79F02B02D9002337
:1039E800FB7322E0FB79E32B05D9FB79F02B02D896
:1039F8000123FB7319E0FB79D22B02D9FB79E22B67
:103A080008D9FB79C02B08D1BB79002B05D0BB792D
:103A1800022B02D80223FB7307E0FB79C72B04D9DA
:103A2800FB79D22B01D80323FB73FB7B1846143791
:103A3800BD465DF8047B704780B58CB000AFF86078
:103A4800B9607A603B60FB68BB62BB6A1B7887F829
:103A58002730002387F82F3097F82730C02B06D15E
:103A6800BB68012B03D9BB6A5B7887F82F30364BCC
:103A78001B78002B3ED097F82F2097F82730114657
:103A88001846FFF79FFF0346FB76002387F82E3082
:103A9800FB7E052B23D0FB7E2C4A52F823307B611A
:103AA80000233B617B69002B19D097F827207B699D
:103AB8001046984738613B69002B14BF0123002347
:103AC800DBB287F82E3097F82E30002B07D03B69F1
:103AD8005A687B681A603B699A683B681A6097F86D
:103AE8002E30002B2CD17B68194A1A603B68194A82
:103AF8001A6025E097F82730FF2B1BD1134B1B6862
:103B08003B627B6800221A603B6800221A603B6AAD
:103B1800002B15D03B6AFF209847F861FB69002B02
:103B28000ED0FB695A687B681A60FB699A683B6823
:103B38001A6005E07B68084A1A603B6800221A6030
:103B480000BF3037BD4680BD6304002068040020F4
:103B580099390008293C00085D39000880B483B011
:103B680000AF0346FB71044AFB79137000BF0C37A2
:103B7800BD465DF8047B70476304002080B400AF45
:103B8800034B1B781846BD465DF8047B704700BFA1
:103B98006404002080B483B000AF0346FB71064B79
:103BA8001A78FB791343DAB2034B1A7000BF0C374B
:103BB800BD465DF8047B70476404002080B483B080
:103BC80000AF0346FB7197F90730DB435AB2074B46
:103BD8001B785BB213405BB2DAB2044B1A7000BFB9
:103BE8000C37BD465DF8047B704700BF64040020B5
:103BF80080B400AF034B1B781846BD465DF8047BC4
:103C0800704700BF6504002080B400AF034B1B88D9
:103C18001846BD465DF8047B704700BF6604002067
:103C280080B586B000AF0346B9607A60FB7397F938
:103C38000F30002B05D1BB683B613B69FF221A702E
:103C480076E0BB687B617B69FE221A7097F90F30BA
:103C580010330F2B62D801A252F823F01D3D000843
:103C6800153D00080D3D0008053D0008FD3C000815
:103C7800F53C0008E53C0008ED3C0008DD3C000888
:103C8800D53C0008CD3C0008C53C0008AD3C000808
:103C9800A53C0008B53C0008BD3C00087B69302203
:103CA8005A7045E07B6929225A7041E07B692222DB
:103CB8005A703DE07B6920225A7039E07B69002206
:103CC8005A7035E07B6923225A7031E07B692122E2
:103CD8005A702DE07B6911225A7029E07B692722EE
:103CE8005A7025E07B692A225A7021E07B691022EC
:103CF8005A701DE07B6924225A7019E07B692822DA
:103D08005A7015E07B6926225A7011E07B693122CE
:103D18005A700DE07B6933225A7009E097F90F3029
:103D280019460548FEF7B2FF7B6920225A70FFE763
:103D380000BF1837BD4680BD24E7000880B487B0AF
:103D480000AF0346B9607A60FB7300237B61BB68F0
:103D5800002B23D000233B6100233B6117E03A6925
:103D680013465B0013449B001A46BB6813441B7838
:103D7800FA7B9A4208D13A6913465B0013449B00C8
:103D88001A46BB6813447B613B6901333B613A695E
:103D98007B689A4202D27B69002BE0D07B69184687
:103DA8001C37BD465DF8047B7047000080B582B0C3
:103DB80000AF78603960134B1B78002B05D0124890
:103DC800FEF764FF6FF00B0318E000F077FC00F0DB
:103DD80081FC03460D4A136002F04EFA02F068FABD
:103DE80003460A4A936003F041F803F049F8034692
:103DF800064A5360034B01221A70002318460837FD
:103E0800BD4680BD6204002068E700086804002001
:103E180080B58CB002AF002387F82730002387F8DD
:103E280026300023FB610023BB6100237B61002354
:103E38003B610023FB6000233B620023BB6000233F
:103E48007B60554B1B78002B05D15448FEF71EFFAD
:103E58006FF008039BE007F1140007F1180207F15F
:103E68001C0107F1100300930346002003F00EFB2A
:103E7800034687F8273097F92730002B09D097F9A0
:103E8800273013F1040F04D097F9273013F1050FE9
:103E980071D1FB69002B05D07A693B691A44BB696B
:103EA8009A4203D9F82387F8273067E0FA697B69D3
:103EB80013443B6239693B1D07F10802386AFFF772
:103EC800BBFDBB68002B09D13B6A1B7819463448F7
:103ED800FEF7DCFEF42387F827304FE0BB68F8696B
:103EE800796907F10C029847034687F826307B6802
:103EF800002B3DD0FB68002B3AD0002387F82730F1
:103F08003A69FB689A420BD2FB6807F1140207F181
:103F1800180107F11C00FFF7E3FC034687F8273078
:103F28003B691A460021386A0AF0A2F897F9273047
:103F3800002B1DD1FA697B6913443B627B68FA68E0
:103F480097F92600396A9847F969B8697B69FA6868
:103F58000192009303460A464FF6FF71012003F0D1
:103F68003DF9034687F8273097F92730002B04D10D
:103F780097F927300BE000BF00E000BFFB69002B7A
:103F880003D0FB69184603F0C5FD97F9273018469A
:103F98002837BD4680BD00BF6204002098E70008AE
:103FA800C0E7000880B584B000AF03463960FB80E5
:103FB8000023FB730B4B1B78002B05D10A48FEF737
:103FC80065FE6FF0080309E0FB880022396818468F
:103FD80002F06CFB0346FB7397F90F301846103755
:103FE800BD4680BD62040020F0E7000880B400AF41
:103FF800034B1B781846BD465DF8047B704700BF2D
:104008006304002080B500AF0B4B1B78002B02D156
:104018000A48FEF73BFE02F04FFF02F0F1FD00F008
:1040280075FB1022002106480AF022F8024B0022F4
:104038001A700023184680BD62040020E8E80008D2
:104048006804002080B584B000AF7860786802F01A
:10405800B1FB0346FB7397F90F3018461037BD467E
:1040680080BD80B584B000AF0346FB800123FB739D
:10407800FA7BFB880021184602F018FB0346BB7345
:1040880097F90E3018461037BD4680BD80B584B00C
:1040980000AF0346FB710123FB6003F0DCFAB86054
:1040A800FA79B968FB68B1FBF3F39A4234BF01238C
:1040B8000023DBB218461037BD4680BD80B584B0FA
:1040C80000AF78600B46FB7000F02AFBF860F968D7
:1040D8000648FEF7DBFD064B1B781A46F968786838
:1040E800FCF7F4FC00BF1037BD4680BD10E900089E
:1040F8008004002080B588B000AFF860B9607A60AD
:104108000023FB77FA68BB681344BB61BB697B611A
:104118000023FB7402F0A6FC0346FB74FB7C002B17
:1041280008D11A48FEF7B2FD7B6802221A606FF0C8
:104138000A0327E07B695B78002B03D07B695B78F7
:10414800012B01D1012300E00023FB74FB7C002B31
:104158000BD17B695B7819460D48FEF797FD7B68A4
:1041680002221A606FF001030CE00A48FEF78EFD88
:104178000120FFF7F3FC0023FB777B6808221A6015
:1041880097F91F3018462037BD4680BD28E900083A
:1041980074E9000898E9000880B586B000AF0346C6
:1041A800B9607A60FB7397F90F30002B47D1BB6871
:1041B8007B6108220021786909F05AFF7B69FF2298
:1041C8001A7005227B695A7000227B699A7003F085
:1041D80042FA0346DAB27B69DA7003F035FA03462D
:1041E8009AB27B699A807B6901229A717B69012264
:1041F800DA717B695B7819461648FEF747FD7B69DB
:104208009B7819461448FEF741FD7B69DB7819460F
:104218001248FEF73BFD7B699B889BB21946104804
:10422800FEF734FD7B699B7919460E48FEF72EFD93
:104238007B69DB7919460C48FEF728FD06E097F9FB
:104248000F307A68B9681846FFF7EAFC00BF1837DC
:10425800BD4680BDC0E90008DCE90008F8E90008AF
:1042680014EA000830EA00084CEA000880B586B075
:1042780000AFF860B9607A600123FB7502F0F2FBC9
:104288000346FB75FB7D002B08D10B48FEF7FEFCAF
:104298007B6802221A606FF00A0309E00748FEF7FC
:1042A800F5FC0020FFF75AFC7B6801221A60002306
:1042B80018461837BD4680BD68EA0008B8EA000805
:1042C80080B584B000AFF860B9607A600548FEF741
:1042D800DDFC7B6806221A60002318461037BD46AD
:1042E80080BD00BFE8EA000880B586B000AF03468D
:1042F800B9607A60FB73BB687B610622002178692C
:1043080009F0B6FE7B69FF221A70FFF737FC0346F7
:104318001A467B695A70FFF76BFC03461A467B699D
:104328009A70FFF771FC03461A467B699A807B698D
:104338005B7819460948FEF7A9FC7B699B78194602
:104348000748FEF7A3FC7B699B889BB21946054882
:10435800FEF79CFC00BF1837BD4680BDF4EA000894
:1043680018EB00083CEB000880B586B000AFF86099
:10437800B9607A600023FB750B48FEF787FC02F0F2
:104388005BFB0346FB75FB7D002B03D003F08CF928
:1043980002F061FB7B6802221A606FF00403184682
:1043A8001837BD4680BD00BF60EB000880B588B0F7
:1043B80000AFF860B9607A600023FB77FA68BB68E1
:1043C8001344BB61BB697B610023FB747B695A683A
:1043D8007B69DB781946104600F0AEF90346FB749A
:1043E800FB7C002B08D10D48FEF750FC7B680222AD
:1043F8001A606FF00B030CE07B6959687B69DB7806
:104408001A460748FEF742FC7B6801221A6097F9B2
:104418001F3018462037BD4680BD00BF68EB000836
:1044280084EB000880B58AB000AFF860B9607A60A4
:10443800002387F82730FA68BB6813443B623B6A5D
:10444800FB610023FB7600F06BF97861FB695B7810
:104458001846FFF71BFE0346FB76FB7E002B0BD1AD
:10446800FB695B7819461248FEF710FC7B6802224C
:104478001A606FF0010316E07B69002B08D10D4824
:10448800FEF704FC7B6802221A606FF00B030AE057
:10449800FB695A78084B1A70074B1B785A1C7B68C3
:1044A8001A6097F9273018462837BD4680BD00BFE7
:1044B800B8EB0008E8EB00088004002080B588B05D
:1044C80000AF0346B9607A60FB7397F90F30002B91
:1044D80030D100F025F9F861BB68BB6101220021E9
:1044E800B86909F0C5FDBB69FF221A70FB69002B8A
:1044F8001CD0164B1B7801337A689A4216D1BB68D8
:1045080001337B610023FB741148FEF7BFFBFB7C82
:1045180019467869FFF7D2FD0C4B1B78184600F056
:1045280029F90A4B00221A7000BF0AE00948FEF771
:10453800ADFB06E097F90F307A68B9681846FFF7BF
:104548006FFB00BF2037BD4680BD00BF8004002040
:1045580004EC000810EC000880B588B000AFF860E3
:10456800B9607A600023FB77FA68BB681344BB61C3
:10457800BB697B610023FB747B695B781846FFF796
:1045880085FD0346FB74FB7C002B0BD17B695B78B4
:1045980019461748FEF77AFB7B6802221A606FF00B
:1045A800010320E07B695A687B69DB78194610466D
:1045B80000F0C2F80346FB74FB7C002B08D10D48C1
:1045C800FEF764FB7B6802221A606FF00B030AE0B7
:1045D8007B695A78084B1A70074B1B785A1C7B6802
:1045E8001A6097F91F3018462037BD4680BD00BFB6
:1045F80030EC000864EC00088004002080B588B026
:1046080000AF0346B9607A60FB7397F90F30002B4F
:1046180030D100F085F8F861BB68BB610122002148
:10462800B86909F025FDBB69FF221A70FB69002BE8
:104638001CD0164B1B7801337A689A4216D1BB6896
:1046480001337B610023FB741148FEF71FFBFB7CE1
:1046580019467869FFF732FD0C4B1B78184600F0B5
:1046680089F80A4B00221A7000BF0AE00948FEF7D1
:104678000DFB06E097F90F307A68B9681846FFF71E
:10468800CFFA00BF2037BD4680BD00BF80040020A0
:1046980084EC000894EC000880B582B000AF0346B3
:1046A800FB71FB79072204491846FFF747FB0346CD
:1046B80018460837BD4680BDFC0A010880B500AF22
:1046C800034800F013F800F069F800BF80BD00BF90
:1046D800A146000880B400AF034B1B681846BD46CE
:1046E8005DF8047B704700BF8404002080B483B069
:1046F80000AF7860044A7B68136000BF0C37BD4682
:104708005DF8047B704700BF8404002080B500AFCB
:1047180000F04BF80020FFF7E9FF00BF80BD000064
:1047280080B400AF034B1B681846BD465DF8047B98
:10473800704700BF7804002080B483B000AF786071
:104748000B46FB70FB78002B04D17B68002B01D152
:10475800002306E0064A7B681360054AFB7813715C
:10476800012318460C37BD465DF8047B704700BF2F
:104778007804002080B483B000AF0346FB71064B79
:104788001A68FB791344044A136000BF0C37BD460E
:104798005DF8047B704700BF7804002080B400AF48
:1047A80000BFBD465DF8047B704780B400AF00BF12
:1047B800BD465DF8047B704780B584B000AF034602
:1047C800FB800023FB7305F0B6FF03460B4A13601A
:1047D8000B4B1B68002B0CBF01230023DBB2FB73C0
:1047E800FB7B002B04D1054B1B68184605F0B4FF72
:1047F800FB7B18461037BD4680BD00BF94040020DF
:104808009004002080B582B000AF0346FB80044BC3
:104818001B68184605F0A0FF00BF0837BD4680BDDD
:104828009404002080B582B000AF0346FB8005F0F9
:1048380082FF0346074A1360074B1B680133064A89
:104848001360044B1B68184605F086FF00BF083745
:10485800BD4680BD940400209004002080B582B03D
:1048680000AF0346FB8005F066FF0346074A136066
:10487800074B1B68013B064A1360044B1B6818462C
:1048880005F06AFF00BF0837BD4680BD94040020CC
:104898009004002080B483B000AF0346FB80104B27
:1048A8001968FA8813465B001344DB000B445B79F4
:1048B800022B0AD00A4B1968FA8813465B00134486
:1048C800DB000B445B79032B01D1012300E00023BB
:1048D800DBB218460C37BD465DF8047B704700BF55
:1048E8008804002080B582B000AF0023FB7100234C
:1048F800BB800023BB8008E0BB881846FFF7CAFFCF
:104908000346FB71BB880133BB80094B9B88BA887F
:104918009A4202D2FB79002BEED0FB79002B0CBF18
:1049280001230023DBB218460837BD4680BD00BF0F
:104938008804002080B485B000AF0346FB800B4696
:104948007B7113463B71284B1B68002B42D0264BCA
:104958009B88FA889A423DD2234B1968FA881346F5
:104968005B001344DB000B441B68002B32D01E4B4A
:104978001968FA8813465B001344DB000B441B7963
:104988007A799A4226D2184B1968FA8813465B003E
:104998001344DB000B4419687A791346DB009B1A31
:1049A8009B000B441B68002B14D00F4B1968FA8826
:1049B80013465B001344DB000B4419687A791346ED
:1049C800DB009B1A9B000B441B793A799A4201D26F
:1049D800012300E00023FB73FB7B18461437BD4618
:1049E8005DF8047B704700BF8804002080B485B060
:1049F80000AF03463A60FB710B46BB710023FB73A3
:104A0800BB79BB81FB79FF2B04D1BB89FF2B01D874
:104A18000123FB73FB7B18461437BD465DF8047B06
:104A2800704780B483B000AF0346FB71FB7923F075
:104A38001003002B0CBF01230023DBB218460C37F0
:104A4800BD465DF8047B704780B485B000AF03466F
:104A5800FB710023FB73FB79002B05D0FB79012B3D
:104A680002D0FB79022B01D10123FB73FB7B184693
:104A78001437BD465DF8047B704780B485B000AF3D
:104A88000346FB710023FB73FB79002B05D0FB79F0
:104A9800012B02D0FB79022B01D10123FB73FB7B95
:104AA80018461437BD465DF8047B704780B400AFE4
:104AB80001231846BD465DF8047B704780B485B075
:104AC80000AF0346FB80164B1968FA8813465B0053
:104AD8001344DB000B441B7B022B0ED1104B1968CF
:104AE800FA8813465B001344DB000B44DA880D4B4D
:104AF8001B889A4201D0012300E00023FB73FB7B53
:104B0800002B04D0FB88012B01D8012300E00023EF
:104B1800FB73FB7B18461437BD465DF8047B704772
:104B2800880400201800002080B485B000AF7860A9
:104B38000B46FB707B681968FA781346DB009B1AF2
:104B48009B000B44BB60BB689B687A68D28902FBF8
:104B580003F30133FB60FB78002B08D17B681B7AD9
:104B680003F01003002B02D0FB680433FB60FB68E2
:104B780018461437BD465DF8047B704780B586B08B
:104B880000AF78600023BB7400237B610023FB74B3
:104B98000023FB7415E0FB7C19467868FFF7C4FF17
:104BA800F8600023BB600121F86802F015FDB860C9
:104BB800BA687B699A4201D9BB687B61FB7C013387
:104BC800FB747B681B79FA7C9A42E4D37B681B7977
:104BD8001A4613465B0099187B6814331A4678699D
:104BE80003F050F80346BB7497F91230002B03D03A
:104BF8007B684FF0FF325A6197F912301846183720
:104C0800BD4680BD80B582B000AF78607B685B69C7
:104C1800B3F1FF3F04D07B685B69184603F044F9A1
:104C28007B684FF0FF325A6100BF0837BD4680BD30
:104C380080B58AB000AFF860B9607A60002387F861
:104C48002730FA68BB6813443B623B6AFB61FB6927
:104C58009A78DB781B0213437B83FB691B797B768D
:104C6800FB695B793B760023FB753A7E797E7B8B0B
:104C78001846FFF75FFE0346FB75FB7D002B0BD143
:104C8800798B7A7E3B7E1D48FEF700F87B6802220E
:104C98001A606FF001032CE07B8B1846FFF7FAFDD2
:104CA8000346002B0CBF01230023DBB2FB75FB7D01
:104CB800002B0AD17B8B19461148FDF7E7FF7B686B
:104CC80002221A606FF0070313E0798B7A7E3B7E2D
:104CD8000C48FDF7DBFF0C4A7B8B13800A4A7B7E6E
:104CE8009370094A3B7ED3707B6801221A6097F95A
:104CF800273018462837BD4680BD00BFBCEC0008E9
:104D080000ED000830ED000814000020F0B58FB069
:104D180004AFF860B9607A60002387F82730FA6832
:104D2800BB6813443B623B6AFB61584B1B887B831F
:104D3800564B9B787B76554BDB783B7600237B6123
:104D48000023FB743A7E797E7B8B1846FFF7F2FDD1
:104D58000346FB74FB7C002B0BD1798B7A7E3B7E60
:104D68004B48FDF793FF7B6802221A606FF005033A
:104D780087E07B8B1846FFF78DFD0346002B0CBFA1
:104D880001230023DBB2FB74FB7C002B0AD17B8B55
:104D980019464048FDF77AFF7B6802221A606FF0D7
:104DA80007036EE0FB695878FB699978FB695B68D3
:104DB8001A46FFF71BFE0346FB74FB7C002B1BD136
:104DC800798B7A7E387EFB695B781C46FB699B7819
:104DD8001D46FB69DB781E46FB695B6803930296F8
:104DE8000195009403462C48FDF750FF7B6802228A
:104DF8001A606FF0010344E0798B7A7E387EFB6994
:104E08005B781C46FB699B781D46FB69DB781E4670
:104E1800FB695B68039302960195009403461F485B
:104E2800FDF734FF1E4B19687A8B13465B00134459
:104E3800DB000B4419687A7E1346DB009B1A9B0043
:104E48000B441A683B7EDB0013447B61FB695A788C
:104E58007B691A70FB699A787B695A70FB69DA7802
:104E68007B699A70FB695A687B695A60074BDB78E3
:104E78000133DAB2054BDA707B6801221A6097F9C0
:104E8800273018462C37BD46F0BD00BF140000205F
:104E980080ED0008DCED00080CEE000884EE000848
:104EA8008804002090B58DB002AFF860B9607A60D0
:104EB800002387F82730FA68BB6813443B623B6AD3
:104EC800FB610023BB610023FB75614B1B68002B52
:104ED80008D0FB695B889AB25D4B9B889A4201D2E5
:104EE800012300E00023FB75FB7D002B0CD1FB693F
:104EF8005B889BB219465748FDF7C8FE7B680222BB
:104F08001A606FF001039FE0514B1A68FB695B88D8
:104F18009BB219460B465B000B44DB001344BB6194
:104F2800FB695B889BB21846FFF7B4FC0346002B6D
:104F38000CBF01230023DBB2FB75FB7D002B0CD1DA
:104F4800FB695B889BB219464348FDF79FFE7B6867
:104F580002221A606FF0070376E0FB699B889BB218
:104F68007F2B94BF01230023DBB2FB75FB7D002B55
:104F78000CD1FB699B889BB219463848FDF786FE21
:104F88007B6802221A606FF001035DE0FB69DB7940
:104F9800002B0CBF01230023DBB2FB75FB7D002B2C
:104FA80008D12F48FDF772FE7B6802221A606FF065
:104FB800010349E0FB695B781846FFF732FD0346B9
:104FC800FB75FB7D002B0BD1FB695B7819462548E7
:104FD800FDF75CFE7B6802221A606FF0090333E07C
:104FE800FB695B889BB21946FB695B781846FB69CD
:104FF8009B889BB21C46FB699B791A46FB69DB7947
:1050080001930092234602461748FDF73FFEFB69CD
:105018005A78BB691A72FB699B889AB2BB69DA80B5
:10502800FB699A79BB695A72FB69DA79BB699A722A
:10503800BB695B7A012B02D8BB6901225A727B6873
:1050480001221A6097F9273018462C37BD4690BDC3
:1050580088040020F4EE000824EF000858EF000848
:1050680088EF0008C4EF0008F8EF000890B58FB08B
:1050780000AFF860B9607A60002387F82630FA68D4
:10508800BB6813443B623B6AFB610023BB61FB695D
:105098005B889BB27B61002387F837300023FB7461
:1050A8008A4B1B68002B07D0884B9B881A467B6964
:1050B800934201DA012300E0002387F8373097F89C
:1050C8003730002B09D179698148FDF7DFFD7B680E
:1050D80002221A606FF00103B2E17E4A7B69136015
:1050E8007A4B19687A6913465B001344DB000B445A
:1050F800BB61FB695B781846FFF7A6FC034687F897
:10510800373097F83730002B0BD1FB695B7819469D
:105118007148FDF7BBFD7B6802221A606FF0090336
:105128008EE1FFF7C3FC0346002B5AD0BB695B79BD
:10513800002B56D1BB691B7A03F00203002B21D048
:10514800BB691B68002B09D0604BDB791A46BB6929
:105158001B791344802B01DC012300E0002387F82E
:10516800373097F83730002B2DD0584BDA79BB6998
:10517800DA72564BDA79BB691B791344DAB2534BAE
:10518800DA7120E0BB691B68002B09D04F4B9B7973
:105198001A46BB691B791344FC2B01DC012300E090
:1051A800002387F8373097F83730002B0BD0474B60
:1051B8009A79BB69DA72454B9A79BB691B791344B2
:1051C800DAB2424B9A7197F83730002B09D17969D6
:1051D8004248FDF75BFD7B6802221A606FF0080306
:1051E8002EE1FB695B78012B04D0FB695B78022B0D
:1051F80040F0908000233B63012387F83730002379
:105208003B637CE00023FB620023BB620023FB625C
:1052180013E0BB6919683A6B1346DB009B1A9B00C5
:105228000B441A68FB6ADB0013445B781A46BB6AB6
:105238001344BB62FB6A0133FB62BB6919683A6BB2
:105248001346DB009B1A9B000B441B791A46FB6A2A
:105258009342DEDB3B6B002B17D1BB691B7A03F053
:105268001003002B11D0BB69DB891A46BB6A02FB0D
:1052780003F35C1D02F0E8F903469C4294BF012346
:105288000023DBB287F8373010E0BB69DB891A46A8
:10529800BB6A02FB03F35C1C02F0D6F903469C428E
:1052A80094BF01230023DBB287F8373097F83730F3
:1052B800002B17D13A6B79690948FDF7E7FC7B6841
:1052C80002221A606FF00803BAE000BF88040020C9
:1052D8005CF00008100000208CF00008BCF000080A
:1052E800F8F00008BB6919683A6B1346DB009B1A93
:1052F8009B000B44BA6A9A603B6B01333B63BB6902
:105308001B791A463B6B934204DA97F83730002B27
:105318007FF478AFBB69DB881846FFF74DFA034680
:10532800FB74FB7C002B7DD0002387F82730FB69BA
:105338005B78022B53D0022B5FDC002B02D0012BB1
:1053480013D05AE079694048FDF7A0FCBB690122F7
:105358005A71FFF7C7FA0346002B4BD00120FEF71E
:10536800FDFB4020FEF72AFC44E079693748FDF749
:105378008DFCBB695B69B3F1FF3F22D1BB69DA8859
:10538800334B1B889A420CD1314B5868304B996883
:10539800BB6914331A4602F033FE034687F82730F8
:1053A8000FE07B69012B0CDCBB69DB88012B08D87B
:1053B800B869FFF7E3FB034687F82730BB6900228B
:1053C8001A8297F92730002B16D1BB6903225A712C
:1053D8000220FEF7C3FB4020FEF7DCFB0CE0FB6974
:1053E8005B889BB219461B48FDF750FCBB6902223B
:1053F8005A7102E000BF00E000BFBB69DB881846B5
:10540800FFF700FA7B6802221A6097F92730002B11
:1054180008D01148FDF73AFC7B6802221A606FF049
:1054280002030DE0FB7C002B08D10C48FDF72EFC95
:105438007B6802221A606FF00A0301E097F92630B0
:1054480018463C37BD4690BD5CF1000888F100085D
:1054580018000020B4F10008E0F100082CF2000860
:1054680080B586B000AF0346B9607A60FB7397F9E0
:105478000F30002B12D1BB687B617B69FF221A7049
:105488000C4B1A680C4B1B6819460B465B000B4407
:10549800DB001344DA7A7B695A7006E097F90F301B
:1054A8007A68B9681846FEF7BBFB00BF1837BD46D7
:1054B80080BD00BF880400201000002090B58BB08C
:1054C80000AFF860B9607A600023FB77FA68BB68C0
:1054D8001344BB61BB697B610023FB740023BB746D
:1054E80000237B627B695B781846FFF7C6FA0346A0
:1054F800FB74FB7C002B0BD17B695B781946A648B3
:10550800FDF7C4FB7B6802221A606FF0090362E1B1
:10551800A24B1B68002B05D0A04B9B88002B01D009
:10552800012300E00023FB74FB7C002B08D19C487E
:10553800FDF7ACFB7B6802221A606FF001034AE1B9
:1055480001F07AFA0346BB74BB7C002B00F035816E
:10555800002387F8233000233B847B695B78022B88
:1055680000F0D580022B00F30681002B02D0012B1E
:105578002CD000E100237B621BE0884B19687A6A13
:1055880013465B001344DB000B445B79002B0DD002
:10559800796A8448FDF77AFB804B19687A6A134662
:1055A8005B001344DB000B4401225A717B6A013310
:1055B8007B627A4B9B881A467B6A9342DDDB01202B
:1055C800FEF7CCFA4020FEF7F9FAD4E000237B621C
:1055D80063E0724B19687A6A13465B001344DB0078
:1055E8000B445B79022B55D16C4B19687A6A1346C8
:1055F8005B001344DB000B445B69B3F1FF3F49D107
:10560800664B19687A6A13465B001344DB000B4447
:10561800DA88654B1B889A4214D1634B5868624BF1
:105628009C685E4B19687A6A13465B001344DB007A
:105638000B4414331A46214602F0E2FC034687F86D
:10564800233027E07B6A012B24DC544B19687A6AE3
:1056580013465B001344DB000B44DB88012B19D88D
:105668004E4B19687A6A13465B001344DB000B44FF
:105678001846FFF783FA034687F82330474B196823
:105688007A6A13465B001344DB000B4400221A823B
:105698007B6A3B847B6A01337B62404B9B881A465A
:1056A8007B6A934203DA97F92330002B91D097F95C
:1056B8002330002B5CD100237B6221E0374B196833
:1056C8007A6A13465B001344DB000B445B79022BB8
:1056D80013D1796A3548FDF7D9FA304B19687A6AD7
:1056E80013465B001344DB000B4403225A7102206B
:1056F800FEF734FA4020FEF74DFA7B6A01337B62ED
:10570800264B9B881A467B6A9342D7DB30E00023FE
:105718007B621BE0214B19687A6A13465B001344CD
:10572800DB000B445B79022B0DD1796A1D48FDF72C
:10573800ADFA1A4B19687A6A13465B001344DB000A
:105748000B4401225A717B6A01337B62134B9B889D
:105758001A467B6A9342DDDBFFF7C4F80346002B49
:1057680008D00120FEF7FAF94020FEF727FA01E0F9
:1057780000BF00E000BF01F06EF997F92330002B5D
:1057880018D03B8C19460A48FDF780FA7B6802223C
:105798001A606FF002031EE074F20008880400200B
:1057A800A4F20008D0F2000818000020F8F200085F
:1057B80020F300087B6801221A60BB7C002B08D10B
:1057C8000748FDF763FA7B6802221A606FF00A0344
:1057D80001E097F91F3018462C37BD4690BD00BF31
:1057E8006CF3000880B584B000AFF860B9607A60E7
:1057F8000548FDF74BFA7B6808221A600023184613
:105808001037BD4680BD00BFB0F3000880B586B034
:1058180000AF0346B9607A60FB73BB687B610822FE
:105828000021786908F024FC7B69FF221A707B69E3
:1058380011225A707B694FF0FF329A704FF0FF3295
:10584800DA707B69002262F07F021A7100225A71B5
:105858007B6900229A717B690022DA717B695B7827
:1058680019461048FDF712FA7B695B889BB2194606
:105878000D48FDF70BFA7B699B889BB219460B48CC
:10588800FDF704FA7B699B7919460948FDF7FEF98B
:105898007B69DB7919460748FDF7F8F900BF183727
:1058A800BD4680BDC8F30008E4F3000800F4000812
:1058B8001CF4000838F4000880B584B000AFF86024
:1058C800B9607A600548FDF7E1F97B6808221A603B
:1058D800002318461037BD4680BD00BF54F40008A9
:1058E80080B586B000AF0346B9607A60FB73BB68C9
:1058F8007B6108220021786908F0BAFB7B69FF22E6
:105908001A707B6901225A707B69FF229A707B6941
:105918000122DA707B69FF221A717B6934225A717D
:105928007B69002242F001029A710022DA717B69D8
:105938005B7819461248FDF7A9F97B699B781946E7
:105948001048FDF7A3F97B69DB7819460E48FDF787
:105958009DF97B691B7919460C48FDF797F97B6916
:105968005B7919460A48FDF791F97B69DB889BB298
:1059780019460848FDF78AF900BF1837BD4680BDAB
:1059880070F4000898F40008C0F40008E8F400086F
:1059980010F500083CF5000880B586B000AFF86047
:1059A800B9607A600023FB750023BB750F48FDF7CB
:1059B8006DF901F057F80346BB75BB7D002B08D184
:1059C8000B48FDF763F97B6802221A606FF00A033F
:1059D80007E00120FEF7C2F87B6801221A6097F9F8
:1059E800173018461837BD4680BD00BF64F500085B
:1059F80094F5000880B58CB000AFF860B9607A60A3
:105A0800002387F82B30FA68BB6813447B627B6AF3
:105A18003B623B6A5B889BB2FB610023BB6100234E
:105A2800FB750023FB62514B1B68002B0CBF012345
:105A38000023DBB2FB75FB7D002B08D14C48FDF73A
:105A480025F97B6802221A606FF003038AE0FB697C
:105A5800002B05DDFB69B3F5803F01DA012300E087
:105A68000023FB75FB7D002B09D1F9694148FDF73F
:105A78000DF97B6802221A606FF0010372E0FA697F
:105A880013465B001344DB001A46F9693A48FDF7F0
:105A9800FDF8FA6913465B001344DB00184601F071
:105AA800C5FFB861BB69002B09D1F9693348FDF717
:105AB800EDF87B6802221A606FF0020352E0FA697F
:105AC80013465B001344DB001A460021B86908F04E
