:020000040800F2
:10000000000002203DAC0008258D00082D8D000861
:10001000358D00083D8D0008458D0008000000006A
:10002000000000000000000000000000D18900086E
:100030004D8D0008000000008D890008BD88000873
:100040008DAC00088DAC00088DAC00088DAC0008AC
:100050008DAC00088DAC00088DAC00088DAC00089C
:100060008DAC00088DAC00088DAC00085B8D0008DD
:100070008DAC00088DAC00088DAC00088DAC00087C
:10008000698D0008778D00083BBA00088DAC000828
:100090008DAC00088DAC00088DAC00088DAC00085C
:1000A0008DAC0008858D00088DAC00088DAC000873
:1000B0008DAC00088DAC00088DAC00088DAC00083C
:1000C0008DAC00088DAC00088DAC00088DAC00082C
:1000D0008DAC00088DAC00088DAC00088DAC00081C
:1000E0008DAC00088DAC00088DAC00088DAC00080C
:1000F0008DAC00088DAC00088DAC0008998D00080F
:100100008DAC00088DAC00088DAC00088DAC0008EB
:100110008DAC00088DAC00088DAC00088DAC0008DB
:100120008DAC00088DAC00088DAC00088DAC0008CB
:100130008DAC000800000000000000008DAC00083D
:100140008DAC00088DAC00088DAC00088DAC0008AB
:100150008DAC00088DAC00088DAC00088DAC00089B
:100160008DAC00088DAC00088DAC00088DAC00088B
:100170008DAC00088DAC00080000000000000000FD
:080180008DAC00088DAC0008F5
:1001880081F0004102E000BF83F0004330B54FEA40
:1001980041044FEA430594EA050F08BF90EA020FAD
:1001A8001FBF54EA000C55EA020C7FEA645C7FEA40
:1001B800655C00F0E2804FEA5454D4EB5555B8BF63
:1001C8006D420CDD2C4480EA020281EA030382EAD4
:1001D800000083EA010180EA020281EA0303362D66
:1001E80088BF30BD11F0004F4FEA01314FF4801C39
:1001F8004CEA113102D0404261EB410113F0004F4B
:100208004FEA03334CEA133302D0524263EB430301
:1002180094EA050F00F0A780A4F10104D5F1200E9F
:100228000DDB02FA0EFC22FA05F2801841F10001FA
:1002380003FA0EF2801843FA05F359410EE0A5F1CE
:1002480020050EF1200E012A03FA0EFC28BF4CF0FF
:10025800020C43FA05F3C01851EBE37101F00045B5
:1002680007D54FF0000EDCF1000C7EEB00006EEBC2
:100278000101B1F5801F1BD3B1F5001F0CD349084C
:100288005FEA30004FEA3C0C04F101044FEA4452A3
:1002980012F5800F80F09A80BCF1004F08BF5FEA2A
:1002A800500C50F1000041EB045141EA050130BD0A
:1002B8005FEA4C0C404141EB0101013C28BFB1F51C
:1002C800801FE9D291F0000F04BF01460020B1FA67
:1002D80081F308BF2033A3F10B03B3F120020CDA3A
:1002E8000C3208DD02F1140CC2F10C0201FA0CF018
:1002F80021FA02F10CE002F11402D8BFC2F1200C7D
:1003080001FA02F120FA0CFCDCBF41EA0C01904032
:10031800E41AA2BF01EB0451294330BD6FEA04047B
:100328001F3C1CDA0C340EDC04F11404C4F1200266
:1003380020FA04F001FA02F340EA030021FA04F378
:1003480045EA030130BDC4F10C04C4F1200220FACF
:1003580002F001FA04F340EA0300294630BD21FA0D
:1003680004F0294630BD94F0000F83F4801306BFD3
:1003780081F480110134013D4EE77FEA645C18BFC7
:100388007FEA655C29D094EA050F08BF90EA020F5E
:1003980005D054EA000C04BF1946104630BD91EA56
:1003A800030F1EBF0021002030BD5FEA545C05D159
:1003B8004000494128BF41F0004130BD14F5800498
:1003C8003CBF01F5801130BD01F0004545F0FE410C
:1003D80041F470014FF0000030BD7FEA645C1ABF41
:1003E800194610467FEA655C1CBF0B46024650EA78
:1003F800013406BF52EA033591EA030F41F40021A4
:1004080030BD00BF90F0000F04BF0021704730B529
:100418004FF4806404F132044FF000054FF00001FE
:1004280050E700BF90F0000F04BF0021704730B5BF
:100438004FF4806404F1320410F0004548BF404294
:100448004FF000013EE700BF42004FEAE2014FEAE9
:1004580031014FEA02701FBF12F07F4393F07F4FC4
:1004680081F06051704732F07F4208BF704793F0C7
:100478007F4F04BF41F40021704730B54FF46074DA
:1004880001F0004521F000411CE700BF50EA0102DD
:1004980008BF704730B54FF000050AE050EA010286
:1004A80008BF704730B511F0004502D5404261EBF6
:1004B80041014FF4806404F132045FEA915C3FF437
:1004C800D8AE4FF003025FEADC0C18BF03325FEAD4
:1004D800DC0C18BF033202EBDC02C2F1200300FA85
:1004E80003FC20FA02F001FA03FE40EA0E0021FAAA
:1004F80002F11444BDE600BF70B54FF0FF0C4CF498
:10050800E06C1CEA11541DBF1CEA135594EA0C0F49
:1005180095EA0C0F00F0DEF82C4481EA030621EA84
:100528004C5123EA4C5350EA013518BF52EA0335BF
:1005380041F4801143F4801338D0A0FB02CE4FF071
:100548000005E1FB02E506F00042E0FB03E54FF0A1
:100558000006E1FB03569CF0000F18BF4EF0010E99
:10056800A4F1FF04B6F5007F64F5407404D25FEA95
:100578004E0E6D4146EB060642EAC62141EA555148
:100588004FEAC52040EA5E504FEACE2EB4F1FD0C8A
:1005980088BFBCF5E06F1ED8BEF1004F08BF5FEA08
:1005A800500E50F1000041EB045170BD06F00046BA
:1005B80046EA010140EA020081EA0301B4EB5C0467
:1005C800C2BFD4EB0C0541EA045170BD41F480115F
:1005D8004FF0000E013C00F3AB8014F1360FDEBF84
:1005E800002001F0004170BDC4F10004203C35DA60
:1005F8000C341BDC04F11404C4F1200500FA05F3E3
:1006080020FA04F001FA05F240EA020001F0004283
:1006180021F0004110EBD37021FA04F642EB0601F9
:100628005EEA430E08BF20EAD37070BDC4F10C0423
:10063800C4F1200500FA04F320FA05F001FA04F2E7
:1006480040EA020001F0004110EBD37041F10001D3
:100658005EEA430E08BF20EAD37070BDC4F12005DE
:1006680000FA05F24EEA020E20FA04F301FA05F246
:1006780043EA020321FA04F001F0004121FA04F2EE
:1006880020EA020000EBD3705EEA430E08BF20EABE
:10069800D37070BD94F0000F0FD101F000464000F8
:1006A80041EB010111F4801F08BF013CF7D041EA7A
:1006B800060195F0000F18BF704703F0004652007E
:1006C80043EB030313F4801F08BF013DF7D043EA4F
:1006D8000603704794EA0C0F0CEA135518BF95EA05
:1006E8000C0F0CD050EA410618BF52EA4306D1D18C
:1006F80081EA030101F000414FF0000070BD50EAAB
:10070800410606BF1046194652EA430619D094EA34
:100718000C0F02D150EA013613D195EA0C0F05D11E
:1007280052EA03361CBF104619460AD181EA030172
:1007380001F0004141F0FE4141F470014FF000002A
:1007480070BD41F0FE4141F4780170BD70B54FF0C5
:10075800FF0C4CF4E06C1CEA11541DBF1CEA135545
:1007680094EA0C0F95EA0C0F00F0A7F8A4EB050427
:1007780081EA030E52EA03354FEA013100F088801E
:100788004FEA03334FF0805545EA131343EA1263E7
:100798004FEA022245EA111545EA10654FEA00269C
:1007A8000EF000419D4208BF964244F1FD0404F555
:1007B800407402D25B084FEA3202B61A65EB0305B1
:1007C8005B084FEA32024FF480104FF4002CB6EB6E
:1007D800020E75EB030E22BFB61A754640EA0C00EE
:1007E8005B084FEA3202B6EB020E75EB030E22BF2E
:1007F800B61A754640EA5C005B084FEA3202B6EB6F
:10080800020E75EB030E22BFB61A754640EA9C002D
:100818005B084FEA3202B6EB020E75EB030E22BFFD
:10082800B61A754640EADC0055EA060E18D04FEABB
:10083800051545EA16754FEA06164FEAC30343EA5B
:1008480052734FEAC2025FEA1C1CC0D111F4801F28
:100858000BD141EA00014FF000004FF0004CB6E721
:1008680011F4801F04BF01430020B4F1FD0C88BFC0
:10087800BCF5E06F3FF6AFAEB5EB030C04BFB6EBCB
:10088800020C5FEA500C50F1000041EB045170BDBE
:100898000EF0004E4EEA113114EB5C04C2BFD4EBEB
:1008A8000C0541EA045170BD41F480114FF0000E6F
:1008B800013C90E645EA060E8DE60CEA135594EAEB
:1008C8000C0F08BF95EA0C0F3FF43BAF94EA0C0FEE
:1008D8000AD150EA01347FF434AF95EA0C0F7FF463
:1008E80025AF104619462CE795EA0C0F06D152EAB7
:1008F80003353FF4FDAE1046194622E750EA41069B
:1009080018BF52EA43067FF4C5AE50EA41047FF4AB
:100918000DAF52EA43057FF4EBAE12E74FF0FF3C10
:1009280006E000BF4FF0010C02E000BF4FF0010CE1
:100938004DF804CD4FEA410C7FEA6C5C4FEA430C5A
:1009480018BF7FEA6C5C1BD001B050EA410C0CBFA9
:1009580052EA430C91EA030F02BF90EA020F00200B
:10096800704710F1000F91EA030F58BF994208BF72
:1009780090422CBFD8176FEAE37040F0010070472F
:100988004FEA410C7FEA6C5C02D150EA013C07D186
:100998004FEA430C7FEA6C5CD6D152EA033CD3D0D1
:1009A8005DF8040B704700BF8446104662468C46CB
:1009B8001946634600E000BF01B5FFF7B7FF0028FE
:1009C80048BF10F1000F01BD4DF808EDFFF7F4FF27
:1009D8000CBF012000205DF808FB00BF4DF808EDB2
:1009E800FFF7EAFF34BF012000205DF808FB00BFD5
:1009F8004DF808EDFFF7E0FF94BF012000205DF8F7
:100A080008FB00BF4DF808EDFFF7CEFF94BF0120AB
:100A180000205DF808FB00BF4DF808EDFFF7C4FFA4
:100A280034BF012000205DF808FB00BF4FEA410CED
:100A38007FEA6C5C02D150EA013C0AD14FEA430CD0
:100A48007FEA6C5C02D152EA033C02D14FF000000D
:100A580070474FF0010070474FEA410212F500124B
:100A680015D211D56FF47873B3EB625212D94FEAED
:100A7800C12343F0004343EA505311F0004F23FAD7
:100A880002F018BF404270474FF00000704750EA2C
:100A9800013005D111F0004008BF6FF000407047E9
:100AA8004FF00000704700BF4A0011D212F5001243
:100AB80011D20DD56FF47873B3EB62520ED44FEAAE
:100AC800C12343F0004343EA505323FA02F070472E
:100AD8004FF00000704750EA013002D14FF0FF306C
:100AE80070474FF0000070474FEA4102B2F1E0430F
:100AF80024BFB3F5001CDCF1FE5C0DD901F0004CFD
:100B08004FEAC0024CEA5070B2F1004F40EB83004C
:100B180008BF20F00100704711F0804F21D113F178
:100B28003872BCBF01F00040704741F480114FEAB1
:100B38005252C2F11802C2F1200C10FA0CF320FA3A
:100B480002F018BF40F001004FEAC1234FEAD32357
:100B580003FA0CFC40EA0C0023FA02F34FEA4303C1
:100B6800CCE77FEA625307D150EA01331EBF4FF04A
:100B7800FE4040F44000704701F0004040F0FE4065
:100B880040F40000704700BF53B94AB9002908BFB4
:100B980000281CBF4FF0FF314FF0FF3000F00CB8B9
:100BA800ADF1080C6DE904CE0CF0A8FFDDF804E007
:100BB800DDE9022304B07047704700BF844641EA6C
:100BC800000313F003036DD1403A41D351F8043BBD
:100BD80040F8043B51F8043B40F8043B51F8043B0F
:100BE80040F8043B51F8043B40F8043B51F8043BFF
:100BF80040F8043B51F8043B40F8043B51F8043BEF
:100C080040F8043B51F8043B40F8043B51F8043BDE
:100C180040F8043B51F8043B40F8043B51F8043BCE
:100C280040F8043B51F8043B40F8043B51F8043BBE
:100C380040F8043B51F8043B40F8043B51F8043BAE
:100C480040F8043B51F8043B40F8043B403ABDD21D
:100C5800303211D351F8043B40F8043B51F8043BBF
:100C680040F8043B51F8043B40F8043B51F8043B7E
:100C780040F8043B103AEDD20C3205D351F8043B4E
:100C880040F8043B043AF9D2043208D0D2071CBF1A
:100C980011F8013B00F8013B01D30B880380604643
:100CA800704700BF082A13D38B078DD010F00303B9
:100CB8008AD0C3F10403D21ADB071CBF11F8013B29
:100CC80000F8013B80D331F8023B20F8023B7BE778
:100CD800043AD9D3013A11F8013B00F8013BF9D2A3
:100CE8000B7803704B7843708B788370604670473D
:100CF8000348044B834202D0034B03B118477047A3
:100D08003C0100203C010020000000000548064B83
:100D18001B1AD90F01EBA301491002D0034B03B1F1
:100D2800184770473C0100203C01002000000000EB
:100D380010B5064C237843B9FFF7DAFF044B13B11B
:100D48000448AFF300800123237010BD4001002048
:100D58000000000090DF000808B5054B1BB10549ED
:100D68000548AFF30080BDE80840FFF7CFBF00BFDC
:100D7800000000004401002090DF000880B483B028
:100D880000AF786039600C4A3B6813441B781A46F8
:100D98007B6813441B6808493A680A44127811466C
:100DA8007A680A4443F00103136000BF0C37BD465C
:100DB8005DF8047B704700BFC0DF000880B485B0D1
:100DC80000AFF860B9607A600D4ABB6813441B78BD
:100DD8001A46FB6813445B681B0C1B040849BA6875
:100DE8000A4412781146FA680A4411467A6813438D
:100DF8004B6000BF1437BD465DF8047B704700BFE9
:100E0800C0DF000880B485B000AFF860B9607A60D0
:100E18003B60BB69402B14D1174ABB6813441B784D
:100E28001A46FB6813441A467B68D360124ABB68AB
:100E380013441B781A46FB6813441A463B689360B0
:100E480013E00D4ABB6813441B781A46FB68134429
:100E58001A467B689360084ABB6813441B781A4695
:100E6800FB6813441A463B68D36000BF1437BD467D
:100E78005DF8047B704700BFC0DF000880B483B012
:100E880000AF786039600C4A3B6813441B781A46F7
:100E98007B6813441B6808493A680A44127811466B
:100EA8007A680A4443F01003136000BF0C37BD464C
:100EB8005DF8047B704700BFC0DF000880B483B0D2
:100EC80000AF78607B681B6843F040027B681A605B
:100ED80000BF0C37BD465DF8047B704780B483B013
:100EE80000AF78607B681B6823F040027B681A605B
:100EF80000BF0C37BD465DF8047B704780B483B0F3
:100F080000AF78607B681B6803F04003402B01D179
:100F1800012300E0002318460C37BD465DF8047B2A
:100F2800704780B483B000AF78607B681B6803F4B7
:100F3800827318460C37BD465DF8047B704780B451
:100F480083B000AF786039607B681B6823F00102CA
:100F58003B681A437B681A6000BF0C37BD465DF8D2
:100F6800047B704780B483B000AF78607B681B68EF
:100F780003F0010318460C37BD465DF8047B704743
:100F880080B483B000AF786039607B681B6823F059
:100F980002023B681A437B681A6000BF0C37BD46E3
:100FA8005DF8047B704780B483B000AF78607B68DD
:100FB8001B6803F0020318460C37BD465DF8047B36
:100FC800704780B483B000AF786039607B681B6875
:100FD80023F444423B681A437B681A6000BF0C370D
:100FE800BD465DF8047B704780B483B000AF78607D
:100FF8007B681B6803F4444318460C37BD465DF80C
:10100800047B704780B483B000AF786039607B6838
:101018001B6823F400623B681A437B681A6000BFB0
:101028000C37BD465DF8047B704780B483B000AFD1
:1010380078607B681B6803F4006318460C37BD466C
:101048005DF8047B704780B483B000AF78607B683C
:101058009B6803F00103012B01D1012300E0002369
:1010680018460C37BD465DF8047B704780B483B0E2
:1010780000AF78607B689B6803F00203022B01D104
:10108800012300E0002318460C37BD465DF8047BB9
:10109800704780B483B000AF78607B689B6803F0CA
:1010A8008003802B01D1012300E0002318460C3770
:1010B800BD465DF8047B704780B483B000AF7860AC
:1010C8007B685B6843F040027B685A6000BF0C375E
:1010D800BD465DF8047B704780B483B000AF78608C
:1010E8007B685B6843F001027B685A6000BF0C377D
:1010F800BD465DF8047B704780B483B000AF78606C
:101108007B685B6843F002027B685A6000BF0C375B
:10111800BD465DF8047B704780B483B000AF78604B
:101128007B680C3318460C37BD465DF8047B704766
:1011380080B483B000AF78607B680C331B78DBB277
:1011480018460C37BD465DF8047B704780B483B001
:1011580000AF78607B68DB689BB218460C37BD46E9
:101168005DF8047B704780B485B000AF78600B46AB
:10117800FB707B680C33FB60FB68FA781A7000BF61
:101188001437BD465DF8047B704780B485B000AF66
:1011980078600B467B807B680C33FB60FB687A8841
:1011A8001A8000BF1437BD465DF8047B7047000005
:1011B80080B584B000AF786039600023FB600023FD
:1011C800BB607B68002B0BD03B68002B08D07B688A
:1011D800BB60BB681B68654A934201D1644BFB60E6
:1011E800FB68002B00F0BC80BB681A68FB681A60BB
:1011F800FB6893F84620BB6893F846301343DAB28D
:10120800FB6883F84620FB6893F84420BB6893F892
:1012180044301343DAB2FB6883F84420FB6893F840
:101228004520BB6893F845301343DAB2FB6883F86E
:101238004520FB683A68DA61BB6893F8463003F0EA
:101248000103002B32D0BB689A6AFB689A62BB68BC
:101258001A6AFB681A62FB6800225A63FB6800225C
:101268001A63FB68002283F84020FB6893F8443037
:1012780003F00403002B05D0FB681B681846FFF732
:101288001BFF13E0FB6893F8443003F01003002BB6
:101298000CD0BB685A68FB685A60BB6893F8542046
:1012A800FB6883F85420F86800F0FEFABB6893F8EE
:1012B800463003F00203002B28D0BB68DA6AFB68CB
:1012C800DA62BB685A6AFB685A62FB6800229A6352
:1012D800FB680022DA63FB6800229A61FB6800223F
:1012E80083F85620FB6893F8453003F02003002B61
:1012F8000CD0BB689A68FB689A60BB6893F8552065
:10130800FB6883F85520F86800F00FFB3B68FA6823
:101318001A60FB681B681846FFF766FE0346B3F5BC
:10132800004F0ED1FB681B681846FFF7FAFD03460D
:10133800B3F5827F05D1FB681B681846FFF7CEFD21
:1013480004E0FB681B681846FFF7B8FDBB681B681C
:101358001A46064B9A4202D000233B6000E000BFC9
:101368003B6818461037BD4680BD00BF003C0040B2
:101378005C01002080B582B000AF78600B467B80AE
:101388007868FFF731FE0346B3F5004F0BD17B8831
:10139800012B08D1786800F0F4FA4FF440417868DE
:1013A800FFF70FFE11E07868FFF71EFE0346B3F55E
:1013B800404F0AD17B88002B07D1786800F0E1FA0A
:1013C8004FF400417868FFF7FCFD00231846083702
:1013D800BD4680BD80B586B000AFF8607A601A4619
:1013E8000B467B8113467B7200237B61FB68002BD5
:1013F80006D0FB681B68002B02D0FB681B687B616A
:101408007B689BB21B0A7B827B897A69134493F8B9
:101418004E30002B0CD07B69B3F84C207B7A9BB202
:101428009A4205D17B695B697A689A4200F0C88064
:101438007B7A9AB27B69A3F84C207B697A685A61F7
:101448007B691B68184600F09CFA7B69B3F84C303E
:10145800002B1CD17B691B681846FFF783FD0346E8
:10146800002B05D07B691B6800211846FFF767FD34
:101478007B691B681846FFF796FD0346022B66D06A
:101488007B691B6802211846FFF77AFD5FE07B69DC
:10149800B3F84C30012B1CD17B691B681846FFF749
:1014A80061FD0346012B05D07B691B6801211846A5
:1014B800FFF745FD7B691B681846FFF774FD034677
:1014C800022B44D07B691B6802211846FFF758FDA0
:1014D8003DE07B69B3F84C30022B1CD17B691B685B
:1014E8001846FFF73FFD0346002B05D07B691B68B4
:1014F80000211846FFF723FD7B691B681846FFF794
:1015080052FD0346002B22D07B691B680021184638
:10151800FFF736FD1BE07B691B681846FFF722FDC5
:101528000346012B05D07B691B6801211846FFF78C
:1015380006FD7B691B681846FFF735FD0346002B3F
:1015480005D07B691B6800211846FFF719FD7B69E8
:101558001B681846FFF769FD02467B6893420CD06A
:101568007B691A687B8A082B01D8002301E04FF4B5
:10157800006319461046FFF745FD7B691B6818464E
:10158800FFF732FD0346B3F5004F0ED17B691B68A8
:101598001846FFF7C6FC0346B3F5827F05D17B6981
:1015A8001B68184600F0EDF904E07B691B681846D3
:1015B800FFF784FC7B897A691344012283F84E2063
:1015C800002318461837BD4680BD80B58AB000AFE5
:1015D800F860B96011461A460B46FB801346BB807B
:1015E8000023BB840023FB6108F074FCF86100232E
:1015F8003B62FB68002B06D0FB681B68002B02D0FF
:10160800FB681B683B623B6A1B6801211846FFF7B1
:10161800B1FE0346BB843B8E002B01D100237B63C4
:101628003B6A1B681846FFF769FC0346002B04D188
:101638003B6A1B681846FFF741FCBB88DBB2002BEE
:101648002CD1BB687B610023FB8422E03B6A1B68CA
:101658001846FFF70BFD0346012B0CD13B6A1868AF
:10166800FB8C7A6913441B781946FFF77CFDFB8CC9
:101678000133FB840DE00121F86907F095F8024673
:101688007B6B934205D2386A00F0C3F90346BB84EA
:1016980035E0FA8CFB889A42D8D330E0BB88DBB2BD
:1016A800012B2CD1BB68BB610023FB8423E03B6A80
:1016B8001B681846FFF7DAFC0346012B0DD13B6A7D
:1016C8001868FB8C5B00BA6913441B881946FFF73E
:1016D8005CFDFB8C0133FB840DE00121F86907F008
:1016E80063F802467B6B934205D2386A00F091F9A1
:1016F8000346BB8403E0FA8CFB889A42D7D3BB8CA1
:1017080018462837BD4680BD90B58FB004AFF86045
:10171800B96011461A460B46FB801346BB8000236E
:10172800BB840023BB6108F0D5FBB861FB887B84D0
:101738000023FB61FB68002B06D0FB681B68002BAD
:1017480002D0FB681B68FB61FB691B680021184617
:10175800FFF710FE0346BB843B8F002B01D100230B
:10176800FB63FB691B681846FFF7DBFB0346B3F511
:10177800827F0BD1FB691B681846FFF735FC0346CF
:10178800B3F5004F02D17B8C013B7B84FB691B685E
:101798001846FFF7B3FB0346002B04D1FB691B680F
:1017A8001846FFF78BFBBB88DBB2002B39D1BB682F
:1017B8003B610023FB842FE0FB691B681846FFF799
:1017C80042FC0346002B0DD0FB691968FB8C3A6973
:1017D800D4180846FFF7ACFC03462370FB8C013392
:1017E800FB8419E00121B86906F0DEFF0246FB6BB5
:1017F800934211D2798CFA8CFB6B0393BB690293E9
:10180800BB880193FB8800930B463969F86900F09F
:101818000BF90346BB8442E0FA8C7B8C9A42CBD30B
:101828003DE0BB88DBB2012B39D1BB687B6100236B
:10183800FB8430E0FB691B681846FFF704FC03468D
:10184800002B0ED0FB691968FB8C5B007A69D418F1
:101858000846FFF77BFC03462380FB8C0133FB849F
:1018680019E00121B86906F09FFF0246FB6B93421D
:1018780011D2798CFA8CFB6B0393BB690293BB88FA
:101888000193FB8800930B467969F86900F0CCF85E
:101898000346BB8403E0FA8C7B8C9A42CAD3BB8C88
:1018A80018462C37BD4690BDB0B584B002AF7860FD
:1018B8007B685C687B6893F854301D467B681B68BE
:1018C8001846FFF729FC02467B681B6A1946002365
:1018D80000930B4629462046FFF794FA7B68586820
:1018E8007B6893F8543019467B68DB691B691A4694
:1018F800FFF764FA7B685A687B6893F85430194696
:101908001046FFF7BBFA7B681B681846FFF7E4FB35
:101918007B685A687B6893F8543019461046FFF77D
:101928002DFA00BF0837BD46B0BDF0B585B002AF8F
:1019380078607B689C687B6893F855301D467B68A7
:101948005B6A1E467B681B681846FFF7E5FB034683
:1019580040220092324629462046FFF753FA7B6818
:101968009A687B6893F8553019461046FFF786FA4F
:101978007B681B681846FFF7BFFB00BF0C37BD46E6
:10198800F0BD80B582B000AF78607868FFF7B6FA2E
:101998000346002B2CD07868FFF726FB0346002B64
:1019A8000AD100BF7868FFF774FB0346002BF9D112
:1019B8007868FFF793FA1BE07868FFF715FB034692
:1019C800B3F5806F06D07868FFF70EFB0346B3F5D2
:1019D800004F03D17868FFF781FA09E000BF786803
:1019E800FFF757FB0346002BF9D17868FFF776FA23
:1019F80000BF0837BD4680BD80B485B000AFF86031
:101A0800B9607A603B6000BF1437BD465DF8047B5F
:101A1800704780B483B000AF7860012318460C3754
:101A2800BD465DF8047B704790B587B000AFF8609D
:101A3800B96011461A460B46FB801346BB80FB680B
:101A48001B681846FFF74AFAFB681B681846FFF739
:101A580068FA0346B3F5827F37D1FB681B681846DE
:101A6800FFF7C2FA0346B3F5004F2ED1BA883B8D73
:101A78009A422AD0FB681B681846FFF7E4FA034627
:101A8800002BF7D0BB8DDBB2002B0CD1BB683B61C0
:101A9800FB681968FB883A69D4180846FFF748FBC1
:101AA8000346237010E0BB8DDBB2012B0CD1BB6861
:101AB8007B61FB681968FB885B007A69D418084663
:101AC800FFF744FB0346238000BF012318461C3759
:101AD800BD4690BD80B483B000AF78607B681B685A
:101AE80043F001027B681A6000BF0C37BD465DF801
:101AF800047B704780B483B000AF78607B681B6854
:101B080023F001027B681A6000BF0C37BD465DF800
:101B1800047B704780B483B000AF786039607B681D
:101B28001B6823F004023B681A437B681A6000BFF5
:101B38000C37BD465DF8047B704780B483B000AFB6
:101B480078607B681B6803F0040318460C37BD46B1
:101B58005DF8047B704780B483B000AF786039606B
:101B68007B683A681A6300BF0C37BD465DF8047B92
:101B7800704780B483B000AF786039607B681A6AB8
:101B88003B681A437B681A6200BF0C37BD465DF894
:101B9800047B704780B483B000AF786039607B689D
:101BA8001A6A3B68DB431A407B681A6200BF0C372D
:101BB800BD465DF8047B704780B483B000AF7860A1
:101BC80039607B683A685A6300BF0C37BD465DF8D8
:101BD800047B704780B483B000AF786039607B685D
:101BE8003A689A6300BF0C37BD465DF8047B7047BE
:101BF80080B483B000AF786039607B683A68DA6394
:101C080000BF0C37BD465DF8047B704780B483B0D5
:101C180000AF78607B685B6B18460C37BD465DF893
:101C2800047B704780B483B000AF78607B689B6B9F
:101C380018460C37BD465DF8047B704780B483B006
:101C480000AF78607B68DB6B18460C37BD465DF8E3
:101C5800047B704780B483B000AF78607B685B6CAE
:101C680043F400427B685A6400BF0C37BD465DF8F8
:101C7800047B704780B483B000AF78607B685B6C8E
:101C880003F40043B3F5004F01D1012300E0002322
:101C980018460C37BD465DF8047B704780B483B0A6
:101CA80000AF78607B685B6943F001027B685A612A
:101CB80000BF0C37BD465DF8047B704780B483B025
:101CC80000AF786039607B683A689A6100BF0C376A
:101CD800BD465DF8047B704780B483B000AF786080
:101CE80039603B681A047B689A6100BF0C37BD46AF
:101CF8005DF8047B704780B582B000AF78603960CA
:101D08007B681B681846FFF781FF02463B689342D1
:101D180005D07B681B6839681846FFF74DFF00BF80
:101D28000837BD4680BD80B582B000AF78603960A5
:101D38007B681B681846FFF775FF02463B689342AD
:101D480005D07B681B6839681846FFF743FF00BF5A
:101D58000837BD4680BD80B582B000AF7860396075
:101D68007B681B681846FFF769FF02463B68934289
:101D780005D07B681B6839681846FFF739FF00BF34
:101D88000837BD4680BD80B485B000AF78607B68F9
:101D98001B689B6803F00703FB60FB68062B0CBFFE
:101DA80001230023DBB218461437BD465DF8047BD7
:101DB8007047000080B584B000AF78600B46FB70B8
:101DC8007B681B681846FFF7B8FEF860FB78002BA5
:101DD8000FD07B681B68234A934204D07B681B683A
:101DE800214A934205D17B681B6800211846FFF7FA
:101DF800B2FEFB68042B11D07B681B6804211846CF
:101E0800FFF788FE7B681B681846FFF747FF7B686B
:101E18001B68F9681846FFF77DFE04E07B681B68BD
:101E28001846FFF73BFF7B681B681846FFF752FE12
:101E3800FB78002B11D07B681B680A4A934204D0B8
:101E48007B681B68084A934207D17B681A687B68DD
:101E58005B7919461046FFF77EFE00BF1037BD4676
:101E680080BD00BF000001400004014080B582B081
:101E780000AF78607B681B681846FFF73BFE00BF21
:101E88000837BD4680BD000080B582B000AF7860DD
:101E98000B46FB70FB78012B16D17B681B680C4A3C
:101EA800934204D07B681B680A4A93420CD17B6832
:101EB8001B681846FFF7DEFE0346002B04D17B683B
:101EC8001B681846FFF7C6FE00BF0837BD4680BD31
:101ED800000001400004014080B400AF234BB3F878
:101EE800E221013292B2A3F8E221204BB3F8E231A9
:101EF800012B03D91D4B0022A3F8E2211B4BB3F899
:101F0800E421013292B2A3F8E421184BB3F8E4318A
:101F1800132B03D9154B0022A3F8E421134BB3F874
:101F2800E621013292B2A3F8E621104BB3F8E6316C
:101F3800B3F5FA6F03D30D4B0022A3F8E6210B4B40
:101F4800B3F8E821013292B2A3F8E821074BB3F8BD
:101F5800E83144F61F62934203D9044B0022A3F8E8
:101F6800E82100BFBD465DF8047B704718070020D4
:101F780090B591B000AFF860B9607A603B6000231B
:101F8800FB630023BB6369E0FB6B9B00BA681344E7
:101F98001B687B63BB6B5A1CBA63DB003A6813444B
:101FA800D3E90023C7E90A237B6BDB00FA681344F3
:101FB800D3E90001D7E90A23FEF7E6F802460B4603
:101FC800C7E90823BB6BDB003A681344D3E9000177
:101FD800D7E90A23FEF7D8F802460B46C7E90623D5
:101FE800D7E90623D7E90801FEF7B0FB02460B46FE
:101FF80043EC172BB0EE470AF0EE670A0AF080F9B7
:1020080053EC102B10461946FEF726FD03467B615C
:102018007B69002B1CD07869FEF704FAD7E9062300
:10202800FEF76AFA02460B46D7E90801FEF7ACF854
:1020380002460B46104619467B6BDB00FA68D4183B
:10204800D7E90A23FEF7A2F802460B46C4E90023A3
:10205800FB6B0133FB63BB6B0133BB63FA6B7B68C0
:102068009A4291DB00BF00BF4437BD4690BD0000D7
:102078002DE9F04399B000AF78607B68DB6F1B688F
:10208800D3E90023C7E914237B68D3E90623C7E90A
:1020980012237B681B6AD3E90023C7E910237B68F6
:1020A800D3F884301B68FB637B689B68BB63BB6B9E
:1020B8001B687B63BB6B5B683B63BB6B9B68FB62AA
:1020C800BB6BDB68BB6204237B627B685B680022B6
:1020D8001A707B6ADB001A46F96B786BFEF76EFDA7
:1020E8007B689B6F3A6B1A6004F02AFC774BD3E944
:1020F8000001D7E91023FEF7FFF902460B46C7E9AE
:1021080002230023FB6524E0FB6DDB007A6B13449C
:10211800D3E90045FB6DDB003A6B1344D3E90001BA
:10212800D7E90223FEF7E8F902460B46104619469E
:10213800FB6DDB00FA6BD61802460B462046294693
:10214800FEF724F802460B46C6E90023FB6D01336F
:10215800FB65FA6D7B6A9A42D6DB5D4BD3E90001D9
:10216800D7E91023FEF7C8F902460B461046194670
:102178007B68DB6F1C68D7E91423FEF707F8024673
:102188000B46C4E900237B689B6FFA6A1A6001F06A
:10219800BBF804F0D5FB0023FB6516E04B4AFB6D4A
:1021A8000333DB001344D3E90001D7E91023FEF71A
:1021B800A3F902460B46F96DC90060313944583914
:1021C800C1E90023FB6D0133FB65FB6D012BE5DDE8
:1021D8000023FB6538E0FB6DDB007A6B1344D3E921
:1021E8000045FB6DDB003A6B1344D3E90001D7E9E6
:1021F8000223FEF781F902460B4690469946FB6D8D
:10220800DB00FA6A1344D3E90001D7E90423FEF797
:1022180073F902460B4640464946FDF7B7FF0246AA
:102228000B4610461946FB6DDB00FA6BD6180246C2
:102238000B4620462946FDF7A9FF02460B46C6E98C
:102248000023FB6D0133FB65FA6D7B6A9A42C2DBA2
:102258001F4BD3E90201D7E91023FEF74DF90246D7
:102268000B46104619467B68DB6F1C68D7E91423B8
:10227800FDF78CFF02460B46C4E900237B689B6F81
:10228800BA6A1A6001F040F804F05AFB0023FB65B3
:1022980016E00E4AFB6D0633DB001344D3E9000158
:1022A800D7E91023FEF728F902460B46F96DC90055
:1022B800603139445839C1E90023FB6D0133FB65AE
:1022C800FB6D022BE5DD0023FB6550E0D0DF000845
:1022D80018E00008FB6DDB007A6B1344D3E9004576
:1022E800FB6DDB003A6B1344D3E90001D7E9022305
:1022F800FEF702F902460B4690469946FB6DDB0055
:10230800FA6A1344D3E90001D7E90423FEF7F4F885
:1023180002460B4640464946FDF738FF02460B4643
:1023280090469946FB6DDB00BA6A1344D3E9000175
:10233800D7E90623FEF7E0F802460B464046494631
:10234800FDF724FF02460B4610461946FB6DDB00DD
:10235800FA6BD61802460B4620462946FDF716FFAB
:1023680002460B46C6E90023FB6D0133FB65FA6D97
:102378007B6A9A42AEDB7B68DB6F1968D7E9122368
:10238800C1E900237B68D3F8843018687B68D3F8E8
:102398008C3019687B68D3F890301B680122FFF7EE
:1023A800E7FD7B685B6801221A7000BF6437BD4691
:1023B800BDE8F08380B483B000AF0346FB80FB88A0
:1023C800DB039BB218460C37BD465DF8047B7047AB
:1023D80080B483B000AF0346FB80FB88DB029BB26E
:1023E80018460C37BD465DF8047B704780B59AB037
:1023F80000AF78607B6800221A727B6801225A60FD
:102408000023BB620023FB62254BBB60002387F8D7
:102418004E3000233B6300237B63012387F84C3055
:10242800022387F84D300023FB60002387F85C30D7
:1024380000233B61002387F85D307B6800221A6126
:102448007B68184A5A61012387F867307B680E2237
:102458009A617B68012283F824207B6897F86720BB
:102468001A777B6801221A627B6810333B6607F192
:102478000803396E1846FEF79BFE02467B68DA6051
:102488007B68D86803234FF470620221FEF7A2FF2D
:102498007B6801221A7200BF6837BD4680BD00BF45
:1024A800003C00400008024080B582B000AF786070
:1024B8007B6800225A607B6800221A707B680122C0
:1024C80083F828207B681846FFF790FF00BF08377D
:1024D800BD4680BD80B586B002AF786039603B6884
:1024E800D86803234FF470620221FEF773FF034696
:1024F800FB81FB89002B0FD13B68D86879680123E1
:1025080001930123009301230122FFF7FDF84FF403
:1025180080410348FFF7D2FB00BF1037BD4680BD9E
:102528000008024080B586B002AF78607B681B78EF
:10253800002B16D17B6801221A707B685B68012B1F
:102548000FD17B681B7A002B0BD04FF0FF33FB6059
:102558007B68D8680E230093FB68FA68F968FFF770
:102568004BFA00BF1037BD4680BD000080B59AB059
:1025780000AF78607B6800221A727B6801225A607B
:102588000023BB620023FB62254BBB60002387F856
:102598004E3000233B6300237B63012387F84C30D4
:1025A800022387F84D300023FB60002387F85C3056
:1025B80000233B61002387F85D307B6800221A61A5
:1025C8007B68184A5A61012387F867307B680E22B6
:1025D8009A617B68012283F824207B6897F867203A
:1025E8001A777B680F221A627B6810333B6607F103
:1025F8000803396E1846FEF7DBFD02467B68DA6091
:102608007B68D86803234FF470620221FEF7E2FE6C
:102618007B6801221A7200BF6837BD4680BD00BFC3
:10262800003C00400008024080B582B000AF7860EE
:102638007B6800225A607B6800221A707B6801223E
:1026480083F828207B681846FFF790FF00BF0837FB
:10265800BD4680BD80B58CB002AF78607B68D86815
:1026680003234FF470620221FEF7B4FE0346FB8495
:10267800FB8C002B10D17B68D86807F10801012377
:1026880001930123009301230F22FFF73DF84FF434
:1026980080410348FFF712FB00BF2837BD4680BDC5
:1026A8000008024080B586B002AF78607B681B786E
:1026B800002B16D17B6801221A707B685B68012B9E
:1026C8000FD17B681B7A002B0BD04FF0FF33FB60D8
:1026D8007B68D8680E230093FB68FA68F968FFF7EF
:1026E8008BF900BF1037BD4680BD000080B59AB099
:1026F80000AF78600023BB620023FB62234BBB6002
:10270800002387F84E3000233B6300237B630123BB
:1027180087F84C30022387F84D300023FB600023F4
:1027280087F85C3000233B61002387F85D307B68C5
:1027380000221A617B68164A5A61012387F86730BC
:102748007B680E229A617B68012283F824207B68CB
:1027580097F867201A777B6801221A627B68103322
:102768003B6607F10803396E1846FEF721FD02465D
:102778007B68DA607B68D86803234FF470620221B3
:10278800FEF728FE00BF6837BD4680BD003C00400C
:102798000008024080B582B000AF78607B680022F4
:1027A8001A707B68012283F828207B6800221A723D
:1027B8007B6801225A607B681846FFF797FF7B68A1
:1027C80001221A7200BF0837BD4680BD80B586B0A9
:1027D80002AF03463960FB803B68D86803234FF497
:1027E80070620221FEF7F6FD0346FB81FB89002B90
:1027F8000FD14FF480410948FFF76EFA3B68D8685B
:10280800B91D012301930123009301230122FEF73F
:10281800DCFE00BF1037BD4680BD00BF0008024087
:1028280080B586B002AF78607B681B78002B16D124
:102838007B6801221A707B685B68012B0FD17B686B
:102848001B7A002B0BD04FF0FF33FB607B68D868F6
:102858000E230093FB68FA68F968FFF7CDF800BF0C
:102868001037BD4680BD000080B59AB000AF7860D3
:102878007B6800221A727B6801225A600023BB62BF
:102888000023FB62254BBB60002387F84E300023F2
:102898003B6300237B63012387F84C30022387F8CE
:1028A8004D300023FB60002387F85C3000233B6138
:1028B800002387F85D307B6800221A617B68184A1C
:1028C8005A61012387F867307B680E229A617B681A
:1028D800012283F824207B6897F867201A777B68A1
:1028E8000F221A627B6810333B6607F10803396EC2
:1028F8001846FEF75DFC02467B68DA607B68D8689C
:1029080003234FF470620221FEF764FD7B68012205
:102918001A7200BF6837BD4680BD00BF003C00404A
:102928000008024080B582B000AF78607B68002262
:102938005A607B6800221A707B68012283F828207D
:102948007B681846FFF790FF00BF0837BD4680BD7B
:1029580080B58CB002AF78607B68D86803234FF4E9
:1029680070620221FEF736FD0346FB84FB8C002BC8
:1029780010D17B68D86807F108010123019301236E
:10298800009301230F22FEF7BFFE4FF48041034856
:10299800FFF794F900BF2837BD4680BD0008024004
:1029A80080B586B002AF78607B681B78002B16D1A3
:1029B8007B6801221A707B685B68012B0FD17B68EA
:1029C8001B7A002B0BD04FF0FF33FB607B68D86875
:1029D8000E230093FB68FA68F968FFF70DF800BF4B
:1029E8001037BD4680BD000080B59AB000AF786052
:1029F8000023BB620023FB62234BBB60002387F8E4
:102A08004E3000233B6300237B63012387F84C305F
:102A1800022387F84D300023FB60002387F85C30E1
:102A280000233B61002387F85D307B6800221A6130
:102A38007B68164A5A61012387F867307B680E2243
:102A48009A617B68012283F824207B6897F86720C5
:102A58001A777B6801221A627B6810333B6607F19C
:102A68000803396E1846FEF7A3FB02467B68DA6056
:102A78007B68D86803234FF470620221FEF7AAFC32
:102A880000BF6837BD4680BD003C004000080240DA
:102A980080B582B000AF78607B6800221A707B68CE
:102AA800012283F828207B6800221A727B680122A1
:102AB8005A607B681846FFF797FF7B6801221A72F5
:102AC80000BF0837BD4680BD80B586B002AF03465B
:102AD8003960FB803B68D86803234FF47062022199
:102AE800FEF778FC0346FB81FB89002B0FD14FF4DE
:102AF80080410948FFF7F0F83B68D868B91D012301
:102B080001930123009301230122FEF75EFD00BF1C
:102B18001037BD4680BD00BF0008024080B586B0B2
:102B280002AF78607B681B78002B16D17B68012286
:102B38001A707B685B68012B0FD17B681B7A002BAE
:102B48000BD04FF0FF33FB607B68D8680E230093EF
:102B5800FB68FA68F968FEF74FFF00BF1037BD46FB
:102B680080BD000000000000B0B584B000AF87ED64
:102B7800000B97ED000B09F0C3FB87ED020B97EDF7
:102B8800020B04F0F9FB0346002B06D197ED020B6C
:102B980004F0A2FB0346002B06D04FF000024FF0D2
:102BA8000003C7E9022307E09FED211B97ED020B05
:102BB80009F014F987ED020B4FF000024FF0000303
:102BC800D7E90201FDF70AFF0346002B12D0BC68C3
:102BD800FB6883F0004520462946FDF765FF03465C
:102BE8009BB25B429BB21BB21846FDF71BFC024628
:102BF8000B460BE0D7E90201FDF756FF03469BB2EF
:102C08001BB21846FDF70EFC02460B46D7E9000139
:102C1800FDF7BAFA02460B4643EC172BB0EE470A0B
:102C2800F0EE670A1037BD46B0BD00BFAFF30080B5
:102C3800000000000000F040B0B584B000AF87EDA0
:102C4800000B97ED000B09F0DFFB87ED020B97ED0A
:102C5800020B04F091FB0346002B06D197ED020B03
:102C680004F03AFB0346002B06D04FF000024FF069
:102C78000003C7E9022307E09FED211B97ED020B34
:102C880009F0ACF887ED020B4FF000024FF000039B
:102C9800D7E90201FDF7A2FE0346002B12D0BC685B
:102CA800FB6883F0004520462946FDF7FDFE0346F4
:102CB8009BB25B429BB21BB21846FDF7B3FB0246C0
:102CC8000B460BE0D7E90201FDF7EEFE03469BB287
:102CD8001BB21846FDF7A6FB02460B46D7E90001D2
:102CE800FDF752FA02460B4643EC172BB0EE470AA3
:102CF800F0EE670A1037BD46B0BD00BFAFF30080E5
:102D0800000000000000F040F0B58BB000AF87ED88
:102D1800020B87ED001BD7E90223C7E908234FF010
:102D280000024FF00003D7E90001FDF74DFE03460E
:102D3800002B10D04FF000024FF00003D7E902013A
:102D4800FDF742FE0346002B00F01281D7E900236D
:102D5800C7E908230CE197ED020B04F00DFB0346CD
:102D6800002B0DD197ED000B04F006FB0346002B5A
:102D780006D197ED020B04F0AFFA0346002B05D0FD
:102D8800814BD3E90023C7E90823F1E04FF00002A3
:102D98004FF00003D7E90201FDF716FE0346002BAA
:102DA8000CD0D7E900234FF000004FF00001FDF7E9
:102DB800CDFC02460B46C7E90823D9E097ED000B86
:102DC80004F08AFA0346002B29D001231C464FF051
:102DD80000024FF00003D7E90001FDF7FFFD0346AD
:102DE800002B01D100231C46E4B201231D464FF0FD
:102DF80000024FF00003D7E90201FDF7EFFD03469B
:102E0800002B01D100231D46EBB26340DBB2002B3F
:102E180000F0AE80D7E90023C7E90823A8E097EDC2
:102E2800001B97ED020B08F0D9FF87ED080B012373
:102E38001E464FF000024FF00003D7E90801FDF7E6
:102E4800C3FD0346002B01D100231E46F3B2FB77D6
:102E5800FB7F002B4ED197ED000B09F051FA53EC94
:102E6800102BD7E90001FDF7D7FD0346002B41D011
:102E7800D7E90023D7E90201FDF768FC02460B46B3
:102E88001146396123F000437B614FF000023F4B4C
:102E9800D7E90401FDF77AF902460B4643EC172BF4
:102EA800B0EE470AF0EE670A09F02AFA53EC102B45
:102EB800D7E90401FDF768F902460B46144623F0EA
:102EC80000454FF00002324BD7E90401FDF714FB2F
:102ED80002460B4601210E4620462946FDF79CFD79
:102EE8000346002B01D100231E46F3B283F00103F1
:102EF800DBB2FB77FB7F002B0CD04FF000024FF0CA
:102F08000003D7E90001FDF7F7FA02460B46C7E9C7
:102F180008232DE001231C464FF000024FF0000368
:102F2800D7E90201FDF75AFD0346002B01D1002322
:102F38001C46E4B201231D464FF000024FF0000387
:102F4800D7E90001FDF74AFD0346002B01D1002314
:102F58001D46EBB26340DBB2002B09D0D7E9002352
:102F6800D7E90801FDF712F902460B46C7E908231D
:102F7800D7E9082343EC172BB0EE470AF0EE670AAF
:102F88002C37BD46F0BD00BF000000200000E03F28
:102F98000000B03C80B59AB000AF78607B68002232
:102FA8001A727B6801225A600023BB620023FB620D
:102FB800254BBB60002387F84E3000233B6300237A
:102FC8007B63012387F84C30022387F84D300023B8
:102FD800FB60002387F85C3000233B61002387F8FF
:102FE8005D307B6800221A617B68184A5A610123A8
:102FF80087F867307B680E229A617B68012283F824
:1030080024207B6897F867201A777B6810221A6259
:103018007B6810333B6607F10803396E1846FEF7E4
:10302800C7F802467B68DA607B68D86803234FF4E8
:1030380070620221FEF7CEF97B6801221A7200BF86
:103048006837BD4680BD00BF003C00400008024014
:1030580080B59AB000AF78600023BB620023FB62A2
:10306800234BBB60002387F84E3000233B630023CB
:103078007B63012387F84C30022387F84D30002307
:10308800FB60002387F85C3000233B61002387F84E
:103098005D307B6800221A617B68164A5A610123F9
:1030A80087F867307B680E229A617B68012283F873
:1030B80024207B6897F867201A777B6801221A62B8
:1030C8007B6810333B6607F10803396E1846FEF734
:1030D8006FF802467B68DA607B68D86803234FF490
:1030E80070620221FEF776F900BF6837BD4680BDE1
:1030F800003C00400008024080B58CB002AF786008
:103108007B6800221A727B6801225A600023BB6127
:1031180000237B74184BFB6100233B620023BB74C4
:10312800002387F82430012387F825300123FB602A
:1031380001233B7407F10C000023009304230122B0
:10314800012108F089FC02467B68DA607B68DB684D
:10315800184608F029FD7B68DB680121184608F04D
:103168006FFC7B6801221A727B6800225A7200BFCA
:103178002837BD4680BD00BF0021014080B58CB016
:1031880002AF78607B6800221A727B6801225A605D
:103198000023BB6100237B74184BFB6100233B6257
:1031A8000023BB74002387F82430012387F82530D7
:1031B8000123FB6001233B7407F10C0000230093FB
:1031C80004230122012108F047FC02467B68DA60EB
:1031D8007B68DB68184608F0E7FC7B68DB68012140
:1031E800184608F02DFC7B6801221A727B680022C1
:1031F8005A7200BF2837BD4680BD00BF002201407B
:1032080080B5A6B000AF78601D4BBB6000233B7350
:1032180000237B7307F10803184608F0C7F9024634
:103228007B68DA607B68DB680021184607F01AFFC4
:103238007B68DB680421184608F048F87B68DB687F
:103248000421184608F0BAF87B68DB6804211846A0
:1032580008F02CF97B68DB681846FEF794FD0346F6
:1032680087F8973097F89730002B05D17B68DB6893
:1032780000211846FEF79EFD00BF9837BD4680BD69
:103288000004014080B58CB002AF78607B680022F2
:103298001A727B6801225A600023BB6100237B7489
:1032A800184BFB6100233B620023BB74002387F8A3
:1032B8002430012387F825300123FB6001233B7468
:1032C80007F10C000023009304230122012108F0D8
:1032D800C3FB02467B68DA607B68DB68184608F047
:1032E80063FC7B68DB680121184608F0A9FB7B6852
:1032F80001221A727B6800225A7200BF2837BD4625
:1033080080BD00BF002001402DE9B04FE0B002AF02
:10331800B14B93F8F831012B10D1AF4BD3F8C8312A
:1033280001331846FDF76EF8AB4BD3E97423AA4C6A
:10333800FDF7E2F802460B46C4E90823A64B93F8CA
:10334800F831002B0AD1A44BD3F884301A68A24B69
:10335800D3F8FC11D2E90023C1E900239E4B93F86E
:10336800F831012B06D19C4BB3F8E431002B01D185
:10337800012300E0002387F8E13097F8E130002BC3
:1033880000F06882954BB3F8F02147F6FE739A4235
:1033980007D8924BB3F8F03101339BB28F4AA2F8A9
:1033A800F0318E4BB3F8F22141F6FE739A4207D8FA
:1033B8008A4BB3F8F23101339BB2884AA2F8F23152
:1033C800864B93F8FE31002B28D1844A012382F8DA
:1033D800FE31824A0023A2F8F031804A012382F8A4
:1033E800FF317E494FF000024FF00003C1E9782316
:1033F8007A4A0023A2F8F231784A032382F800328D
:1034080076494FF00002764BC1E9762375494FF0B3
:1034180000024FF00003C1E91C231BE26F4B93F835
:10342800FF31013B072B00F2FB8001A252F823F089
:103438005934000887340008C1340008FB340008F8
:10344800353500086F350008A7350008F135000844
:10345800624BB3F8F02144F61F639A4240F20281AE
:103468005E4A0023A2F8F0315C4A022382F8FF3159
:103478005C494FF000025A4BC1E92223F2E0594956
:103488004FF00002564BC1E92223544BB3F8F031F8
:10349800B3F5FA6FC0F0E880504A0023A2F8F03183
:1034A8004E4A042382F8FF314E494FF000024FF094
:1034B8000003C1E92223D7E04A494FF000024FF048
:1034C8000003C1E92C23454BB3F8F031B3F5FA6F8B
:1034D800C0F0CC80414A0023A2F8F0313F4A0223D1
:1034E80082F8FF313F494FF000023D4BC1E92223EA
:1034F800BCE03C494FF000024FF00003C1E9222331
:10350800364BB3F8F031B3F5FA6FC0F0B180334AF7
:103518000023A2F8F031314A052382F8FF313149FE
:103528004FF000022E4BC1E92423A1E02D494FF0B2
:1035380000022B4BC1E92423284BB3F8F031B3F533
:10354800FA6FC0F09780254A0023A2F8F031234A89
:10355800062382F8FF3123494FF000024FF00003A1
:10356800C1E9242386E01F494FF000024FF0000311
:10357800C1E92423194BB3F8F031B3F5FA6F7BD3C3
:10358800164A0023A2F8F031144A072382F8FF31C3
:1035980014494FF00002124BC1E92A236CE011498B
:1035A8004FF000020E4BC1E92A230C4BB3F8F0315F
:1035B800B3F5FA6F62D3094A0023A2F8F031074A3B
:1035C800082382F8FF3107494FF000024FF000034B
:1035D800C1E92A2352E000BF18070020A8020020F2
:1035E8000000F03FB8010020A0494FF000024FF062
:1035F8000003C1E92A239E4BB3F8F031B3F5FA6F03
:103608003ED39B4A0023A2F8F031994A092382F855
:10361800FF3196494FF00002964BC1E92C232FE069
:1036280092494FF00002934BC1E92C23904BB3F819
:10363800F031B3F5FA6F25D38D4A0023A2F8F031A3
:103648008B4A032382F8FF3188494FF000024FF07C
:103658000003C1E92C2386494FF00002854BC1E9DC
:1036680078230FE000BF0EE000BF0CE000BF0AE0C7
:1036780000BF08E000BF06E000BF04E000BF02E0B2
:1036880000BF00E000BF7A4B93F80032013B052BE6
:1036980000F2B38001A252F823F000BFBD36000843
:1036A800D73600080F3700085F3700089937000839
:1036B800D13700086D494FF000026E4BC1E926234F
:1036C8006A494FF000026B4BC1E92823C2E0674901
:1036D8004FF00002674BC1E91C23654BB3F8F23188
:1036E800B3F57A6FC0F0AD80614A0023A2F8F231D9
:1036F8005F4A042382F800325C494FF000025D4BB8
:10370800C1E920239DE059494FF000024FF0000322
:10371800C1E91C23564BD3E976014FF00002554B03
:10372800FDF752F90346002B00D18CE0504BB3F85B
:10373800F231272B40F287804D4A0023A2F8F2315C
:103748004B4A022382F8003248494FF00002494BA5
:10375800C1E91C2377E045494FF00002454BC1E918
:103768002023434BB3F8F22141F287339A426CD9B4
:103778003F4A0023A2F8F2313D4A052382F800327D
:103788003A494FF000024FF00003C1E920235CE002
:1037980036494FF000024FF00003C1E92023344BB3
:1037A800B3F8F231B3F57A7F51D3314A0023A2F846
:1037B800F2312F4A062382F800322C494FF00002DA
:1037C8002C4BC1E91E2342E028494FF00002294B47
:1037D800C1E91E23264BB3F8F22140F6B7339A42CB
:1037E80037D9234A072382F8003220494FF00002D4
:1037F8004FF00003C1E91E232BE01C494FF00002E3
:103808004FF00003C1E91E23194BD3E978014FF0AB
:103818000002184BFDF7D8F80346002B00D119E039
:10382800134A012382F8003210494FF00002114B6D
:10383800C1E926230D494FF000020E4BC1E92823A8
:1038480008E000BF06E000BF04E000BF02E000BFE0
:1038580000E000BF084B93F8F831012B0ED1064B5E
:10386800B3F8E231002B09D1012308E0B8010020A8
:10387800A80200200000F03F18070020002387F866
:10388800E03097F8E030002B00F008818E4BD3E948
:103898001C014FF000024FF00003FDF795F80346B6
:1038A800002B40F08A80884BD3E91E014FF00002BC
:1038B8004FF00003FDF788F80346002B7DD1834BBA
:1038C800D86803234FF470620221FDF783FD034695
:1038D800194607F5BC73A3F59E720B46138007F5CE
:1038E800BC73A3F59E731B88002B10D1774BD86847
:1038F80007F14001012301930123009301231022C2
:10390800FDF702FF4FF480417148FEF7D7F9002018
:10391800FEF750FD0346194607F5BC73A3F59E72E2
:103928000B4613800320FEF753FD0346194607F59F
:10393800BC73A3F59D720B46138007F5BC73A3F502
:103948009E731A8807F5BC73A3F59D731B881343F0
:103958009AB2604BB3F89030134399B207F5BC7331
:10396800A3F59D720B461380584BD86D03234FF473
:1039780070620221FDF72EFD0346194607F5BC7358
:10398800A3F59E720B46138007F5BC73A3F59E73CF
:103998001B88002B11D14FF480414D48FEF79CF94C
:1039A8004A4BD86D07F13E014FF47A730193012316
:1039B800009301230122FDF708FE434BD3E91C01C4
:1039C8004FF000024FF00003FCF7FEFF0346002B08
:1039D80064D13D4BD3E920014FF000024FF00003C2
:1039E800FCF7F2FF0346002B58D10020FEF7E2FC5B
:1039F8000346194607F5BC73A3F59E720B46138060
:103A08000220FEF7E5FC0346194607F5BC73A3F54B
:103A18009D720B46138007F5BC73A3F59E731A8835
:103A280007F5BC73A3F59D731B8813439AB2294B02
:103A3800B3F88E30134399B207F5BC73A3F59D72A2
:103A48000B461380214B586B03234FF470620221FD
:103A5800FDF7C0FC0346194607F5BC73A3F59E7233
:103A68000B46138007F5BC73A3F59E731B88002BC8
:103A780010D14FF480411648FEF72EF9134B586BBE
:103A880007F13E010A230193012300930123012238
:103A9800FDF79BFD10491148FEF71CFD97F8E13032
:103AA800002B00F0B8800E4BDB681B78012B04D08C
:103AB8000B4B93F8FC30002B14D0094B93F80C31C6
:103AC800002B0FD101230EE0B8010020A80200202E
:103AD8000008024030E00008CC06002078020020F0
:103AE80018070020002387F8E13097F8E130002B11
:103AF80013D0B24BD3E9220101231C464FF0000238
:103B08004FF00003FCF788FF0346002B01D1002388
:103B18001C46E3B2AA4A82F80E32A94B93F80E3239
:103B2800002B2DD0A748FEF713FF0120FEF742FC1B
:103B38000346194607F5BC73A3F59E720B4613801E
:103B48000020FEF745FC0346194607F5BC73A3F5AC
:103B58009D720B46138007F5BC73A3F59E731A88F4
:103B680007F5BC73A3F59D731B8813439AB2964B54
:103B7800B3F8883013439BB294491846FEF7A4FF64
:103B880097F8E130002B13D08C4BD3E924010123A3
:103B98001C464FF000024FF00003FCF73DFF0346C0
:103BA800002B01D100231C46E3B2854A82F80D326E
:103BB800834B93F80D32002B2DD08548FEF7C8FEB5
:103BC8000120FEF7F7FB0346194607F5BC73A3F57A
:103BD8009D720B4613800120FEF7FAFB0346194637
:103BE80007F5BC73A3F59E720B46138007F5BC73EB
:103BF800A3F59D731A8807F5BC73A3F59E731B88FC
:103C080013439AB2704BB3F8863013439BB2714991
:103C18001846FEF759FF97F8E030002B00F0C280F5
:103C2800664BD3E924014FF000024FF00003FCF784
:103C3800F3FE0346002B0DD0614A012382F81032AF
:103C480065496648FEF746FC65494FF41040FEF7A3
:103C5800BDFD0CE05A4B93F81032002B07D0574AA1
:103C68000023A2F8BE30564A002382F81032534B84
:103C7800D3E922014FF000024FF00003FCF7CCFE1D
:103C88000346002B2DD05748FEF7E4FC0120FEF731
:103C980091FB0346194607F5BC73A3F59E720B46C4
:103CA80013800220FEF794FB0346194607F5BC7300
:103CB800A3F59D720B46138007F5BC73A3F59E739D
:103CC8001A8807F5BC73A3F59D731B8813439AB232
:103CD8003D4BB3F88C3013439BB243491846FEF76B
:103CE80075FD364BD3E92A014FF000024FF000036F
:103CF800FCF792FE0346002B2DD03C48FEF7AAFCA9
:103D08000120FEF757FB0346194607F5BC73A3F5D8
:103D18009D720B4613800320FEF75AFB0346194693
:103D280007F5BC73A3F59E720B46138007F5BC73A9
:103D3800A3F59D731A8807F5BC73A3F59E731B88BA
:103D480013439AB2204BB3F88A3013439BB22849E5
:103D58001846FEF73BFD194BD3E92C014FF0000242
:103D68004FF00003FCF758FE0346002B0DD0144A11
:103D7800012382F80F321F491F48FEF7ABFB1F498A
:103D88004FF41840FEF722FD0CE00D4B93F80F326C
:103D9800002B07D0094A0023A2F8BC30084A0023A8
:103DA80082F80F32164B93F8F831012B2AD1144BB5
:103DB800B3F8E431002B25D1012324E0B801002019
:103DC800A80200204005002030E00008140500206B
:103DD800E8040020BC0400204806002076020020E9
:103DE8001C060020A006002074060020F005002014
:103DF800C405002098050020740200206C050020EE
:103E080018070020002387F8E13097F8E130002BED
:103E180013D09D4BD3E9260101231C464FF0000225
:103E28004FF00003FCF7F8FD0346002B01D10023F7
:103E38001C46E3B2954A82F81232944B93F8123238
:103E4800002B1BD0924B93F8F831012B16D1904BD5
:103E5800B3F8E231002B11D18C4B93F8A130002B31
:103E680003D08A4A002382F8A130884BD3F8A400F3
:103E780007F13C031A46042107F0ABFE97F8E1303E
:103E8800002B13D0804BD3E9280101231C464FF0A7
:103E980000024FF00003FCF7BFFD0346002B01D1E1
:103EA80000231C46E3B2794A82F81132774B93F823
:103EB8001132002B1BD0764B93F8F831012B16D119
:103EC800734BB3F8E231002B11D1704B93F891305A
:103ED800002B03D06D4A002382F891306B4BD3F846
:103EE800940007F13C031A46042107F072FE97F884
:103EF800E030002B3AD0674BC7F8DC300023C7F816
:103F0800D830614BD3E91C014FF000024FF0000399
:103F1800FCF75AFD0346002B04D14FF48053C7F831
:103F2800E43002E00023C7F8E430D7F8E420D7F8FB
:103F3800D83002FA03F3C7F8E4304FF48052D7F8C8
:103F4800D83002FA03F3C7F8D430D7F8E410D7F81A
:103F5800DC00FDF7B3FED7F8E430DA43D7F8D43005
:103F680013401946D7F8DC00FDF7B6FE484B93F826
:103F7800F831012B06D1464BB3F8E031002B01D1C3
:103F8800012300E0002387F8E13097F8E130002BA7
:103F980000F0A084404BC7F8D0303C4BD3F8C02089
:103FA8003E4BB3F884301946104607F051FBC7F86A
:103FB800E400364BD3F8C030D7F8E4101846FDF7C4
:103FC8009AFE0423C7F8D830344B93F89230002B6C
:103FD80006D0D7F8D810D7F8D000FDF7CAFD05E00D
:103FE800D7F8D810D7F8D000FDF7D4FD274BD3F871
:103FF800C0202A4BB3F884301946104607F028FB36
:10400800C7F8E400214BD3F8C030D7F8E4101846BD
:10401800FDF789FE4023C7F8D830204B93F892303B
:10402800002B06D0D7F8D810D7F8D000FDF7A1FD9F
:1040380005E0D7F8D810D7F8D000FDF7ABFD134B43
:10404800D3F8C020154BB3F884301946104607F052
:10405800FFFAC7F8E4000D4BD3F8C030D7F8E410E6
:104068001846FDF778FE4FF48063C7F8D8300B4B3D
:1040780093F89230002B13D0D7F8D810D7F8D00087
:10408800FDF777FD12E000BFB8010020A80200206C
:1040980018070020000402400004014030E0000836
:1040A800D7F8D810D7F8D000FDF774FDB84BD3F87F
:1040B800C020B84B93F8923019461046FDF7E4FE3D
:1040C800B34BD3E93245B24BD3E93201B04BD3E914
:1040D8003423FCF75BF802460B4610461946AC4BF6
:1040E800D3E93623FCF752F802460B461046194628
:1040F8009DA3D3E90023FCF7FFF902460B462046AF
:104108002946FCF741F802460B46C7E93C23A04B79
:10411800D3E934019E4BD3E93623FCF735F8024640
:104128000B461046194692A3D3E90023FCF7E4F99D
:1041380002460B46C7E93E23974B1B78012B04D157
:10414800934A4FF00003C2F8E831934A00231370F2
:104158008F4BD3F8E8311846FCF776F986A3D3E9F4
:104168000023FCF7C9F902460B46C7E94223884BEE
:10417800D3E93A0182A3D3E90023FCF7BDF902464B
:104188000B46C7E93223824BD3E938017CA3D3E934
:104198000023FCF7B1F902460B46C7E93023D7F8EC
:1041A80008313B63D7F80C3183F000437B63D7E9D0
:1041B8003223D7E90C01FCF79FF902460B4610465B
:1041C8001946D7E93023FBF7DFFF02460B46C7E95C
:1041D8002E23D7E94223D7E93001FCF78DF90246AF
:1041E8000B4610461946D7E93223FBF7CDFF0246A6
:1041F8000B46C7E93023664BD3F8E8311846FCF77D
:1042080023F95DA3D3E90023FCF776F902460B46B0
:10421800C7E932235E4BD3E93C01D7E93223FCF7E7
:104228006BF902460B4610461946594BD3E93E2313
:10423800FBF7AAFF02460B46C7E94223D7F8C83066
:10424800BB62D7F8CC3083F00043FB62504BD3E914
:104258003E23D7E90A01FCF74FF902460B46104600
:1042680019464B4BD3E93C23FBF78EFF02460B461E
:10427800C7E9482342A3D3E90023D7E94801FCF75B
:104288003BF902460B46C7E92C233DA3D3E900239B
:10429800D7E94201FCF730F902460B46C7E92A2361
:1042A800D7E93223D7E92A01FCF726F902460B465B
:1042B800D7E92C01FBF76AFF02460B46C7E95223F0
:1042C800334BD3E93E0130A3D3E90023FCF714F9BB
:1042D80002460B46C7E950232D4BD3E93C452C4BEE
:1042E800D3F8E8311846FCF7AFF802460B462046EB
:1042F8002946FCF701F902460B46104619464FF0CD
:1043080000024FF00003FCF7F7F802460B46D7E926
:104318005001FBF73BFF02460B46C7E95023D7F88D
:10432800C8303B62D7F8CC3083F000437B62D7E9D2
:104338000823D7E95001FCF7DFF802460B46C7E926
:104348002823134BD3E93E45114BD3F8E8311846DF
:10435800FCF77AF802460B4620462946FCF7CCF8CB
:104368001CE000BFAFF30080555555555555D53F56
:104378001D339045A779E23F00000040BF7D5DBF37
:10438800C7711CC7715C8140E3388EE3388E34C036
:10439800A802002030E00008F806002002460B467C
:1043A800904683F000494FF000024FF0000340466A
:1043B8004946FCF7A1F802460B4614461D46C04B79
:1043C800D3E93C01B0A3D3E90023FCF795F80246F2
:1043D8000B4620462946FBF7D9FE02460B46C7E99D
:1043E8004C23D7E93223D7E94C01FCF785F802467C
:1043F8000B4610461946D7E95023FBF7C5FE02467F
:104408000B46C7E95023AF4B5B78012B0DD1AC4964
:104418004FF000024FF00003C1E94823A8494FF0CC
:1044280000024FF00003C1E94A23A64B00225A704C
:10443800A34BD3E94823C7E94623A14BD3E94A2331
:10444800C7E926239E4BD3F8E8311846FBF7FCFF53
:10445800D7E94223FCF750F802460B46924683F010
:10446800004BD7E9522350465946FBF78DFE0246CA
:104478000B4614461D46D7E94C23D7E92801FBF71C
:1044880083FE02460B4620462946FBF77DFE024680
:104498000B4610461946D7E92E23FBF775FE024650
:1044A8000B46104619467AA3D3E90023FCF724F8F3
:1044B80002460B4610461946D7E94623FBF766FE27
:1044C80002460B461046194673A3D3E90023FCF7AE
:1044D80013F802460B467A49C1E94823784BD3F8CA
:1044E800E8311846FBF7B0FFD7E94823FCF704F892
:1044F80002460B4614461D46D7F8B030BB61D7F8C4
:10450800B43083F00043FB61D7E93223D7E90601D1
:10451800FBF7F2FF02460B4610461946D7E92A2355
:10452800FBF734FE02460B4620462946FBF72CFED5
:1045380002460B4610461946D7E95023FBF724FEDE
:1045480002460B4610461946D7E93023FBF71CFEF6
:1045580002460B46104619464DA3D3E90023FBF744
:10456800CBFF02460B4610461946D7E92623FBF730
:104578000DFE02460B461046194647A3D3E9002311
:10458800FBF7BAFF02460B464D49C1E94A234C4B9B
:1045980093F80132002B0DD049494FF000024FF03B
:1045A8000003C1E94C2346494FF000024FF00003D5
:1045B800C1E94E23424BD3E94801D7E94823FBF729
:1045C800E5FD02460B461046194635A3D3E90023FC
:1045D800FBF792FF02460B461046194632A3D3E971
:1045E8000023FBF789FF02460B4614461D46344B51
:1045F800D3E94C012EA3D3E90023FBF77DFF024644
:104608000B4620462946FBF7C1FD02460B46C7E983
:1046180020232B4BD3E94A01D7E94223FBF7B6FD08
:1046280002460B46104619461DA3D3E90023FBF7A3
:1046380063FF02460B46104619461BA3D3E9002325
:10464800FBF75AFF02460B4614461D461C4BD3E99E
:104658004E0117A3D3E90023FBF74EFF02460B4692
:1046680020462946FBF792FD02460B46C7E922235E
:10467800D7E9200110A3D3E90023FCF7C3F90346C7
:10468800002B3AD120E000BFE3388EE3388E34C0E7
:104698002D431CEBE2360A3F2AF259379822EF3FA6
:1046A800555555555555953FE0E749E82377E63F79
:1046B80040306C2FB811D33F7B14AE47E17A943F5A
:1046C800A8020020F8060020D7E9200101231C4693
:1046D80099A3D3E90023FCF78BF90346002B01D1FA
:1046E80000231C46E3B283F00103DBB2002B06D0A3
:1046F800934B93F80232002B01D0012300E00023F2
:10470800DAB28F4B83F80222D7E9220188A3D3E9D2
:104718000023FCF777F90346002B18D1D7E92201CB
:1047280001231C4684A3D3E90023FCF761F903465F
:10473800002B01D100231C46E3B283F00103DBB256
:10474800002B06D07E4B93F80332002B01D00123B7
:1047580000E00023DAB27A4B83F80322794BDB6856
:104768001B78012B04D0774B93F8FC30002B3BD0FF
:10477800744B93F80C31002B36D1714B93F80232FD
:10478800002B12D0704BDB7A012B0ED06C4B93F8B8
:104798000332002B05D06D4B4FF6FF72A3F8B820FB
:1047A80003E06A4B0122A3F8B820654B93F8022274
:1047B800654BDA72654BB3F9B830002BD4BF0123CF
:1047C8000023DBB25AB25E4B83F8F421604BD3F876
:1047D8008030012B04D15A4B002283F8F52103E0E5
:1047E800574B012283F8F521554B93F9F431002BEF
:1047F8000DD1D7E920231146C7F8081183F00043EB
:10480800C7F80C31D7E92223C7E948230CE0D7E9D8
:1048180022231146C7F8201183F00043C7F824313A
:10482800D7E92023C7E94223454B93F9F531002BFB
:104838000ED146494FF000024FF00003C1E90023B2
:1048480042494FF000024FF00003C1E9022309E09A
:104858003E49D7E94223C1E900233C49D7E9482327
:10486800C1E90223394BD3E90001384BD3E90023CE
:10487800FBF742FE02460B46C7E94223334BD3E916
:104888000201324BD3E90223FBF736FE02460B4600
:10489800C7E95023D7E95023D7E94201FBF776FC53
:1048A80002460B462949C1E90423284BD3E90401F0
:1048B80001231C464FF000024FF00003FCF7ACF850
:1048C8000346002B01D100231C46E3B21A461F4BB6
:1048D80083F8BA201A4B93F8F63187F8E230194B6F
:1048E800DB681B78012B04D0164B93F8FC30002BA7
:1048F80006D0144B93F80C31002B01D1012300E0B2
:10490800002387F8E03097F8E030002B22D00F4BD7
:1049180093F8BA30002B0CBF01230023DBB287F8D1
:10492800E330074A97F8E33082F8F63117E000BF22
:104938007B14AE47E17A943F7B14AE47E17A94BF8B
:10494800A802002018070020F8060020B80100205F
:1049580030E000082B4B93F8F63187F8E33097F9ED
:10496800E22097F9E3309A4202D0274B01225A7687
:1049780097F9E330002B2AD1244B93ED047BB0EE5A
:10498800470AF0EE670A07F05FFA87ED4C0BD7E9A4
:104998004C234FF000001E49FBF7D8FE02460B4699
:1049A80010461946194BD3E90223FBF7A5FD024629
:1049B8000B46C7E94823154BD3E90001D7E94C2337
:1049C800FBF7C4FE02460B46C7E94C2309E00F4B30
:1049D800D3E90023C7E94C230C4BD3E90223C7E9E9
:1049E800482397F8E130002B00F0F28697F8E03082
:1049F800002B0FD0012387F8E330024B012283F804
:104A0800F7210CE0A802002018070020B8010020B8
:104A18000000F03FA44B93F8F73187F8E33097F99B
:104A2800E330002B40F046819F4B93F80B32002B6C
:104A380006D09D494FF000024FF00003C1E96A23F8
:104A48008FA3D3E90023D7E94801FBF755FD0246B8
:104A58000B4614461D46944BD3E96A018AA3D3E951
:104A68000023FBF749FD02460B4620462946FBF783
:104A78008DFB02460B468C49C1E96A238B4BDB79D7
:104A8800012B06D188494FF000024FF00003C1E91D
:104A98006C23864B0022DA71844B1B7A012B06D1DA
:104AA80081494FF000024FF00003C1E96E237F4BAC
:104AB80000221A727C4BD3E96A017B4BD3E96C2341
:104AC800FBF764FB02460B461046194670A3D3E970
:104AD8000023FBF711FD02460B4614461D46724B98
:104AE800D3E96E016CA3D3E90023FBF705FD024669
:104AF8000B4620462946FBF749FB02460B466A4906
:104B0800C1E96E23684B93F80C32002B06D0664936
:104B18004FF000024FF00003C1E9702358A3D3E916
:104B28000023D7E94C01FBF7E7FC02460B46144685
:104B38001D465D4BD3E9700153A3D3E90023FBF76E
:104B4800DBFC02460B4620462946FBF71FFB0246C4
:104B58000B465549C1E97023544B5B7A012B06D1AA
:104B680051494FF000024FF00003C1E972234F4B47
:104B780000225A724D4B9B7A012B06D14A494FF0BD
:104B880000024FF00003C1E97423484B00229A72D7
:104B9800454BD3E97001444BD3E97223FBF7F6FA8E
:104BA80002460B461046194639A3D3E90023FBF702
:104BB800A3FC02460B4614461D463B4BD3E9740141
:104BC80035A3D3E90023FBF797FC02460B462046A2
:104BD8002946FBF7DBFA02460B463349C1E9742341
:104BE800314BD3E96E01D7E94C23FBF785FC02462C
:104BF8000B4614461D462C4BD3E97401D7E94823CC
:104C0800FBF77AFC02460B4620462946FBF7BCFA1E
:104C180002460B464FF000002549FBF797FD024678
:104C28000B46C7E94E23D7F838313B61D7F83C31FA
:104C380023F000437B611AA3D3E90023D7E90401D9
:104C4800FBF7EAFE0346002B05D04FF000024FF0B9
:104C58000003C7E94E23144B002283F80B22124BA2
:104C6800D3E96A231049C1E96C230F4B002283F86A
:104C78000C220D4BD3E970230B49C1E9722328E1BB
:104C8800D639DA5FB09BEE3FA0625C02FA44A63FD9
:104C9800E14D71282928FA3E229FBC7B0CDCEF3FAE
:104CA80088414182C979F540A8020020F806002011
:104CB8000000F03FAE4B93F80932002B06D0AC4908
:104CC8004FF000024FF00003C1E95E239CA3D3E933
:104CD8000023D7E94801FBF70FFC02460B461446B0
:104CE8001D46A34BD3E95E0197A3D3E90023FBF745
:104CF80003FC02460B4620462946FBF747FA0246C4
:104D08000B469B49C1E95E23994BD3E95E0190A309
:104D1800D3E90023FBF7F0FB02460B46C7E9422321
:104D2800944BDB78012B06D191494FF000024FF0EC
:104D38000003C1E960238F4B0022DA708D4B1B7989
:104D4800012B06D18A494FF000024FF00003C1E958
:104D58006223884B00221A71854BD3E96201D7E997
:104D68004223FBF713FA02460B4610461946804BBE
:104D7800D3E96023FBF708FA02460B4610461946AA
:104D880075A3D3E90023FBF7B7FB02460B46784926
:104D9800C1E96223774B5B79012B06D174494FF047
:104DA80000024FF00003C1E96423724B00225A71DC
:104DB8006F4BD3E96423C7E94E236E4B9B79012BD4
:104DC80006D16B494FF000024FF00003C1E966239A
:104DD800684B00229A71664B93F80A32002B06D072
:104DE80063494FF000024FF00003C1E9682354A360
:104DF800D3E90023D7E94C01FBF77EFB02460B46BB
:104E080014461D465A4BD3E968014FA3D3E9002342
:104E1800FBF772FB02460B4620462946FBF7B6F91C
:104E280002460B465249C1E96823514BD3E9680150
:104E380047A3D3E90023FBF75FFB02460B464C4927
:104E4800C1E964234A4BD3E96601494BD3E964239A
:104E5800FBF79CF902460B4610461946D7E94E2344
:104E6800FBF792F902460B46104619463AA3D3E9D6
:104E78000023FBF741FB02460B463D49C1E9662387
:104E88003B4BD3E96601D7E94823FBF735FB0246DC
:104E98000B4614461D46364BD3E96201D7E94C232D
:104EA800FBF72AFB02460B4620462946FBF76CF91E
:104EB80002460B46C7E94E232D4B002283F80922F0
:104EC8002B49D7E94223C1E96023294B002283F803
:104ED8000A2223A3D3E90023C7E95023D7E95023A3
:104EE800C7E94623224B93F80432002B06D0204909
:104EF8004FF000024FF00003C1E950231C4BD3E9E7
:104F08005023C7E95023D7E94623D7E95001FBF7D7
:104F1800F3FA02460B46C7E9502313A3D3E900234B
:104F2800D7E94E01FBF7E8FA02460B46D7E95001EC
:104F3800FBF72CF902460B46C7E95C231CE000BFCF
:104F4800D639DA5FB09BEE3FA0625C02FA44A63F16
:104F580033FBC26D25C740411ED52B063375823FF2
:104F68006B6798C193D9EF3F6C4ACC331F36733FB8
:104F7800A8020020F80600208F4B9B78012B06D151
:104F88008E494FF000024FF00003C1E952238A4BCB
:104F980000229A7097F8E030002B17D0874BD3E99E
:104FA800522310461946FBF79FFD07EE900AF5EECF
:104FB800C07AF1EE10FA4CBF01230023DBB283F074
:104FC8000103DBB25AB27D4B83F8F8217B4B93F98E
:104FD800F831002B5AD1794BD3E9522310461946A0
:104FE800FBF782FD034600EE103A07F045FA87ED1D
:104FF8003B0A97ED3B0A02F0D4F90346002B06D191
:1050080097ED3B0A02F096F90346002B04D04FF0C7
:105018000003C7F8EC3007E0DFED690A97ED3B0ABB
:1050280006F0D2FF87ED3B0A644BD3E952231046C2
:105038001946FBF759FD07EE100AD7ED3B7AF5EE56
:10504800C07AF1EE10FA10D5D7ED3B7AF1EE677A17
:10505800FCEEE77A17EE903A9BB25B429BB21BB22A
:1050680007EE903AF8EEE77A0BE0D7ED3B7AFCEEE4
:10507800E77A17EE903A9BB21BB207EE903AF8EE39
:10508800E77A77EE677AC7ED3A7A59E04B4BD3E97E
:10509800522310461946FBF727FD034600EE103A47
:1050A80007F034FA87ED3B0A97ED3B0A02F079F9ED
:1050B8000346002B06D197ED3B0A02F03BF9034665
:1050C800002B04D04FF00003C7F8EC3007E0DFED09
:1050D8003C0A97ED3B0A06F077FF87ED3B0A374B12
:1050E800D3E9522310461946FBF7FEFC07EE100AD7
:1050F800D7ED3B7AF5EEC07AF1EE10FA10D5D7ED80
:105108003B7AF1EE677AFCEEE77A17EE903A9BB2BB
:105118005B429BB21BB207EE903AF8EEE77A0BE0DF
:10512800D7ED3B7AFCEEE77A17EE903A9BB21BB2CA
:1051380007EE903AF8EEE77A77EE677AC7ED3A7AB3
:10514800D7ED3A7A9FED1F7A67EE877AC7ED3A7AFC
:1051580097ED3A0A07F0DAF987ED3B0A97ED3B0A33
:1051680002F01FF90346002B06D197ED3B0A02F027
:10517800E1F80346002B04D04FF00003C7F8EC30E9
:1051880007E0DFED0F0A97ED3B0A06F01DFF87EDFC
:105198003B0AD7ED3B7AF5EEC07AF1EE10FA13D55B
:1051A800D7ED3B7AF1EE677AFCEEE77A17EE903AA4
:1051B8009BB25B429BB20EE0F8060020A8020020DA
:1051C8000000804700004844D7ED3B7AFCEEE77AC0
:1051D80017EE903A9BB207F5BC72A2F59E72138047
:1051E80007F5BC73A3F59E731B8807EE903AF8EE9B
:1051F800677A97ED3A7A77EE677AC7ED3B7A07F5E3
:10520800BC73A3F59E731B88C933B94A03F2D473E0
:105218009B00134493ED007A07F5BC73A3F59E73C6
:105228001B88C833B24A03F2D4739B001344D3EDEE
:10523800007A37EE677AD7ED3B7A27EE277A07F5BB
:10524800BC73A3F59E731B88C833A94A03F2D473B1
:105258009B001344D3ED007A77EE277A17EE900A75
:10526800FBF7F2F8D7E94C23FBF746F902460B4661
:1052780014461D4607F5BC73A3F59E731B880133BE
:105288009B4A03F2D4739B00134493ED007A07F50D
:10529800BC73A3F59E731B88954A03F2D4739B00D5
:1052A8001344D3ED007A37EE677AD7ED3B7A27EED1
:1052B800277A07F5BC73A3F59E731B888C4A03F203
:1052C800D4739B001344D3ED007A77EE277A17EE58
:1052D800900AFBF7B9F8D7E94823FBF70DF902461E
:1052E8000B4620462946FAF74FFF02460B46C7E908
:1052F8004223804B93F9F931002B06D07D494FF0BA
:1053080000024FF00003C1E954234FF000027A4B2A
:10531800D7E94201FBF7F0F802460B46104619465A
:10532800744BD3E95423FAF731FF02460B4673490D
:10533800C1E906234FF00002714BD7E94201FBF7A0
:10534800DBF802460B46104619466C4BD3E9062398
:10535800FAF71CFF02460B46D7E95C01FAF716FF7D
:1053680002460B46C7E9422359A3D3E90023D7E9EC
:105378004201FBF7C1F802460B46C7E950235D4BD3
:1053880093F80532002B0CD0D7E950234FF00000DA
:105398004FF00001FAF7F8FE02460B465549C1E9FD
:1053A8005623544BD3E95623D7E95001FAF7EEFEBA
:1053B80002460B46C7E95A2301231C464FF0000258
:1053C8004FF00003D7E95A01FBF726FB0346002BF1
:1053D80001D100231C46E3B283F00103DBB2002BAA
:1053E8000AD04FF00002474BD7E95A01FAF7CEFE30
:1053F80002460B46C7E95A234FF00002414BD7E952
:105408005A01FBF7FFFA0346002B0AD04FF00002BF
:105418003C4BD7E95A01FAF7B7FE02460B46C7E9F3
:105428005A233449D7E95A23C1E95223314BD3E9E6
:10543800520129A3D3E90023FBF75EF802460B4685
:1054480010461946FBF750FB03461846FAF7FCFFCF
:1054580002460B46C7E950239FED211B97ED500BE1
:10546800FDF752FC87ED500B1FA3D3E90023D7E9C2
:105478005001FBF741F802460B46C7E94E2397F85F
:10548800E030002B16D001231C464FF000024FF0ED
:105498000003D7E94E01FBF7A1FA0346002B01D11F
:1054A80000231C46E3B283F00103DBB25AB2114B6E
:1054B80083F8FA210F4B93F9FA31002B24D197ED99
:1054C8004E0BFDF751FB87ED520B23E0AFF3008045
:1054D8008248E07048B0E03E182D4454FB21194042
:1054E80054E3A59BC420194083C8C96D305FC43FED
:1054F800C8E00008A802002000001440B8010020FD
:1055080000406F400000F03F97ED4E0BFDF794FB15
:1055180087ED520B4FF00002954BD7E95201FAF78D
:10552800EBFF02460B46C7E9522397ED520B06F0F4
:105538006BFF87ED460B97ED460B01F01DFF034609
:10554800002B06D197ED460B01F0C6FE0346002B53
:1055580006D04FF000024FF00003C7E9462307E0EA
:105568009FED811B97ED460B06F038FC87ED460B47
:105578004FF000024FF00003D7E94601FBF72EFA7F
:105588000346002B10D0D7F81831BB60D7F81C3170
:1055980083F00043FB60D7E90201FBF785FA034675
:1055A8009BB25B429BB205E0D7E94601FBF77CFA68
:1055B80003469BB207F5BC72A2F59E72138007F5ED
:1055C800BC73A3F59E731B881846FAF71BFF0246A7
:1055D8000B46D7E95201FAF7D7FD02460B46C7E951
:1055E8004C2307F5BC73A3F59E731B880133614AEE
:1055F800DB001344D3E9000107F5BC73A3F59E73E0
:105608001B885C4ADB001344D3E90023FAF7BCFD8E
:1056180002460B4610461946D7E94C23FAF76CFFA9
:1056280002460B461046194607F5BC73A3F59E7350
:105638001B88504ADB001344D3E90023FAF7A6FD80
:1056480002460B46C7E9482307F5BC73A3F59E73CA
:105658001B88C933474ADB001344D3E9000107F527
:10566800BC73A3F59E731B88C833424ADB001344FE
:10567800D3E90023FAF788FD02460B46C7E952230F
:10568800D7E94C23D7E95201FAF736FF02460B4611
:10569800C7E9522307F5BC73A3F59E731B88C8336B
:1056A800344ADB001344D3E90023D7E95201FAF75F
:1056B8006DFD02460B46C7E94C23D7E94C23D7E9D1
:1056C8003C01FAF719FF02460B4614461D46D7E976
:1056D8004823D7E93E01FAF70FFF02460B4620465A
:1056E8002946FAF753FD02460B46C7E95223D7E984
:1056F8005223C7E94E23D7E94C23D7E93E01FAF7ED
:10570800FBFE02460B4614461D46D7E94823D7E957
:105718003C01FAF7F1FE02460B4620462946FAF705
:1057280033FD02460B461449C1E91A23134BD3ED46
:105738007B7A9FED137AF4EEC77AF1EE10FA03DD67
:10574800104BC7F8EC3028E00C4BD3ED7B7A9FED7B
:105758000E7AF4EEC77AF1EE10FA19D50B4BC7F8AA
:10576800EC301AE0AFF30080000000000000F040C9
:1057780000008940C8E00008B8010020A802002005
:105788000000164400001644000016C4000016C4A9
:10579800A94BD3F8EC31C7F8EC30D7F8EC00FAF79E
:1057A80053FE02460B464FF00000A449FAF7ECFC02
:1057B80002460B46C7E9522399A3D3E90023D7E948
:1057C8005201FAF799FE02460B469D49C1E90823A2
:1057D8009B4BD3E91A459A4BD3E90801994BD3E976
:1057E8000023FAF7D3FC02460B4620462946FAF76F
:1057F800CBFC02460B46C7E93C2397F8E130002B67
:1058080000F03785904BD3E900238B49C1E9582331
:1058180085A3D3E90023D7E93C01FAF76DFE0246D8
:105828000B4610461946844BD3E95823FAF7AEFCC9
:1058380002460B46C7E94C234FF00002834BD7E9D9
:105848004C01FBF7E9F80346002B0BD04FF00002A0
:105858007E4BD7E94C01FAF797FC02460B46C7E99D
:1058680058231BE04FF00002794BD7E94C01FBF7B6
:10587800C9F80346002B06D04FF000024FF0000392
:10588800C7E958230AE04FF00002704BD7E94C01F2
:10589800FAF77CFC02460B46C7E9582301231C464D
:1058A8004FF000024FF00003D7E95801FBF78CF8DE
:1058B8000346002B01D000231C46E3B287F897303B
:1058C80001231C464FF000024FF00003D7E95801AE
:1058D800FBF7A2F80346002B01D100231C46E3B2D4
:1058E80087F8963052A3D3E90023D7E93C01FAF7A9
:1058F80003FE02460B46C7E9582397F89630002B5B
:1059080003D0012387F8E23002E0FF2387F8E23072
:105918004FF000024FF00003D7E95801FBF77CF87D
:105928000346002B03D0012387F8E33002E0FF236E
:1059380087F8E33097F89730002B0BD097F9E220DF
:1059480097F9E3309A4205D14FF000024FF0000377
:10595800C7E958234FF000023C4BD7E94C01FBF74D
:105968005BF80346002B05D04FF00002374BC7E920
:10597800442313E04FF00002354BD7E94C01FBF705
:105988002DF80346002B05D04FF00002304BC7E935
:10599800442303E0D7E94C23C7E944232A4BD3E93E
:1059A80002232549C1E95A231FA3D3E90023D7E9D4
:1059B8004E01FAF7A1FD02460B46104619461E4B4A
:1059C800D3E95A23FAF7E2FB02460B46C7E9482314
:1059D8004FF000021D4BD7E94801FBF71DF80346BD
:1059E800002B0BD04FF00002184BD7E94801FAF70B
:1059F800CBFB02460B46C7E94A2336E04FF00002CC
:105A0800134BD7E94801FAF7FDFF0346002B21D0D5
:105A18004FF000024FF00003C7E94A2325E000BF1A
:105A2800FA0177C7CE43D43FCFF753E3A59B36405F
:105A3800030473F4F8BDCD3FA802002000C08240E3
:105A4800B80100208002002030E000080000F03F8C
:105A58000000F0BF4FF00002814BD7E94801FAF788
:105A680095FB02460B46C7E94A2377A3D3E90023EF
:105A7800D7E94E01FAF740FD02460B46C7E94C2329
:105A88004FF000024FF00003D7E94A01FAF7C4FFCC
:105A98000346002B03D0012387F8E23002E0FF23FE
:105AA80087F8E2304FF000024FF00003D7E94C01CD
:105AB800FAF7B2FF0346002B03D0012387F8E3303F
:105AC80002E0FF2387F8E3304FF000024FF00003B5
