:020000040800F2
:10000000000002204500010849E1000851E1000814
:1000100059E1000861E1000869E100080000000002
:10002000000000000000000000000000FDC7000804
:1000300071E1000800000000B9C70008E9C6000827
:100040009500010895000108950001089500010838
:100050009500010895000108950001089500010828
:100060009500010895000108950001087FE100084E
:100070009500010895000108950001089500010808
:10008000ADD800088DD80008430E0108950001087E
:1000900095000108950001089500010895000108E8
:1000A000950001088DE10008950001089500010800
:1000B00095000108950001089500010895000108C8
:1000C00095000108950001089500010895000108B8
:1000D000950001089500010879D8000895000108ED
:1000E0009500010895000108950001089500010898
:1000F000950001089500010895000108A1E100089C
:100100009500010895000108950001089500010877
:100110009500010895000108950001089500010867
:100120009500010895000108950001089500010857
:100130009500010800000000000000009500010883
:100140009500010895000108950001089500010837
:100150009500010895000108950001089500010827
:100160009500010895000108950001089500010817
:100170009500010895000108000000000000000043
:0801800095000108950001083B
:1001880081F0004102E000BF83F0004330B54FEA40
:1001980041044FEA430594EA050F08BF90EA020FAD
:1001A8001FBF54EA000C55EA020C7FEA645C7FEA40
:1001B800655C00F0E2804FEA5454D4EB5555B8BF63
:1001C8006D420CDD2C4480EA020281EA030382EAD4
:1001D800000083EA010180EA020281EA0303362D66
:1001E80088BF30BD11F0004F4FEA01314FF4801C39
:1001F8004CEA113102D0404261EB410113F0004F4B
:100208004FEA03334CEA133302D0524263EB430301
:1002180094EA050F00F0A780A4F10104D5F1200E9F
:100228000DDB02FA0EFC22FA05F2801841F10001FA
:1002380003FA0EF2801843FA05F359410EE0A5F1CE
:1002480020050EF1200E012A03FA0EFC28BF4CF0FF
:10025800020C43FA05F3C01851EBE37101F00045B5
:1002680007D54FF0000EDCF1000C7EEB00006EEBC2
:100278000101B1F5801F1BD3B1F5001F0CD349084C
:100288005FEA30004FEA3C0C04F101044FEA4452A3
:1002980012F5800F80F09A80BCF1004F08BF5FEA2A
:1002A800500C50F1000041EB045141EA050130BD0A
:1002B8005FEA4C0C404141EB0101013C28BFB1F51C
:1002C800801FE9D291F0000F04BF01460020B1FA67
:1002D80081F308BF2033A3F10B03B3F120020CDA3A
:1002E8000C3208DD02F1140CC2F10C0201FA0CF018
:1002F80021FA02F10CE002F11402D8BFC2F1200C7D
:1003080001FA02F120FA0CFCDCBF41EA0C01904032
:10031800E41AA2BF01EB0451294330BD6FEA04047B
:100328001F3C1CDA0C340EDC04F11404C4F1200266
:1003380020FA04F001FA02F340EA030021FA04F378
:1003480045EA030130BDC4F10C04C4F1200220FACF
:1003580002F001FA04F340EA0300294630BD21FA0D
:1003680004F0294630BD94F0000F83F4801306BFD3
:1003780081F480110134013D4EE77FEA645C18BFC7
:100388007FEA655C29D094EA050F08BF90EA020F5E
:1003980005D054EA000C04BF1946104630BD91EA56
:1003A800030F1EBF0021002030BD5FEA545C05D159
:1003B8004000494128BF41F0004130BD14F5800498
:1003C8003CBF01F5801130BD01F0004545F0FE410C
:1003D80041F470014FF0000030BD7FEA645C1ABF41
:1003E800194610467FEA655C1CBF0B46024650EA78
:1003F800013406BF52EA033591EA030F41F40021A4
:1004080030BD00BF90F0000F04BF0021704730B529
:100418004FF4806404F132044FF000054FF00001FE
:1004280050E700BF90F0000F04BF0021704730B5BF
:100438004FF4806404F1320410F0004548BF404294
:100448004FF000013EE700BF42004FEAE2014FEAE9
:1004580031014FEA02701FBF12F07F4393F07F4FC4
:1004680081F06051704732F07F4208BF704793F0C7
:100478007F4F04BF41F40021704730B54FF46074DA
:1004880001F0004521F000411CE700BF50EA0102DD
:1004980008BF704730B54FF000050AE050EA010286
:1004A80008BF704730B511F0004502D5404261EBF6
:1004B80041014FF4806404F132045FEA915C3FF437
:1004C800D8AE4FF003025FEADC0C18BF03325FEAD4
:1004D800DC0C18BF033202EBDC02C2F1200300FA85
:1004E80003FC20FA02F001FA03FE40EA0E0021FAAA
:1004F80002F11444BDE600BF70B54FF0FF0C4CF498
:10050800E06C1CEA11541DBF1CEA135594EA0C0F49
:1005180095EA0C0F00F0DEF82C4481EA030621EA84
:100528004C5123EA4C5350EA013518BF52EA0335BF
:1005380041F4801143F4801338D0A0FB02CE4FF071
:100548000005E1FB02E506F00042E0FB03E54FF0A1
:100558000006E1FB03569CF0000F18BF4EF0010E99
:10056800A4F1FF04B6F5007F64F5407404D25FEA95
:100578004E0E6D4146EB060642EAC62141EA555148
:100588004FEAC52040EA5E504FEACE2EB4F1FD0C8A
:1005980088BFBCF5E06F1ED8BEF1004F08BF5FEA08
:1005A800500E50F1000041EB045170BD06F00046BA
:1005B80046EA010140EA020081EA0301B4EB5C0467
:1005C800C2BFD4EB0C0541EA045170BD41F480115F
:1005D8004FF0000E013C00F3AB8014F1360FDEBF84
:1005E800002001F0004170BDC4F10004203C35DA60
:1005F8000C341BDC04F11404C4F1200500FA05F3E3
:1006080020FA04F001FA05F240EA020001F0004283
:1006180021F0004110EBD37021FA04F642EB0601F9
:100628005EEA430E08BF20EAD37070BDC4F10C0423
:10063800C4F1200500FA04F320FA05F001FA04F2E7
:1006480040EA020001F0004110EBD37041F10001D3
:100658005EEA430E08BF20EAD37070BDC4F12005DE
:1006680000FA05F24EEA020E20FA04F301FA05F246
:1006780043EA020321FA04F001F0004121FA04F2EE
:1006880020EA020000EBD3705EEA430E08BF20EABE
:10069800D37070BD94F0000F0FD101F000464000F8
:1006A80041EB010111F4801F08BF013CF7D041EA7A
:1006B800060195F0000F18BF704703F0004652007E
:1006C80043EB030313F4801F08BF013DF7D043EA4F
:1006D8000603704794EA0C0F0CEA135518BF95EA05
:1006E8000C0F0CD050EA410618BF52EA4306D1D18C
:1006F80081EA030101F000414FF0000070BD50EAAB
:10070800410606BF1046194652EA430619D094EA34
:100718000C0F02D150EA013613D195EA0C0F05D11E
:1007280052EA03361CBF104619460AD181EA030172
:1007380001F0004141F0FE4141F470014FF000002A
:1007480070BD41F0FE4141F4780170BD70B54FF0C5
:10075800FF0C4CF4E06C1CEA11541DBF1CEA135545
:1007680094EA0C0F95EA0C0F00F0A7F8A4EB050427
:1007780081EA030E52EA03354FEA013100F088801E
:100788004FEA03334FF0805545EA131343EA1263E7
:100798004FEA022245EA111545EA10654FEA00269C
:1007A8000EF000419D4208BF964244F1FD0404F555
:1007B800407402D25B084FEA3202B61A65EB0305B1
:1007C8005B084FEA32024FF480104FF4002CB6EB6E
:1007D800020E75EB030E22BFB61A754640EA0C00EE
:1007E8005B084FEA3202B6EB020E75EB030E22BF2E
:1007F800B61A754640EA5C005B084FEA3202B6EB6F
:10080800020E75EB030E22BFB61A754640EA9C002D
:100818005B084FEA3202B6EB020E75EB030E22BFFD
:10082800B61A754640EADC0055EA060E18D04FEABB
:10083800051545EA16754FEA06164FEAC30343EA5B
:1008480052734FEAC2025FEA1C1CC0D111F4801F28
:100858000BD141EA00014FF000004FF0004CB6E721
:1008680011F4801F04BF01430020B4F1FD0C88BFC0
:10087800BCF5E06F3FF6AFAEB5EB030C04BFB6EBCB
:10088800020C5FEA500C50F1000041EB045170BDBE
:100898000EF0004E4EEA113114EB5C04C2BFD4EBEB
:1008A8000C0541EA045170BD41F480114FF0000E6F
:1008B800013C90E645EA060E8DE60CEA135594EAEB
:1008C8000C0F08BF95EA0C0F3FF43BAF94EA0C0FEE
:1008D8000AD150EA01347FF434AF95EA0C0F7FF463
:1008E80025AF104619462CE795EA0C0F06D152EAB7
:1008F80003353FF4FDAE1046194622E750EA41069B
:1009080018BF52EA43067FF4C5AE50EA41047FF4AB
:100918000DAF52EA43057FF4EBAE12E74FF0FF3C10
:1009280006E000BF4FF0010C02E000BF4FF0010CE1
:100938004DF804CD4FEA410C7FEA6C5C4FEA430C5A
:1009480018BF7FEA6C5C1BD001B050EA410C0CBFA9
:1009580052EA430C91EA030F02BF90EA020F00200B
:10096800704710F1000F91EA030F58BF994208BF72
:1009780090422CBFD8176FEAE37040F0010070472F
:100988004FEA410C7FEA6C5C02D150EA013C07D186
:100998004FEA430C7FEA6C5CD6D152EA033CD3D0D1
:1009A8005DF8040B704700BF8446104662468C46CB
:1009B8001946634600E000BF01B5FFF7B7FF0028FE
:1009C80048BF10F1000F01BD4DF808EDFFF7F4FF27
:1009D8000CBF012000205DF808FB00BF4DF808EDB2
:1009E800FFF7EAFF34BF012000205DF808FB00BFD5
:1009F8004DF808EDFFF7E0FF94BF012000205DF8F7
:100A080008FB00BF4DF808EDFFF7CEFF94BF0120AB
:100A180000205DF808FB00BF4DF808EDFFF7C4FFA4
:100A280034BF012000205DF808FB00BF4FEA410CED
:100A38007FEA6C5C02D150EA013C0AD14FEA430CD0
:100A48007FEA6C5C02D152EA033C02D14FF000000D
:100A580070474FF0010070474A0011D212F500129A
:100A680011D20DD56FF47873B3EB62520ED44FEAFE
:100A7800C12343F0004343EA505323FA02F070477E
:100A88004FF00000704750EA013002D14FF0FF30BC
:100A980070474FF00000704753B94AB9002908BFA2
:100AA80000281CBF4FF0FF314FF0FF3000F00CB8AA
:100AB800ADF1080C6DE904CE10F050FDDDF804E04E
:100AC800DDE9022304B07047704700BF844641EA5D
:100AD800000313F003036DD1403A41D351F8043BAE
:100AE80040F8043B51F8043B40F8043B51F8043B00
:100AF80040F8043B51F8043B40F8043B51F8043BF0
:100B080040F8043B51F8043B40F8043B51F8043BDF
:100B180040F8043B51F8043B40F8043B51F8043BCF
:100B280040F8043B51F8043B40F8043B51F8043BBF
:100B380040F8043B51F8043B40F8043B51F8043BAF
:100B480040F8043B51F8043B40F8043B51F8043B9F
:100B580040F8043B51F8043B40F8043B403ABDD20E
:100B6800303211D351F8043B40F8043B51F8043BB0
:100B780040F8043B51F8043B40F8043B51F8043B6F
:100B880040F8043B103AEDD20C3205D351F8043B3F
:100B980040F8043B043AF9D2043208D0D2071CBF0B
:100BA80011F8013B00F8013B01D30B880380604634
:100BB800704700BF082A13D38B078DD010F00303AA
:100BC8008AD0C3F10403D21ADB071CBF11F8013B1A
:100BD80000F8013B80D331F8023B20F8023B7BE769
:100BE800043AD9D3013A11F8013B00F8013BF9D294
:100BF8000B7803704B7843708B788370604670472E
:100C08000348044B834202D0034B03B11847704793
:100C1800BC010020BC010020000000000548064B74
:100C28001B1AD90F01EBA301491002D0034B03B1E2
:100C380018477047BC010020BC01002000000000DC
:100C480010B5064C237843B9FFF7DAFF044B13B10C
:100C58000448AFF300800123237010BDC0010020B9
:100C680000000000F019010808B5054B1BB1054943
:100C78000548AFF30080BDE80840FFF7CFBF00BFCD
:100C880000000000C4010020F019010880B483B0FE
:100C980000AF786039600C4A3B6813441B781A46E9
:100CA8007B6813441B6808493A680A44127811465D
:100CB8007A680A4443F00103136000BF0C37BD464D
:100CC8005DF8047B704700BF9042010880B485B08E
:100CD80000AFF860B9607A600D4ABB6813441B78AE
:100CE8001A46FB6813445B681B0C1B040849BA6866
:100CF8000A4412781146FA680A4411467A6813437E
:100D08004B6000BF1437BD465DF8047B704700BFD9
:100D18009042010880B485B000AFF860B9607A608D
:100D28003B60BB69402B14D1174ABB6813441B783E
:100D38001A46FB6813441A467B68D360124ABB689C
:100D480013441B781A46FB6813441A463B689360A1
:100D580013E00D4ABB6813441B781A46FB6813441A
:100D68001A467B689360084ABB6813441B781A4686
:100D7800FB6813441A463B68D36000BF1437BD466E
:100D88005DF8047B704700BF9042010880B483B0CF
:100D980000AF786039600C4A3B6813441B781A46E8
:100DA8007B6813441B6808493A680A44127811465C
:100DB8007A680A4443F01003136000BF0C37BD463D
:100DC8005DF8047B704700BF9042010880B483B08F
:100DD80000AF78607B681B6843F040027B681A604C
:100DE80000BF0C37BD465DF8047B704780B483B004
:100DF80000AF78607B681B6823F040027B681A604C
:100E080000BF0C37BD465DF8047B704780B483B0E3
:100E180000AF78607B681B6803F04003402B01D16A
:100E2800012300E0002318460C37BD465DF8047B1B
:100E3800704780B483B000AF78607B681B6803F4A8
:100E4800827318460C37BD465DF8047B704780B442
:100E580083B000AF786039607B681B6823F00102BB
:100E68003B681A437B681A6000BF0C37BD465DF8C3
:100E7800047B704780B483B000AF78607B681B68E0
:100E880003F0010318460C37BD465DF8047B704734
:100E980080B483B000AF786039607B681B6823F04A
:100EA80002023B681A437B681A6000BF0C37BD46D4
:100EB8005DF8047B704780B483B000AF78607B68CE
:100EC8001B6803F0020318460C37BD465DF8047B27
:100ED800704780B483B000AF786039607B681B6866
:100EE80023F444423B681A437B681A6000BF0C37FE
:100EF800BD465DF8047B704780B483B000AF78606E
:100F08007B681B6803F4444318460C37BD465DF8FC
:100F1800047B704780B483B000AF786039607B6829
:100F28001B6823F400623B681A437B681A6000BFA1
:100F38000C37BD465DF8047B704780B483B000AFC2
:100F480078607B681B6803F4006318460C37BD465D
:100F58005DF8047B704780B483B000AF78607B682D
:100F68009B6803F00103012B01D1012300E000235A
:100F780018460C37BD465DF8047B704780B483B0D3
:100F880000AF78607B689B6803F00203022B01D1F5
:100F9800012300E0002318460C37BD465DF8047BAA
:100FA800704780B483B000AF78607B689B6803F0BB
:100FB8008003802B01D1012300E0002318460C3761
:100FC800BD465DF8047B704780B483B000AF78609D
:100FD8007B685B6843F040027B685A6000BF0C374F
:100FE800BD465DF8047B704780B483B000AF78607D
:100FF8007B685B6843F001027B685A6000BF0C376E
:10100800BD465DF8047B704780B483B000AF78605C
:101018007B685B6843F002027B685A6000BF0C374C
:10102800BD465DF8047B704780B483B000AF78603C
:101038007B680C3318460C37BD465DF8047B704757
:1010480080B483B000AF78607B680C331B78DBB268
:1010580018460C37BD465DF8047B704780B483B0F2
:1010680000AF78607B68DB689BB218460C37BD46DA
:101078005DF8047B704780B485B000AF78600B469C
:10108800FB707B680C33FB60FB68FA781A7000BF52
:101098001437BD465DF8047B704780B485B000AF57
:1010A80078600B467B807B680C33FB60FB687A8832
:1010B8001A8000BF1437BD465DF8047B70470000F6
:1010C80080B584B000AF786039600023FB600023EE
:1010D800BB607B68002B0BD03B68002B08D07B687B
:1010E800BB60BB681B68654A934201D1644BFB60D7
:1010F800FB68002B00F0BC80BB681A68FB681A60AC
:10110800FB6893F84620BB6893F846301343DAB27D
:10111800FB6883F84620FB6893F84420BB6893F883
:1011280044301343DAB2FB6883F84420FB6893F831
:101138004520BB6893F845301343DAB2FB6883F85F
:101148004520FB683A68DA61BB6893F8463003F0DB
:101158000103002B32D0BB689A6AFB689A62BB68AD
:101168001A6AFB681A62FB6800225A63FB6800224D
:101178001A63FB68002283F84020FB6893F8443028
:1011880003F00403002B05D0FB681B681846FFF723
:101198001BFF13E0FB6893F8443003F01003002BA7
:1011A8000CD0BB685A68FB685A60BB6893F8542037
:1011B800FB6883F85420F86800F0FEFABB6893F8DF
:1011C800463003F00203002B28D0BB68DA6AFB68BC
:1011D800DA62BB685A6AFB685A62FB6800229A6343
:1011E800FB680022DA63FB6800229A61FB68002230
:1011F80083F85620FB6893F8453003F02003002B52
:101208000CD0BB689A68FB689A60BB6893F8552055
:10121800FB6883F85520F86800F00FFB3B68FA6814
:101228001A60FB681B681846FFF766FE0346B3F5AD
:10123800004F0ED1FB681B681846FFF7FAFD0346FE
:10124800B3F5827F05D1FB681B681846FFF7CEFD12
:1012580004E0FB681B681846FFF7B8FDBB681B680D
:101268001A46064B9A4202D000233B6000E000BFBA
:101278003B6818461037BD4680BD00BF003C0040A3
:10128800DC01002080B582B000AF78600B467B801F
:101298007868FFF731FE0346B3F5004F0BD17B8822
:1012A800012B08D1786800F0F4FA4FF440417868CF
:1012B800FFF70FFE11E07868FFF71EFE0346B3F54F
:1012C800404F0AD17B88002B07D1786800F0E1FAFB
:1012D8004FF400417868FFF7FCFD002318460837F3
:1012E800BD4680BD80B586B000AFF8607A601A460A
:1012F8000B467B8113467B7200237B61FB68002BC6
:1013080006D0FB681B68002B02D0FB681B687B615A
:101318007B689BB21B0A7B827B897A69134493F8AA
:101328004E30002B0CD07B69B3F84C207B7A9BB2F3
:101338009A4205D17B695B697A689A4200F0C88055
:101348007B7A9AB27B69A3F84C207B697A685A61E8
:101358007B691B68184600F09CFA7B69B3F84C302F
:10136800002B1CD17B691B681846FFF783FD0346D9
:10137800002B05D07B691B6800211846FFF767FD25
:101388007B691B681846FFF796FD0346022B66D05B
:101398007B691B6802211846FFF77AFD5FE07B69CD
:1013A800B3F84C30012B1CD17B691B681846FFF73A
:1013B80061FD0346012B05D07B691B680121184696
:1013C800FFF745FD7B691B681846FFF774FD034668
:1013D800022B44D07B691B6802211846FFF758FD91
:1013E8003DE07B69B3F84C30022B1CD17B691B684C
:1013F8001846FFF73FFD0346002B05D07B691B68A5
:1014080000211846FFF723FD7B691B681846FFF784
:1014180052FD0346002B22D07B691B680021184629
:10142800FFF736FD1BE07B691B681846FFF722FDB6
:101438000346012B05D07B691B6801211846FFF77D
:1014480006FD7B691B681846FFF735FD0346002B30
:1014580005D07B691B6800211846FFF719FD7B69D9
:101468001B681846FFF769FD02467B6893420CD05B
:101478007B691A687B8A082B01D8002301E04FF4A6
:10148800006319461046FFF745FD7B691B6818463F
:10149800FFF732FD0346B3F5004F0ED17B691B6899
:1014A8001846FFF7C6FC0346B3F5827F05D17B6972
:1014B8001B68184600F0EDF904E07B691B681846C4
:1014C800FFF784FC7B897A691344012283F84E2054
:1014D800002318461837BD4680BD80B58AB000AFD6
:1014E800F860B96011461A460B46FB801346BB806C
:1014F8000023BB840023FB610DF0F0FEF86100239C
:101508003B62FB68002B06D0FB681B68002B02D0EF
:10151800FB681B683B623B6A1B6801211846FFF7A2
:10152800B1FE0346BB843B8E002B01D100237B63B5
:101538003B6A1B681846FFF769FC0346002B04D179
:101548003B6A1B681846FFF741FCBB88DBB2002BDF
:101558002CD1BB687B610023FB8422E03B6A1B68BB
:101568001846FFF70BFD0346012B0CD13B6A1868A0
:10157800FB8C7A6913441B781946FFF77CFDFB8CBA
:101588000133FB840DE00121F8690BF023F80246D2
:101598007B6B934205D2386A00F0C3F90346BB84DB
:1015A80035E0FA8CFB889A42D8D330E0BB88DBB2AE
:1015B800012B2CD1BB68BB610023FB8423E03B6A71
:1015C8001B681846FFF7DAFC0346012B0DD13B6A6E
:1015D8001868FB8C5B00BA6913441B881946FFF72F
:1015E8005CFDFB8C0133FB840DE00121F8690AF0F6
:1015F800F1FF02467B6B934205D2386A00F091F9FD
:101608000346BB8403E0FA8CFB889A42D7D3BB8C91
:1016180018462837BD4680BD90B58FB004AFF86036
:10162800B96011461A460B46FB801346BB8000235F
:10163800BB840023BB610DF051FEB861FB887B843D
:101648000023FB61FB68002B06D0FB681B68002B9E
:1016580002D0FB681B68FB61FB691B680021184608
:10166800FFF710FE0346BB843B8F002B01D10023FC
:10167800FB63FB691B681846FFF7DBFB0346B3F502
:10168800827F0BD1FB691B681846FFF735FC0346C0
:10169800B3F5004F02D17B8C013B7B84FB691B684F
:1016A8001846FFF7B3FB0346002B04D1FB691B6800
:1016B8001846FFF78BFBBB88DBB2002B39D1BB6820
:1016C8003B610023FB842FE0FB691B681846FFF78A
:1016D80042FC0346002B0DD0FB691968FB8C3A6964
:1016E800D4180846FFF7ACFC03462370FB8C013383
:1016F800FB8419E00121B8690AF06CFF0246FB6B14
:10170800934211D2798CFA8CFB6B0393BB690293D9
:10171800BB880193FB8800930B463969F86900F090
:101728000BF90346BB8442E0FA8C7B8C9A42CBD3FC
:101738003DE0BB88DBB2012B39D1BB687B6100235C
:10174800FB8430E0FB691B681846FFF704FC03467E
:10175800002B0ED0FB691968FB8C5B007A69D418E2
:101768000846FFF77BFC03462380FB8C0133FB8490
:1017780019E00121B8690AF02DFF0246FB6B93427C
:1017880011D2798CFA8CFB6B0393BB690293BB88EB
:101798000193FB8800930B467969F86900F0CCF84F
:1017A8000346BB8403E0FA8C7B8C9A42CAD3BB8C79
:1017B80018462C37BD4690BDB0B584B002AF7860EE
:1017C8007B685C687B6893F854301D467B681B68AF
:1017D8001846FFF729FC02467B681B6A1946002356
:1017E80000930B4629462046FFF794FA7B68586811
:1017F8007B6893F8543019467B68DB691B691A4685
:10180800FFF764FA7B685A687B6893F85430194686
:101818001046FFF7BBFA7B681B681846FFF7E4FB26
:101828007B685A687B6893F8543019461046FFF76E
:101838002DFA00BF0837BD46B0BDF0B585B002AF80
:1018480078607B689C687B6893F855301D467B6898
:101858005B6A1E467B681B681846FFF7E5FB034674
:1018680040220092324629462046FFF753FA7B6809
:101878009A687B6893F8553019461046FFF786FA40
:101888007B681B681846FFF7BFFB00BF0C37BD46D7
:10189800F0BD80B582B000AF78607868FFF7B6FA1F
:1018A8000346002B2CD07868FFF726FB0346002B55
:1018B8000AD100BF7868FFF774FB0346002BF9D103
:1018C8007868FFF793FA1BE07868FFF715FB034683
:1018D800B3F5806F06D07868FFF70EFB0346B3F5C3
:1018E800004F03D17868FFF781FA09E000BF7868F4
:1018F800FFF757FB0346002BF9D17868FFF776FA14
:1019080000BF0837BD4680BD80B485B000AFF86021
:10191800B9607A603B6000BF1437BD465DF8047B50
:10192800704780B483B000AF7860012318460C3745
:10193800BD465DF8047B704790B587B000AFF8608E
:10194800B96011461A460B46FB801346BB80FB68FC
:101958001B681846FFF74AFAFB681B681846FFF72A
:1019680068FA0346B3F5827F37D1FB681B681846CF
:10197800FFF7C2FA0346B3F5004F2ED1BA883B8D64
:101988009A422AD0FB681B681846FFF7E4FA034618
:10199800002BF7D0BB8DDBB2002B0CD1BB683B61B1
:1019A800FB681968FB883A69D4180846FFF748FBB2
:1019B8000346237010E0BB8DDBB2012B0CD1BB6852
:1019C8007B61FB681968FB885B007A69D418084654
:1019D800FFF744FB0346238000BF012318461C374A
:1019E800BD4690BD80B485B000AF786039600023F3
:1019F800FB7397F90F3018461437BD465DF8047B22
:101A08007047000080B584B000AF7860396000236B
:101A1800FB727B68002B05D1374804F09DFC4FF022
:101A2800FF3365E03B68002B05D1344804F094FC93
:101A38004FF0FF335CE0324BD3E900014FF0000276
:101A48004FF04043FEF7C0FF0346002B06D03B682B
:101A5800D3E900232A49C1E9002305E0284BD3E94B
:101A680000233968C1E90023254BD3E900014FF071
:101A78000002244BFEF7A8FF0346002B02D02248A1
:101A880004F06AFC7B685B681B68204A13607B680B
:101A98005B685B681E4A13607B685B689B681D4ACD
:101AA80013607B685B68DB681B4A13601B4B002272
:101AB8001A6005F00FF90023FB600023FB6007E0C4
:101AC800174AFB68174942F82310FB680133FB608B
:101AD800FB68042BF4D904F03DFD0346FB7297F92B
:101AE8000B30002B02D1104B01221A7097F90B30E2
:101AF80018461037BD4680BD081A01082C1A01087F
:101B0800000000200000F0BF581A0108500800200B
:101B180054080020580800205C08002060080020B5
:101B280034020020456D00084D08002080B586B0BD
:101B380000AF78600023FB7500233B610023FB7333
:101B48002A4B1B78DBB2002B0CBF01230023DBB22E
:101B5800BB73274B02221A707B68002B0BD1234BD7
:101B68001B78DBB2002B06D1224B1B78DBB2002B93
:101B780001D1012300E00023FB7316E00A200AF0DC
:101B8800E9FC3B6903F51C5310333B617B68B3F1F7
:101B9800FF3F05D03A697B689A4201D9012300E0EA
:101BA8000023FB73002004F02DFD104B1B78DBB2E3
:101BB800002B07D10F4B1B78DBB2002B02D1FB7B2C
:101BC800002BDBD00A4B03221A70FB7B002B01D0C1
:101BD8009C23FB75BB7B002B01D005F0A9F997F975
:101BE800173018461837BD4680BD00BF4B08002087
:101BF8004D0800204C08002080B588B000AF03468F
:101C080087ED000BFB810023FB770123BB774FF0A7
:101C180000024FF00003D7E90001FEF7DFFE03469C
:101C2800002B05D02F4804F097FB4FF0FF3355E009
:101C3800FB89FF2B08D9FB89FF2219462A4804F0A3
:101C48008BFB4FF0FF3349E0284B1B78DBB2032BAB
:101C580004D0264B1B78DBB2012B02D1234B042284
:101C68001A70FB89042B15D8FB89214A52F82330B6
:101C7800002B0FD005F01EFD03467B777B7F022BE0
:101C880008D1FB891A4A52F82330FA891046984736
:101C98000346BB77FB897B83FB89184697ED000BCE
:101CA80004F016FC7861BB7F002B07D07B8B796929
:101CB800184605F0DBFC0346FB7703E07B8B1846F0
:101CC80005F033FD97F91F30002B05D097F91F3029
:101CD8001946084804F040FB97F91F30184620378A
:101CE800BD4680BDC41A0108081B01084D08002024
:101CF80034020020481B010880B582B000AF0023E1
:101D0800FB71002004F07EFC0346FB7197F9073055
:101D180018460837BD4680BD80B582B000AF0023A5
:101D2800FB710B4B06221A7004F00AFD0346FB7187
:101D38001422002107480FF06FFD05F07FF8044BCF
:101D480000221A7097F9073018460837BD4680BD3B
:101D58004D0800203402002080B400AF034B1B78EC
:101D6800DBB21846BD465DF8047B70474C0800207E
:101D780080B400AF034B1B78DBB21846BD465DF854
:101D8800047B70476408002080B483B000AF78609B
:101D98007B681B6843F001027B681A6000BF0C3740
:101DA800BD465DF8047B704780B483B000AF7860AF
:101DB8007B681B6823F001027B681A6000BF0C3740
:101DC800BD465DF8047B704780B483B000AF78608F
:101DD80039607B681B6823F004023B681A437B6800
:101DE8001A6000BF0C37BD465DF8047B704780B4AD
:101DF80083B000AF78607B681B6803F00403184663
:101E08000C37BD465DF8047B704780B483B000AFE3
:101E1800786039607B683A68DA6200BF0C37BD4683
:101E28005DF8047B704780B483B000AF78607B684E
:101E3800DB6A18460C37BD465DF8047B704780B4F2
:101E480083B000AF786039607B683A681A6300BF76
:101E58000C37BD465DF8047B704780B483B000AF93
:101E6800786039607B681A6A3B681A437B681A6233
:101E780000BF0C37BD465DF8047B704780B483B063
:101E880000AF786039607B683A685A6300BF0C37E6
:101E9800BD465DF8047B704780B483B000AF7860BE
:101EA80039607B683A689A6300BF0C37BD465DF8B5
:101EB800047B704780B483B000AF786039607B687A
:101EC8003A68DA6300BF0C37BD465DF8047B70479B
:101ED80080B483B000AF78607B685B6B18460C37C2
:101EE800BD465DF8047B704780B483B000AF78606E
:101EF8007B689B6B18460C37BD465DF8047B7047C2
:101F080080B483B000AF78607B68DB6B18460C3711
:101F1800BD465DF8047B704780B483B000AF78603D
:101F28007B685B6943F001027B685A6100BF0C372C
:101F3800BD465DF8047B704780B483B000AF78601D
:101F480039607B683A689A6100BF0C37BD465DF816
:101F5800047B704780B483B000AF786039603B6819
:101F68001A047B689A6100BF0C37BD465DF8047B94
:101F78007047000080B584B000AF786087ED000A34
:101F8800D7ED007AF5EEC07AF1EE10FA03D54FF0EE
:101F980000033B600AE0D7ED007A9FED167AF4EE75
:101FA800C77AF1EE10FA01DD134B3B607B681B68C2
:101FB8001846FFF738FFF8607B681B79002B0CBFC9
:101FC80001230023DBB21A46FB68134407EE903A5C
:101FD800B8EE677AD7ED007A27EE277ADFED056A43
:101FE800C7EE267AFCEEE77A17EE903A18461037D5
:101FF800BD4680BD0000C8420000C84280B582B01E
:1020080000AF786039607B681B681846FFF70BFFE4
:1020180002463B68934205D07B681B6839681846BE
:10202800FFF7F3FE00BF0837BD4680BD80B582B01C
:1020380000AF786039607B681B681846FFF748FF77
:1020480002463B68934205D07B681B68396818468E
:10205800FFF714FF00BF0837BD4680BD80B582B0CA
:1020680000AF786039607B681B681846FFF73CFF53
:1020780002463B68934205D07B681B68396818465E
:10208800FFF70AFF00BF0837BD4680BD80B582B0A4
:1020980000AF786039607B681B681846FFF730FF2F
:1020A80002463B68934205D07B681B68396818462E
:1020B800FFF700FF00BF0837BD4680BD80B584B07C
:1020C80000AF786087ED000A97ED000A7868FFF79F
:1020D80051FFF860F9687868FFF7A8FF00BF10376C
:1020E800BD4680BD80B584B000AF786087ED000A3A
:1020F80097ED000A7868FFF73DFFF860F96878689F
:10210800FFF7ACFF00BF1037BD4680BD80B584B077
:1021180000AF786087ED000A97ED000A7868FFF74E
:1021280029FFF860F9687868FFF7B0FF00BF10373B
:10213800BD4680BD80B485B000AF78607B681B6801
:102148009B6803F00703FB60FB68062B0CBF0123A9
:102158000023DBB218461437BD465DF8047B704790
:1021680080B584B000AF78600B46FB707B681B6855
:102178001846FFF73CFEF860FB78002B0FD07B6811
:102188001B68234A934204D07B681B68214A934208
:1021980005D17B681B6800211846FFF750FEFB68D5
:1021A800042B11D07B681B6804211846FFF70CFE2E
:1021B8007B681B681846FFF7AFFE7B681B68F968E9
:1021C8001846FFF701FE04E07B681B681846FFF716
:1021D800A3FE7B681B681846FFF7D6FDFB78002B2B
:1021E80011D07B681B680A4A934204D07B681B683D
:1021F800084A934207D17B681A687B685B7919465D
:102208001046FFF71CFE00BF1037BD4680BD00BF5B
:10221800000001400004014080B582B000AF786042
:102228007B681B681846FFF7BFFD00BF0837BD462F
:1022380080BD000080B400AF1B4BB3F846200132CC
:1022480092B2A3F84620184BB3F84630092B03D9AD
:10225800154B0022A3F84620134BB3F8482001324F
:1022680092B2A3F84820104BB3F84830B3F57A7F00
:1022780003D30D4B0022A3F848200B4BB3F84A2098
:10228800013292B2A3F84A20074BB3F84A3042F21F
:102298000F72934203D9044B0022A3F84A2000BFCF
:1022A800BD465DF8047B7047D806002080B483B033
:1022B80000AF78607B684FF0FF321A6000BF0C37C0
:1022C800BD465DF8047B704780B483B000AF78608A
:1022D8007B684FF0FF321A6000BF0C37BD465DF8CF
:1022E800047B704780B485B000AF0346B9607A605C
:1022F800FB817B684FF0FF321A60FB89DB039AB2DF
:10230800BB681A8000BF1437BD465DF8047B704770
:1023180080B483B000AF78607B684FF0FF321A60FA
:1023280000BF0C37BD465DF8047B704780B483B0AE
:1023380000AF78607B684FF0FF321A6000BF0C373F
:10234800BD465DF8047B704780B485B000AF034696
:10235800B9607A60FB817B684FF0FF321A60FB89B5
:10236800DB029AB2BB681A8000BF1437BD465DF81D
:10237800047B704780B59AB000AF78607B68002214
:102388001A727B6801225A600023BB620023FB6239
:10239800254BBB60002387F84E3000233B630023A6
:1023A8007B63012387F84C30022387F84D300023E4
:1023B800FB60002387F85C3000233B61002387F82B
:1023C8005D307B6800221A617B68184A5A610123D4
:1023D80087F867307B680E229A617B68012283F850
:1023E80024207B6897F867201A777B680F221A6287
:1023F8007B6810333B6607F10803396E1846FEF711
:102408005FFE02467B68DA607B68D86803234FF476
:1024180070620221FEF766FF7B6801221A7200BF14
:102428006837BD4680BD00BF003C00400008024040
:1024380080B582B000AF78607B6800225A607B6804
:1024480000221A707B68012283F828207B681846CE
:10245800FFF790FF00BF0837BD4680BD80B58CB040
:1024680002AF78607B68D86803234FF4706202215A
:10247800FEF738FF0346FB84FB8C002B10D17B68EA
:10248800D86807F108010123019301230093012370
:102498000F22FFF7C1F84FF480410348FFF74CFDC6
:1024A80000BF2837BD4680BD0008024080B586B011
:1024B80002AF78607B681B78002B16D17B680122FD
:1024C8001A707B685B68012B0FD17B681B7A002B25
:1024D8000BD04FF0FF33FB607B68D8680E23009366
:1024E800FB68FA68F968FFF70FFA00BF1037BD46B6
:1024F80080BD000080B59AB000AF78600023BB6251
:102508000023FB62234BBB60002387F84E30002377
:102518003B6300237B63012387F84C30022387F851
:102528004D300023FB60002387F85C3000233B61BB
:10253800002387F85D307B6800221A617B68164AA1
:102548005A61012387F867307B680E229A617B689D
:10255800012283F824207B6897F867201A777B6824
:1025680001221A627B6810333B6607F10803396E53
:102578001846FEF7A5FD02467B68DA607B68D868D6
:1025880003234FF470620221FEF7ACFE00BF6837E8
:10259800BD4680BD003C00400008024080B582B0C6
:1025A80000AF78607B6800221A707B68012283F88C
:1025B80028207B6800221A727B6801225A607B6897
:1025C8001846FFF797FF7B6801221A7200BF083789
:1025D800BD4680BD80B586B002AF03463960FB803A
:1025E8003B68D86803234FF470620221FEF77AFE35
:1025F8000346FB81FB89002B0FD14FF4804109482A
:10260800FFF7A8FC3B68D868B91D01230193012393
:10261800009301230122FEF760FF00BF1037BD467B
:1026280080BD00BF0008024080B586B002AF786068
:102638007B681B78002B16D17B6801221A707B6897
:102648005B68012B0FD17B681B7A002B0BD04FF0F6
:10265800FF33FB607B68D8680E230093FB68FA6839
:10266800F968FFF751F900BF1037BD4680BD00007B
:1026780080B59AB000AF78607B6800221A727B68D8
:1026880001225A600023BB620023FB62254BBB601A
:10269800002387F84E3000233B6300237B6301232C
:1026A80087F84C30022387F84D300023FB60002365
:1026B80087F85C3000233B61002387F85D307B6836
:1026C80000221A617B68184A5A61012387F867302B
:1026D8007B680E229A617B68012283F824207B683C
:1026E80097F867201A777B6801221A627B68103393
:1026F8003B6607F10803396E1846FEF7E1FC02460F
:102708007B68DA607B68D86803234FF47062022123
:10271800FEF7E8FD7B6801221A7200BF6837BD46E4
:1027280080BD00BF003C00400008024080B582B078
:1027380000AF78607B6800225A607B6800221A70BC
:102748007B68012283F828207B681846FFF790FFF2
:1027580000BF0837BD4680BD80B586B002AF78603F
:1027680039603B68D86803234FF470620221FEF792
:10277800B9FD0346FB81FB89002B0FD13B68D86864
:102788007968012301930123009301230122FEF7B5
:1027980043FF4FF480410348FFF7CEFB00BF1037DB
:1027A800BD4680BD0008024080B586B002AF7860A3
:1027B8007B681B78002B16D17B6801221A707B6816
:1027C8005B68012B0FD17B681B7A002B0BD04FF075
:1027D800FF33FB607B68D8680E230093FB68FA68B8
:1027E800F968FFF791F800BF1037BD4680BD0000BB
:1027F80080B59AB000AF78607B6800221A727B6857
:1028080001225A600023BB620023FB62254BBB6098
:10281800002387F84E3000233B6300237B630123AA
:1028280087F84C30022387F84D300023FB600023E3
:1028380087F85C3000233B61002387F85D307B68B4
:1028480000221A617B68184A5A61012387F86730A9
:102858007B680E229A617B68012283F824207B68BA
:1028680097F867201A777B680F221A627B68103303
:102878003B6607F10803396E1846FEF721FC02464D
:102888007B68DA607B68D86803234FF470620221A2
:10289800FEF728FD7B6801221A7200BF6837BD4623
:1028A80080BD00BF003C00400008024080B582B0F7
:1028B80000AF78607B6800225A607B6800221A703B
:1028C8007B68012283F828207B681846FFF790FF71
:1028D80000BF0837BD4680BD80B586B002AF7860BE
:1028E80039603B68D86803234FF470620221FEF711
:1028F800F9FC0346FB81FB89002B0FD13B68D868A4
:102908007968012301930123009301230F22FEF725
:1029180083FE4FF480410348FFF70EFB00BF1037DA
:10292800BD4680BD0008024080B586B002AF786021
:102938007B681B78002B16D17B6801221A707B6894
:102948005B68012B0FD17B681B7A002B0BD04FF0F3
:10295800FF33FB607B68D8680E230093FB68FA6836
:10296800F968FEF7D1FF00BF1037BD4680BD0000F3
:1029780080B59AB000AF78600023BB620023FB6289
:10298800234BBB60002387F84E3000233B630023B2
:102998007B63012387F84C30022387F84D300023EE
:1029A800FB60002387F85C3000233B61002387F835
:1029B8005D307B6800221A617B68164A5A610123E0
:1029C80087F867307B680E229A617B68012283F85A
:1029D80024207B6897F867201A777B6801221A629F
:1029E8007B6810333B6607F10803396E1846FEF71B
:1029F80067FB02467B68DA607B68D86803234FF47C
:102A080070620221FEF76EFC00BF6837BD4680BDCC
:102A1800003C00400008024080B582B000AF7860FA
:102A28007B6800221A707B68012283F828207B6863
:102A380000221A727B6801225A607B681846FFF7E9
:102A480097FF7B6801221A7200BF0837BD4680BD18
:102A580080B586B002AF03463960FB803B68D86812
:102A680003234FF470620221FEF73CFC0346FB810E
:102A7800FB89002B0FD14FF480410948FFF76AFA10
:102A88003B68D868B91D01230193012300930123F2
:102A98000122FEF722FD00BF1037BD4680BD00BFF2
:102AA8000008024080B586B002AF78607B681B786A
:102AB800002B16D17B6801221A707B685B68012B9A
:102AC8000FD17B681B7A002B0BD04FF0FF33FB60D4
:102AD8007B68D8680E230093FB68FA68F968FEF7EC
:102AE80013FF00BF1037BD4680BD000080B59AB007
:102AF80000AF78607B6800221A727B6801225A60F6
:102B08000023BB620023FB62254BBB60002387F8D0
:102B18004E3000233B6300237B63012387F84C304E
:102B2800022387F84D300023FB60002387F85C30D0
:102B380000233B61002387F85D307B6800221A611F
:102B48007B68184A5A61012387F867307B680E2230
:102B58009A617B68012283F824207B6897F86720B4
:102B68001A777B6810221A627B6810333B6607F17C
:102B78000803396E1846FEF7A3FA02467B68DA6046
:102B88007B68D86803234FF470620221FEF7AAFB22
:102B98007B6801221A7200BF6837BD4680BD00BF3E
:102BA800003C00400008024080B59AB000AF786051
:102BB8000023BB620023FB62234BBB60002387F822
:102BC8004E3000233B6300237B63012387F84C309E
:102BD800022387F84D300023FB60002387F85C3020
:102BE80000233B61002387F85D307B6800221A616F
:102BF8007B68164A5A61012387F867307B680E2282
:102C08009A617B68012283F824207B6897F8672003
:102C18001A777B6801221A627B6810333B6607F1DA
:102C28000803396E1846FEF74BFA02467B68DA60ED
:102C38007B68D86803234FF470620221FEF752FBC9
:102C480000BF6837BD4680BD003C00400008024018
:102C580080B59AB000AF78607B6800221A727B68F2
:102C680001225A600023BB620023FB62254BBB6034
:102C7800002387F84E3000233B6300237B63012346
:102C880087F84C30022387F84D300023FB6000237F
:102C980087F85C3000233B61002387F85D307B6850
:102CA80000221A617B68184A5A61012387F8673045
:102CB8007B680E229A617B68012283F824207B6856
:102CC80097F867201A777B6801221A627B681033AD
:102CD8003B6607F10803396E1846FEF7F1F902461C
:102CE8007B68DA607B68D86803234FF4706202213E
:102CF800FEF7F8FA7B6801221A7200BF6837BD46F2
:102D080080BD00BF003C00400008024080B58CB088
:102D180002AF78607B6800221A727B6801225A60D1
:102D28000023BB6100237B74184BFB6100233B62CB
:102D38000023BB74002387F82430012387F825304B
:102D48000123FB6001233B7407F10C00002300936F
:102D58000423012201210EF083F802467B68DA6021
:102D68007B68DB6818460EF023F97B68DB68012175
:102D780018460EF069F87B6801221A727B680022F7
:102D88005A7200BF2837BD4680BD00BF00210140F0
:102D980080B58CB002AF78607B6800221A727B68BD
:102DA80001225A600023BB6100237B74184BFB612E
:102DB80000233B620023BB74002387F824300123DF
:102DC80087F825300123FB6001233B7407F10C00D1
:102DD800002300930423012201210EF041F802464A
:102DE8007B68DA607B68DB6818460EF0E1F87B6880
:102DF800DB68012118460EF027F87B6801221A7259
:102E08007B6800225A7200BF2837BD4680BD00BFCC
:102E18000022014080B5A6B000AF78601D4BBB60B2
:102E280000233B7300237B7307F1080318460DF05A
:102E3800C1FD02467B68DA607B68DB6800211846C2
:102E48000DF014FB7B68DB68042118460DF042FC8A
:102E58007B68DB68042118460DF0B4FC7B68DB68EE
:102E6800042118460DF026FD7B68DB681846FFF73D
:102E780061F9034687F8973097F89730002B05D10A
:102E88007B68DB6801211846FFF76AF900BF9837AD
:102E9800BD4680BD0004014080B58CB002AF7860AB
:102EA8007B6800221A727B6801225A600023BB618A
:102EB80000237B74184BFB6100233B620023BB7427
:102EC800002387F82430012387F825300123FB608D
:102ED80001233B7407F10C00002300930423012213
:102EE80001210DF0BDFF02467B68DA607B68DB6874
:102EF80018460EF05DF87B68DB68012118460DF076
:102F0800A3FF7B6801221A727B6800225A7200BFF5
:102F18002837BD4680BD00BF0020014000000000EA
:102F280090B5AFB002AFD44B93F94E3187F89130DA
:102F3800002387F8A73097F89130042B1FD801A2F7
:102F480052F823F0612F0008692F0008712F00083C
:102F5800792F0008812F0008002387F8A7300EE09A
:102F6800032387F8A7300AE0032387F8A73006E091
:102F7800002387F8A73002E0002387F8A73097F9E5
:102F8800A720BD4B83F84E21BB4B93F94D3187F8F1
:102F98009030002387F8A63097F89030042B20D87B
:102FA80001A252F823F000BFC52F0008CD2F00085A
:102FB800D52F0008DD2F0008E52F0008002387F82B
:102FC800A6300EE0032387F8A6300AE0032387F82B
:102FD800A63006E0002387F8A63002E0002387F831
:102FE800A63097F9A620A44B83F84D21A24B93F95C
:102FF8004C3187F88F30002387F8A53097F88F3049
:10300800042B20D801A252F823F000BF2930000871
:1030180031300008393000084130000849300008D4
:10302800002387F8A5300EE0032387F8A5300AE0CF
:10303800032387F8A53006E0002387F8A53002E0CF
:10304800002387F8A53097F9A5208B4B83F84C21EE
:10305800894B93F94B3187F88E30002387F8A430D9
:1030680097F88E30042B20D801A252F823F000BF25
:103078008D300008953000089D300008A530000804
:10308800AD300008002387F8A4300EE0032387F84A
:10309800A4300AE0032387F8A43006E0002387F869
:1030A800A43002E0002387F8A43097F9A420724BDB
:1030B80083F84B21704B93F94A3187F88D30002300
:1030C80087F8A33097F88D30042B20D801A252F846
:1030D80023F000BFF1300008F93000080131000882
:1030E8000931000811310008002387F8A3300EE0E9
:1030F800032387F8A3300AE0032387F8A33006E008
:10310800002387F8A33002E0002387F8A33097F95B
:10311800A320594B83F84A21574B93F9493187F833
:103128008C30002387F8A23097F88C30042B20D8F5
:1031380001A252F823F000BF553100085D310008A4
:10314800653100086D31000875310008002387F8E3
:10315800A2300EE0032387F8A2300AE0032387F8A1
:10316800A23006E0002387F8A23002E0002387F8A7
:10317800A23097F9A220404B83F849213E4B93F99E
:10318800483187F88B30002387F8A13097F88B30C7
:10319800042B20D801A252F823F000BFB93100084F
:1031A800C1310008C9310008D1310008D9310008FF
:1031B800002387F8A1300EE0032387F8A1300AE046
:1031C800032387F8A13006E0002387F8A13002E046
:1031D800002387F8A13097F9A120274B83F84821CD
:1031E800254B93F9473187F88A30002387F8A030B8
:1031F80097F88A30042B20D801A252F823F000BF98
:103208001D320008253200082D320008353200082A
:103218003D320008002387F8A0300EE0032387F82A
:10322800A0300AE0032387F8A03006E0002387F8DF
:10323800A03002E0002387F8A03097F9A0200E4BB9
:1032480083F847210C4B93F9463187F889300023DE
:1032580087F89F3097F88930042B22D801A252F8BA
:1032680023F000BF853200088D320008953200082F
:103278009D320008A532000808030020002387F8C3
:103288009F300EE0032387F89F300AE0032387F876
:103298009F3006E0002387F89F3002E0002387F87C
:1032A8009F3097F99F20B84B83F84621B64B93F986
:1032B800453187F88830002387F89E3097F88830A2
:1032C800042B20D801A252F823F000BFE9320008ED
:1032D800F1320008F9320008013300080933000808
:1032E800002387F89E300EE0032387F89E300AE01B
:1032F800032387F89E3006E0002387F89E3002E01B
:10330800002387F89E3097F99E209F4B83F845212C
:103318009D4B93F9443187F88730002387F89D3017
:1033280097F88730042B20D801A252F823F000BF69
:103338004D330008553300085D3300086533000835
:103348006D330008002387F89D300EE0032387F8CB
:103358009D300AE0032387F89D3006E0002387F8B4
:103368009D3002E0002387F89D3097F99D20864B19
:1033780083F84421844B93F84221844B83F87A20C4
:10338800814B93F84321814B83F87B20804BB3F822
:103398004630002B0CBF01230023DBB287F88630B0
:1033A80097F88630002B00F06282774BB3F84031F3
:1033B80043F6FE72934207D8734BB3F8403101339A
:1033C8009AB2714BA3F840216F4B93F84F31002B01
:1033D80019D16D4B012283F84F216B4B0022A3F8C2
:1033E8004021694B0322C3F83C2167494FF0000292
:1033F800684BC1E93C2365494FF000024FF00003D8
:10340800C1E9062333E2604BD3F83C31013B0D2B75
:1034180000F2EE8101A252F823F000BF5D340008EB
:10342800B13400080335000853350008A1350008F9
:10343800DB35000817360008513600088B360008BF
:10344800DD360008173700085137000889370008AB
:10345800C13700084D494FF000024E4BC1E9102317
:103468004A494FF000024B4BC1E91223464BB3F8CF
:10347800403142F20F72934240F2D68143494FF0F5
:1034880000024FF00003C1E918233F4B0022A3F8C4
:1034980040213D4B0822C3F83C213C494FF0000233
:1034A8003C4BC1E90C23BFE138494FF00002394BCE
:1034B800C1E90623354BD3E906014FF00002354B2D
:1034C800FDF782FA0346002B00D1AFE12E4BB3F88B
:1034D800403141F28732934240F2A8812A4B0022C0
:1034E800A3F84021284B0422C3F83C2127494FF078
:1034F8000002284BC1E90A2398E124494FF0000251
:103508004FF00003C1E906231F4BD3E93C014FF0FC
:103518000002204BFDF758FA0346002B00D187E143
:10352800194BB3F84031272B40F28281164B002209
:10353800A3F84021144B0222C3F83C2113494FF051
:103548000002144BC1E9062372E110494FF0000252
:10355800104BC1E90A230C4BB3F8403141F28732D2
:10356800934240F26781084B0022A3F84021064BA2
:103578000522C3F83C2105494FF000024FF0000333
:10358800C1E90A2356E100BF0803002048020020D1
:10359800D80600200000F03FAE494FF000024FF07F
:1035A8000003C1E90A23AC4BB3F84031B3F57A7F85
:1035B800C0F04281A84B0022A3F84021A64B062266
:1035C800C3F83C21A3494FF00002A44BC1E90823EA
:1035D80032E1A0494FF00002A04BC1E908239E4BFD
:1035E800B3F8403140F6B732934240F227819A4B04
:1035F8000022A3F84021984B0722C3F83C219549A3
:103608004FF000024FF00003C1E9082316E1914989
:103618004FF000024FF00003C1E908238E4BB3F8C6
:103628004031B3F57A7FC0F00B818B4B0022A3F8B1
:103638004021894B0822C3F83C2186494FF00002FB
:10364800864BC1E90C23FBE082494FF00002834B13
:10365800C1E90C23804BB3F84031B3F5FA6FC0F0E1
:10366800F1807D4B0022A3F840217B4B0A22C3F84E
:103678003C2178494FF000024FF00003C1E90C23C8
:10368800E0E074494FF000024FF00003C1E916234F
:10369800714BB3F84031B3F57A7FC0F0D5806E4BEB
:1036A8000022A3F840216C4B0122C3F83C21694950
:1036B8004FF00002694BC1E9102366494FF0000240
:1036C800664BC1E9122363494FF00002634BC1E91D
:1036D8001823B9E05F494FF000024FF00003C1E939
:1036E8000C235D4BB3F84031B3F5FA6FC0F0AE80F0
:1036F800594B0022A3F84021574B0B22C3F83C2119
:1037080054494FF00002554BC1E90E239EE0514940
:103718004FF00002514BC1E90E234F4BB3F8403133
:10372800B3F5FA6FC0F094804B4B0022A3F8402108
:10373800494B0C22C3F83C2146494FF000024FF098
:103748000003C1E90E2383E042494FF000024FF025
:103758000003C1E90E23404BB3F84031B3F5FA6FCB
:103768007ED33D4B0022A3F840213B4B0D22C3F8EA
:103778003C2138494FF00002384BC1E914236FE06F
:1037880034494FF00002354BC1E91423324BB3F8EA
:103798004031B3F5FA6F65D32F4B0022A3F84021CF
:1037A8002D4B0E22C3F83C212A494FF000024FF05E
:1037B8000003C1E9142355E026494FF000024FF0F9
:1037C8000003C1E91423244BB3F84031B3F5FA6F71
:1037D8004AD3214B0022A3F840211F4B0F22C3F8E4
:1037E8003C211C494FF000021C4BC1E916233BE069
:1037F80018494FF00002194BC1E91623164BB3F8CC
:103808004031B3F5FA6F31D3134B0022A3F84021AE
:10381800114B0922C3F83C210E494FF000024FF02A
:103828000003C1E9162321E000BF20E000BF1EE02D
:1038380000BF1CE000BF1AE000BF18E000BF16E0A0
:1038480000BF14E000BF12E000BF10E000BF0EE0B0
:1038580000BF0CE048020020080300200000F03FF1
:1038680000BF04E000BF02E000BF00E000BFB44BAF
:10387800D3E906014FF000024FF00003FDF7A4F86A
:103888000346002B0DD1AE4BD3E908014FF00002DF
:103898004FF00003FDF798F80346002B01D10123F0
:1038A80000E00023DAB2A64B83F87E20A44B93F8FD
:1038B8007E30002B00F09380A24B93F85731002BF9
:1038C80009D1A148FEF700FDA048FEF72FFD9D4B4A
:1038D800012283F857219B4B586B03234FF47062E6
:1038E8000221FDF7FFFC0346FB80FB88002B10D16B
:1038F800944B586B07F108010123019301230093AE
:1039080001231022FDF788FE4FF480419048FEF70E
:1039180013FBBB1D8C4A19460020FEF7E3FC3B1D38
:103928008A4A19460320FEF70FFDFA88BB8813431D
:103938009AB2884BB3F8403013439AB2804BA3F83D
:1039480076207F4BB3F876207D4BA3F878207D4B0B
:10395800D3F8840003234FF470620221FDF7C2FC00
:103968000346FB80FB88002B11D14FF48041784837
:10397800FEF7F0FA734BD3F884004FF47A7301938F
:1039880001230093012301227349FDF7A6FD6D4B26
:1039980093F94C3187F8853097F8853087F89C3053
:1039A80097F88530042B14D801A252F823F000BFF1
:1039B800CD390008DB390008DB390008D5390008A3
:1039C800DB390008022387F89C3002E0012387F8DE
:1039D8009C3097F99C205B4B83F84C2103E0594BB2
:1039E800002283F85721564BD3E906014FF0000215
:1039F8004FF00003FCF7E8FF0346002B0DD1504BB6
:103A0800D3E90A014FF000024FF00003FCF7DCFF96
:103A18000346002B01D1012300E00023DAB2484B12
:103A280083F87F20464B93F87F30002B00F09C8072
:103A3800444B93F85631002B09D14848FEF744FC13
:103A48004748FEF773FC3F4B012283F85621BB1D04
:103A5800424A19460020FEF745FC3B1D404A1946DC
:103A68000220FEF771FCFA88BB8813439AB2394BDF
:103A7800DB8F13439AB2324BA3F87420314BD86DC5
:103A880003234FF470620221FDF72CFC0346FB80F0
:103A9800FB88002B0FD14FF480412D48FEF75AFACE
:103AA800284BD86D0A230193012300930123012297
:103AB8002C49FDF712FD234BD86803234FF470629D
:103AC8000221FDF70FFC0346FB80FB88002B0FD17A
:103AD8001C4BD868B91D01230193012300930123CE
:103AE8000122FDF799FD4FF480411948FEF724FAA9
:103AF800144B93F94B3187F8843097F8843087F862
:103B08009B3097F88430042B13D801A252F823F085
:103B18002D3B00083B3B00083B3B0008353B0008B9
:103B28003B3B0008022387F89B3002E0012387F81B
:103B38009B3097F99B20034B83F84B2118E000BF7B
:103B48004802002008030020CC060020C4060020FC
:103B580000080240A0420108C0020020BC06002064
:103B6800B4060020BC020020A94B002283F856218D
:103B780097F88630002B00F00A81A64BD3E90E0196
:103B88004FF000024FF00003FCF746FF0346002BFE
:103B980057D09F4B93F85031002B09D19E48FEF720
:103BA80093FB9E48FEF7C2FB994B012283F85021F4
:103BB8009B499C48FEF790FEBB1D974A1946012079
:103BC800FEF790FB3B1D954A19460120FEF7BCFB0A
:103BD800FA88BB8813439AB2934BDB8E13439AB28D
:103BE8008C4BA3F86A208B4BB3F86A308F49184680
:103BF800FEF72EFF864B93F9453187F8833097F807
:103C0800833087F89A3097F88330042B13D801A2B1
:103C180052F823F0313C00083F3C00083F3C0008C4
:103C2800393C00083F3C0008022387F89A3002E03C
:103C3800012387F89A3097F99A20754B83F8452124
:103C48001CE0734B93F85031002B17D00023C7F8B2
:103C5800AC300BE06F4AD7F8AC304033002122F883
:103C68001310D7F8AC300133C7F8AC30D7F8AC3004
:103C78000E2BEFDD664B002283F85021654BD3E90C
:103C88000C014FF000024FF00003FCF7C5FE03469D
:103C9800002B5ED05E4B93F85131002B09D164485C
:103CA800FEF712FB6348FEF741FB594B012283F8EC
:103CB800512161496148FEF70FFEBB1D5C4A194658
:103CC8000120FEF70FFB3B1D5A4A19460020FEF75C
:103CD8003BFBFA88BB8813439AB2534B1B8F1343A1
:103CE8009AB24C4BA3F86C204A4BB3F86C20494B62
:103CF800A3F86E20474BB3F86E3051491846FEF7CB
:103D0800A7FE434B93F9463187F8823097F8823003
:103D180087F8993097F88230042B14D801A252F80A
:103D280023F000BF413D00084F3D00084F3D00080B
:103D3800493D00084F3D0008022387F8993002E00A
:103D4800012387F8993097F99920314B83F8462158
:103D58001DE02F4B93F85131002B18D00023C7F8E2
:103D6800AC300CE02B4AD7F8AC304C335B00134432
:103D78000022DA80D7F8AC300133C7F8AC30D7F876
:103D8800AC300E2BEEDD224B002283F85121214B63
:103D9800D3E90E014FF000024FF00003FCF73CFEA0
:103DA8000346002B54D01A4B012283F8542125498D
:103DB8002548FEF7D1FC25494FF41040FEF70AFCD0
:103DC800134B93F9493187F8813097F8813087F898
:103DD800983097F88130042B13D801A252F823F0B9
:103DE800FD3D00080B3E00080B3E0008053E00089C
:103DF8000B3E0008022387F8983002E0012387F879
:103E0800983097F99820024B83F849212DE000BF9C
:103E18000803002048020020C4040020BC0400203D
:103E280090040020C8020020A04201086404002079
:103E38002C05002024050020F8040020E6020020BC
:103E4800CC0400202006002006030020F4050020F2
:103E5800A04B93F85431002B07D09F4B0022A3F8B6
:103E6800BE209C4B002283F854219B4BD3E91601BA
:103E78004FF000024FF00003FCF7CEFD0346002B85
:103E880033D0944B012283F8522194499448FEF789
:103E980063FC94494FF41840FEF79CFB8D4B93F953
:103EA800473187F8803097F8803087F8973097F84F
:103EB8008030042B13D801A252F823F0D93E000811
:103EC800E73E0008E73E0008E13E0008E73E00083C
:103ED800022387F8973002E0012387F8973097F993
:103EE80097207C4B83F847210CE07A4B93F85231AA
:103EF800002B07D0784B0022A3F8BC20754B00227A
:103F080083F85221744BB3F8BC3041F60402934253
:103F18000CBF01230023DBB21A466F4B83F87C20C9
:103F28006D4BB3F8BE3041F2505293420CBF01239F
:103F38000023DBB21A46684B83F87D20664BD3E931
:103F48000C014FF000024FF00003FCF765FD03463B
:103F5800002B56D05F4B93F85531002B09D162489E
:103F6800FEF7B2F96148FEF7E1F95A4B012283F8EE
:103F780055215F48FEF772FABB1D5B4A19460120BE
:103F8800FEF7B0F93B1D594A19460220FEF7DCF945
:103F9800FA88BB8813439AB2564B9B8F13439AB245
:103FA8004D4BA3F872204C4BB3F872305249184667
:103FB800FEF710FB474B93F94A3187F87F3097F8A3
:103FC8007F3087F8963097F87F30042B13D801A2FA
:103FD80052F823F0F13F0008FF3F0008FF3F0008B8
:103FE800F93F0008FF3F0008022387F8963002E0F7
:103FF800012387F8963097F99620364B83F84A21A3
:1040080003E0344B002283F85521334BD3E91401E4
:104018004FF000024FF00003FCF7FEFC0346002BB4
:1040280074D02C4B93F85331002B09D13348FEF749
:104038004BF93348FEF77AF9264B012283F85321CE
:104048003048FEF70BFABB1D2C4A19460120FEF733
:1040580049F93B1D2A4A19460320FEF775F9FA88E3
:10406800BB8813439AB2234B5B8F13439AB21A4B04
:10407800A3F87020184BB3F8703023491846FEF7A0
:10408800A9FA144B93F9483187F87E3097F87E30B7
:1040980087F8953097F87E30042B14D801A252F88F
:1040A80023F000BFC1400008CF400008CF400008FF
:1040B800C9400008CF400008022387F8953002E085
:1040C800012387F8953097F99520024B83F848210A
:1040D80020E000BF080300204802002060050020FF
:1040E8000403002034050020AC060020A4060020AC
:1040F80078060020A04201084C060020EC050020AC
:10410800E4050020B80500208C050020C44B0022DF
:1041180083F85321C34BB3F84630002B0CBF01235F
:104128000023DBB287F87D3097F87D30002B14D060
:10413800BD4BD3E9100101231C464FF000024FF09C
:104148000003FCF769FC0346002B01D100231C4641
:10415800E3B21A46B24B83F85921B14B93F859315F
:10416800002B45D0AE4B93F8C930002B03D0AC4B95
:10417800002283F8C920AA4BD3F8CC30BA1D0421F9
:1041880018460CF02AFFFB881846FCF73BF9A2A357
:10419800D3E90023FCF7B0F902460B46A249C1E96E
:1041A80004239F4B93F94E3187F87C3097F87C3085
:1041B80087F8943097F87C30042B14D801A252F871
:1041C80023F000BFE1410008EF410008EF4100087B
:1041D800E9410008EF410008022387F8943002E023
:1041E800012387F8943097F994208D4B83F84E215A
:1041F80097F87D30002B14D08B4BD3E912010123A3
:104208001C464FF000024FF00003FCF705FC034684
:10421800002B01D100231C46E3B21A46804B83F8D9
:1042280058217F4B93F85831002B45D07C4B93F89D
:10423800B930002B03D07A4B002283F8B920784B91
:10424800D3F8BC30BA1D042118460CF0C6FEFB8812
:104258001846FCF7D7F870A3D3E90023FCF74CF90C
:1042680002460B467049C1E902236D4B93F94D3163
:1042780087F87B3097F87B3087F8933097F87B3056
:10428800042B14D801A252F823F000BFA942000859
:10429800B7420008B7420008B1420008B742000818
:1042A800022387F8933002E0012387F8933097F9C7
:1042B80093205B4B83F84D215C4B7B6700233B6766
:1042C800594BD3E906014FF000024FF00003FCF709
:1042D8007BFB0346002B04D14FF48053C7F8A8306A
:1042E80002E00023C7F8A830D7F8A8203B6F02FAED
:1042F80003F3C7F8A8304FF480523B6F02FA03F378
:10430800FB66D7F8A810786FFDF716FED7F8A83027
:10431800DA43FB6E13401946786FFDF71BFE97F8DA
:104328008630002B00F094803F4BD3E918014FF002
:1043380000024FF00003FCF76FFB0346002B00F070
:1043480087803B4BBB66364BD3F8E83044F6206198
:1043580018460CF081FBC7F8A800314BD3F8E830B9
:10436800D7F8A8101846FDF749FE2D4BD3F8E830CA
:10437800304A128E07EE902AF8EE677AB0EE670A96
:104388001846FDF79BFE04233B67396FB86EFDF7AF
:1043980064FD234BD3F8E830264A528E07EE902A64
:1043A800F8EE677AB0EE670A1846FDF79BFE4023E1
:1043B8003B67396FB86EFDF750FD194BD3F8E830FD
:1043C8001C4A928E07EE902AF8EE677AB0EE670ADA
:1043D8001846FDF79BFE4FF480633B67396FB86E54
:1043E800FDF73BFD0E4B93F9443187F8673097F89A
:1043F800673087F8923097F86730042B23D801A2EA
:1044080052F823F0414400084F4400084F44000884
:10441800494400084F440008199001199001993F38
:1044280008030020D80600204802002000040240AB
:1044380000040140A0420108022387F8923002E0FC
:10444800012387F8923097F992206B4B83F8442127
:104458006A4BB3F84830002B20D1674B93F8A9304A
:10446800002B03D0644B002283F8A920624BD3F8B9
:10447800AC30634A042118460CF0AFFD614BB3F829
:1044880068301846FBF7BEFF4FF000025E4BFCF7A2
:1044980033F802460B465B49C1E90023594B93F8B0
:1044A8007D20554B83F84221564B93F87C20524B84
:1044B80083F84321002387F86630504BD3E908235B
:1044C800C7E9162397ED160B0020FDF795FB034669
:1044D80087F86630494BB3F84630002B18D10023D3
:1044E80087F85730454B9B6B1846FBF78BFF3EA36D
:1044F800D3E90023FCF700F802460B46C7E912236C
:1045080097ED120B0120FDF777FB034687F857302C
:104518003A4BB3F84830002B18D1002387F84730BE
:10452800364BDB6B1846FBF76DFF31A3D3E900234D
:10453800FBF7E2FF02460B46C7E90E2397ED0E0B89
:104548000220FDF759FB034687F847302B4BB3F899
:104558004A30002B13D1002387F83730274B1B6CC8
:104568001846FBF74FFF02460B46C7E90A2397EDAB
:104578000A0B0320FDF740FB034687F837301F4B33
:104588009A6A01329A629B6A1846FBF73BFF1B4BFB
:10459800D3E90C23194CFBF7AFFF02460B46C4E9DD
:1045A8000823164BB3F84630002B03D1134B9A6BF4
:1045B80001329A63114BB3F84830002B03D10F4BEB
:1045C800DA6B0132DA630D4BB3F84A30002B03D1B2
:1045D8000A4B1A6C01321A64FDF72CFE00BFB4377F
:1045E800BD4690BDAFF30080FCA9F1D24D62503FAB
:1045F8009A9999999999B93F08030020D8060020FB
:10460800B0020020480200200000903F0000000097
:1046180080B500AF96494FF00002964BC1E91423CC
:10462800934991A3D3E90023C1E90C23904B924A03
:104638009A608F4B914ADA608D4B914A1A618C4B84
:10464800904A5A618A4B904A5A608F4B8F4A1A6037
:104658008E4B8F4A1A608D4B8D4A5A608B4B8D4A10
:104668009A608A4B8B4ADA60884B8B4A1A61874B6F
:10467800894A5A61854B864A9A61844B844ADA6131
:10468800824B834A1A62814B844A5A627F4B834A1F
:104698009A627E4B814ADA627C4B804A1A637B4B72
:1046A8007E4A5A63794B7D4A9A63784B7B4ADA6330
:1046B800764B7B4A1A64754B794A5A64734B784A2D
:1046C8009A64724B764ADA64704B754A1A656F4B76
:1046D800734A5A656D4B724A9A656C4B6C4ADA6537
:1046E8006A4B704A1A66694B6E4A5A66674B6D4A3E
:1046F8009A66664B6B4ADA66644B6A4A1A67634B7A
:10470800684A5A67614B674A9A67604B664ADA6734
:104718005E4B654AC3F880205C4B634AC3F884202B
:104728005A4B624AC3F88820584B604AC3F88C2019
:10473800564B5E4AC3F89020544B5C4AC3F8942009
:10474800524B5A4AC3F89820504B584AC3F89C20F9
:104758004E4B564AC3F8A0204C4B554AC3F8A420E8
:104768004A4B534AC3F8A820484B514AC3F8AC20D7
:10477800464B474AC3F8B020444B4E4AC3F8B420CE
:10478800424B4C4AC3F8B820404B4A4AC3F8BC20B5
:104798003E4B484AC3F8C0203C4B464AC3F8C420A5
:1047A8003A4B444AC3F8C820384B424AC3F8CC2095
:1047B800364B414AC3F8D020344B3F4AC3F8D42083
:1047C800324B3D4AC3F8D820304B3B4AC3F8DC2073
:1047D8002E4B394AC3F8E0202C4B374AC3F8E42063
:1047E8002A4B354AC3F8E820284B344AC3F8EC2052
:1047F800264B324AC3F8F020244B254AC3F8F4204C
:104808001B4A1B4B5B6818329A60194A184B5B6845
:1048180008325A60164A164B5B682032DA6028481C
:10482800FDF744FD2748FDF773FD274B0022DA62A8
:10483800254B002283F828202448FEF757F9224BFD
:10484800002283F87820204B002283F880201E4B1A
:104858000122DA671E48FEF7A7F91B4B012283F8ED
:10486800802037E0AFF300802D431CEBE2361A3F7F
:10487800D806002000005940C9933EECA5BF17AFE9
:10488800B157F399E4444904380700204C07002045
:104898009C420108560400205504002054040020BE
:1048A800530400205204002051040020500400202A
:1048B8004F0400204E0400204D0400204C0400202A
:1048C800CC060020C4060020080300203003002086
:1048D800800300204F48FDF7E9FC4F48FDF718FD1D
:1048E8004E4B002283F850204C4B002283F858206E
:1048F8004A4B01225A654A48FEF756F9474B0122AE
:1049080083F85820454B00225A60444B00221A7005
:104918004248FEF79DF94348FDF7C8FC4248FDF7B9
:10492800F7FC4248FDF7C2FF4148FEF775F84148D9
:10493800FDF7BCFC4048FDF7EBFC4048FDF7B6FF2F
:104948003F48FEF769F83F48FDF7F0FE3E48FDF79F
:1049580025FE3E48FDF7EAFE3D48FDF71FFE3D48AF
:10496800FDF7A4FC3C48FDF7D3FC3C48FDF760FD8F
:104978003B48FDF713FE3B48FDF798FC3A48FDF726
:10498800C7FC3A48FDF754FD3948FDF707FE234BAD
:104998000022C3F8C420214B002283F8C0203548E8
:1049A800FEF7B4F91D4B0022C3F8B4201B4B0022BC
:1049B80083F8B0203048FEF7EBF9184B002283F853
:1049C800D020164B0122C3F8D420144B012283F8BF
:1049D800D820124B002283F8DC20104B002283F8E9
:1049E800E4200E4B0122C3F8E0202448FEF712FA17
:1049F8000A4B012283F8E420084B0022C3F8A420C4
:104A0800064B002283F8A0201D48FEF745FA00BF98
:104A180080BD00BFBC060020B406002008030020AB
:104A280058030020C4040020BC0400209004002087
:104A3800640400202C05002024050020F804002030
:104A4800CC04002020060020F4050020600500208A
:104A580034050020AC060020A406002078060020BB
:104A68004C060020EC050020E4050020B8050020D5
:104A78008C050020C8030020B8030020E4030020B0
:104A8800A803002080B584B002AF964B93F8283075
:104A9800002B18D1934B012283F82820914BDB6A15
:104AA800012B10D18F4B93F83030002B0BD04FF0E7
:104AB800FF337B608B4B586B0E2300937B687A68BF
:104AC8007968FCF721FF874B93F87830002B19D1D0
:104AD800844B012283F87820824BDB6F012B11D1A4
:104AE800804B93F88030002B0CD04FF0FF337B6065
:104AF8007C4BD3F884000E2300937B687A6879682E
:104B0800FCF702FF774B93F85030002B18D1754B08
:104B1800012283F85020734B5B6D012B10D1714B30
:104B280093F85830002B0BD04FF0FF337B606D4B60
:104B3800D86D0E2300937B687A687968FCF7E4FEE9
:104B4800684B1B78002B16D1664B01221A70654BF7
:104B58005B68012B0FD1634B1B7A002B0BD04FF0F6
:104B6800FF337B605F4BD8680E2300937B687A68BD
:104B78007968FCF7C9FE5C48FDF7D6FE5B48FDF78F
:104B880091FF5B48FDF7D0FE5A48FDF78BFF5A4866
:104B9800FDF70AFE5948FDF747FD5948FDF704FEA1
:104BA8005848FDF741FD5848FDF780FC5748FDF788
:104BB8003BFD5748FDF77AFC5648FDF735FD494B54
:104BC80093F8C030002B15D1464B012283F8C02042
:104BD800444BD3F8C430012B0CD1424B93F8C83066
:104BE800002B07D03F4BD3F8CC30012201211846C7
:104BF8000CF078FA3B4B93F8B030002B15D1394BB9
:104C0800012283F8B020374BD3F8B430012B0CD1F4
:104C1800344B93F8B830002B07D0324BD3F8BC3064
:104C28000122012118460CF05DFA2E4B93F8D03082
:104C3800002B03D12B4B012283F8D020294B93F86A
:104C4800DC30002B2FD1274B012283F8DC20254BA9
:104C5800D3F8E030012B26D1224B93F8E430002B17
:104C680021D0204BD3F8E8301846FDF7D5FA1D4B74
:104C7800D3F8E830002118460BF092FC194BD3F812
:104C8800E830042118460BF061FD164BD3F8E830E4
:104C9800042118460BF0D2FD124BD3F8E83004215A
:104CA80018460BF047FE0F4B93F8A030002B15D198
:104CB8000C4B012283F8A0200A4BD3F8A430012B17
:104CC8000CD1084B93F8A830002B07D0054BD3F82C
:104CD800AC300122012118460CF004FA00BF083755
:104CE800BD4680BD08030020900400206404002015
:104CF800F8040020CC04002020060020F405002041
:104D08006005002034050020780600204C060020AD
:104D1800B80500208C05002080B500AF0F4B1B782C
:104D28005A1CD1B20D4A1170002B09D00C4B01222C
:104D38001A600A4B1B78013BDAB2084B1A700BE079
:104D480062B600BFFEF7ECF872B600BF034B1B78E3
:104D5800013BDAB2014B1A7080BD00BF4808002041
:104D68004408002080B586B000AF786039605C4B9D
:104D78007B615C4B3B610023FB735B4B00221A7029
:104D88005A4B00221A700AF073FA09F071F907F009
:104D9800F9FB00F0A7FD00F015FE00F0C7FB01F0DD
:104DA8002DFA00F039FC00F09FFF00F097FC00F0AE
:104DB80027FA4F4B1B6800221A6000210020FCF7DD
:104DC80011FE0346FB7397F90F30002B02D097F9B9
:104DD8000F3080E0FFF71CFC72B600BF62B600BF60
:104DE800434B1B685A68424B1B68503319461046A0
:104DF800FCF708FE0346FB7397F90F30002B0DD123
:104E08004FF0FF30FCF792FEFCF7A6FF0346002B9D
:104E180004D0374B1B68012283F8582072B600BFB4
:104E280097ED050A07F06CFCFCF7A2FF0346002B80
:104E38000CD1FCF791FF0346002B07D12C4B1B68C4
:104E480093F85830002B01D1012300E00023DAB297
:104E5800264B1A7062B600BF62B600BF2FE0FCF79F
:104E68004BFF0346FB73FCF783FF0346002B0AD175
:104E7800FCF772FF0346002B05D11D4B1B6893F806
:104E88005830002B01D0012300E00023DAB2164B82
:104E98001A70154B1B78DBB2002B0CBF01230023C3
:104EA800DBB21A46114B1A700F4B1B78DBB2002B82
:104EB80005D0104B1B680F4A23F0010313600B4BFE
:104EC8001B78DBB2002BCAD1FFF7DCFDFCF724FF0F
:104ED80072B600BF002318461837BD4680BD00BF14
:104EE80017B7D13800001043490800204A080020AD
:104EF8009842010810E000E080B485B000AFF86087
:104F0800B9607A600D4ABB6813441B781A46FB687F
:104F180013441B6823F0C0020849BB680B441B7884
:104F28001946FB680B4419467B6813430B6000BFA6
:104F38001437BD465DF8047B704700BFE84201089E
:104F480080B485B000AFF860B9607A600D4ABB687C
:104F580013441B781A46FB6813441B6823F49072A9
:104F68000849BB680B441B781946FB680B44194673
:104F78007B6813430B6000BF1437BD465DF8047BA4
:104F8800704700BFE842010880B485B000AFF86000
:104F9800B9607A600D4ABB6813441B781A46FB68EF
:104FA80013441B6823F400720849BB680B441B7840
:104FB8001946FB680B4419467B6813430B6000BF16
:104FC8001437BD465DF8047B704700BFE84201080E
:104FD80080B485B000AFF860B9607A600D4ABB68EC
:104FE80013441B781A46FB6813441B6823F4806239
:104FF8000849BB680B441B781946FB680B441946E3
:105008007B6813430B6000BF1437BD465DF8047B13
:10501800704700BFE842010880B485B000AFF8606F
:10502800B9607A600D4ABB6813441B781A46FB685E
:1050380013441B6823F4C0520849BB680B441B780F
:105048001946FB680B4419467B6813430B6000BF85
:105058001437BD465DF8047B704700BFE84201087D
:1050680080B485B000AFF860B9607A600D4ABB685B
:1050780013441B781A46FB6813441B6823F4C04288
:105088000849BB680B441B781946FB680B44194652
:105098007B6813430B6000BF1437BD465DF8047B83
:1050A800704700BFE842010880B485B000AFF860DF
:1050B800B9607A600D4ABB6813441B781A46FB68CE
:1050C80013441B6823F440320849BB680B441B781F
:1050D8001946FB680B4419467B6813430B6000BFF5
:1050E8001437BD465DF8047B704700BFE8420108ED
:1050F80080B485B000AFF860B9607A600D4ABB68CB
:1051080013441B781A46FB6813441B6823F060623B
:105118000849BB680B441B781946FB680B441946C1
:105128007B6813430B6000BF1437BD465DF8047BF2
:10513800704700BFE842010880B483B000AF7860D0
:1051480039600C4A3B6813441B781A467B68134441
:105158005B6908493A680A44127811467A680A4431
:1051680023F00403536100BF0C37BD465DF8047B90
:10517800704700BFE842010880B485B000AF78608E
:10518800084B1A6B07497B6813430B63054B1A6B73
:105198007B681340FB60FB6800BF1437BD465DF8B1
:1051A800047B70470038024080B485B000AF786057
:1051B800084B1A6C07497B6813430B64054B1A6C40
:1051C8007B681340FB60FB6800BF1437BD465DF881
:1051D800047B70470038024080B483B000AF786029
:1051E80039607B685B6823F010023B681A437B6870
:1051F8005A6000BF0C37BD465DF8047B704700005D
:1052080080B590B000AF07F1180328220021184696
:105218000CF002FB3B4600221A605A609A60DA6082
:105228001A615A614FF40040FFF7BEFF0420FFF7F0
:10523800A3FF4FF4E0533B6002237B600323BB6072
:105248000023FB6000233B6106237B613B46194634
:10525800424809F032FC002200214148FFF748FF8C
:10526800002200213E48FFF747FE002200213C486B
:10527800FFF71AFF002200213948FFF761FE0022DC
:1052880000213748FFF780FE4FF480620021344840
:10529800FFF79EFE4FF4006200213148FFF7BCFE85
:1052A8004FF4005200212E48FFF7DAFE00212C4867
:1052B800FFF742FF002207212948FFF719FF402284
:1052C80007212748FFF718FE4FF40032072124482A
:1052D800FFF7EAFE002207212148FFF731FE0022EE
:1052E80007211F48FFF750FE4FF4806207211C4832
:1052F800FFF76EFE002207211948FFF78DFE0022F6
:1053080007211748FFF7ACFE07211548FFF714FFE0
:105318000023BB614FF48273FB614FF400633B626F
:1053280000237B620123BB624FF40073FB621023EE
:105338003B6300237B630023BB630A23FB6307F102
:1053480018031946074809F0F8FF00210548FFF738
:1053580043FF00BF4037BD4680BD00BF0008024084
:1053680000600240003C004080B489B000AFF860A3
:10537800B9607A60FB682C331946BB6803F4407344
:105388004FF440727A617A6992FAA2F23A613A6904
:10539800BA61BA69002A01D1202203E0BA69B2FAD7
:1053A80082F2D2B2D3409B000B44FB61FB691A68BE
:1053B800BB6803F01F031F2101FA03F3DB431A4004
:1053C8007B6803F01F01BB6803F01F0301FA03F3B6
:1053D8001A43FB691A6000BF2437BD465DF8047B99
:1053E800704780B483B000AF786039607B689B6891
:1053F80023F480623B681A437B689A6000BF0C37CD
:10540800BD465DF8047B704780B48FB000AFF8608C
:10541800B9607A60FB680C331946BB6803F0007307
:105428004FF000727A617A6992FAA2F23A613A69A7
:10543800BA61BA69002A01D1202203E0BA69B2FA36
:1054480082F2D2B2D3409B000B447B637B6B1A6819
:10545800BB6803F0F8734FF0F8713962396A91FA52
:10546800A1F1F961F9697962796A002901D12021EC
:1054780003E0796AB1FA81F1C9B2CB40072101FA98
:1054880003F3DB431A40BB6803F0F8734FF0F8717D
:10549800F962F96A91FAA1F1B962B96A3963396BAB
:1054A800002901D1202103E0396BB1FA81F1C9B299
:1054B800CB40796801FA03F31A437B6B1A6000BF8B
:1054C8003C37BD465DF8047B7047000080B485B06A
:1054D80000AF7860084B1A6B07497B6813430B636E
:1054E800054B1A6B7B681340FB60FB6800BF1437E1
:1054F800BD465DF8047B70470038024080B485B033
:1055080000AF7860084B5A6C07497B6813434B64BB
:10551800054B5A6C7B681340FB60FB6800BF14376F
:10552800BD465DF8047B70470038024080B592B0F4
:1055380000AF07F13C0300221A605A609A6007F135
:10554800280300221A605A609A60DA601A6107F12B
:10555800180300221A605A609A60DA603B460022FB
:105568001A605A609A60DA601A615A614FF4807062
:10557800FFF7C4FF0120FFF7A9FF40233B60032387
:105588007B6000233B613B4619461F4809F095FAAA
:105598000023FB6300233B6400237B6407F13C0387
:1055A80019461A4809F078FB0023BB620023FB6206
:1055B80000233B6300237B630023BB6307F12803BD
:1055C8001946124809F094FB4FF480610F48FFF721
:1055D80008FF4FF48033BB610023FB6107F1180318
:1055E80019460B4809F010FB0A4A4FF400710748A6
:1055F800FFF7BAFE002207490448FFF705FF00BF7E
:105608004837BD4680BD00BF000002400020014071
:10561800002301400600200380B58EB000AF07F1DB
:105628002C0300221A605A609A6007F118030022BE
:105638001A605A609A60DA601A613B4600221A6062
:105648005A609A60DA601A615A614FF40070FFF785
:1056580055FF0420FFF73AFF04233B6003237B60D8
:1056680000233B613B461946194809F026FA0023F6
:10567800FB6200233B6300237B6307F12C0319467D
:10568800144809F009FB0023BB610023FB610023D8
:105698003B6200237B620023BB6207F118031946B3
:1056A8000C4809F025FB4FF480610A48FFF799FE82
:1056B800094A4FF400710748FFF756FE00220649D1
:1056C8000448FFF7A1FE00BF3837BD4680BD00BFC4
:1056D80000080240002101400C00600080B58EB037
:1056E80000AF07F12C0300221A605A609A6007F194
:1056F800180300221A605A609A60DA601A613B4601
:1057080000221A605A609A60DA601A615A614FF48E
:105718008060FFF7F3FE0420FFF7D8FE08233B6004
:1057280003237B6000233B613B461946194809F077
:10573800C4F90023FB6200233B6300237B6307F16A
:105748002C031946144809F0A7FA0023BB6100236B
:10575800FB6100233B6200237B620023BB6207F1ED
:10576800180319460C4809F0C3FA4FF480610A4837
:10577800FFF737FE094A4FF400710748FFF7F4FDB9
:10578800002206490448FFF73FFE00BF3837BD46F0
:1057980080BD00BF00080240002201400D009000BB
:1057A80080B400AF044BDB681B0A03F007031846FC
:1057B800BD465DF8047B704700ED00E080B483B01F
:1057C80000AF0346FB7197F90730002B0BDBFB7921
:1057D80003F01F02074997F907305B09012000FA17
:1057E80002F241F8232000BF0C37BD465DF8047B68
:1057F800704700BF00E100E080B483B000AF03460B
:105808003960FB7197F90730002B0ADB3B68DAB285
:105818000C4997F907301201D2B20B4483F80023E0
:105828000AE03B68DAB20849FB7903F00F03043B4E
:105838001201D2B20B441A7600BF0C37BD465DF890
:10584800047B704700E100E000ED00E080B489B01F
:1058580000AFF860B9607A60FB6803F00703FB618A
:10586800FB69C3F10703042B28BF0423BB61FB6951
:105878000433062B02D9FB69033B00E000237B615C
:105888004FF0FF32BB6902FA03F3DA43BB681A40F0
:105898007B699A404FF0FF317B6901FA03F3D943E2
:1058A8007B680B40134318462437BD465DF8047BDC
:1058B8007047000080B485B000AF7860084B1A6B61
:1058C80007497B6813430B63054B1A6B7B681340CE
:1058D800FB60FB6800BF1437BD465DF8047B70476A
:1058E8000038024080B500AF4FF40010FFF7E2FF28
:1058F800FFF756FF0346002200211846FFF7A6FFD0
:10590800034619460B20FFF777FF0B20FFF756FFDA
:10591800FFF746FF0346002200211846FFF796FFCF
:10592800034619461020FFF767FF1020FFF746FFD0
:10593800FFF736FF0346002200211846FFF786FFCF
:10594800034619461120FFF757FF1120FFF736FFCE
:10595800FFF726FF0346002200211846FFF776FFCF
:10596800034619462F20FFF747FF2F20FFF726FF92
:1059780000BF80BD80B485B000AF7860084B1A6B5B
:1059880007497B6813430B63054B1A6B7B6813400D
:10599800FB60FB6800BF1437BD465DF8047B7047A9
:1059A8000038024080B483B000AF786039603B684B
:1059B8001A047B689A6100BF0C37BD465DF8047B0A
:1059C8007047000080B586B000AF3B4600221A60E1
:1059D8005A609A60DA601A615A610420FFF7CAFFB8
:1059E8008020FFF7C7FF0120FFF7C4FF0220FFF761
:1059F800C1FF44F210011648FFF7D4FF4FF480515D
:105A08001448FFF7CFFF44F210033B6001237B608B
:105A18000023BB600023FB6000233B613B46194623
:105A28000B4809F04AF84FF480533B6001237B6030
:105A38000023BB600023FB6000233B613B46194603
:105A4800044809F03AF800BF1837BD4680BD00BFCA
:105A5800000802400004024080B485B000AF7860BE
:105A6800084B1A6B07497B6813430B63054B1A6B8A
:105A78007B681340FB60FB6800BF1437BD465DF8C8
:105A8800047B70470038024080B485B000AF78606E
:105A9800084B5A6C07497B6813434B64054B5A6C97
:105AA8007B681340FB60FB6800BF1437BD465DF898
:105AB800047B70470038024080B483B000AF786040
:105AC8007B681B6823F080027B681A6000BF0C3774
