:020000040800F2
:1000000000000220F1CE000811B0000819B000086D
:1000100021B0000829B0000831B00008000000003D
:100020000000000000000000000000003987000808
:1000300039B0000800000000F58600082586000899
:1000400041CF000841CF000841CF000841CF000850
:1000500041CF000841CF000841CF000841CF000840
:1000600041CF000841CF000841CF000841CF000830
:1000700041CF000841CF000841CF000841CF000820
:10008000E9970008C997000841CF000841CF000850
:1000900041CF000841CF000841CF000841CF000800
:1000A00041CF000849B0000841CF000841CF000807
:1000B00041CF000841CF000841CF000841CF0008E0
:1000C00041CF000841CF000841CF000841CF0008D0
:1000D00041CF000841CF0008B597000841CF000884
:1000E00041CF000841CF000841CF000841CF0008B0
:1000F00041CF000841CF000841CF000841CF0008A0
:1001000041CF000841CF000841CF000841CF00088F
:1001100041CF000841CF000841CF000841CF00087F
:1001200041CF000841CF000841CF000841CF00086F
:1001300041CF0008000000000000000041CF00088F
:1001400041CF000841CF000841CF000841CF00084F
:1001500041CF000841CF000841CF000841CF00083F
:1001600041CF000841CF000841CF000841CF00082F
:1001700041CF000841CF000800000000000000004F
:0801800041CF000841CF000847
:1001880081F0004102E000BF83F0004330B54FEA40
:1001980041044FEA430594EA050F08BF90EA020FAD
:1001A8001FBF54EA000C55EA020C7FEA645C7FEA40
:1001B800655C00F0E2804FEA5454D4EB5555B8BF63
:1001C8006D420CDD2C4480EA020281EA030382EAD4
:1001D800000083EA010180EA020281EA0303362D66
:1001E80088BF30BD11F0004F4FEA01314FF4801C39
:1001F8004CEA113102D0404261EB410113F0004F4B
:100208004FEA03334CEA133302D0524263EB430301
:1002180094EA050F00F0A780A4F10104D5F1200E9F
:100228000DDB02FA0EFC22FA05F2801841F10001FA
:1002380003FA0EF2801843FA05F359410EE0A5F1CE
:1002480020050EF1200E012A03FA0EFC28BF4CF0FF
:10025800020C43FA05F3C01851EBE37101F00045B5
:1002680007D54FF0000EDCF1000C7EEB00006EEBC2
:100278000101B1F5801F1BD3B1F5001F0CD349084C
:100288005FEA30004FEA3C0C04F101044FEA4452A3
:1002980012F5800F80F09A80BCF1004F08BF5FEA2A
:1002A800500C50F1000041EB045141EA050130BD0A
:1002B8005FEA4C0C404141EB0101013C28BFB1F51C
:1002C800801FE9D291F0000F04BF01460020B1FA67
:1002D80081F308BF2033A3F10B03B3F120020CDA3A
:1002E8000C3208DD02F1140CC2F10C0201FA0CF018
:1002F80021FA02F10CE002F11402D8BFC2F1200C7D
:1003080001FA02F120FA0CFCDCBF41EA0C01904032
:10031800E41AA2BF01EB0451294330BD6FEA04047B
:100328001F3C1CDA0C340EDC04F11404C4F1200266
:1003380020FA04F001FA02F340EA030021FA04F378
:1003480045EA030130BDC4F10C04C4F1200220FACF
:1003580002F001FA04F340EA0300294630BD21FA0D
:1003680004F0294630BD94F0000F83F4801306BFD3
:1003780081F480110134013D4EE77FEA645C18BFC7
:100388007FEA655C29D094EA050F08BF90EA020F5E
:1003980005D054EA000C04BF1946104630BD91EA56
:1003A800030F1EBF0021002030BD5FEA545C05D159
:1003B8004000494128BF41F0004130BD14F5800498
:1003C8003CBF01F5801130BD01F0004545F0FE410C
:1003D80041F470014FF0000030BD7FEA645C1ABF41
:1003E800194610467FEA655C1CBF0B46024650EA78
:1003F800013406BF52EA033591EA030F41F40021A4
:1004080030BD00BF90F0000F04BF0021704730B529
:100418004FF4806404F132044FF000054FF00001FE
:1004280050E700BF90F0000F04BF0021704730B5BF
:100438004FF4806404F1320410F0004548BF404294
:100448004FF000013EE700BF42004FEAE2014FEAE9
:1004580031014FEA02701FBF12F07F4393F07F4FC4
:1004680081F06051704732F07F4208BF704793F0C7
:100478007F4F04BF41F40021704730B54FF46074DA
:1004880001F0004521F000411CE700BF50EA0102DD
:1004980008BF704730B54FF000050AE050EA010286
:1004A80008BF704730B511F0004502D5404261EBF6
:1004B80041014FF4806404F132045FEA915C3FF437
:1004C800D8AE4FF003025FEADC0C18BF03325FEAD4
:1004D800DC0C18BF033202EBDC02C2F1200300FA85
:1004E80003FC20FA02F001FA03FE40EA0E0021FAAA
:1004F80002F11444BDE600BF70B54FF0FF0C4CF498
:10050800E06C1CEA11541DBF1CEA135594EA0C0F49
:1005180095EA0C0F00F0DEF82C4481EA030621EA84
:100528004C5123EA4C5350EA013518BF52EA0335BF
:1005380041F4801143F4801338D0A0FB02CE4FF071
:100548000005E1FB02E506F00042E0FB03E54FF0A1
:100558000006E1FB03569CF0000F18BF4EF0010E99
:10056800A4F1FF04B6F5007F64F5407404D25FEA95
:100578004E0E6D4146EB060642EAC62141EA555148
:100588004FEAC52040EA5E504FEACE2EB4F1FD0C8A
:1005980088BFBCF5E06F1ED8BEF1004F08BF5FEA08
:1005A800500E50F1000041EB045170BD06F00046BA
:1005B80046EA010140EA020081EA0301B4EB5C0467
:1005C800C2BFD4EB0C0541EA045170BD41F480115F
:1005D8004FF0000E013C00F3AB8014F1360FDEBF84
:1005E800002001F0004170BDC4F10004203C35DA60
:1005F8000C341BDC04F11404C4F1200500FA05F3E3
:1006080020FA04F001FA05F240EA020001F0004283
:1006180021F0004110EBD37021FA04F642EB0601F9
:100628005EEA430E08BF20EAD37070BDC4F10C0423
:10063800C4F1200500FA04F320FA05F001FA04F2E7
:1006480040EA020001F0004110EBD37041F10001D3
:100658005EEA430E08BF20EAD37070BDC4F12005DE
:1006680000FA05F24EEA020E20FA04F301FA05F246
:1006780043EA020321FA04F001F0004121FA04F2EE
:1006880020EA020000EBD3705EEA430E08BF20EABE
:10069800D37070BD94F0000F0FD101F000464000F8
:1006A80041EB010111F4801F08BF013CF7D041EA7A
:1006B800060195F0000F18BF704703F0004652007E
:1006C80043EB030313F4801F08BF013DF7D043EA4F
:1006D8000603704794EA0C0F0CEA135518BF95EA05
:1006E8000C0F0CD050EA410618BF52EA4306D1D18C
:1006F80081EA030101F000414FF0000070BD50EAAB
:10070800410606BF1046194652EA430619D094EA34
:100718000C0F02D150EA013613D195EA0C0F05D11E
:1007280052EA03361CBF104619460AD181EA030172
:1007380001F0004141F0FE4141F470014FF000002A
:1007480070BD41F0FE4141F4780170BD70B54FF0C5
:10075800FF0C4CF4E06C1CEA11541DBF1CEA135545
:1007680094EA0C0F95EA0C0F00F0A7F8A4EB050427
:1007780081EA030E52EA03354FEA013100F088801E
:100788004FEA03334FF0805545EA131343EA1263E7
:100798004FEA022245EA111545EA10654FEA00269C
:1007A8000EF000419D4208BF964244F1FD0404F555
:1007B800407402D25B084FEA3202B61A65EB0305B1
:1007C8005B084FEA32024FF480104FF4002CB6EB6E
:1007D800020E75EB030E22BFB61A754640EA0C00EE
:1007E8005B084FEA3202B6EB020E75EB030E22BF2E
:1007F800B61A754640EA5C005B084FEA3202B6EB6F
:10080800020E75EB030E22BFB61A754640EA9C002D
:100818005B084FEA3202B6EB020E75EB030E22BFFD
:10082800B61A754640EADC0055EA060E18D04FEABB
:10083800051545EA16754FEA06164FEAC30343EA5B
:1008480052734FEAC2025FEA1C1CC0D111F4801F28
:100858000BD141EA00014FF000004FF0004CB6E721
:1008680011F4801F04BF01430020B4F1FD0C88BFC0
:10087800BCF5E06F3FF6AFAEB5EB030C04BFB6EBCB
:10088800020C5FEA500C50F1000041EB045170BDBE
:100898000EF0004E4EEA113114EB5C04C2BFD4EBEB
:1008A8000C0541EA045170BD41F480114FF0000E6F
:1008B800013C90E645EA060E8DE60CEA135594EAEB
:1008C8000C0F08BF95EA0C0F3FF43BAF94EA0C0FEE
:1008D8000AD150EA01347FF434AF95EA0C0F7FF463
:1008E80025AF104619462CE795EA0C0F06D152EAB7
:1008F80003353FF4FDAE1046194622E750EA41069B
:1009080018BF52EA43067FF4C5AE50EA41047FF4AB
:100918000DAF52EA43057FF4EBAE12E74FF0FF3C10
:1009280006E000BF4FF0010C02E000BF4FF0010CE1
:100938004DF804CD4FEA410C7FEA6C5C4FEA430C5A
:1009480018BF7FEA6C5C1BD001B050EA410C0CBFA9
:1009580052EA430C91EA030F02BF90EA020F00200B
:10096800704710F1000F91EA030F58BF994208BF72
:1009780090422CBFD8176FEAE37040F0010070472F
:100988004FEA410C7FEA6C5C02D150EA013C07D186
:100998004FEA430C7FEA6C5CD6D152EA033CD3D0D1
:1009A8005DF8040B704700BF8446104662468C46CB
:1009B8001946634600E000BF01B5FFF7B7FF0028FE
:1009C80048BF10F1000F01BD4DF808EDFFF7F4FF27
:1009D8000CBF012000205DF808FB00BF4DF808EDB2
:1009E800FFF7EAFF34BF012000205DF808FB00BFD5
:1009F8004DF808EDFFF7E0FF94BF012000205DF8F7
:100A080008FB00BF4DF808EDFFF7CEFF94BF0120AB
:100A180000205DF808FB00BF4DF808EDFFF7C4FFA4
:100A280034BF012000205DF808FB00BF4FEA410CED
:100A38007FEA6C5C02D150EA013C0AD14FEA430CD0
:100A48007FEA6C5C02D152EA033C02D14FF000000D
:100A580070474FF0010070474FEA410212F500124B
:100A680015D211D56FF47873B3EB625212D94FEAED
:100A7800C12343F0004343EA505311F0004F23FAD7
:100A880002F018BF404270474FF00000704750EA2C
:100A9800013005D111F0004008BF6FF000407047E9
:100AA8004FF00000704700BF4A0011D212F5001243
:100AB80011D20DD56FF47873B3EB62520ED44FEAAE
:100AC800C12343F0004343EA505323FA02F070472E
:100AD8004FF00000704750EA013002D14FF0FF306C
:100AE80070474FF00000704753B94AB9002908BF52
:100AF80000281CBF4FF0FF314FF0FF3000F00CB85A
:100B0800ADF1080C6DE904CE0CF058FCDDF804E0FA
:100B1800DDE9022304B07047704700BF844641EA0C
:100B2800000313F003036DD1403A41D351F8043B5D
:100B380040F8043B51F8043B40F8043B51F8043BAF
:100B480040F8043B51F8043B40F8043B51F8043B9F
:100B580040F8043B51F8043B40F8043B51F8043B8F
:100B680040F8043B51F8043B40F8043B51F8043B7F
:100B780040F8043B51F8043B40F8043B51F8043B6F
:100B880040F8043B51F8043B40F8043B51F8043B5F
:100B980040F8043B51F8043B40F8043B51F8043B4F
:100BA80040F8043B51F8043B40F8043B403ABDD2BE
:100BB800303211D351F8043B40F8043B51F8043B60
:100BC80040F8043B51F8043B40F8043B51F8043B1F
:100BD80040F8043B103AEDD20C3205D351F8043BEF
:100BE80040F8043B043AF9D2043208D0D2071CBFBB
:100BF80011F8013B00F8013B01D30B8803806046E4
:100C0800704700BF082A13D38B078DD010F0030359
:100C18008AD0C3F10403D21ADB071CBF11F8013BC9
:100C280000F8013B80D331F8023B20F8023B7BE718
:100C3800043AD9D3013A11F8013B00F8013BF9D243
:100C48000B7803704B7843708B78837060467047DD
:100C58000348044B834202D0034B03B11847704743
:100C6800BC010020BC010020000000000548064B24
:100C78001B1AD90F01EBA301491002D0034B03B192
:100C880018477047BC010020BC010020000000008C
:100C980010B5064C237843B9FFF7DAFF044B13B1BC
:100CA8000448AFF300800123237010BDC001002069
:100CB8000000000050D8000808B5054B1BB10549D5
:100CC8000548AFF30080BDE80840FFF7CFBF00BF7D
:100CD80000000000C401002050D8000880B483B090
:100CE80000AF786039600C4A3B6813441B781A4699
:100CF8007B6813441B6808493A680A44127811460D
:100D08007A680A4443F00103136000BF0C37BD46FC
:100D18005DF8047B704700BFF000010880B485B01F
:100D280000AFF860B9607A600D4ABB6813441B785D
:100D38001A46FB6813445B681B0C1B040849BA6815
:100D48000A4412781146FA680A4411467A6813432D
:100D58004B6000BF1437BD465DF8047B704700BF89
:100D6800F000010880B485B000AFF860B9607A601F
:100D78003B60BB69402B14D1174ABB6813441B78EE
:100D88001A46FB6813441A467B68D360124ABB684C
:100D980013441B781A46FB6813441A463B68936051
:100DA80013E00D4ABB6813441B781A46FB681344CA
:100DB8001A467B689360084ABB6813441B781A4636
:100DC800FB6813441A463B68D36000BF1437BD461E
:100DD8005DF8047B704700BFF000010880B483B061
:100DE80000AF786039600C4A3B6813441B781A4698
:100DF8007B6813441B6808493A680A44127811460C
:100E08007A680A4443F01003136000BF0C37BD46EC
:100E18005DF8047B704700BFF000010880B483B020
:100E280000AF78607B681B6843F040027B681A60FB
:100E380000BF0C37BD465DF8047B704780B483B0B3
:100E480000AF78607B681B6823F040027B681A60FB
:100E580000BF0C37BD465DF8047B704780B483B093
:100E680000AF78607B681B6803F04003402B01D11A
:100E7800012300E0002318460C37BD465DF8047BCB
:100E8800704780B483B000AF78607B681B6803F458
:100E9800827318460C37BD465DF8047B704780B4F2
:100EA80083B000AF786039607B681B6823F001026B
:100EB8003B681A437B681A6000BF0C37BD465DF873
:100EC800047B704780B483B000AF78607B681B6890
:100ED80003F0010318460C37BD465DF8047B7047E4
:100EE80080B483B000AF786039607B681B6823F0FA
:100EF80002023B681A437B681A6000BF0C37BD4684
:100F08005DF8047B704780B483B000AF78607B687D
:100F18001B6803F0020318460C37BD465DF8047BD6
:100F2800704780B483B000AF786039607B681B6815
:100F380023F444423B681A437B681A6000BF0C37AD
:100F4800BD465DF8047B704780B483B000AF78601D
:100F58007B681B6803F4444318460C37BD465DF8AC
:100F6800047B704780B483B000AF786039607B68D9
:100F78001B6823F400623B681A437B681A6000BF51
:100F88000C37BD465DF8047B704780B483B000AF72
:100F980078607B681B6803F4006318460C37BD460D
:100FA8005DF8047B704780B483B000AF78607B68DD
:100FB8009B6803F00203022B01D1012300E0002308
:100FC80018460C37BD465DF8047B704780B483B083
:100FD80000AF78607B689B6803F08003802B01D1A9
:100FE800012300E0002318460C37BD465DF8047B5A
:100FF800704780B483B000AF78607B685B6843F06B
:1010080040027B685A6000BF0C37BD465DF8047B20
:10101800704780B483B000AF78607B685B6843F04A
:1010280001027B685A6000BF0C37BD465DF8047B3F
:10103800704780B483B000AF78607B685B6843F02A
:1010480002027B685A6000BF0C37BD465DF8047B1E
:10105800704780B483B000AF78607B680C33184663
:101068000C37BD465DF8047B704780B485B000AF8F
:1010780078600B46FB707B680C33FB60FB68FA7882
:101088001A7000BF1437BD465DF8047B704780B402
:1010980085B000AF78600B467B807B680C33FB60C3
:1010A800FB687A881A8000BF1437BD465DF8047B58
:1010B8007047000080B584B000AF786039600023C5
:1010C800FB600023BB607B68002B0BD03B68002BC8
:1010D80008D07B68BB60BB681B68654A934201D136
:1010E800644BFB60FB68002B00F0BC80BB681A688F
:1010F800FB681A60FB6893F84620BB6893F8463093
:101108001343DAB2FB6883F84620FB6893F844205F
:10111800BB6893F844301343DAB2FB6883F8442081
:10112800FB6893F84520BB6893F845301343DAB25F
:10113800FB6883F84520FB683A68DA61BB6893F876
:10114800463003F00103002B32D0BB689A6AFB6873
:101158009A62BB681A6AFB681A62FB6800225A63C3
:10116800FB6800221A63FB68002283F84020FB68B2
:1011780093F8443003F00403002B05D0FB681B6888
:101188001846FFF736FF13E0FB6893F8443003F086
:101198001003002B0CD0BB685A68FB685A60BB6808
:1011A80093F85420FB6883F85420F86800F02EFA6E
:1011B800BB6893F8463003F00203002B28D0BB68C5
:1011C800DA6AFB68DA62BB685A6AFB685A62FB68CB
:1011D80000229A63FB680022DA63FB6800229A61A6
:1011E800FB68002283F85620FB6893F8453003F02B
:1011F8002003002B0CD0BB689A68FB689A60BB6818
:1012080093F85520FB6883F85520F86800F03FFAFA
:101218003B68FA681A60FB681B681846FFF794FE7B
:101228000346B3F5004F0ED1FB681B681846FFF75D
:1012380028FE0346B3F5827F05D1FB681B68184674
:10124800FFF7FCFD04E0FB681B681846FFF7E6FDA6
:10125800BB681B681A46064B9A4202D000233B60C3
:1012680000E000BF3B6818461037BD4680BD00BF90
:10127800003C0040DC01002080B582B000AF7860FF
:101288000B467B807868FFF75FFE0346B3F5004F97
:101298000BD17B88012B08D1786800F024FA4FF431
:1012A80040417868FFF73DFE11E07868FFF74CFE93
:1012B8000346B3F5404F0AD17B88002B07D17868E5
:1012C80000F011FA4FF400417868FFF72AFE002376
:1012D80018460837BD4680BD80B586B000AFF860B7
:1012E8007A601A460B467B8113467B7200237B612A
:1012F800FB68002B06D0FB681B68002B02D0FB683C
:101308001B687B617B689BB21B0A7B827B897A693D
:10131800134493F84E30002B0CD07B69B3F84C2063
:101328007B7A9BB29A4205D17B695B697A689A425B
:1013380000F0C8807B7A9AB27B69A3F84C207B695D
:101348007A685A617B691B68184600F0CCF97B699A
:10135800B3F84C30002B1CD17B691B681846FFF78B
:10136800B1FD0346002B05D07B691B680021184698
:10137800FFF795FD7B691B681846FFF7C4FD034618
:10138800022B66D07B691B6802211846FFF7A8FD6F
:101398005FE07B69B3F84C30012B1CD17B691B687B
:1013A8001846FFF78FFD0346012B05D07B691B68A4
:1013B80001211846FFF773FD7B691B681846FFF784
:1013C800A2FD0346022B44D07B691B680221184604
:1013D800FFF786FD3DE07B69B3F84C30022B1CD14A
:1013E8007B691B681846FFF76DFD0346002B05D087
:1013F8007B691B6800211846FFF751FD7B691B6854
:101408001846FFF780FD0346002B22D07B691B6836
:1014180000211846FFF764FD1BE07B691B6818462E
:10142800FFF750FD0346012B05D07B691B6801219E
:101438001846FFF734FD7B691B681846FFF763FD04
:101448000346002B05D07B691B6800211846FFF76F
:1014580047FD7B691B681846FFF797FD02467B68C6
:1014680093420CD07B691A687B8A082B01D8002329
:1014780001E04FF4006319461046FFF773FD7B69DE
:101488001B681846FFF760FD0346B3F5004F0ED101
:101498007B691B681846FFF7F4FC0346B3F5827FA7
:1014A80005D17B691B68184600F01DF904E07B69CB
:1014B8001B681846FFF7B2FC7B897A69134401223E
:1014C80083F84E20002318461837BD4680BD80B5E6
:1014D8008AB000AFF860B96011461A460B46FB8027
:1014E8001346BB800023BB840023FB610AF04CFE3B
:1014F800F86100233B62FB68002B06D0FB681B6881
:10150800002B02D0FB681B683B623B6A1B68012109
:101518001846FFF7B1FE0346BB843B8E002B01D172
:1015280000237B633B6A1B681846FFF797FC03465A
:10153800002B04D13B6A1B681846FFF76FFCBB8879
:10154800DBB2002B2CD1BB687B610023FB8422E03B
:101558003B6A1B681846FFF726FD0346012B0CD192
:101568003B6A1868FB8C7A6913441B781946FFF7A5
:101578007CFDFB8C0133FB840DE00121F86906F04A
:10158800C7FF02467B6B934205D2386A00F0F3F836
:101598000346BB8435E0FA8CFB889A42D8D330E006
:1015A800BB88DBB2012B2CD1BB68BB610023FB8459
:1015B80023E03B6A1B681846FFF7F5FC0346012B3E
:1015C8000DD13B6A1868FB8C5B00BA6913441B8811
:1015D8001946FFF75CFDFB8C0133FB840DE001210C
:1015E800F86906F095FF02467B6B934205D2386A8C
:1015F80000F0C1F80346BB8403E0FA8CFB889A42EA
:10160800D7D3BB8C18462837BD4680BDB0B584B04B
:1016180002AF78607B685C687B6893F854301D463D
:101628007B681B681846FFF714FD02467B681B6A37
:101638001946002300930B4629462046FFF792FBE4
:101648007B6858687B6893F8543019467B68DB6977
:101658001B691A46FFF762FB7B685A687B6893F838
:10166800543019461046FFF7B9FB7B681B681846CB
:10167800FFF7CFFC7B685A687B6893F854301946AB
:101688001046FFF72BFB00BF0837BD46B0BDF0B5CD
:1016980085B002AF78607B689C687B6893F85530AA
:1016A8001D467B685B6A1E467B681B681846FFF709
:1016B800D0FC034640220092324629462046FFF7D6
:1016C80051FB7B689A687B6893F855301946104639
:1016D800FFF784FB7B681B681846FFF7AAFC00BF6E
:1016E8000C37BD46F0BD80B582B000AF7860786831
:1016F800FFF7B4FB0346002B2CD07868FFF724FCD7
:101708000346002B0AD100BF7868FFF75FFC034649
:10171800002BF9D17868FFF791FB1BE07868FFF799
:1017280013FC0346B3F5806F06D07868FFF70CFC0E
:101738000346B3F5004F03D17868FFF77FFB09E054
:1017480000BF7868FFF742FC0346002BF9D17868A0
:10175800FFF774FB00BF0837BD4680BD80B485B075
:1017680000AFF860B9607A603B6000BF1437BD46CF
:101778005DF8047B704780B483B000AF78600123C4
:1017880018460C37BD465DF8047B704780B485B0B9
:1017980000AF786039600023FB7397F90F30184663
:1017A8001437BD465DF8047B7047000080B584B0EF
:1017B80000AF786039600023FB727B68002B05D18D
:1017C800374800F066FD4FF0FF3365E03B68002BBB
:1017D80005D1344800F05DFD4FF0FF335CE0324B3B
:1017E800D3E900014FF000024FF04043FFF7ECF857
:1017F8000346002B06D03B68D3E900232A49C1E9F8
:10180800002305E0284BD3E900233968C1E9002308
:10181800254BD3E900014FF00002244BFFF7D4F821
:101828000346002B02D0224800F033FD7B685B683A
:101838001B68204A13607B685B685B681E4A1360FC
:101848007B685B689B681D4A13607B685B68DB6824
:101858001B4A13601B4B00221A6001F0DBF90023BE
:10186800FB600023FB6007E0174AFB68174942F852
:101878002310FB680133FB60FB68012BF4D900F0EF
:1018880009FE0346FB7297F90B30002B02D1104B6F
:1018980001221A7097F90B3018461037BD4680BDE3
:1018A80068D800088CD80008000000200000F0BFAD
:1018B800B8D80008380300203C030020400300206B
:1018C800440300204803002034020020852C00082F
:1018D8003503002080B586B000AF78600023FB7523
:1018E80000233B610023FB732A4B1B78DBB2002BE0
:1018F8000CBF01230023DBB2BB73274B02221A70F3
:101908007B68002B0BD1234B1B78DBB2002B06D155
:10191800224B1B78DBB2002B01D1012300E000230E
:10192800FB7316E00A2006F0B3FD3B6903F51C5370
:1019380010333B617B68B3F1FF3F05D03A697B68A0
:101948009A4201D9012300E00023FB73002000F034
:10195800F9FD104B1B78DBB2002B07D10F4B1B781E
:10196800DBB2002B02D1FB7B002BDBD00A4B03221E
:101978001A70FB7B002B01D09C23FB75BB7B002BD3
:1019880001D001F075FA97F9173018461837BD4697
:1019980080BD00BF3303002035030020340300203E
:1019A80080B588B000AF034687ED000BFB810023AC
:1019B800FB770123BB774FF000024FF00003D7E914
:1019C8000001FFF70BF80346002B05D02F4800F065
:1019D80060FC4FF0FF3355E0FB89FF2B08D9FB89EA
:1019E800FF2219462A4800F054FC4FF0FF3349E023
:1019F800284B1B78DBB2032B04D0264B1B78DBB2B9
:101A0800012B02D1234B04221A70FB89012B15D814
:101A1800FB89214A52F82330002B0FD001F0EAFD50
:101A280003467B777B7F022B08D1FB891A4A52F841
:101A38002330FA89104698470346BB77FB897B8396
:101A4800FB89184697ED000B00F0E2FC7861BB7F3C
:101A5800002B07D07B8B7969184601F0A7FD034658
:101A6800FB7703E07B8B184601F0FFFD97F91F30E9
:101A7800002B05D097F91F301946084800F009FCDB
:101A880097F91F3018462037BD4680BD24D9000875
:101A980068D900083503002034020020A8D90008BE
:101AA80080B582B000AF0023FB71002000F04AFD32
:101AB8000346FB7197F9073018460837BD4680BDC5
:101AC80080B582B000AF0023FB710B4B06221A7061
:101AD80000F0D6FD0346FB710822002107480BF0F1
:101AE800CBFD01F04BF9044B00221A7097F907302F
:101AF80018460837BD4680BD350300203402002053
:101B080080B400AF034B1B78DBB21846BD465DF8C6
:101B1800047B70473403002080B400AF034B1B786C
:101B2800DBB21846BD465DF8047B70474C030020C5
:101B380080B483B000AF786039603B681A047B6872
:101B48009A6100BF0C37BD465DF8047B704780B4CE
:101B580083B000AF78607B684FF0FF321A6000BF37
:101B68000C37BD465DF8047B704780B485B000AF84
:101B78000346B9607A60FB817B684FF0FF321A60D8
:101B8800FB89DB039AB2BB681A8000BF1437BD46D5
:101B98005DF8047B704780B483B000AF78607B68E1
:101BA8004FF0FF321A6000BF0C37BD465DF8047B6A
:101BB800704780B485B000AF0346B9607A60FB8196
:101BC8007B684FF0FF321A60FB89DB029AB2BB6870
:101BD8001A8000BF1437BD465DF8047B70470000CB
:101BE80080B59AB000AF78600023BB620023FB6227
:101BF800234BBB60002387F84E3000233B63002350
:101C08007B63012387F84C30022387F84D3000238B
:101C1800FB60002387F85C3000233B61002387F8D2
:101C28005D307B6800221A617B68164A5A6101237D
:101C380087F867307B680E229A617B68012283F8F7
:101C480024207B6897F867201A777B6801221A623C
:101C58007B6810333B6607F10803396E1846FFF7B7
:101C680029FA02467B68DA607B68D86802234FF459
:101C780070620221FFF730FB00BF6837BD4680BDA8
:101C8800003C004000080240B0B586B002AF3B1DE2
:101C9800794A19460020FFF768FFBB1D774A1946A5
:101CA8000220FFF786FFBA88FB8813439AB2744B69
:101CB8001B8813439AB2734B1A813B1D724A19460B
:101CC8000020FFF752FFBB1D704A19460320FFF79B
:101CD80070FFBA88FB8813439AB2694B5B88134339
:101CE8009AB2684B5A816A4BD3E90A014FF0000255
:101CF800684BFEF74BFA02460B4610461946FEF7AC
:101D0800ABFE0346032B1CD0032B22DC012B02D095
:101D1800022B0BD01DE05B4B1B891846FEF772FBAC
:101D280002460B465749C1E900231AE0554B5B8927
:101D38001846FEF767FB02460B465249C1E90023E5
:101D48000FE050494FF000024FF00003C1E90023B3
:101D580007E04C494FF000024FF00003C1E90023AF
:101D680000BF484B93ED007BB0EE470AF0EE670AE0
:101D78000BF01AF987ED020B97ED020B00F074FADD
:101D88000346002B06D197ED020B00F03FFA0346FD
:101D9800002B06D04FF000024FF00003C7E90223E2
:101DA80007E09FED331B97ED020B0BF0C7F887EDAB
:101DB800020B4FF000024FF00003D7E90201FEF7D3
:101DC8000DFE0346002B0CD0BC68FB6883F0004571
:101DD80020462946FEF768FE03469BB25B429BB24B
:101DE80005E0D7E90201FEF75FFE03469BB2BB8020
:101DF800274BD86802234FF470620221FFF76CFA70
:101E080003461A461F4B9A811E4B9B89002B13D100
:101E18004FF480412048FFF78BFE1D4BD868391DD1
:101E2800012301930023009301230122FFF74FFBB5
:101E380003461A46134B9A8115494FF00002154B79
:101E4800C1E90A23154B9A6A01329A629B6A1846BD
:101E5800FEF7D8FA114BD3E90C23104CFEF74CFBD4
:101E680002460B46C4E9082300BF1037BD46B0BD83
:101E7800000000000000F040A002002098020020AE
:101E88000001010840020020900200208802002082
:101E9800500200200000F03F00080240A802002085
:101EA80080B500AF36494FF00002364BC1E90E232A
:101EB800334931A3D3E90023C1E90C23304B324A1B
:101EC8009A602F4B314ADA602D4B314A1A612C4BFC
:101ED800304A5A612A4B304A5A602F4B2F4A1A60AF
:101EE8002E4B2F4A1A602D4B2D4A5A602B4B2C4AE9
:101EF8009A602A4B2A4ADA60284B294A1A61274BEA
:101F0800274A5A61254B264A9A61244B244ADA61AA
:101F1800224B234A1A62214B214A5A62184A184B0B
:101F28005B6818329A60164A154B5B6808325A602B
:101F3800134A134B5B682032DA601A48FFF707FE32
:101F48001948FFF728FE1948FFF701FE1848FFF760
:101F580022FE184B00221A70164B00221A72154BDB
:101F680001225A601348FFF73BFE124B01221A72F6
:101F780000BF80BDAFF300809A9999999999B93FAC
:101F8800A80200200000F0BF7E6A57A512533B2824
:101F9800635F729ED44F379CF00200200403002038
:101FA800FC000108A00200209802002090020020F6
:101FB800880200205002002080B584B002AF0F4B89
:101FC8001B78002B16D10D4B01221A700B4B5B6846
:101FD800012B0FD1094B1B7A002B0BD04FF0FF338D
:101FE8007B60064BD8680E2300937B687A68796813
:101FF800FFF7B4FB00BF0837BD4680BD5002002084
:1020080080B582B000AF4FF000024FF00003C7E97F
:102018000023164B1B785A1CD1B2144A1170002B9E
:1020280009D0134B01221A60104B1B78013BDAB21E
:102038000E4B1A7016E062B600BF0E4B1B68D3E950
:102048000823C7E90023FFF71FFE97ED000B0020C8
:10205800FFF7A6FC72B600BF044B1B78013BDAB24F
:10206800024B1A700837BD4680BD00BF3003002000
:102078002C030020F800010880B586B000AF786016
:1020880039605C4B7B615C4B3B610023FB735B4BB2
:1020980000221A705A4B00221A7001DF0AF03EF82B
:1020A80008F0A8FB06F00CFA08F024FF08F04AFF35
:1020B80008F0F0FB08F070FE08F062FC08F078FD0C
:1020C80008F0C0FC08F020FD4E4B1B6800221A6087
:1020D80000210020FFF75AFB0346FB7397F90F30E6
:1020E800002B02D097F90F3080E0FFF7D9FE72B6C7
:1020F80000BF62B600BF434B1B685A68414B1B6860
:10210800383319461046FFF751FB0346FB7397F91E
:102118000F30002B0DD14FF0FF30FFF7DBFBFFF73F
:10212800EFFC0346002B04D0364B1B68012283F8D2
:10213800402072B600BF97ED050A06F07FFAFFF758
:10214800EBFC0346002B0CD1FFF7DAFC0346002B0F
:1021580007D12C4B1B6893F84030002B01D1012389
:1021680000E00023DAB2264B1A7062B600BF62B6EE
:1021780000BF2FE0FFF794FC0346FB73FFF7CCFC8E
:102188000346002B0AD1FFF7BBFC0346002B05D101
:102198001C4B1B6893F84030002B01D0012300E052
:1021A8000023DAB2154B1A70144B1B78DBB2002BE4
:1021B8000CBF01230023DBB21A46114B1A700F4BD8
:1021C8001B78DBB2002B05D00F4B1B680E4A23F09F
:1021D800010313600A4B1B78DBB2002BCAD1FFF74F
:1021E800EBFEFFF76DFC72B600BF002318461837E8
:1021F800BD4680BDCDCCCC3D0000C8423103002097
:1022080032030020F800010810E000E0B0B582B009
:1022180000AF87ED000B3C687B6823F000454FF06A
:10222800FF32104B20462946FEF700FC0346002BE0
:1022380009D14FF0FF320B4B20462946FEF7D8FB59
:102248000346002B01D0002307E07B6803F000431E
:10225800002B01D0FF2300E0012318460837BD46B4
:10226800B0BD00BFFFFFEF7F80B582B000AF87ED44
:10227800000BD7E90023D7E90001FEF7D7FB034697
:10228800002B01D0012300E0002318460837BD4683
:1022980080BD0FB480B400AF00BFBD465DF8047BBD
:1022A80004B0704780B485B000AFF860B9607A6058
:1022B800FB68BA681A60FB6804337A681A6000BF62
:1022C8001437BD465DF8047B70470000000000002D
:1022D800F0B58BB000AF87ED020B0346FB80FB889F
:1022E800002B77D14FF00002414BD7E90201FEF7EE
:1022F80003F902460B46C7E906239FED391B97ED04
:10230800060B0AF01BFE53EC102B10461946FEF77D
:10231800CBFB03467B6100237B6233A3D3E9002315
:10232800D7E90601FEF778FB0346002B0ED02EA353
:10233800D3E90023D7E90601FEF708FA02460B465F
:1023480010461946FEF7B0FB03467B627A6A796944
:102358002848FFF7A7FF284BD3E900014FF00002F8
:10236800264BFEF731FB0346002B2ED1224BD3E937
:1023780000014FF000024FF04043FEF725FB0346F3
:10238800002B22D11C4BD3E90001D7E90223FDF72A
:10239800FBFE02460B4614461D464FF00002184B42
:1023A800D7E90201FEF7A8F802460B4601210E46BE
:1023B80020462946FEF712FB0346002B01D10023D5
:1023C8001E46F3B21A460F4B1A700F49D7E902237B
:1023D800C1E9002300BF2C37BD46F0BDAFF3008034
:1023E800000000000000F0410000E0FFFFFFEF41A7
:1023F80000408F4060030020000000200000F0BF74
:102408000000B03C4C0300206803002000000000DE
:1024180080B586B000AF87ED020B0346FB80002332
:102428007B61FB88184697ED020BFFF751FF17A356
:10243800D3E90023D7E90201FEF75EF802460B460E
:10244800104619464FF000020F4BFDF79FFE02465B
:102458000B4643EC172B9FED0A1BB0EE470AF0EE34
:10246800670A0AF06BFD53EC102B10461946FEF76D
:102478001BFB03467B617B6918461837BD4680BD48
:10248800000000000000F0410000E03F00000000F4
:1024980080842E4180B584B000AF0023BB60002348
:1024A8007B600023FB7323494FF000024FF00003C9
:1024B800C1E9002320494FF000024FF00003C1E9B1
:1024C80000233A1D07F108031146184605F0B2FF2C
:1024D800BB687A681146184604F0CEF80346FB73C9
:1024E80097F90F30002B05D01448FFF7D2FE97F963
:1024F8000F301AE03A1D07F108031146184605F097
:10250800B0FFBB687A681146184600F053FF0346CF
:10251800FB7397F90F30002B05D097F90F30194648
:102528000748FFF7B6FE97F90F3018461037BD4633
:1025380080BD00BF500300205803002024DB0008A2
:102548004CDB000880B584B000AF0346FB71002364
:10255800FB730023BB73002005F09AFF00237B73F5
:1025680004F058FA0346FB7397F90F30002B0DD08F
:1025780097F90F3013F1020F08D097F90F30194669
:102588003C48FFF786FE0123BB730BE07B7B002BE7
:1025980004D197F90F3013F1020F01D0012300E0A5
:1025A80000237B73BB7B002B21D100F035FF034652
:1025B800FB7397F90F30002B0DD097F90F3013F1FB
:1025C800020F08D097F90F3019462B48FFF761FE24
:1025D8000123BB730BE07B7B002B04D197F90F30F1
:1025E80013F1020F01D0012300E000237B73BB7BB2
:1025F800002B21D104F098F90346FB7397F90F30AB
:10260800002B0DD097F90F3013F1020F08D097F96E
:102618000F3019461948FFF73CFE0123BB730BE046
:102628007B7B002B04D197F90F3013F1020F01D0F7
:10263800012300E000237B73FB79002B0DD00020E1
:1026480005F026FFBB7B002B02D17B7B002B01D141
:10265800012300E00023BB7301E00123BB73BB7BB4
:10266800002B3FF47BAF97F90F3018461037BD4663
:1026780080BD00BF74DB0008ACDB0008DCDB0008B1
:1026880080B582B000AF0023BB70394B1B78DBB23A
:10269800002B02D0002000F0D9FF00F0ABFF03466A
:1026A800FB7000237B600EE00A2005F0F1FE7B68DA
:1026B80003F51C5310337B600120FFF743FF00F044
:1026C80099FF0346FB707B682A4A934202D2FB7843
:1026D800002BE9D100F09AFF0346BB7097F902304E
:1026E800002B05D097F9023019462348FFF7D1FD92
:1026F80004F00AFB0346BB7097F90230002B05D0A3
:1027080097F9023019461D48FFF7C3FD1C4B0022FC
:102718001A701C4B00221A701B4B00221A601B4BAC
:1027280000221A601A4B00221A601A4B00221A6003
:10273800194B00221A6019494FF000024FF040432C
:10274800C1E900230A4B00221A700822002114480C
:102758000AF092FF13494FF000024FF00003C1E95D
:10276800002397F9023018460837BD4680BD00BFE0
:102778004C0300200087930314DC000830DC0008B9
:102788003303002034030020380300203C030020DA
:1027980040030020440300204803002000000020DC
:1027A800600300206803002080B586B000AF614B4D
:1027B8001B687B617B69002B00F0B8805E4B1B783F
:1027C800DBB2002B04D15B4B1B68002B00F0AE8002
:1027D8005A4B1B78DBB2022B40F0A880584B1B7871
:1027E800002B40F0A3807B69D3E90023C7E90223CB
:1027F800544B1B78002B00F08A80534B1B78DBB2BC
:10280800002B04D0504B1B78DBB2022B01D10123E3
:1028180000E00023FB714C4B1B78DBB2012B04D08A
:10282800494B1B78DBB2022B01D1012300E00023C6
:10283800BB71FB79002B33D0444BD3E90023D7E994
:102848000201FEF7DFF80346002B0AD0404BD3E91C
:1028580000013E4BD3E90023FEF7C0F80346002BE6
:1028680014D13A4BD3E90023D7E90201FEF7D4F893
:102878000346002B14D0364BD3E90001334BD3E980
:102888000023FEF7A1F80346002B09D0314B1B6843
:10289800002B02D1304B01221A70294B01221A70E9
:1028A800BB79002B33D0294BD3E90023D7E90201A8
:1028B800FEF794F80346002B0AD0254BD3E9000114
:1028C800224BD3E90023FEF79DF80346002B14D1D1
:1028D8001E4BD3E90023D7E90201FEF775F803463A
:1028E800002B14D01A4BD3E90001184BD3E900236D
:1028F800FEF792F80346002B09D0164B1B68002BF5
:1029080002D1154B01221A700D4B01221A700C4B83
:102918001B78002B0CBF01230023DBB21A46094B9E
:102928001A700B49D7E90223C1E9002300BF183701
:10293800BD4680BD74030020780300209403002066
:10294800A3030020A00300209003002080030020A0
:10295800980300208C030020A203002080B582B0D9
:1029680000AF0023FB719E4B1B78DBB2002B18D104
:102978009C4B00221A709C4B00221A709B4B1B78B0
:10298800DBB2002B2DD0964B02221A70974B0022F7
:102998001A70974B1B78DBB2002B22D10123FB71F5
:1029A8001FE0924B00221A708E4B1B78DBB2002B73
:1029B80009D0904B00221A70894B00221A70894B5B
:1029C80000221A700DE08A4B1B78DBB2002B02D173
:1029D8000123FB7105E0844B1B78FB71824B0022BD
:1029E8001A707F4B1B78DBB2042B00F2D78001A250
:1029F80052F823F0112A00084B2B00082B2A000854
:102A0800FF2A0008892A0008784B1B78DBB2002BC4
:102A180000F0D880724B02221A70744B00221A7090
:102A2800D0E0FB79002B00F0CF80734B1B68002BA4
:102A38000DDD6F4B1B78DBB2012B08D16E4B1B6889
:102A48001A466E4B1A60664B03221A70BCE06C4B38
:102A58001B68002B0AD0674B01221A70684B1B6851
:102A6800664A13605E4B04221A70ADE06548FFF7B2
:102A780010FC604B00221A70594B00221A70A3E018
:102A88005E4B1B68002B04D05C4B1B68013B5B4A08
:102A980013605A4B1B68002B40F098805A4B1B78E8
:102AA800DBB2012B06D1534B00221A704C4B00228B
:102AB8001A708BE0554B1B68002B0AD04D4B002237
:102AC8001A70524B1B684D4A1360454B01221A700D
:102AD8007CE0FB79002B07D0494B1B68474A136001
:102AE8003F4B04221A7071E0424B00221A703C4B93
:102AF80002221A706AE0414B1B68002B04D03F4B3E
:102B08001B68013B3D4A13603C4B1B68002B5FD19F
:102B18003B4B1B68002B0AD0364B01221A70384BEE
:102B28001B68364A13602E4B04221A7050E0354851
:102B3800FFF7AFFB2F4B00221A70294B00221A70A7
:102B480046E02E4B1B68002B04D02C4B1B68013B26
:102B58002A4A1360294B1B68002B3BD1FB79002BB9
:102B680018D0274B1B68002B0AD0224B01221A7061
:102B7800234B1B68214A1360194B04221A7029E061
:102B88002048FFF786FB1B4B00221A70144B0022CB
:102B98001A701FE0124B02221A701BE0104B1B78B0
:102BA800DBB219461A48FFF774FB124B00221A7061
:102BB8000D4B00221A700B4B00221A70084B002292
:102BC8001A7008E000BF06E000BF04E000BF02E0A2
:102BD80000BF00E000BF00BF0837BD4680BD00BF92
:102BE8009403002091030020A30300200C00002080
:102BF80092030020A20300208C030020A4030020DD
:102C08000800002054DC00089303002088030020FB
:102C18007CDC000880B400AF10494FF000024FF090
:102C28000003C1E900230E4B00221A700D4B1B78DC
:102C3800DAB20D4B1A700D4B00221A700C4B0022A1
:102C48001A700C4B00221A600B4B00221A700023DA
:102C58001846BD465DF8047B704700BF9803002006
:102C6800A003002092030020A1030020A20300205B
:102C7800A3030020A40300209403002080B584B09F
:102C880000AF0346FB80FB88002B3FD1314B1B78FC
:102C9800DAB2314B1B789A4214BF01230023DBB20E
:102CA800FB732C4B1B78DAB22B4B1A70FB7B002B77
:102CB8000BD02A4B00221A70294B00221A70294B7C
:102CC80000221A60284B00221A70224B1B78DBB2B4
:102CD800012B1BD1244B1B78DBB2002B04D1234BD7
:102CE8001B78DBB2002B08D11F4B1B78DBB2012B02
:102CF8000CD11C4B1B68012B08D11A4B00221A60FF
:102D08001A4B00221A70184B02221A70114B1B78AA
:102D1800DBB2012B07D1164B1B889BB2FA889A426B
:102D280001D1FFF741FDFB88002B05D1FFF716FE07
:102D3800104B00221A7006E00E4B1B78002B02D0B5
:102D48000D4B1B7801E0054B1B7818461037BD4624
:102D580080BD00BF92030020A1030020A203002031
:102D6800A3030020A4030020940300200C000020EB
:102D780070030020A9030020A803002080B400AF3E
:102D880026494FF000024FF00003C1E90023244B0D
:102D980000221A70234B00221A70234B00221A704B
:102DA800224B00221A80224B00221A70214B00224B
:102DB8001A70214B00221A60204B00221A70204BF7
:102DC80000221A701F4B00221A601F4B00221A7033
:102DD8001E494FF000024FF00003C1E900231C4BCD
:102DE8004FF47A721A601B4B00221A601A4B0022A9
:102DF8001A601A4B00221A70194B01221A70194BCB
:102E080000221A70184B00221A70184B00221A70F0
:102E180000231846BD465DF8047B704798030020E0
:102E2800A003002094030020A103002070030020C9
:102E3800A2030020A3030020A4030020A80300206D
:102E4800A9030020740300207803002080030020D9
:102E580008000020880300208C0300209003002035
:102E68000C0000209103002092030020930300200F
:102E780080B400AF174B1B78DBB2002B25D1164B63
:102E88001B78DBB2002B0BD0144B1B78DBB2002B6A
:102E980006D1134B01221A70124B01221A7014E04A
:102EA8000E4B1B78DBB2002B0BD00B4B1B78DBB225
:102EB800002B06D10A4B00221A700A4B01221A7005
:102EC80003E0084B00221A70FFE700BFBD465DF81B
:102ED800047B7047920300200C000020910300201F
:102EE800A8030020A903002080B586B000AFF860D1
:102EF800B9607A603B600023FB7503F0F9FE386126
:102F0800FB681B68184604F009F90021386803F0CB
:102F180067FE0246BB681A6003F052FE02467B68F1
:102F28001A60BB681B68002B0FD0BB681B6819466A
:102F3800386904F0F9FB0246FB681A60FB681B68F5
:102F4800002B04D1F623FB7501E0F823FB7597F9F4
:102F5800173018461837BD4680BD000080B584B0CC
:102F680000AFF860B9607A60FA68BB6813441B78F0
:102F780019460848FFF78DF9FB68002B02D0F8685E
:102F880004F0CCF87B6800221A600023184610373A
:102F9800BD4680BDA0DC000880B584B000AFF860F5
:102FA800B9607A60FA68BB6813441B78194606480A
:102FB800FFF76FF97B6802221A604FF0FF3318465B
:102FC8001037BD4680BD00BFFCDC000880B485B06A
:102FD80000AF03460A46FB711346BB710523FB731A
:102FE800FB79F02B02D90023FB7322E0FB79E32B5A
:102FF80005D9FB79F02B02D80123FB7319E0FB7983
:10300800D22B02D9FB79E22B08D9FB79C02B08D146
:10301800BB79002B05D0BB79022B02D80223FB73A6
:1030280007E0FB79C72B04D9FB79D22B01D80323FE
:10303800FB73FB7B18461437BD465DF8047B70476D
:1030480080B58CB000AFF860B9607A603B60FB680F
:10305800BB62BB6A1B7887F82730002387F82F30BC
:1030680097F82730C02B06D1BB68012B03D9BB6A60
:103078005B7887F82F30364B1B78002B3ED097F8BB
:103088002F2097F8273011461846FFF79FFF034671
:10309800FB76002387F82E30FB7E052B23D0FB7EA2
:1030A8002C4A52F823307B6100233B617B69002B5B
:1030B80019D097F827207B691046984738613B69F3
:1030C800002B14BF01230023DBB287F82E3097F8BA
:1030D8002E30002B07D03B695A687B681A603B6921
:1030E8009A683B681A6097F82E30002B2CD17B68C1
:1030F800194A1A603B68194A1A6025E097F8273080
:10310800FF2B1BD1134B1B683B627B6800221A60A4
:103118003B6800221A603B6A002B15D03B6AFF20EF
:103128009847F861FB69002B0ED0FB695A687B68E9
:103138001A60FB699A683B681A6005E07B68084A70
:103148001A603B6800221A6000BF3037BD4680BD58
:10315800AB030020B0030020A12F00083132000883
:10316800652F000880B483B000AF0346FB71044AA2
:10317800FB79137000BF0C37BD465DF8047B7047C0
:10318800AB03002080B400AF034B1B781846BD4644
:103198005DF8047B704700BFAC03002080B483B0A7
:1031A80000AF0346FB71064B1A78FB791343DAB27A
:1031B800034B1A7000BF0C37BD465DF8047B70479F
:1031C800AC03002080B483B000AF0346FB7197F9CD
:1031D8000730DB435AB2074B1B785BB213405BB234
:1031E800DAB2044B1A7000BF0C37BD465DF8047B99
:1031F800704700BFAC03002080B400AF034B1B78BE
:103208001846BD465DF8047B704700BFAD0300203B
:1032180080B400AF034B1B881846BD465DF8047B9D
:10322800704700BFAE03002080B586B000AF0346EC
:10323800B9607A60FB7397F90F30002B05D1BB6832
:103248003B613B69FF221A7076E0BB687B617B6952
:10325800FE221A7097F90F3010330F2B62D801A293
:1032680052F823F0253300081D33000815330008F1
:103278000D33000805330008FD320008ED32000860
:10328800F5320008E5320008DD320008D5320008C2
:10329800CD320008B5320008AD320008BD32000852
:1032A800C53200087B6930225A7045E07B692922C3
:1032B8005A7041E07B6922225A703DE07B692022E6
:1032C8005A7039E07B6900225A7035E07B69232205
:1032D8005A7031E07B6921225A702DE07B691122F6
:1032E8005A7029E07B6927225A7025E07B692A22D7
:1032F8005A7021E07B6910225A701DE07B692422F4
:103308005A7019E07B6928225A7015E07B692622D9
:103318005A7011E07B6931225A700DE07B693322C3
:103328005A7009E097F90F3019460548FEF7B1FFC2
:103338007B6920225A70FFE700BF1837BD4680BD61
:103348002CDD000880B487B000AF0346B9607A600E
:10335800FB7300237B61BB68002B23D000233B61F8
:1033680000233B6117E03A6913465B0013449B0056
:103378001A46BB6813441B78FA7B9A4208D13A690B
:1033880013465B0013449B001A46BB6813447B61D9
:103398003B6901333B613A697B689A4202D27B6997
:1033A800002BE0D07B6918461C37BD465DF8047BCE
:1033B8007047000080B582B000AF78603960134B69
:1033C8001B78002B05D01248FEF763FF6FF00B0344
:1033D80018E000F077FC00F081FC03460D4A13600A
:1033E80002F04EFA02F068FA03460A4A936003F0C4
:1033F80041F803F049F80346064A5360034B01229B
:103408001A70002318460837BD4680BDAA0300205D
:1034180070DD0008B003002080B58CB002AF002337
:1034280087F82730002387F826300023FB61002324
:10343800BB6100237B6100233B610023FB60002309
:103448003B620023BB6000237B60554B1B78002B3D
:1034580005D15448FEF71DFF6FF008039BE007F104
:10346800140007F1180207F11C0107F1100300937B
:103478000346002003F00EFB034687F8273097F930
:103488002730002B09D097F9273013F1040F04D007
:1034980097F9273013F1050F71D1FB69002B05D07F
:1034A8007A693B691A44BB699A4203D9F82387F8B9
:1034B800273067E0FA697B6913443B6239693B1D31
:1034C80007F10802386AFFF7BBFDBB68002B09D17A
:1034D8003B6A1B7819463448FEF7DBFEF42387F86D
:1034E80027304FE0BB68F869796907F10C02984703
:1034F800034687F826307B68002B3DD0FB68002BFD
:103508003AD0002387F827303A69FB689A420BD2F1
:10351800FB6807F1140207F1180107F11C00FFF717
:10352800E3FC034687F827303B691A460021386ACE
:103538000AF0A2F897F92730002B1DD1FA697B69A8
:1035480013443B627B68FA6897F92600396A984702
:10355800F969B8697B69FA680192009303460A46DB
:103568004FF6FF71012003F03DF9034687F8273035
:1035780097F92730002B04D197F927300BE000BFCB
:1035880000E000BFFB69002B03D0FB69184603F07D
:10359800C5FD97F9273018462837BD4680BD00BFBE
:1035A800AA030020A0DD0008C8DD000880B584B0AB
:1035B80000AF03463960FB800023FB730B4B1B787D
:1035C800002B05D10A48FEF764FE6FF0080309E0F6
:1035D800FB8800223968184602F06CFB0346FB732F
:1035E80097F90F3018461037BD4680BDAA03002052
:1035F800F8DD000880B400AF034B1B781846BD46C1
:103608005DF8047B704700BFAB03002080B500AFB6
:103618000B4B1B78002B02D10A48FEF73AFE02F04A
:103628004FFF02F0F1FD00F075FB10220021064863
:103638000AF022F8024B00221A700023184680BDB7
:10364800AA030020F0DE0008B003002080B584B093
:1036580000AF7860786802F0B1FB0346FB7397F916
:103668000F3018461037BD4680BD80B584B000AF16
:103678000346FB800123FB73FA7BFB880021184675
:1036880002F018FB0346BB7397F90E301846103743
:10369800BD4680BD80B584B000AF0346FB710123F1
:1036A800FB6003F0DCFAB860FA79B968FB68B1FB33
:1036B800F3F39A4234BF01230023DBB218461037D4
:1036C800BD4680BD80B584B000AF78600B46FB7006
:1036D80000F02AFBF860F9680648FEF7DAFD064BA9
:1036E8001B781A46F9687868FDF718FA00BF103792
:1036F800BD4680BD18DF0008C803002080B588B02B
:1037080000AFF860B9607A600023FB77FA68BB689D
:103718001344BB61BB697B610023FB7402F0A6FC08
:103728000346FB74FB7C002B08D11A48FEF7B1FD59
:103738007B6802221A606FF00A0327E07B695B78D6
:10374800002B03D07B695B78012B01D1012300E0BA
:103758000023FB74FB7C002B0BD17B695B7819463B
:103768000D48FEF796FD7B6802221A606FF0010390
:103778000CE00A48FEF78DFD0120FFF7F3FC00235B
:10378800FB777B6808221A6097F91F3018462037A4
:10379800BD4680BD30DF00087CDF0008A0DF0008E0
:1037A80080B586B000AF0346B9607A60FB7397F9BD
:1037B8000F30002B47D1BB687B6108220021786954
:1037C80009F05AFF7B69FF221A7005227B695A703B
:1037D80000227B699A7003F042FA0346DAB27B69E9
:1037E800DA7003F035FA03469AB27B699A807B69EE
:1037F80001229A717B690122DA717B695B7819462B
:103808001648FEF746FD7B699B7819461448FEF773
:1038180040FD7B69DB7819461248FEF73AFD7B6963
:103828009B889BB219461048FEF733FD7B699B794C
:1038380019460E48FEF72DFD7B69DB7919460C48C1
:10384800FEF727FD06E097F90F307A68B968184641
:10385800FFF7EAFC00BF1837BD4680BDC8DF000887
:10386800E4DF000800E000081CE0000838E0000879
:1038780054E0000880B586B000AFF860B9607A609F
:103888000123FB7502F0F2FB0346FB75FB7D002B61
:1038980008D10B48FEF7FDFC7B6802221A606FF026
:1038A8000A0309E00748FEF7F4FC0020FFF75AFC7A
:1038B8007B6801221A60002318461837BD4680BD70
:1038C80070E00008C0E0000880B584B000AFF86080
:1038D800B9607A600548FEF7DCFC7B6806221A604E
:1038E800002318461037BD4680BD00BFF0E0000831
:1038F80080B586B000AF0346B9607A60FB73BB68D9
:103908007B6106220021786909F0B6FE7B69FF22F7
:103918001A70FFF737FC03461A467B695A70FFF79F
:103928006BFC03461A467B699A70FFF771FC0346E5
:103938001A467B699A807B695B7819460948FEF7C5
:10394800A8FC7B699B7819460748FEF7A2FC7B69AF
:103958009B889BB219460548FEF79BFC00BF1837A9
:10396800BD4680BDFCE0000820E1000844E10008F5
:1039780080B586B000AFF860B9607A600023FB7547
:103988000B48FEF786FC02F05BFB0346FB75FB7DEC
:10399800002B03D003F08CF902F061FB7B68022254
:1039A8001A606FF0040318461837BD4680BD00BF83
:1039B80068E1000880B588B000AFF860B9607A6047
:1039C8000023FB77FA68BB681344BB61BB697B6162
:1039D8000023FB747B695A687B69DB7819461046BB
:1039E80000F0AEF90346FB74FB7C002B08D10D48B0
:1039F800FEF74FFC7B6802221A606FF00B030CE0A5
:103A08007B6959687B69DB781A460748FEF741FCF1
:103A18007B6801221A6097F91F3018462037BD4687
:103A280080BD00BF70E100088CE1000880B58AB055
:103A380000AFF860B9607A60002387F82730FA6829
:103A4800BB6813443B623B6AFB610023FB7600F0D2
:103A58006BF97861FB695B781846FFF71BFE034634
:103A6800FB76FB7E002B0BD1FB695B78194612486D
:103A7800FEF70FFC7B6802221A606FF0010316E064
:103A88007B69002B08D10D48FEF703FC7B680222F6
:103A98001A606FF00B030AE0FB695A78084B1A703A
:103AA800074B1B785A1C7B681A6097F92730184611
:103AB8002837BD4680BD00BFC0E10008F0E100081E
:103AC800C803002080B588B000AF0346B9607A60AB
:103AD800FB7397F90F30002B30D100F025F9F8610E
:103AE800BB68BB6101220021B86909F0C5FDBB694B
:103AF800FF221A70FB69002B1CD0164B1B78013370
:103B08007A689A4216D1BB6801337B610023FB7443
:103B18001148FEF7BEFBFB7C19467869FFF7D2FD1A
:103B28000C4B1B78184600F029F90A4B00221A7032
:103B380000BF0AE00948FEF7ACFB06E097F90F3032
:103B48007A68B9681846FFF76FFB00BF2037BD4693
:103B580080BD00BFC80300200CE2000818E200087E
:103B680080B588B000AFF860B9607A600023FB7751
:103B7800FA68BB681344BB61BB697B610023FB74B3
:103B88007B695B781846FFF785FD0346FB74FB7C71
:103B9800002B0BD17B695B7819461748FEF779FB38
:103BA8007B6802221A606FF0010320E07B695A6883
:103BB8007B69DB781946104600F0C2F80346FB74AF
:103BC800FB7C002B08D10D48FEF763FB7B680222C3
:103BD8001A606FF00B030AE07B695A78084B1A7079
:103BE800074B1B785A1C7B681A6097F91F301846D8
:103BF8002037BD4680BD00BF38E200086CE20008EF
:103C0800C803002080B588B000AF0346B9607A6069
:103C1800FB7397F90F30002B30D100F085F8F8616D
:103C2800BB68BB6101220021B86909F025FDBB69A9
:103C3800FF221A70FB69002B1CD0164B1B7801332E
:103C48007A689A4216D1BB6801337B610023FB7402
:103C58001148FEF71EFBFB7C19467869FFF732FD19
:103C68000C4B1B78184600F089F80A4B00221A7092
:103C780000BF0AE00948FEF70CFB06E097F90F3091
:103C88007A68B9681846FFF7CFFA00BF2037BD46F3
:103C980080BD00BFC80300208CE200089CE2000839
:103CA80080B582B000AF0346FB71FB790722044957
:103CB8001846FFF747FB034618460837BD4680BD40
:103CC8000401010880B500AF034800F013F800F0C4
:103CD80069F800BF80BD00BFA93C000880B400AFF0
:103CE800034B1B681846BD465DF8047B704700BF50
:103CF800CC03002080B483B000AF7860044A7B68AE
:103D0800136000BF0C37BD465DF8047B704700BFE9
:103D1800CC03002080B500AF00F04BF80020FFF77F
:103D2800E9FF00BF80BD000080B400AF034B1B68F3
:103D38001846BD465DF8047B704700BFC0030020ED
:103D480080B483B000AF78600B46FB70FB78002B23
:103D580004D17B68002B01D1002306E0064A7B686A
:103D68001360054AFB781371012318460C37BD46CA
:103D78005DF8047B704700BFC003002080B483B0A7
:103D880000AF0346FB71064B1A68FB791344044ADB
:103D9800136000BF0C37BD465DF8047B704700BF59
:103DA800C003002080B400AF00BFBD465DF8047BAF
:103DB800704780B400AF00BFBD465DF8047B704714
:103DC80080B584B000AF0346FB800023FB7305F089
:103DD800B6FF03460B4A13600B4B1B68002B0CBF46
:103DE80001230023DBB2FB73FB7B002B04D1054BC3
:103DF8001B68184605F0B4FFFB7B18461037BD4614
:103E080080BD00BFDC030020D803002080B582B04D
:103E180000AF0346FB80044B1B68184605F0A0FF63
:103E280000BF0837BD4680BDDC03002080B582B0E6
:103E380000AF0346FB8005F082FF0346074A136084
:103E4800074B1B680133064A1360044B1B6818466E
:103E580005F086FF00BF0837BD4680BDDC030020A3
:103E6800D803002080B582B000AF0346FB8005F080
:103E780066FF0346074A1360074B1B68013B064A67
:103E88001360044B1B68184605F06AFF00BF08372B
:103E9800BD4680BDDC030020D803002080B483B079
:103EA80000AF0346FB80104B1968FA8813465B0085
:103EB8001344DB000B445B79022B0AD00A4B1968C8
:103EC800FA8813465B001344DB000B445B79032B31
:103ED80001D1012300E00023DBB218460C37BD46B0
:103EE8005DF8047B704700BFD003002080B582B026
:103EF80000AF0023FB710023BB800023BB8008E0D8
:103F0800BB881846FFF7CAFF0346FB71BB8801331D
:103F1800BB80094B9B88BA889A4202D2FB79002B56
:103F2800EED0FB79002B0CBF01230023DBB218462F
:103F38000837BD4680BD00BFD003002080B485B0DF
:103F480000AF0346FB800B467B7113463B71284B41
:103F58001B68002B42D0264B9B88FA889A423DD298
:103F6800234B1968FA8813465B001344DB000B44A3
:103F78001B68002B32D01E4B1968FA8813465B0069
:103F88001344DB000B441B797A799A4226D2184BEA
:103F98001968FA8813465B001344DB000B44196860
:103FA8007A791346DB009B1A9B000B441B68002B95
:103FB80014D00F4B1968FA8813465B001344DB00D2
:103FC8000B4419687A791346DB009B1A9B000B4453
:103FD8001B793A799A4201D2012300E00023FB734E
:103FE800FB7B18461437BD465DF8047B704700BF5D
:103FF800D003002080B485B000AF03463A60FB715F
:104008000B46BB710023FB73BB79BB81FB79FF2B8C
:1040180004D1BB89FF2B01D80123FB73FB7B184616
:104028001437BD465DF8047B704780B483B000AF99
:104038000346FB71FB7923F01003002B0CBF01230F
:104048000023DBB218460C37BD465DF8047B704789
:1040580080B485B000AF0346FB710023FB73FB7986
:10406800002B05D0FB79012B02D0FB79022B01D163
:104078000123FB73FB7B18461437BD465DF8047BB0
:10408800704780B485B000AF0346FB710023FB7313
:10409800FB79002B05D0FB79012B02D0FB79022B91
:1040A80001D10123FB73FB7B18461437BD465DF82D
:1040B800047B704780B400AF01231846BD465DF805
:1040C800047B704780B485B000AF0346FB80164B75
:1040D8001968FA8813465B001344DB000B441B7B0A
:1040E800022B0ED1104B1968FA8813465B00134453
:1040F800DB000B44DA880D4B1B889A4201D0012360
:1041080000E00023FB73FB7B002B04D0FB88002B13
:1041180001D1012300E00023FB73FB7B1846143711
:10412800BD465DF8047B7047D003002018000020CE
:1041380080B485B000AF78600B46FB707B68196867
:10414800FA781346DB009B1A9B000B44BB60BB68E4
:104158009B687A68D28902FB03F30133FB60FB7822
:10416800002B08D17B681B7A03F01003002B02D0C8
:10417800FB680433FB60FB6818461437BD465DF8DE
:10418800047B704780B586B000AF78600023BB74AD
:1041980000237B610023FB740023FB7415E0FB7C88
:1041A80019467868FFF7C4FFF8600023BB60012157
:1041B800F86802F015FDB860BA687B699A4201D9BF
:1041C800BB687B61FB7C0133FB747B681B79FA7CE1
:1041D8009A42E4D37B681B791A4613465B00991808
:1041E8007B6814331A46786903F050F80346BB74A9
:1041F80097F91230002B03D07B684FF0FF325A61D9
:1042080097F9123018461837BD4680BD80B582B080
:1042180000AF78607B685B69B3F1FF3F04D07B68CF
:104228005B69184603F044F97B684FF0FF325A6126
:1042380000BF0837BD4680BD80B58AB000AFF860C2
:10424800B9607A60002387F82730FA68BB6813449E
:104258003B623B6AFB61FB699A78DB781B0213437C
:104268007B83FB691B797B76FB695B793B76002353
:10427800FB753A7E797E7B8B1846FFF75FFE034617
:10428800FB75FB7D002B0BD1798B7A7E3B7E1D481D
:10429800FDF7FFFF7B6802221A606FF001032CE034
:1042A8007B8B1846FFF7FAFD0346002B0CBF012352
:1042B8000023DBB2FB75FB7D002B0AD17B8B1946F3
:1042C8001148FDF7E6FF7B6802221A606FF00703CA
:1042D80013E0798B7A7E3B7E0C48FDF7DAFF0C4AB7
:1042E8007B8B13800A4A7B7E9370094A3B7ED3708E
:1042F8007B6801221A6097F9273018462837BD468F
:1043080080BD00BFC4E2000808E3000838E30008E5
:1043180014000020F0B58FB004AFF860B9607A607F
:10432800002387F82730FA68BB6813443B623B6A6E
:10433800FB61584B1B887B83564B9B787B76554B90
:10434800DB783B7600237B610023FB743A7E797E21
:104358007B8B1846FFF7F2FD0346FB74FB7C002BB2
:104368000BD1798B7A7E3B7E4B48FDF792FF7B68B9
:1043780002221A606FF0050387E07B8B1846FFF76F
:104388008DFD0346002B0CBF01230023DBB2FB7419
:10439800FB7C002B0AD17B8B19464048FDF779FF3F
:1043A8007B6802221A606FF007036EE0FB69587899
:1043B800FB699978FB695B681A46FFF71BFE0346A1
:1043C800FB74FB7C002B1BD1798B7A7E387EFB69D2
:1043D8005B781C46FB699B781D46FB69DB781E46AB
:1043E800FB695B68039302960195009403462C4889
:1043F800FDF74FFF7B6802221A606FF0010344E06B
:10440800798B7A7E387EFB695B781C46FB699B78E2
:104418001D46FB69DB781E46FB695B6803930296C1
:104428000195009403461F48FDF733FF1E4B19689A
:104438007A8B13465B001344DB000B4419687A7EC1
:104448001346DB009B1A9B000B441A683B7EDB007B
:1044580013447B61FB695A787B691A70FB699A7807
:104468007B695A70FB69DA787B699A70FB695A68CC
:104478007B695A60074BDB780133DAB2054BDA7097
:104488007B6801221A6097F9273018462C37BD46F9
:10449800F0BD00BF1400002088E30008E4E3000832
:1044A80014E400088CE40008D003002090B58DB017
:1044B80002AFF860B9607A60002387F82730FA689D
:1044C800BB6813443B623B6AFB610023BB6100236A
:1044D800FB75614B1B68002B08D0FB695B889AB29F
:1044E8005D4B9B889A4201D2012300E00023FB75B3
:1044F800FB7D002B0CD1FB695B889BB219465748A2
:10450800FDF7C7FE7B6802221A606FF001039FE087
:10451800514B1A68FB695B889BB219460B465B00D6
:104528000B44DB001344BB61FB695B889BB21846F4
:10453800FFF7B4FC0346002B0CBF01230023DBB2BA
:10454800FB75FB7D002B0CD1FB695B889BB2194680
:104558004348FDF79EFE7B6802221A606FF007034E
:1045680076E0FB699B889BB27F2B94BF01230023D5
:10457800DBB2FB75FB7D002B0CD1FB699B889BB2E2
:1045880019463848FDF785FE7B6802221A606FF0ED
:1045980001035DE0FB69DB79002B0CBF01230023DD
:1045A800DBB2FB75FB7D002B08D12F48FDF771FEB0
:1045B8007B6802221A606FF0010349E0FB695B78AF
:1045C8001846FFF732FD0346FB75FB7D002B0BD128
:1045D800FB695B7819462548FDF75BFE7B6802227C
:1045E8001A606FF0090333E0FB695B889BB21946D8
:1045F800FB695B781846FB699B889BB21C46FB6984
:104608009B791A46FB69DB7901930092234602469F
:104618001748FDF73EFEFB695A78BB691A72FB69B9
:104628009B889AB2BB69DA80FB699A79BB695A722E
:10463800FB69DA79BB699A72BB695B7A012B02D88C
:10464800BB6901225A727B6801221A6097F92730E8
:1046580018462C37BD4690BDD0030020FCE4000866
:104668002CE5000860E5000890E50008CCE50008A6
:1046780000E6000890B58FB000AFF860B9607A60C6
:10468800002387F82630FA68BB6813443B623B6A0C
:10469800FB610023BB61FB695B889BB27B610023E4
:1046A80087F837300023FB748A4B1B68002B07D030
:1046B800884B9B881A467B69934201DA012300E004
:1046C800002387F8373097F83730002B09D17969FC
:1046D8008148FDF7DEFD7B6802221A606FF0010356
:1046E800B2E17E4A7B6913607A4B19687A6913468E
:1046F8005B001344DB000B44BB61FB695B78184625
:10470800FFF7A6FC034687F8373097F83730002BB9
:104718000BD1FB695B7819467148FDF7BAFD7B68D8
:1047280002221A606FF009038EE1FFF7C3FC03460B
:10473800002B5AD0BB695B79002B56D1BB691B7A19
:1047480003F00203002B21D0BB691B68002B09D0A2
:10475800604BDB791A46BB691B791344802B01DC5B
:10476800012300E0002387F8373097F83730002B13
:104778002DD0584BDA79BB69DA72564BDA79BB69B6
:104788001B791344DAB2534BDA7120E0BB691B681A
:10479800002B09D04F4B9B791A46BB691B791344F0
:1047A800FC2B01DC012300E0002387F8373097F861
:1047B8003730002B0BD0474B9A79BB69DA72454BDF
:1047C8009A79BB691B791344DAB2424B9A7197F80C
:1047D8003730002B09D179694248FDF75AFD7B68CB
:1047E80002221A606FF008032EE1FB695B78012B47
:1047F80004D0FB695B78022B40F0908000233B6378
:10480800012387F8373000233B637CE00023FB62F9
:104818000023BB620023FB6213E0BB6919683A6B93
:104828001346DB009B1A9B000B441A68FB6ADB00EB
:1048380013445B781A46BB6A1344BB62FB6A0133B4
:10484800FB62BB6919683A6B1346DB009B1A9B0035
:104858000B441B791A46FB6A9342DEDB3B6B002B49
:1048680017D1BB691B7A03F01003002B11D0BB6969
:10487800DB891A46BB6A02FB03F35C1D02F0E8F908
:1048880003469C4294BF01230023DBB287F83730EC
:1048980010E0BB69DB891A46BB6A02FB03F35C1CA8
:1048A80002F0D6F903469C4294BF01230023DBB2F1
:1048B80087F8373097F83730002B17D13A6B79697A
:1048C8000948FDF7E6FC7B6802221A606FF00803CE
:1048D800BAE000BFD003002064E600081000002002
:1048E80094E60008C4E6000800E70008BB691968F8
:1048F8003A6B1346DB009B1A9B000B44BA6A9A601A
:104908003B6B01333B63BB691B791A463B6B934294
:1049180004DA97F83730002B7FF478AFBB69DB886F
:104928001846FFF74DFA0346FB74FB7C002B7DD03D
:10493800002387F82730FB695B78022B53D0022BC2
:104948005FDC002B02D0012B13D05AE07969404874
:10495800FDF79FFCBB6901225A71FFF7C7FA0346AE
:10496800002B4BD00120FEF7FDFB4020FEF72AFC70
:1049780044E079693748FDF78CFCBB695B69B3F1A2
:10498800FF3F22D1BB69DA88334B1B889A420CD18E
:10499800314B5868304B9968BB6914331A4602F09A
:1049A80033FE034687F827300FE07B69002B0CDCC9
:1049B800BB69DB88002B08D1B869FFF7E3FB034626
:1049C80087F82730BB6900221A8297F92730002B15
:1049D80016D1BB6903225A710220FEF7C3FB40209F
:1049E800FEF7DCFB0CE0FB695B889BB219461B48B1
:1049F800FDF74FFCBB6902225A7102E000BF00E0DC
:104A080000BFBB69DB881846FFF700FA7B68022203
:104A18001A6097F92730002B08D01148FDF739FCA8
:104A28007B6802221A606FF002030DE0FB7C002B0A
:104A380008D10C48FDF72DFC7B6802221A606FF044
:104A48000A0301E097F9263018463C37BD4690BD69
:104A580064E7000890E7000818000020BCE7000899
:104A6800E8E7000834E8000880B586B000AF0346E0
:104A7800B9607A60FB7397F90F30002B12D1BB68CD
:104A88007B617B69FF221A700C4B1A680C4B1B6800
:104A980019460B465B000B44DB001344DA7A7B694A
:104AA8005A7006E097F90F307A68B9681846FEF729
:104AB800BBFB00BF1837BD4680BD00BFD003002038
:104AC8001000002090B58BB000AFF860B9607A6034
:104AD8000023FB77FA68BB681344BB61BB697B6141
:104AE8000023FB740023BB7400237B627B695B7823
:104AF8001846FFF7C6FA0346FB74FB7C002B0BD164
:104B08007B695B781946A648FDF7C3FB7B680222E0
:104B18001A606FF0090362E1A24B1B68002B05D0F5
:104B2800A04B9B88002B01D0012300E00023FB74DD
:104B3800FB7C002B08D19C48FDF7ABFB7B6802226D
:104B48001A606FF001034AE101F07AFA0346BB7478
:104B5800BB7C002B00F03581002387F8233000232D
:104B68003B847B695B78022B00F0D580022B00F335
:104B78000681002B02D0012B2CD000E100237B62A0
:104B88001BE0884B19687A6A13465B001344DB0004
:104B98000B445B79002B0DD0796A8448FDF779FBCB
:104BA800804B19687A6A13465B001344DB000B4498
:104BB80001225A717B6A01337B627A4B9B881A46C1
:104BC8007B6A9342DDDB0120FEF7CCFA4020FEF73A
:104BD800F9FAD4E000237B6263E0724B19687A6AC1
:104BE80013465B001344DB000B445B79022B55D161
:104BF8006C4B19687A6A13465B001344DB000B445C
:104C08005B69B3F1FF3F49D1664B19687A6A13466D
:104C18005B001344DB000B44DA88654B1B889A421F
:104C280014D1634B5868624B9C685E4B19687A6A6A
:104C380013465B001344DB000B4414331A46214629
:104C480002F0E2FC034687F8233027E07B6A002B5A
:104C580024DC544B19687A6A13465B001344DB0062
:104C68000B44DB88002B19D14E4B19687A6A13461E
:104C78005B001344DB000B441846FFF783FA034636
:104C880087F82330474B19687A6A13465B00134448
:104C9800DB000B4400221A827B6A3B847B6A013367
:104CA8007B62404B9B881A467B6A934203DA97F9EA
:104CB8002330002B91D097F92330002B5CD10023AF
:104CC8007B6221E0374B19687A6A13465B0013440C
:104CD800DB000B445B79022B13D1796A3548FDF769
:104CE800D8FA304B19687A6A13465B001344DB0024
:104CF8000B4403225A710220FEF734FA4020FEF7D3
:104D08004DFA7B6A01337B62264B9B881A467B6A85
:104D18009342D7DB30E000237B621BE0214B19680C
:104D28007A6A13465B001344DB000B445B79022B61
:104D38000DD1796A1D48FDF7ACFA1A4B19687A6AE1
:104D480013465B001344DB000B4401225A717B6A53
:104D580001337B62134B9B881A467B6A9342DDDBE7
:104D6800FFF7C4F80346002B08D00120FEF7FAF934
:104D78004020FEF727FA01E000BF00E000BF01F085
:104D88006EF997F92330002B18D03B8C19460A4846
:104D9800FDF77FFA7B6802221A606FF002031EE0BB
:104DA8007CE80008D0030020ACE80008D8E8000838
:104DB8001800002000E9000828E900087B680122A3
:104DC8001A60BB7C002B08D10748FDF762FA7B68A4
:104DD80002221A606FF00A0301E097F91F301846A3
:104DE8002C37BD4690BD00BF74E9000880B584B07B
:104DF80000AFF860B9607A600548FDF74AFA7B6849
:104E080008221A60002318461037BD4680BD00BF2F
:104E1800B8E9000880B586B000AF0346B9607A608B
:104E2800FB73BB687B6108220021786908F024FCC9
:104E38007B69FF221A707B6911225A707B694FF0D7
:104E4800FF329A704FF0FF32DA707B69002262F00D
:104E58007F021A7100225A717B6900229A717B695C
:104E68000022DA717B695B7819461048FDF711FA60
:104E78007B695B889BB219460D48FDF70AFA7B6986
:104E88009B889BB219460B48FDF703FA7B699B790F
:104E980019460948FDF7FDF97B69DB79194607488A
:104EA800FDF7F7F900BF1837BD4680BDD0E9000807
:104EB800ECE9000808EA000824EA000840EA0008CB
:104EC80080B584B000AFF860B9607A600548FDF736
:104ED800E0F97B6808221A60002318461037BD469F
:104EE80080BD00BF5CEA000880B586B000AF03460D
:104EF800B9607A60FB73BB687B610822002178691E
:104F080008F0BAFB7B69FF221A707B6901225A708C
:104F18007B69FF229A707B690122DA707B69FF2224
:104F28001A717B6934225A717B69002242F00102AE
:104F38009A710022DA717B695B7819461248FDF78D
:104F4800A8F97B699B7819461048FDF7A2F97B6997
:104F5800DB7819460E48FDF79CF97B691B791946E1
:104F68000C48FDF796F97B695B7919460A48FDF705
:104F780090F97B69DB889BB219460848FDF789F9E7
:104F880000BF1837BD4680BD78EA0008A0EA0008CF
:104F9800C8EA0008F0EA000818EB000844EB00082B
:104FA80080B586B000AFF860B9607A600023FB7501
:104FB8000023BB750F48FDF76CF901F057F803465D
:104FC800BB75BB7D002B08D10B48FDF762F97B68E8
:104FD80002221A606FF00A0307E00120FEF7C2F808
:104FE8007B6801221A6097F9173018461837BD46B2
:104FF80080BD00BF6CEB00089CEB000880B58CB04E
:1050080000AFF860B9607A60002387F82B30FA683F
:10501800BB6813447B627B6A3B623B6A5B889BB2DA
:10502800FB610023BB610023FB750023FB62514B2E
:105038001B68002B0CBF01230023DBB2FB75FB7D33
:10504800002B08D14C48FDF724F97B6802221A602E
:105058006FF003038AE0FB69002B05DDFB69B3F5FC
:10506800803F01DA012300E00023FB75FB7D002B64
:1050780009D1F9694148FDF70CF97B6802221A60E9
:105088006FF0010372E0FA6913465B001344DB001A
:105098001A46F9693A48FDF7FCF8FA6913465B00C5
:1050A8001344DB00184601F0C5FFB861BB69002B4B
:1050B80009D1F9693348FDF7ECF87B6802221A60D8
:1050C8006FF0020352E0FA6913465B001344DB00F9
:1050D8001A460021B86908F0CFFA264ABB6913605E
:1050E800FB699AB2234B9A800023FB6235E0FA6A87
:1050F80013465B001344DB001A46BB6913444FF0A8
:10510800FF325A61FA6A13465B001344DB001A4601
:10511800BB69134400221A73FA6A13465B001344EE
:10512800DB001A46BB69134401225A73FA6A134614
:105138005B001344DB001A46BB6913440122DA8181
:10514800FA6A13465B001344DB001A46BB69134432
:1051580000221A82FB6A0133FB62FA6AFB699A42EF
:10516800C5DB7B6801221A6097F92B301846303767
:10517800BD4680BDD0030020D8EB00081CEC000819
:105188004CEC000878EC000890B589B000AFF860E6
:10519800B9607A600023FB77FA68BB681344BB6187
:1051A800BB697B617B699A78DB781B0213437B823E
:1051B8007B691B797B7400233B745C4B1B68002B59
:1051C80014BF01230023DBB23B743B7C002B08D1C6
:1051D8005748FDF75EF87B6802221A606FF00303F8
:1051E8009FE0524B9B887A8A9A4234BF012300235E
:1051F800DBB23B743B7C002B0AD17B8A19464D48B5
:10520800FDF747F87B6802221A606FF0010388E017
:105218007B7C002B04D07B7CFC2B01D8012300E095
:1052280000233B743B7C002B0BD17B7C7A8A19468C
:105238004148FDF72EF87B6802221A606FF00103DF
:105248006FE03A4B19687A8A13465B001344DB0017
:105258000B441B68002B0CBF01230023DBB23B74FB
:105268003B7C002B08D13548FDF713F87B680222F8
:105278001A606FF0030354E0797C788A7A7C1346CD
:10528800DB009B1A9B0002462D48FDF702F87A7C4A
:105298001346DB009B1A9B001846244B19687A8A30
:1052A80013465B001344DB00CC1801F0C3FE034631
:1052B80023601E4B19687A8A13465B001344DB008F
:1052C8000B441B68002B0BD17B7C7A8A19461D483E
:1052D800FCF7DFFF7B6802221A606FF0020320E010
:1052E800124B19687A8A13465B001344DB000B449F
:1052F80018687A7C1346DB009B1A9B001A4600212B
:1053080008F0BAF9094B19687A8A13465B00134406
:10531800DB000B447A7C1A717B6801221A6097F9CA
:105328001F3018462437BD4690BD00BFD00300206B
:10533800B0EC0008F0EC00081CED000858ED00087F
:1053480094ED0008CCED000890B58DB002AFF86080
:10535800B9607A60002387F82730FA68BB6813447D
:105368003B623B6AFB61FB699A78DB781B0213435B
:105378007B83FB691B797B76FB695B793B76002332
:10538800FB75844B1B68002B14BF01230023DBB281
:10539800FB75FB7D002B08D17F48FCF77AFF7B6803
:1053A80002221A606FF00303F0E07A4B9B887A8B35
:1053B8009A4234BF01230023DBB2FB75FB7D002B2F
:1053C8000AD17B8B19467548FCF763FF7B6802227C
:1053D8001A606FF00103D9E06E4B19687A8B134697
:1053E8005B001344DB000B441B68002B14BF012334
:1053F8000023DBB2FB75FB7D002B08D16848FCF766
:1054080048FF7B6802221A606FF00303BEE0614B1D
:1054180019687A8B13465B001344DB000B441B7935
:105428007A7E9A4234BF01230023DBB2FB75FB7DF1
:10543800002B0AD17B7E19465A48FCF72AFF7B6865
:1054480002221A606FF00103A0E0524B19687A8BB0
:1054580013465B001344DB000B4419687A7E13463D
:10546800DB009B1A9B000B441B68002B0CBF01231D
:105478000023DBB2FB75FB7D002B08D14A48FCF703
:1054880008FF7B6802221A606FF003037EE03B7E10
:10549800002B14BF01230023DBB2FB75FB7D002B1F
:1054A8000BD1397E7A7E7B8B4048FCF7F2FE7B6815
:1054B80002221A606FF0010368E0397E7A8B787EE9
:1054C8003B7EDB00009303463948FCF7E2FE3B7E57
:1054D800D800304B19687A8B13465B001344DB0005
:1054E8000B4419687A7E1346DB009B1A9B00CC1884
:1054F80001F0A0FD03462360264B19687A8B1346FA
:105508005B001344DB000B4419687A7E1346DB000A
:105518009B1A9B000B441B68002B0BD1397E7A8B9E
:105528007B7E2448FCF7B5FE7B6802221A606FF088
:1055380002032BE0174B19687A8B13465B00134460
:10554800DB000B4419687A7E1346DB009B1A9B002C
:105558000B4418683B7EDB001A46002108F08CF8E3
:105568000C4B19687A8B13465B001344DB000B4421
:1055780019687A7E1346DB009B1A9B000B443A7E1F
:105588001A717B6801221A6097F9273018462C3760
:10559800BD4690BDD00300200CEE000850EE000878
:1055A80084EE0008C4EE0008F0EE00083CEF0008A6
:1055B8008CEF0008D8EF000880B485B000AFF86021
:1055C800B9607A607B6802221A606FF00F03184690
:1055D8001437BD465DF8047B7047000080B58AB07B
:1055E80000AFF860B9607A60002387F82730FA685E
:1055F800BB6813443B623B6AFB61FB699A78DB78C2
:105608001B0213437B83FB691B797B76FB695B7900
:105618003B76FB699A79DB791B021343FB820123F2
:105628007B756C4B1B68002B14BF01230023DBB276
:105638007B757B7D002B08D16748FCF72AFE7B68C9
:1056480002221A606FF00303C0E0624B9B887A8BDA
:105658009A4234BF01230023DBB27B757B7D002B8C
:105668000AD17B8B19465D48FCF713FE7B68022242
:105678001A606FF00103A9E07B8B002B0CBF01239C
:105688000023DBB27B757B7D002B0AD17B8B19460F
:105698005348FCF7FEFD7B6802221A606FF009038D
:1056A80094E07B7E002B02D07B7E022B01D101236C
:1056B80000E000237B757B7D002B0AD17B7E194699
:1056C8004848FCF7E6FD7B6802221A606FF0090380
:1056D8007CE03B7E012B0CBF01230023DBB27B75F2
:1056E8007B7D002B0AD13B7E19463F48FCF7D1FD54
:1056F8007B6802221A606FF0090367E07B7E002B4B
:1057080002D1FB8A012B05D07B7E002B04D0FB8ABB
:10571800012B01D9012300E000237B757B7D002B41
:105728000AD1FB8A19463148FCF7B3FD7B6802228F
:105738001A606FF0090349E07B8B1846FEF7AEFB51
:105748000346002B0CBF01230023DBB27B757B7D56
:10575800002B08D12648FCF79CFD7B6802221A60C2
:105768006FF0070332E0797E3A7EFB8A2148FCF726
:1057780090FD184B19687A8B13465B001344DB00C5
:105788000B447A7E1A73134B19687A8B13465B00A5
:105798001344DB000B443A7E5A730E4B19687A8B1C
:1057A80013465B001344DB000B44FA8ADA81094B89
:1057B80019687A8B13465B001344DB000B44002204
:1057C8001A827B6801221A6097F927301846283711
:1057D800BD4680BDD003002028F0000870F0000806
:1057E800A8F000080CF1000848F100088CF1000846
:1057F800D0F100082CF2000880B588B000AFF8603E
:10580800B9607A600023FB77FA68BB681344BB6110
:10581800BB695B78012B0CBF01230023DBB2FB754E
:10582800FB7D002B0BD1BB695B7819460A48FCF756
:1058380030FD7B6802221A604FF0FF3308E07A6877
:10584800B968F868FFF7CAFE0346FB7797F91F3077
:1058580018462037BD4680BD7CF2000880B582B06E
:1058680000AF0346FB71FB790D2204491846FDF78A
:1058780069FD034618460837BD4680BD5801010832
:1058880080B500AF084B00221A60084B00221A604E
:1058980008220021064807F0EFFE064800F018F835
:1058A80000F0C2FC00BF80BDDC030020D80300204C
:1058B800D00300206558000880B400AF034B1B6874
:1058C8001846BD465DF8047B704700BFE003002022
:1058D80080B483B000AF7860044A7B68136000BF6F
:1058E8000C37BD465DF8047B704700BFE00300201D
:1058F80080B584B000AF0346FB800023FB60002323
:10590800BB60224B1B68002B04D0204B9B88FA8875
:105918009A4205D31E48FCF7BCFC4FF0FF3331E038
:105928001A4B1968FA8813465B001344DB000B44D2
:10593800BB60FB881846FEF7C5FB0346002B03D067
:10594800BB681B8A002B01D100231BE00023FB60EE
:105958000EE0BB681968FA681346DB009B1A9B00C7
:105968000B44DB68184601F0D9FBFB680133FB6088
:10597800BB681B791A46FB689342EADBBB680022C6
:105988001A82002318461037BD4680BDD003002078
:10599800B4F2000880B487B000AFF8600B467A60B4
:1059A800FB72FB681968FA7A1346DB009B1A9B00A6
:1059B8000B443B613B695B697B613B6900229A61EF
:1059C800FB68DA7AFB7A1344DAB27B691A707B696E
:1059D80001337B61FB7A002B11D1FB681B7A03F042
:1059E8001003002B0BD07A687B691A603B699B69AE
:1059F80004337A6913447B613B6900229A613B69ED
:105A08007A695A6100BF1C37BD465DF8047B704750
:105A180080B588B000AF78600023FB777B685B694E
:105A2800BB610023FB7735E07B681A68FB7FDB00EE
:105A380013447B617B695B683B617B691B78FF2B47
:105A480012D03B69FB60FB681B687A6912781146C3
:105A580001228A401340002B14BF01230023DBB22C
:105A68001A46BB691A7006E07B695B781A46396981
:105A7800B869FBF753F87B695B781A467B689B69C2
:105A88001344BA691344BB617B6800229A61FB7FA7
:105A98000133FB777B681B79FA7F9A42C4D37B6812
:105AA800BA695A6100BF2037BD4680BD80B58EB047
:105AB80002AF0346B9607A60FB81002387F82F3074
:105AC800002387F82E300023BB62002387F82D308F
