:020000040800F2
:10000000000002201D55010821360108293601088B
:100010003136010839360108413601080000000078
:10002000000000000000000000000000D51C0108D6
:100030004936010800000000911C0108C11B01089D
:100040006D5501086D5501086D5501086D55010884
:100050006D5501086D5501086D5501086D55010874
:100060006D5501086D5501086D5501085736010899
:100070006D5501086D5501086D5501086D55010854
:10008000852D0108652D01081B6301086D550108C8
:100090006D5501086D5501086D5501086D55010834
:1000A0006D550108653601086D5501086D5501084B
:1000B0006D5501086D5501086D5501086D55010814
:1000C0006D5501086D5501086D5501086D55010804
:1000D0006D5501086D550108512D01086D55010838
:1000E0006D5501086D5501086D5501086D550108E4
:1000F0006D5501086D5501086D55010879360108E7
:100100006D5501086D5501086D5501086D550108C3
:100110006D5501086D5501086D5501086D550108B3
:100120006D5501086D5501086D5501086D550108A3
:100130006D55010800000000000000006D55010829
:100140006D5501086D5501086D5501086D55010883
:100150006D5501086D5501086D5501086D55010873
:100160006D5501086D5501086D5501086D55010863
:100170006D5501086D5501080000000000000000E9
:080180006D5501086D550108E1
:1001880081F0004102E000BF83F0004330B54FEA40
:1001980041044FEA430594EA050F08BF90EA020FAD
:1001A8001FBF54EA000C55EA020C7FEA645C7FEA40
:1001B800655C00F0E2804FEA5454D4EB5555B8BF63
:1001C8006D420CDD2C4480EA020281EA030382EAD4
:1001D800000083EA010180EA020281EA0303362D66
:1001E80088BF30BD11F0004F4FEA01314FF4801C39
:1001F8004CEA113102D0404261EB410113F0004F4B
:100208004FEA03334CEA133302D0524263EB430301
:1002180094EA050F00F0A780A4F10104D5F1200E9F
:100228000DDB02FA0EFC22FA05F2801841F10001FA
:1002380003FA0EF2801843FA05F359410EE0A5F1CE
:1002480020050EF1200E012A03FA0EFC28BF4CF0FF
:10025800020C43FA05F3C01851EBE37101F00045B5
:1002680007D54FF0000EDCF1000C7EEB00006EEBC2
:100278000101B1F5801F1BD3B1F5001F0CD349084C
:100288005FEA30004FEA3C0C04F101044FEA4452A3
:1002980012F5800F80F09A80BCF1004F08BF5FEA2A
:1002A800500C50F1000041EB045141EA050130BD0A
:1002B8005FEA4C0C404141EB0101013C28BFB1F51C
:1002C800801FE9D291F0000F04BF01460020B1FA67
:1002D80081F308BF2033A3F10B03B3F120020CDA3A
:1002E8000C3208DD02F1140CC2F10C0201FA0CF018
:1002F80021FA02F10CE002F11402D8BFC2F1200C7D
:1003080001FA02F120FA0CFCDCBF41EA0C01904032
:10031800E41AA2BF01EB0451294330BD6FEA04047B
:100328001F3C1CDA0C340EDC04F11404C4F1200266
:1003380020FA04F001FA02F340EA030021FA04F378
:1003480045EA030130BDC4F10C04C4F1200220FACF
:1003580002F001FA04F340EA0300294630BD21FA0D
:1003680004F0294630BD94F0000F83F4801306BFD3
:1003780081F480110134013D4EE77FEA645C18BFC7
:100388007FEA655C29D094EA050F08BF90EA020F5E
:1003980005D054EA000C04BF1946104630BD91EA56
:1003A800030F1EBF0021002030BD5FEA545C05D159
:1003B8004000494128BF41F0004130BD14F5800498
:1003C8003CBF01F5801130BD01F0004545F0FE410C
:1003D80041F470014FF0000030BD7FEA645C1ABF41
:1003E800194610467FEA655C1CBF0B46024650EA78
:1003F800013406BF52EA033591EA030F41F40021A4
:1004080030BD00BF90F0000F04BF0021704730B529
:100418004FF4806404F132044FF000054FF00001FE
:1004280050E700BF90F0000F04BF0021704730B5BF
:100438004FF4806404F1320410F0004548BF404294
:100448004FF000013EE700BF42004FEAE2014FEAE9
:1004580031014FEA02701FBF12F07F4393F07F4FC4
:1004680081F06051704732F07F4208BF704793F0C7
:100478007F4F04BF41F40021704730B54FF46074DA
:1004880001F0004521F000411CE700BF50EA0102DD
:1004980008BF704730B54FF000050AE050EA010286
:1004A80008BF704730B511F0004502D5404261EBF6
:1004B80041014FF4806404F132045FEA915C3FF437
:1004C800D8AE4FF003025FEADC0C18BF03325FEAD4
:1004D800DC0C18BF033202EBDC02C2F1200300FA85
:1004E80003FC20FA02F001FA03FE40EA0E0021FAAA
:1004F80002F11444BDE600BF70B54FF0FF0C4CF498
:10050800E06C1CEA11541DBF1CEA135594EA0C0F49
:1005180095EA0C0F00F0DEF82C4481EA030621EA84
:100528004C5123EA4C5350EA013518BF52EA0335BF
:1005380041F4801143F4801338D0A0FB02CE4FF071
:100548000005E1FB02E506F00042E0FB03E54FF0A1
:100558000006E1FB03569CF0000F18BF4EF0010E99
:10056800A4F1FF04B6F5007F64F5407404D25FEA95
:100578004E0E6D4146EB060642EAC62141EA555148
:100588004FEAC52040EA5E504FEACE2EB4F1FD0C8A
:1005980088BFBCF5E06F1ED8BEF1004F08BF5FEA08
:1005A800500E50F1000041EB045170BD06F00046BA
:1005B80046EA010140EA020081EA0301B4EB5C0467
:1005C800C2BFD4EB0C0541EA045170BD41F480115F
:1005D8004FF0000E013C00F3AB8014F1360FDEBF84
:1005E800002001F0004170BDC4F10004203C35DA60
:1005F8000C341BDC04F11404C4F1200500FA05F3E3
:1006080020FA04F001FA05F240EA020001F0004283
:1006180021F0004110EBD37021FA04F642EB0601F9
:100628005EEA430E08BF20EAD37070BDC4F10C0423
:10063800C4F1200500FA04F320FA05F001FA04F2E7
:1006480040EA020001F0004110EBD37041F10001D3
:100658005EEA430E08BF20EAD37070BDC4F12005DE
:1006680000FA05F24EEA020E20FA04F301FA05F246
:1006780043EA020321FA04F001F0004121FA04F2EE
:1006880020EA020000EBD3705EEA430E08BF20EABE
:10069800D37070BD94F0000F0FD101F000464000F8
:1006A80041EB010111F4801F08BF013CF7D041EA7A
:1006B800060195F0000F18BF704703F0004652007E
:1006C80043EB030313F4801F08BF013DF7D043EA4F
:1006D8000603704794EA0C0F0CEA135518BF95EA05
:1006E8000C0F0CD050EA410618BF52EA4306D1D18C
:1006F80081EA030101F000414FF0000070BD50EAAB
:10070800410606BF1046194652EA430619D094EA34
:100718000C0F02D150EA013613D195EA0C0F05D11E
:1007280052EA03361CBF104619460AD181EA030172
:1007380001F0004141F0FE4141F470014FF000002A
:1007480070BD41F0FE4141F4780170BD70B54FF0C5
:10075800FF0C4CF4E06C1CEA11541DBF1CEA135545
:1007680094EA0C0F95EA0C0F00F0A7F8A4EB050427
:1007780081EA030E52EA03354FEA013100F088801E
:100788004FEA03334FF0805545EA131343EA1263E7
:100798004FEA022245EA111545EA10654FEA00269C
:1007A8000EF000419D4208BF964244F1FD0404F555
:1007B800407402D25B084FEA3202B61A65EB0305B1
:1007C8005B084FEA32024FF480104FF4002CB6EB6E
:1007D800020E75EB030E22BFB61A754640EA0C00EE
:1007E8005B084FEA3202B6EB020E75EB030E22BF2E
:1007F800B61A754640EA5C005B084FEA3202B6EB6F
:10080800020E75EB030E22BFB61A754640EA9C002D
:100818005B084FEA3202B6EB020E75EB030E22BFFD
:10082800B61A754640EADC0055EA060E18D04FEABB
:10083800051545EA16754FEA06164FEAC30343EA5B
:1008480052734FEAC2025FEA1C1CC0D111F4801F28
:100858000BD141EA00014FF000004FF0004CB6E721
:1008680011F4801F04BF01430020B4F1FD0C88BFC0
:10087800BCF5E06F3FF6AFAEB5EB030C04BFB6EBCB
:10088800020C5FEA500C50F1000041EB045170BDBE
:100898000EF0004E4EEA113114EB5C04C2BFD4EBEB
:1008A8000C0541EA045170BD41F480114FF0000E6F
:1008B800013C90E645EA060E8DE60CEA135594EAEB
:1008C8000C0F08BF95EA0C0F3FF43BAF94EA0C0FEE
:1008D8000AD150EA01347FF434AF95EA0C0F7FF463
:1008E80025AF104619462CE795EA0C0F06D152EAB7
:1008F80003353FF4FDAE1046194622E750EA41069B
:1009080018BF52EA43067FF4C5AE50EA41047FF4AB
:100918000DAF52EA43057FF4EBAE12E74FF0FF3C10
:1009280006E000BF4FF0010C02E000BF4FF0010CE1
:100938004DF804CD4FEA410C7FEA6C5C4FEA430C5A
:1009480018BF7FEA6C5C1BD001B050EA410C0CBFA9
:1009580052EA430C91EA030F02BF90EA020F00200B
:10096800704710F1000F91EA030F58BF994208BF72
:1009780090422CBFD8176FEAE37040F0010070472F
:100988004FEA410C7FEA6C5C02D150EA013C07D186
:100998004FEA430C7FEA6C5CD6D152EA033CD3D0D1
:1009A8005DF8040B704700BF8446104662468C46CB
:1009B8001946634600E000BF01B5FFF7B7FF0028FE
:1009C80048BF10F1000F01BD4DF808EDFFF7F4FF27
:1009D8000CBF012000205DF808FB00BF4DF808EDB2
:1009E800FFF7EAFF34BF012000205DF808FB00BFD5
:1009F8004DF808EDFFF7E0FF94BF012000205DF8F7
:100A080008FB00BF4DF808EDFFF7CEFF94BF0120AB
:100A180000205DF808FB00BF4DF808EDFFF7C4FFA4
:100A280034BF012000205DF808FB00BF4FEA410CED
:100A38007FEA6C5C02D150EA013C0AD14FEA430CD0
:100A48007FEA6C5C02D152EA033C02D14FF000000D
:100A580070474FF0010070474FEA410212F500124B
:100A680015D211D56FF47873B3EB625212D94FEAED
:100A7800C12343F0004343EA505311F0004F23FAD7
:100A880002F018BF404270474FF00000704750EA2C
:100A9800013005D111F0004008BF6FF000407047E9
:100AA8004FF00000704700BF4A0011D212F5001243
:100AB80011D20DD56FF47873B3EB62520ED44FEAAE
:100AC800C12343F0004343EA505323FA02F070472E
:100AD8004FF00000704750EA013002D14FF0FF306C
:100AE80070474FF0000070474FEA4102B2F1E0430F
:100AF80024BFB3F5001CDCF1FE5C0DD901F0004CFD
:100B08004FEAC0024CEA5070B2F1004F40EB83004C
:100B180008BF20F00100704711F0804F21D113F178
:100B28003872BCBF01F00040704741F480114FEAB1
:100B38005252C2F11802C2F1200C10FA0CF320FA3A
:100B480002F018BF40F001004FEAC1234FEAD32357
:100B580003FA0CFC40EA0C0023FA02F34FEA4303C1
:100B6800CCE77FEA625307D150EA01331EBF4FF04A
:100B7800FE4040F44000704701F0004040F0FE4065
:100B880040F40000704700BF53B94AB9002908BFB4
:100B980000281CBF4FF0FF314FF0FF3000F00CB8B9
:100BA800ADF1080C6DE904CE17F018FCDDF804E08F
:100BB800DDE9022304B07047704700BF844641EA6C
:100BC800000313F003036DD1403A41D351F8043BBD
:100BD80040F8043B51F8043B40F8043B51F8043B0F
:100BE80040F8043B51F8043B40F8043B51F8043BFF
:100BF80040F8043B51F8043B40F8043B51F8043BEF
:100C080040F8043B51F8043B40F8043B51F8043BDE
:100C180040F8043B51F8043B40F8043B51F8043BCE
:100C280040F8043B51F8043B40F8043B51F8043BBE
:100C380040F8043B51F8043B40F8043B51F8043BAE
:100C480040F8043B51F8043B40F8043B403ABDD21D
:100C5800303211D351F8043B40F8043B51F8043BBF
:100C680040F8043B51F8043B40F8043B51F8043B7E
:100C780040F8043B103AEDD20C3205D351F8043B4E
:100C880040F8043B043AF9D2043208D0D2071CBF1A
:100C980011F8013B00F8013B01D30B880380604643
:100CA800704700BF082A13D38B078DD010F00303B9
:100CB8008AD0C3F10403D21ADB071CBF11F8013B29
:100CC80000F8013B80D331F8023B20F8023B7BE778
:100CD800043AD9D3013A11F8013B00F8013BF9D2A3
:100CE8000B7803704B7843708B788370604670473D
:100CF8000348044B834202D0034B03B118477047A3
:100D0800C4010020C4010020000000000548064B73
:100D18001B1AD90F01EBA301491002D0034B03B1F1
:100D280018477047C4010020C401002000000000DB
:100D380010B5064C237843B9FFF7DAFF044B13B11B
:100D48000448AFF300800123237010BDC8010020C0
:100D5800000000007088010808B5054B1BB1054963
:100D68000548AFF30080BDE80840FFF7CFBF00BFDC
:100D780000000000CC0100207088010880B483B016
:100D880000AF786039600C4A3B6813441B781A46F8
:100D98007B6813441B6808493A680A44127811466C
:100DA8007A680A4443F00103136000BF0C37BD465C
:100DB8005DF8047B704700BF2CB1010880B485B092
:100DC80000AFF860B9607A600D4ABB6813441B78BD
:100DD8001A46FB6813445B681B0C1B040849BA6875
:100DE8000A4412781146FA680A4411467A6813438D
:100DF8004B6000BF1437BD465DF8047B704700BFE9
:100E08002CB1010880B485B000AFF860B9607A6091
:100E18003B60BB69402B14D1174ABB6813441B784D
:100E28001A46FB6813441A467B68D360124ABB68AB
:100E380013441B781A46FB6813441A463B689360B0
:100E480013E00D4ABB6813441B781A46FB68134429
:100E58001A467B689360084ABB6813441B781A4695
:100E6800FB6813441A463B68D36000BF1437BD467D
:100E78005DF8047B704700BF2CB1010880B483B0D3
:100E880000AF786039600C4A3B6813441B781A46F7
:100E98007B6813441B6808493A680A44127811466B
:100EA8007A680A4443F01003136000BF0C37BD464C
:100EB8005DF8047B704700BF2CB1010880B483B093
:100EC80000AF78607B681B6843F040027B681A605B
:100ED80000BF0C37BD465DF8047B704780B483B013
:100EE80000AF78607B681B6823F040027B681A605B
:100EF80000BF0C37BD465DF8047B704780B483B0F3
:100F080000AF78607B681B6803F04003402B01D179
:100F1800012300E0002318460C37BD465DF8047B2A
:100F2800704780B483B000AF78607B681B6803F4B7
:100F3800827318460C37BD465DF8047B704780B451
:100F480083B000AF786039607B681B6823F00102CA
:100F58003B681A437B681A6000BF0C37BD465DF8D2
:100F6800047B704780B483B000AF78607B681B68EF
:100F780003F0010318460C37BD465DF8047B704743
:100F880080B483B000AF786039607B681B6823F059
:100F980002023B681A437B681A6000BF0C37BD46E3
:100FA8005DF8047B704780B483B000AF78607B68DD
:100FB8001B6803F0020318460C37BD465DF8047B36
:100FC800704780B483B000AF786039607B681B6875
:100FD80023F444423B681A437B681A6000BF0C370D
:100FE800BD465DF8047B704780B483B000AF78607D
:100FF8007B681B6803F4444318460C37BD465DF80C
:10100800047B704780B483B000AF786039607B6838
:101018001B6823F400623B681A437B681A6000BFB0
:101028000C37BD465DF8047B704780B483B000AFD1
:1010380078607B681B6803F4006318460C37BD466C
:101048005DF8047B704780B483B000AF78607B683C
:101058009B6803F00103012B01D1012300E0002369
:1010680018460C37BD465DF8047B704780B483B0E2
:1010780000AF78607B689B6803F00203022B01D104
:10108800012300E0002318460C37BD465DF8047BB9
:10109800704780B483B000AF78607B689B6803F0CA
:1010A8008003802B01D1012300E0002318460C3770
:1010B800BD465DF8047B704780B483B000AF7860AC
:1010C8007B685B6843F040027B685A6000BF0C375E
:1010D800BD465DF8047B704780B483B000AF78608C
:1010E8007B685B6843F001027B685A6000BF0C377D
:1010F800BD465DF8047B704780B483B000AF78606C
:101108007B685B6843F002027B685A6000BF0C375B
:10111800BD465DF8047B704780B483B000AF78604B
:101128007B680C3318460C37BD465DF8047B704766
:1011380080B483B000AF78607B680C331B78DBB277
:1011480018460C37BD465DF8047B704780B483B001
:1011580000AF78607B68DB689BB218460C37BD46E9
:101168005DF8047B704780B485B000AF78600B46AB
:10117800FB707B680C33FB60FB68FA781A7000BF61
:101188001437BD465DF8047B704780B485B000AF66
:1011980078600B467B807B680C33FB60FB687A8841
:1011A8001A8000BF1437BD465DF8047B7047000005
:1011B80080B584B000AF786039600023FB600023FD
:1011C800BB607B68002B0BD03B68002B08D07B688A
:1011D800BB60BB681B68654A934201D1644BFB60E6
:1011E800FB68002B00F0BC80BB681A68FB681A60BB
:1011F800FB6893F84620BB6893F846301343DAB28D
:10120800FB6883F84620FB6893F84420BB6893F892
:1012180044301343DAB2FB6883F84420FB6893F840
:101228004520BB6893F845301343DAB2FB6883F86E
:101238004520FB683A68DA61BB6893F8463003F0EA
:101248000103002B32D0BB689A6AFB689A62BB68BC
:101258001A6AFB681A62FB6800225A63FB6800225C
:101268001A63FB68002283F84020FB6893F8443037
:1012780003F00403002B05D0FB681B681846FFF732
:101288001BFF13E0FB6893F8443003F01003002BB6
:101298000CD0BB685A68FB685A60BB6893F8542046
:1012A800FB6883F85420F86800F0FEFABB6893F8EE
:1012B800463003F00203002B28D0BB68DA6AFB68CB
:1012C800DA62BB685A6AFB685A62FB6800229A6352
:1012D800FB680022DA63FB6800229A61FB6800223F
:1012E80083F85620FB6893F8453003F02003002B61
:1012F8000CD0BB689A68FB689A60BB6893F8552065
:10130800FB6883F85520F86800F00FFB3B68FA6823
:101318001A60FB681B681846FFF766FE0346B3F5BC
:10132800004F0ED1FB681B681846FFF7FAFD03460D
:10133800B3F5827F05D1FB681B681846FFF7CEFD21
:1013480004E0FB681B681846FFF7B8FDBB681B681C
:101358001A46064B9A4202D000233B6000E000BFC9
:101368003B6818461037BD4680BD00BF003C0040B2
:10137800E401002080B582B000AF78600B467B8026
:101388007868FFF731FE0346B3F5004F0BD17B8831
:10139800012B08D1786800F0F4FA4FF440417868DE
:1013A800FFF70FFE11E07868FFF71EFE0346B3F55E
:1013B800404F0AD17B88002B07D1786800F0E1FA0A
:1013C8004FF400417868FFF7FCFD00231846083702
:1013D800BD4680BD80B586B000AFF8607A601A4619
:1013E8000B467B8113467B7200237B61FB68002BD5
:1013F80006D0FB681B68002B02D0FB681B687B616A
:101408007B689BB21B0A7B827B897A69134493F8B9
:101418004E30002B0CD07B69B3F84C207B7A9BB202
:101428009A4205D17B695B697A689A4200F0C88064
:101438007B7A9AB27B69A3F84C207B697A685A61F7
:101448007B691B68184600F09CFA7B69B3F84C303E
:10145800002B1CD17B691B681846FFF783FD0346E8
:10146800002B05D07B691B6800211846FFF767FD34
:101478007B691B681846FFF796FD0346022B66D06A
:101488007B691B6802211846FFF77AFD5FE07B69DC
:10149800B3F84C30012B1CD17B691B681846FFF749
:1014A80061FD0346012B05D07B691B6801211846A5
:1014B800FFF745FD7B691B681846FFF774FD034677
:1014C800022B44D07B691B6802211846FFF758FDA0
:1014D8003DE07B69B3F84C30022B1CD17B691B685B
:1014E8001846FFF73FFD0346002B05D07B691B68B4
:1014F80000211846FFF723FD7B691B681846FFF794
:1015080052FD0346002B22D07B691B680021184638
:10151800FFF736FD1BE07B691B681846FFF722FDC5
:101528000346012B05D07B691B6801211846FFF78C
:1015380006FD7B691B681846FFF735FD0346002B3F
:1015480005D07B691B6800211846FFF719FD7B69E8
:101558001B681846FFF769FD02467B6893420CD06A
:101568007B691A687B8A082B01D8002301E04FF4B5
:10157800006319461046FFF745FD7B691B6818464E
:10158800FFF732FD0346B3F5004F0ED17B691B68A8
:101598001846FFF7C6FC0346B3F5827F05D17B6981
:1015A8001B68184600F0EDF904E07B691B681846D3
:1015B800FFF784FC7B897A691344012283F84E2063
:1015C800002318461837BD4680BD80B58AB000AFE5
:1015D800F860B96011461A460B46FB801346BB807B
:1015E8000023BB840023FB6113F0E4F8F8610023B7
:1015F8003B62FB68002B06D0FB681B68002B02D0FF
:10160800FB681B683B623B6A1B6801211846FFF7B1
:10161800B1FE0346BB843B8E002B01D100237B63C4
:101628003B6A1B681846FFF769FC0346002B04D188
:101638003B6A1B681846FFF741FCBB88DBB2002BEE
:101648002CD1BB687B610023FB8422E03B6A1B68CA
:101658001846FFF70BFD0346012B0CD13B6A1868AF
:10166800FB8C7A6913441B781946FFF77CFDFB8CC9
:101678000133FB840DE00121F86910F017FA0246E6
:101688007B6B934205D2386A00F0C3F90346BB84EA
:1016980035E0FA8CFB889A42D8D330E0BB88DBB2BD
:1016A800012B2CD1BB68BB610023FB8423E03B6A80
:1016B8001B681846FFF7DAFC0346012B0DD13B6A7D
:1016C8001868FB8C5B00BA6913441B881946FFF73E
:1016D8005CFDFB8C0133FB840DE00121F86910F0FF
:1016E800E5F902467B6B934205D2386A00F091F91E
:1016F8000346BB8403E0FA8CFB889A42D7D3BB8CA1
:1017080018462837BD4680BD90B58FB004AFF86045
:10171800B96011461A460B46FB801346BB8000236E
:10172800BB840023BB6113F045F8B861FB887B8458
:101738000023FB61FB68002B06D0FB681B68002BAD
:1017480002D0FB681B68FB61FB691B680021184617
:10175800FFF710FE0346BB843B8F002B01D100230B
:10176800FB63FB691B681846FFF7DBFB0346B3F511
:10177800827F0BD1FB691B681846FFF735FC0346CF
:10178800B3F5004F02D17B8C013B7B84FB691B685E
:101798001846FFF7B3FB0346002B04D1FB691B680F
:1017A8001846FFF78BFBBB88DBB2002B39D1BB682F
:1017B8003B610023FB842FE0FB691B681846FFF799
:1017C80042FC0346002B0DD0FB691968FB8C3A6973
:1017D800D4180846FFF7ACFC03462370FB8C013392
:1017E800FB8419E00121B86910F060F90246FB6B2F
:1017F800934211D2798CFA8CFB6B0393BB690293E9
:10180800BB880193FB8800930B463969F86900F09F
:101818000BF90346BB8442E0FA8C7B8C9A42CBD30B
:101828003DE0BB88DBB2012B39D1BB687B6100236B
:10183800FB8430E0FB691B681846FFF704FC03468D
:10184800002B0ED0FB691968FB8C5B007A69D418F1
:101858000846FFF77BFC03462380FB8C0133FB849F
:1018680019E00121B86910F021F90246FB6B934297
:1018780011D2798CFA8CFB6B0393BB690293BB88FA
:101888000193FB8800930B467969F86900F0CCF85E
:101898000346BB8403E0FA8C7B8C9A42CAD3BB8C88
:1018A80018462C37BD4690BDB0B584B002AF7860FD
:1018B8007B685C687B6893F854301D467B681B68BE
:1018C8001846FFF729FC02467B681B6A1946002365
:1018D80000930B4629462046FFF794FA7B68586820
:1018E8007B6893F8543019467B68DB691B691A4694
:1018F800FFF764FA7B685A687B6893F85430194696
:101908001046FFF7BBFA7B681B681846FFF7E4FB35
:101918007B685A687B6893F8543019461046FFF77D
:101928002DFA00BF0837BD46B0BDF0B585B002AF8F
:1019380078607B689C687B6893F855301D467B68A7
:101948005B6A1E467B681B681846FFF7E5FB034683
:1019580040220092324629462046FFF753FA7B6818
:101968009A687B6893F8553019461046FFF786FA4F
:101978007B681B681846FFF7BFFB00BF0C37BD46E6
:10198800F0BD80B582B000AF78607868FFF7B6FA2E
:101998000346002B2CD07868FFF726FB0346002B64
:1019A8000AD100BF7868FFF774FB0346002BF9D112
:1019B8007868FFF793FA1BE07868FFF715FB034692
:1019C800B3F5806F06D07868FFF70EFB0346B3F5D2
:1019D800004F03D17868FFF781FA09E000BF786803
:1019E800FFF757FB0346002BF9D17868FFF776FA23
:1019F80000BF0837BD4680BD80B485B000AFF86031
:101A0800B9607A603B6000BF1437BD465DF8047B5F
:101A1800704780B483B000AF7860012318460C3754
:101A2800BD465DF8047B704790B587B000AFF8609D
:101A3800B96011461A460B46FB801346BB80FB680B
:101A48001B681846FFF74AFAFB681B681846FFF739
:101A580068FA0346B3F5827F37D1FB681B681846DE
:101A6800FFF7C2FA0346B3F5004F2ED1BA883B8D73
:101A78009A422AD0FB681B681846FFF7E4FA034627
:101A8800002BF7D0BB8DDBB2002B0CD1BB683B61C0
:101A9800FB681968FB883A69D4180846FFF748FBC1
:101AA8000346237010E0BB8DDBB2012B0CD1BB6861
:101AB8007B61FB681968FB885B007A69D418084663
:101AC800FFF744FB0346238000BF012318461C3759
:101AD800BD4690BD80B485B000AF78603960002302
:101AE800FB7397F90F3018461437BD465DF8047B31
:101AF8007047000080B584B000AF7860396000237B
:101B0800FB727B68002B05D1374809F091FE4FF036
:101B1800FF3365E03B68002B05D1344809F088FEA7
:101B28004FF0FF335CE0324BD3E900014FF0000285
:101B38004FF04043FEF748FF0346002B06D03B68B2
:101B4800D3E900232A49C1E9002305E0284BD3E95A
:101B580000233968C1E90023254BD3E900014FF080
:101B68000002244BFEF730FF0346002B02D0224828
:101B780009F05EFE7B685B681B68204A13607B681F
:101B88005B685B681E4A13607B685B689B681D4ADC
:101B980013607B685B68DB681B4A13601B4B002281
:101BA8001A600AF003FB0023FB600023FB6007E0D8
:101BB800174AFB68174942F82310FB680133FB609A
:101BC800FB68062BF4D909F031FF0346FB7297F93D
:101BD8000B30002B02D1104B01221A7097F90B30F1
:101BE80018461037BD4680BD88880108AC880108B2
:101BF800080000200000F0BFD88801084410002029
:101C0800481000204C1000205010002054100020D4
:101C18003C0200201DC200084110002080B586B09B
:101C280000AF78600023FB7500233B610023FB7342
:101C38002A4B1B78DBB2002B0CBF01230023DBB23D
:101C4800BB73274B02221A707B68002B0BD1234BE6
:101C58001B78DBB2002B06D1224B1B78DBB2002BA2
:101C680001D1012300E00023FB7316E00A200FF0E6
:101C7800DDFE3B6903F51C5310333B617B68B3F110
:101C8800FF3F05D03A697B689A4201D9012300E0F9
:101C98000023FB73002009F021FF104B1B78DBB2F7
:101CA800002B07D10F4B1B78DBB2002B02D1FB7B3B
:101CB800002BDBD00A4B03221A70FB7B002B01D0D0
:101CC8009C23FB75BB7B002B01D00AF09DFB97F989
:101CD800173018461837BD4680BD00BF3F1000209A
:101CE800411000204010002080B588B000AF0346A6
:101CF80087ED000BFB810023FB770123BB774FF0B7
:101D080000024FF00003D7E90001FEF767FE034623
:101D1800002B05D02F4809F08BFD4FF0FF3355E01D
:101D2800FB89FF2B08D9FB89FF2219462A4809F0AD
:101D38007FFD4FF0FF3349E0284B1B78DBB2032BC4
:101D480004D0264B1B78DBB2012B02D1234B042293
:101D58001A70FB89062B15D8FB89214A52F82330C3
:101D6800002B0FD00AF012FF03467B777B7F022BF4
:101D780008D1FB891A4A52F82330FA891046984745
:101D88000346BB77FB897B83FB89184697ED000BDD
:101D980009F00AFE7861BB7F002B07D07B8B79693D
:101DA80018460AF0CFFE0346FB7703E07B8B184604
:101DB8000AF027FF97F91F30002B05D097F91F303D
:101DC8001946084809F034FD97F91F30184620379E
:101DD800BD4680BD4489010888890108411000205A
:101DE8003C020020C889010880B582B000AF0023FA
:101DF800FB71002009F072FE0346FB7197F907306A
:101E080018460837BD4680BD80B582B000AF0023B4
:101E1800FB710B4B06221A7009F0FEFE0346FB719C
:101E28001C220021074816F037FC0AF073FA044B0D
:101E380000221A7097F9073018460837BD4680BD4A
:101E4800411000203C02002080B400AF034B1B78F7
:101E5800DBB21846BD465DF8047B70474010002091
:101E680080B400AF034B1B78DBB21846BD465DF863
:101E7800047B70475810002080B483B000AF7860AE
:101E88007B681B6843F001027B681A6000BF0C374F
:101E9800BD465DF8047B704780B483B000AF7860BE
:101EA8007B681B6823F001027B681A6000BF0C374F
:101EB800BD465DF8047B704780B483B000AF78609E
:101EC80039607B681B6823F004023B681A437B680F
:101ED8001A6000BF0C37BD465DF8047B704780B4BC
:101EE80083B000AF78607B681B6803F00403184672
:101EF8000C37BD465DF8047B704780B483B000AFF3
:101F0800786039607B683A681A6300BF0C37BD4651
:101F18005DF8047B704780B483B000AF78603960A7
:101F28007B681A6A3B681A437B681A6200BF0C37E1
:101F3800BD465DF8047B704780B483B000AF78601D
:101F480039607B681A6A3B68DB431A407B681A620F
:101F580000BF0C37BD465DF8047B704780B483B082
:101F680000AF786039607B683A685A6300BF0C3705
:101F7800BD465DF8047B704780B483B000AF7860DD
:101F880039607B683A689A6300BF0C37BD465DF8D4
:101F9800047B704780B483B000AF786039607B6899
:101FA8003A68DA6300BF0C37BD465DF8047B7047BA
:101FB80080B483B000AF78607B685B6B18460C37E1
:101FC800BD465DF8047B704780B483B000AF78608D
:101FD8007B689B6B18460C37BD465DF8047B7047E1
:101FE80080B483B000AF78607B68DB6B18460C3731
:101FF800BD465DF8047B704780B483B000AF78605D
:102008007B685B6C43F400427B685A6400BF0C3702
:10201800BD465DF8047B704780B483B000AF78603C
:102028007B685B6C03F40043B3F5004F01D10123D7
:1020380000E0002318460C37BD465DF8047B704766
:1020480080B483B000AF78607B685B6943F00102BD
:102058007B685A6100BF0C37BD465DF8047B70474A
:1020680080B483B000AF786039607B683A689A6161
:1020780000BF0C37BD465DF8047B704780B483B061
:1020880000AF786039603B681A047B689A6100BFCA
:102098000C37BD465DF8047B704780B582B000AF51
:1020A800786039607B681B681846FFF781FF024635
:1020B8003B68934205D07B681B6839681846FFF770
:1020C8004DFF00BF0837BD4680BD80B582B000AF68
:1020D800786039607B681B681846FFF775FF024611
:1020E8003B68934205D07B681B6839681846FFF740
:1020F80043FF00BF0837BD4680BD80B582B000AF42
:10210800786039607B681B681846FFF769FF0246EC
:102118003B68934205D07B681B6839681846FFF70F
:1021280039FF00BF0837BD4680BD80B485B000AF19
:1021380078607B681B689B6803F00703FB60FB689B
:10214800062B0CBF01230023DBB218461437BD460B
:102158005DF8047B7047000080B584B000AF7860FC
:102168000B46FB707B681B681846FFF7B8FEF860E3
:10217800FB78002B0FD07B681B68234A934204D05E
:102188007B681B68214A934205D17B681B68002144
:102198001846FFF7B2FEFB68042B11D07B681B685A
:1021A80004211846FFF788FE7B681B681846FFF76E
:1021B80047FF7B681B68F9681846FFF77DFE04E057
:1021C8007B681B681846FFF73BFF7B681B6818464F
:1021D800FFF752FEFB78002B11D07B681B680A4A78
:1021E800934204D07B681B68084A934207D17B68F6
:1021F8001A687B685B7919461046FFF77EFE00BFB8
:102208001037BD4680BD00BF0000014000040140FA
:1022180080B582B000AF78607B681B681846FFF70E
:102228003BFE00BF0837BD4680BD000080B582B0C8
:1022380000AF78600B46FB70FB78012B16D17B68EA
:102248001B680C4A934204D07B681B680A4A934275
:102258000CD17B681B681846FFF7DEFE0346002B8F
:1022680004D17B681B681846FFF7C6FE00BF083715
:10227800BD4680BD000001400004014080B400AFAD
:10228800234BB3F80222013292B2A3F80222204B68
:10229800B3F80232012B03D91D4B0022A3F8022206
:1022A8001B4BB3F80422013292B2A3F80422184B54
:1022B800B3F80432132B03D9154B0022A3F80422D8
:1022C800134BB3F80622013292B2A3F80622104B40
:1022D800B3F80632B3F5FA6F03D30D4B0022A3F817
:1022E80006220B4BB3F80822013292B2A3F8082257
:1022F800074BB3F8083244F61F62934203D9044BE4
:102308000022A3F8082200BFBD465DF8047B704791
:10231800600C002090B591B000AFF860B9607A60A9
:102328003B600023FB630023BB6369E0FB6B9B00FE
:10233800BA6813441B687B63BB6B5A1CBA63DB0027
:102348003A681344D3E90023C7E90A237B6BDB000F
:10235800FA681344D3E90001D7E90A23FDF714FF0B
:1023680002460B46C7E90823BB6BDB003A681344F7
:10237800D3E90001D7E90A23FDF706FF02460B4619
:10238800C7E90623D7E90623D7E90801FEF7DEF9EE
:1023980002460B4643EC172BB0EE470AF0EE670AED
:1023A80014F01EFC53EC102B10461946FEF754FB94
:1023B80003467B617B69002B1CD07869FEF732F8F5
:1023C800D7E90623FEF798F802460B46D7E9080135
:1023D800FDF7DAFE02460B46104619467B6BDB001A
:1023E800FA68D418D7E90A23FDF7D0FE02460B464F
:1023F800C4E90023FB6B0133FB63BB6B0133BB6395
:10240800FA6B7B689A4291DB00BF00BF4437BD4638
:1024180090BD00002DE9F04399B000AF78607B686B
:10242800DB6F1B68D3E90023C7E914237B68D3E972
:102438000623C7E912237B681B6AD3E90023C7E98F
:1024480010237B68D3F884301B68FB637B689B6828
:10245800BB63BB6B1B687B63BB6B5B683B63BB6B22
:102468009B68FB62BB6BDB68BB6204237B627B6897
:102478005B6800221A707B6ADB001A46F96B786B7E
:10248800FEF79CFB7B689B6F3A6B1A6006F0F0FEC8
:10249800774BD3E90001D7E91023FEF72DF8024660
:1024A8000B46C7E902230023FB6524E0FB6DDB0034
:1024B8007A6B1344D3E90045FB6DDB003A6B134498
:1024C800D3E90001D7E90223FEF716F802460B46C6
:1024D80010461946FB6DDB00FA6BD61802460B4610
:1024E80020462946FDF752FE02460B46C6E9002360
:1024F800FB6D0133FB65FA6D7B6A9A42D6DB5D4B57
:10250800D3E90001D7E91023FDF7F6FF02460B4691
:10251800104619467B68DB6F1C68D7E91423FDF762
:1025280035FE02460B46C4E900237B689B6FFA6AB6
:102538001A6001F059F906F09BFE0023FB6516E0CE
:102548004B4AFB6D0333DB001344D3E90001D7E9A1
:102558001023FDF7D1FF02460B46F96DC900603123
:1025680039445839C1E90023FB6D0133FB65FB6D24
:10257800012BE5DD0023FB6538E0FB6DDB007A6BA2
:102588001344D3E90045FB6DDB003A6B1344D3E9F0
:102598000001D7E90223FDF7AFFF02460B4690463C
:1025A8009946FB6DDB00FA6A1344D3E90001D7E9C9
:1025B8000423FDF7A1FF02460B4640464946FDF7B6
:1025C800E5FD02460B4610461946FB6DDB00FA6B2B
:1025D800D61802460B4620462946FDF7D7FD024687
:1025E8000B46C6E90023FB6D0133FB65FA6D7B6A78
:1025F8009A42C2DB1F4BD3E90201D7E91023FDF74A
:102608007BFF02460B46104619467B68DB6F1C6849
:10261800D7E91423FDF7BAFD02460B46C4E90023A7
:102628007B689B6FBA6A1A6001F0DEF806F020FE3C
:102638000023FB6516E00E4AFB6D0633DB001344EE
:10264800D3E90001D7E91023FDF756FF02460B46F0
:10265800F96DC900603139445839C1E90023FB6D6F
:102668000133FB65FB6D022BE5DD0023FB6550E0C4
:1026780038B1010880B10108FB6DDB007A6B1344A7
:10268800D3E90045FB6DDB003A6B1344D3E9000145
:10269800D7E90223FDF730FF02460B4690469946DC
:1026A800FB6DDB00FA6A1344D3E90001D7E9042380
:1026B800FDF722FF02460B4640464946FDF766FDF8
:1026C80002460B4690469946FB6DDB00BA6A1344F6
:1026D800D3E90001D7E90623FDF70EFF02460B46B2
:1026E80040464946FDF752FD02460B46104619463C
:1026F800FB6DDB00FA6BD61802460B4620462946CE
:10270800FDF744FD02460B46C6E90023FB6D013385
:10271800FB65FA6D7B6A9A42AEDB7B68DB6F1968F2
:10272800D7E91223C1E900237B68D3F884301868FD
:102738007B68D3F88C3019687B68D3F890301B68B5
:102748000122FFF7E7FD7B685B6801221A7000BF72
:102758006437BD46BDE8F08380B483B000AF7860CD
:102768007B684FF0FF321A6000BF0C37BD465DF83A
:10277800047B704780B483B000AF78607B684FF00B
:10278800FF321A6000BF0C37BD465DF8047B704706
:1027980080B485B000AF0346B9607A60FB817B687E
:1027A8004FF0FF321A60FB89DB039AB2BB681A80CC
:1027B80000BF1437BD465DF8047B704780B483B012
:1027C80000AF78607B684FF0FF321A6000BF0C37AB
:1027D800BD465DF8047B704780B483B000AF786075
:1027E8007B684FF0FF321A6000BF0C37BD465DF8BA
:1027F800047B704780B485B000AF0346B9607A6047
:10280800FB817B684FF0FF321A60FB89DB029AB2CA
:10281800BB681A8000BF1437BD465DF8047B70475B
:1028280080B59AB000AF78607B6800221A727B6826
:1028380001225A600023BB620023FB62254BBB6068
:10284800002387F84E3000233B6300237B6301237A
:1028580087F84C30022387F84D300023FB600023B3
:1028680087F85C3000233B61002387F85D307B6884
:1028780000221A617B68184A5A61012387F8673079
:102888007B680E229A617B68012283F824207B688A
:1028980097F867201A777B680F221A627B681033D3
:1028A8003B6607F10803396E1846FEF781FC0246BD
:1028B8007B68DA607B68D86803234FF47062022172
:1028C800FEF788FD7B6801221A7200BF6837BD4693
:1028D80080BD00BF003C00400008024080B582B0C7
:1028E80000AF78607B6800225A607B6800221A700B
:1028F8007B68012283F828207B681846FFF790FF41
:1029080000BF0837BD4680BD80B58CB002AF786087
:102918007B68D86803234FF470620221FEF75AFDE2
:102928000346FB84FB8C002B10D17B68D86807F129
:102938000801012301930123009301230F22FEF7CD
:10294800E3FE4FF480410348FFF78AFB00BF2837B6
:10295800BD4680BD0008024080B586B002AF7860F1
:102968007B681B78002B16D17B6801221A707B6864
:102978005B68012B0FD17B681B7A002B0BD04FF0C3
:10298800FF33FB607B68D8680E230093FB68FA6806
:10299800F968FFF731F800BF1037BD4680BD000069
:1029A80080B59AB000AF78600023BB620023FB6259
:1029B800234BBB60002387F84E3000233B63002382
:1029C8007B63012387F84C30022387F84D300023BE
:1029D800FB60002387F85C3000233B61002387F805
:1029E8005D307B6800221A617B68164A5A610123B0
:1029F80087F867307B680E229A617B68012283F82A
:102A080024207B6897F867201A777B6801221A626E
:102A18007B6810333B6607F10803396E1846FEF7EA
:102A2800C7FB02467B68DA607B68D86803234FF4EB
:102A380070620221FEF7CEFC00BF6837BD4680BD3C
:102A4800003C00400008024080B582B000AF7860CA
:102A58007B6800221A707B68012283F828207B6833
:102A680000221A727B6801225A607B681846FFF7B9
:102A780097FF7B6801221A7200BF0837BD4680BDE8
:102A880080B586B002AF03463960FB803B68D868E2
:102A980003234FF470620221FEF79CFC0346FB817E
:102AA800FB89002B0FD14FF480410948FFF7E6FA64
:102AB8003B68D868B91D01230193012300930123C2
:102AC8000122FEF782FD00BF1037BD4680BD00BF62
:102AD8000008024080B586B002AF78607B681B783A
:102AE800002B16D17B6801221A707B685B68012B6A
:102AF8000FD17B681B7A002B0BD04FF0FF33FB60A4
:102B08007B68D8680E230093FB68FA68F968FEF7BB
:102B180073FF00BF1037BD4680BD000080B59AB076
:102B280000AF78607B6800221A727B6801225A60C5
:102B38000023BB620023FB62254BBB60002387F8A0
:102B48004E3000233B6300237B63012387F84C301E
:102B5800022387F84D300023FB60002387F85C30A0
:102B680000233B61002387F85D307B6800221A61EF
:102B78007B68184A5A61012387F867307B680E2200
:102B88009A617B68012283F824207B6897F8672084
:102B98001A777B6801221A627B6810333B6607F15B
:102BA8000803396E1846FEF703FB02467B68DA60B5
:102BB8007B68D86803234FF470620221FEF70AFC91
:102BC8007B6801221A7200BF6837BD4680BD00BF0E
:102BD800003C00400008024080B582B000AF786039
:102BE8007B6800225A607B6800221A707B68012289
:102BF80083F828207B681846FFF790FF00BF083746
:102C0800BD4680BD80B586B002AF786039603B684C
:102C1800D86803234FF470620221FEF7DBFB0346FA
:102C2800FB81FB89002B0FD13B68D86879680123A9
:102C380001930123009301230122FEF765FD4FF460
:102C480080410348FFF70CFA00BF1037BD4680BD2E
:102C58000008024080B586B002AF78607B681B78B8
:102C6800002B16D17B6801221A707B685B68012BE8
:102C78000FD17B681B7A002B0BD04FF0FF33FB6022
:102C88007B68D8680E230093FB68FA68F968FEF73A
:102C9800B3FE00BF1037BD4680BD000080B59AB0B6
:102CA80000AF78607B6800221A727B6801225A6044
:102CB8000023BB620023FB62254BBB60002387F81F
:102CC8004E3000233B6300237B63012387F84C309D
:102CD800022387F84D300023FB60002387F85C301F
:102CE80000233B61002387F85D307B6800221A616E
:102CF8007B68184A5A61012387F867307B680E227F
:102D08009A617B68012283F824207B6897F8672002
:102D18001A777B680F221A627B6810333B6607F1CB
:102D28000803396E1846FEF743FA02467B68DA60F4
:102D38007B68D86803234FF470620221FEF74AFBD0
:102D48007B6801221A7200BF6837BD4680BD00BF8C
:102D5800003C00400008024080B582B000AF7860B7
:102D68007B6800225A607B6800221A707B68012207
:102D780083F828207B681846FFF790FF00BF0837C4
:102D8800BD4680BD80B586B002AF786039603B68CB
:102D9800D86803234FF470620221FEF71BFB034639
:102DA800FB81FB89002B0FD13B68D8687968012328
:102DB80001930123009301230F22FEF7A5FC4FF492
:102DC80080410348FFF74CF900BF1037BD4680BD6E
:102DD8000008024080B586B002AF78607B681B7837
:102DE800002B16D17B6801221A707B685B68012B67
:102DF8000FD17B681B7A002B0BD04FF0FF33FB60A1
:102E08007B68D8680E230093FB68FA68F968FEF7B8
:102E1800F3FD00BF1037BD4680BD000080B59AB0F5
:102E280000AF78600023BB620023FB62234BBB60CA
:102E3800002387F84E3000233B6300237B63012384
:102E480087F84C30022387F84D300023FB600023BD
:102E580087F85C3000233B61002387F85D307B688E
:102E680000221A617B68164A5A61012387F8673085
:102E78007B680E229A617B68012283F824207B6894
:102E880097F867201A777B6801221A627B681033EB
:102E98003B6607F10803396E1846FEF789F90246C2
:102EA8007B68DA607B68D86803234FF4706202217C
:102EB800FEF790FA00BF6837BD4680BD003C004071
:102EC8000008024080B582B000AF78607B680022BD
:102ED8001A707B68012283F828207B6800221A7206
:102EE8007B6801225A607B681846FFF797FF7B686A
:102EF80001221A7200BF0837BD4680BD80B586B072
:102F080002AF03463960FB803B68D86803234FF45F
:102F180070620221FEF75EFA0346FB81FB89002BF3
:102F28000FD14FF480410948FFF7A8F83B68D868EB
:102F3800B91D012301930123009301230122FEF708
:102F480044FB00BF1037BD4680BD00BF00080240EB
:102F580080B586B002AF78607B681B78002B16D1ED
:102F68007B6801221A707B685B68012B0FD17B6834
:102F78001B7A002B0BD04FF0FF33FB607B68D868BF
:102F88000E230093FB68FA68F968FEF735FD00BF69
:102F98001037BD4680BD0000B0B586B000AF87EDE4
:102FA800020B786097ED020B13F01AFE87ED040B05
:102FB80097ED040B07F04CFA0346002B06D197ED6A
:102FC800040B07F0F5F90346002B06D04FF000027A
:102FD8004FF00003C7E9042307E09FED1F1B97ED9F
:102FE800040B13F06BFB87ED040B4FF000024FF05E
:102FF8000003D7E90401FDF7F1FC0346002B12D0CA
:103008003C697B6983F0004520462946FDF74CFD65
:1030180003469BB25B429BB21BB21846FDF702FA0D
:1030280002460B460BE0D7E90401FDF73DFD0346D8
:103038009BB21BB21846FDF7F5F902460B46D7E9D5
:103048000201FDF7A1F802460B467968C1E90023A1
:1030580000BF1837BD46B0BD000000000000F040BA
:10306800B0B586B000AF87ED020B786097ED020B24
:1030780013F03AFE87ED040B97ED040B07F0E8F91F
:103088000346002B06D197ED040B07F091F9034690
:10309800002B06D04FF000024FF00003C7E90423CD
:1030A80007E09FED1F1B97ED040B13F007FB87ED5F
:1030B800040B4FF000024FF00003D7E90401FDF7BD
:1030C8008DFC0346002B12D03C697B6983F00045D8
:1030D80020462946FDF7E8FC03469BB25B429BB2BB
:1030E8001BB21846FDF79EF902460B460BE0D7E9DE
:1030F8000401FDF7D9FC03469BB21BB21846FDF745
:1031080091F902460B46D7E90201FDF73DF8024660
:103118000B467968C1E9002300BF1837BD46B0BD2A
:10312800000000000000F040F0B58BB000AF87ED64
:10313800020B87ED001BD7E90223C7E908234FF0EC
:1031480000024FF00003D7E90001FDF73DFC0346FC
:10315800002B10D04FF000024FF00003D7E9020116
:10316800FDF732FC0346002B00F01281D7E900235B
:10317800C7E908230CE197ED020B07F069F903464C
:10318800002B0DD197ED000B07F062F90346002BD9
:1031980006D197ED020B07F00BF90346002B05D07B
:1031A800814BD3E90023C7E90823F1E04FF000027F
:1031B8004FF00003D7E90201FDF706FC0346002B98
:1031C8000CD0D7E900234FF000004FF00001FDF7C5
:1031D800BDFA02460B46C7E90823D9E097ED000B74
:1031E80007F0E6F80346002B29D001231C464FF0D0
:1031F80000024FF00003D7E90001FDF7EFFB03469B
:10320800002B01D100231C46E4B201231D464FF0D8
:1032180000024FF00003D7E90201FDF7DFFB034688
:10322800002B01D100231D46EBB26340DBB2002B1B
:1032380000F0AE80D7E90023C7E90823A8E097ED9E
:10324800001B97ED020B13F039FA87ED080B0123E9
:103258001E464FF000024FF00003D7E90801FDF7C2
:10326800B3FB0346002B01D100231E46F3B2FB77C4
:10327800FB7F002B4ED197ED000B13F0B1FC53EC04
:10328800102BD7E90001FDF7C7FB0346002B41D0FF
:10329800D7E90023D7E90201FDF758FA02460B46A1
:1032A8001146396123F000437B614FF000023F4B28
:1032B800D7E90401FCF76AFF02460B4643EC172BDB
:1032C800B0EE470AF0EE670A13F08AFC53EC102BB5
:1032D800D7E90401FCF758FF02460B46144623F0D1
:1032E80000454FF00002324BD7E90401FDF704F91D
:1032F80002460B4601210E4620462946FDF78CFB67
:103308000346002B01D100231E46F3B283F00103CC
:10331800DBB2FB77FB7F002B0CD04FF000024FF0A5
:103328000003D7E90001FDF7E7F802460B46C7E9B5
:1033380008232DE001231C464FF000024FF0000344
:10334800D7E90201FDF74AFB0346002B01D1002310
:103358001C46E4B201231D464FF000024FF0000363
:10336800D7E90001FDF73AFB0346002B01D1002302
:103378001D46EBB26340DBB2002B09D0D7E900232E
:10338800D7E90801FCF702FF02460B46C7E9082304
:10339800D7E9082343EC172BB0EE470AF0EE670A8B
:1033A8002C37BD46F0BD00BF000000200000E03F04
:1033B8000000B03C80B59AB000AF78600023BB62D3
:1033C8000023FB62234BBB60002387F84E300023A9
:1033D8003B6300237B63012387F84C30022387F883
:1033E8004D300023FB60002387F85C3000233B61ED
:1033F800002387F85D307B6800221A617B68164AD3
:103408005A61012387F867307B680E229A617B68CE
:10341800012283F824207B6897F867201A777B6855
:1034280001221A627B6810333B6607F10803396E84
:103438001846FDF7BDFE02467B68DA607B68D868EF
:1034480003234FF470620221FDF7C4FF00BF683701
:10345800BD4680BD003C00400008024080B59AB0DF
:1034680000AF78607B6800221A727B6801225A607C
:103478000023BB620023FB62254BBB60002387F857
:103488004E3000233B6300237B63012387F84C30D5
:10349800022387F84D300023FB60002387F85C3057
:1034A80000233B61002387F85D307B6800221A61A6
:1034B8007B68184A5A61012387F867307B680E22B7
:1034C8009A617B68012283F824207B6897F867203B
:1034D8001A777B6810221A627B6810333B6607F103
:1034E8000803396E1846FDF763FE02467B68DA600A
:1034F8007B68D86803234FF470620221FDF76AFFE6
:103508007B6801221A7200BF6837BD4680BD00BFC4
:10351800003C00400008024080B59AB000AF7860D7
:103528007B6800221A727B6801225A600023BB6202
:103538000023FB62254BBB60002387F84E30002335
:103548003B6300237B63012387F84C30022387F811
:103558004D300023FB60002387F85C3000233B617B
:10356800002387F85D307B6800221A617B68184A5F
:103578005A61012387F867307B680E229A617B685D
:10358800012283F824207B6897F867201A777B68E4
:1035980001221A627B6810333B6607F10803396E13
:1035A8001846FDF705FE02467B68DA607B68D86836
:1035B80003234FF470620221FDF70CFF7B680122A0
:1035C8001A7200BF6837BD4680BD00BF003C00408E
:1035D8000008024080B58CB002AF78607B6800229A
:1035E8001A727B6801225A600023BB6100237B7436
:1035F800184BFB6100233B620023BB74002387F850
:103608002430012387F825300123FB6001233B7414
:1036180007F10C000023009304230122012112F07A
:103628008BFE02467B68DA607B68DB68184612F01E
:103638002BFF7B68DB680121184612F071FE7B685E
:1036480001221A727B6800225A7200BF2837BD46D1
:1036580080BD00BF0021014080B58CB002AF78600A
:103668007B6800221A727B6801225A600023BB61C2
:1036780000237B74184BFB6100233B620023BB745F
:10368800002387F82430012387F825300123FB60C5
:1036980001233B7407F10C0000230093042301224B
:1036A800012112F049FE02467B68DA607B68DB681C
:1036B800184612F0E9FE7B68DB680121184612F013
:1036C8002FFE7B6801221A727B6800225A7200BFA3
:1036D8002837BD4680BD00BF0022014080B5A6B096
:1036E80000AF78601D4BBB6000233B7300237B73E6
:1036F80007F10803184612F0C9FB02467B68DA6036
:103708007B68DB680021184612F01CF97B68DB68CF
:103718000421184612F04AFA7B68DB68042118462F
:1037280012F0BCFA7B68DB680421184612F02EFB05
:103738007B68DB681846FEF7F8FC034687F8973085
:1037480097F89730002B05D17B68DB680021184675
:10375800FEF702FD00BF9837BD4680BD000401405A
:1037680080B58CB002AF78607B6800221A727B68E3
:1037780001225A600023BB6100237B74184BFB6154
:1037880000233B620023BB74002387F82430012305
:1037980087F825300123FB6001233B7407F10C00F7
:1037A8000023009304230122012112F0C5FD0246E3
:1037B8007B68DA607B68DB68184612F065FE7B6818
:1037C800DB680121184612F0ABFD7B6801221A72F2
:1037D8007B6800225A7200BF2837BD4680BD00BFF3
:1037E80000200140000000002DE9B04F2DED028BB4
:1037F800ADF5047D02AFD04B93F82032012B10D1E8
:10380800CD4BD3F8D83101331846FCF7FBFDCA4B32
:10381800D3E97823C84CFCF76FFE02460B46C4E98F
:103828000823C54B93F82032002B0AD1C24BD3F89A
:1038380084301A68C04BD3F82412D2E90023C1E9B6
:103848000023BE4B93F9333487F86B31002387F894
:103858009C3197F86B31042B1FD801A252F823F042
:103868007D380008853800088D380008953800082C
:103878009D380008002387F89C310EE0032387F861
:103888009C310AE0032387F89C3106E0002387F87F
:103898009C3102E0002387F89C3197F99C31A74AB4
:1038A80082F83334A54B93F9323487F86A31002310
:1038B80087F89B3197F86A31042B20D801A252F877
:1038C80023F000BFE1380008E9380008F1380008A3
:1038D800F938000801390008002387F89B310EE009
:1038E800032387F89B310AE0032387F89B3106E01E
:1038F800002387F89B3102E0002387F89B3197F972
:103908009B318E4A82F832348C4B93F9313487F8E4
:103918006931002387F89A3197F86931042B20D848
:1039280001A252F823F000BF453900084D390008BC
:10393800553900085D39000865390008002387F803
:103948009A310EE0032387F89A310AE0032387F8B7
:103958009A3106E0002387F89A3102E0002387F8BD
:103968009A3197F99A31754A82F83134734B93F941
:10397800303487F86831002387F8993197F868312F
:10398800042B20D801A252F823F000BFA93900085F
:10399800B1390008B9390008C1390008C939000827
:1039A800002387F899310EE0032387F899310AE05C
:1039B800032387F8993106E0002387F8993102E05C
:1039C800002387F8993197F999315C4A82F83034A5
:1039D8005A4B93F92F3487F86731002387F89831C9
:1039E80097F86731042B20D801A252F823F000BFC2
:1039F8000D3A0008153A00081D3A0008253A000853
:103A08002D3A0008002387F898310EE0032387F841
:103A180098310AE0032387F8983106E0002387F8F5
:103A2800983102E0002387F8983197F99831434A92
:103A380082F82F34414B93F92E3487F866310023EE
:103A480087F8973197F86631042B20D801A252F8ED
:103A580023F000BF713A0008793A0008813A00085B
:103A6800893A0008913A0008002387F897310EE058
:103A7800032387F897310AE0032387F8973106E094
:103A8800002387F8973102E0002387F8973197F9E8
:103A980097312A4A82F82E34284B93F92D3487F827
:103AA8006531002387F8963197F86531042B20D8C3
:103AB80001A252F823F000BFD53A0008DD3A000809
:103AC800E53A0008ED3A0008F53A0008002387F8BF
:103AD80096310EE0032387F896310AE0032387F82E
:103AE800963106E0002387F8963102E0002387F834
:103AF800963197F99631114A82F82D340F4B93F984
:103B08002C3487F86431002387F8953197F86431AD
:103B1800042B24D801A252F823F000BF393B000837
:103B2800493B0008513B0008593B0008613B00082D
:103B3800002387F8953112E0600C002078050020FA
:103B4800032387F895310AE0032387F8953106E0C7
:103B5800002387F8953102E0002387F8953197F91B
:103B68009531D64A82F82C34D44B93F92B3487F804
:103B78006331002387F8943197F86331042B20D8F8
:103B880001A252F823F000BFA53B0008AD3B000896
:103B9800B53B0008BD3B0008C53B0008002387F87B
:103BA80094310EE0032387F894310AE0032387F861
:103BB800943106E0002387F8943102E0002387F867
:103BC800943197F99431BD4A82F82B34BB4B93F961
:103BD8002A3487F86231002387F8933197F86231E5
:103BE800042B20D801A252F823F000BF093C00089A
:103BF800113C0008193C0008213C0008293C000839
:103C0800002387F893310EE0032387F893310AE005
:103C1800032387F8933106E0002387F8933102E005
:103C2800002387F8933197F99331A44A82F82A340C
:103C3800A24B93F9543487F86131002387F8923105
:103C480097F86131042B20D801A252F823F000BF65
:103C58006D3C0008753C00087D3C0008853C000868
:103C68008D3C0008002387F892310EE0032387F883
:103C780092310AE0032387F8923106E0002387F89F
:103C8800923102E0002387F8923197F992318B4AFA
:103C980082F85434894B93F9533487F86031002300
:103CA80087F8913197F86031042B20D801A252F897
:103CB80023F000BFD13C0008D93C0008E13C0008D3
:103CC800E93C0008F13C0008002387F891310EE038
:103CD800032387F891310AE0032387F8913106E03E
:103CE800002387F8913102E0002387F8913197F992
:103CF8009131724A82F85334704B93F9293487F81A
:103D08005F31002387F8903197F85F31042B20D872
:103D180001A252F823F000BF353D00083D3D0008E0
:103D2800453D00084D3D0008553D0008002387F833
:103D380090310EE0032387F890310AE0032387F8D7
:103D4800903106E0002387F8903102E0002387F8DD
:103D5800903197F99031594A82F82934574B93F9A1
:103D6800283487F85E31002387F88F3197F85E3161
:103D7800042B20D801A252F823F000BF993D000877
:103D8800A13D0008A93D0008B13D0008B93D000863
:103D9800002387F88F310EE0032387F88F310AE07C
:103DA800032387F88F3106E0002387F88F3102E07C
:103DB800002387F88F3197F98F31404A82F82834E9
:103DC8003E4B93F9273487F85D31002387F88E310D
:103DD80097F85D31042B20D801A252F823F000BFD8
:103DE800FD3D0008053E00080D3E0008153E000890
:103DF8001D3E0008002387F88E310EE0032387F864
:103E08008E310AE0032387F88E3106E0002387F815
:103E18008E3102E0002387F88E3197F98E31274AD8
:103E280082F82734254B93F9263487F85C31002330
:103E380087F88D3197F85C31042B20D801A252F80D
:103E480023F000BF613E0008693E0008713E00088B
:103E5800793E0008813E0008002387F88D310EE086
:103E6800032387F88D310AE0032387F88D3106E0B4
:103E7800002387F88D3102E0002387F88D3197F908
:103E88008D310E4A82F826340C4B93F9253487F885
:103E98005B31002387F88C3197F85B31042B22D8EB
:103EA80001A252F823F000BFC93E0008D13E000825
:103EB800D93E0008E13E0008E93E000878050020E8
:103EC800002387F88C310EE0032387F88C310AE051
:103ED800032387F88C3106E0002387F88C3102E051
:103EE800002387F88C3197F98C31CD4A82F8253434
:103EF800CB4B93F9243487F85A31002387F88B3158
:103F080097F85A31042B20D801A252F823F000BFA9
:103F18002D3F0008353F00083D3F0008453F000899
:103F28004D3F0008002387F88B310EE0032387F804
:103F38008B310AE0032387F88B3106E0002387F8EA
:103F48008B3102E0002387F88B3197F98B31B44A23
:103F580082F82434B24B93F9233487F8593100237B
:103F680087F88A3197F85931042B20D801A252F8E2
:103F780023F000BF913F0008993F0008A13F0008C7
:103F8800A93F0008B13F0008002387F88A310EE0F6
:103F9800032387F88A310AE0032387F88A3106E089
:103FA800002387F88A3102E0002387F88A3197F9DD
:103FB8008A319B4A82F82334994B93F9223487F843
:103FC8005831002387F8893197F85831042B20D8C5
:103FD80001A252F823F000BFF53F0008FD3F00089A
:103FE800054000080D40000815400008002387F828
:103FF80089310EE0032387F889310AE0032387F823
:10400800893106E0002387F8893102E0002387F828
:10401800893197F98931824A82F82234804B93F9A1
:10402800213487F85731002387F8883197F85731BA
:10403800042B20D801A252F823F000BF59400008F1
:104048006140000869400008714000087940000894
:10405800002387F888310EE0032387F888310AE0C7
:10406800032387F8883106E0002387F8883102E0C7
:10407800002387F8883197F98831694A82F8213412
:10408800674B93F9203487F85631002387F8873136
:1040980097F85631042B20D801A252F823F000BF1C
:1040A800BD400008C5400008CD400008D5400008C4
:1040B800DD400008002387F887310EE0032387F8E6
:1040C80087310AE0032387F8873106E0002387F861
:1040D800873102E0002387F8873197F98731504A02
:1040E80082F820344E4B93F91F3487F8553100235A
:1040F80087F8863197F85531042B20D801A252F859
:1041080023F000BF2141000829410008314100087F
:104118003941000841410008002387F886310EE044
:10412800032387F886310AE0032387F8863106E0FF
:10413800002387F8863102E0002387F8863197F953
:104148008631374A82F81F34354B93F9143487F88F
:104158005431002387F8853197F85431042B20D83F
:1041680001A252F823F000BF854100088D410008E4
:10417800954100089D410008A5410008002387F8E3
:1041880085310EE0032387F885310AE0032387F899
:10419800853106E0002387F8853102E0002387F89F
:1041A800853197F985311E4A82F814341D4B93F8EE
:1041B8002032012B27D11B4BB3F80632002B22D11A
:1041C800174B93F8C131002B03D0154A002382F80E
:1041D800C131134BD3F8C431134A0421184612F0E5
:1041E80068F9124BB3F898321846FCF70BF94FF000
:1041F80000020F4BFCF780F902460B4610461946A1
:104208000A4BC3E90001074B93F82032012B11D167
:10421800044BB3F80232002B0CD101230BE000BF92
:1042280078050020600C0020F004002058020020CF
:104238000000903F002387F8533197F85331002B43
:104248000BD0B64B93F81234B54A82F8AC32B34B64
:1042580093F81334B24A82F8AD32B24B93F8203255
:10426800012B06D1AF4BB3F80432002B01D1012347
:1042780000E0002387F8523197F85231002B00F004
:104288001983A64BB3F80C2447F6FE739A4207D855
:10429800A24BB3F80C3401339BB2A04AA2F80C34F9
:1042A8009E4BB3F80E2441F6FE739A4207D89B4BF7
:1042B800B3F80E3401339BB2984AA2F80E34974BE8
:1042C800B3F810244FF6FF739A4207D0934BB3F814
:1042D800103401339BB2914AA2F810348F4B93F8F3
:1042E8003434002B3CD18D4A012382F834348B4A74
:1042F800012382F83534894A0023A2F80C34874A0E
:104308000123C2F80034854A012382F83634834AEF
:104318000023A2F80E34814A0323C2F804347F49EB
:104328004FF00002804BC1E9C6237D494FF00002DF
:104338004FF00003C1E98A23784A012382F8373411
:10434800764A0023A2F81034744A0123C2F80834CC
:1043580072494FF000024FF00003C1E9C823A9E2F7
:104368006E4BD3F80034013B072B00F2FB8001A20F
:1043780052F823F09D430008CB4300080544000889
:104388003F44000879440008B3440008EB4400089F
:1043980035450008614BB3F80C2444F61F639A4274
:1043A80040F202815D4A0023A2F80C345B4A0223E2
:1043B800C2F800345A494FF000025B4BC1E9902320
:1043C800F2E057494FF00002574BC1E99023534B95
:1043D800B3F80C34B3F5FA6FC0F0E8804F4A002305
:1043E800A2F80C344D4A0423C2F800344C494FF06B
:1043F80000024FF00003C1E99023D7E048494FF08D
:1044080000024FF00003C1E99A23444BB3F80C347F
:10441800B3F5FA6FC0F0CC80404A0023A2F80C3400
:104428003E4A0223C2F800343D494FF000023E4B99
:10443800C1E99023BCE03A494FF000024FF0000375
:10444800C1E99023354BB3F80C34B3F5FA6FC0F0DB
:10445800B180324A0023A2F80C34304A0523C2F84E
:1044680000342F494FF000022F4BC1E99223A1E0FD
:104478002B494FF000022C4BC1E99223274BB3F88C
:104488000C34B3F5FA6FC0F09780244A0023A2F8E1
:104498000C34224A0623C2F8003421494FF00002A6
:1044A8004FF00003C1E9922386E01D494FF0000256
:1044B8004FF00003C1E99223184BB3F80C34B3F55D
:1044C800FA6F7BD3154A0023A2F80C34134A07234A
:1044D800C2F8003412494FF00002134BC1E9982387
:1044E8006CE00F494FF000020F4BC1E998230B4BCA
:1044F800B3F80C34B3F5FA6F62D3084A0023A2F874
:104508000C34064A0823C2F8003405494FF000026B
:104518004FF00003C1E9982352E000BF780500205E
:1045280058020020600C00200000F03FA4494FF022
:1045380000024FF00003C1E99823A24BB3F80C34F2
:10454800B3F5FA6F3ED39F4A0023A2F80C349D4A74
:104558000923C2F800349A494FF000029A4BC1E986
:104568009A232FE096494FF00002974BC1E99A230E
:10457800944BB3F80C34B3F5FA6F25D3914A002362
:10458800A2F80C348F4A0323C2F800348C494FF048
:1045980000024FF00003C1E99A238A494FF0000254
:1045A800894BC1E9C8230FE000BF0EE000BF0CE053
:1045B80000BF0AE000BF08E000BF06E000BF04E05B
:1045C80000BF02E000BF00E000BF7E4BD3F8043418
:1045D800013B052B00F2B98001A252F823F000BF7D
:1045E80001460008274600085F460008AF46000855
:1045F800E94600082147000871494FF00002724B54
:10460800C1E994236E494FF000026F4BC1E996232C
:104618006B494FF000026C4BC1E99C23C8E0684924
:104628004FF00002684BC1E98A23664BB3F80E3499
:10463800B3F57A6FC0F0B380624A0023A2F80E3453
:10464800604A0423C2F804345D494FF000025E4B0F
:10465800C1E98E23A3E05A494FF000024FF000034E
:10466800C1E98A23574BD3E9C6014FF00002564BE4
:10467800FCF7AAF90346002B00D192E0514BB3F89E
:104688000E34272B40F28D804E4A0023A2F80E34B8
:104698004C4A0223C2F8043449494FF000024A4BFD
:1046A800C1E98A237DE046494FF00002464BC1E943
:1046B8008E23444BB3F80E2441F287339A4272D9C1
:1046C800404A0023A2F80E343E4A0523C2F80434B7
:1046D8003B494FF000024FF00003C1E98E2362E02E
:1046E80037494FF000024FF00003C1E98E23354BE4
:1046F800B3F80E34B3F57A7F57D3324A0023A2F8C1
:104708000E34304A0623C2F804342D494FF0000213
:104718002D4BC1E98C2348E029494FF000022A4B70
:10472800C1E98C23274BB3F80E2440F6B7339A42DD
:104738003DD9244A0723C2F8043421494FF0000226
:104748004FF00003C1E98C2331E01D494FF000020E
:104758004FF00003C1E98C231A4BD3E9C8014FF08D
:104768000002194BFCF730F90346002B00D11FE07B
:10477800144A0123C2F8043411494FF00002124BC5
:10478800C1E994230E494FF000020F4BC1E996236B
:104798000B494FF000020C4BC1E99C2308E000BF15
:1047A80006E000BF04E000BF02E000BF00E000BF79
:1047B800044BD3F80834012B08D0022B23D04BE04C
:1047C80058020020780500200000F03FC04BB3F8E5
:1047D800102448F2CF439A4267D9BD4A0023A2F871
:1047E8001034BB4A0223C2F80834BA494FF0000219
:1047F800B94BC1E99E23B7494FF000024FF00003BF
:10480800C1E9A02351E0B3494FF00002B24BC1E91E
:104818009E23B0494FF000024FF00003C1E9A023E6
:10482800AB4BB3F81034B3F5FA6F40D3A84A002362
:10483800A2F81034A64A0323C2F80834A5494FF059
:1048480000024FF00003C1E99E23A2494FF0000285
:10485800A14BC1E9A0232AE09E494FF000024FF086
:104868000003C1E99E239B494FF000029A4BC1E91E
:10487800A023974BB3F81034B3F5FA6F19D3944AC1
:104888000023A2F81034924A0223C2F8083491494E
:104898004FF00002904BC1E99E238E494FF0000271
:1048A8004FF00003C1E9A02303E000BF02E000BF0E
:1048B80000E000BF97F85331002B00F0FC81874BD4
:1048C800C7F84C310023C7F84831824BD3E98A0135
:1048D8004FF000024FF00003FCF776F80346002B78
:1048E80004D14FF48053C7F8A03102E00023C7F881
:1048F800A031D7F8A021D7F8483102FA03F3C7F856
:10490800A0314FF48052D7F8483102FA03F3C7F8C0
:104918004431D7F8A011D7F84C01FDF7A1FBD7F81F
:10492800A031DA43D7F8443113401946D7F84C017F
:10493800FDF7A4FB674BD3E98A014FF000024FF063
:104948000003FCF741F80346002B0DD1614BD3E976
:104958008C014FF000024FF00003FCF735F80346D6
:10496800002B01D1012300E00023DBB2594A82F871
:10497800B132584B93F8B132002B00F0C480544B3D
:1049880093F84E34002B09D15548FDF7F3FE5548EE
:10499800FDF722FF4E4A012382F84E3407F1360311
:1049A8004F4A19460020FDF7F3FE07F134034D4A3C
:1049B80019460320FDF71EFF07F50273A3F5E973F7
:1049C8001A8807F50273A3F5EA731B8813439AB292
:1049D800454BB3F8A63013439BB23E4AA2F8A63221
:1049E8003C4BB3F8A6323B4AA2F8A832384BD3F86E
:1049F8009C0103234FF470620221FCF7EBFC034691
:104A0800194607F50273A3F5E9720B46138007F5FB
:104A18000273A3F5E9731B88002B11D14FF4804171
:104A28003248FDF72BFB2A4BD3F89C014FF47A73DD
:104A3800019301230093012301222D49FCF7C5FDB1
:104A4800234BD3F84C0103234FF470620221FCF787
:104A5800C1FC0346194607F50273A3F5E9720B4634
:104A6800138007F50273A3F5E9731B88002B11D196
:104A7800174BD3F84C0107F13801012301930123A7
:104A8800009301231022FCF73FFE4FF480411748A2
:104A9800FDF7E6FA0E4B93F9313487F8433197F86E
:104AA800433187F8843197F84331042B25D801A284
:104AB80052F823F0D14A0008034B0008034B0008C2
:104AC800FD4A0008034B0008022387F8843114E0EC
:104AD80078050020580200200000F03F0004024042
:104AE800380C0020300C002000B2010800080240F9
:104AF80000050020012387F8843197F98431C24AE0
:104B080082F8313403E0C04A002382F84E34BF4BA8
:104B1800D3E98A014FF000024FF00003FBF754FF7E
:104B28000346002B0DD1B94BD3E98E014FF000029B
:104B38004FF00003FBF748FF0346002B01D1012388
:104B480000E00023DBB2B14A82F8B232AF4B93F8EF
:104B5800B232002B00F0AB80AB4B93F84D34002BF6
:104B680009D1AB48FDF706FEAA48FDF735FEA64A6F
:104B7800012382F84D3407F13603A54A194600206F
:104B8800FDF706FE07F13403A24A19460220FDF795
:104B980031FE07F50273A3F5E9731A8807F5027366
:104BA800A3F5EA731B8813439AB29B4BB3F8A4305E
:104BB80013439BB2954AA2F8A432934BD3F87401DD
:104BC80003234FF470620221FCF704FC03461946E4
:104BD80007F50273A3F5E9720B46138007F5027314
:104BE800A3F5E9731B88002B10D14FF480418B4843
:104BF800FDF744FA844BD3F874010A230193012387
:104C08000093012301228649FCF7DFFC7E4BD3F891
:104C1800240103234FF470620221FCF7DBFB0346F7
:104C2800194607F50273A3F5E9720B46138007F5D9
:104C38000273A3F5E9731B88002B11D1724BD3F8CB
:104C4800240107F136010123019301230093012375
:104C58000122FCF759FD4FF480417048FDF700FA36
:104C6800694B93F9303487F8423197F8423187F825
:104C7800833197F84231042B13D801A252F823F05C
:104C88009D4C0008AB4C0008AB4C0008A54C000834
:104C9800AB4C0008022387F8833102E0012387F830
:104CA800833197F98331584A82F8303403E0564A01
:104CB800002382F84D3497F85231002B00F06C81B4
:104CC800584BDB681B78012B04D0564B93F8FC300B
:104CD800002B06D0534B93F80C31002B01D1012344
:104CE80000E0002387F8533197F85331002B3AD06E
:104CF800464BD3E9A0014FF000024FF00003FBF749
:104D08008BFE0346002B0FD03F4B93F84734002B04
:104D180029D14548FDF72EFD4448FDF75DFD3A4A87
:104D2800012382F847341EE0374B93F84734002BB1
:104D380019D00023C7F8AC310DE03449D7F8AC31AD
:104D480003F5AC735A000A4400239380D7F8AC31BA
:104D58000133C7F8AC31D7F8AC310E2BEDDD2A4A58
:104D6800002382F84734284B93F84734002B71D03E
:104D78002F493048FEF706F807F136032A4A194644
:104D88000120FDF705FD07F13403284A19460120E3
:104D9800FDF730FD07F50273A3F5E9731A8807F5E7
:104DA8000273A3F5EA731B8813439AB21A4BB3F83C
:104DB8009C3013439BB2154AA2F89A32134BB3F8AE
:104DC8009A321D491846FEF799F897F85331002B87
:104DD80040D00D4B93F92A3487F8413197F8413187
:104DE80087F8823197F84131042B2ED801A252F866
:104DF80023F000BF454E0008534E0008534E0008EC
:104E08004D4E0008534E0008780500205802002037
:104E1800280C0020200C002000B2010800080240E5
:104E2800FC040020600C0020300A0020280A002022
:104E3800FC0900200C050020D0090020022387F877
:104E4800823102E0012387F8823197F982318E4A54
:104E580082F82A3497F85331002B3AD08B4BD3E998
:104E68009E014FF000024FF00003FBF7D5FD03460B
:104E7800002B0FD0844B93F84834002B29D1844859
:104E8800FDF778FC8348FDF7A7FC7F4A012382F8E9
:104E980048341EE07C4B93F84834002B19D000238B
:104EA800C7F8AC310DE07949D7F8AC3103F5B473E4
:104EB8005A000A4400235380D7F8AC310133C7F8AD
:104EC800AC31D7F8AC310E2BEDDD6F4A002382F8F8
:104ED80048346D4B93F84834002B5DD06E496F48C9
:104EE800FDF750FF07F13603694A19460120FDF71F
:104EF8004FFC07F13403674A19460020FDF77AFC96
:104F080007F50273A3F5E9731A8807F50273A3F589
:104F1800EA731B8813439AB2614BB3F89E3013436C
:104F28009BB25A4AA2F89C32584BB3F89C32574A63
:104F3800A2F89E32554BB3F89E325A491846FDF7EF
:104F4800DDFF97F85331002B26D04F4B93F92B34C4
:104F580087F8403197F8403187F8813197F8403128
:104F6800042B14D801A252F823F000BF894F00087F
:104F7800974F0008974F0008914F0008974F000877
:104F8800022387F8813102E0012387F8813197F9FC
:104F980081313D4A82F82B34434B93F82032012B60
:104FA80097F85231002B13D0384BD3E994010123E1
:104FB8001C464FF000024FF00003FBF72DFD03469F
:104FC800002B01D100231C46E3B22F4A82F850344B
:104FD8002D4B93F85034002B74D0334B93F8203278
:104FE800012B33D1304BB3F80232002B2ED1264B94
:104FF80093F8E131002B03D0234A002382F8E131F2
:10500800214BD3F8E40107F136031A46042111F0C5
:1050180050FA07F50273A3F5E9731B881846FBF7E6
:10502800F1F94FF00002214BFBF7AEF802460B46B0
:10503800104619464FF000021D4BFBF75DFA024679
:105048000B4610461946114BC3E988010E4B93F9DC
:10505800333487F83F3197F83F3187F8803197F834
:105068003F31042B29D801A252F823F089500008B7
:10507800C3500008C3500008BD500008C3500008C2
:10508800022387F8803118E07805002058020020B4
:10509800980A0020900A0020640A00202A050020AF
:1050A80000B20108380A0020600C00200000A0406F
:1050B80000A0C43F012387F8803197F980313E4A28
:1050C80082F833343D4B93F82032012B18D13B4BF7
:1050D800B3F80432002B13D1394BD3E996010123DD
:1050E8001C464FF000024FF00003FBF795FC034607
:1050F800002B01D100231C46E3B22F4A82F84F341B
:105108002D4B93F84F34002B68D02C4B93F820325A
:10511800012B33D1294BB3F80232002B2ED1264B69
:1051280093F8D131002B03D0234A002382F8D131E0
:10513800214BD3F8D40107F136031A46042111F0A4
:10514800B8F907F50273A3F5E9731B881846FBF74E
:1051580059F94FF000021B4BFBF716F802460B46B5
:10516800104619464FF00002174BFBF7C5F90246E7
:105178000B4610461946124BC3E986010E4B93F9AC
:10518800323487F83E3197F83E3187F87F3197F807
:105198003E31042B1DD801A252F823F0B951000862
:1051A800DB510008DB510008D5510008DB5100082D
:1051B800022387F87F310CE078050020600C00207E
:1051C800580200200000A04000A0C43F012387F837
:1051D8007F3197F97F31934A82F83234924B93F8B2
:1051E8002032012B40F048838F4BB3F80232002B5A
:1051F80040F042838B4B1B6B1B68012B4BD0894BB8
:105208001A6B00231371874B1A6B01231360854BAC
:105218001A6B01231371834B1A6B824B196BD2E9FA
:105228001623C1E904237F4B1A6B7E4B196BD2E915
:105238001623C1E906237B4B1A6B7A4B196BD2E90B
:105248001623C1E90823774B1A6B764B196BD2E901
:105258001623C1E90A23734B1A6B724B196BD2E9F7
:105268003623C1E90C236F4B1A6B6E4B196BD2E9CD
:105278003623C1E90E236B4B1A6B6A4B196BD2E9C3
:105288003623C1E91023674B1A6B664B196BD2E9B9
:105298003623C1E91223634B1B6BD3E930014FF06E
:1052A80000024FF00003FBF727F902460B46C7E957
:1052B80072235C4B1B6BD3E91823D7E97201FBF708
:1052C8001BF902460B46C7E97623564B1B6BD3E9FD
:1052D8000401544B1B6BD3E91C23FBF70DF9024661
:1052E8000B46D7E97601FAF751FF02460B46C7E9A4
:1052F80076234C4B1B6BD3E906014A4B1B6BD3E956
:105308002023FBF7F9F802460B46D7E97601FAF7AE
:105318003DFF02460B46C7E97623424B1B6BD3E998
:105328000C01404B1B6BD3E92823FBF7E5F8024639
:105338000B46D7E97601FAF727FF02460B46C7E97D
:105348007623384B1B6BD3E90E01364B1B6BD3E925
:105358002C23FBF7D1F802460B46D7E97601FAF77A
:1053680013FF02460B46C7E976232E4B1A6B2D4BCB
:10537800196BD2E90423C1E906232A4B196BD7E933
:105388007223C1E90423274B1A6B264B196BD2E908
:105398000C23C1E90E23234B196BD7E97623C1E906
:1053A8000C23204B1B6BD3E93223D7E97601FBF79B
:1053B800A3F802460B46C7E972231A4B1B6BD3E9C5
:1053C8001A23D7E97201FBF797F802460B46C7E99B
:1053D8007623144B1B6BD3E90801124B1B6BD3E9E3
:1053E8001E23FBF789F802460B46D7E97601FAF740
:1053F800CDFE02460B46C7E976230A4B1B6BD3E961
:105408000A01084B1B6BD3E92223FBF775F8024608
:105418000B46D7E97601FAF7B9FE02460B46C7E90B
:10542800762303E078050020600C0020794B1B6B85
:10543800D3E91001774B1B6BD3E92A23FBF75CF800
:1054480002460B46D7E97601FAF79EFE02460B465E
:10545800C7E976236F4B1B6BD3E912016D4B1B6BAE
:10546800D3E92E23FBF748F802460B46D7E9760125
:10547800FAF78AFE02460B46C7E97623654B1A6B94
:10548800644B196BD2E90823C1E90A23614B196BF4
:10549800D7E97223C1E908235E4B1A6B5D4B196B80
:1054A800D2E91023C1E912235A4B196BD7E97623A5
:1054B800C1E91023584BD3E9880107F50273A3F516
:1054C800BC73C3E90001544BD3E9860107F50273A5
:1054D800A3F5BC73C3E902014E4BD3E982234E49BD
:1054E800C1E9022307F50273A3F5BC73D3E90023CE
:1054F8004949C1E90423484BD3E992014FF000021E
:105508004FF00003FBF788FA0346002B33D0414ADB
:10551800012382F84B3441494148FDF773FB414967
:105528004FF41040FDF7ACFA3A4B93F92E3487F854
:105538003D3197F83D3187F87E3197F83D31042B9E
:1055480013D801A252F823F06555000873550008D6
:10555800735500086D55000873550008022387F835
:105568007E3102E0012387F87E3197F97E31294A9E
:1055780082F82E340CE0274B93F84B34002B07D0DD
:10558800254A0023A2F8F232224A002382F84B343B
:10559800214BD3E99A014FF000024FF00003FBF7CB
:1055A8003BFA0346002B45D01A4A012382F84934B6
:1055B8001D491E48FDF726FB1D494FF41840FDF70D
:1055C8005FFA144B93F92C3487F83C3197F83C3147
:1055D80087F87D3197F83C31042B14D801A252F892
:1055E80023F000BF015600080F5600080F560008A8
:1055F800095600080F560008022387F87D3102E09B
:10560800012387F87D3197F97D31024A82F82C34DD
:105618001DE000BF78050020580200208C0B0020F8
:105628004A050020600B0020CC0A00204805002015
:10563800A00A0020834B93F84934002B07D0824AF4
:105648000023A2F8F0327F4A002382F849347E4BC7
:10565800B3F8F22241F250539A420CBF01230023BF
:10566800DBB2794A82F8AF32774BB3F8F02241F6D1
:1056780004039A420CBF01230023DBB2724A82F86A
:10568800B032714BD3E990014FF000024FF00003A4
:10569800FBF7C2F90346002B61D06A4B93F84C34F0
:1056A800002B09D16948FDF765F86948FDF794F8BA
:1056B800644A012382F84C3407F13603634A1946D9
:1056C8000120FDF765F807F13403614A1946022005
:1056D800FDF790F807F50273A3F5E9731A8807F543
:1056E8000273A3F5EA731B8813439AB2594BB3F8B4
:1056F800A23013439BB2544AA2F8A232524BB3F8D9
:10570800A23255491846FDF7BBF95448FDF7FCF895
:105718004C4B93F92F3487F83B3197F83B3187F896
:105728007C3197F83B31042B13D801A252F823F0AF
:105738004D5700085B5700085B570008555700088D
:105748005B570008022387F87C3102E0012387F8C1
:105758007C3197F97C313B4A82F82F3403E0394A8F
:10576800002382F84C34384BD3E998014FF00002FB
:105778004FF00003FBF750F90346002B78D0314B6C
:1057880093F84A34002B09D13548FCF7F3FF354824
:10579800FDF722F82B4A012382F84A3407F1360331
:1057A8002F4A19460120FCF7F3FF07F134032D4A6D
:1057B80019460320FDF71EF807F50273A3F5E973F0
:1057C8001A8807F50273A3F5EA731B8813439AB284
:1057D800204BB3F8A03013439BB21B4AA2F8A03267
:1057E800194BB3F8A03220491846FDF749F91F486C
:1057F800FDF78AF8134B93F92D3487F83A3197F867
:105808003A3187F87B3197F83A31042B13D801A243
:1058180052F823F0315800083F5800083F58000854
:10582800395800083F580008022387F87B3102E006
:10583800012387F87B3197F97B31024A82F82D34AE
:105848001AE000BF7805002058020020180C00203C
:10585800100C002000B20108B80B0020E40B002057
:10586800580B0020500B0020F80A0020240B0020C1
:10587800B14A002382F84A3497F85231002B00F0DD
:105888000181AE4BDB681B78012B05D0AB4B93F83D
:10589800FC30002B00F0F680A84B93F80C31002B5D
:1058A80040F0F080A64BD3E99C014FF000024FF086
:1058B8000003FBF7B1F80346002B00F09A809E4BDB
:1058C80093F84634002B40F0DD80042200219D48E7
:1058D80012F0E2FE98494FF000024FF00003C1E9D0
:1058E800C22395494FF000024FF00003C1E9C423D9
:1058F800914A4FF00003C2F8F83340220021924841
:1059080012F0CAFE8C494FF000024FF00003C1E9C3
:10591800942389494FF000024FF00003C1E9962310
:10592800854A012382F83834834A012382F83B34BC
:1059380081494FF000024FF00003C1E99E237E49E0
:105948004FF000024FF00003C1E9A0237A4A002378
:1059580082F81A34784A012382F83C347B4BD3E925
:1059680002237549C1E9A423734A002382F81C3431
:10597800714A4FF00003C2F8FC3375494FF000023A
:105988004FF00003C1E90023704BD3E900236A49B3
:10599800C1E9A623684A002382F81D34664A012318
:1059A80082F83D346A494FF000024FF00003C1E924
:1059B8000223624B93F8FC31002B0DD064494FF061
:1059C80000024FF00003C1E9042361494FF00002CF
:1059D8004FF00003C1E90623574A012382F83E34F9
:1059E800554A012382F83F34534A012382F846344A
:1059F80048E0524BD3F8F0311846FAF703FD4CA3B0
:105A0800D3E90023FAF778FD02460B4610461946FB
:105A18004A4BD3E98423FAF7D7FF0346002B04D077
:105A280004220121474812F037FE434B93F84634CD
:105A3800002B27D004220121424812F02DFE3E4AB5
:105A4800FF2382F815343C4AFF2382F816343B4A78
:105A580001235376384AFF2382F81734364AFF2346
:105A680082F81834344AFF2382F81934324AFF2363
:105A780082F81B34304AFF2382F81E342E4A002352
:105A880082F846342C4B93F84634002B03F09C8163
:105A98002A4B93F82032012B06D1284BB3F8003259
:105AA800002B01D1012300E0002387F8533197F838
:105AB8005331002B00F01F85204B93F82032012B27
:105AC80010D11E4BB3F80232002B0BD11A4BD3E97D
