:020000040800F2
:1000000000000220B5F90008B9DA0008C1DA0008DA
:10001000C9DA0008D1DA0008D9DA000800000000C7
:100020000000000000000000000000006DC100089A
:10003000E1DA00080000000029C1000859C00008EA
:1000400005FA000805FA000805FA000805FA000894
:1000500005FA000805FA000805FA000805FA000884
:1000600005FA000805FA000805FA0008EFDA0008AA
:1000700005FA000805FA000805FA000805FA000864
:100080001DD20008FDD10008A5FD000805FA0008F2
:1000900005FA000805FA000805FA000805FA000844
:1000A00005FA0008FDDA000805FA000805FA00085C
:1000B00005FA000805FA000805FA000805FA000824
:1000C00005FA000805FA000805FA000805FA000814
:1000D00005FA000805FA0008E9D1000805FA000849
:1000E00005FA000805FA000805FA000805FA0008F4
:1000F00005FA000805FA000805FA000811DB0008F7
:1001000005FA000805FA000805FA000805FA0008D3
:1001100005FA000805FA000805FA000805FA0008C3
:1001200005FA000805FA000805FA000805FA0008B3
:1001300005FA0008000000000000000005FA0008B1
:1001400005FA000805FA000805FA000805FA000893
:1001500005FA000805FA000805FA000805FA000883
:1001600005FA000805FA000805FA000805FA000873
:1001700005FA000805FA0008000000000000000071
:0801800005FA000805FA000869
:1001880081F0004102E000BF83F0004330B54FEA40
:1001980041044FEA430594EA050F08BF90EA020FAD
:1001A8001FBF54EA000C55EA020C7FEA645C7FEA40
:1001B800655C00F0E2804FEA5454D4EB5555B8BF63
:1001C8006D420CDD2C4480EA020281EA030382EAD4
:1001D800000083EA010180EA020281EA0303362D66
:1001E80088BF30BD11F0004F4FEA01314FF4801C39
:1001F8004CEA113102D0404261EB410113F0004F4B
:100208004FEA03334CEA133302D0524263EB430301
:1002180094EA050F00F0A780A4F10104D5F1200E9F
:100228000DDB02FA0EFC22FA05F2801841F10001FA
:1002380003FA0EF2801843FA05F359410EE0A5F1CE
:1002480020050EF1200E012A03FA0EFC28BF4CF0FF
:10025800020C43FA05F3C01851EBE37101F00045B5
:1002680007D54FF0000EDCF1000C7EEB00006EEBC2
:100278000101B1F5801F1BD3B1F5001F0CD349084C
:100288005FEA30004FEA3C0C04F101044FEA4452A3
:1002980012F5800F80F09A80BCF1004F08BF5FEA2A
:1002A800500C50F1000041EB045141EA050130BD0A
:1002B8005FEA4C0C404141EB0101013C28BFB1F51C
:1002C800801FE9D291F0000F04BF01460020B1FA67
:1002D80081F308BF2033A3F10B03B3F120020CDA3A
:1002E8000C3208DD02F1140CC2F10C0201FA0CF018
:1002F80021FA02F10CE002F11402D8BFC2F1200C7D
:1003080001FA02F120FA0CFCDCBF41EA0C01904032
:10031800E41AA2BF01EB0451294330BD6FEA04047B
:100328001F3C1CDA0C340EDC04F11404C4F1200266
:1003380020FA04F001FA02F340EA030021FA04F378
:1003480045EA030130BDC4F10C04C4F1200220FACF
:1003580002F001FA04F340EA0300294630BD21FA0D
:1003680004F0294630BD94F0000F83F4801306BFD3
:1003780081F480110134013D4EE77FEA645C18BFC7
:100388007FEA655C29D094EA050F08BF90EA020F5E
:1003980005D054EA000C04BF1946104630BD91EA56
:1003A800030F1EBF0021002030BD5FEA545C05D159
:1003B8004000494128BF41F0004130BD14F5800498
:1003C8003CBF01F5801130BD01F0004545F0FE410C
:1003D80041F470014FF0000030BD7FEA645C1ABF41
:1003E800194610467FEA655C1CBF0B46024650EA78
:1003F800013406BF52EA033591EA030F41F40021A4
:1004080030BD00BF90F0000F04BF0021704730B529
:100418004FF4806404F132044FF000054FF00001FE
:1004280050E700BF90F0000F04BF0021704730B5BF
:100438004FF4806404F1320410F0004548BF404294
:100448004FF000013EE700BF42004FEAE2014FEAE9
:1004580031014FEA02701FBF12F07F4393F07F4FC4
:1004680081F06051704732F07F4208BF704793F0C7
:100478007F4F04BF41F40021704730B54FF46074DA
:1004880001F0004521F000411CE700BF50EA0102DD
:1004980008BF704730B54FF000050AE050EA010286
:1004A80008BF704730B511F0004502D5404261EBF6
:1004B80041014FF4806404F132045FEA915C3FF437
:1004C800D8AE4FF003025FEADC0C18BF03325FEAD4
:1004D800DC0C18BF033202EBDC02C2F1200300FA85
:1004E80003FC20FA02F001FA03FE40EA0E0021FAAA
:1004F80002F11444BDE600BF70B54FF0FF0C4CF498
:10050800E06C1CEA11541DBF1CEA135594EA0C0F49
:1005180095EA0C0F00F0DEF82C4481EA030621EA84
:100528004C5123EA4C5350EA013518BF52EA0335BF
:1005380041F4801143F4801338D0A0FB02CE4FF071
:100548000005E1FB02E506F00042E0FB03E54FF0A1
:100558000006E1FB03569CF0000F18BF4EF0010E99
:10056800A4F1FF04B6F5007F64F5407404D25FEA95
:100578004E0E6D4146EB060642EAC62141EA555148
:100588004FEAC52040EA5E504FEACE2EB4F1FD0C8A
:1005980088BFBCF5E06F1ED8BEF1004F08BF5FEA08
:1005A800500E50F1000041EB045170BD06F00046BA
:1005B80046EA010140EA020081EA0301B4EB5C0467
:1005C800C2BFD4EB0C0541EA045170BD41F480115F
:1005D8004FF0000E013C00F3AB8014F1360FDEBF84
:1005E800002001F0004170BDC4F10004203C35DA60
:1005F8000C341BDC04F11404C4F1200500FA05F3E3
:1006080020FA04F001FA05F240EA020001F0004283
:1006180021F0004110EBD37021FA04F642EB0601F9
:100628005EEA430E08BF20EAD37070BDC4F10C0423
:10063800C4F1200500FA04F320FA05F001FA04F2E7
:1006480040EA020001F0004110EBD37041F10001D3
:100658005EEA430E08BF20EAD37070BDC4F12005DE
:1006680000FA05F24EEA020E20FA04F301FA05F246
:1006780043EA020321FA04F001F0004121FA04F2EE
:1006880020EA020000EBD3705EEA430E08BF20EABE
:10069800D37070BD94F0000F0FD101F000464000F8
:1006A80041EB010111F4801F08BF013CF7D041EA7A
:1006B800060195F0000F18BF704703F0004652007E
:1006C80043EB030313F4801F08BF013DF7D043EA4F
:1006D8000603704794EA0C0F0CEA135518BF95EA05
:1006E8000C0F0CD050EA410618BF52EA4306D1D18C
:1006F80081EA030101F000414FF0000070BD50EAAB
:10070800410606BF1046194652EA430619D094EA34
:100718000C0F02D150EA013613D195EA0C0F05D11E
:1007280052EA03361CBF104619460AD181EA030172
:1007380001F0004141F0FE4141F470014FF000002A
:1007480070BD41F0FE4141F4780170BD70B54FF0C5
:10075800FF0C4CF4E06C1CEA11541DBF1CEA135545
:1007680094EA0C0F95EA0C0F00F0A7F8A4EB050427
:1007780081EA030E52EA03354FEA013100F088801E
:100788004FEA03334FF0805545EA131343EA1263E7
:100798004FEA022245EA111545EA10654FEA00269C
:1007A8000EF000419D4208BF964244F1FD0404F555
:1007B800407402D25B084FEA3202B61A65EB0305B1
:1007C8005B084FEA32024FF480104FF4002CB6EB6E
:1007D800020E75EB030E22BFB61A754640EA0C00EE
:1007E8005B084FEA3202B6EB020E75EB030E22BF2E
:1007F800B61A754640EA5C005B084FEA3202B6EB6F
:10080800020E75EB030E22BFB61A754640EA9C002D
:100818005B084FEA3202B6EB020E75EB030E22BFFD
:10082800B61A754640EADC0055EA060E18D04FEABB
:10083800051545EA16754FEA06164FEAC30343EA5B
:1008480052734FEAC2025FEA1C1CC0D111F4801F28
:100858000BD141EA00014FF000004FF0004CB6E721
:1008680011F4801F04BF01430020B4F1FD0C88BFC0
:10087800BCF5E06F3FF6AFAEB5EB030C04BFB6EBCB
:10088800020C5FEA500C50F1000041EB045170BDBE
:100898000EF0004E4EEA113114EB5C04C2BFD4EBEB
:1008A8000C0541EA045170BD41F480114FF0000E6F
:1008B800013C90E645EA060E8DE60CEA135594EAEB
:1008C8000C0F08BF95EA0C0F3FF43BAF94EA0C0FEE
:1008D8000AD150EA01347FF434AF95EA0C0F7FF463
:1008E80025AF104619462CE795EA0C0F06D152EAB7
:1008F80003353FF4FDAE1046194622E750EA41069B
:1009080018BF52EA43067FF4C5AE50EA41047FF4AB
:100918000DAF52EA43057FF4EBAE12E74FF0FF3C10
:1009280006E000BF4FF0010C02E000BF4FF0010CE1
:100938004DF804CD4FEA410C7FEA6C5C4FEA430C5A
:1009480018BF7FEA6C5C1BD001B050EA410C0CBFA9
:1009580052EA430C91EA030F02BF90EA020F00200B
:10096800704710F1000F91EA030F58BF994208BF72
:1009780090422CBFD8176FEAE37040F0010070472F
:100988004FEA410C7FEA6C5C02D150EA013C07D186
:100998004FEA430C7FEA6C5CD6D152EA033CD3D0D1
:1009A8005DF8040B704700BF8446104662468C46CB
:1009B8001946634600E000BF01B5FFF7B7FF0028FE
:1009C80048BF10F1000F01BD4DF808EDFFF7F4FF27
:1009D8000CBF012000205DF808FB00BF4DF808EDB2
:1009E800FFF7EAFF34BF012000205DF808FB00BFD5
:1009F8004DF808EDFFF7E0FF94BF012000205DF8F7
:100A080008FB00BF4DF808EDFFF7CEFF94BF0120AB
:100A180000205DF808FB00BF4DF808EDFFF7C4FFA4
:100A280034BF012000205DF808FB00BF4FEA410CED
:100A38007FEA6C5C02D150EA013C0AD14FEA430CD0
:100A48007FEA6C5C02D152EA033C02D14FF000000D
:100A580070474FF0010070474A0011D212F500129A
:100A680011D20DD56FF47873B3EB62520ED44FEAFE
:100A7800C12343F0004343EA505323FA02F070477E
:100A88004FF00000704750EA013002D14FF0FF30BC
:100A980070474FF00000704753B94AB9002908BFA2
:100AA80000281CBF4FF0FF314FF0FF3000F00CB8AA
:100AB800ADF1080C6DE904CE0FF002FDDDF804E09D
:100AC800DDE9022304B07047704700BF844641EA5D
:100AD800000313F003036DD1403A41D351F8043BAE
:100AE80040F8043B51F8043B40F8043B51F8043B00
:100AF80040F8043B51F8043B40F8043B51F8043BF0
:100B080040F8043B51F8043B40F8043B51F8043BDF
:100B180040F8043B51F8043B40F8043B51F8043BCF
:100B280040F8043B51F8043B40F8043B51F8043BBF
:100B380040F8043B51F8043B40F8043B51F8043BAF
:100B480040F8043B51F8043B40F8043B51F8043B9F
:100B580040F8043B51F8043B40F8043B403ABDD20E
:100B6800303211D351F8043B40F8043B51F8043BB0
:100B780040F8043B51F8043B40F8043B51F8043B6F
:100B880040F8043B103AEDD20C3205D351F8043B3F
:100B980040F8043B043AF9D2043208D0D2071CBF0B
:100BA80011F8013B00F8013B01D30B880380604634
:100BB800704700BF082A13D38B078DD010F00303AA
:100BC8008AD0C3F10403D21ADB071CBF11F8013B1A
:100BD80000F8013B80D331F8023B20F8023B7BE769
:100BE800043AD9D3013A11F8013B00F8013BF9D294
:100BF8000B7803704B7843708B788370604670472E
:100C08000348044B834202D0034B03B11847704793
:100C1800BC010020BC010020000000000548064B74
:100C28001B1AD90F01EBA301491002D0034B03B1E2
:100C380018477047BC010020BC01002000000000DC
:100C480010B5064C237843B9FFF7DAFF044B13B10C
:100C58000448AFF300800123237010BDC0010020B9
:100C6800000000005409010808B5054B1BB10549EF
:100C78000548AFF30080BDE80840FFF7CFBF00BFCD
:100C880000000000C40100205409010880B483B0AA
:100C980000AF786039600C4A3B6813441B781A46E9
:100CA8007B6813441B6808493A680A44127811465D
:100CB8007A680A4443F00103136000BF0C37BD464D
:100CC8005DF8047B704700BFF831010880B485B037
:100CD80000AFF860B9607A600D4ABB6813441B78AE
:100CE8001A46FB6813445B681B0C1B040849BA6866
:100CF8000A4412781146FA680A4411467A6813437E
:100D08004B6000BF1437BD465DF8047B704700BFD9
:100D1800F831010880B485B000AFF860B9607A6036
:100D28003B60BB69402B14D1174ABB6813441B783E
:100D38001A46FB6813441A467B68D360124ABB689C
:100D480013441B781A46FB6813441A463B689360A1
:100D580013E00D4ABB6813441B781A46FB6813441A
:100D68001A467B689360084ABB6813441B781A4686
:100D7800FB6813441A463B68D36000BF1437BD466E
:100D88005DF8047B704700BFF831010880B483B078
:100D980000AF786039600C4A3B6813441B781A46E8
:100DA8007B6813441B6808493A680A44127811465C
:100DB8007A680A4443F01003136000BF0C37BD463D
:100DC8005DF8047B704700BFF831010880B483B038
:100DD80000AF78607B681B6843F040027B681A604C
:100DE80000BF0C37BD465DF8047B704780B483B004
:100DF80000AF78607B681B6823F040027B681A604C
:100E080000BF0C37BD465DF8047B704780B483B0E3
:100E180000AF78607B681B6803F04003402B01D16A
:100E2800012300E0002318460C37BD465DF8047B1B
:100E3800704780B483B000AF78607B681B6803F4A8
:100E4800827318460C37BD465DF8047B704780B442
:100E580083B000AF786039607B681B6823F00102BB
:100E68003B681A437B681A6000BF0C37BD465DF8C3
:100E7800047B704780B483B000AF78607B681B68E0
:100E880003F0010318460C37BD465DF8047B704734
:100E980080B483B000AF786039607B681B6823F04A
:100EA80002023B681A437B681A6000BF0C37BD46D4
:100EB8005DF8047B704780B483B000AF78607B68CE
:100EC8001B6803F0020318460C37BD465DF8047B27
:100ED800704780B483B000AF786039607B681B6866
:100EE80023F444423B681A437B681A6000BF0C37FE
:100EF800BD465DF8047B704780B483B000AF78606E
:100F08007B681B6803F4444318460C37BD465DF8FC
:100F1800047B704780B483B000AF786039607B6829
:100F28001B6823F400623B681A437B681A6000BFA1
:100F38000C37BD465DF8047B704780B483B000AFC2
:100F480078607B681B6803F4006318460C37BD465D
:100F58005DF8047B704780B483B000AF78607B682D
:100F68009B6803F00103012B01D1012300E000235A
:100F780018460C37BD465DF8047B704780B483B0D3
:100F880000AF78607B689B6803F00203022B01D1F5
:100F9800012300E0002318460C37BD465DF8047BAA
:100FA800704780B483B000AF78607B689B6803F0BB
:100FB8008003802B01D1012300E0002318460C3761
:100FC800BD465DF8047B704780B483B000AF78609D
:100FD8007B685B6843F040027B685A6000BF0C374F
:100FE800BD465DF8047B704780B483B000AF78607D
:100FF8007B685B6843F001027B685A6000BF0C376E
:10100800BD465DF8047B704780B483B000AF78605C
:101018007B685B6843F002027B685A6000BF0C374C
:10102800BD465DF8047B704780B483B000AF78603C
:101038007B680C3318460C37BD465DF8047B704757
:1010480080B483B000AF78607B680C331B78DBB268
:1010580018460C37BD465DF8047B704780B483B0F2
:1010680000AF78607B68DB689BB218460C37BD46DA
:101078005DF8047B704780B485B000AF78600B469C
:10108800FB707B680C33FB60FB68FA781A7000BF52
:101098001437BD465DF8047B704780B485B000AF57
:1010A80078600B467B807B680C33FB60FB687A8832
:1010B8001A8000BF1437BD465DF8047B70470000F6
:1010C80080B584B000AF786039600023FB600023EE
:1010D800BB607B68002B0BD03B68002B08D07B687B
:1010E800BB60BB681B68654A934201D1644BFB60D7
:1010F800FB68002B00F0BC80BB681A68FB681A60AC
:10110800FB6893F84620BB6893F846301343DAB27D
:10111800FB6883F84620FB6893F84420BB6893F883
:1011280044301343DAB2FB6883F84420FB6893F831
:101138004520BB6893F845301343DAB2FB6883F85F
:101148004520FB683A68DA61BB6893F8463003F0DB
:101158000103002B32D0BB689A6AFB689A62BB68AD
:101168001A6AFB681A62FB6800225A63FB6800224D
:101178001A63FB68002283F84020FB6893F8443028
:1011880003F00403002B05D0FB681B681846FFF723
:101198001BFF13E0FB6893F8443003F01003002BA7
:1011A8000CD0BB685A68FB685A60BB6893F8542037
:1011B800FB6883F85420F86800F0FEFABB6893F8DF
:1011C800463003F00203002B28D0BB68DA6AFB68BC
:1011D800DA62BB685A6AFB685A62FB6800229A6343
:1011E800FB680022DA63FB6800229A61FB68002230
:1011F80083F85620FB6893F8453003F02003002B52
:101208000CD0BB689A68FB689A60BB6893F8552055
:10121800FB6883F85520F86800F00FFB3B68FA6814
:101228001A60FB681B681846FFF766FE0346B3F5AD
:10123800004F0ED1FB681B681846FFF7FAFD0346FE
:10124800B3F5827F05D1FB681B681846FFF7CEFD12
:1012580004E0FB681B681846FFF7B8FDBB681B680D
:101268001A46064B9A4202D000233B6000E000BFBA
:101278003B6818461037BD4680BD00BF003C0040A3
:10128800DC01002080B582B000AF78600B467B801F
:101298007868FFF731FE0346B3F5004F0BD17B8822
:1012A800012B08D1786800F0F4FA4FF440417868CF
:1012B800FFF70FFE11E07868FFF71EFE0346B3F54F
:1012C800404F0AD17B88002B07D1786800F0E1FAFB
:1012D8004FF400417868FFF7FCFD002318460837F3
:1012E800BD4680BD80B586B000AFF8607A601A460A
:1012F8000B467B8113467B7200237B61FB68002BC6
:1013080006D0FB681B68002B02D0FB681B687B615A
:101318007B689BB21B0A7B827B897A69134493F8AA
:101328004E30002B0CD07B69B3F84C207B7A9BB2F3
:101338009A4205D17B695B697A689A4200F0C88055
:101348007B7A9AB27B69A3F84C207B697A685A61E8
:101358007B691B68184600F09CFA7B69B3F84C302F
:10136800002B1CD17B691B681846FFF783FD0346D9
:10137800002B05D07B691B6800211846FFF767FD25
:101388007B691B681846FFF796FD0346022B66D05B
:101398007B691B6802211846FFF77AFD5FE07B69CD
:1013A800B3F84C30012B1CD17B691B681846FFF73A
:1013B80061FD0346012B05D07B691B680121184696
:1013C800FFF745FD7B691B681846FFF774FD034668
:1013D800022B44D07B691B6802211846FFF758FD91
:1013E8003DE07B69B3F84C30022B1CD17B691B684C
:1013F8001846FFF73FFD0346002B05D07B691B68A5
:1014080000211846FFF723FD7B691B681846FFF784
:1014180052FD0346002B22D07B691B680021184629
:10142800FFF736FD1BE07B691B681846FFF722FDB6
:101438000346012B05D07B691B6801211846FFF77D
:1014480006FD7B691B681846FFF735FD0346002B30
:1014580005D07B691B6800211846FFF719FD7B69D9
:101468001B681846FFF769FD02467B6893420CD05B
:101478007B691A687B8A082B01D8002301E04FF4A6
:10148800006319461046FFF745FD7B691B6818463F
:10149800FFF732FD0346B3F5004F0ED17B691B6899
:1014A8001846FFF7C6FC0346B3F5827F05D17B6972
:1014B8001B68184600F0EDF904E07B691B681846C4
:1014C800FFF784FC7B897A691344012283F84E2054
:1014D800002318461837BD4680BD80B58AB000AFD6
:1014E800F860B96011461A460B46FB801346BB806C
:1014F8000023BB840023FB610DF0A8FBF8610023E7
:101508003B62FB68002B06D0FB681B68002B02D0EF
:10151800FB681B683B623B6A1B6801211846FFF7A2
:10152800B1FE0346BB843B8E002B01D100237B63B5
:101538003B6A1B681846FFF769FC0346002B04D179
:101548003B6A1B681846FFF741FCBB88DBB2002BDF
:101558002CD1BB687B610023FB8422E03B6A1B68BB
:101568001846FFF70BFD0346012B0CD13B6A1868A0
:10157800FB8C7A6913441B781946FFF77CFDFB8CBA
:101588000133FB840DE00121F8690AF0DBFC024617
:101598007B6B934205D2386A00F0C3F90346BB84DB
:1015A80035E0FA8CFB889A42D8D330E0BB88DBB2AE
:1015B800012B2CD1BB68BB610023FB8423E03B6A71
:1015C8001B681846FFF7DAFC0346012B0DD13B6A6E
:1015D8001868FB8C5B00BA6913441B881946FFF72F
:1015E8005CFDFB8C0133FB840DE00121F8690AF0F6
:1015F800A9FC02467B6B934205D2386A00F091F948
:101608000346BB8403E0FA8CFB889A42D7D3BB8C91
:1016180018462837BD4680BD90B58FB004AFF86036
:10162800B96011461A460B46FB801346BB8000235F
:10163800BB840023BB610DF009FBB861FB887B8488
:101648000023FB61FB68002B06D0FB681B68002B9E
:1016580002D0FB681B68FB61FB691B680021184608
:10166800FFF710FE0346BB843B8F002B01D10023FC
:10167800FB63FB691B681846FFF7DBFB0346B3F502
:10168800827F0BD1FB691B681846FFF735FC0346C0
:10169800B3F5004F02D17B8C013B7B84FB691B684F
:1016A8001846FFF7B3FB0346002B04D1FB691B6800
:1016B8001846FFF78BFBBB88DBB2002B39D1BB6820
:1016C8003B610023FB842FE0FB691B681846FFF78A
:1016D80042FC0346002B0DD0FB691968FB8C3A6964
:1016E800D4180846FFF7ACFC03462370FB8C013383
:1016F800FB8419E00121B8690AF024FC0246FB6B5F
:10170800934211D2798CFA8CFB6B0393BB690293D9
:10171800BB880193FB8800930B463969F86900F090
:101728000BF90346BB8442E0FA8C7B8C9A42CBD3FC
:101738003DE0BB88DBB2012B39D1BB687B6100235C
:10174800FB8430E0FB691B681846FFF704FC03467E
:10175800002B0ED0FB691968FB8C5B007A69D418E2
:101768000846FFF77BFC03462380FB8C0133FB8490
:1017780019E00121B8690AF0E5FB0246FB6B9342C8
:1017880011D2798CFA8CFB6B0393BB690293BB88EB
:101798000193FB8800930B467969F86900F0CCF84F
:1017A8000346BB8403E0FA8C7B8C9A42CAD3BB8C79
:1017B80018462C37BD4690BDB0B584B002AF7860EE
:1017C8007B685C687B6893F854301D467B681B68AF
:1017D8001846FFF729FC02467B681B6A1946002356
:1017E80000930B4629462046FFF794FA7B68586811
:1017F8007B6893F8543019467B68DB691B691A4685
:10180800FFF764FA7B685A687B6893F85430194686
:101818001046FFF7BBFA7B681B681846FFF7E4FB26
:101828007B685A687B6893F8543019461046FFF76E
:101838002DFA00BF0837BD46B0BDF0B585B002AF80
:1018480078607B689C687B6893F855301D467B6898
:101858005B6A1E467B681B681846FFF7E5FB034674
:1018680040220092324629462046FFF753FA7B6809
:101878009A687B6893F8553019461046FFF786FA40
:101888007B681B681846FFF7BFFB00BF0C37BD46D7
:10189800F0BD80B582B000AF78607868FFF7B6FA1F
:1018A8000346002B2CD07868FFF726FB0346002B55
:1018B8000AD100BF7868FFF774FB0346002BF9D103
:1018C8007868FFF793FA1BE07868FFF715FB034683
:1018D800B3F5806F06D07868FFF70EFB0346B3F5C3
:1018E800004F03D17868FFF781FA09E000BF7868F4
:1018F800FFF757FB0346002BF9D17868FFF776FA14
:1019080000BF0837BD4680BD80B485B000AFF86021
:10191800B9607A603B6000BF1437BD465DF8047B50
:10192800704780B483B000AF7860012318460C3745
:10193800BD465DF8047B704790B587B000AFF8608E
:10194800B96011461A460B46FB801346BB80FB68FC
:101958001B681846FFF74AFAFB681B681846FFF72A
:1019680068FA0346B3F5827F37D1FB681B681846CF
:10197800FFF7C2FA0346B3F5004F2ED1BA883B8D64
:101988009A422AD0FB681B681846FFF7E4FA034618
:10199800002BF7D0BB8DDBB2002B0CD1BB683B61B1
:1019A800FB681968FB883A69D4180846FFF748FBB2
:1019B8000346237010E0BB8DDBB2012B0CD1BB6852
:1019C8007B61FB681968FB885B007A69D418084654
:1019D800FFF744FB0346238000BF012318461C374A
:1019E800BD4690BD80B485B000AF786039600023F3
:1019F800FB7397F90F3018461437BD465DF8047B22
:101A08007047000080B584B000AF7860396000236B
:101A1800FB727B68002B05D1374804F053F94FF06F
:101A2800FF3365E03B68002B05D1344804F04AF9E0
:101A38004FF0FF335CE0324BD3E900014FF0000276
:101A48004FF04043FEF7C0FF0346002B06D03B682B
:101A5800D3E900232A49C1E9002305E0284BD3E94B
:101A680000233968C1E90023254BD3E900014FF071
:101A78000002244BFEF7A8FF0346002B02D02248A1
:101A880004F020F97B685B681B68204A13607B6858
:101A98005B685B681E4A13607B685B689B681D4ACD
:101AA80013607B685B68DB681B4A13601B4B002272
:101AB8001A6004F0C7FD0023FB600023FB6007E009
:101AC800174AFB68174942F82310FB680133FB608B
:101AD800FB68042BF4D904F0F5F90346FB7297F977
:101AE8000B30002B02D1104B01221A7097F90B30E2
:101AF80018461037BD4680BD7009010894090108D1
:101B0800000000200000F0BFC00901088008002084
:101B180084080020880800208C08002090080020F5
:101B280034020020B56600087D08002080B586B024
:101B380000AF78600023FB7500233B610023FB7333
:101B48002A4B1B78DBB2002B0CBF01230023DBB22E
:101B5800BB73274B02221A707B68002B0BD1234BD7
:101B68001B78DBB2002B06D1224B1B78DBB2002B93
:101B780001D1012300E00023FB7316E00A200AF0DC
:101B8800A1F93B6903F51C5310333B617B68B3F142
:101B9800FF3F05D03A697B689A4201D9012300E0EA
:101BA8000023FB73002004F0E5F9104B1B78DBB22F
:101BB800002B07D10F4B1B78DBB2002B02D1FB7B2C
:101BC800002BDBD00A4B03221A70FB7B002B01D0C1
:101BD8009C23FB75BB7B002B01D004F061FE97F9B9
:101BE800173018461837BD4680BD00BF7B08002057
:101BF8007D0800207C08002080B588B000AF03462F
:101C080087ED000BFB810023FB770123BB774FF0A7
:101C180000024FF00003D7E90001FEF7DFFE03469C
:101C2800002B05D02F4804F04DF84FF0FF3355E056
:101C3800FB89FF2B08D9FB89FF2219462A4804F0A3
:101C480041F84FF0FF3349E0284B1B78DBB2032BF8
:101C580004D0264B1B78DBB2012B02D1234B042284
:101C68001A70FB89042B15D8FB89214A52F82330B6
:101C7800002B0FD005F0D6F903467B777B7F022B2C
:101C880008D1FB891A4A52F82330FA891046984736
:101C98000346BB77FB897B83FB89184697ED000BCE
:101CA80004F0CEF87861BB7F002B07D07B8B796975
:101CB800184605F093F90346FB7703E07B8B18463B
:101CC80005F0EBF997F91F30002B05D097F91F3075
:101CD8001946084803F0F6FF97F91F3018462037D1
:101CE800BD4680BD2C0A0108700A01087D08002045
:101CF80034020020B00A010880B582B000AF00238A
:101D0800FB71002004F036F90346FB7197F90730A0
:101D180018460837BD4680BD80B582B000AF0023A5
:101D2800FB710B4B06221A7004F0C2F90346FB71D3
:101D38001422002107480EF021FD04F037FD044B62
:101D480000221A7097F9073018460837BD4680BD3B
:101D58007D0800203402002080B400AF034B1B78BC
:101D6800DBB21846BD465DF8047B70477C0800204E
:101D780080B400AF034B1B78DBB21846BD465DF854
:101D8800047B70479408002080B483B000AF78606B
:101D980039607B683A689A6100BF0C37BD465DF8C8
:101DA800047B704780B483B000AF786039603B68CB
:101DB8001A047B689A6100BF0C37BD465DF8047B46
:101DC8007047000080B400AF234BB3F84A200132BB
:101DD80092B2A3F84A20204BB3F84A30012B03D91A
:101DE8001D4B0022A3F84A201B4BB3F84C200132AC
:101DF80092B2A3F84C20184BB3F84C30132B03D9EC
:101E0800154B0022A3F84C20134BB3F84E20013297
:101E180092B2A3F84E20104BB3F84E30B3F5FA6FD8
:101E280003D30D4B0022A3F84E200B4BB3F85020E0
:101E3800013292B2A3F85020074BB3F8503044F661
:101E48001F62934203D9044B0022A3F8502000BF1D
:101E5800BD465DF8047B70470807002080B483B056
:101E680000AF78607B684FF0FF321A6000BF0C3714
:101E7800BD465DF8047B704780B483B000AF7860DE
:101E88007B684FF0FF321A6000BF0C37BD465DF823
:101E9800047B704780B485B000AF0346B9607A60B0
:101EA800FB817B684FF0FF321A60FB89DB039AB233
:101EB800BB681A8000BF1437BD465DF8047B7047C5
:101EC80080B483B000AF78607B684FF0FF321A604F
:101ED80000BF0C37BD465DF8047B704780B483B003
:101EE80000AF78607B684FF0FF321A6000BF0C3794
:101EF800BD465DF8047B704780B485B000AF0346EB
:101F0800B9607A60FB817B684FF0FF321A60FB8909
:101F1800DB029AB2BB681A8000BF1437BD465DF871
:101F2800047B704780B59AB000AF78607B68002268
:101F38001A727B6801225A600023BB620023FB628D
:101F4800254BBB60002387F84E3000233B630023FA
:101F58007B63012387F84C30022387F84D30002338
:101F6800FB60002387F85C3000233B61002387F87F
:101F78005D307B6800221A617B68184A5A61012328
:101F880087F867307B680E229A617B68012283F8A4
:101F980024207B6897F867201A777B680F221A62DB
:101FA8007B6810333B6607F10803396E1846FFF764
:101FB80087F802467B68DA607B68D86803234FF4A9
:101FC80070620221FFF78EF97B6801221A7200BF46
:101FD8006837BD4680BD00BF003C00400008024095
:101FE80080B582B000AF78607B6800225A607B6859
:101FF80000221A707B68012283F828207B68184623
:10200800FFF790FF00BF0837BD4680BD80B58CB094
:1020180002AF78607B68D86803234FF470620221AE
:10202800FFF760F90346FB84FB8C002B10D17B681B
:10203800D86807F1080101230193012300930123C4
:102048000F22FFF7E9FA4FF480410348FFF79CFE9F
:1020580000BF2837BD4680BD0008024080B586B065
:1020680002AF78607B681B78002B16D17B68012251
:102078001A707B685B68012B0FD17B681B7A002B79
:102088000BD04FF0FF33FB607B68D8680E230093BA
:10209800FB68FA68F968FFF737FC00BF1037BD46E0
:1020A80080BD000080B59AB000AF78600023BB62A5
:1020B8000023FB62234BBB60002387F84E300023CC
:1020C8003B6300237B63012387F84C30022387F8A6
:1020D8004D300023FB60002387F85C3000233B6110
:1020E800002387F85D307B6800221A617B68164AF6
:1020F8005A61012387F867307B680E229A617B68F2
:10210800012283F824207B6897F867201A777B6878
:1021180001221A627B6810333B6607F10803396EA7
:102128001846FEF7CDFF02467B68DA607B68D86800
:1021380003234FF470620221FFF7D4F800BF683719
:10214800BD4680BD003C00400008024080B582B01A
:1021580000AF78607B6800221A707B68012283F8E0
:1021680028207B6800221A727B6801225A607B68EB
:102178001846FFF797FF7B6801221A7200BF0837DD
:10218800BD4680BD80B586B002AF03463960FB808E
:102198003B68D86803234FF470620221FFF7A2F866
:1021A8000346FB81FB89002B0FD14FF4804109487E
:1021B800FFF7F8FD3B68D868B91D01230193012397
:1021C800009301230122FFF788F900BF1037BD46AD
:1021D80080BD00BF0008024080B586B002AF7860BD
:1021E8007B681B78002B16D17B6801221A707B68EC
:1021F8005B68012B0FD17B681B7A002B0BD04FF04B
:10220800FF33FB607B68D8680E230093FB68FA688D
:10221800F968FFF779FB00BF1037BD4680BD0000A5
:1022280080B59AB000AF78607B6800221A727B682C
:1022380001225A600023BB620023FB62254BBB606E
:10224800002387F84E3000233B6300237B63012380
:1022580087F84C30022387F84D300023FB600023B9
:1022680087F85C3000233B61002387F85D307B688A
:1022780000221A617B68184A5A61012387F867307F
:102288007B680E229A617B68012283F824207B6890
:1022980097F867201A777B6801221A627B681033E7
:1022A8003B6607F10803396E1846FEF709FF024638
:1022B8007B68DA607B68D86803234FF47062022178
:1022C800FFF710F87B6801221A7200BF6837BD4615
:1022D80080BD00BF003C00400008024080B582B0CD
:1022E80000AF78607B6800225A607B6800221A7011
:1022F8007B68012283F828207B681846FFF790FF47
:1023080000BF0837BD4680BD80B586B002AF786093
:1023180039603B68D86803234FF470620221FEF7E6
:10232800E1FF0346FB81FB89002B0FD13B68D8688E
:102338007968012301930123009301230122FFF708
:102348006BF94FF480410348FFF71EFD00BF1037BB
:10235800BD4680BD0008024080B586B002AF7860F7
:102368007B681B78002B16D17B6801221A707B686A
:102378005B68012B0FD17B681B7A002B0BD04FF0C9
:10238800FF33FB607B68D8680E230093FB68FA680C
:10239800F968FFF7B9FA00BF1037BD4680BD0000E5
:1023A80080B59AB000AF78607B6800221A727B68AB
:1023B80001225A600023BB620023FB62254BBB60ED
:1023C800002387F84E3000233B6300237B630123FF
:1023D80087F84C30022387F84D300023FB60002338
:1023E80087F85C3000233B61002387F85D307B6809
:1023F80000221A617B68184A5A61012387F86730FE
:102408007B680E229A617B68012283F824207B680E
:1024180097F867201A777B680F221A627B68103357
:102428003B6607F10803396E1846FEF749FE024677
:102438007B68DA607B68D86803234FF470620221F6
:10244800FEF750FF7B6801221A7200BF6837BD464D
:1024580080BD00BF003C00400008024080B582B04B
:1024680000AF78607B6800225A607B6800221A708F
:102478007B68012283F828207B681846FFF790FFC5
:1024880000BF0837BD4680BD80B586B002AF786012
:1024980039603B68D86803234FF470620221FEF765
:1024A80021FF0346FB81FB89002B0FD13B68D868CD
:1024B8007968012301930123009301230F22FFF779
:1024C800ABF84FF480410348FFF75EFC00BF1037BC
:1024D800BD4680BD0008024080B586B002AF786076
:1024E8007B681B78002B16D17B6801221A707B68E9
:1024F8005B68012B0FD17B681B7A002B0BD04FF048
:10250800FF33FB607B68D8680E230093FB68FA688A
:10251800F968FFF7F9F900BF1037BD4680BD000024
:1025280080B59AB000AF78600023BB620023FB62DD
:10253800234BBB60002387F84E3000233B63002306
:102548007B63012387F84C30022387F84D30002342
:10255800FB60002387F85C3000233B61002387F889
:102568005D307B6800221A617B68164A5A61012334
:1025780087F867307B680E229A617B68012283F8AE
:1025880024207B6897F867201A777B6801221A62F3
:102598007B6810333B6607F10803396E1846FEF76F
:1025A8008FFD02467B68DA607B68D86803234FF4A6
:1025B80070620221FEF796FE00BF6837BD4680BDF7
:1025C800003C00400008024080B582B000AF78604F
:1025D8007B6800221A707B68012283F828207B68B8
:1025E80000221A727B6801225A607B681846FFF73E
:1025F80097FF7B6801221A7200BF0837BD4680BD6D
:1026080080B586B002AF03463960FB803B68D86866
:1026180003234FF470620221FEF764FE0346FB8138
:10262800FB89002B0FD14FF480410948FFF7BAFB13
:102638003B68D868B91D0123019301230093012346
:102648000122FEF74AFF00BF1037BD4680BD00BF1C
:102658000008024080B586B002AF78607B681B78BE
:10266800002B16D17B6801221A707B685B68012BEE
:102678000FD17B681B7A002B0BD04FF0FF33FB6028
:102688007B68D8680E230093FB68FA68F968FFF73F
:102698003BF900BF1037BD4680BD000080B59AB039
:1026A80000AF78607B6800221A727B6801225A604A
:1026B8000023BB620023FB62254BBB60002387F825
:1026C8004E3000233B6300237B63012387F84C30A3
:1026D800022387F84D300023FB60002387F85C3025
:1026E80000233B61002387F85D307B6800221A6174
:1026F8007B68184A5A61012387F867307B680E2285
:102708009A617B68012283F824207B6897F8672008
:102718001A777B6810221A627B6810333B6607F1D0
:102728000803396E1846FEF7CBFC02467B68DA6070
:102738007B68D86803234FF470620221FEF7D2FD4C
:102748007B6801221A7200BF6837BD4680BD00BF92
:10275800003C00400008024080B59AB000AF7860A5
:102768000023BB620023FB62234BBB60002387F876
:102778004E3000233B6300237B63012387F84C30F2
:10278800022387F84D300023FB60002387F85C3074
:1027980000233B61002387F85D307B6800221A61C3
:1027A8007B68164A5A61012387F867307B680E22D6
:1027B8009A617B68012283F824207B6897F8672058
:1027C8001A777B6801221A627B6810333B6607F12F
:1027D8000803396E1846FEF773FC02467B68DA6018
:1027E8007B68D86803234FF470620221FEF77AFDF4
:1027F80000BF6837BD4680BD003C0040000802406D
:1028080080B59AB000AF78607B6800221A727B6846
:1028180001225A600023BB620023FB62254BBB6088
:10282800002387F84E3000233B6300237B6301239A
:1028380087F84C30022387F84D300023FB600023D3
:1028480087F85C3000233B61002387F85D307B68A4
:1028580000221A617B68184A5A61012387F8673099
:102868007B680E229A617B68012283F824207B68AA
:1028780097F867201A777B6801221A627B68103301
:102888003B6607F10803396E1846FEF719FC024645
:102898007B68DA607B68D86803234FF47062022192
:1028A800FEF720FD7B6801221A7200BF6837BD461B
:1028B80080BD00BF003C00400008024080B58CB0DD
:1028C80002AF78607B6800221A727B6801225A6026
:1028D8000023BB6100237B74184BFB6100233B6220
:1028E8000023BB74002387F82430012387F82530A0
:1028F8000123FB6001233B7407F10C0000230093C4
:102908000423012201210DF05DFA02467B68DA609A
:102918007B68DB6818460DF0FDFA7B68DB680121EF
:1029280018460DF042FA7B6801221A727B68002271
:102938005A7200BF2837BD4680BD00BF0021014044
:1029480080B58CB002AF78607B6800221A727B6811
:1029580001225A600023BB6100237B74184BFB6182
:1029680000233B620023BB74002387F82430012333
:1029780087F825300123FB6001233B7407F10C0025
:10298800002300930423012201210DF01BFA0246C3
:102998007B68DA607B68DB6818460DF0BBFA7B68F9
:1029A800DB68012118460DF000FA7B6801221A72D3
:1029B8007B6800225A7200BF2837BD4680BD00BF21
:1029C8000022014080B58CB002AF78607B6800229D
:1029D8001A727B6801225A600023BB6100237B7452
:1029E800184BFB6100233B620023BB74002387F86C
:1029F8002430012387F825300123FB6001233B7431
:102A080007F10C00002300930423012201210DF09B
:102A1800D9F902467B68DA607B68DB6818460DF0F6
:102A280079FA7B68DB68012118460DF0BEF97B68EE
:102A380001221A727B6800225A7200BF2837BD46ED
:102A480080BD00BF0020014090B5B3B002AFD44BA9
:102A580093F9633187F89B30002387F8AF3097F8F4
:102A68009B30042B1FD801A252F823F0892A0008B2
:102A7800912A0008992A0008A12A0008A92A000812
:102A8800002387F8AF300EE0032387F8AF300AE061
:102A9800032387F8AF3006E0002387F8AF3002E061
:102AA800002387F8AF3097F9AF20BD4B83F8632137
:102AB800BB4B93F9623187F89A30002387F8AE3020
:102AC80097F89A30042B20D801A252F823F000BFBF
:102AD800ED2A0008F52A0008FD2A0008052B000841
:102AE8000D2B0008002387F8AE300EE0032387F88B
:102AF800AE300AE0032387F8AE3006E0002387F8FB
:102B0800AE3002E0002387F8AE3097F9AE20A44B30
:102B180083F86221A24B93F9613187F89930002339
:102B280087F8AD3097F89930042B20D801A252F8D5
:102B380023F000BF512B0008592B0008612B000817
:102B4800692B0008712B0008002387F8AD300EE0D0
:102B5800032387F8AD300AE0032387F8AD3006E099
:102B6800002387F8AD3002E0002387F8AD3097F9ED
:102B7800AD208B4B83F86121894B93F9603187F83D
:102B88009830002387F8AC3097F89830042B20D879
:102B980001A252F823F000BFB52B0008BD2B000896
:102BA800C52B0008CD2B0008D52B0008002387F87B
:102BB800AC300EE0032387F8AC300AE0032387F833
:102BC800AC3006E0002387F8AC3002E0002387F839
:102BD800AC3097F9AC20724B83F86021704B93F9B5
:102BE8005F3187F89730002387F8AB3097F8973034
:102BF800042B20D801A252F823F000BF192C00089A
:102C0800212C0008292C0008312C0008392C000838
:102C1800002387F8AB300EE0032387F8AB300AE0D7
:102C2800032387F8AB3006E0002387F8AB3002E0D7
:102C3800002387F8AB3097F9AB20594B83F85F2115
:102C4800574B93F95E3187F89630002387F8AA30FE
:102C580097F89630042B20D801A252F823F000BF31
:102C68007D2C0008852C00088D2C0008952C000868
:102C78009D2C0008002387F8AA300EE0032387F86C
:102C8800AA300AE0032387F8AA3006E0002387F871
:102C9800AA3002E0002387F8AA3097F9AA20404B0F
:102CA80083F85E213E4B93F95D3187F89530002318
:102CB80087F8A93097F89530042B20D801A252F84C
:102CC80023F000BFE12C0008E92C0008F12C0008D3
:102CD800F92C0008012D0008002387F8A9300EE020
:102CE800032387F8A9300AE0032387F8A93006E010
:102CF800002387F8A93002E0002387F8A93097F964
:102D0800A920274B83F85D21254B93F95C3187F87F
:102D18009430002387F8A83097F89430042B20D8F3
:102D280001A252F823F000BF452D00084D2D0008E0
:102D3800552D00085D2D0008652D0008002387F833
:102D4800A8300EE0032387F8A8300AE0032387F8A9
:102D5800A83006E0002387F8A83002E0002387F8AF
:102D6800A83097F9A8200E4B83F85C210C4B93F9F7
:102D78005B3187F89330002387F8A73097F89330B2
:102D8800042B22D801A252F823F000BFAD2D000871
:102D9800B52D0008BD2D0008C52D0008CD2D000853
:102DA80020030020002387F8A7300EE0032387F8CC
:102DB800A7300AE0032387F8A73006E0002387F846
:102DC800A73002E0002387F8A73097F9A720BA4B6D
:102DD80083F85B21B84B93F95A3187F89230002376
:102DE80087F8A63097F89230042B20D801A252F821
:102DF80023F000BF112E0008192E0008212E00080C
:102E0800292E0008312E0008002387F8A6300EE08E
:102E1800032387F8A6300AE0032387F8A63006E0E4
:102E2800002387F8A63002E0002387F8A63097F938
:102E3800A620A14B83F85A21A04BB3F84A30002BA7
:102E48000CBF01230023DBB287F8913097F891304B
:102E5800002B0BD0984B93F85821994B83F892206C
:102E6800954B93F85921964B83F89320934BB3F8DD
:102E78004C30002B0CBF01230023DBB287F89030C5
:102E880097F89030002B00F084828B4BB3F85431C4
:102E980047F6FE72934207D8874BB3F85431013393
:102EA8009AB2854BA3F85421834BB3F8563141F6B7
:102EB800FE72934207D8804BB3F8563101339AB269
:102EC8007D4BA3F856217C4B93F86431002B30D10D
:102ED800794B012283F86421774B012283F865211D
:102EE800754B0022A3F85421734B0122C3F84C21DF
:102EF80071494FF000024FF00003C1E93C236E4BCB
:102F0800012283F866216C4B0022A3F856216A4BF4
:102F18000322C3F8502168494FF00002694BC1E908
:102F28003A2367494FF000024FF00003C1E90C2330
:102F38002FE2614BD3F84C31013B072B00F2FC80A8
:102F480001A252F823F000BF712F00089F2F00083C
:102F5800D92F0008133000084D30000887300008CA
:102F6800D130000809310008534BB3F8543144F606
:102F78001F62934240F202814F4B0022A3F8542172
:102F88004D4B0222C3F84C214D494FF000024D4BE6
:102F9800C1E91223F2E04A494FF00002494BC1E966
:102FA8001223454BB3F85431B3F5FA6FC0F0E880FB
:102FB800414B0022A3F854213F4B0422C3F84C2173
:102FC8003F494FF000024FF00003C1E91223D7E058
:102FD8003B494FF000024FF00003C1E91C23364B78
:102FE800B3F85431B3F5FA6FC0F0CC80324B0022FD
:102FF800A3F85421304B0222C3F84C2130494FF03A
:103008000002304BC1E91223BCE02D494FF0000209
:103018004FF00003C1E91223274BB3F85431B3F53D
:10302800FA6FC0F0B180244B0022A3F85421224B40
:103038000522C3F84C2122494FF00002214BC1E977
:103048001423A1E01E494FF000021E4BC1E91423CE
:10305800194BB3F85431B3F5FA6FC0F09780164B9B
:103068000022A3F85421144B0622C3F84C2114491A
:103078004FF000024FF00003C1E9142386E0104925
:103088004FF000024FF00003C1E914230A4BB3F8D4
:103098005431B3F5FA6F7BD3074B0022A3F85421C0
:1030A800054B0722C3F84C2105494FF00002054B98
:1030B800C1E91A236CE000BF2003002008070020A4
:1030C800480200200000F03FAB494FF00002AB4B34
:1030D800C1E91A23AA4BB3F85431B3F5FA6F59D39F
:1030E800A74B0022A3F85421A54B0822C3F84C2172
:1030F800A1494FF000024FF00003C1E91A2349E04B
:103108009D494FF000024FF00003C1E91A239C4B80
:10311800B3F85431B3F5FA6F3ED3994B0022A3F8B4
:103128005421974B0922C3F84C2193494FF00002D0
:10313800924BC1E91C232FE08F494FF000028F4BBF
:10314800C1E91C238E4BB3F85431B3F5FA6F25D37C
:103158008B4B0022A3F85421894B0322C3F84C213E
:1031680085494FF000024FF00003C1E91C23844950
:103178004FF00002814BC1E93C230FE000BF0EE095
:1031880000BF0CE000BF0AE000BF08E000BF06E097
:1031980000BF04E000BF02E000BF00E000BF784BC2
:1031A800D3F85031013B052B00F2B98001A252F847
:1031B80023F000BFD5310008FB3100083332000886
:1031C80083320008BD320008F53200086A494FF022
:1031D80000026A4BC1E9162367494FF00002674BAA
:1031E800C1E9182364494FF00002644BC1E91E236A
:1031F800CFE061494FF00002604BC1E90C23604BFE
:10320800B3F85631B3F57A6FC0F0B3805C4B002247
:10321800A3F856215A4B0422C3F8502156494FF0BF
:103228000002564BC1E91023A3E053494FF00002B6
:103238004FF00003C1E90C23514BD3E93A014FF099
:1032480000024E4BFDF7C0FB0346002B00D199E06E
:103258004B4BB3F85631272B40F29480484B002251
:10326800A3F85621464B0222C3F8502142494FF099
:103278000002424BC1E90C2384E03F494FF00002B1
:103288003E4BC1E910233E4BB3F8563141F2873229
:10329800934279D93A4B0022A3F85621384B05229C
:1032A800C3F8502134494FF000024FF00003C1E940
:1032B800102369E030494FF000024FF00003C1E9E4
:1032C80010232F4BB3F85631B3F57A7F5ED32C4BCE
:1032D8000022A3F856212A4B0622C3F8502126497A
:1032E8004FF00002254BC1E90E234FE022494FF071
:1032F8000002224BC1E90E23214BB3F8563140F6A8
:10330800B732934244D91E4B0722C3F850211A49B9
:103318004FF000024FF00003C1E90E2338E01649D0
:103328004FF000024FF00003C1E90E23144BD3E91C
:103338003C014FF00002114BFDF746FB0346002B02
:1033480000D126E00E4B0122C3F850210A494FF064
:1033580000020A4BC1E9162307494FF00002074B48
:10336800C1E9182304494FF00002044BC1E91E23A8
:103378000FE000BF0DE000BF480200200000F03F52
:103388002003002000BF04E000BF02E000BF00E00F
:1033980000BF97F89130002B00F08081B34BD3E940
:1033A8000C014FF000024FF00003FDF70DFB034640
:1033B800002B0DD1AD4BD3E90E014FF000024FF0B9
:1033C8000003FDF701FB0346002B01D1012300E0B8
:1033D8000023DAB2A54B83F89620A44B93F89630D5
:1033E800002B00F09280A24B93F86E31002B09D18C
:1033F800A048FEF741FDA048FEF770FD9C4B012256
:1034080083F86E219A4B586B03234FF470620221A4
:10341800FDF768FF0346FB80FB88002B10D1944B17
:10342800586B07F10801012301930123009301233D
:103438001022FEF7F1F84FF480419048FEF7A4FC03
:10344800BB1D8C4A19460020FEF724FD3B1D8A4A05
:1034580019460320FEF750FDFA88BB8813439AB239
:10346800874B5B8913439AB2804BA3F88E207F4B1E
:10347800B3F88E207D4BA3F890207D4BD3F88400C1
:1034880003234FF470620221FDF72CFF0346FB80F3
:10349800FB88002B11D14FF480417848FEF782FC5D
:1034A800734BD3F884004FF47A730193012300938C
:1034B800012301227349FEF710F86D4B93F961312E
:1034C80087F88F3097F88F3087F8A53097F88F30C6
:1034D800042B14D801A252F823F000BFF9340008D5
:1034E80007350008073500080135000807350008CA
:1034F800022387F8A53002E0012387F8A53097F961
:10350800A5205B4B83F8612103E0594B002283F827
:103518006E21564BD3E90C014FF000024FF0000327
:10352800FDF752FA0346002B0DD1504BD3E9100199
:103538004FF000024FF00003FDF746FA0346002B58
:1035480001D1012300E00023DAB2484B83F8972029
:10355800464B93F89730002B00F09C80444B93F82F
:103568006D31002B09D14848FEF786FC4748FEF725
:10357800B5FC3F4B012283F86D21BB1D424A194619
:103588000020FEF787FC3B1D404A19460220FEF743
:10359800B3FCFA88BB8813439AB2394B1B8913438F
:1035A8009AB2324BA3F88C20314BD86D03234FF4D9
:1035B80070620221FDF796FE0346FB80FB88002B14
:1035C8000FD14FF480412D48FEF7ECFB284BD86D06
:1035D8000A23019301230093012301222C49FDF7BB
:1035E8007CFF234BD86803234FF470620221FDF758
:1035F80079FE0346FB80FB88002B0FD11C4BD86853
:10360800B91D012301930123009301230122FEF731
:1036180003F84FF480411948FEF7B6FB144B93F9B1
:10362800603187F88E3097F88E3087F8A43097F895
:103638008E30042B13D801A252F823F05936000813
:1036480067360008673600086136000867360008E4
:10365800022387F8A43002E0012387F8A43097F901
:10366800A420034B83F8602118E000BF4802002023
:1036780020030020FC060020F40600200008024079
:1036880008320108D8020020EC060020E4060020D9
:10369800D4020020C04B002283F86D2197F89030A7
:1036A800002B00F00A81BD4BD3E914014FF0000252
:1036B8004FF00003FDF7B0F90346002B57D0B64B87
:1036C80093F86731002B09D1B548FEF7D5FBB5480B
:1036D800FEF704FCB04B012283F86721B249B348D6
:1036E800FEF7D2FEBB1DAE4A19460120FEF7D2FBFB
:1036F8003B1DAC4A19460120FEF7FEFBFA88BB8841
:1037080013439AB2AA4B1B8813439AB2A34BA3F84C
:103718008220A24BB3F88230A6491846FEF770FF04
:103728009D4B93F95A3187F88D3097F88D3087F88B
:10373800A33097F88D30042B13D801A252F823F048
:103748005D3700086B3700086B37000865370008DD
:103758006B370008022387F8A33002E0012387F8BB
:10376800A33097F9A3208C4B83F85A211CE08A4B8D
:1037780093F86731002B17D00023C7F8B4300BE05B
:10378800864AD7F8B4304C33002122F81310D7F802
:10379800B4300133C7F8B430D7F8B4300E2BEFDDAE
:1037A8007D4B002283F867217C4BD3E912014FF04F
:1037B80000024FF00003FDF72FF90346002B5ED0FF
:1037C800754B93F86831002B09D17B48FEF754FB01
:1037D8007A48FEF783FB704B012283F86821784909
:1037E8007848FEF751FEBB1D734A19460120FEF7C3
:1037F80051FB3B1D714A19460020FEF77DFBFA88F4
:10380800BB8813439AB26A4B5B8813439AB2634BE3
:10381800A3F88420614BB3F88420604BA3F886207A
:103828005E4BB3F8863068491846FEF7E9FE5A4BF6
:1038380093F95B3187F88C3097F88C3087F8A23091
:1038480097F88C30042B14D801A252F823F000BF4B
:103858006D3800087B3800087B3800087538000888
:103868007B380008022387F8A23002E0012387F89A
:10387800A23097F9A220484B83F85B211DE0464B04
:1038880093F86831002B18D00023C7F8B4300CE047
:10389800424AD7F8B43058335B0013440022DA8028
:1038A800D7F8B4300133C7F8B430D7F8B4300E2B9A
:1038B800EEDD394B002283F86821444BB3F84C30D5
:1038C800002B0CBF01230023DBB287F88B3097F85D
:1038D8008B30002B14D0314BD3E9160101231C4641
:1038E8004FF000024FF00003FDF796F80346002B57
:1038F80001D100231C46E3B21A46274B83F87021F6
:10390800254B93F87031002B6AD0304BB3F84A300E
:10391800002B1ED1204B93F8C930002B03D01E4B2F
:10392800002283F8C9201C4BD3F8CC30BA1D0421DF
:1039380018460CF004FBFB881846FCF763FD14A33B
:10394800D3E90023FCF7D8FD02460B461349C1E929
:103958000A23114B93F9633187F88A3097F88A3034
:1039680087F8A13097F88A30042B34D801A252F88E
:1039780023F000BF91390008DF390008DF3900085B
:10398800D9390008DF390008022387F8A13022E07E
:10399800199001199001993F200300204802002046
:1039A800F4040020EC040020C0040020E002002001
:1039B80008320108940400205C050020540500200A
:1039C80028050020FE020020FC0400200807002033
:1039D800012387F8A13097F9A120934B83F863213D
:1039E80097F88B30002B14D0904BD3E918010123A2
:1039F8001C464FF000024FF00003FDF70DF8034698
:103A0800002B01D100231C46E3B21A46864B83F8EB
:103A18006F21854B93F86F31002B49D0844BB3F855
:103A28004A30002B1ED1804B93F8B930002B03D0BD
:103A38007D4B002283F8B9207B4BD3F8BC30BA1DEC
:103A4800042118460CF07BFAFB881846FCF7DAFCD0
:103A580073A3D3E90023FCF74FFD02460B467349D5
:103A6800C1E90823704B93F9623187F8893097F8D8
:103A7800893087F8A03097F88930042B13D801A231
:103A880052F823F0A13A0008AF3A0008AF3A00080C
:103A9800A93A0008AF3A0008022387F8A03002E0EC
:103AA800012387F8A03097F9A0205F4B83F86221A3
:103AB8005F4BB3F84A30002B40F010825B4BD3E9E0
:103AC8000A015A4BD3E90823FCF760FB02460B4670
:103AD8001146C7F8B81083F00043C7F8BC30524B02
:103AE800D3E938235149C1E90023504BD3E90A23CC
:103AF8004E49C1E902234D4BD3E908234B49C1E99B
:103B080004234A4BD3E914014FF000024FF000039D
:103B1800FCF782FF0346002B33D0434B012283F886
:103B28006B2144494448FEF7EFFB44494FF41040E9
:103B3800FEF728FB3C4B93F95E3187F8883097F8FD
:103B4800883087F89F3097F88830042B13D801A263
:103B580052F823F0713B00087F3B00087F3B0008C8
:103B6800793B00087F3B0008022387F89F3002E07A
:103B7800012387F89F3097F99F202B4B83F85E210C
:103B88000CE0294B93F86B31002B07D0274B002210
:103B9800A3F8D620244B002283F86B21234BD3E9CA
:103BA8001C014FF000024FF00003FCF735FF0346FD
:103BB800002B4BD01C4B012283F869212049214856
:103BC800FEF7A2FB20494FF41840FEF7DBFA164B2C
:103BD80093F95C3187F8873097F8873087F89E30FB
:103BE80097F88730042B14D801A252F823F000BFAD
:103BF8000D3C00081B3C00081B3C0008153C000855
:103C08001B3C0008022387F89E3002E0012387F856
:103C18009E3097F99E20044B83F85C2123E000BF77
:103C2800199001199001993F2003002048020020B3
:103C380008070020500600201E030020240600204C
:103C4800900500201C03002064050020874B93F892
:103C58006931002B07D0864B0022A3F8D420834B70
:103C6800002283F86921824BB3F8D43041F604026C
:103C780093420CBF01230023DBB21A467C4B83F826
:103C880094207B4BB3F8D63041F2505293420CBF8C
:103C980001230023DBB21A46754B83F89520744B39
:103CA800D3E912014FF000024FF00003FCF7B4FE15
:103CB8000346002B57D06D4B93F86C31002B09D17C
:103CC8006C48FEF7D9F86C48FEF708F9674B0122F3
:103CD80083F86C216948FEF799F9BB1D654A1946B6
:103CE8000120FEF7D7F83B1D634A19460220FEF76C
:103CF80003F9FA88BB8813439AB2614BDB881343F4
:103D08009AB25B4BA3F88A20594BB3F88A305D49C5
:103D18001846FEF737FA554B93F95F3187F8863026
:103D280097F8863087F89D3097F88630042B14D89A
:103D380001A252F823F000BF553D0008633D00087A
:103D4800633D00085D3D0008633D0008022387F8D5
:103D58009D3002E0012387F89D3097F99D20434B61
:103D680083F85F2103E0414B002283F86C21404B2C
:103D7800D3E91A014FF000024FF00003FCF74CFEA4
:103D88000346002B57D0394B93F86A31002B09D1E1
:103D98003D48FEF771F83D48FEF7A0F8334B012285
:103DA80083F86A213A48FEF731F9BB1D364A1946AD
:103DB8000120FEF76FF83B1D344A19460320FEF731
:103DC8009BF8FA88BB8813439AB22D4B9B88134300
:103DD8009AB2274BA3F88820254BB3F888302D4991
:103DE8001846FEF7CFF9214B93F95D3187F88530F6
:103DF80097F8853087F89C3097F88530042B14D8CD
:103E080001A252F823F000BF253E0008333E000807
:103E1800333E00082D3E0008333E0008022387F891
:103E28009C3002E0012387F89C3097F99C200F4BC7
:103E380083F85D2103E00D4B002283F86A21164BBD
:103E4800C7F880300023FB67094BD3E90C014FF01A
:103E580000024FF00003FCF7B7FD0346002B1DD10D
:103E68004FF48053C7F8B0301BE000BF2003002098
:103E780048020020DC060020D4060020A806002006
:103E8800083201087C0600201C06002014060020C9
:103E9800E8050020BC050020000402400023C7F804
:103EA800B030D7F8B020FB6F02FA03F3C7F8B03090
:103EB8004FF48052FB6F02FA03F3BB67D7F8B010D8
:103EC800D7F88000FDF760FFD7F8B030DA43BB6F52
:103ED80013401946D7F88000FDF764FF824BB3F80A
:103EE8004E30002B20D1814B93F8A930002B03D002
:103EF8007E4B002283F8A9207C4BD3F8AC307C4A57
:103F0800042118460CF01BF87A4BB3F88030184699
:103F1800FCF778FA4FF00002774BFCF7EDFA02460F
:103F28000B467449C1E9062397F89130002B10D04D
:103F3800704B93F895206D4B83F858216D4B93F88F
:103F480094206A4B83F859216849D7E92E23C1E99F
:103F58003823002387F87730634BD3E90823C7E970
:103F68001A2397ED1A0B0020FDF746FE034687F843
:103F780077305D4BB3F84A30002B18D1002387F80F
:103F88006730594B9B6B1846FCF73CFA50A3D3E9B2
:103F98000023FCF7B1FA02460B46C7E9162397ED52
:103FA800160B0120FDF728FE034687F867304E4BB5
:103FB800B3F84C30002B18D1002387F857304A4B00
:103FC800DB6B1846FCF71EFA43A3D3E90023FCF782
:103FD80093FA02460B46C7E9122397ED120B02200B
:103FE800FDF70AFE034687F857303F4BB3F84E30CB
:103FF800002B18D1002387F847303B4B1B6C184621
:10400800FCF700FA36A3D3E90023FCF775FA024659
:104018000B46C7E90E2397ED0E0B0320FDF7ECFDC9
:10402800034687F84730304BB3F85030002B13D194
:10403800002387F837302C4B5B6C1846FCF7E2F905
:1040480002460B46C7E90A2397ED0A0B0420FDF741
:10405800D3FD034687F83730234B9A6A01329A62B8
:104068009B6A1846FCF7CEF91F4BD3E90C231E4C6C
:10407800FCF742FA02460B46C4E908231A4BB3F888
:104088004A30002B03D1184B9A6B01329A63164BB6
:10409800B3F84C30002B03D1134BDA6B0132DA63DF
:1040A800114BB3F84E30002B03D10F4B1A6C013271
:1040B8001A640D4BB3F85030002B03D10A4B5A6CDD
:1040C80001325A64FDF77EFE00BFC437BD4690BD7D
:1040D8002D431CEBE2361A3FFCA9F1D24D62503F4A
:1040E8009A9999999999B93F0807002020030020C7
:1040F800C8020020480200200000903F0000000095
:1041080080B500AF96494FF00002964BC1E91623DF
:10411800934991A3D3E90023C1E90C23904B924A18
:104128009A608F4B914ADA608D4B914A1A618C4B99
:10413800904A5A618A4B904A5A608F4B8F4A1A604C
:104148008E4B8F4A1A608D4B8D4A5A608B4B8D4A25
:104158009A608A4B8B4ADA60884B8B4A1A61874B84
:10416800894A5A61854B864A9A61844B844ADA6146
:10417800824B834A1A62814B844A5A627F4B834A34
:104188009A627E4B814ADA627C4B804A1A637B4B87
:104198007E4A5A63794B7D4A9A63784B7B4ADA6345
:1041A800764B7B4A1A64754B794A5A64734B784A42
:1041B8009A64724B764ADA64704B754A1A656F4B8B
:1041C800734A5A656D4B724A9A656C4B6C4ADA654C
:1041D8006A4B704A1A66694B6E4A5A66674B6D4A53
:1041E8009A66664B6B4ADA66644B6A4A1A67634B8F
:1041F800684A5A67614B674A9A67604B664ADA674A
:104208005E4B654AC3F880205C4B634AC3F8842040
:104218005A4B624AC3F88820584B604AC3F88C202E
:10422800564B5E4AC3F89020544B5C4AC3F894201E
:10423800524B5A4AC3F89820504B584AC3F89C200E
:104248004E4B564AC3F8A0204C4B554AC3F8A420FD
:104258004A4B534AC3F8A820484B514AC3F8AC20EC
:10426800464B474AC3F8B020444B4E4AC3F8B420E3
:10427800424B4C4AC3F8B820404B4A4AC3F8BC20CA
:104288003E4B484AC3F8C0203C4B464AC3F8C420BA
:104298003A4B444AC3F8C820384B424AC3F8CC20AA
:1042A800364B414AC3F8D020344B3F4AC3F8D42098
:1042B800324B3D4AC3F8D820304B3B4AC3F8DC2088
:1042C8002E4B394AC3F8E0202C4B374AC3F8E42078
:1042D8002A4B354AC3F8E820284B294AC3F8EC2072
:1042E8001F4A1F4B5B6818329A601D4A1C4B5B685B
:1042F80008325A601A4A1A4B5B682032DA602B4837
:10430800FDF7ACFD2A48FDF7DBFD2A4B0022DA62F7
:10431800284B002283F828202748FEF7BFF9254BB1
:10432800002283F87820234B002283F88020214B39
:104338000122DA672148FEF70FFA1E4B012283F8A3
:1043480080201F48FDF78AFD1E48FDF7B9FD194B6F
:10435800002283F8502037E02D431CEBE2360A3F59
:10436800080700200000F0BFCAA226FD679EBEA76E
:1043780054BD4C0A3826E1FA700700208407002053
:1043880004320108830400208204002081040020F4
:10439800800400207F0400207E0400207D0400208B
:1043A8007C0400207B0400207A040020FC06002006
:1043B800F406002020030020480300209803002072
:1043C800EC060020E4060020404B002283F8582029
:1043D8003E4B01225A653E48FEF7BEF93B4B01228F
:1043E80083F85820394B00225A60384B00221A7043
:1043F8003648FEF705FA3748FDF730FD3648FDF731
:104408005FFD3648FEF72AF83548FEF7DDF83548EF
:10441800FDF724FD3448FDF753FD3448FEF71EF838
:104428003348FEF7D1F8294B0022C3F8C420274BA4
:10443800002283F8C0202F48FEF740FA234B0022C1
:10444800C3F8B420214B002283F8B0202A48FEF795
:1044580077FA2A48FDF742FF2948FDF777FE2948F1
:10446800FDF73CFF2848FDF771FE2848FDF7F6FCEC
:104478002748FDF725FD2748FDF7B2FD2648FDF73B
:1044880065FE2648FDF7EAFC2548FDF719FD254895
:10449800FDF7A6FD2448FDF759FE0C4B002283F8D2
:1044A800D0200A4B0122C3F8D420084B012283F8FC
:1044B800D820064B0022C3F8A420044B002283F81E
:1044C800A0201A48FEF77EFA00BF80BD2003002016
:1044D80070030020F4040020EC040020C004002035
:1044E800940400205C0500205405002028050020C5
:1044F800FC040020E0030020D00300205006002028
:10450800240600209005002064050020DC06002019
:10451800D4060020A80600207C0600201C060020E7
:1045280014060020E8050020BC050020C003002078
:1045380080B584B002AF7C4B93F82830002B18D19B
:10454800794B012283F82820774BDB6A012B10D1A5
:10455800754B93F83030002B0BD04FF0FF337B6056
:10456800714B586B0E2300937B687A687968FDF766
:10457800CBF96D4B93F87830002B19D16A4B012297
:1045880083F87820684BDB6F012B11D1664B93F8C9
:104598008030002B0CD04FF0FF337B60624BD3F898
:1045A80084000E2300937B687A687968FDF7ACF97C
:1045B8005D4B93F85030002B18D15B4B012283F8E8
:1045C8005020594B5B6D012B10D1574B93F8583045
:1045D800002B0BD04FF0FF337B60534BD86D0E236D
:1045E80000937B687A687968FDF78EF94E4B1B78E3
:1045F800002B16D14C4B01221A704B4B5B68012BD8
:104608000FD1494B1B7A002B0BD04FF0FF337B6047
:10461800454BD8680E2300937B687A687968FDF764
:1046280073F94248FDF758FF4148FEF713F841482F
:10463800FDF752FF4048FEF70DF83B4B93F8C030AA
:10464800002B15D1384B012283F8C020364BD3F804
:10465800C430012B0CD1344B93F8C830002B07D051
:10466800314BD3F8CC300122012118460BF0ECFC79
:104678002D4B93F8B030002B15D12B4B012283F82A
:10468800B020294BD3F8B430012B0CD1264B93F82A
:10469800B830002B07D0244BD3F8BC3001220121BD
:1046A80018460BF0D1FC2548FDF756FE2448FDF7C7
:1046B80093FD2448FDF750FE2348FDF78DFD234860
:1046C800FDF7CCFC2248FDF787FD2248FDF7C6FC24
:1046D8002148FDF781FD144B93F8D030002B03D10E
:1046E800114B012283F8D0200F4B93F8A030002BF8
:1046F80015D10D4B012283F8A0200B4BD3F8A43021
:10470800012B0CD1084B93F8A830002B07D0064B8F
:10471800D3F8AC300122012118460BF095FC00BFFC
:104728000837BD4680BD00BF20030020C00400201C
:104738009404002028050020FC04002050060020D6
:10474800240600209005002064050020A80600200B
:104758007C060020E8050020BC05002080B500AFDD
:104768000F4B1B785A1CD1B20D4A1170002B09D07F
:104778000C4B01221A600A4B1B78013BDAB2084B3A
:104788001A700BE062B600BFFEF75EF972B600BFA2
:10479800034B1B78013BDAB2014B1A7080BD00BF96
:1047A800780800207408002080B586B000AF7860D3
:1047B80039605C4B7B615C4B3B610023FB735B4B5B
:1047C80000221A705A4B00221A700AF009FA09F0EE
:1047D80007F907F08FFB00F0A7FD00F015FE00F0C9
:1047E800C7FB01F0C1F900F039FC00F045FF00F00B
:1047F80097FC00F027FA4F4B1B6800221A60002133
:104808000020FDF7EFF80346FB7397F90F30002BF4
:1048180002D097F90F3080E0FFF772FC72B600BF44
:1048280062B600BF434B1B685A68424B1B6858333B
:1048380019461046FDF7E6F80346FB7397F90F3063
:10484800002B0DD14FF0FF30FDF770F9FDF784FA1A
:104858000346002B04D0374B1B68012283F86020E5
:1048680072B600BF97ED050A07F002FCFDF780FA63
:104878000346002B0CD1FDF76FFA0346002B07D136
:104888002C4B1B6893F86030002B01D1012300E00A
:104898000023DAB2264B1A7062B600BF62B600BFB8
:1048A8002FE0FDF729FA0346FB73FDF761FA03468B
:1048B800002B0AD1FDF750FA0346002B05D11D4BFA
:1048C8001B6893F86030002B01D0012300E000231F
:1048D800DAB2164B1A70154B1B78DBB2002B0CBFE3
:1048E80001230023DBB21A46114B1A700F4B1B78B9
:1048F800DBB2002B05D0104B1B680F4A23F00103D5
:1049080013600B4B1B78DBB2002BCAD1FFF710FEEC
:10491800FDF702FA72B600BF002318461837BD46E5
:1049280080BD00BF17B75138000028437908002020
:104938007A0800200032010810E000E080B485B059
:1049480000AFF860B9607A600D4ABB6813441B7801
:104958001A46FB6813441B6823F0C0020849BB6869
:104968000B441B781946FB680B4419467B681343B4
:104978000B6000BF1437BD465DF8047B704700BF6D
:104988001432010880B485B000AFF860B9607A606D
:104998000D4ABB6813441B781A46FB6813441B680E
:1049A80023F490720849BB680B441B781946FB68CE
:1049B8000B4419467B6813430B6000BF1437BD4690
:1049C8005DF8047B704700BF1432010880B485B0DD
:1049D80000AFF860B9607A600D4ABB6813441B7871
:1049E8001A46FB6813441B6823F400720849BB6825
:1049F8000B441B781946FB680B4419467B68134324
:104A08000B6000BF1437BD465DF8047B704700BFDC
:104A18001432010880B485B000AFF860B9607A60DC
:104A28000D4ABB6813441B781A46FB6813441B687D
:104A380023F480620849BB680B441B781946FB685D
:104A48000B4419467B6813430B6000BF1437BD46FF
:104A58005DF8047B704700BF1432010880B485B04C
:104A680000AFF860B9607A600D4ABB6813441B78E0
:104A78001A46FB6813441B6823F4C0520849BB68F4
:104A88000B441B781946FB680B4419467B68134393
:104A98000B6000BF1437BD465DF8047B704700BF4C
:104AA8001432010880B485B000AFF860B9607A604C
:104AB8000D4ABB6813441B781A46FB6813441B68ED
:104AC80023F4C0420849BB680B441B781946FB68AD
:104AD8000B4419467B6813430B6000BF1437BD466F
:104AE8005DF8047B704700BF1432010880B485B0BC
:104AF80000AFF860B9607A600D4ABB6813441B7850
:104B08001A46FB6813441B6823F440320849BB6803
:104B18000B441B781946FB680B4419467B68134302
:104B28000B6000BF1437BD465DF8047B704700BFBB
:104B38001432010880B485B000AFF860B9607A60BB
:104B48000D4ABB6813441B781A46FB6813441B685C
:104B580023F060620849BB680B441B781946FB6860
:104B68000B4419467B6813430B6000BF1437BD46DE
:104B78005DF8047B704700BF1432010880B483B02D
:104B880000AF786039600C4A3B6813441B781A46BA
:104B98007B6813445B6908493A680A4412781146ED
:104BA8007A680A4423F00403536100BF0C37BD46FA
:104BB8005DF8047B704700BF1432010880B485B0EB
:104BC80000AF7860084B1A6B07497B6813430B6387
:104BD800054B1A6B7B681340FB60FB6800BF1437FA
:104BE800BD465DF8047B70470038024080B485B04C
:104BF80000AF7860084B1A6C07497B6813430B6455
:104C0800054B1A6C7B681340FB60FB6800BF1437C8
:104C1800BD465DF8047B70470038024080B483B01D
:104C280000AF786039607B685B6823F010023B68EE
:104C38001A437B685A6000BF0C37BD465DF8047B99
:104C48007047000080B590B000AF07F11803282224
:104C5800002118460BF092FD3B4600221A605A606C
:104C68009A60DA601A615A614FF40040FFF7BEFF9C
:104C78000420FFF7A3FF4FF4E0533B6002237B605F
:104C88000323BB600023FB6000233B6106237B6199
:104C98003B461946424809F0C8FB0022002141481A
:104CA800FFF748FF002200213E48FFF747FE002299
:104CB80000213C48FFF71AFF002200213948FFF77E
:104CC80061FE002200213748FFF780FE4FF4806222
:104CD80000213448FFF79EFE4FF40062002131485E
:104CE800FFF7BCFE4FF4005200212E48FFF7DAFE12
:104CF80000212C48FFF742FF002207212948FFF72F
:104D080019FF402207212748FFF718FE4FF4003209
:104D180007212448FFF7EAFE002207212148FFF770
:104D280031FE002207211F48FFF750FE4FF4806232
:104D380007211C48FFF76EFE002207211948FFF7DC
:104D48008DFE002207211748FFF7ACFE0721154802
:104D5800FFF714FF0023BB614FF48273FB614FF42C
:104D680000633B6200237B620123BB624FF4007344
:104D7800FB6210233B6300237B630023BB630A238E
:104D8800FB6307F118031946074809F08EFF002155
:104D98000548FFF743FF00BF4037BD4680BD00BF51
:104DA8000008024000600240003C004080B489B026
:104DB80000AFF860B9607A60FB682C331946BB68AD
:104DC80003F440734FF440727A617A6992FAA2F25E
:104DD8003A613A69BA61BA69002A01D1202203E02E
:104DE800BA69B2FA82F2D2B2D3409B000B44FB619B
:104DF800FB691A68BB6803F01F031F2101FA03F35C
:104E0800DB431A407B6803F01F01BB6803F01F03F4
:104E180001FA03F31A43FB691A6000BF2437BD4641
:104E28005DF8047B704780B483B000AF7860396068
:104E38007B689B6823F480623B681A437B689A60AE
:104E480000BF0C37BD465DF8047B704780B48FB057
:104E580000AFF860B9607A60FB680C331946BB682C
:104E680003F000734FF000727A617A6992FAA2F245
:104E78003A613A69BA61BA69002A01D1202203E08D
:104E8800BA69B2FA82F2D2B2D3409B000B447B6378
:104E98007B6B1A68BB6803F0F8734FF0F8713962DE
:104EA800396A91FAA1F1F961F9697962796A002997
:104EB80001D1202103E0796AB1FA81F1C9B2CB406E
:104EC800072101FA03F3DB431A40BB6803F0F873C8
:104ED8004FF0F871F962F96A91FAA1F1B962B96A09
:104EE8003963396B002901D1202103E0396BB1FA0C
:104EF80081F1C9B2CB40796801FA03F31A437B6B9D
:104F08001A6000BF3C37BD465DF8047B704700005F
:104F180080B485B000AF7860084B1A6B07497B688E
:104F280013430B63054B1A6B7B681340FB60FB68EC
:104F380000BF1437BD465DF8047B70470038024057
:104F480080B485B000AF7860084B5A6C07497B681D
:104F580013434B64054B5A6C7B681340FB60FB683A
:104F680000BF1437BD465DF8047B70470038024027
:104F780080B592B000AF07F13C0300221A605A6076
:104F88009A6007F1280300221A605A609A60DA6072
:104F98001A6107F1180300221A605A609A60DA60F1
:104FA8003B4600221A605A609A60DA601A615A61B8
:104FB8004FF48070FFF7C4FF0120FFF7A9FF4023DB
:104FC8003B6003237B6000233B613B4619461F4837
:104FD80009F02BFA0023FB6300233B6400237B6466
:104FE80007F13C0319461A4809F00EFB0023BB627F
:104FF8000023FB6200233B6300237B630023BB6326
:1050080007F128031946124809F02AFB4FF480617A
:105018000F48FFF708FF4FF48033BB610023FB61A3
:1050280007F1180319460B4809F0A6FA0A4A4FF483
:1050380000710748FFF7BAFE002207490448FFF746
:1050480005FF00BF4837BD4680BD00BF00000240D5
:1050580000200140002301400600200380B58EB0E7
:1050680000AF07F12C0300221A605A609A6007F11A
:10507800180300221A605A609A60DA601A613B4687
:1050880000221A605A609A60DA601A615A614FF415
:105098000070FFF755FF0420FFF73AFF04233B6039
:1050A80003237B6000233B613B461946194809F0FE
:1050B800BCF90023FB6200233B6300237B6307F1F9
:1050C8002C031946144809F09FFA0023BB610023FA
:1050D800FB6100233B6200237B620023BB6207F174
:1050E800180319460C4809F0BBFA4FF480610A48C6
:1050F800FFF799FE094A4FF400710748FFF756FE7B
:10510800002206490448FFF7A1FE00BF3837BD4614
:1051180080BD00BF00080240002101400C00600073
:1051280080B58EB000AF07F12C0300221A605A60D8
:105138009A6007F1180300221A605A609A60DA60D0
:105148001A613B4600221A605A609A60DA601A6156
:105158005A614FF48060FFF7F3FE0420FFF7D8FE92
:1051680008233B6003237B6000233B613B461946D1
:10517800194809F05AF90023FB6200233B63002316
:105188007B6307F12C031946144809F03DFA002304
:10519800BB610023FB6100233B6200237B62002389
:1051A800BB6207F1180319460C4809F059FA4FF485
:1051B80080610A48FFF737FE094A4FF40071074833
:1051C800FFF7F4FD002206490448FFF73FFE00BF41
:1051D8003837BD4680BD00BF0008024000220140AC
:1051E8000D00900080B400AF044BDB681B0A03F08D
:1051F80007031846BD465DF8047B704700ED00E0E4
:1052080080B483B000AF0346FB7197F90730002BD9
:105218000BDBFB7903F01F02074997F907305B099D
:10522800012000FA02F241F8232000BF0C37BD46E6
:105238005DF8047B704700BF00E100E080B483B0F4
:1052480000AF03463960FB7197F90730002B0ADB82
:105258003B68DAB20C4997F907301201D2B20B4415
:1052680083F800230AE03B68DAB20849FB7903F0C7
:105278000F03043B1201D2B20B441A7600BF0C375D
:10528800BD465DF8047B704700E100E000ED00E0FA
:1052980080B489B000AFF860B9607A60FB6803F049
:1052A8000703FB61FB69C3F10703042B28BF042331
:1052B800BB61FB690433062B02D9FB69033B00E0A1
:1052C80000237B614FF0FF32BB6902FA03F3DA4334
:1052D800BB681A407B699A404FF0FF317B6901FA3D
:1052E80003F3D9437B680B40134318462437BD4664
:1052F8005DF8047B7047000080B485B000AF78602B
:10530800084B1A6B07497B6813430B63054B1A6BF1
:105318007B681340FB60FB6800BF1437BD465DF82F
:10532800047B70470038024080B500AF4FF400108E
:10533800FFF7E2FFFFF756FF034600220021184659
:10534800FFF7A6FF034619460B20FFF777FF0B2050
:10535800FFF756FFFFF746FF0346002200211846D5
:10536800FFF796FF034619461020FFF767FF102046
:10537800FFF746FFFFF736FF0346002200211846D5
:10538800FFF786FF034619461120FFF757FF112044
:10539800FFF736FFFFF726FF0346002200211846D5
:1053A800FFF776FF034619462F20FFF747FF2F2008
:1053B800FFF726FF00BF80BD80B485B000AF7860DE
:1053C800084B1A6B07497B6813430B63054B1A6B31
:1053D8007B681340FB60FB6800BF1437BD465DF86F
:1053E800047B70470038024080B483B000AF786017
:1053F80039603B681A047B689A6100BF0C37BD4668
:105408005DF8047B7047000080B586B000AF3B466E
:1054180000221A605A609A60DA601A615A610420A0
:10542800FFF7CAFF8020FFF7C7FF0120FFF7C4FF7F
:105438000220FFF7C1FF44F210011648FFF7D4FF1E
:105448004FF480511448FFF7CFFF44F210033B603C
:1054580001237B600023BB600023FB6000233B61CA
:105468003B4619460B4808F0E0FF4FF480533B6079
:1054780001237B600023BB600023FB6000233B61AA
:105488003B461946044808F0D0FF00BF1837BD4610
:1054980080BD00BF000802400004024080B485B00F
:1054A80000AF7860084B1A6B07497B6813430B639E
:1054B800054B1A6B7B681340FB60FB6800BF143711
:1054C800BD465DF8047B70470038024080B485B063
:1054D80000AF7860084B5A6C07497B6813434B64EC
:1054E800054B5A6C7B681340FB60FB6800BF1437A0
:1054F800BD465DF8047B70470038024080B483B035
:1055080000AF78607B681B6823F080027B681A60B4
:1055180000BF0C37BD465DF8047B704780B485B08A
:1055280000AF786039603B68012B1CD03B68042BC6
:1055380017D03B68102B12D03B68402B0DD03B682E
:10554800B3F5807F07D03B68B3F5806F01D10523A1
:105558000AE0062308E0042306E0032304E002230C
:1055680002E0012300E00023FB737B68183319462F
:10557800FB7B0B4AD35C0B44BB60BB681A68FB7BA4
:105588000849CB5C194604238B40DB431A40BB68AF
:105598001A6000BF1437BD465DF8047B704700BF32
:1055A8001C3201082432010880B485B000AF78604D
:1055B80039603B68012B1CD03B68042B17D03B6833
:1055C800102B12D03B68402B0DD03B68B3F5807F81
:1055D80007D03B68B3F5806F01D105230AE00623A5
:1055E80008E0042306E0032304E0022302E0012389
:1055F80000E00023FB737B6818331946FB7B0A4ADB
:10560800D35C0B44BB60BB681A68FB7B0749CB5C67
:10561800194608238B401A43BB681A6000BF143729
:10562800BD465DF8047B70471C320108243201082E
:1056380080B483B000AF786039607B685B6823F022
:1056480070023B681A437B685A6000BF0C37BD463E
:105658005DF8047B704780B483B000AF78607B68E6
:105668009B6823F080027B689A6000BF0C37BD46B8
:105678005DF8047B7047000080B59AB000AF07F171
:10568800540300221A605A609A60DA601A6107F1BE
:1056980034032022002118460BF070F807F11C0390
:1056A80000221A605A609A60DA601A615A613B1DDA
:1056B80000221A605A609A60DA601A615A61022000
:1056C800FFF704FF0123A7F854300023BB6540F619
:1056D800FF73FB6500233B6600237B6607F15403D9
:1056E8001946524809F0A6FB5048FFF707FF012169
:1056F8004E48FFF759FF60237B630023BB630023F9
:10570800FB634FF400633B6400237B640023BB64AA
:105718000023FB6400233B6507F134031A4601218B
:10572800424809F021FC01214048FFF7F7FE10210B
:105738003E48FFF739FF07F134031A4610213B486A
:1057480009F012FC10213948FFF7E8FE4FF4807188
:105758003648FFF729FF07F134031A464FF48071E2
:10576800324809F001FC4FF480713048FFF7D6FE4B
:1057780000212E48FFF75CFF2C48FFF76CFF002341
:10578800FB6100233B6200237B62432387F82830B8
:1057980000237B854FF40053FB6200233B6307F132
:1057A8001C031946214809F020FC0120FFF776FE6A
:1057B8000220FFF773FE0420FFF770FE80237B6052
:1057C8000223BB600023FB6000233B6100237B6155
:1057D8000323BB613B1D1946154808F026FE032329
:1057E8007B600223BB600023FB6000233B61002336
:1057F8007B610323BB613B1D19460E4808F015FE6B
:105808004FF4E0737B600223BB600023FB6000233E
:105818003B6100237B610323BB613B1D194606489E
:1058280008F003FE00BF6837BD4680BD0004014094
:1058380000000240000402400008024080B485B025
:1058480000AFF860B9607A600D4ABB6813441B78F2
:105858001A46FB6813441B6823F0C0020849BB685A
:105868000B441B781946FB680B4419467B681343A5
:105878000B6000BF1437BD465DF8047B704700BF5E
:105888002C32010880B485B000AFF860B9607A6046
:105898000D4ABB6813441B781A46FB6813441B68FF
:1058A80023F490720849BB680B441B781946FB68BF
:1058B8000B4419467B6813430B6000BF1437BD4681
:1058C8005DF8047B704700BF2C32010880B485B0B6
:1058D80000AFF860B9607A600D4ABB6813441B7862
:1058E8001A46FB6813441B6823F400720849BB6816
:1058F8000B441B781946FB680B4419467B68134315
:105908000B6000BF1437BD465DF8047B704700BFCD
:105918002C32010880B485B000AFF860B9607A60B5
:105928000D4ABB6813441B781A46FB6813441B686E
:1059380023F480620849BB680B441B781946FB684E
:105948000B4419467B6813430B6000BF1437BD46F0
:105958005DF8047B704700BF2C32010880B485B025
:1059680000AFF860B9607A600D4ABB6813441B78D1
:105978001A46FB6813441B6823F4C0520849BB68E5
:105988000B441B781946FB680B4419467B68134384
:105998000B6000BF1437BD465DF8047B704700BF3D
:1059A8002C32010880B485B000AFF860B9607A6025
:1059B8000D4ABB6813441B781A46FB6813441B68DE
:1059C80023F4C0420849BB680B441B781946FB689E
:1059D8000B4419467B6813430B6000BF1437BD4660
:1059E8005DF8047B704700BF2C32010880B485B095
:1059F80000AFF860B9607A600D4ABB6813441B7841
:105A08001A46FB6813441B6823F440320849BB68F4
:105A18000B441B781946FB680B4419467B681343F3
:105A28000B6000BF1437BD465DF8047B704700BFAC
:105A38002C32010880B485B000AFF860B9607A6094
:105A48000D4ABB6813441B781A46FB6813441B684D
:105A580023F060620849BB680B441B781946FB6851
:105A68000B4419467B6813430B6000BF1437BD46CF
:105A78005DF8047B704700BF2C32010880B483B006
:105A880000AF786039600C4A3B6813441B781A46AB
:105A98007B6813445B6908493A680A4412781146DE
:105AA8007A680A4423F00403536100BF0C37BD46EB
:105AB8005DF8047B704700BF2C32010880B485B0C4
:105AC80000AF7860084B1A6B07497B6813430B6378
