:020000040800F2
:10000000000002202DEF000831D0000839D0000890
:1000100041D0000849D0000851D00008000000007D
:10002000000000000000000000000000E5B600082D
:1000300059D0000800000000A1B60008D1B50008A2
:100040007DEF00087DEF00087DEF00087DEF0008E0
:100050007DEF00087DEF00087DEF00087DEF0008D0
:100060007DEF00087DEF00087DEF000867D00008F5
:100070007DEF00087DEF00087DEF00087DEF0008B0
:1000800095C7000875C700081DF300087DEF00083C
:100090007DEF00087DEF00087DEF00087DEF000890
:1000A0007DEF000875D000087DEF00087DEF0008A7
:1000B0007DEF00087DEF00087DEF00087DEF000870
:1000C0007DEF00087DEF00087DEF00087DEF000860
:1000D0007DEF00087DEF000861C700087DEF000894
:1000E0007DEF00087DEF00087DEF00087DEF000840
:1000F0007DEF00087DEF00087DEF000889D0000843
:100100007DEF00087DEF00087DEF00087DEF00081F
:100110007DEF00087DEF00087DEF00087DEF00080F
:100120007DEF00087DEF00087DEF00087DEF0008FF
:100130007DEF000800000000000000007DEF0008D7
:100140007DEF00087DEF00087DEF00087DEF0008DF
:100150007DEF00087DEF00087DEF00087DEF0008CF
:100160007DEF00087DEF00087DEF00087DEF0008BF
:100170007DEF00087DEF0008000000000000000097
:080180007DEF00087DEF00088F
:1001880081F0004102E000BF83F0004330B54FEA40
:1001980041044FEA430594EA050F08BF90EA020FAD
:1001A8001FBF54EA000C55EA020C7FEA645C7FEA40
:1001B800655C00F0E2804FEA5454D4EB5555B8BF63
:1001C8006D420CDD2C4480EA020281EA030382EAD4
:1001D800000083EA010180EA020281EA0303362D66
:1001E80088BF30BD11F0004F4FEA01314FF4801C39
:1001F8004CEA113102D0404261EB410113F0004F4B
:100208004FEA03334CEA133302D0524263EB430301
:1002180094EA050F00F0A780A4F10104D5F1200E9F
:100228000DDB02FA0EFC22FA05F2801841F10001FA
:1002380003FA0EF2801843FA05F359410EE0A5F1CE
:1002480020050EF1200E012A03FA0EFC28BF4CF0FF
:10025800020C43FA05F3C01851EBE37101F00045B5
:1002680007D54FF0000EDCF1000C7EEB00006EEBC2
:100278000101B1F5801F1BD3B1F5001F0CD349084C
:100288005FEA30004FEA3C0C04F101044FEA4452A3
:1002980012F5800F80F09A80BCF1004F08BF5FEA2A
:1002A800500C50F1000041EB045141EA050130BD0A
:1002B8005FEA4C0C404141EB0101013C28BFB1F51C
:1002C800801FE9D291F0000F04BF01460020B1FA67
:1002D80081F308BF2033A3F10B03B3F120020CDA3A
:1002E8000C3208DD02F1140CC2F10C0201FA0CF018
:1002F80021FA02F10CE002F11402D8BFC2F1200C7D
:1003080001FA02F120FA0CFCDCBF41EA0C01904032
:10031800E41AA2BF01EB0451294330BD6FEA04047B
:100328001F3C1CDA0C340EDC04F11404C4F1200266
:1003380020FA04F001FA02F340EA030021FA04F378
:1003480045EA030130BDC4F10C04C4F1200220FACF
:1003580002F001FA04F340EA0300294630BD21FA0D
:1003680004F0294630BD94F0000F83F4801306BFD3
:1003780081F480110134013D4EE77FEA645C18BFC7
:100388007FEA655C29D094EA050F08BF90EA020F5E
:1003980005D054EA000C04BF1946104630BD91EA56
:1003A800030F1EBF0021002030BD5FEA545C05D159
:1003B8004000494128BF41F0004130BD14F5800498
:1003C8003CBF01F5801130BD01F0004545F0FE410C
:1003D80041F470014FF0000030BD7FEA645C1ABF41
:1003E800194610467FEA655C1CBF0B46024650EA78
:1003F800013406BF52EA033591EA030F41F40021A4
:1004080030BD00BF90F0000F04BF0021704730B529
:100418004FF4806404F132044FF000054FF00001FE
:1004280050E700BF90F0000F04BF0021704730B5BF
:100438004FF4806404F1320410F0004548BF404294
:100448004FF000013EE700BF42004FEAE2014FEAE9
:1004580031014FEA02701FBF12F07F4393F07F4FC4
:1004680081F06051704732F07F4208BF704793F0C7
:100478007F4F04BF41F40021704730B54FF46074DA
:1004880001F0004521F000411CE700BF50EA0102DD
:1004980008BF704730B54FF000050AE050EA010286
:1004A80008BF704730B511F0004502D5404261EBF6
:1004B80041014FF4806404F132045FEA915C3FF437
:1004C800D8AE4FF003025FEADC0C18BF03325FEAD4
:1004D800DC0C18BF033202EBDC02C2F1200300FA85
:1004E80003FC20FA02F001FA03FE40EA0E0021FAAA
:1004F80002F11444BDE600BF70B54FF0FF0C4CF498
:10050800E06C1CEA11541DBF1CEA135594EA0C0F49
:1005180095EA0C0F00F0DEF82C4481EA030621EA84
:100528004C5123EA4C5350EA013518BF52EA0335BF
:1005380041F4801143F4801338D0A0FB02CE4FF071
:100548000005E1FB02E506F00042E0FB03E54FF0A1
:100558000006E1FB03569CF0000F18BF4EF0010E99
:10056800A4F1FF04B6F5007F64F5407404D25FEA95
:100578004E0E6D4146EB060642EAC62141EA555148
:100588004FEAC52040EA5E504FEACE2EB4F1FD0C8A
:1005980088BFBCF5E06F1ED8BEF1004F08BF5FEA08
:1005A800500E50F1000041EB045170BD06F00046BA
:1005B80046EA010140EA020081EA0301B4EB5C0467
:1005C800C2BFD4EB0C0541EA045170BD41F480115F
:1005D8004FF0000E013C00F3AB8014F1360FDEBF84
:1005E800002001F0004170BDC4F10004203C35DA60
:1005F8000C341BDC04F11404C4F1200500FA05F3E3
:1006080020FA04F001FA05F240EA020001F0004283
:1006180021F0004110EBD37021FA04F642EB0601F9
:100628005EEA430E08BF20EAD37070BDC4F10C0423
:10063800C4F1200500FA04F320FA05F001FA04F2E7
:1006480040EA020001F0004110EBD37041F10001D3
:100658005EEA430E08BF20EAD37070BDC4F12005DE
:1006680000FA05F24EEA020E20FA04F301FA05F246
:1006780043EA020321FA04F001F0004121FA04F2EE
:1006880020EA020000EBD3705EEA430E08BF20EABE
:10069800D37070BD94F0000F0FD101F000464000F8
:1006A80041EB010111F4801F08BF013CF7D041EA7A
:1006B800060195F0000F18BF704703F0004652007E
:1006C80043EB030313F4801F08BF013DF7D043EA4F
:1006D8000603704794EA0C0F0CEA135518BF95EA05
:1006E8000C0F0CD050EA410618BF52EA4306D1D18C
:1006F80081EA030101F000414FF0000070BD50EAAB
:10070800410606BF1046194652EA430619D094EA34
:100718000C0F02D150EA013613D195EA0C0F05D11E
:1007280052EA03361CBF104619460AD181EA030172
:1007380001F0004141F0FE4141F470014FF000002A
:1007480070BD41F0FE4141F4780170BD70B54FF0C5
:10075800FF0C4CF4E06C1CEA11541DBF1CEA135545
:1007680094EA0C0F95EA0C0F00F0A7F8A4EB050427
:1007780081EA030E52EA03354FEA013100F088801E
:100788004FEA03334FF0805545EA131343EA1263E7
:100798004FEA022245EA111545EA10654FEA00269C
:1007A8000EF000419D4208BF964244F1FD0404F555
:1007B800407402D25B084FEA3202B61A65EB0305B1
:1007C8005B084FEA32024FF480104FF4002CB6EB6E
:1007D800020E75EB030E22BFB61A754640EA0C00EE
:1007E8005B084FEA3202B6EB020E75EB030E22BF2E
:1007F800B61A754640EA5C005B084FEA3202B6EB6F
:10080800020E75EB030E22BFB61A754640EA9C002D
:100818005B084FEA3202B6EB020E75EB030E22BFFD
:10082800B61A754640EADC0055EA060E18D04FEABB
:10083800051545EA16754FEA06164FEAC30343EA5B
:1008480052734FEAC2025FEA1C1CC0D111F4801F28
:100858000BD141EA00014FF000004FF0004CB6E721
:1008680011F4801F04BF01430020B4F1FD0C88BFC0
:10087800BCF5E06F3FF6AFAEB5EB030C04BFB6EBCB
:10088800020C5FEA500C50F1000041EB045170BDBE
:100898000EF0004E4EEA113114EB5C04C2BFD4EBEB
:1008A8000C0541EA045170BD41F480114FF0000E6F
:1008B800013C90E645EA060E8DE60CEA135594EAEB
:1008C8000C0F08BF95EA0C0F3FF43BAF94EA0C0FEE
:1008D8000AD150EA01347FF434AF95EA0C0F7FF463
:1008E80025AF104619462CE795EA0C0F06D152EAB7
:1008F80003353FF4FDAE1046194622E750EA41069B
:1009080018BF52EA43067FF4C5AE50EA41047FF4AB
:100918000DAF52EA43057FF4EBAE12E74FF0FF3C10
:1009280006E000BF4FF0010C02E000BF4FF0010CE1
:100938004DF804CD4FEA410C7FEA6C5C4FEA430C5A
:1009480018BF7FEA6C5C1BD001B050EA410C0CBFA9
:1009580052EA430C91EA030F02BF90EA020F00200B
:10096800704710F1000F91EA030F58BF994208BF72
:1009780090422CBFD8176FEAE37040F0010070472F
:100988004FEA410C7FEA6C5C02D150EA013C07D186
:100998004FEA430C7FEA6C5CD6D152EA033CD3D0D1
:1009A8005DF8040B704700BF8446104662468C46CB
:1009B8001946634600E000BF01B5FFF7B7FF0028FE
:1009C80048BF10F1000F01BD4DF808EDFFF7F4FF27
:1009D8000CBF012000205DF808FB00BF4DF808EDB2
:1009E800FFF7EAFF34BF012000205DF808FB00BFD5
:1009F8004DF808EDFFF7E0FF94BF012000205DF8F7
:100A080008FB00BF4DF808EDFFF7CEFF94BF0120AB
:100A180000205DF808FB00BF4DF808EDFFF7C4FFA4
:100A280034BF012000205DF808FB00BF4FEA410CED
:100A38007FEA6C5C02D150EA013C0AD14FEA430CD0
:100A48007FEA6C5C02D152EA033C02D14FF000000D
:100A580070474FF0010070474A0011D212F500129A
:100A680011D20DD56FF47873B3EB62520ED44FEAFE
:100A7800C12343F0004343EA505323FA02F070477E
:100A88004FF00000704750EA013002D14FF0FF30BC
:100A980070474FF00000704753B94AB9002908BFA2
:100AA80000281CBF4FF0FF314FF0FF3000F00CB8AA
:100AB800ADF1080C6DE904CE0EF0B2FFDDF804E0EC
:100AC800DDE9022304B07047704700BF844641EA5D
:100AD800000313F003036DD1403A41D351F8043BAE
:100AE80040F8043B51F8043B40F8043B51F8043B00
:100AF80040F8043B51F8043B40F8043B51F8043BF0
:100B080040F8043B51F8043B40F8043B51F8043BDF
:100B180040F8043B51F8043B40F8043B51F8043BCF
:100B280040F8043B51F8043B40F8043B51F8043BBF
:100B380040F8043B51F8043B40F8043B51F8043BAF
:100B480040F8043B51F8043B40F8043B51F8043B9F
:100B580040F8043B51F8043B40F8043B403ABDD20E
:100B6800303211D351F8043B40F8043B51F8043BB0
:100B780040F8043B51F8043B40F8043B51F8043B6F
:100B880040F8043B103AEDD20C3205D351F8043B3F
:100B980040F8043B043AF9D2043208D0D2071CBF0B
:100BA80011F8013B00F8013B01D30B880380604634
:100BB800704700BF082A13D38B078DD010F00303AA
:100BC8008AD0C3F10403D21ADB071CBF11F8013B1A
:100BD80000F8013B80D331F8023B20F8023B7BE769
:100BE800043AD9D3013A11F8013B00F8013BF9D294
:100BF8000B7803704B7843708B788370604670472E
:100C08000348044B834202D0034B03B11847704793
:100C1800BC010020BC010020000000000548064B74
:100C28001B1AD90F01EBA301491002D0034B03B1E2
:100C380018477047BC010020BC01002000000000DC
:100C480010B5064C237843B9FFF7DAFF044B13B10C
:100C58000448AFF300800123237010BDC0010020B9
:100C680000000000B4FE000808B5054B1BB105499B
:100C78000548AFF30080BDE80840FFF7CFBF00BFCD
:100C880000000000C4010020B4FE000880B483B056
:100C980000AF786039600C4A3B6813441B781A46E9
:100CA8007B6813441B6808493A680A44127811465D
:100CB8007A680A4443F00103136000BF0C37BD464D
:100CC8005DF8047B704700BF5827010880B485B0E1
:100CD80000AFF860B9607A600D4ABB6813441B78AE
:100CE8001A46FB6813445B681B0C1B040849BA6866
:100CF8000A4412781146FA680A4411467A6813437E
:100D08004B6000BF1437BD465DF8047B704700BFD9
:100D18005827010880B485B000AFF860B9607A60E0
:100D28003B60BB69402B14D1174ABB6813441B783E
:100D38001A46FB6813441A467B68D360124ABB689C
:100D480013441B781A46FB6813441A463B689360A1
:100D580013E00D4ABB6813441B781A46FB6813441A
:100D68001A467B689360084ABB6813441B781A4686
:100D7800FB6813441A463B68D36000BF1437BD466E
:100D88005DF8047B704700BF5827010880B483B022
:100D980000AF786039600C4A3B6813441B781A46E8
:100DA8007B6813441B6808493A680A44127811465C
:100DB8007A680A4443F01003136000BF0C37BD463D
:100DC8005DF8047B704700BF5827010880B483B0E2
:100DD80000AF78607B681B6843F040027B681A604C
:100DE80000BF0C37BD465DF8047B704780B483B004
:100DF80000AF78607B681B6823F040027B681A604C
:100E080000BF0C37BD465DF8047B704780B483B0E3
:100E180000AF78607B681B6803F04003402B01D16A
:100E2800012300E0002318460C37BD465DF8047B1B
:100E3800704780B483B000AF78607B681B6803F4A8
:100E4800827318460C37BD465DF8047B704780B442
:100E580083B000AF786039607B681B6823F00102BB
:100E68003B681A437B681A6000BF0C37BD465DF8C3
:100E7800047B704780B483B000AF78607B681B68E0
:100E880003F0010318460C37BD465DF8047B704734
:100E980080B483B000AF786039607B681B6823F04A
:100EA80002023B681A437B681A6000BF0C37BD46D4
:100EB8005DF8047B704780B483B000AF78607B68CE
:100EC8001B6803F0020318460C37BD465DF8047B27
:100ED800704780B483B000AF786039607B681B6866
:100EE80023F444423B681A437B681A6000BF0C37FE
:100EF800BD465DF8047B704780B483B000AF78606E
:100F08007B681B6803F4444318460C37BD465DF8FC
:100F1800047B704780B483B000AF786039607B6829
:100F28001B6823F400623B681A437B681A6000BFA1
:100F38000C37BD465DF8047B704780B483B000AFC2
:100F480078607B681B6803F4006318460C37BD465D
:100F58005DF8047B704780B483B000AF78607B682D
:100F68009B6803F00103012B01D1012300E000235A
:100F780018460C37BD465DF8047B704780B483B0D3
:100F880000AF78607B689B6803F00203022B01D1F5
:100F9800012300E0002318460C37BD465DF8047BAA
:100FA800704780B483B000AF78607B689B6803F0BB
:100FB8008003802B01D1012300E0002318460C3761
:100FC800BD465DF8047B704780B483B000AF78609D
:100FD8007B685B6843F040027B685A6000BF0C374F
:100FE800BD465DF8047B704780B483B000AF78607D
:100FF8007B685B6843F001027B685A6000BF0C376E
:10100800BD465DF8047B704780B483B000AF78605C
:101018007B685B6843F002027B685A6000BF0C374C
:10102800BD465DF8047B704780B483B000AF78603C
:101038007B680C3318460C37BD465DF8047B704757
:1010480080B483B000AF78607B680C331B78DBB268
:1010580018460C37BD465DF8047B704780B483B0F2
:1010680000AF78607B68DB689BB218460C37BD46DA
:101078005DF8047B704780B485B000AF78600B469C
:10108800FB707B680C33FB60FB68FA781A7000BF52
:101098001437BD465DF8047B704780B485B000AF57
:1010A80078600B467B807B680C33FB60FB687A8832
:1010B8001A8000BF1437BD465DF8047B70470000F6
:1010C80080B584B000AF786039600023FB600023EE
:1010D800BB607B68002B0BD03B68002B08D07B687B
:1010E800BB60BB681B68654A934201D1644BFB60D7
:1010F800FB68002B00F0BC80BB681A68FB681A60AC
:10110800FB6893F84620BB6893F846301343DAB27D
:10111800FB6883F84620FB6893F84420BB6893F883
:1011280044301343DAB2FB6883F84420FB6893F831
:101138004520BB6893F845301343DAB2FB6883F85F
:101148004520FB683A68DA61BB6893F8463003F0DB
:101158000103002B32D0BB689A6AFB689A62BB68AD
:101168001A6AFB681A62FB6800225A63FB6800224D
:101178001A63FB68002283F84020FB6893F8443028
:1011880003F00403002B05D0FB681B681846FFF723
:101198001BFF13E0FB6893F8443003F01003002BA7
:1011A8000CD0BB685A68FB685A60BB6893F8542037
:1011B800FB6883F85420F86800F0FEFABB6893F8DF
:1011C800463003F00203002B28D0BB68DA6AFB68BC
:1011D800DA62BB685A6AFB685A62FB6800229A6343
:1011E800FB680022DA63FB6800229A61FB68002230
:1011F80083F85620FB6893F8453003F02003002B52
:101208000CD0BB689A68FB689A60BB6893F8552055
:10121800FB6883F85520F86800F00FFB3B68FA6814
:101228001A60FB681B681846FFF766FE0346B3F5AD
:10123800004F0ED1FB681B681846FFF7FAFD0346FE
:10124800B3F5827F05D1FB681B681846FFF7CEFD12
:1012580004E0FB681B681846FFF7B8FDBB681B680D
:101268001A46064B9A4202D000233B6000E000BFBA
:101278003B6818461037BD4680BD00BF003C0040A3
:10128800DC01002080B582B000AF78600B467B801F
:101298007868FFF731FE0346B3F5004F0BD17B8822
:1012A800012B08D1786800F0F4FA4FF440417868CF
:1012B800FFF70FFE11E07868FFF71EFE0346B3F54F
:1012C800404F0AD17B88002B07D1786800F0E1FAFB
:1012D8004FF400417868FFF7FCFD002318460837F3
:1012E800BD4680BD80B586B000AFF8607A601A460A
:1012F8000B467B8113467B7200237B61FB68002BC6
:1013080006D0FB681B68002B02D0FB681B687B615A
:101318007B689BB21B0A7B827B897A69134493F8AA
:101328004E30002B0CD07B69B3F84C207B7A9BB2F3
:101338009A4205D17B695B697A689A4200F0C88055
:101348007B7A9AB27B69A3F84C207B697A685A61E8
:101358007B691B68184600F09CFA7B69B3F84C302F
:10136800002B1CD17B691B681846FFF783FD0346D9
:10137800002B05D07B691B6800211846FFF767FD25
:101388007B691B681846FFF796FD0346022B66D05B
:101398007B691B6802211846FFF77AFD5FE07B69CD
:1013A800B3F84C30012B1CD17B691B681846FFF73A
:1013B80061FD0346012B05D07B691B680121184696
:1013C800FFF745FD7B691B681846FFF774FD034668
:1013D800022B44D07B691B6802211846FFF758FD91
:1013E8003DE07B69B3F84C30022B1CD17B691B684C
:1013F8001846FFF73FFD0346002B05D07B691B68A5
:1014080000211846FFF723FD7B691B681846FFF784
:1014180052FD0346002B22D07B691B680021184629
:10142800FFF736FD1BE07B691B681846FFF722FDB6
:101438000346012B05D07B691B6801211846FFF77D
:1014480006FD7B691B681846FFF735FD0346002B30
:1014580005D07B691B6800211846FFF719FD7B69D9
:101468001B681846FFF769FD02467B6893420CD05B
:101478007B691A687B8A082B01D8002301E04FF4A6
:10148800006319461046FFF745FD7B691B6818463F
:10149800FFF732FD0346B3F5004F0ED17B691B6899
:1014A8001846FFF7C6FC0346B3F5827F05D17B6972
:1014B8001B68184600F0EDF904E07B691B681846C4
:1014C800FFF784FC7B897A691344012283F84E2054
:1014D800002318461837BD4680BD80B58AB000AFD6
:1014E800F860B96011461A460B46FB801346BB806C
:1014F8000023BB840023FB610CF064FEF861002329
:101508003B62FB68002B06D0FB681B68002B02D0EF
:10151800FB681B683B623B6A1B6801211846FFF7A2
:10152800B1FE0346BB843B8E002B01D100237B63B5
:101538003B6A1B681846FFF769FC0346002B04D179
:101548003B6A1B681846FFF741FCBB88DBB2002BDF
:101558002CD1BB687B610023FB8422E03B6A1B68BB
:101568001846FFF70BFD0346012B0CD13B6A1868A0
:10157800FB8C7A6913441B781946FFF77CFDFB8CBA
:101588000133FB840DE00121F86909F097FF024659
:101598007B6B934205D2386A00F0C3F90346BB84DB
:1015A80035E0FA8CFB889A42D8D330E0BB88DBB2AE
:1015B800012B2CD1BB68BB610023FB8423E03B6A71
:1015C8001B681846FFF7DAFC0346012B0DD13B6A6E
:1015D8001868FB8C5B00BA6913441B881946FFF72F
:1015E8005CFDFB8C0133FB840DE00121F86909F0F7
:1015F80065FF02467B6B934205D2386A00F091F989
:101608000346BB8403E0FA8CFB889A42D7D3BB8C91
:1016180018462837BD4680BD90B58FB004AFF86036
:10162800B96011461A460B46FB801346BB8000235F
:10163800BB840023BB610CF0C5FDB861FB887B84CB
:101648000023FB61FB68002B06D0FB681B68002B9E
:1016580002D0FB681B68FB61FB691B680021184608
:10166800FFF710FE0346BB843B8F002B01D10023FC
:10167800FB63FB691B681846FFF7DBFB0346B3F502
:10168800827F0BD1FB691B681846FFF735FC0346C0
:10169800B3F5004F02D17B8C013B7B84FB691B684F
:1016A8001846FFF7B3FB0346002B04D1FB691B6800
:1016B8001846FFF78BFBBB88DBB2002B39D1BB6820
:1016C8003B610023FB842FE0FB691B681846FFF78A
:1016D80042FC0346002B0DD0FB691968FB8C3A6964
:1016E800D4180846FFF7ACFC03462370FB8C013383
:1016F800FB8419E00121B86909F0E0FE0246FB6BA2
:10170800934211D2798CFA8CFB6B0393BB690293D9
:10171800BB880193FB8800930B463969F86900F090
:101728000BF90346BB8442E0FA8C7B8C9A42CBD3FC
:101738003DE0BB88DBB2012B39D1BB687B6100235C
:10174800FB8430E0FB691B681846FFF704FC03467E
:10175800002B0ED0FB691968FB8C5B007A69D418E2
:101768000846FFF77BFC03462380FB8C0133FB8490
:1017780019E00121B86909F0A1FE0246FB6B93420A
:1017880011D2798CFA8CFB6B0393BB690293BB88EB
:101798000193FB8800930B467969F86900F0CCF84F
:1017A8000346BB8403E0FA8C7B8C9A42CAD3BB8C79
:1017B80018462C37BD4690BDB0B584B002AF7860EE
:1017C8007B685C687B6893F854301D467B681B68AF
:1017D8001846FFF729FC02467B681B6A1946002356
:1017E80000930B4629462046FFF794FA7B68586811
:1017F8007B6893F8543019467B68DB691B691A4685
:10180800FFF764FA7B685A687B6893F85430194686
:101818001046FFF7BBFA7B681B681846FFF7E4FB26
:101828007B685A687B6893F8543019461046FFF76E
:101838002DFA00BF0837BD46B0BDF0B585B002AF80
:1018480078607B689C687B6893F855301D467B6898
:101858005B6A1E467B681B681846FFF7E5FB034674
:1018680040220092324629462046FFF753FA7B6809
:101878009A687B6893F8553019461046FFF786FA40
:101888007B681B681846FFF7BFFB00BF0C37BD46D7
:10189800F0BD80B582B000AF78607868FFF7B6FA1F
:1018A8000346002B2CD07868FFF726FB0346002B55
:1018B8000AD100BF7868FFF774FB0346002BF9D103
:1018C8007868FFF793FA1BE07868FFF715FB034683
:1018D800B3F5806F06D07868FFF70EFB0346B3F5C3
:1018E800004F03D17868FFF781FA09E000BF7868F4
:1018F800FFF757FB0346002BF9D17868FFF776FA14
:1019080000BF0837BD4680BD80B485B000AFF86021
:10191800B9607A603B6000BF1437BD465DF8047B50
:10192800704780B483B000AF7860012318460C3745
:10193800BD465DF8047B704790B587B000AFF8608E
:10194800B96011461A460B46FB801346BB80FB68FC
:101958001B681846FFF74AFAFB681B681846FFF72A
:1019680068FA0346B3F5827F37D1FB681B681846CF
:10197800FFF7C2FA0346B3F5004F2ED1BA883B8D64
:101988009A422AD0FB681B681846FFF7E4FA034618
:10199800002BF7D0BB8DDBB2002B0CD1BB683B61B1
:1019A800FB681968FB883A69D4180846FFF748FBB2
:1019B8000346237010E0BB8DDBB2012B0CD1BB6852
:1019C8007B61FB681968FB885B007A69D418084654
:1019D800FFF744FB0346238000BF012318461C374A
:1019E800BD4690BD80B485B000AF786039600023F3
:1019F800FB7397F90F3018461437BD465DF8047B22
:101A08007047000080B584B000AF7860396000236B
:101A1800FB727B68002B05D1374803F015FC4FF0AB
:101A2800FF3365E03B68002B05D1344803F00CFC1C
:101A38004FF0FF335CE0324BD3E900014FF0000276
:101A48004FF04043FEF7C0FF0346002B06D03B682B
:101A5800D3E900232A49C1E9002305E0284BD3E94B
:101A680000233968C1E90023254BD3E900014FF071
:101A78000002244BFEF7A8FF0346002B02D02248A1
:101A880003F0E2FB7B685B681B68204A13607B6895
:101A98005B685B681E4A13607B685B689B681D4ACD
:101AA80013607B685B68DB681B4A13601B4B002272
:101AB8001A6004F087F80023FB600023FB6007E04E
:101AC800174AFB68174942F82310FB680133FB608B
:101AD800FB68022BF4D903F0B5FC0346FB7297F9B7
:101AE8000B30002B02D1104B01221A7097F90B30E2
:101AF80018461037BD4680BDD0FE0008F4FE000829
:101B0800000000200000F0BF20FF0008940600201D
:101B1800980600209C060020A0060020A4060020AD
:101B280034020020355C00089106002080B586B09C
:101B380000AF78600023FB7500233B610023FB7333
:101B48002A4B1B78DBB2002B0CBF01230023DBB22E
:101B5800BB73274B02221A707B68002B0BD1234BD7
:101B68001B78DBB2002B06D1224B1B78DBB2002B93
:101B780001D1012300E00023FB7316E00A2009F0DD
:101B88005DFC3B6903F51C5310333B617B68B3F183
:101B9800FF3F05D03A697B689A4201D9012300E0EA
:101BA8000023FB73002003F0A5FC104B1B78DBB26D
:101BB800002B07D10F4B1B78DBB2002B02D1FB7B2C
:101BC800002BDBD00A4B03221A70FB7B002B01D0C1
:101BD8009C23FB75BB7B002B01D004F021F997F9FE
:101BE800173018461837BD4680BD00BF8F06002045
:101BF800910600209006002080B588B000AF03460B
:101C080087ED000BFB810023FB770123BB774FF0A7
:101C180000024FF00003D7E90001FEF7DFFE03469C
:101C2800002B05D02F4803F00FFB4FF0FF3355E092
:101C3800FB89FF2B08D9FB89FF2219462A4803F0A4
:101C480003FB4FF0FF3349E0284B1B78DBB2032B33
:101C580004D0264B1B78DBB2012B02D1234B042284
:101C68001A70FB89022B15D8FB89214A52F82330B8
:101C7800002B0FD004F096FC03467B777B7F022B6A
:101C880008D1FB891A4A52F82330FA891046984736
:101C98000346BB77FB897B83FB89184697ED000BCE
:101CA80003F08EFB7861BB7F002B07D07B8B7969B3
:101CB800184604F053FC0346FB7703E07B8B184679
:101CC80004F0ABFC97F91F30002B05D097F91F30B3
:101CD8001946084803F0B8FA97F91F301846203714
:101CE800BD4680BD8CFF0008D0FF0008910600208B
:101CF800340200201000010880B582B000AF002334
:101D0800FB71002003F0F6FB0346FB7197F90730DF
:101D180018460837BD4680BD80B582B000AF0023A5
:101D2800FB710B4B06221A7003F082FC0346FB7111
:101D38000C22002107480DF0D1FF03F0F7FF044BF8
:101D480000221A7097F9073018460837BD4680BD3B
:101D5800910600203402002080B400AF034B1B78AA
:101D6800DBB21846BD465DF8047B7047900600203C
:101D780080B400AF034B1B78DBB21846BD465DF854
:101D8800047B7047A806002080B483B000AF786059
:101D980039607B683A689A6100BF0C37BD465DF8C8
:101DA800047B704780B483B000AF786039603B68CB
:101DB8001A047B689A6100BF0C37BD465DF8047B46
:101DC8007047000080B400AF0A4B93F83D20013201
:101DD800D2B283F83D20074B93F83D30632B03D9EB
:101DE800044B002283F83D2000BFBD465DF8047B0C
:101DF800704700BF8005002080B483B000AF7860D2
:101E08007B684FF0FF321A6000BF0C37BD465DF8A3
:101E1800047B704780B483B000AF78607B684FF074
:101E2800FF321A6000BF0C37BD465DF8047B70476F
:101E380080B485B000AF0346B9607A60FB817B68E7
:101E48004FF0FF321A60FB89DB039AB2BB681A8035
:101E580000BF1437BD465DF8047B704780B483B07B
:101E680000AF78607B684FF0FF321A6000BF0C3714
:101E7800BD465DF8047B704780B483B000AF7860DE
:101E88007B684FF0FF321A6000BF0C37BD465DF823
:101E9800047B704780B485B000AF0346B9607A60B0
:101EA800FB817B684FF0FF321A60FB89DB029AB234
:101EB800BB681A8000BF1437BD465DF8047B7047C5
:101EC80080B59AB000AF78607B6800221A727B6890
:101ED80001225A600023BB620023FB62254BBB60D2
:101EE800002387F84E3000233B6300237B630123E4
:101EF80087F84C30022387F84D300023FB6000231D
:101F080087F85C3000233B61002387F85D307B68ED
:101F180000221A617B68184A5A61012387F86730E2
:101F28007B680E229A617B68012283F824207B68F3
:101F380097F867201A777B680F221A627B6810333C
:101F48003B6607F10803396E1846FFF7B9F80246F1
:101F58007B68DA607B68D86803234FF470620221DB
:101F6800FFF7C0F97B6801221A7200BF6837BD46C7
:101F780080BD00BF003C00400008024080B582B030
:101F880000AF78607B6800225A607B6800221A7074
:101F98007B68012283F828207B681846FFF790FFAA
:101FA80000BF0837BD4680BD80B58CB002AF7860F1
:101FB8007B68D86803234FF470620221FFF792F917
:101FC8000346FB84FB8C002B10D17B68D86807F193
:101FD8000801012301930123009301230F22FFF736
:101FE8001BFB4FF480410348FFF7CEFE00BF2837A4
:101FF800BD4680BD0008024080B586B002AF78605B
:102008007B681B78002B16D17B6801221A707B68CD
:102018005B68012B0FD17B681B7A002B0BD04FF02C
:10202800FF33FB607B68D8680E230093FB68FA686F
:10203800F968FFF769FC00BF1037BD4680BD000096
:1020480080B59AB000AF78600023BB620023FB62C2
:10205800234BBB60002387F84E3000233B630023EB
:102068007B63012387F84C30022387F84D30002327
:10207800FB60002387F85C3000233B61002387F86E
:102088005D307B6800221A617B68164A5A61012319
:1020980087F867307B680E229A617B68012283F893
:1020A80024207B6897F867201A777B6801221A62D8
:1020B8007B6810333B6607F10803396E1846FEF754
:1020C800FFFF02467B68DA607B68D86803234FF419
:1020D80070620221FFF706F900BF6837BD4680BD70
:1020E800003C00400008024080B582B000AF786034
:1020F8007B6800221A707B68012283F828207B689D
:1021080000221A727B6801225A607B681846FFF722
:1021180097FF7B6801221A7200BF0837BD4680BD51
:1021280080B586B002AF03463960FB803B68D8684B
:1021380003234FF470620221FFF7D4F80346FB81B2
:10214800FB89002B0FD14FF480410948FFF72AFE85
:102158003B68D868B91D012301930123009301232B
:102168000122FFF7BAF900BF1037BD4680BD00BF96
:102178000008024080B586B002AF78607B681B78A3
:10218800002B16D17B6801221A707B685B68012BD3
:102198000FD17B681B7A002B0BD04FF0FF33FB600D
:1021A8007B68D8680E230093FB68FA68F968FFF724
:1021B800ABFB00BF1037BD4680BD000080B59AB0AC
:1021C80000AF78607B6800221A727B6801225A602F
:1021D8000023BB620023FB62254BBB60002387F80A
:1021E8004E3000233B6300237B63012387F84C3088
:1021F800022387F84D300023FB60002387F85C300A
:1022080000233B61002387F85D307B6800221A6158
:102218007B68184A5A61012387F867307B680E2269
:102228009A617B68012283F824207B6897F86720ED
:102238001A777B6801221A627B6810333B6607F1C4
:102248000803396E1846FEF73BFF02467B68DA60E2
:102258007B68D86803234FF470620221FFF742F8C5
:102268007B6801221A7200BF6837BD4680BD00BF77
:10227800003C00400008024080B582B000AF7860A2
:102288007B6800225A607B6800221A707B680122F2
:1022980083F828207B681846FFF790FF00BF0837AF
:1022A800BD4680BD80B586B002AF786039603B68B6
:1022B800D86803234FF470620221FFF713F803462E
:1022C800FB81FB89002B0FD13B68D8687968012313
:1022D80001930123009301230122FFF79DF94FF495
:1022E80080410348FFF750FD00BF1037BD4680BD51
:1022F8000008024080B586B002AF78607B681B7822
:10230800002B16D17B6801221A707B685B68012B51
:102318000FD17B681B7A002B0BD04FF0FF33FB608B
:102328007B68D8680E230093FB68FA68F968FFF7A2
:10233800EBFA00BF1037BD4680BD000080B58CB0F9
:1023480002AF78607B6800221A727B6801225A60AB
:102358000023BB6100237B74184BFB6100233B62A5
:102368000023BB74002387F82430012387F8253025
:102378000123FB6001233B7407F10C000023009349
:102388000423012201210CF0D9FF02467B68DA60A0
:102398007B68DB6818460DF06DF87B68DB68012107
:1023A80018460CF0BEFF7B6801221A727B68002277
:1023B8005A7200BF2837BD4680BD00BF00210140CA
:1023C80080B58CB002AF78607B6800221A727B6897
:1023D80001225A600023BB6100237B74184BFB6108
:1023E80000233B620023BB74002387F824300123B9
:1023F80087F825300123FB6001233B7407F10C00AB
:10240800002300930423012201210CF097FF0246C8
:102418007B68DA607B68DB6818460DF02BF87B6810
:10242800DB68012118460CF07CFF7B6801221A72D8
:102438007B6800225A7200BF2837BD4680BD00BFA6
:102448000022014080B59AB000AF78607B68002216
:102458001A727B6801225A600023BB620023FB6268
:10246800254BBB60002387F84E3000233B630023D5
:102478007B63012387F84C30022387F84D30002313
:10248800FB60002387F85C3000233B61002387F85A
:102498005D307B6800221A617B68184A5A61012303
:1024A80087F867307B680E229A617B68012283F87F
:1024B80024207B6897F867201A777B6810221A62B5
:1024C8007B6810333B6607F10803396E1846FEF740
:1024D800F7FD02467B68DA607B68D86803234FF40F
:1024E80070620221FEF7FEFE7B6801221A7200BFAD
:1024F8006837BD4680BD00BF003C00400008024070
:1025080080B59AB000AF78600023BB620023FB62FD
:10251800234BBB60002387F84E3000233B63002326
:102528007B63012387F84C30022387F84D30002362
:10253800FB60002387F85C3000233B61002387F8A9
:102548005D307B6800221A617B68164A5A61012354
:1025580087F867307B680E229A617B68012283F8CE
:1025680024207B6897F867201A777B6801221A6213
:102578007B6810333B6607F10803396E1846FEF78F
:102588009FFD02467B68DA607B68D86803234FF4B6
:1025980070620221FEF7A6FE00BF6837BD4680BD07
:1025A800003C00400008024080B59AB000AF786057
:1025B8007B6800221A727B6801225A600023BB6282
:1025C8000023FB62254BBB60002387F84E300023B5
:1025D8003B6300237B63012387F84C30022387F891
:1025E8004D300023FB60002387F85C3000233B61FB
:1025F800002387F85D307B6800221A617B68184ADF
:102608005A61012387F867307B680E229A617B68DC
:10261800012283F824207B6897F867201A777B6863
:1026280001221A627B6810333B6607F10803396E92
:102638001846FEF745FD02467B68DA607B68D86875
:1026480003234FF470620221FEF74CFE7B680122DF
:102658001A7200BF6837BD4680BD00BF003C00400D
:10266800000802400000000090B5A1B002AFC34BC3
:1026780093F9273187F86330002387F8733097F888
:102688006330042B1FD801A252F823F0A9260008B2
:10269800B1260008B9260008C1260008C926000886
:1026A800002387F873300EE0032387F873300AE0BD
:1026B800032387F8733006E0002387F8733002E0BD
:1026C800002387F8733097F97320AC4B83F82721E0
:1026D800AA4B93F9263187F86230002387F87230C5
:1026E80097F86230042B20D801A252F823F000BFDB
:1026F8000D270008152700081D27000825270008B2
:102708002D270008002387F872300EE0032387F88E
:1027180072300AE0032387F8723006E0002387F856
:10272800723002E0002387F8723097F97220934BD9
:1027380083F82621914B93F9253187F861300023DE
:1027480087F8713097F86130042B20D801A252F82D
:1027580023F000BF712700087927000881270008A7
:102768008927000891270008002387F871300EE0B8
:10277800032387F871300AE0032387F8713006E0F5
:10278800002387F8713002E0002387F8713097F949
:1027980071207A4B83F82521784B93F9243187F8F7
:1027A8006030002387F8703097F86030042B20D809
:1027B80001A252F823F000BFD5270008DD27000842
:1027C800E5270008ED270008F5270008002387F80B
:1027D80070300EE0032387F870300AE0032387F88F
:1027E800703006E0002387F8703002E0002387F895
:1027F800703097F97020614B83F824215F4B93F96F
:10280800233187F85F30002387F86F3097F85F30FF
:10281800042B20D801A252F823F000BF3928000861
:1028280041280008492800085128000859280008AC
:10283800002387F86F300EE0032387F86F300AE033
:10284800032387F86F3006E0002387F86F3002E033
:10285800002387F86F3097F96F20484B83F82321BE
:10286800464B93F9223187F85E30002387F86E30A3
:1028780097F85E30042B20D801A252F823F000BF4D
:102888009D280008A5280008AD280008B5280008DC
:10289800BD280008002387F86E300EE0032387F870
:1028A8006E300AE0032387F86E3006E0002387F8CD
:1028B8006E3002E0002387F86E3097F96E202F4BB8
:1028C80083F822212D4B93F9213187F85D300023BD
:1028D80087F86D3097F85D30042B20D801A252F8A4
:1028E80023F000BF01290008092900081129000860
:1028F8001929000821290008002387F86D300EE007
:10290800032387F86D300AE0032387F86D3006E06B
:10291800002387F86D3002E0002387F86D3097F9BF
:102928006D20164B83F82121144B93F9203187F839
:102938005C30002387F86C3097F85C30042B22D881
:1029480001A252F823F000BF652900086D2900088C
:10295800752900087D29000889290008002387F8BF
:102968006C3010E0032387F86C300CE0032387F801
:102978006C3008E0002387F86C3004E0B0020020D7
:10298800002387F86C3097F96C20B24B83F820212C
:10299800B04B93F81E21B04B83F86220AD4B93F8EF
:1029A8001F21AD4B83F86320AA4BB3F81C3141F6C5
:1029B800FE72934207D8A74BB3F81C3101339AB281
:1029C800A44BA3F81C21A34B93F82831002B19D151
:1029D800A04B012283F828219E4B0022A3F81C213A
:1029E8009C4B0322C3F818219A494FF000029B4BD5
:1029F800C1E9342398494FF000024FF00003C1E9C0
:102A0800042302E2934BD3F81831013B0D2B00F25B
:102A1800CB8101A252F823F0592A00089D2A000808
:102A2800EF2A00083F2B00087B2B0008B52B000875
:102A3800E92B0008212C0008692C0008952C0008B7
:102A4800CF2C0008092D0008412D0008792D000819
:102A580081494FF00002814BC1E90E237E494FF0B6
:102A680000027E4BC1E910237A4BB3F81C31B3F551
:102A78007A7FC0F0B181774B0022A3F81C21754BF7
:102A88000822C3F8182174494FF00002734BC1E9BA
:102A98000A23A1E170494FF00002704BC1E90423F9
:102AA8006D4BD3E904014FF000026C4BFDF78CFF2E
:102AB8000346002B00D191E1664BB3F81C3141F27B
:102AC8008732934240F28A81624B0022A3F81C218C
:102AD800604B0422C3F818215F494FF000025F4B96
:102AE800C1E908237AE15C494FF000024FF0000386
:102AF800C1E90423574BD3E934014FF00002574B87
:102B0800FDF762FF0346002B00D169E1514BB3F892
:102B18001C31272B40F264814E4B0022A3F81C2164
:102B28004C4B0222C3F818214B494FF000024B4B83
:102B3800C1E9042354E148494FF00002474BC1E979
:102B48000823444BB3F81C3141F28732934240F2D8
:102B58004981404B0022A3F81C213E4B0522C3F8B3
:102B680018213D494FF000024FF00003C1E9082346
:102B780038E139494FF000024FF00003C1E908235A
:102B8800344BB3F81C31B3F57A7FC0F02D81314B4B
:102B98000022A3F81C212F4B0622C3F818212E4926
:102BA8004FF000022D4BC1E906231DE12A494FF0E1
:102BB80000022A4BC1E90623264BB3F81C3140F624
:102BC800B732934240F21281224B0722C3F81821F0
:102BD80021494FF000024FF00003C1E9062305E147
:102BE8001D494FF000024FF00003C1E90623194BBD
:102BF8000022A3F81C21174B0122C3F818211649FB
:102C08004FF00002154BC1E90E2313494FF00002A3
:102C1800124BC1E91023F8E00F494FF000020F4BA7
:102C2800C1E90A230B4BB3F81C31B3F5FA6FC0F0B6
:102C3800DF80084B0022A3F81C21064B0A22C3F8A8
:102C4800182105494FF000024FF00003C1E90A239B
:102C5800CEE000BFB0020020400200200000F03F9C
:102C680093494FF000024FF00003C1E91423914B40
:102C78000022A3F81C218F4B0822C3F818218C4985
:102C88004FF000028C4BC1E90A23BEE088494FF09F
:102C980000024FF00003C1E90A23864BB3F81C3148
:102CA800B3F5FA6FC0F0A680824B0022A3F81C216E
:102CB800804B0B22C3F818217D494FF000027E4B50
:102CC800C1E90C2396E07A494FF000027A4BC1E93A
:102CD8000C23784BB3F81C31B3F5FA6FC0F08C8035
:102CE800744B0022A3F81C21724B0C22C3F8182144
:102CF8006F494FF000024FF00003C1E90C237BE05D
:102D08006B494FF000024FF00003C1E90C23694BF7
:102D1800B3F81C31B3F5FA6F70D3664B0022A3F8F1
:102D28001C21644B0D22C3F8182161494FF00002A1
:102D3800614BC1E9122361E05D494FF000025E4B2F
:102D4800C1E912235B4BB3F81C31B3F5FA6F57D3C3
:102D5800584B0022A3F81C21564B0E22C3F8182109
:102D680053494FF000024FF00003C1E9122347E036
:102D78004F494FF000024FF00003C1E912234D4BB9
:102D8800B3F81C31B3F5FA6F3CD34A4B0022A3F8D1
:102D98001C21484B0F22C3F8182145494FF0000267
:102DA800454BC1E914232DE041494FF00002424B45
:102DB800C1E914233F4BB3F81C31B3F5FA6F23D3A1
:102DC8003C4B0922C3F8182139494FF000024FF053
:102DD8000003C1E9142317E000BF16E000BF14E0A8
:102DE80000BF12E000BF10E000BF0EE000BF0CE023
:102DF80000BF0AE000BF08E000BF06E000BF04E033
:102E080000BF02E000BF00E000BF294BD3E90E017C
:102E18004FF000024FF00003FDF7FEFD0346002BC4
:102E280056D0264B93F83D30002B1ED1214B93F8FA
:102E3800B930002B03D01F4B002283F8B9201D4B5B
:102E4800D3F8BC30BA1D042118460CF028FBFB88C7
:102E58001846FDF7D7FA14A3D3E90023FDF74CFB76
:102E680002460B461249C1E90223124B93F9273156
:102E780087F85B3097F85B3087F86B3097F85B30F2
:102E8800042B20D801A252F823F000BFA92E000875
:102E9800CF2E0008CF2E0008C92E0008CF2E00081C
:102EA800022387F86B300EE0199001199001993FC1
:102EB80040020020B00200200000F03F8005002002
:102EC800012387F86B3097F96B20AF4B83F82721E4
:102ED800AE4BD3E910014FF000024FF00003FDF7AD
:102EE8009BFD0346002B49D0A94B93F83D30002B9E
:102EF8001ED1A54B93F8A930002B03D0A24B00227A
:102F080083F8A920A04BD3F8AC30BA1D0421184689
:102F18000CF0C5FAFB881846FDF774FA98A3D3E9B4
:102F28000023FDF7E9FA02460B469849C1E9002358
:102F3800954B93F9263187F85A3097F85A3087F825
:102F48006A3097F85A30042B13D801A252F823F0AC
:102F58006D2F00087B2F00087B2F0008752F0008B5
:102F68007B2F0008022387F86A3002E0012387F8E4
:102F78006A3097F96A20844B83F82621854B7B6554
:102F880000233B65814BD3E904014FF000024FF069
:102F98000003FDF719FD0346002B03D14FF48053BE
:102FA8007B6701E000237B677A6F3B6D02FA03F3CE
:102FB8007B674FF480523B6D02FA03F3FB64796F31
:102FC800786DFEF7E1FE7B6FDA43FB6C1340194620
:102FD800786DFEF7E7FE6D4BD3E904014FF0000270
:102FE8004FF00003FDF7F0FC0346002B0DD1674BB3
:102FF800D3E906014FF000024FF00003FDF7E4FCAF
:103008000346002B01D1012300E00023DAB25F4B15
:1030180083F864205D4B93F86430002B00F09180B6
:10302800594B93F82E31002B09D15B48FEF7F2FE7D
:103038005A48FEF721FF544B012283F82E21524BA8
:10304800586B03234FF470620221FEF74BF90346D5
:10305800FB80FB88002B10D14B4B586B07F1080104
:10306800012301930123009301231022FEF7D4FAD0
:103078004FF480414A48FEF787FEBB1D464A194671
:103088000020FEF7D5FE3B1D444A19460320FEF7F3
:1030980001FFFA88BB8813439AB2424BDB8813437B
:1030A8009AB23A4BA3F85E20384BB3F85E20374B00
:1030B800A3F86020344BD3F8840003234FF47062E4
:1030C8000221FEF70FF90346FB80FB88002B11D184
:1030D8004FF480413248FEF765FE2B4BD3F884004D
:1030E8004FF47A73019301230093012301222E499F
:1030F800FEF7F3F9244B93F9253187F84B3097F80D
:103108004B3087F8693097F84B30042B13D801A25D
:1031180052F823F0313100083F3100083F310008F0
:10312800393100083F310008022387F8693002E08E
:10313800012387F8693097F96920134B83F8252113
:1031480003E0114B002283F82E21104BD3E9040130
:103158004FF000024FF00003FDF736FC0346002B4A
:1031680024D10A4BD3E908014FF000024FF00003C5
:10317800FDF72AFC0346002B18D1012317E000BFF6
:10318800199001199001993FB002002040020020D7
:10319800800500200004024078050020700500200A
:1031A8000008024068270108A00200200023DAB2C4
:1031B800B04B83F86520AF4B93F86530002B00F0D7
:1031C8008880AD4B93F82D31002B09D1AB48FEF721
:1031D80021FEAB48FEF750FEA74B012283F82D21B4
:1031E800BB1DA64A19460020FEF722FE3B1DA44A35
:1031F80019460220FEF74EFEFA88BB8813439AB29E
:10320800A04B9B8813439AB29A4BA3F85C209A4B25
:10321800D86D03234FF470620221FEF763F803466A
:10322800FB80FB88002B0FD14FF480419648FEF7B6
:10323800B9FD914BD86D0A23019301230093012313
:1032480001229249FEF749F98B4BD86803234FF4C2
:1032580070620221FEF746F80346FB80FB88002BCC
:103268000FD1854BD868B91D012301930123009321
:1032780001230122FEF7D0F94FF480418248FEF77E
:1032880083FD7D4B93F9243187F84A3097F84A300B
:1032980087F8683097F84A30042B14D801A252F8FE
:1032A80023F000BFC1320008CF320008CF32000837
:1032B800C9320008CF320008022387F8683002E0DC
:1032C800012387F8683097F968206B4B83F824212D
:1032D80003E0694B002283F82D21664BD3E90A01EC
:1032E8004FF000024FF00003FDF796FB0346002B5A
:1032F80057D0614B93F82C31002B09D16448FEF765
:1033080089FD6448FEF7B8FD5B4B012283F82C2148
:103318006148FEF749FEBB1D5D4A19460120FEF7CC
:1033280087FD3B1D5B4A19460220FEF7B3FDFA886C
:10333800BB8813439AB2534B5B8813439AB24D4BE5
:10334800A3F85A204B4BB3F85A3054491846FEF7A5
:10335800E7FE494B93F9233187F8493097F849300C
:1033680087F8673097F84930042B14D801A252F82F
:1033780023F000BF913300089F3300089F330008F3
:10338800993300089F330008022387F8673002E06A
:10339800012387F8673097F96720374B83F8232193
:1033A80003E0354B002283F82C21324BD3E912017C
:1033B8004FF000024FF00003FDF72EFB0346002BF1
:1033C80076D02D4B93F82A31002B09D13448FEF7DB
:1033D80021FD3448FEF750FD274B012283F82A21AE
:1033E8003148FEF7E1FDBB1D2D4A19460120FEF7C5
:1033F8001FFD3B1D2B4A19460320FEF74BFDFA889B
:10340800BB8813439AB21F4B1B8813439AB2194BBC
:10341800A3F85820174BB3F8583024491846FEF73C
:103428007FFE154B93F9213187F8483097F84830DB
:1034380087F8663097F84830042B14D801A252F860
:1034480023F000BF613400086F3400086F340008AF
:10345800693400086F340008022387F8663002E0F8
:10346800012387F8663097F96620034B83F82121FA
:1034780022E000BF40020020B002002068050020C2
:103488006005002068270108000802409C0200200F
:10349800580500205005002024050020F8040020CD
:1034A80098040020900400206404002038040020C0
:1034B8008D4B002283F82A218C4BD3E90C014FF065
:1034C80000024FF00003FDF7A7FA0346002B34D0A3
:1034D800854B012283F82B2185498648FEF7E2FEB9
:1034E80085494FF41040FEF71BFE7F4B93F92231BC
:1034F80087F8473097F8473087F8653097F84730AE
:10350800042B14D801A252F823F000BF2935000873
:1035180037350008373500083135000837350008D9
:10352800022387F8653002E0012387F8653097F9B0
:1035380065206D4B83F822210CE06B4B93F82B31FF
:10354800002B07D0694B0022A3F86A20664B0022A3
:1035580083F82B21654BD3E914014FF000024FF09B
:103568000003FDF759FA0346002B34D05E4B0122C5
:1035780083F8292161496248FEF794FE61494FF4B6
:103588001840FEF7CDFD584B93F9203187F84630A7
:1035980097F8463087F8643097F84630042B14D8EB
:1035A80001A252F823F000BFC5350008D335000842
:1035B800D3350008CD350008D3350008022387F835
:1035C800643002E0012387F8643097F96420464BA1
:1035D80083F820210CE0444B93F82931002B07D0C5
:1035E800424B0022A3F868203F4B002283F8292190
:1035F8003E4BB3F8683041F6040293420CBF0123F6
:103608000023DBB21A46394B83F86620374BB3F8F0
:103618006A3041F2505293420CBF01230023DBB2BF
:103628001A46324B83F86720304B93F867202E4BAD
:1036380083F81E212D4B93F866202B4B83F81F210E
:10364800002387F84530304BD3E90823C7E90E2318
:1036580097ED0E0B0020FEF7CFFA034687F84530AA
:10366800294B93F83D30002B18D1002387F83730C9
:10367800254B9B6B1846FCF7C5FE19A3D3E900231D
:10368800FCF73AFF02460B46C7E90A2397ED0A0BF7
:103698000120FEF7B1FA034687F837301A4B9A6AC9
:1036A80001329A629B6A1846FCF7ACFE164BD3E9C6
:1036B8000C23154CFCF720FF02460B46C4E90823EF
:1036C800114B93F83D30002B03D10F4B9A6B01320D
:1036D8009A63FEF777FB00BF7C37BD4690BD00BFFD
:1036E8009A9999999999B93FB0020020400200200F
:1036F800CC040020AA020020A00400200C04002012
:10370800A8020020E003002080050020000000003F
:1037180080B500AF9C494FF000029C4BC1E91023D3
:10372800994997A3D3E90023C1E90C23964B984AFA
:103738009A60954B974ADA60934B974A1A61924B75
:10374800964A5A61904B964A5A60954B954A1A6028
:10375800944B954A1A60934B934A5A60914B934AFB
:103768009A60904B914ADA608E4B914A1A618D4B60
:103778008F4A5A618B4B8C4A9A618A4B8D4ADA611F
:10378800884B8C4A1A62874B8A4A5A62854B894A07
:103798009A62844B874ADA62824B864A1A63814B63
:1037A800844A5A637F4B844A9A637E4B824ADA631F
:1037B8007C4B814A1A647B4B7F4A5A64794B7E4A18
:1037C8009A64784B7C4ADA64764B7B4A1A65754B67
:1037D8007A4A5A65734B794A9A65724B774ADA6521
:1037E800704B764A1A666F4B744A5A666D4B734A29
:1037F8009A666C4B714ADA666A4B714A1A67694B6A
:103808006F4A5A67674B6E4A9A67664B6D4ADA6722
:10381800644B6C4AC3F88020624B6A4AC3F8842020
:10382800604B684AC3F888205E4B664AC3F88C2010
:103838005C4B644AC3F890205A4B624AC3F8942000
:10384800584B614AC3F89820564B5F4AC3F89C20EE
:10385800544B5D4AC3F8A0204B4A4B4B5B68183267
:103868009A60494A484B5B6808325A60464A464B58
:103878005B682032DA60554B0022C3F8B420534B02
:10388800002283F8B0205248FEF758FD4F4B002223
:10389800C3F8A4204D4B002283F8A0204D48FEF722
:1038A8008FFD4D48FEF7A8FA4C48FEF7D7FA474B6C
:1038B8000022DA62454B002283F828204848FEF7A8
:1038C800C1FD424B002283F87820404B002283F848
:1038D80080203E4B0122DA674248FEF711FE3B4B3F
:1038E800012283F880204048FEF786FA3F48FEF719
:1038F800B5FA364B002283F85020344B002283F867
:103908005820324B01225A653948FEF7F9FD2F4BF2
:10391800012283F858202D4B00225A602B4B00229D
:103928001A702A48FEF740FE3248FEF765FA324818
:10393800FEF794FA3148FEF721FB3148FEF7D4FB35
:103948003048FEF759FA3048FEF788FA2F48FEF754
:1039580015FB2F48FEF7C8FB2E48FEF78DFC2E48B6
:10396800FEF7C2FB2D48FEF787FC2D48FEF7BCFB8F
:10397800164B002283F8C02054E000BFAFF300804C
:10398800FCA9F1D24D62503F80050020000059404B
:1039980016F8E5F5A421635FE74C68A5F4F7B74886
:1039A800D0050020E405002064270108D703002083
:1039B800D6030020D5030020D4030020D303002021
:1039C800D2030020D1030020D0030020B002002041
:1039D80060030020500300207805002070050020B7
:1039E800D802002028030020680500206005002078
:1039F8000003002058050020500500202405002061
:103A0800F80400209804002090040020640400209A
:103A180038040020CC040020A00400200C0400205E
:103A2800E0030020044B0122C3F8C420024B01220A
:103A380083F8C82000BF80BDB002002080B584B0E4
:103A480002AF684B93F8B030002B15D1654B0122BB
:103A580083F8B020634BD3F8B430012B0CD1614B01
:103A680093F8B830002B07D05E4BD3F8BC30012256
:103A7800012118460BF098FD5A4B93F8A030002B03
:103A880015D1584B012283F8A020564BD3F8A43007
:103A9800012B0CD1534B93F8A830002B07D0514B76
:103AA800D3F8AC300122012118460BF07DFD4D4BB7
:103AB80093F8C030002B03D14A4B012283F8C02071
:103AC800484B93F82830002B18D1464B012283F835
:103AD8002820444BDB6A012B10D1424B93F830303D
:103AE800002B0BD04FF0FF337B603E4B586B0E23FF
:103AF80000937B687A687968FDF706FF394B93F87D
:103B08007830002B19D1374B012283F87820354BB8
:103B1800DB6F012B11D1334B93F88030002B0CD085
:103B28004FF0FF337B602F4BD3F884000E230093B4
:103B38007B687A687968FDF7E7FE2A4B93F850307E
:103B4800002B18D1274B012283F85020254B5B6DA1
:103B5800012B10D1234B93F85830002B0BD04FF08A
:103B6800FF337B601F4BD86D0E2300937B687A6808
:103B78007968FDF7C9FE1B4B1B78002B16D1194B32
:103B880001221A70174B5B68012B0FD1154B1B7A5A
:103B9800002B0BD04FF0FF337B60124BD8680E23FD
:103BA80000937B687A687968FDF7AEFE0E48FEF7E9
:103BB80023FA0E48FEF7DEFA0D48FEF71DFA0D4807
:103BC800FEF7D8FA0C48FEF795FB0C48FEF7D2FA38
:103BD8000B48FEF78FFB0B48FEF7CCFA00BF0837FF
:103BE800BD4680BDB002002024050020F804002056
:103BF8006404002038040020CC040020A004002025
:103C08000C040020E003002080B500AF0F4B1B78A8
:103C18005A1CD1B20D4A1170002B09D00C4B01224D
:103C28001A600A4B1B78013BDAB2084B1A700BE09A
:103C380062B600BFFEF718FD72B600BF034B1B78D3
:103C4800013BDAB2014B1A7080BD00BF8C06002020
:103C58008806002080B586B000AF786039605C4B7C
:103C68007B615C4B3B610023FB735B4B00221A704A
:103C78005A4B00221A700AF06FFA09F06DF907F032
:103C8800F5FB00F0A7FD00F015FE00F0C7FB01F002
:103C98002DFA00F039FC00F09FFF00F097FC00F0CF
:103CA80027FA4F4B1B6800221A6000210020FDF7FD
:103CB80099FE0346FB7397F90F30002B02D097F952
:103CC8000F3080E0FFF724FD72B600BF62B600BF78
:103CD800434B1B685A68424B1B68403319461046D1
:103CE800FDF790FE0346FB7397F90F30002B0DD1BB
:103CF8004FF0FF30FDF71AFFFEF72EF80346002BB2
:103D080004D0374B1B68012283F8482072B600BFE5
:103D180097ED050A07F068FCFEF72AF80346002B22
:103D28000CD1FEF719F80346002B07D12C4B1B6862
:103D380093F84830002B01D1012300E00023DAB2C8
:103D4800264B1A7062B600BF62B600BF2FE0FDF7BF
:103D5800D3FF0346FB73FEF70BF80346002B0AD18B
:103D6800FDF7FAFF0346002B05D11D4B1B6893F89E
:103D78004830002B01D0012300E00023DAB2164BB3
:103D88001A70154B1B78DBB2002B0CBF01230023E4
:103D9800DBB21A46114B1A700F4B1B78DBB2002BA3
:103DA80005D0104B1B680F4A23F0010313600B4B1F
:103DB8001B78DBB2002BCAD1FFF740FEFDF7ACFF42
:103DC80072B600BF002318461837BD4680BD00BF35
:103DD8006F12833A000010438D0600208E060020E3
:103DE8006027010810E000E080B485B000AFF860FB
:103DF800B9607A600D4ABB6813441B781A46FB68A1
:103E080013441B6823F0C0020849BB680B441B78A5
:103E18001946FB680B4419467B6813430B6000BFC7
:103E28001437BD465DF8047B704700BF7027010852
:103E380080B485B000AFF860B9607A600D4ABB689D
:103E480013441B781A46FB6813441B6823F49072CA
:103E58000849BB680B441B781946FB680B44194694
:103E68007B6813430B6000BF1437BD465DF8047BC5
:103E7800704700BF7027010880B485B000AFF860B4
:103E8800B9607A600D4ABB6813441B781A46FB6810
:103E980013441B6823F400720849BB680B441B7861
:103EA8001946FB680B4419467B6813430B6000BF37
:103EB8001437BD465DF8047B704700BF70270108C2
:103EC80080B485B000AFF860B9607A600D4ABB680D
:103ED80013441B781A46FB6813441B6823F480625A
:103EE8000849BB680B441B781946FB680B44194604
:103EF8007B6813430B6000BF1437BD465DF8047B35
:103F0800704700BF7027010880B485B000AFF86023
:103F1800B9607A600D4ABB6813441B781A46FB687F
:103F280013441B6823F4C0520849BB680B441B7830
:103F38001946FB680B4419467B6813430B6000BFA6
:103F48001437BD465DF8047B704700BF7027010831
:103F580080B485B000AFF860B9607A600D4ABB687C
:103F680013441B781A46FB6813441B6823F4C042A9
:103F78000849BB680B441B781946FB680B44194673
:103F88007B6813430B6000BF1437BD465DF8047BA4
:103F9800704700BF7027010880B485B000AFF86093
:103FA800B9607A600D4ABB6813441B781A46FB68EF
:103FB80013441B6823F440320849BB680B441B7840
:103FC8001946FB680B4419467B6813430B6000BF16
:103FD8001437BD465DF8047B704700BF70270108A1
:103FE80080B485B000AFF860B9607A600D4ABB68EC
:103FF80013441B781A46FB6813441B6823F060625D
:104008000849BB680B441B781946FB680B441946E2
:104018007B6813430B6000BF1437BD465DF8047B13
:10402800704700BF7027010880B483B000AF786084
:1040380039600C4A3B6813441B781A467B68134462
:104048005B6908493A680A44127811467A680A4452
:1040580023F00403536100BF0C37BD465DF8047BB1
:10406800704700BF7027010880B485B000AF786042
:10407800084B1A6B07497B6813430B63054B1A6B94
:104088007B681340FB60FB6800BF1437BD465DF8D2
:10409800047B70470038024080B485B000AF786078
:1040A800084B1A6C07497B6813430B64054B1A6C61
:1040B8007B681340FB60FB6800BF1437BD465DF8A2
:1040C800047B70470038024080B483B000AF78604A
:1040D80039607B685B6823F010023B681A437B6891
:1040E8005A6000BF0C37BD465DF8047B704700007E
:1040F80080B590B000AF07F11803282200211846B8
:104108000BF0ECFD3B4600221A605A609A60DA60B8
:104118001A615A614FF40040FFF7BEFF0420FFF711
:10412800A3FF4FF4E0533B6002237B600323BB6093
:104138000023FB6000233B6106237B613B46194655
:10414800424809F02EFC002200214148FFF748FFB1
:10415800002200213E48FFF747FE002200213C488C
:10416800FFF71AFF002200213948FFF761FE0022FD
:1041780000213748FFF780FE4FF480620021344861
:10418800FFF79EFE4FF4006200213148FFF7BCFEA6
:104198004FF4005200212E48FFF7DAFE00212C4888
:1041A800FFF742FF002207212948FFF719FF4022A5
:1041B80007212748FFF718FE4FF40032072124484B
:1041C800FFF7EAFE002207212148FFF731FE00220F
:1041D80007211F48FFF750FE4FF4806207211C4853
:1041E800FFF76EFE002207211948FFF78DFE002217
:1041F80007211748FFF7ACFE07211548FFF714FF02
:104208000023BB614FF48273FB614FF400633B6290
:1042180000237B620123BB624FF40073FB6210230F
:104228003B6300237B630023BB630A23FB6307F123
:1042380018031946074809F0F4FF00210548FFF75D
:1042480043FF00BF4037BD4680BD00BF00080240A5
:1042580000600240003C004080B489B000AFF860C4
:10426800B9607A60FB682C331946BB6803F4407365
:104278004FF440727A617A6992FAA2F23A613A6925
:10428800BA61BA69002A01D1202203E0BA69B2FAF8
:1042980082F2D2B2D3409B000B44FB61FB691A68DF
:1042A800BB6803F01F031F2101FA03F3DB431A4025
:1042B8007B6803F01F01BB6803F01F0301FA03F3D7
:1042C8001A43FB691A6000BF2437BD465DF8047BBA
:1042D800704780B483B000AF786039607B689B68B2
:1042E80023F480623B681A437B689A6000BF0C37EE
:1042F800BD465DF8047B704780B48FB000AFF860AE
:10430800B9607A60FB680C331946BB6803F0007328
:104318004FF000727A617A6992FAA2F23A613A69C8
:10432800BA61BA69002A01D1202203E0BA69B2FA57
:1043380082F2D2B2D3409B000B447B637B6B1A683A
:10434800BB6803F0F8734FF0F8713962396A91FA73
:10435800A1F1F961F9697962796A002901D120210D
:1043680003E0796AB1FA81F1C9B2CB40072101FAB9
:1043780003F3DB431A40BB6803F0F8734FF0F8719E
:10438800F962F96A91FAA1F1B962B96A3963396BCC
:10439800002901D1202103E0396BB1FA81F1C9B2BA
:1043A800CB40796801FA03F31A437B6B1A6000BFAC
:1043B8003C37BD465DF8047B7047000080B485B08B
:1043C80000AF7860084B1A6B07497B6813430B638F
:1043D800054B1A6B7B681340FB60FB6800BF143702
:1043E800BD465DF8047B70470038024080B485B054
:1043F80000AF7860084B5A6C07497B6813434B64DD
:10440800054B5A6C7B681340FB60FB6800BF143790
:10441800BD465DF8047B70470038024080B592B015
:1044280000AF07F13C0300221A605A609A6007F156
:10443800280300221A605A609A60DA601A6107F14C
:10444800180300221A605A609A60DA603B4600221C
:104458001A605A609A60DA601A615A614FF4807083
:10446800FFF7C4FF0120FFF7A9FF40233B600323A8
:104478007B6000233B613B4619461F4809F091FACF
:104488000023FB6300233B6400237B6407F13C03A8
:1044980019461A4809F074FB0023BB620023FB622B
:1044A80000233B6300237B630023BB6307F12803DE
:1044B8001946124809F090FB4FF480610F48FFF746
:1044C80008FF4FF48033BB610023FB6107F1180339
:1044D80019460B4809F00CFB0A4A4FF400710748CB
:1044E800FFF7BAFE002207490448FFF705FF00BF9F
:1044F8004837BD4680BD00BF000002400020014093
:10450800002301400600200380B58EB000AF07F1FC
:104518002C0300221A605A609A6007F118030022DF
:104528001A605A609A60DA601A613B4600221A6083
:104538005A609A60DA601A615A614FF40070FFF7A6
:1045480055FF0420FFF73AFF04233B6003237B60F9
:1045580000233B613B461946194809F022FA00231B
:10456800FB6200233B6300237B6307F12C0319469E
:10457800144809F005FB0023BB610023FB610023FD
:104588003B6200237B620023BB6207F118031946D4
:104598000C4809F021FB4FF480610A48FFF799FEA7
:1045A800094A4FF400710748FFF756FE00220649F2
:1045B8000448FFF7A1FE00BF3837BD4680BD00BFE5
:1045C80000080240002101400C00600080B58EB058
:1045D80000AF07F12C0300221A605A609A6007F1B5
:1045E800180300221A605A609A60DA601A613B4622
:1045F80000221A605A609A60DA601A615A614FF4B0
:104608008060FFF7F3FE0420FFF7D8FE08233B6025
:1046180003237B6000233B613B461946194809F098
:10462800C0F90023FB6200233B6300237B6307F18F
:104638002C031946144809F0A3FA0023BB61002390
:10464800FB6100233B6200237B620023BB6207F10E
:10465800180319460C4809F0BFFA4FF480610A485C
:10466800FFF737FE094A4FF400710748FFF7F4FDDA
:10467800002206490448FFF73FFE00BF3837BD4611
:1046880080BD00BF00080240002201400D009000DC
:1046980080B400AF044BDB681B0A03F0070318461D
:1046A800BD465DF8047B704700ED00E080B483B040
:1046B80000AF0346FB7197F90730002B0BDBFB7942
:1046C80003F01F02074997F907305B09012000FA38
:1046D80002F241F8232000BF0C37BD465DF8047B89
:1046E800704700BF00E100E080B483B000AF03462C
:1046F8003960FB7197F90730002B0ADB3B68DAB2A7
:104708000C4997F907301201D2B20B4483F8002301
:104718000AE03B68DAB20849FB7903F00F03043B6F
:104728001201D2B20B441A7600BF0C37BD465DF8B1
:10473800047B704700E100E000ED00E080B489B040
:1047480000AFF860B9607A60FB6803F00703FB61AB
:10475800FB69C3F10703042B28BF0423BB61FB6972
:104768000433062B02D9FB69033B00E000237B617D
:104778004FF0FF32BB6902FA03F3DA43BB681A4011
:104788007B699A404FF0FF317B6901FA03F3D94303
:104798007B680B40134318462437BD465DF8047BFD
:1047A8007047000080B485B000AF7860084B1A6B82
:1047B80007497B6813430B63054B1A6B7B681340EF
:1047C800FB60FB6800BF1437BD465DF8047B70478B
:1047D8000038024080B500AF4FF40010FFF7E2FF49
:1047E800FFF756FF0346002200211846FFF7A6FFF1
:1047F800034619460B20FFF777FF0B20FFF756FFFC
:10480800FFF746FF0346002200211846FFF796FFF0
:10481800034619461020FFF767FF1020FFF746FFF1
:10482800FFF736FF0346002200211846FFF786FFF0
:10483800034619461120FFF757FF1120FFF736FFEF
:10484800FFF726FF0346002200211846FFF776FFF0
:10485800034619462F20FFF747FF2F20FFF726FFB3
:1048680000BF80BD80B485B000AF7860084B1A6B7C
:1048780007497B6813430B63054B1A6B7B6813402E
:10488800FB60FB6800BF1437BD465DF8047B7047CA
:104898000038024080B483B000AF786039603B686C
:1048A8001A047B689A6100BF0C37BD465DF8047B2B
:1048B8007047000080B586B000AF3B4600221A6002
:1048C8005A609A60DA601A615A610420FFF7CAFFD9
:1048D8008020FFF7C7FF0120FFF7C4FF0220FFF782
:1048E800C1FF44F210011648FFF7D4FF4FF480517E
:1048F8001448FFF7CFFF44F210033B6001237B60AD
:104908000023BB600023FB6000233B613B46194644
:104918000B4809F046F84FF480533B6001237B6055
:104928000023BB600023FB6000233B613B46194624
:10493800044809F036F800BF1837BD4680BD00BFEF
:10494800000802400004024080B485B000AF7860DF
:10495800084B1A6B07497B6813430B63054B1A6BAB
:104968007B681340FB60FB6800BF1437BD465DF8E9
:10497800047B70470038024080B485B000AF78608F
:10498800084B5A6C07497B6813434B64054B5A6CB8
:104998007B681340FB60FB6800BF1437BD465DF8B9
:1049A800047B70470038024080B483B000AF786061
:1049B8007B681B6823F080027B681A6000BF0C3795
:1049C800BD465DF8047B704780B485B000AF786061
:1049D80039603B68012B1CD03B68042B17D03B681F
:1049E800102B12D03B68402B0DD03B68B3F5807F6D
:1049F80007D03B68B3F5806F01D105230AE0062391
:104A080008E0042306E0032304E0022302E0012374
:104A180000E00023FB737B6818331946FB7B0B4AC5
:104A2800D35C0B44BB60BB681A68FB7B0849CB5C52
:104A3800194604238B40DB431A40BB681A6000BF49
:104A48001437BD465DF8047B704700BF782701081E
:104A58008027010880B485B000AF786039603B6872
:104A6800012B1CD03B68042B17D03B68102B12D0AD
:104A78003B68402B0DD03B68B3F5807F07D03B687F
:104A8800B3F5806F01D105230AE0062308E004236B
:104A980006E0032304E0022302E0012300E00023F0
:104AA800FB737B6818331946FB7B0A4AD35C0B44BB
:104AB800BB60BB681A68FB7B0749CB5C19460823B7
:104AC8008B401A43BB681A6000BF1437BD465DF8B7
:104AD800047B7047782701088027010880B483B0D9
:104AE80000AF786039607B689B6823F4804323F0CB
:104AF80007033A681A437B689A6000BF0C37BD46C3
:104B08005DF8047B704780B483B000AF786039608B
:104B18007B685B6823F070023B681A437B685A60C5
:104B280000BF0C37BD465DF8047B704780B483B086
:104B380000AF786039607B689B6823F007023B68A8
:104B48001A437B689A6000BF0C37BD465DF8047B4A
:104B5800704780B483B000AF786039607B689B6829
:104B680023F070023B681A437B689A6000BF0C37D9
:104B7800BD465DF8047B704780B483B000AF7860B1
:104B88007B689B6823F080027B689A6000BF0C37C3
:104B9800BD465DF8047B704780B483B000AF786091
:104BA8007B68DB6823F040027B68DA6000BF0C3763
:104BB800BD465DF8047B704780B483B000AF786071
:104BC8007B68DB6823F480427B68DA6000BF0C37BF
:104BD800BD465DF8047B704780B59AB000AF07F119
:104BE800540300221A605A609A60DA601A6107F169
:104BF80034032022002118460BF070F807F11C033B
:104C080000221A605A609A60DA601A615A613B1D84
:104C180000221A605A609A60DA601A615A610220AA
:104C2800FFF7AAFE0023A7F854300023BB654FF610
:104C3800FF73FB6500233B6600237B6607F1540383
:104C480019465B4809F0B2FB5948FFF7ADFE002151
:104C58005748FFF743FF01215548FFF7FBFE602344
:104C68007B630023BB630023FB6300233B640023B7
:104C78007B640223BB640023FB6400233B6507F1CC
:104C880034031A4601214A4809F02AFC0121484800
:104C9800FFF79AFE10214648FFF7DCFE07F13403C0
:104CA8001A461021424809F01BFC10214048FFF722
:104CB8008BFE4FF480713E48FFF7CCFE07F13403BA
:104CC8001A464FF480713A4809F00AFC4FF4807193
:104CD8003748FFF779FE00213548FFF73AFF0021F2
:104CE8003348FFF723FF3248FFF756FF3048FFF7F6
:104CF80063FF00212E48FFF706FF2D48FFF73CFF12
:104D08000023FB6100233B6200237B62642387F856
:104D1800283000237B854FF40053FB6200233B635C
:104D280007F11C031946224809F01BFC0120FFF774
:104D38000BFE0220FFF708FE0420FFF705FE802384
:104D48007B600223BB600023FB6000233B610023E0
:104D58007B610323BB613B1D1946164808F021FE01
:104D680003237B600223BB600023FB6000233B61BD
:104D780000237B610323BB613B1D19460E4808F0E5
:104D880010FE4FF4E0737B600223BB600023FB60DE
:104D980000233B6100237B610323BB613B1D194654
:104DA800064808F0FEFD00BF6837BD4680BD00BF5D
:104DB80000040140000002400004024000080240D4
:104DC80080B485B000AFF860B9607A600D4ABB68FE
:104DD80013441B781A46FB6813441B6823F0C0026F
:104DE8000849BB680B441B781946FB680B441946F5
:104DF8007B6813430B6000BF1437BD465DF8047B26
:104E0800704700BF8827010880B485B000AFF860FC
:104E1800B9607A600D4ABB6813441B781A46FB6870
:104E280013441B6823F490720849BB680B441B7831
:104E38001946FB680B4419467B6813430B6000BF97
:104E48001437BD465DF8047B704700BF882701080A
:104E580080B485B000AFF860B9607A600D4ABB686D
:104E680013441B781A46FB6813441B6823F400722A
:104E78000849BB680B441B781946FB680B44194664
:104E88007B6813430B6000BF1437BD465DF8047B95
:104E9800704700BF8827010880B485B000AFF8606C
:104EA800B9607A600D4ABB6813441B781A46FB68E0
:104EB80013441B6823F480620849BB680B441B78C1
:104EC8001946FB680B4419467B6813430B6000BF07
:104ED8001437BD465DF8047B704700BF882701087A
:104EE80080B485B000AFF860B9607A600D4ABB68DD
:104EF80013441B781A46FB6813441B6823F4C052FA
:104F08000849BB680B441B781946FB680B441946D3
:104F18007B6813430B6000BF1437BD465DF8047B04
:104F2800704700BF8827010880B485B000AFF860DB
:104F3800B9607A600D4ABB6813441B781A46FB684F
:104F480013441B6823F4C0420849BB680B441B7810
:104F58001946FB680B4419467B6813430B6000BF76
:104F68001437BD465DF8047B704700BF88270108E9
:104F780080B485B000AFF860B9607A600D4ABB684C
:104F880013441B781A46FB6813441B6823F4403209
:104F98000849BB680B441B781946FB680B44194643
:104FA8007B6813430B6000BF1437BD465DF8047B74
:104FB800704700BF8827010880B485B000AFF8604B
:104FC800B9607A600D4ABB6813441B781A46FB68BF
:104FD80013441B6823F060620849BB680B441B78C4
:104FE8001946FB680B4419467B6813430B6000BFE6
:104FF8001437BD465DF8047B704700BF8827010859
:1050080080B483B000AF786039600C4A3B681344C1
:105018001B781A467B6813445B6908493A680A4456
:10502800127811467A680A4423F00403536100BFDA
:105038000C37BD465DF8047B704700BF8827010820
:1050480080B485B000AF7860084B1A6B07497B685D
:1050580013430B63054B1A6B7B681340FB60FB68BB
:1050680000BF1437BD465DF8047B70470038024026
:1050780080B485B000AF7860084B1A6C07497B682C
:1050880013430B64054B1A6C7B681340FB60FB6889
:1050980000BF1437BD465DF8047B704700380240F6
:1050A80080B483B000AF78607B68DB6843F400525B
:1050B8007B68DA6000BF0C37BD465DF8047B70473B
:1050C80080B483B000AF78607B681B6923F490429A
:1050D8007B681A617B685B6923F02A027B685A61E6
:1050E80000BF0C37BD465DF8047B704780B58EB0B5
:1050F80000AF07F11C0300221A605A609A60DA6058
:105108001A615A619A613B1D00221A605A609A60BE
:10511800DA601A615A614FF40030FFF7A9FF0120E5
:10512800FFF78EFF0C237B600223BB600323FB6029
:1051380000233B6100237B610723BB613B1D1946AC
:105148003E4808F02EFC4FF0006205213C48FFF76E
:1051580033FF002205213A48FFF732FE00220521DD
:105168003748FFF705FF002205213548FFF74CFEB9
:10517800002205213248FFF76BFE4FF480620521BB
:105188002F48FFF789FE002205212D48FFF7A8FECA
:10519800002205212A48FFF7C7FE05212848FFF706
:1051A8002FFF4FF0006206212548FFF705FF402238
:1051B80006212348FFF704FE002206212048FFF7B6
:1051C800D7FE002206211E48FFF71EFE00220621F8
:1051D8001B48FFF73DFE4FF4806206211848FFF791
:1051E8005BFE002206211648FFF77AFE0022062100
:1051F8001348FFF799FE06211148FFF701FF4FF406
:10520800E133FB6100233B6200237B620023BB6226
:105218000C23FB6200233B6300237B6307F11C0321
:105228001946084809F0ECFD0648FFF749FF05480C
:10523800FFF736FF00BF3837BD4680BD000002408B
:1052480000600240004400400FB480B400AF00BFCB
:10525800BD465DF8047B04B0704780B485B000AFEC
:10526800F860B9607A60FB68BA681A60FB68043352
:105278007A681A6000BF1437BD465DF8047B704732
:10528800F0B58BB000AF87ED020B0346FB80FB88BF
:10529800002B77D14FF00002414BD7E90201FBF711
:1052A8002BF902460B46C7E906239FED391B97EDFC
:1052B800060B0AF0F9F953EC102B10461946FBF7C8
:1052C800CBFB03467B6100237B6233A3D3E9002336
:1052D800D7E90601FBF7A0FB0346002B0ED02EA34F
:1052E800D3E90023D7E90601FBF730FA02460B465B
:1052F80010461946FBF7B0FB03467B627A6A796968
:105308002848FFF7AAFF284BD3E900014FF0000215
:10531800264BFBF759FB0346002B2ED1224BD3E932
:1053280000014FF000024FF04043FBF74DFB0346EE
:10533800002B22D11C4BD3E90001D7E90223FAF74D
:1053480023FF02460B4614461D464FF00002184B39
:10535800D7E90201FBF7D0F802460B4601210E46B9
:1053680020462946FBF73AFB0346002B01D10023D0
:105378001E46F3B21A460F4B1A700F49D7E902239B
:10538800C1E9002300BF2C37BD46F0BDAFF3008054
:10539800000000000000F0410000E0FFFFFFEF41C7
:1053A80000408F40C0060020000000200000F0BF31
:1053B8000000B03CA8060020C8060020000000003D
:1053C80080B586B000AF87ED020B0346FB80002353
:1053D8007B61FB88184697ED020BFFF751FF17A377
:1053E800D3E90023D7E90201FBF786F802460B460A
:1053F800104619464FF000020F4BFAF7C7FE024657
:105408000B4643EC172B9FED0A1BB0EE470AF0EE54
:10541800670A0AF049F953EC102B10461946FBF7B6
:105428001BFB03467B617B6918461837BD4680BD68
:10543800000000000000F0410000E03F0000000014
:1054480080842E4180B584B000AF0023BB60002368
:105458007B600023FB7323494FF000024FF00003E9
:10546800C1E9002320494FF000024FF00003C1E9D1
:1054780000233A1D07F108031146184605F0B0FF4E
:10548800BB687A681146184604F0CEF80346FB73E9
:1054980097F90F30002B05D01448FFF7D5FE97F980
:1054A8000F301AE03A1D07F108031146184605F0B7
:1054B800AEFFBB687A681146184600F053FF0346F2
:1054C800FB7397F90F30002B05D097F90F30194669
:1054D8000748FFF7B9FE97F90F3018461037BD4651
:1054E80080BD00BFB0060020B80600208C0101086E
:1054F800B401010880B584B000AF0346FB710023F6
:10550800FB730023BB73002005F098FF00237B7317
:1055180004F058FA0346FB7397F90F30002B0DD0AF
:1055280097F90F3013F1020F08D097F90F30194689
:105538003C48FFF789FE0123BB730BE07B7B002B04
:1055480004D197F90F3013F1020F01D0012300E0C5
:1055580000237B73BB7B002B21D100F035FF034672
:10556800FB7397F90F30002B0DD097F90F3013F11B
:10557800020F08D097F90F3019462B48FFF764FE41
:105588000123BB730BE07B7B002B04D197F90F3011
:1055980013F1020F01D0012300E000237B73BB7BD2
:1055A800002B21D104F098F90346FB7397F90F30CB
:1055B800002B0DD097F90F3013F1020F08D097F98F
:1055C8000F3019461948FFF73FFE0123BB730BE064
:1055D8007B7B002B04D197F90F3013F1020F01D018
:1055E800012300E000237B73FB79002B0DD0002002
:1055F80005F024FFBB7B002B02D17B7B002B01D164
:10560800012300E00023BB7301E00123BB73BB7BD4
:10561800002B3FF47BAF97F90F3018461037BD4683
:1056280080BD00BFDC010108140201084402010822
:1056380080B582B000AF0023BB70394B1B78DBB25A
:10564800002B02D0002000F0D9FF00F0ABFF03468A
:10565800FB7000237B600EE00A2005F0EFFE7B68FC
:1056680003F51C5310337B600120FFF743FF00F064
:1056780099FF0346FB707B682A4A934202D2FB7863
:10568800002BE9D100F09AFF0346BB7097F902306E
:10569800002B05D097F9023019462348FFF7D4FDAF
:1056A80004F00AFB0346BB7097F90230002B05D0C3
:1056B80097F9023019461D48FFF7C6FD1C4B00221A
:1056C8001A701C4B00221A701B4B00221A601B4BCD
:1056D80000221A601A4B00221A601A4B00221A6024
:1056E800194B00221A6019494FF000024FF040434D
:1056F800C1E900230A4B00221A700822002114482D
:105708000AF0ECFA13494FF000024FF00003C1E928
:10571800002397F9023018460837BD4680BD00BF00
:10572800A8060020008793037C020108980201085C
:105738008F0600209006002094060020980600207E
:105748009C060020A0060020A406002000000020DF
:10575800C0060020C806002080B586B000AF614BA7
:105768001B687B617B69002B00F0B8805E4B1B785F
:10577800DBB2002B04D15B4B1B68002B00F0AE8022
:105788005A4B1B78DBB2022B40F0A880584B1B7891
:10579800002B40F0A3807B69D3E90023C7E90223EB
:1057A800544B1B78002B00F08A80534B1B78DBB2DC
:1057B800002B04D0504B1B78DBB2022B01D1012304
:1057C80000E00023FB714C4B1B78DBB2012B04D0AB
:1057D800494B1B78DBB2022B01D1012300E00023E7
:1057E800BB71FB79002B33D0444BD3E90023D7E9B5
:1057F8000201FBF707F90346002B0AD0404BD3E917
:1058080000013E4BD3E90023FBF7E8F80346002BE1
:1058180014D13A4BD3E90023D7E90201FBF7FCF88E
:105828000346002B14D0364BD3E90001334BD3E9A0
:105838000023FBF7C9F80346002B09D0314B1B683E
:10584800002B02D1304B01221A70294B01221A7009
:10585800BB79002B33D0294BD3E90023D7E90201C8
:10586800FBF7BCF80346002B0AD0254BD3E900010F
:10587800224BD3E90023FBF7C5F80346002B14D1CC
:105888001E4BD3E90023D7E90201FBF79DF8034635
:10589800002B14D01A4BD3E90001184BD3E900238D
:1058A800FBF7BAF80346002B09D0164B1B68002BF0
:1058B80002D1154B01221A700D4B01221A700C4BA4
:1058C8001B78002B0CBF01230023DBB21A46094BBF
:1058D8001A700B49D7E90223C1E9002300BF183722
:1058E800BD4680BDD4060020D8060020F40600205E
:1058F8000307002000070020F0060020E006002033
:10590800F8060020EC0600200207002080B582B0CF
:1059180000AF0023FB719E4B1B78DBB2002B18D124
:105928009C4B00221A709C4B00221A709B4B1B78D0
:10593800DBB2002B2DD0964B02221A70974B002217
:105948001A70974B1B78DBB2002B22D10123FB7115
:105958001FE0924B00221A708E4B1B78DBB2002B93
:1059680009D0904B00221A70894B00221A70894B7B
:1059780000221A700DE08A4B1B78DBB2002B02D193
:105988000123FB7105E0844B1B78FB71824B0022DD
:105998001A707F4B1B78DBB2042B00F2D78001A270
:1059A80052F823F0C1590008FB5A0008DB590008D7
:1059B800AF5A0008395A0008784B1B78DBB2002B25
:1059C80000F0D880724B02221A70744B00221A70B1
:1059D800D0E0FB79002B00F0CF80734B1B68002BC5
:1059E8000DDD6F4B1B78DBB2012B08D16E4B1B68AA
:1059F8001A466E4B1A60664B03221A70BCE06C4B59
:105A08001B68002B0AD0674B01221A70684B1B6871
:105A1800664A13605E4B04221A70ADE06548FFF7D2
:105A280013FC604B00221A70594B00221A70A3E035
:105A38005E4B1B68002B04D05C4B1B68013B5B4A28
:105A480013605A4B1B68002B40F098805A4B1B7808
:105A5800DBB2012B06D1534B00221A704C4B0022AB
:105A68001A708BE0554B1B68002B0AD04D4B002257
:105A78001A70524B1B684D4A1360454B01221A702D
:105A88007CE0FB79002B07D0494B1B68474A136021
:105A98003F4B04221A7071E0424B00221A703C4BB3
:105AA80002221A706AE0414B1B68002B04D03F4B5E
:105AB8001B68013B3D4A13603C4B1B68002B5FD1C0
:105AC8003B4B1B68002B0AD0364B01221A70384B0F
