:020000040800F2
:100000000000022069CA0108DDA90108E5A901086C
:10001000EDA90108F5A90108FDA9010800000000EB
:1000200000000000000000000000000089A6010898
:1000300005AA01080000000045A6010875A50108F1
:10004000B9CA0108B9CA0108B9CA0108B9CA010880
:10005000B9CA0108B9CA0108B9CA0108B9CA010870
:10006000B9CA0108B9CA0108B9CA010813AA010826
:10007000B9CA0108B9CA0108B9CA0108B9CA010850
:1000800021AA01082FAA0108B9CA0108B9CA0108A2
:10009000B9CA0108B9CA0108B9CA0108B9CA010830
:1000A000B9CA01083DAA0108B9CA0108B9CA0108BC
:1000B000B9CA0108B9CA0108B9CA0108B9CA010810
:1000C000B9CA0108B9CA0108B9CA0108B9CA010800
:1000D000B9CA0108B9CA0108B9CA0108B9CA0108F0
:1000E000B9CA0108B9CA0108B9CA0108B9CA0108E0
:1000F000B9CA0108B9CA0108B9CA010851AA010858
:10010000B9CA0108B9CA0108B9CA0108B9CA0108BF
:10011000B9CA0108B9CA0108B9CA0108B9CA0108AF
:10012000B9CA0108B9CA0108B9CA0108B9CA01089F
:10013000B9CA01080000000000000000B9CA0108A7
:10014000B9CA0108B9CA0108B9CA0108B9CA01087F
:10015000B9CA0108B9CA0108B9CA0108B9CA01086F
:10016000B9CA0108B9CA0108B9CA0108B9CA01085F
:10017000B9CA0108B9CA0108000000000000000067
:08018000B9CA0108B9CA01085F
:1001C00081F0004102E000BF83F0004330B54FEA08
:1001D00041044FEA430594EA050F08BF90EA020F75
:1001E0001FBF54EA000C55EA020C7FEA645C7FEA08
:1001F000655C00F0E2804FEA5454D4EB5555B8BF2B
:100200006D420CDD2C4480EA020281EA030382EA9B
:10021000000083EA010180EA020281EA0303362D2D
:1002200088BF30BD11F0004F4FEA01314FF4801C00
:100230004CEA113102D0404261EB410113F0004F12
:100240004FEA03334CEA133302D0524263EB4303C9
:1002500094EA050F00F0A780A4F10104D5F1200E67
:100260000DDB02FA0EFC22FA05F2801841F10001C2
:1002700003FA0EF2801843FA05F359410EE0A5F196
:1002800020050EF1200E012A03FA0EFC28BF4CF0C7
:10029000020C43FA05F3C01851EBE37101F000457D
:1002A00007D54FF0000EDCF1000C7EEB00006EEB8A
:1002B0000101B1F5801F1BD3B1F5001F0CD3490814
:1002C0005FEA30004FEA3C0C04F101044FEA44526B
:1002D00012F5800F80F09A80BCF1004F08BF5FEAF2
:1002E000500C50F1000041EB045141EA050130BDD2
:1002F0005FEA4C0C404141EB0101013C28BFB1F5E4
:10030000801FE9D291F0000F04BF01460020B1FA2E
:1003100081F308BF2033A3F10B03B3F120020CDA01
:100320000C3208DD02F1140CC2F10C0201FA0CF0DF
:1003300021FA02F10CE002F11402D8BFC2F1200C44
:1003400001FA02F120FA0CFCDCBF41EA0C019040FA
:10035000E41AA2BF01EB0451294330BD6FEA040443
:100360001F3C1CDA0C340EDC04F11404C4F120022E
:1003700020FA04F001FA02F340EA030021FA04F340
:1003800045EA030130BDC4F10C04C4F1200220FA97
:1003900002F001FA04F340EA0300294630BD21FAD5
:1003A00004F0294630BD94F0000F83F4801306BF9B
:1003B00081F480110134013D4EE77FEA645C18BF8F
:1003C0007FEA655C29D094EA050F08BF90EA020F26
:1003D00005D054EA000C04BF1946104630BD91EA1E
:1003E000030F1EBF0021002030BD5FEA545C05D121
:1003F0004000494128BF41F0004130BD14F5800460
:100400003CBF01F5801130BD01F0004545F0FE41D3
:1004100041F470014FF0000030BD7FEA645C1ABF08
:10042000194610467FEA655C1CBF0B46024650EA3F
:10043000013406BF52EA033591EA030F41F400216B
:1004400030BD00BF90F0000F04BF0021704730B5F1
:100450004FF4806404F132044FF000054FF00001C6
:1004600050E700BF90F0000F04BF0021704730B587
:100470004FF4806404F1320410F0004548BF40425C
:100480004FF000013EE700BF42004FEAE2014FEAB1
:1004900031014FEA02701FBF12F07F4393F07F4F8C
:1004A00081F06051704732F07F4208BF704793F08F
:1004B0007F4F04BF41F40021704730B54FF46074A2
:1004C00001F0004521F000411CE700BF50EA0102A5
:1004D00008BF704730B54FF000050AE050EA01024E
:1004E00008BF704730B511F0004502D5404261EBBE
:1004F00041014FF4806404F132045FEA915C3FF4FF
:10050000D8AE4FF003025FEADC0C18BF03325FEA9B
:10051000DC0C18BF033202EBDC02C2F1200300FA4C
:1005200003FC20FA02F001FA03FE40EA0E0021FA71
:1005300002F11444BDE600BF70B54FF0FF0C4CF45F
:10054000E06C1CEA11541DBF1CEA135594EA0C0F11
:1005500095EA0C0F00F0DEF82C4481EA030621EA4C
:100560004C5123EA4C5350EA013518BF52EA033587
:1005700041F4801143F4801338D0A0FB02CE4FF039
:100580000005E1FB02E506F00042E0FB03E54FF069
:100590000006E1FB03569CF0000F18BF4EF0010E61
:1005A000A4F1FF04B6F5007F64F5407404D25FEA5D
:1005B0004E0E6D4146EB060642EAC62141EA555110
:1005C0004FEAC52040EA5E504FEACE2EB4F1FD0C52
:1005D00088BFBCF5E06F1ED8BEF1004F08BF5FEAD0
:1005E000500E50F1000041EB045170BD06F0004682
:1005F00046EA010140EA020081EA0301B4EB5C042F
:10060000C2BFD4EB0C0541EA045170BD41F4801126
:100610004FF0000E013C00F3AB8014F1360FDEBF4B
:10062000002001F0004170BDC4F10004203C35DA27
:100630000C341BDC04F11404C4F1200500FA05F3AA
:1006400020FA04F001FA05F240EA020001F000424B
:1006500021F0004110EBD37021FA04F642EB0601C1
:100660005EEA430E08BF20EAD37070BDC4F10C04EB
:10067000C4F1200500FA04F320FA05F001FA04F2AF
:1006800040EA020001F0004110EBD37041F100019B
:100690005EEA430E08BF20EAD37070BDC4F12005A6
:1006A00000FA05F24EEA020E20FA04F301FA05F20E
:1006B00043EA020321FA04F001F0004121FA04F2B6
:1006C00020EA020000EBD3705EEA430E08BF20EA86
:1006D000D37070BD94F0000F0FD101F000464000C0
:1006E00041EB010111F4801F08BF013CF7D041EA42
:1006F000060195F0000F18BF704703F00046520046
:1007000043EB030313F4801F08BF013DF7D043EA16
:100710000603704794EA0C0F0CEA135518BF95EACC
:100720000C0F0CD050EA410618BF52EA4306D1D153
:1007300081EA030101F000414FF0000070BD50EA72
:10074000410606BF1046194652EA430619D094EAFC
:100750000C0F02D150EA013613D195EA0C0F05D1E6
:1007600052EA03361CBF104619460AD181EA03013A
:1007700001F0004141F0FE4141F470014FF00000F2
:1007800070BD41F0FE4141F4780170BD70B54FF08D
:10079000FF0C4CF4E06C1CEA11541DBF1CEA13550D
:1007A00094EA0C0F95EA0C0F00F0A7F8A4EB0504EF
:1007B00081EA030E52EA03354FEA013100F08880E6
:1007C0004FEA03334FF0805545EA131343EA1263AF
:1007D0004FEA022245EA111545EA10654FEA002664
:1007E0000EF000419D4208BF964244F1FD0404F51D
:1007F000407402D25B084FEA3202B61A65EB030579
:100800005B084FEA32024FF480104FF4002CB6EB35
:10081000020E75EB030E22BFB61A754640EA0C00B5
:100820005B084FEA3202B6EB020E75EB030E22BFF5
:10083000B61A754640EA5C005B084FEA3202B6EB36
:10084000020E75EB030E22BFB61A754640EA9C00F5
:100850005B084FEA3202B6EB020E75EB030E22BFC5
:10086000B61A754640EADC0055EA060E18D04FEA83
:10087000051545EA16754FEA06164FEAC30343EA23
:1008800052734FEAC2025FEA1C1CC0D111F4801FF0
:100890000BD141EA00014FF000004FF0004CB6E7E9
:1008A00011F4801F04BF01430020B4F1FD0C88BF88
:1008B000BCF5E06F3FF6AFAEB5EB030C04BFB6EB93
:1008C000020C5FEA500C50F1000041EB045170BD86
:1008D0000EF0004E4EEA113114EB5C04C2BFD4EBB3
:1008E0000C0541EA045170BD41F480114FF0000E37
:1008F000013C90E645EA060E8DE60CEA135594EAB3
:100900000C0F08BF95EA0C0F3FF43BAF94EA0C0FB5
:100910000AD150EA01347FF434AF95EA0C0F7FF42A
:1009200025AF104619462CE795EA0C0F06D152EA7E
:1009300003353FF4FDAE1046194622E750EA410662
:1009400018BF52EA43067FF4C5AE50EA41047FF473
:100950000DAF52EA43057FF4EBAE12E74FF0FF3CD8
:1009600006E000BF4FF0010C02E000BF4FF0010CA9
:100970004DF804CD4FEA410C7FEA6C5C4FEA430C22
:1009800018BF7FEA6C5C1BD001B050EA410C0CBF71
:1009900052EA430C91EA030F02BF90EA020F0020D3
:1009A000704710F1000F91EA030F58BF994208BF3A
:1009B00090422CBFD8176FEAE37040F001007047F7
:1009C0004FEA410C7FEA6C5C02D150EA013C07D14E
:1009D0004FEA430C7FEA6C5CD6D152EA033CD3D099
:1009E0005DF8040B704700BF8446104662468C4693
:1009F0001946634600E000BF01B5FFF7B7FF0028C6
:100A000048BF10F1000F01BD4DF808EDFFF7F4FFEE
:100A10000CBF012000205DF808FB00BF4DF808ED79
:100A2000FFF7EAFF34BF012000205DF808FB00BF9C
:100A30004DF808EDFFF7E0FF94BF012000205DF8BE
:100A400008FB00BF4DF808EDFFF7CEFF94BF012073
:100A500000205DF808FB00BF4DF808EDFFF7C4FF6C
:100A600034BF012000205DF808FB00BF4FEA410CB5
:100A70007FEA6C5C02D150EA013C0AD14FEA430C98
:100A80007FEA6C5C02D152EA033C02D14FF00000D5
:100A900070474FF0010070474FEA410212F5001213
:100AA00015D211D56FF47873B3EB625212D94FEAB5
:100AB000C12343F0004343EA505311F0004F23FA9F
:100AC00002F018BF404270474FF00000704750EAF4
:100AD000013005D111F0004008BF6FF000407047B1
:100AE0004FF00000704700BF4A0011D212F500120B
:100AF00011D20DD56FF47873B3EB62520ED44FEA76
:100B0000C12343F0004343EA505323FA02F07047F5
:100B10004FF00000704750EA013002D14FF0FF3033
:100B200070474FF0000070474FEA4102B2F1E043D6
:100B300024BFB3F5001CDCF1FE5C0DD901F0004CC4
:100B40004FEAC0024CEA5070B2F1004F40EB830014
:100B500008BF20F00100704711F0804F21D113F140
:100B60003872BCBF01F00040704741F480114FEA79
:100B70005252C2F11802C2F1200C10FA0CF320FA02
:100B800002F018BF40F001004FEAC1234FEAD3231F
:100B900003FA0CFC40EA0C0023FA02F34FEA430389
:100BA000CCE77FEA625307D150EA01331EBF4FF012
:100BB000FE4040F44000704701F0004040F0FE402D
:100BC00040F40000704700BF53B94AB9002908BF7C
:100BD00000281CBF4FF0FF314FF0FF3000F00CB881
:100BE000ADF1080C6DE904CE9EF0D8FDDDF804E00F
:100BF000DDE9022304B07047704700BF0000000029
:100C000002780B78012A28BF9A4240F0D8806DE91B
:100C1000044540EA0104CDE902676FF0000C4FEA99
:100C200044721AB380EA010414F0070F6BD100F08C
:100C3000070420F0070004F0030521F007014FEA44
:100C4000C505F0E8042314F0040FF1E804670CFA7A
:100C500005F462EA040266EA04060BD063EA0403C0
:100C6000624667EA0407664604E000BFF0E8042332
:100C7000F1E8046782FA4CF582EA0604A4FA8CF4DF
:100C80006CBB83FA4CF583EA0705A5FA8CF595B998
:100C900050E9022351E9026782FA4CF582EA060420
:100CA000A4FA8CF483FA4CF583EA0705A5FA8CF5CF
:100CB0002543DBD09CB92DBAB5FA85F424F007049E
:100CC00027FA04F1DDE9026723FA04F303F0FF00D9
:100CD00001F0FF01FDE80445A0EB0100704724BAD4
:100CE000B4FA84F424F0070426FA04F1DDE902677B
:100CF00022FA04F202F0FF0001F0FF01FDE80445D2
:100D0000A0EB0100704714F0030F3CD110F0030476
:100D100028D150F8082B51F8083B82FA4CF582EAAA
:100D20000305A5FA8CF55DB950F8042C51F8043C84
:100D300082FA4CF582EA0305A5FA8CF5002DE8D07D
:100D40002DBAB5FA85F424F0070423FA04F122FA47
:100D500004F202F0FF0001F0FF01FDE80445A0EB02
:100D6000010070474FEAC40420F0030050F8082B3C
:100D700021F0030151F8083B0CFA04F462EA040282
:100D800063EA0403C9E710F003041DD0A1EB0401DA
:100D900020F00300E40750F8042B06D012D28B7821
:100DA0005FFAA2F4E41A06D12BB1CB785FFAB2F461
:100DB000E41A00D133B920465DF8104B7047A2EB1E
:100DC0000300704701F1040150F8042BCC0721F017
:100DD000030151F8043B48D824D222F07F4482FA20
:100DE0004CF594EA1325A5FA8CF50AD165B951F8AA
:100DF000043B84EA0204B4EB036F0ED150F8042BD9
:100E0000EBE74FEA132355E035F07F454DD10878E5
:100E1000FDE80445C0F1000070474FEA126203F09C
:100E2000FF0347E002EA1C4482FA4CF594EA1345BA
:100E3000A5FA8CF50AD165B951F8043B84EA02049D
:100E4000B4EB034F0CD150F8042BEBE74FEA1343FC
:100E500030E015EA1C4528D10B884FEA124229E000
:100E60004FEA124203EA1C4324E002F0FF0482FA34
:100E70004CF594EA1365A5FA8CF50AD165B951F8D9
:100E8000043B84EA0204B4EB032F09D150F8042B8D
:100E9000EBE74FEA13630DE015F0FF0F05D10B6888
:100EA0004FEA122223F07F4304E04FF00000FDE8F8
:100EB0000445704712BA1BBA82FA4CF482EA030462
:100EC000A4FA8CF5B5FA85F402FA04F203FA04F3F5
:100ED0004FEA1260FDE80445A0EB1360704700BFC5
:100EE000844641EA000313F003036DD1403A41D335
:100EF00051F8043B40F8043B51F8043B40F8043BF4
:100F000051F8043B40F8043B51F8043B40F8043BE3
:100F100051F8043B40F8043B51F8043B40F8043BD3
:100F200051F8043B40F8043B51F8043B40F8043BC3
:100F300051F8043B40F8043B51F8043B40F8043BB3
:100F400051F8043B40F8043B51F8043B40F8043BA3
:100F500051F8043B40F8043B51F8043B40F8043B93
:100F600051F8043B40F8043B51F8043B40F8043B83
:100F7000403ABDD2303211D351F8043B40F8043B23
:100F800051F8043B40F8043B51F8043B40F8043B63
:100F900051F8043B40F8043B103AEDD20C3205D333
:100FA00051F8043B40F8043B043AF9D2043208D02B
:100FB000D2071CBF11F8013B00F8013B01D30B889D
:100FC00003806046704700BF082A13D38B078DD07B
:100FD00010F003038AD0C3F10403D21ADB071CBF4D
:100FE00011F8013B00F8013B80D331F8023B20F8B7
:100FF000023B7BE7043AD9D3013A11F8013B00F8F0
:10100000013BF9D20B7803704B7843708B78837077
:101010006046704700000000000000000000000073
:1010200000000000000000000000000000000000C0
:1010300000000000000000000000000000000000B0
:1010400030B490F800F020F007016FF0000C10F0C1
:10105000070491F820F040F048804FF000046FF052
:101060000700D1E9002391F840F000F1080082FA6E
:101070004CF2A4FA8CF283FA4CF3A2FA8CF34BBB39
:10108000D1E9022382FA4CF200F10800A4FA8CF2B2
:1010900083FA4CF3A2FA8CF3E3B9D1E9042382FA80
:1010A0004CF200F10800A4FA8CF283FA4CF3A2FA95
:1010B0008CF37BB9D1E9062301F1200182FA4CF2CD
:1010C00000F10800A4FA8CF283FA4CF3A2FA8CF334
:1010D000002BC6D0002A04BF04301A4612BAB2FA56
:1010E00082F200EBD20030BC7047D1E9002304F05B
:1010F0000305C4F100004FEAC50514F0040F91F890
:1011000040F00CFA05F562EA05021CBF63EA05032C
:1011100062464FF00004AAE7000000000000000053
:1011200001F0FF01102A2BDB10F0070F08D010F898
:10113000013B013A8B422DD010F0070F42B3F6D19C
:10114000F0B441EA012141EA014122F007047FF0B5
:1011500000070023F0E80256083C85EA010586EA0C
:10116000010685FA47F5A3FA87F586FA47F6A5FA48
:1011700087F68EB9EED1F0BC01F0FF0102F0070254
:1011800032B110F8013B013A83EA010313B1F8D1FF
:101190000020704701387047002D06BF35460338E0
:1011A000073815F0010F07D1013015F4807F02BF19
:1011B000013015F4C03F0130F0BC0138704700BF6A
:1011C0000348044B834202D0034B03B118477047D6
:1011D0007843002078430020000000000548064BBB
:1011E0001B1AD90F01EBA301491002D0034B03B125
:1011F0001847704778430020784300200000000023
:1012000010B5064C237843B9FFF7DAFF044B13B14E
:101210000448AFF300800123237010BD7843002001
:101220000000000090820A0808B5054B1BB1054973
:101230000548AFF30080BDE80840FFF7CFBF00BF0F
:10124000000000007C43002090820A0880B582B034
:1012500000AF78607B68002B04D07B68D3F8A430A3
:101260007868984700BF0837BD4680BD80B584B018
:1012700000AF786039603B681B6801221021386834
:101280009847F860FB6811221A60FB6811225A60C7
:101290003B681B6812220421386898470246FB68A5
:1012A0009A603B681B68032204213868984702460D
:1012B000FB68DA60FB6818461037BD4680BD80B514
:1012C00084B000AF786039603B681B680122102150
:1012D00038689847F860FB6803221A603B681B680F
:1012E00003220821386898470246FB685A60FB6869
:1012F00018461037BD4680BD80B584B000AF786019
:1013000039603B681B680122102138689847F860F3
:10131000FB6811221A60FB6811225A603B681B6847
:1013200012220421386898470246FB689A603B689D
:101330001B6800220421386898470246FB68DA607F
:10134000FB6818461037BD4680BD80B584B000AF3D
:10135000786039603B681B68012210213868984723
:10136000F860FB6800221A603B681B6800220821B5
:10137000386898470246FB685A60FB681846103781
:10138000BD4680BD80B584B000AF786039603B68F1
:101390001B680122102138689847F860FB68112209
:1013A0001A60FB6811225A603B681B6812220421F4
:1013B000386898470246FB689A603B681B680022C1
:1013C0000421386898470246FB68DA60FB681846D3
:1013D0001037BD4680BD80B584B000AF78603960FD
:1013E0003B681B680122102138689847F860FB6849
:1013F00000221A603B681B68002208213868984761
:101400000246FB685A60FB6818461037BD4680BD2F
:1014100080B584B000AF786039603B681B680122FA
:10142000102138689847F860FB6803221A603B680F
:101430001B6803220121386898470246FB685A60FE
:10144000FB6818461037BD4680BD80B584B000AF3C
:10145000786039603B681B68012210213868984722
:10146000F860FB6811221A60FB6803225A603B682F
:101470001B6812220421386898470246FB689A606C
:101480003B681B6800220421386898470246FB68C5
:10149000DA60FB6818461037BD4680BD80B584B061
:1014A00000AF786039603B681B6801221021386802
:1014B0009847F860FB6800221A603B681B680022AE
:1014C0000821386898470246FB685A60FB6818464E
:1014D0001037BD4680BD80B584B000AF78603960FC
:1014E0003B681B680122102138689847F860FB6848
:1014F00000221A60FB6803225A603B681B680122C5
:101500000421386898470246FB689A603B681B686C
:1015100000220421386898470246FB68DA60FB68BD
:1015200018461037BD4680BD80B584B000AF7860E6
:1015300039603B681B680122102138689847F860C1
:10154000FB6800221A603B681B680022082138688B
:1015500098470246FB685A60FB6818461037BD463C
:1015600080BD80B584B000AF786039603B681B688F
:101570000122102138689847F860FB6807221A603A
:10158000FB6803225A603B681B6808220421386804
:1015900098470246FB689A603B681B68002204215A
:1015A000386898470246FB68DA60FB6818461037CF
:1015B000BD4680BD80B584B000AF786039603B68BF
:1015C0001B680122102138689847F860FB680022E8
:1015D0001A603B681B680022082138689847024659
:1015E000FB685A60FB6818461037BD4680BD80B561
:1015F00084B000AF786039603B681B68012210211D
:1016000038689847F860FB6801221A60FB6803227B
:101610005A603B681B6802220421386898470246DA
:10162000FB689A603B681B68002204213868984771
:101630000246FB68DA60FB6818461037BD4680BD7D
:1016400080B584B000AF786039603B681B680122C8
:10165000102138689847F860FB6800221A603B68E0
:101660001B6800220821386898470246FB685A60C8
:10167000FB6818461037BD4680BD80B584B000AF0A
:10168000786039603B681B680122102138689847F0
:10169000F860FB6801221A60FB6803225A603B680D
:1016A0001B6802220421386898470246FB689A604A
:1016B0003B681B6800220421386898470246FB6893
:1016C000DA60FB6818461037BD4680BD80B584B02F
:1016D00000AF786039603B681B68012210213868D0
:1016E0009847F860FB6800221A603B681B6800227C
:1016F0000821386898470246FB685A60FB6818461C
:101700001037BD4680BD80B584B000AF78603960C9
:101710003B681B680122102138689847F860FB6815
:1017200011221A60FB6811225A603B681B68122262
:101730000421386898470246FB689A603B681B683A
:101740000C220421386898470246FB68DA60FB687F
:1017500018461037BD4680BD80B584B000AF7860B4
:1017600039603B681B680122102138689847F8608F
:10177000FB680C221A603B681B680C220821386841
:1017800098470246FB685A60FB6818461037BD460A
:1017900080BD80B584B000AF786039603B681B685D
:1017A0000122102138689847F860FB6811221A60FE
:1017B000FB6811225A603B681B68122204213868BA
:1017C00098470246FB689A603B681B680022042128
:1017D000386898470246FB68DA60FB68184610379D
:1017E000BD4680BD80B584B000AF786039603B688D
:1017F0001B680122102138689847F860FB680022B6
:101800001A603B681B680022082138689847024626
:10181000FB685A60FB6818461037BD4680BD80B52E
:1018200084B000AF786039603B681B6801221021EA
:1018300038689847F860FB6807221A60FB68112235
:101840005A603B681B6808220421386898470246A2
:10185000FB689A603B681B6801220421386898473E
:101860000246FB68DA60FB6818461037BD4680BD4B
:1018700080B584B000AF786039603B681B68012296
:10188000102138689847F860FB6801221A603B68AD
:101890001B6801220821386898470246FB685A6095
:1018A000FB6818461037BD4680BD80B584B000AFD8
:1018B000786039603B681B680122102138689847BE
:1018C000F860FB6807221A60FB6811225A603B68C7
:1018D0001B6808220421386898470246FB689A6012
:1018E0003B681B6800220421386898470246FB6861
:1018F000DA60FB6818461037BD4680BD80B584B0FD
:1019000000AF786039603B681B680122102138689D
:101910009847F860FB6800221A603B681B68002249
:101920000821386898470246FB685A60FB681846E9
:101930001037BD4680BD80B584B000AF7860396097
:101940003B681B680122102138689847F860FB68E3
:1019500001221A60FB6811225A603B681B68022250
:101960000421386898470246FB689A603B681B6808
:1019700000220421386898470246FB68DA60FB6859
:1019800018461037BD4680BD80B584B000AF786082
:1019900039603B681B680122102138689847F8605D
:1019A000FB6800221A603B681B6800220821386827
:1019B00098470246FB685A60FB6818461037BD46D8
:1019C00080BD80B584B000AF786039603B681B682B
:1019D0000122102138689847F860FB6801221A60DC
:1019E000FB6811225A603B681B6802220421386898
:1019F00098470246FB689A603B681B6800220421F6
:101A0000386898470246FB68DA60FB68184610376A
:101A1000BD4680BD80B584B000AF786039603B685A
:101A20001B680122102138689847F860FB68002283
:101A30001A603B681B6800220821386898470246F4
:101A4000FB685A60FB6818461037BD4680BD80B5FC
:101A500084B000AF786039603B681B6801221021B8
:101A600038689847F860FB6811221A603B681B6869
:101A700011220821386898470246FB685A60FB68C3
:101A800018461037BD4680BD80B584B000AF786081
:101A900039603B681B680122102138689847F8605C
:101AA000FB6811221A603B681B681122012138680B
:101AB00098470246FB685A60FB6818461037BD46D7
:101AC00080BD80B584B000AF786039603B681B682A
:101AD0000122102138689847F860FB6811221A60CB
:101AE0003B681B6811220121386898470246FB6851
:101AF0005A60FB6818461037BD4680BD80B584B07B
:101B000000AF786039603B681B680122102138689B
:101B10009847F860FB6811221A603B681B68112225
:101B20000121386898470246FB685A60FB681846EE
:101B30001037BD4680BD80B584B000AF7860396095
:101B40003B681B680122102138689847F860FB68E1
:101B500011221A603B681B681122012138689847DE
:101B60000246FB685A60FB6818461037BD4680BDC8
:101B700080B584B000AF786039603B681B68012293
:101B8000102138689847F860FB6811221A603B689A
:101B90001B6811220121386898470246FB685A6089
:101BA000FB6818461037BD4680BD80B584B000AFD5
:101BB000786039603B681B680122102138689847BB
:101BC000F860FB6811221A603B681B681122012132
:101BD000386898470246FB685A60FB681846103719
:101BE000BD4680BD80B584B000AF786039603B6889
:101BF0001B680122102138689847F860FB681122A1
:101C00001A60FB6811225A603B681B68122204218B
:101C1000386898470246FB689A603B681B68182240
:101C20000421386898470246FB68DA60FB6818466A
:101C30001037BD4680BD80B584B000AF7860396094
:101C40003B681B680122102138689847F860FB68E0
:101C500018221A603B681B681822082138689847C8
:101C60000246FB685A60FB6818461037BD4680BDC7
:101C700080B584B000AF786039603B681B68012292
:101C8000102138689847F860FB6807221A60FB68E3
:101C900011225A603B681B68082204213868984763
:101CA0000246FB689A603B681B6800220421386882
:101CB00098470246FB68DA60FB6818461037BD4655
:101CC00080BD80B584B000AF786039603B681B6828
:101CD0000122102138689847F860FB6800221A60DA
:101CE0003B681B6800220821386898470246FB6859
:101CF0005A60FB6818461037BD4680BD80B584B079
:101D000000AF786039603B681B6801221021386899
:101D10009847F860FB6801221A60FB6811225A603C
:101D20003B681B6802220421386898470246FB681A
:101D30009A603B681B680022042138689847024675
:101D4000FB68DA60FB6818461037BD4680BD80B579
:101D500084B000AF786039603B681B6801221021B5
:101D600038689847F860FB6800221A603B681B6877
:101D700000220821386898470246FB685A60FB68D1
:101D800018461037BD4680BD80B584B000AF78607E
:101D900039603B681B680122102138689847F86059
:101DA000FB6800221A60FB6811225A603B681B68BE
:101DB00001220421386898470246FB689A603B6814
:101DC0001B6800220421386898470246FB68DA60E5
:101DD000FB6818461037BD4680BD80B584B000AFA3
:101DE000786039603B681B68012210213868984789
:101DF000F860FB6800221A603B681B68002208211B
:101E0000386898470246FB685A60FB6818461037E6
:101E1000BD4680BD80B584B000AF786039603B6856
:101E20001B680122102138689847F860FB6801227E
:101E30001A60FB6818225A603B681B680222042162
:101E4000386898470246FB689A603B681B68002226
:101E50000421386898470246FB68DA60FB68184638
:101E60001037BD4680BD80B584B000AF7860396062
:101E70003B681B680122102138689847F860FB68AE
:101E800000221A603B681B680022082138689847C6
:101E90000246FB685A60FB6818461037BD4680BD95
:101EA00080B584B000AF786039603B681B68012260
:101EB000102138689847F860FB6800221A60FB68B8
:101EC00011225A603B681B68012204213868984738
:101ED0000246FB689A603B681B6800220421386850
:101EE00098470246FB68DA60FB6818461037BD4623
:101EF00080BD80B584B000AF786039603B681B68F6
:101F00000122102138689847F860FB6800221A60A7
:101F10003B681B6800220821386898470246FB6826
:101F20005A60FB6818461037BD4680BD80B584B046
:101F300000AF786039603B681B6801221021386867
:101F40009847F860FB6807221A60FB6811225A6004
:101F50003B681B6808220421386898470246FB68E2
:101F60009A603B681B68082204213868984702463B
:101F7000FB68DA60FB6818461037BD4680BD80B547
:101F800084B000AF786039603B681B680122102183
:101F900038689847F860FB6811221A60FB681122C4
:101FA0005A603B681B681222042138689847024631
:101FB000FB689A603B681B682722042138689847B1
:101FC0000246FB68DA60FB6818461037BD4680BDE4
:101FD00080B584B000AF786039603B681B6801222F
:101FE000102138689847F860FB680C221A60FB687B
:101FF00011225A603B681B680D22042138689847FB
:102000000246FB689A603B681B680022042138681E
:1020100098470246FB68DA60FB6818461037BD46F1
:1020200080BD80B584B000AF786039603B681B68C4
:102030000122102138689847F860FB6800221A6076
:102040003B681B6800220821386898470246FB68F5
:102050005A60FB6818461037BD4680BD80B584B015
:1020600000AF786039603B681B6801221021386836
:102070009847F860FB6811221A603B681B681122C0
:102080000121386898470246FB685A60FB68184689
:102090001037BD4680BD80B584B000AF7860396030
:1020A0003B681B680122102138689847F860FB687C
:1020B00000221A603B681B68002208213868984794
:1020C0000246FB685A60FB6818461037BD4680BD63
:1020D00080B584B000AF786039603B681B6801222E
:1020E000102138689847F860FB6800221A603B6846
:1020F0001B6800220821386898470246FB685A602E
:10210000FB6818461037BD4680BD80B584B000AF6F
:10211000786039603B681B68012210213868984755
:10212000F860FB6811221A60FB6800225A603B6865
:102130001B6812220421386898470246FB689A609F
:102140003B681B6800220421386898470246FB68F8
:10215000DA60FB6818461037BD4680BD80B584B094
:1021600000AF786039603B681B6801221021386835
:102170009847F860FB6800221A603B681B680022E1
:102180000821386898470246FB685A60FB68184681
:102190001037BD4680BD80B584B000AF786039602F
:1021A0003B681B680122102138689847F860FB687B
:1021B00000221A60FB6800225A603B681B680122FB
:1021C0000421386898470246FB689A603B681B68A0
:1021D00000220421386898470246FB68DA60FB68F1
:1021E00018461037BD4680BD80B584B000AF78601A
:1021F00039603B681B680122102138689847F860F5
:10220000FB6811221A603B681B681122082138689C
:1022100098470246FB685A60FB6818461037BD466F
:1022200080BD80B584B000AF786039603B681B68C2
:102230000122102138689847F860FB6801221A6073
:102240003B681B6801220821386898470246FB68F2
:102250005A60FB6818461037BD4680BD80B584B013
:1022600000AF786039603B681B6801221021386834
:102270009847F860FB6801221A603B681B680122DE
:102280000421386898470246FB685A60FB68184684
:102290001037BD4680BD80B584B000AF786039602E
:1022A0003B681B680122102138689847F860FB687A
:1022B00001221A603B681B68012201213868984797
:1022C0000246FB685A60FB6818461037BD4680BD61
:1022D00080B584B000AF786039603B681B6801222C
:1022E000102138689847F860FB6801221A603B6843
:1022F0001B6801220121386898470246FB685A6032
:10230000FB6818461037BD4680BD80B584B000AF6D
:10231000786039603B681B68012210213868984753
:10232000F860FB6800221A603B681B6800220821E5
:10233000386898470246FB685A60FB6818461037B1
:10234000BD4680BD80B584B000AF786039603B6821
:102350001B680122102138689847F860FB68112239
:102360001A60FB6801225A603B681B681222042134
:10237000386898470246FB689A603B681B680022F1
:102380000421386898470246FB68DA60FB68184603
:102390001037BD4680BD80B584B000AF786039602D
:1023A0003B681B680122102138689847F860FB6879
:1023B00000221A603B681B68002208213868984791
:1023C0000246FB685A60FB6818461037BD4680BD60
:1023D00080B584B000AF786039603B681B6801222B
:1023E000102138689847F860FB6800221A60FB6883
:1023F00001225A603B681B68012204213868984713
:102400000246FB689A603B681B680022042138681A
:1024100098470246FB68DA60FB6818461037BD46ED
:1024200080BD80B584B000AF786039603B681B68C0
:102430000122102138689847F860FB6807221A606B
:10244000FB6801225A603B681B6808220421386837
:1024500098470246FB689A603B681B68002204218B
:10246000386898470246FB68DA60FB681846103700
:10247000BD4680BD80B584B000AF786039603B68F0
:102480001B680122102138689847F860FB68112208
:102490001A60FB6801225A603B681B681222042103
:1024A000386898470246FB689A603B681B680022C0
:1024B0000421386898470246FB68DA60FB681846D2
:1024C0001037BD4680BD80B584B000AF78603960FC
:1024D0003B681B680122102138689847F860FB6848
:1024E00000221A603B681B68002208213868984760
:1024F0000246FB685A60FB6818461037BD4680BD2F
:1025000080B584B000AF786039603B681B680122F9
:10251000102138689847F860FB6811221A60FB6840
:1025200000225A603B681B681222042138689847D1
:102530000246FB689A603B681B68002204213868E9
:1025400098470246FB68DA60FB6818461037BD46BC
:1025500080BD80B584B000AF786039603B681B688F
:102560000122102138689847F860FB6800221A6041
:102570003B681B6800220821386898470246FB68C0
:102580005A60FB6818461037BD4680BD80B584B0E0
:1025900000AF786039603B681B6801221021386801
:1025A0009847F860FB6800221A60FB6800225A60B6
:1025B0003B681B6801220421386898470246FB6883
:1025C0009A603B681B6800220421386898470246DD
:1025D000FB68DA60FB6818461037BD4680BD80B5E1
:1025E00084B000AF786039603B681B68012210211D
:1025F00038689847F860FB6800221A603B681B68DF
:1026000000220821386898470246FB685A60FB6838
:1026100018461037BD4680BD80B584B000AF7860E5
:1026200039603B681B680122102138689847F860C0
:10263000FB6800221A603B681B680022082138688A
:1026400098470246FB685A60FB6818461037BD463B
:1026500080BD80B584B000AF786039603B681B688E
:102660000122102138689847F860FB6800221A6040
:102670003B681B6800220821386898470246FB68BF
:102680005A60FB6818461037BD4680BD80B584B0DF
:1026900000AF786039603B681B6801221021386800
:1026A0009847F860FB6807221A60FB6801225A60AD
:1026B0003B681B6808220421386898470246FB687B
:1026C0009A603B681B6800220421386898470246DC
:1026D000FB68DA60FB6818461037BD4680BD80B5E0
:1026E00084B000AF786039603B681B68012210211C
:1026F00038689847F860FB6811221A60FB6801226D
:102700005A603B681B6812220421386898470246C9
:10271000FB689A603B681B68002204213868984770
:102720000246FB68DA60FB6818461037BD4680BD7C
:1027300080B584B000AF786039603B681B680122C7
:10274000102138689847F860FB6807221A60FB6818
:1027500001225A603B681B680822042138689847A8
:102760000246FB689A603B681B68002204213868B7
:1027700098470246FB68DA60FB6818461037BD468A
:1027800080BD80B584B000AF786039603B681B685D
:102790000122102138689847F860FB6811221A60FE
:1027A000FB6801225A603B681B68122204213868CA
:1027B00098470246FB689A603B681B680122042127
:1027C000386898470246FB68DA60FB68184610379D
:1027D000BD4680BD80B584B000AF786039603B688D
:1027E0001B680122102138689847F860FB680122B5
:1027F0001A603B681B680122082138689847024626
:10280000FB685A60FB6818461037BD4680BD80B52E
:1028100084B000AF786039603B681B6801221021EA
:1028200038689847F860FB6811221A60FB6801223B
:102830005A603B681B681222042138689847024698
:10284000FB689A603B681B6801220421386898473E
:102850000246FB68DA60FB6818461037BD4680BD4B
:1028600080B584B000AF786039603B681B68012296
:10287000102138689847F860FB6801221A603B68AD
:102880001B6801220821386898470246FB685A6095
:10289000FB6818461037BD4680BD80B584B000AFD8
:1028A000786039603B681B680122102138689847BE
:1028B000F860FB6807221A60FB6801225A603B68D7
:1028C0001B6808220421386898470246FB689A6012
:1028D0003B681B6800220421386898470246FB6861
:1028E000DA60FB6818461037BD4680BD80B584B0FD
:1028F00000AF786039603B681B680122102138689E
:102900009847F860FB6800221A603B681B68002249
:102910000821386898470246FB685A60FB681846E9
:102920001037BD4680BD80B584B000AF7860396097
:102930003B681B680122102138689847F860FB68E3
:1029400001221A60FB6801225A603B681B68022260
:102950000421386898470246FB689A603B681B6808
:1029600000220421386898470246FB68DA60FB6859
:1029700018461037BD4680BD80B584B000AF786082
:1029800039603B681B680122102138689847F8605D
:10299000FB6800221A603B681B6800220821386827
:1029A00098470246FB685A60FB6818461037BD46D8
:1029B00080BD80B584B000AF786039603B681B682B
:1029C0000122102138689847F860FB680B221A60D2
:1029D0003B681B680B220421386898470246FB6855
:1029E0005A60FB6818461037BD4680BD80B584B07C
:1029F00000AF786039603B681B680122102138689D
:102A00009847F860FB680B221A603B681B680B2232
:102A10000821386898470246FB685A60FB681846E8
:102A20001037BD4680BD80B584B000AF7860396096
:102A30003B681B680122102138689847F860FB68E2
:102A400000221A603B681B680022082138689847FA
:102A50000246FB685A60FB6818461037BD4680BDC9
:102A600080B584B000AF786039603B681B68012294
:102A7000102138689847F860FB6800221A603B68AC
:102A80001B6800220421386898470246FB685A6098
:102A9000FB6818461037BD4680BD80B584B000AFD6
:102AA000786039603B681B680122102138689847BC
:102AB000F860FB6800221A603B681B68002208214E
:102AC000386898470246FB685A60FB68184610371A
:102AD000BD4680BD80B584B000AF786039603B688A
:102AE0001B680122102138689847F860FB680022B3
:102AF0001A603B681B680022042138689847024628
:102B0000FB685A60FB6818461037BD4680BD80B52B
:102B100084B000AF786039603B681B6801221021E7
:102B200038689847F860FB6800221A603B681B68A9
:102B300000220821386898470246FB685A60FB6803
:102B400018461037BD4680BD80B584B000AF7860B0
:102B500039603B681B680122102138689847F8608B
:102B6000FB6800221A603B681B6800220421386859
:102B700098470246FB685A60FB6818461037BD4606
:102B800080BD80B584B000AF786039603B681B6859
:102B90000122102138689847F860FB6800221A600B
:102BA0003B681B6800220121386898470246FB6891
:102BB0005A60FB6818461037BD4680BD80B584B0AA
:102BC00000AF786039603B681B68012210213868CB
:102BD0009847F860FB6800221A603B681B68002277
:102BE0000121386898470246FB685A60FB6818461E
:102BF0001037BD4680BD80B584B000AF78603960C5
:102C00003B681B680122102138689847F860FB6810
:102C100000221A603B681B6800220121386898472F
:102C20000246FB685A60FB6818461037BD4680BDF7
:102C300080B584B000AF786039603B681B680122C2
:102C4000102138689847F860FB6800221A603B68DA
:102C50001B6800220121386898470246FB685A60C9
:102C6000FB6818461037BD4680BD80B584B000AF04
:102C7000786039603B681B680122102138689847EA
:102C8000F860FB6800221A603B681B68002208217C
:102C9000386898470246FB685A60FB681846103748
:102CA000BD4680BD80B584B000AF786039603B68B8
:102CB0001B680122102138689847F860FB680022E1
:102CC0001A603B681B680022082138689847024652
:102CD000FB685A60FB6818461037BD4680BD80B55A
:102CE00084B000AF786039603B681B680122102116
:102CF00038689847F860FB6800221A603B681B68D8
:102D000000220821386898470246FB685A60FB6831
:102D100018461037BD4680BD80B584B000AF7860DE
:102D200039603B681B680122102138689847F860B9
:102D3000FB6800221A603B681B6800220421386887
:102D400098470246FB685A60FB6818461037BD4634
:102D500080BD80B584B000AF786039603B681B6887
:102D60000122102138689847F860FB68AE221A608B
:102D70003B681B68AE220821386898470246FB680A
:102D80005A60FB6818461037BD4680BD80B584B0D8
:102D900000AF786039603B681B68012210213868F9
:102DA0009847F860FB6803221A603B681B6803229F
:102DB0000421386898470246FB685A60FB68184649
:102DC0001037BD4680BD80B584B000AF78603960F3
:102DD0003B681B680122102138689847F860FB683F
:102DE00000221A603B681B6800220421386898475B
:102DF0000246FB685A60FB6818461037BD4680BD26
:102E000080B584B000AF786039603B681B680122F0
:102E1000102138689847F860FB6800221A603B6808
:102E20001B6800220421386898470246FB685A60F4
:102E3000FB6818461037BD4680BD80B584B000AF32
:102E4000786039603B681B68012210213868984718
:102E5000F860FB6800221A603B681B6800220821AA
:102E6000386898470246FB685A60FB681846103776
:102E7000BD4680BD80B584B000AF786039603B68E6
:102E80001B680122102138689847F860FB6800220F
:102E90001A603B681B680022082138689847024680
:102EA000FB685A60FB6818461037BD4680BD80B588
:102EB00084B000AF786039603B681B680122102144
:102EC00038689847F860FB6800221A603B681B6806
:102ED00000220821386898470246FB685A60FB6860
:102EE00018461037BD4680BD80B584B000AF78600D
:102EF00039603B681B680122102138689847F860E8
:102F0000FB6800221A603B681B68002208213868B1
:102F100098470246FB685A60FB6818461037BD4662
:102F200080BD80B584B000AF786039603B681B68B5
:102F30000122102138689847F860FB6811221A6056
:102F4000FB6800225A603B681B6812220421386823
:102F500098470246FB689A603B681B680022042180
:102F6000386898470246FB68DA60FB6818461037F5
:102F7000BD4680BD80B584B000AF786039603B68E5
:102F80001B680122102138689847F860FB6800220E
:102F90001A603B681B68002208213868984702467F
:102FA000FB685A60FB6818461037BD4680BD80B587
:102FB00084B000AF786039603B681B680122102143
:102FC00038689847F860FB6807221A60FB6800229F
:102FD0005A603B681B6808220421386898470246FB
:102FE000FB689A603B681B68002204213868984798
:102FF0000246FB68DA60FB6818461037BD4680BDA4
:1030000080B584B000AF786039603B681B680122EE
:10301000102138689847F860FB6800221A603B6806
:103020001B6800220821386898470246FB685A60EE
:10303000FB6818461037BD4680BD80B584B000AF30
:10304000786039603B681B68012210213868984716
:10305000F860FB6801221A60FB6800225A603B6836
:103060001B6802220421386898470246FB689A6070
:103070003B681B6800220421386898470246FB68B9
:10308000DA60FB6818461037BD4680BD80B584B055
:1030900000AF786039603B681B68012210213868F6
:1030A0009847F860FB6800221A603B681B680022A2
:1030B0000821386898470246FB685A60FB68184642
:1030C0001037BD4680BD80B584B000AF78603960F0
:1030D0003B681B680122102138689847F860FB683C
:1030E0004FF485721A603B681B684FF485720821A3
:1030F000386898470246FB685A60FB6818461037E4
:10310000BD4680BD80B584B000AF786039603B6853
:103110001B680122102138689847F860FB684FF45B
:1031200085721A603B681B684FF485720821386805
:1031300098470246FB685A60FB6818461037BD4640
:1031400080BD80B584B000AF786039603B681B6893
:103150000122102138689847F860FB684FF48572A7
:103160001A603B681B684FF48572082138689847DD
:103170000246FB685A60FB6818461037BD4680BDA2
:1031800080B584B000AF786039603B681B6801226D
:10319000102138689847F860FB684FF485721A6010
:1031A0003B681B684FF485720121386898470246D6
:1031B000FB685A60FB6818461037BD4680BD80B575
:1031C00084B000AF786039603B681B680122102131
:1031D00038689847F860FB6800221A603B681B68F3
:1031E00000220421386898470246FB685A60FB6851
:1031F00018461037BD4680BD80B584B000AF7860FA
:1032000039603B681B680122102138689847F860D4
:10321000FB6800221A603B681B68002204213868A2
:1032200098470246FB685A60FB6818461037BD464F
:1032300080BD80B584B000AF786039603B681B68A2
:103240000122102138689847F860FB6800221A6054
:103250003B681B6800220421386898470246FB68D7
:103260005A60FB6818461037BD4680BD80B584B0F3
:1032700000AF786039603B681B6801221021386814
:103280009847F860FB6800221A603B681B680022C0
:103290000821386898470246FB685A60FB68184660
:1032A0001037BD4680BD80B584B000AF786039600E
:1032B0003B681B680122102138689847F860FB685A
:1032C00000221A603B681B68002208213868984772
:1032D0000246FB685A60FB6818461037BD4680BD41
:1032E00080B584B000AF786039603B681B6801220C
:1032F000102138689847F860FB6800221A603B6824
:103300001B6800220821386898470246FB685A600B
:10331000FB6818461037BD4680BD80B584B000AF4D
:10332000786039603B681B68012210213868984733
:10333000F860FB6800221A603B681B6800220821C5
:10334000386898470246FB685A60FB681846103791
:10335000BD4680BD80B584B000AF786039603B6801
:103360001B680122102138689847F860FB6800222A
:103370001A603B681B68002208213868984702469B
:10338000FB685A60FB6818461037BD4680BD80B5A3
:1033900084B000AF786039603B681B68012210215F
:1033A00038689847F860FB6811221A60FB681122A0
:1033B0005A603B681B68122204213868984702460D
:1033C000FB689A603B681B680022042138689847B4
:1033D0000246FB68DA60FB6818461037BD4680BDC0
:1033E00080B584B000AF786039603B681B6801220B
:1033F000102138689847F860FB6807221A60FB685C
:1034000011225A603B681B680822042138689847DB
:103410000246FB689A603B681B68002204213868FA
:1034200098470246FB68DA60FB6818461037BD46CD
:1034300080BD80B584B000AF786039603B681B68A0
:103440000122102138689847F860FB6801221A6051
:10345000FB6811225A603B681B680222042138680D
:1034600098470246FB689A603B681B68002204216B
:10347000386898470246FB68DA60FB6818461037E0
:10348000BD4680BD80B584B000AF786039603B68D0
:103490001B680122102138689847F860FB680122F8
:1034A0001A60FB6811225A603B681B6802220421E3
:1034B000386898470246FB689A603B681B680022A0
:1034C0000421386898470246FB68DA60FB681846B2
:1034D0001037BD4680BD80B584B000AF78603960DC
:1034E0003B681B680122102138689847F860FB6828
:1034F00011221A603B681B6811220821386898471E
:103500000246FB685A60FB6818461037BD4680BD0E
:1035100080B584B000AF786039603B681B680122D9
:10352000102138689847F860FB6811221A603B68E0
:103530001B6811220821386898470246FB685A60C8
:10354000FB6818461037BD4680BD80B584B000AF1B
:10355000786039603B681B68012210213868984701
:10356000F860FB6811221A603B681B681122012178
:10357000386898470246FB685A60FB68184610375F
:10358000BD4680BD80B584B000AF786039603B68CF
:103590001B680122102138689847F860FB681122E7
:1035A0001A603B681B68112201213868984702465F
:1035B000FB685A60FB6818461037BD4680BD80B571
:1035C00084B000AF786039603B681B68012210212D
:1035D00038689847F860FB6811221A603B681B68DE
:1035E00011220121386898470246FB685A60FB683F
:1035F00018461037BD4680BD80B584B000AF7860F6
:1036000039603B681B680122102138689847F860D0
:10361000FB6811221A603B681B681122012138687F
:1036200098470246FB685A60FB6818461037BD464B
:1036300080BD80B584B000AF786039603B681B689E
:103640000122102138689847F860FB6811221A603F
:103650003B681B6811220821386898470246FB68BE
:103660005A60FB6818461037BD4680BD80B584B0EF
:1036700000AF786039603B681B6801221021386810
:103680009847F860FB6811221A603B681B6811229A
:103690000821386898470246FB685A60FB6818465C
:1036A0001037BD4680BD80B584B000AF786039600A
:1036B0003B681B680122102138689847F860FB6856
:1036C00000221A603B681B6800220821386898476E
:1036D0000246FB685A60FB6818461037BD4680BD3D
:1036E00080B584B000AF786039603B681B68012208
:1036F000102138689847F860FB6800221A603B6820
:103700001B6800220821386898470246FB685A6007
:10371000FB6818461037BD4680BD80B584B000AF49
:1037200078607B68FB60FB68D3F8B0355A1EFB6895
:10373000C3F8B025FB68D3F8B035002B08D1FB687F
:10374000D3F8B835FA6802F2B452F96810469847CF
:1037500000BF1037BD4680BD80B485B000AF786033
:103760007B68FB60FB68D3F8B0355A1CFB68C3F874
:10377000B02500BF1437BD465DF8047B704780B5A7
:1037800084B000AF78600B46FB707B68FB60FB6821
:103790001846FDF75BFDFB6818461037BD4680BD37
:1037A00080B584B000AFF860B9607A60FB707B6868
:1037B0005868BB68D96A7B681B68DB001A46FDF74E
:1037C0008FFB00BF1037BD4680BD80B584B000AF11
:1037D000F860B9607A603B60FB695868BB685968FB
:1037E000BB681B689B001A46FDF77AFB3B6A58686A
:1037F0007B6859687B681B689B001A46FDF770FB65
:103800007B6A58683B6859683B681B689B001A468E
:10381000FDF766FBBB6A5868BB695968BB691B68E2
:10382000DB001A46FDF75CFB00BF1037BD4680BDCC
:1038300080B584B000AF78607B681B6801224FF4CC
:10384000B86178689847F860FB687A6803F2B45307
:1038500092E8030083E80300FB680122C3F8B02567
:10386000FB68BB60BB6811221A61BB6800225A6109
:10387000BB6803229A61BB681122DA61BB6800222F
:103880001A62BB6801225A62BB6800229A62BB6856
:103890000022DA62BB680B221A63BB6800225A63FB
:1038A000BB6800229A63BB680022DA63BB68D0223F
:1038B0001A64BB684FF485725A64BB680B229A6421
:1038C000BB680322DA64BB6803221A65BB68002266
:1038D0005A65BB6800229A65BB680022DA65BB683E
:1038E00000221A66BB680B225A66BB682B229A66B6
:1038F000BB680022DA66BB6801221A67BB68002237
:103900005A67BB6800229A67BB680022DA67BB6807
:103910000022C3F88020BB680022C3F88420BB6863
:103920000122C3F88820BB680022C3F88C20BB6842
:103930000022C3F89020BB680022C3F89420BB6823
:103940000022C3F89820BB68012283F89C20BB6842
:10395000012283F89D20BB68002283F89E20BB686B
:1039600007221A60984B994A1A61974B01225A60B4
:10397000954B974A9A60944B944A1A60924B954A99
:10398000DA60914B944A5A628F4B01229A618E4BB6
:103990008F4ADA618C4B904A5A618B4B8D4A1A627E
:1039A000894B8E4A9A63884B0122DA62864B884A99
:1039B0001A63854B894A9A62834B894A5A63824BC0
:1039C000884ADA64804B01221A647F4B804A5A6429
:1039D0007D4B844ADA637C4B7E4A9A647A4B824AF6
:1039E0001A66794B01225A65774B794A9A65764B6C
:1039F0007D4A1A65744B774ADA65734B7B4A5A677E
:103A0000714B01229A66704B714ADA666E4B774AA7
:103A10005A666D4B6F4A1A676B4B754AC3F888201C
:103A2000694B0122DA67684B694AC3F88020664B0C
:103A30006F4A9A67644B674AC3F88420BB68624A3E
:103A40009A60BB6801225A606A4B6B4A1A61694BE3
:103A500001225A60674B5E4A9A60664B664A1A605A
:103A6000644B664ADA60BB68624ADA60BB68644AE3
:103A7000C3F8A020BB68634AC3F8A420BB68624AAD
:103A8000C3F89025BB68614AC3F89425BB68604AB7
:103A9000C3F89C25BB685F4AC3F8A820BB685E4A90
:103AA000C3F8E422BB685D4AC3F8AC20BB685C4A3B
:103AB000C3F8E822BB685B4AC3F8B020BB685A4A27
:103AC000C3F8EC22BB68594AC3F8B420BB68584A13
:103AD000C3F8F022BB68574AC3F8B820BB68564AFF
:103AE000C3F8F422BB68554AC3F8BC20BB68544AEB
:103AF000C3F8F822BB68534AC3F8C020BB68524AD7
:103B0000C3F8FC22BB68514AC3F8C420BB68504AC2
:103B1000C3F80023BB684F4AC3F8C820BB684E4AAD
:103B2000C3F80423BB684D4AC3F8CC20BB684C4A99
:103B3000C3F80823BB684B4AC3F8D020BB684A4A85
:103B4000C3F80C23BB68494AC3F8D420BB68484A71
:103B5000C3F81023BB68474AC3F8D820BB68464A5D
:103B6000C3F81423BB68454AC3F8DC20BB68444A49
:103B7000C3F81823BB68434AC3F8E020BB68424A35
:103B8000C3F81C23BB68414AC3F8E420BB68404A21
:103B9000C3F82023BB683F4AC3F8E820BB683E4A0D
:103BA000C3F82423BB683D4AC3F8EC20BB683C4AF9
:103BB000C3F82823BB683B4AC3F8F020BB683A4AE5
:103BC000C3F82C2372E000BF204400206CBE0A081A
:103BD000A8820A08888A0A083CBF0A080CC00A089A
:103BE0009CBA0A08DCC00A08ACC10A087CC20A08F0
:103BF0004CC30A08AC4400209CBD0A0844B90A081A
:103C00001B370008593700087F370008A137000824
:103C1000CB370008350401086D1200080D65000857
:103C2000BF12000877650008F91200085D650008FA
:103C30004B13000869660008851300084F660008EA
:103C4000D7130008AD690008111400085B6700086D
:103C50004B140008416700089D1400084D680008D7
:103C6000D714000833680008291500089568000873
:103C7000631500087B680008B51500082369000873
:103C8000EF15000809690008411600087569000869
:103C90007B1600085B690008CD160008A102010828
:103CA000071700080151000859170008BB68AA4A05
:103CB000C3F8F420BB68A94AC3F83023BB68A84AFC
:103CC000C3F8F820BB68A74AC3F83423BB68A64AE8
:103CD000C3F8FC20BB68A54AC3F83823BB68A44AD4
:103CE000C3F80021BB68A34AC3F83C23BB68A24ABF
:103CF000C3F80421BB68A14AC3F84023BB68A04AAB
:103D0000C3F80821BB689F4AC3F84423BB689E4A96
:103D1000C3F80C21BB689D4AC3F84823BB689C4A82
:103D2000C3F81021BB689B4AC3F84C23BB689A4A6E
:103D3000C3F81421BB68994AC3F85023BB68984A5A
:103D4000C3F81821BB68974AC3F85423BB68964A46
:103D5000C3F81C21BB68954AC3F85823BB68944A32
:103D6000C3F82021BB68934AC3F85C23BB68924A1E
:103D7000C3F82421BB68914AC3F86023BB68904A0A
:103D8000C3F82821BB688F4AC3F86423BB688E4AF6
:103D9000C3F82C21BB688D4AC3F86823BB688C4AE2
:103DA000C3F83021BB688B4AC3F86C23BB688A4ACE
:103DB000C3F83421BB68894AC3F87023BB68884ABA
:103DC000C3F83821BB68874AC3F87423BB68864AA6
:103DD000C3F83C21BB68854AC3F87823BB68844A92
:103DE000C3F84021BB68834AC3F87C23BB68824A7E
:103DF000C3F84421BB68814AC3F88023BB68804A6A
:103E0000C3F84821BB687F4AC3F88423BB687E4A55
:103E1000C3F84C21BB687D4AC3F88823BB687C4A41
:103E2000C3F85021BB687B4AC3F88C23BB687A4A2D
:103E3000C3F85421BB68794AC3F89023BB68784A19
:103E4000C3F85821BB68774AC3F89423BB68764A05
:103E5000C3F85C21BB68754AC3F89823BB68744AF1
:103E6000C3F86021BB68734AC3F89C23BB68724ADD
:103E7000C3F86421BB68714AC3F8A023BB68704AC9
:103E8000C3F86821BB686F4AC3F8A423BB686E4AB5
:103E9000C3F86C21BB686D4AC3F8A823BB686C4AA1
:103EA000C3F87021BB686B4AC3F8AC23BB686A4A8D
:103EB000C3F87421BB68694AC3F8B023BB68684A79
:103EC000C3F87821BB68674AC3F8B423BB68664A65
:103ED000C3F87C21BB68654AC3F8B823BB68644A51
:103EE000C3F88021BB68634AC3F8BC23BB68624A3D
:103EF000C3F88421BB68614AC3F8C023BB68604A29
:103F0000C3F88821BB685F4AC3F8C423BB685E4A14
:103F1000C3F88C21BB685D4AC3F8C823BB685C4A00
:103F2000C3F89021BB685B4AC3F8CC23BB685A4AEC
:103F3000C3F89421BB68594AC3F8D023BB68584AD8
:103F4000C3F89821BB68574AC3F8D423BB68564AC4
:103F5000C3F89C21AAE000BF3B5200089317000859
:103F600021520008E5170008495300081F180008EF
:103F70001953000871180008F3530008AB18000823
:103F8000D9530008FD1800088154000837190008AB
:103F90006754000889190008D3540008C3190008A1
:103FA000B9540008151A0008F1F900084F1A000862
:103FB000A5550008891A00088D560008C31A000884
:103FC000B9590008FD1A00087B5A0008371B000881
:103FD00075570008711B0008F7580008AB1B000854
:103FE000817A0008E51B0008E9920008371C0008E8
:103FF000F14F0008711C0008D74F0008C31C0008CF
:104000007F500008FD1C0008655000084F1D000887
:10401000D1500008891D0008B7500008DB1D0008BA
:104020006D550008151E000853550008671E00084E
:1040300025550008A11E00080B550008F31E0008B6
:10404000950501082D1F0008A57C00087F1F0008AA
:1040500051580008D11F00083758000823200008D5
:1040600081BD00085D200008DD4A00089720000897
:10407000F74A0008D1200008114B00080B21000866
:10408000E94B00085D210008034C00089721000857
:10409000575B0008E9210008C15C000823220008E2
:1040A000EB5C00085D2200080D5D0008BB68AA4AB1
:1040B000C3F8D823BB68A94AC3F8A021BB68A84AA3
:1040C000C3F8DC23BB68A74AC3F8A421BB68A64A8F
:1040D000C3F8E023BB68A54AC3F8A821BB68A44A7B
:1040E000C3F8E423BB68A34AC3F8AC21BB68A24A67
:1040F000C3F8E823BB68A14AC3F8B021BB68A04A53
:10410000C3F8EC23BB689F4AC3F8B421BB689E4A3E
:10411000C3F8F023BB689D4AC3F8B821BB689C4A2A
:10412000C3F8F423BB689B4AC3F8BC21BB689A4A16
:10413000C3F8F823BB68994AC3F8C021BB68984A02
:10414000C3F8FC23BB68974AC3F8C421BB68964AEE
:10415000C3F80024BB68954AC3F8C821BB68944AD9
:10416000C3F80424BB68934AC3F8CC21BB68924AC5
:10417000C3F80824BB68914AC3F8D021BB68904AB1
:10418000C3F80C24BB688F4AC3F8D421BB688E4A9D
:10419000C3F81024BB688D4AC3F8D821BB688C4A89
:1041A000C3F81424BB688B4AC3F8DC21BB688A4A75
:1041B000C3F81824BB68894AC3F8E021BB68884A61
:1041C000C3F81C24BB68874AC3F8E421BB68864A4D
:1041D000C3F82024BB68854AC3F8E821BB68844A39
:1041E000C3F82424BB68834AC3F8EC21BB68824A25
:1041F000C3F82824BB68814AC3F8F021BB68804A11
:10420000C3F82C24BB687F4AC3F8F421BB687E4AFC
:10421000C3F83024BB687D4AC3F8F821BB687C4AE8
:10422000C3F83424BB687B4AC3F8FC21BB687A4AD4
:10423000C3F83824BB68794AC3F80022BB68784ABF
:10424000C3F83C24BB68774AC3F80422BB68764AAB
:10425000C3F84024BB68754AC3F80822BB68744A97
:10426000C3F84424BB68734AC3F80C22BB68724A83
:10427000C3F84824BB68714AC3F81022BB68704A6F
:10428000C3F84C24BB686F4AC3F81422BB686E4A5B
:10429000C3F85024BB686D4AC3F81822BB686C4A47
:1042A000C3F85424BB686B4AC3F81C22BB686A4A33
:1042B000C3F85824BB68694AC3F82022BB68684A1F
:1042C000C3F85C24BB68674AC3F82422BB68664A0B
:1042D000C3F86024BB68654AC3F82822BB68644AF7
:1042E000C3F86424BB68634AC3F82C22BB68624AE3
:1042F000C3F86824BB68614AC3F83022BB68604ACF
:10430000C3F86C24BB685F4AC3F83422BB685E4ABA
:10431000C3F87024BB685D4AC3F83822BB685C4AA6
:10432000C3F87424BB685B4AC3F83C22BB685A4A92
:10433000C3F87824BB68594AC3F84022BB68584A7E
:10434000C3F87C24BB68574AC3F84422BB68564A6A
:10435000C3F88024AAE000BF972200082F5D000860
:10436000D1220008515D00080B2300086B5D000896
:1043700045230008435E0008972300085D5E00089F
:10438000D12300088B5E000823240008195F000871
:1043900075240008FF5E0008C72400080B600008B1
:1043A00001250008F15F000853250008FD600008A2
:1043B0008D250008E3600008DF2500083D5B00084C
:1043C00019260008F96E000853260008F375000846
:1043D0008D26000867760008DF2600083F77000872
:1043E00031270008917F0008832700080D75000819
:1043F000D5270008998000080F28000839750008A3
:10440000612800087F7500089B2800086575000872
:10441000ED280008CD77000827290008B3770008A9
:1044200079290008E9690008B3290008097800081B
:10443000ED2900086B4E0008272A0008D34E00081B
:10444000612A00089F4E00089B2A0008074F0008B9
:10445000D52A00083B4F00080F2B00086F4F0008BB
:10446000492B0008B94E0008832B0008214F000893
:10447000BD2B0008554F0008F72B0008894F000896
:10448000312C0008BD4F00086B2C0008A34F00081A
:10449000A52C0008854E0008DF2C0008ED4E000812
:1044A000192D000869BE0008532D0008BB68A94AF1
:1044B000C3F84822BB68A84AC3F88424BB68A74A4B
:1044C000C3F84C22BB68A64AC3F88824BB68A54A37
:1044D000C3F85022BB68A44AC3F88C24BB68A34A23
:1044E000C3F85422BB68A24AC3F89024BB68A14A0F
:1044F000C3F85822BB68A04AC3F89424BB689F4AFB
:10450000C3F85C22BB689E4AC3F89824BB689D4AE6
:10451000C3F86022BB689C4AC3F89C24BB689B4AD2
:10452000C3F86422BB689A4AC3F8A024BB68994ABE
:10453000C3F86822BB68984AC3F8A424BB68974AAA
:10454000C3F86C22BB68964AC3F8A824BB68954A96
:10455000C3F87022BB68944AC3F8AC24BB68934A82
:10456000C3F87422BB68924AC3F8B024BB68914A6E
:10457000C3F87822BB68904AC3F8B424BB688F4A5A
:10458000C3F87C22BB688E4AC3F8B824BB688D4A46
:10459000C3F88022BB688C4AC3F8BC24BB688B4A32
:1045A000C3F88422BB688A4AC3F8C024BB68894A1E
:1045B000C3F88822BB68884AC3F8C424BB68874A0A
:1045C000C3F88C22BB68864AC3F8C824BB68854AF6
:1045D000C3F89022BB68844AC3F8CC24BB68834AE2
:1045E000C3F89422BB68824AC3F8D024BB68814ACE
:1045F000C3F89822BB68804AC3F8D424BB687F4ABA
:10460000C3F89C22BB687E4AC3F8D824BB687D4AA5
:10461000C3F8A022BB687C4AC3F8DC24BB687B4A91
:10462000C3F8A422BB687A4AC3F8E024BB68794A7D
:10463000C3F8A822BB68784AC3F8E424BB68774A69
:10464000C3F8AC22BB68764AC3F8E824BB68754A55
:10465000C3F8B022BB68744AC3F8EC24BB68734A41
:10466000C3F8B422BB68724AC3F8F024BB68714A2D
:10467000C3F8B822BB68704AC3F8F424BB686F4A19
:10468000C3F8BC22BB686E4AC3F8F824BB686D4A05
:10469000C3F8C022BB686C4AC3F8FC24BB686B4AF1
:1046A000C3F8C422BB686A4AC3F80025BB68694ADC
:1046B000C3F8C822BB68684AC3F80425BB68674AC8
:1046C000C3F8CC22BB68664AC3F80825BB68654AB4
:1046D000C3F8D022BB68644AC3F80C25BB68634AA0
:1046E000C3F8D422BB68624AC3F81025BB68614A8C
:1046F000C3F8D822BB68604AC3F81425BB685F4A78
:10470000C3F8DC22BB685E4AC3F81825BB685D4A63
:10471000C3F8E022BB685C4AC3F81C25BB685B4A4F
:10472000C3F824255A4B1A68BB68C3F82825BB6810
:10473000584AC3F82C25BB68574AC3F83025574B55
:104740001A68BB68C3F83425BB68554AC3F83C25D2
:10475000A8E000BF994900088D2D0008A94A00086B
:10476000C72D0008C34A0008012E00087F4C00082E
:104770003B2E0008314C0008752E00084B4C0008F9
:10478000AF2E0008654C0008E92E0008B34C000865
:10479000232F0008994C0008752F0008A54D00082C
:1047A000AF2F00088B4D000801300008334E000881
:1047B0003B300008194E00088D300008A181000828
:1047C000C7300008A99B00080531000819D8000867
:1047D0004331000851050108813100086D6C000863
:1047E000BF310008876C0008F9310008A16C00088F
:1047F00033320008BB6C00086D320008D56C00082D
:10480000A7320008EF6C0008E1320008096D0008CB
:104810001B330008236D0008553300083D6D000868
:104820008F330008156E0008E1330008896E000818
:1048300033340008C16E000885340008196F000881
:10484000D73400086970000811350008B9710008F4
:104850004B350008A17200088535000889730008EF
:10486000BF3500084B740008F93500082B610008BB
:10487000333600082F6300086D360008D96400083D
:10488000A7360008F3640008E136000800000020A5
:104890009443002030030020480300209843002068
:1048A000880700202A4B1A68BB68C3F83825BB6804
:1048B000284AC3F84025BB68274AC3F85C25BB6873
:1048C000264AC3F84425BB68254AC3F84825254B2A
:1048D0001A68BB68C3F84C25234B1A68BB68C3F839
:1048E0005025224B1A68BB68C3F85425204B1A6820
:1048F000BB68C3F85825BB681E4AC3F860251E4B29
:104900001A68BB68C3F86425BB681C4AC3F86825ED
:104910001B4B1A68BB68C3F86C251A4B1A68BB6836
:10492000C3F87025184B1A68BB68C3F87425BB68B8
:10493000164AC3F87825FB68154AC3F8BC25BB683E
:104940000122C3F88025FB6818461037BD4680BD9C
:104950009C430020882E0020902F002098300020BB
:10496000F8300020A0430020A4430020A8430020EA
:10497000AC43002040310020B043002048350020E7
:10498000B4430020B8430020BC4300206035002021
:10499000C04300200000000090B587B000AFF86071
:1049A000B9607A60BB68DB6A1033D3E90023114633
:1049B000396123F000437B61BB68DB6808331B6807
:1049C000002B14BF01230023DAB27B685B681A60F6
:1049D000BB68DB6A5833D3E9000101231C464FF062
:1049E00000022F4BFCF71AF80346002B01D10023DD
:1049F0001C46E3B283F00103DBB2002B1FD1BB687E
:104A0000DB6A4833D3E9000121A3D3E90023FBF794
:104A100093FD02460B46104619464FF00002214B0B
:104A2000FBF7D4FB02460B46104619464FF0000236
:104A30004FF00003FBF7E8FF0346002B01D10122F2
:104A400000E000227B685B6804331A6012A3D3E99C
:104A50000023D7E90401FBF7E1FF0346002B0AD14D
:104A60004FF000024FF00003D7E90401FBF7CCFF41
:104A70000346002B01D1012200E000227B685B6825
:104A800008331A60002318461C37BD4690BD00BF8E
:104A90008B6CE7FBA9F1A2BF0000000000C07240D0
:104AA0000000E03F0000484080B485B000AFF860EF
:104AB000B9607A60002318461437BD465DF8047B60
:104AC000704780B485B000AFF860B9607A600023A9
:104AD00018461437BD465DF8047B704780B485B036
:104AE00000AFF860B9607A60002318461437BD46FD
:104AF0005DF8047B704780B485B000AFF860B960A2
:104B00007A60002318461437BD465DF8047B704771
:104B100080B485B000AFF860B9607A607B6811221C
:104B20001A607B6800225A607B689B6800221A60CA
:104B30007B689B68043300221A607B689B6808339B
:104B400000221A607B689B680C3300221A607B6825
:104B50009B68103300221A607B689B681433002224
:104B60001A607B689B68183300221A607B689B6818
:104B70001C3300221A607B689B68203300221A6075
:104B80007B689B68243300221A607B689B6828330B
:104B900000221A607B689B682C3300221A607B68B5
:104BA0009B68303300221A607B689B683433002294
:104BB0001A607B689B68383300221A607B689B68A8
:104BC0003C3300221A607B689B68403300221A60E5
:104BD0007B689B68443300221A6000231846143710
:104BE000BD465DF8047B704780B485B000AFF860C7
:104BF000B9607A60002318461437BD465DF8047B1F
:104C0000704780B485B000AFF860B9607A607B68A7
:104C100000221A607B6800225A607B689B68002231
:104C20001A60002318461437BD465DF8047B7047B0
:104C300080B485B000AFF860B9607A600023184690
:104C40001437BD465DF8047B704780B485B000AF73
:104C5000F860B9607A60002318461437BD465DF8E5
:104C6000047B704780B485B000AFF860B9607A60AB
:104C7000002318461437BD465DF8047B704780B4A6
:104C800085B000AFF860B9607A6000231846143729
:104C9000BD465DF8047B704780B485B000AFF86016
:104CA000B9607A60002318461437BD465DF8047B6E
:104CB000704780B485B000AFF860B9607A607B68F7
:104CC00011221A607B6800225A607B689B68002270
:104CD0001A607B689B68043300221A607B689B68BB
:104CE000083300221A607B689B680C3300221A602C
:104CF0007B689B68103300221A607B689B681433C2
:104D000000221A607B689B68183300221A607B6857
:104D10009B681C3300221A607B689B68203300224A
:104D20001A607B689B68243300221A607B689B684A
:104D3000283300221A607B689B682C3300221A609B
:104D40007B689B68303300221A607B689B68343331
:104D500000221A607B689B68383300221A607B68E7
:104D60009B683C3300221A607B689B6840330022BA
:104D70001A607B689B68443300221A60002318463F
:104D80001437BD465DF8047B704780B485B000AF32
:104D9000F860B9607A60002318461437BD465DF8A4
:104DA000047B704780B485B000AFF860B9607A606A
:104DB0007B6807221A607B6800225A607B689B68C8
:104DC00000221A607B689B68043300221A607B68AB
:104DD0009B68083300221A607B689B680C330022B2
:104DE0001A607B689B68103300221A607B689B689E
:104DF000143300221A607B689B68183300221A6003
:104E00007B689B681C3300221A6000231846143705
:104E1000BD465DF8047B704780B485B000AFF86094
:104E2000B9607A60002318461437BD465DF8047BEC
:104E3000704780B485B000AFF860B9607A607B6875
:104E400001221A607B6800225A607B689B680022FE
:104E50001A607B689B68043300221A60002318469E
:104E60001437BD465DF8047B704780B485B000AF51
:104E7000F860B9607A60002318461437BD465DF8C3
:104E8000047B704780B485B000AFF860B9607A6089
:104E9000002318461437BD465DF8047B704780B484
:104EA00085B000AFF860B9607A6000231846143707
:104EB000BD465DF8047B704780B485B000AFF860F4
:104EC000B9607A60002318461437BD465DF8047B4C
:104ED000704780B485B000AFF860B9607A60002395
:104EE00018461437BD465DF8047B704780B485B022
:104EF00000AFF860B9607A60002318461437BD46E9
:104F00005DF8047B704780B485B000AFF860B9608D
:104F10007A60002318461437BD465DF8047B70475D
:104F200080B485B000AFF860B9607A60002318469D
:104F30001437BD465DF8047B704780B485B000AF80
:104F4000F860B9607A60002318461437BD465DF8F2
:104F5000047B704780B485B000AFF860B9607A60B8
:104F6000002318461437BD465DF8047B704780B4B3
:104F700085B000AFF860B9607A6000231846143736
:104F8000BD465DF8047B704780B485B000AFF86023
:104F9000B9607A60002318461437BD465DF8047B7B
:104FA000704780B485B000AFF860B9607A600023C4
:104FB00018461437BD465DF8047B704780B485B051
:104FC00000AFF860B9607A60002318461437BD4618
:104FD0005DF8047B704780B485B000AFF860B960BD
:104FE0007A60002318461437BD465DF8047B70478D
:104FF00080B485B000AFF860B9607A607B68072242
:105000001A607B6811225A607B689B6800221A60D4
:105010007B689B68043300221A607B689B680833B6
:1050200000221A607B689B680C3300221A607B6840
:105030009B68103300221A607B689B68143300223F
:105040001A607B689B68183300221A607B689B6833
:105050001C3300221A60002318461437BD465DF841
:10506000047B704780B485B000AFF860B9607A60A7
:10507000002318461437BD465DF8047B704780B4A2
:1050800085B000AFF860B9607A607B6801221A6071
:105090007B6811225A607B689B6800221A607B68DB
:1050A0009B68043300221A60002318461437BD465B
:1050B0005DF8047B704780B485B000AFF860B960DC
:1050C0007A60002318461437BD465DF8047B7047AC
:1050D00080B485B000AFF860B9607A607B68002268
:1050E0001A607B6811225A607B689B6800221A60F4
:1050F000002318461437BD465DF8047B7047000056
:1051000080B485B000AFF860B9607A607B685B6896
:1051100003F120013EA3D3E90023C1E900237B680A
:105120005B6803F1280136A3D3E90023C1E900231A
:105130007B685B6803F1380137A3D3E90023C1E939
:1051400000237B6859684FF000022F4BC1E9002310
:105150007B685B6803F108014FF000022A4BC1E94C
:1051600000237B685B6803F110014FF00002264BBF
:10517000C1E900237B685B6803F118011CA3D3E934
:105180000023C1E900237B685B6803F130014FF025
:1051900000021D4BC1E900237B685B6803F14001FD
:1051A0004FF00002194BC1E900237B685B6803F1F3
:1051B00048014FF00002154BC1E900237B685B6892
:1051C00003F150010CA3D3E90023C1E900237B685C
:1051D0005B6803F158010AA3D3E90023C1E9002366
:1051E000002318461437BD465DF8047B704700BFA6
:1051F000D318308D01D368BF9A9999999999A93F8D
:10520000FCA9F1D24D62603F0000F0BF0000F03F0A
:105210007B14AE47E17A64BFFCA9F1D24D6260BF56
:1052200080B485B000AFF860B9607A60002318469A
:105230001437BD465DF8047B704780B485B000AF7D
:10524000F860B9607A607B6811221A607B6811226D
:105250005A607B689B6800221A607B689B680433F5
:1052600000221A607B689B68083300221A607B6802
:105270009B680C3300221A607B689B681033002205
:105280001A607B689B68143300221A607B689B68F5
:10529000183300221A607B689B681C3300221A6056
:1052A0007B689B68203300221A607B689B682433EC
:1052B00000221A607B689B68283300221A607B6892
:1052C0009B682C3300221A607B689B683033002275
:1052D0001A607B689B68343300221A607B689B6885
:1052E000383300221A607B689B683C3300221A60C6
:1052F0007B689B68403300221A607B689B6844335C
:1053000000221A60002318461437BD465DF8047B5E
:10531000704700000000000080B485B000AFF86066
:10532000B9607A607B68596805A3D3E90023C1E9B5
:105330000023002318461437BD465DF8047B7047F0
:10534000D318308D01D3683F80B485B000AFF860CA
:10535000B9607A607B6807221A607B6811225A6004
:105360007B689B681B4A12681A607B689B680433E1
:10537000184A52681A607B689B680833154A92681D
:105380001A607B689B680C33124AD2681A607B688B
:105390009B6810330F4A12691A607B689B6814334C
:1053A0000C4A52691A607B689B681833094A9269F3
:1053B0001A607B689B681C33064AD2691A607B6856
:1053C000DB6801221A60002318461437BD465DF8D9
:1053D000047B70477835002080B485B000AFF8605A
:1053E000B9607A60002318461437BD465DF8047B27
:1053F000704780B485B000AFF860B9607A607B68B0
:1054000007221A607B6811225A607B689B68002221
:105410001A607B689B68043300221A607B689B6873
:10542000083300221A607B689B680C3300221A60E4
:105430007B689B68103300221A607B689B6814337A
:1054400000221A607B689B68183300221A607B6810
:105450009B681C3300221A60002318461437BD468F
:105460005DF8047B704780B485B000AFF860B96028
:105470007A60002318461437BD465DF8047B7047F8
:1054800080B485B000AFF860B9607A607B680122B3
:105490001A607B6811225A607B689B6800221A6040
:1054A0007B689B68043300221A6000231846143777
:1054B000BD465DF8047B704780B485B000AFF860EE
:1054C000B9607A60002318461437BD465DF8047B46
:1054D000704780B485B000AFF860B9607A607B68CF
:1054E00001221A607B6811225A607B689B68002247
:1054F0001A607B689B68043300221A6000231846F8
:105500001437BD465DF8047B704780B485B000AFAA
:10551000F860B9607A60002318461437BD465DF81C
:10552000047B704780B485B000AFF860B9607A60E2
:105530007B6800221A607B6811225A607B689B6836
:1055400000221A60002318461437BD465DF8047B1C
:10555000704780B485B000AFF860B9607A6000230E
:1055600018461437BD465DF8047B704780B485B09B
:1055700000AFF860B9607A607B6801221A607B68CE
:1055800018225A607B689B6800221A607B689B68BF
:10559000043300221A60002318461437BD465DF814
:1055A000047B704780B485B000AFF860B9607A6062
:1055B0007B685B68344A12781A707B685B680133D9
:1055C000314A52781A707B685B6802332E4A9278AF
:1055D0001A707B685B6803332B4AD2781A707B6839
:1055E0005B680433284A12791A707B685B6805335C
:1055F000254A52791A707B685B680633224A927991
:105600001A707B685B6807331F4AD2791A707B680F
:105610005B6808331C4A127A1A707B685B6809332E
:10562000194A527A1A707B685B680A33164A927A72
:105630001A707B685B680B33134AD27A1A707B68E6
:105640005B680C33104A127B1A707B685B680D3301
:105650000D4A527B1A707B685B680E330A4A927B54
:105660001A707B685B680F33074AD27B1A707B68BD
:105670005B681033044A127C1A70002318461437F2
:10568000BD465DF8047B70479835002080B485B036
:1056900000AFF860B9607A607B685B68344A127862
:1056A0001A707B685B680133314A52781A707B68E4
:1056B0005B6802332E4A92781A707B685B6803330A
:1056C0002B4AD2781A707B685B680433284A1279B7
:1056D0001A707B685B680533254A52791A707B68BB
:1056E0005B680633224A92791A707B685B680733DD
:1056F0001F4AD2791A707B685B6808331C4A127A99
:105700001A707B685B680933194A527A1A707B6891
:105710005B680A33164A927A1A707B685B680B33AF
:10572000134AD27A1A707B685B680C33104A127B7A
:105730001A707B685B680D330D4A527B1A707B6868
:105740005B680E330A4A927B1A707B685B680F3382
:10575000074AD27B1A707B685B681033044A127C5C
:105760001A70002318461437BD465DF8047B704755
:10577000AC35002080B485B000AFF860B9607A60C5
:105780007B685B6800221A707B685B6801330022CB
:105790001A707B685B68023300221A707B685B6852
:1057A000033300221A707B685B68043300221A708E
:1057B0007B685B68053300221A707B685B68063380
:1057C00000221A707B685B68073300221A707B68BE
:1057D0005B68083300221A707B685B68093300221B
:1057E0001A707B685B680A3300221A707B685B68FA
:1057F0000B3300221A707B685B680C3300221A702E
:105800007B685B680D3300221A707B685B680E331F
:1058100000221A707B685B680F3300221A707B6865
:105820005B68103300221A70002318461437BD46F7
:105830005DF8047B704780B485B000AFF860B96054
:105840007A60002318461437BD465DF8047B704724
:1058500080B485B000AFF860B9607A607B680C22D4
:105860001A607B6811225A607B689B6800221A606C
:105870007B689B68043300221A607B689B6808334E
:1058800000221A607B689B680C3300221A607B68D8
:105890009B68103300221A607B689B6814330022D7
:1058A0001A607B689B68183300221A607B689B68CB
:1058B0001C3300221A607B689B68203300221A6028
:1058C0007B689B68243300221A607B689B682833BE
:1058D00000221A607B689B682C3300221A607B6868
:1058E0009B68303300221A60002318461437BD46E7
:1058F0005DF8047B704780B485B000AFF860B96094
:105900007A607B685B6800221A707B685B68013391
:1059100000221A707B685B68023300221A707B6871
:105920005B68033300221A707B685B6804330022D3
:105930001A707B685B68053300221A707B685B68AD
:10594000063300221A707B685B68073300221A70E6
:105950007B685B68083300221A707B685B680933D8
:1059600000221A707B685B680A3300221A707B6819
:105970005B680B3300221A707B685B680C33002273
:105980001A707B685B680D3300221A707B685B6855
:105990000E3300221A707B685B680F3300221A7086
:1059A0007B685B68103300221A7000231846143796
:1059B000BD465DF8047B704780B485B000AFF860E9
:1059C000B9607A607B685B6800221A707B685B68EC
:1059D000013300221A707B685B68023300221A7060
:1059E0007B685B68033300221A707B685B68043352
:1059F00000221A707B685B68053300221A707B688E
:105A00005B68063300221A707B685B6807330022EC
:105A10001A707B685B68083300221A707B685B68C9
:105A2000093300221A707B685B680A3300221A70FF
:105A30007B685B680B3300221A707B685B680C33F1
:105A400000221A707B685B680D3300221A707B6835
:105A50005B680E3300221A707B685B680F3300228C
:105A60001A707B685B68103300221A700023184696
:105A70001437BD465DF8047B704780B485B000AF35
:105A8000F860B9607A607B685B6800221A707B6896
:105A90005B68013300221A707B685B680233002266
:105AA0001A707B685B68033300221A707B685B683E
:105AB000043300221A707B685B68053300221A7079
:105AC0007B685B68063300221A707B685B6807336B
:105AD00000221A707B685B68083300221A707B68AA
:105AE0005B68093300221A707B685B680A33002206
:105AF0001A707B685B680B3300221A707B685B68E6
:105B00000C3300221A707B685B680D3300221A7018
