:020000040800F2
:10000000000002202DED000831CE000839CE000896
:1000100041CE000849CE000851CE00080000000083
:10002000000000000000000000000000E5B400082F
:1000300059CE000800000000A1B40008D1B30008A8
:100040007DED00087DED00087DED00087DED0008E8
:100050007DED00087DED00087DED00087DED0008D8
:100060007DED00087DED00087DED000867CE0008FD
:100070007DED00087DED00087DED00087DED0008B8
:1000800095C5000875C5000871EF00087DED0008F2
:100090007DED00087DED00087DED00087DED000898
:1000A0007DED000875CE00087DED00087DED0008AF
:1000B0007DED00087DED00087DED00087DED000878
:1000C0007DED00087DED00087DED00087DED000868
:1000D0007DED00087DED000861C500087DED00089C
:1000E0007DED00087DED00087DED00087DED000848
:1000F0007DED00087DED00087DED000889CE00084B
:100100007DED00087DED00087DED00087DED000827
:100110007DED00087DED00087DED00087DED000817
:100120007DED00087DED00087DED00087DED000807
:100130007DED000800000000000000007DED0008DB
:100140007DED00087DED00087DED00087DED0008E7
:100150007DED00087DED00087DED00087DED0008D7
:100160007DED00087DED00087DED00087DED0008C7
:100170007DED00087DED000800000000000000009B
:080180007DED00087DED000893
:1001880081F0004102E000BF83F0004330B54FEA40
:1001980041044FEA430594EA050F08BF90EA020FAD
:1001A8001FBF54EA000C55EA020C7FEA645C7FEA40
:1001B800655C00F0E2804FEA5454D4EB5555B8BF63
:1001C8006D420CDD2C4480EA020281EA030382EAD4
:1001D800000083EA010180EA020281EA0303362D66
:1001E80088BF30BD11F0004F4FEA01314FF4801C39
:1001F8004CEA113102D0404261EB410113F0004F4B
:100208004FEA03334CEA133302D0524263EB430301
:1002180094EA050F00F0A780A4F10104D5F1200E9F
:100228000DDB02FA0EFC22FA05F2801841F10001FA
:1002380003FA0EF2801843FA05F359410EE0A5F1CE
:1002480020050EF1200E012A03FA0EFC28BF4CF0FF
:10025800020C43FA05F3C01851EBE37101F00045B5
:1002680007D54FF0000EDCF1000C7EEB00006EEBC2
:100278000101B1F5801F1BD3B1F5001F0CD349084C
:100288005FEA30004FEA3C0C04F101044FEA4452A3
:1002980012F5800F80F09A80BCF1004F08BF5FEA2A
:1002A800500C50F1000041EB045141EA050130BD0A
:1002B8005FEA4C0C404141EB0101013C28BFB1F51C
:1002C800801FE9D291F0000F04BF01460020B1FA67
:1002D80081F308BF2033A3F10B03B3F120020CDA3A
:1002E8000C3208DD02F1140CC2F10C0201FA0CF018
:1002F80021FA02F10CE002F11402D8BFC2F1200C7D
:1003080001FA02F120FA0CFCDCBF41EA0C01904032
:10031800E41AA2BF01EB0451294330BD6FEA04047B
:100328001F3C1CDA0C340EDC04F11404C4F1200266
:1003380020FA04F001FA02F340EA030021FA04F378
:1003480045EA030130BDC4F10C04C4F1200220FACF
:1003580002F001FA04F340EA0300294630BD21FA0D
:1003680004F0294630BD94F0000F83F4801306BFD3
:1003780081F480110134013D4EE77FEA645C18BFC7
:100388007FEA655C29D094EA050F08BF90EA020F5E
:1003980005D054EA000C04BF1946104630BD91EA56
:1003A800030F1EBF0021002030BD5FEA545C05D159
:1003B8004000494128BF41F0004130BD14F5800498
:1003C8003CBF01F5801130BD01F0004545F0FE410C
:1003D80041F470014FF0000030BD7FEA645C1ABF41
:1003E800194610467FEA655C1CBF0B46024650EA78
:1003F800013406BF52EA033591EA030F41F40021A4
:1004080030BD00BF90F0000F04BF0021704730B529
:100418004FF4806404F132044FF000054FF00001FE
:1004280050E700BF90F0000F04BF0021704730B5BF
:100438004FF4806404F1320410F0004548BF404294
:100448004FF000013EE700BF42004FEAE2014FEAE9
:1004580031014FEA02701FBF12F07F4393F07F4FC4
:1004680081F06051704732F07F4208BF704793F0C7
:100478007F4F04BF41F40021704730B54FF46074DA
:1004880001F0004521F000411CE700BF50EA0102DD
:1004980008BF704730B54FF000050AE050EA010286
:1004A80008BF704730B511F0004502D5404261EBF6
:1004B80041014FF4806404F132045FEA915C3FF437
:1004C800D8AE4FF003025FEADC0C18BF03325FEAD4
:1004D800DC0C18BF033202EBDC02C2F1200300FA85
:1004E80003FC20FA02F001FA03FE40EA0E0021FAAA
:1004F80002F11444BDE600BF70B54FF0FF0C4CF498
:10050800E06C1CEA11541DBF1CEA135594EA0C0F49
:1005180095EA0C0F00F0DEF82C4481EA030621EA84
:100528004C5123EA4C5350EA013518BF52EA0335BF
:1005380041F4801143F4801338D0A0FB02CE4FF071
:100548000005E1FB02E506F00042E0FB03E54FF0A1
:100558000006E1FB03569CF0000F18BF4EF0010E99
:10056800A4F1FF04B6F5007F64F5407404D25FEA95
:100578004E0E6D4146EB060642EAC62141EA555148
:100588004FEAC52040EA5E504FEACE2EB4F1FD0C8A
:1005980088BFBCF5E06F1ED8BEF1004F08BF5FEA08
:1005A800500E50F1000041EB045170BD06F00046BA
:1005B80046EA010140EA020081EA0301B4EB5C0467
:1005C800C2BFD4EB0C0541EA045170BD41F480115F
:1005D8004FF0000E013C00F3AB8014F1360FDEBF84
:1005E800002001F0004170BDC4F10004203C35DA60
:1005F8000C341BDC04F11404C4F1200500FA05F3E3
:1006080020FA04F001FA05F240EA020001F0004283
:1006180021F0004110EBD37021FA04F642EB0601F9
:100628005EEA430E08BF20EAD37070BDC4F10C0423
:10063800C4F1200500FA04F320FA05F001FA04F2E7
:1006480040EA020001F0004110EBD37041F10001D3
:100658005EEA430E08BF20EAD37070BDC4F12005DE
:1006680000FA05F24EEA020E20FA04F301FA05F246
:1006780043EA020321FA04F001F0004121FA04F2EE
:1006880020EA020000EBD3705EEA430E08BF20EABE
:10069800D37070BD94F0000F0FD101F000464000F8
:1006A80041EB010111F4801F08BF013CF7D041EA7A
:1006B800060195F0000F18BF704703F0004652007E
:1006C80043EB030313F4801F08BF013DF7D043EA4F
:1006D8000603704794EA0C0F0CEA135518BF95EA05
:1006E8000C0F0CD050EA410618BF52EA4306D1D18C
:1006F80081EA030101F000414FF0000070BD50EAAB
:10070800410606BF1046194652EA430619D094EA34
:100718000C0F02D150EA013613D195EA0C0F05D11E
:1007280052EA03361CBF104619460AD181EA030172
:1007380001F0004141F0FE4141F470014FF000002A
:1007480070BD41F0FE4141F4780170BD70B54FF0C5
:10075800FF0C4CF4E06C1CEA11541DBF1CEA135545
:1007680094EA0C0F95EA0C0F00F0A7F8A4EB050427
:1007780081EA030E52EA03354FEA013100F088801E
:100788004FEA03334FF0805545EA131343EA1263E7
:100798004FEA022245EA111545EA10654FEA00269C
:1007A8000EF000419D4208BF964244F1FD0404F555
:1007B800407402D25B084FEA3202B61A65EB0305B1
:1007C8005B084FEA32024FF480104FF4002CB6EB6E
:1007D800020E75EB030E22BFB61A754640EA0C00EE
:1007E8005B084FEA3202B6EB020E75EB030E22BF2E
:1007F800B61A754640EA5C005B084FEA3202B6EB6F
:10080800020E75EB030E22BFB61A754640EA9C002D
:100818005B084FEA3202B6EB020E75EB030E22BFFD
:10082800B61A754640EADC0055EA060E18D04FEABB
:10083800051545EA16754FEA06164FEAC30343EA5B
:1008480052734FEAC2025FEA1C1CC0D111F4801F28
:100858000BD141EA00014FF000004FF0004CB6E721
:1008680011F4801F04BF01430020B4F1FD0C88BFC0
:10087800BCF5E06F3FF6AFAEB5EB030C04BFB6EBCB
:10088800020C5FEA500C50F1000041EB045170BDBE
:100898000EF0004E4EEA113114EB5C04C2BFD4EBEB
:1008A8000C0541EA045170BD41F480114FF0000E6F
:1008B800013C90E645EA060E8DE60CEA135594EAEB
:1008C8000C0F08BF95EA0C0F3FF43BAF94EA0C0FEE
:1008D8000AD150EA01347FF434AF95EA0C0F7FF463
:1008E80025AF104619462CE795EA0C0F06D152EAB7
:1008F80003353FF4FDAE1046194622E750EA41069B
:1009080018BF52EA43067FF4C5AE50EA41047FF4AB
:100918000DAF52EA43057FF4EBAE12E74FF0FF3C10
:1009280006E000BF4FF0010C02E000BF4FF0010CE1
:100938004DF804CD4FEA410C7FEA6C5C4FEA430C5A
:1009480018BF7FEA6C5C1BD001B050EA410C0CBFA9
:1009580052EA430C91EA030F02BF90EA020F00200B
:10096800704710F1000F91EA030F58BF994208BF72
:1009780090422CBFD8176FEAE37040F0010070472F
:100988004FEA410C7FEA6C5C02D150EA013C07D186
:100998004FEA430C7FEA6C5CD6D152EA033CD3D0D1
:1009A8005DF8040B704700BF8446104662468C46CB
:1009B8001946634600E000BF01B5FFF7B7FF0028FE
:1009C80048BF10F1000F01BD4DF808EDFFF7F4FF27
:1009D8000CBF012000205DF808FB00BF4DF808EDB2
:1009E800FFF7EAFF34BF012000205DF808FB00BFD5
:1009F8004DF808EDFFF7E0FF94BF012000205DF8F7
:100A080008FB00BF4DF808EDFFF7CEFF94BF0120AB
:100A180000205DF808FB00BF4DF808EDFFF7C4FFA4
:100A280034BF012000205DF808FB00BF4FEA410CED
:100A38007FEA6C5C02D150EA013C0AD14FEA430CD0
:100A48007FEA6C5C02D152EA033C02D14FF000000D
:100A580070474FF0010070474A0011D212F500129A
:100A680011D20DD56FF47873B3EB62520ED44FEAFE
:100A7800C12343F0004343EA505323FA02F070477E
:100A88004FF00000704750EA013002D14FF0FF30BC
:100A980070474FF00000704753B94AB9002908BFA2
:100AA80000281CBF4FF0FF314FF0FF3000F00CB8AA
:100AB800ADF1080C6DE904CE0EF058FDDDF804E048
:100AC800DDE9022304B07047704700BF844641EA5D
:100AD800000313F003036DD1403A41D351F8043BAE
:100AE80040F8043B51F8043B40F8043B51F8043B00
:100AF80040F8043B51F8043B40F8043B51F8043BF0
:100B080040F8043B51F8043B40F8043B51F8043BDF
:100B180040F8043B51F8043B40F8043B51F8043BCF
:100B280040F8043B51F8043B40F8043B51F8043BBF
:100B380040F8043B51F8043B40F8043B51F8043BAF
:100B480040F8043B51F8043B40F8043B51F8043B9F
:100B580040F8043B51F8043B40F8043B403ABDD20E
:100B6800303211D351F8043B40F8043B51F8043BB0
:100B780040F8043B51F8043B40F8043B51F8043B6F
:100B880040F8043B103AEDD20C3205D351F8043B3F
:100B980040F8043B043AF9D2043208D0D2071CBF0B
:100BA80011F8013B00F8013B01D30B880380604634
:100BB800704700BF082A13D38B078DD010F00303AA
:100BC8008AD0C3F10403D21ADB071CBF11F8013B1A
:100BD80000F8013B80D331F8023B20F8023B7BE769
:100BE800043AD9D3013A11F8013B00F8013BF9D294
:100BF8000B7803704B7843708B788370604670472E
:100C08000348044B834202D0034B03B11847704793
:100C1800BC010020BC010020000000000548064B74
:100C28001B1AD90F01EBA301491002D0034B03B1E2
:100C380018477047BC010020BC01002000000000DC
:100C480010B5064C237843B9FFF7DAFF044B13B10C
:100C58000448AFF300800123237010BDC0010020B9
:100C68000000000000FA000808B5054B1BB1054953
:100C78000548AFF30080BDE80840FFF7CFBF00BFCD
:100C880000000000C401002000FA000880B483B00E
:100C980000AF786039600C4A3B6813441B781A46E9
:100CA8007B6813441B6808493A680A44127811465D
:100CB8007A680A4443F00103136000BF0C37BD464D
:100CC8005DF8047B704700BFA022010880B485B09E
:100CD80000AFF860B9607A600D4ABB6813441B78AE
:100CE8001A46FB6813445B681B0C1B040849BA6866
:100CF8000A4412781146FA680A4411467A6813437E
:100D08004B6000BF1437BD465DF8047B704700BFD9
:100D1800A022010880B485B000AFF860B9607A609D
:100D28003B60BB69402B14D1174ABB6813441B783E
:100D38001A46FB6813441A467B68D360124ABB689C
:100D480013441B781A46FB6813441A463B689360A1
:100D580013E00D4ABB6813441B781A46FB6813441A
:100D68001A467B689360084ABB6813441B781A4686
:100D7800FB6813441A463B68D36000BF1437BD466E
:100D88005DF8047B704700BFA022010880B483B0DF
:100D980000AF786039600C4A3B6813441B781A46E8
:100DA8007B6813441B6808493A680A44127811465C
:100DB8007A680A4443F01003136000BF0C37BD463D
:100DC8005DF8047B704700BFA022010880B483B09F
:100DD80000AF78607B681B6843F040027B681A604C
:100DE80000BF0C37BD465DF8047B704780B483B004
:100DF80000AF78607B681B6823F040027B681A604C
:100E080000BF0C37BD465DF8047B704780B483B0E3
:100E180000AF78607B681B6803F04003402B01D16A
:100E2800012300E0002318460C37BD465DF8047B1B
:100E3800704780B483B000AF78607B681B6803F4A8
:100E4800827318460C37BD465DF8047B704780B442
:100E580083B000AF786039607B681B6823F00102BB
:100E68003B681A437B681A6000BF0C37BD465DF8C3
:100E7800047B704780B483B000AF78607B681B68E0
:100E880003F0010318460C37BD465DF8047B704734
:100E980080B483B000AF786039607B681B6823F04A
:100EA80002023B681A437B681A6000BF0C37BD46D4
:100EB8005DF8047B704780B483B000AF78607B68CE
:100EC8001B6803F0020318460C37BD465DF8047B27
:100ED800704780B483B000AF786039607B681B6866
:100EE80023F444423B681A437B681A6000BF0C37FE
:100EF800BD465DF8047B704780B483B000AF78606E
:100F08007B681B6803F4444318460C37BD465DF8FC
:100F1800047B704780B483B000AF786039607B6829
:100F28001B6823F400623B681A437B681A6000BFA1
:100F38000C37BD465DF8047B704780B483B000AFC2
:100F480078607B681B6803F4006318460C37BD465D
:100F58005DF8047B704780B483B000AF78607B682D
:100F68009B6803F00103012B01D1012300E000235A
:100F780018460C37BD465DF8047B704780B483B0D3
:100F880000AF78607B689B6803F00203022B01D1F5
:100F9800012300E0002318460C37BD465DF8047BAA
:100FA800704780B483B000AF78607B689B6803F0BB
:100FB8008003802B01D1012300E0002318460C3761
:100FC800BD465DF8047B704780B483B000AF78609D
:100FD8007B685B6843F040027B685A6000BF0C374F
:100FE800BD465DF8047B704780B483B000AF78607D
:100FF8007B685B6843F001027B685A6000BF0C376E
:10100800BD465DF8047B704780B483B000AF78605C
:101018007B685B6843F002027B685A6000BF0C374C
:10102800BD465DF8047B704780B483B000AF78603C
:101038007B680C3318460C37BD465DF8047B704757
:1010480080B483B000AF78607B680C331B78DBB268
:1010580018460C37BD465DF8047B704780B483B0F2
:1010680000AF78607B68DB689BB218460C37BD46DA
:101078005DF8047B704780B485B000AF78600B469C
:10108800FB707B680C33FB60FB68FA781A7000BF52
:101098001437BD465DF8047B704780B485B000AF57
:1010A80078600B467B807B680C33FB60FB687A8832
:1010B8001A8000BF1437BD465DF8047B70470000F6
:1010C80080B584B000AF786039600023FB600023EE
:1010D800BB607B68002B0BD03B68002B08D07B687B
:1010E800BB60BB681B68654A934201D1644BFB60D7
:1010F800FB68002B00F0BC80BB681A68FB681A60AC
:10110800FB6893F84620BB6893F846301343DAB27D
:10111800FB6883F84620FB6893F84420BB6893F883
:1011280044301343DAB2FB6883F84420FB6893F831
:101138004520BB6893F845301343DAB2FB6883F85F
:101148004520FB683A68DA61BB6893F8463003F0DB
:101158000103002B32D0BB689A6AFB689A62BB68AD
:101168001A6AFB681A62FB6800225A63FB6800224D
:101178001A63FB68002283F84020FB6893F8443028
:1011880003F00403002B05D0FB681B681846FFF723
:101198001BFF13E0FB6893F8443003F01003002BA7
:1011A8000CD0BB685A68FB685A60BB6893F8542037
:1011B800FB6883F85420F86800F0FEFABB6893F8DF
:1011C800463003F00203002B28D0BB68DA6AFB68BC
:1011D800DA62BB685A6AFB685A62FB6800229A6343
:1011E800FB680022DA63FB6800229A61FB68002230
:1011F80083F85620FB6893F8453003F02003002B52
:101208000CD0BB689A68FB689A60BB6893F8552055
:10121800FB6883F85520F86800F00FFB3B68FA6814
:101228001A60FB681B681846FFF766FE0346B3F5AD
:10123800004F0ED1FB681B681846FFF7FAFD0346FE
:10124800B3F5827F05D1FB681B681846FFF7CEFD12
:1012580004E0FB681B681846FFF7B8FDBB681B680D
:101268001A46064B9A4202D000233B6000E000BFBA
:101278003B6818461037BD4680BD00BF003C0040A3
:10128800DC01002080B582B000AF78600B467B801F
:101298007868FFF731FE0346B3F5004F0BD17B8822
:1012A800012B08D1786800F0F4FA4FF440417868CF
:1012B800FFF70FFE11E07868FFF71EFE0346B3F54F
:1012C800404F0AD17B88002B07D1786800F0E1FAFB
:1012D8004FF400417868FFF7FCFD002318460837F3
:1012E800BD4680BD80B586B000AFF8607A601A460A
:1012F8000B467B8113467B7200237B61FB68002BC6
:1013080006D0FB681B68002B02D0FB681B687B615A
:101318007B689BB21B0A7B827B897A69134493F8AA
:101328004E30002B0CD07B69B3F84C207B7A9BB2F3
:101338009A4205D17B695B697A689A4200F0C88055
:101348007B7A9AB27B69A3F84C207B697A685A61E8
:101358007B691B68184600F09CFA7B69B3F84C302F
:10136800002B1CD17B691B681846FFF783FD0346D9
:10137800002B05D07B691B6800211846FFF767FD25
:101388007B691B681846FFF796FD0346022B66D05B
:101398007B691B6802211846FFF77AFD5FE07B69CD
:1013A800B3F84C30012B1CD17B691B681846FFF73A
:1013B80061FD0346012B05D07B691B680121184696
:1013C800FFF745FD7B691B681846FFF774FD034668
:1013D800022B44D07B691B6802211846FFF758FD91
:1013E8003DE07B69B3F84C30022B1CD17B691B684C
:1013F8001846FFF73FFD0346002B05D07B691B68A5
:1014080000211846FFF723FD7B691B681846FFF784
:1014180052FD0346002B22D07B691B680021184629
:10142800FFF736FD1BE07B691B681846FFF722FDB6
:101438000346012B05D07B691B6801211846FFF77D
:1014480006FD7B691B681846FFF735FD0346002B30
:1014580005D07B691B6800211846FFF719FD7B69D9
:101468001B681846FFF769FD02467B6893420CD05B
:101478007B691A687B8A082B01D8002301E04FF4A6
:10148800006319461046FFF745FD7B691B6818463F
:10149800FFF732FD0346B3F5004F0ED17B691B6899
:1014A8001846FFF7C6FC0346B3F5827F05D17B6972
:1014B8001B68184600F0EDF904E07B691B681846C4
:1014C800FFF784FC7B897A691344012283F84E2054
:1014D800002318461837BD4680BD80B58AB000AFD6
:1014E800F860B96011461A460B46FB801346BB806C
:1014F8000023BB840023FB610CF064FDF86100232A
:101508003B62FB68002B06D0FB681B68002B02D0EF
:10151800FB681B683B623B6A1B6801211846FFF7A2
:10152800B1FE0346BB843B8E002B01D100237B63B5
:101538003B6A1B681846FFF769FC0346002B04D179
:101548003B6A1B681846FFF741FCBB88DBB2002BDF
:101558002CD1BB687B610023FB8422E03B6A1B68BB
:101568001846FFF70BFD0346012B0CD13B6A1868A0
:10157800FB8C7A6913441B781946FFF77CFDFB8CBA
:101588000133FB840DE00121F86909F097FE02465A
:101598007B6B934205D2386A00F0C3F90346BB84DB
:1015A80035E0FA8CFB889A42D8D330E0BB88DBB2AE
:1015B800012B2CD1BB68BB610023FB8423E03B6A71
:1015C8001B681846FFF7DAFC0346012B0DD13B6A6E
:1015D8001868FB8C5B00BA6913441B881946FFF72F
:1015E8005CFDFB8C0133FB840DE00121F86909F0F7
:1015F80065FE02467B6B934205D2386A00F091F98A
:101608000346BB8403E0FA8CFB889A42D7D3BB8C91
:1016180018462837BD4680BD90B58FB004AFF86036
:10162800B96011461A460B46FB801346BB8000235F
:10163800BB840023BB610CF0C5FCB861FB887B84CC
:101648000023FB61FB68002B06D0FB681B68002B9E
:1016580002D0FB681B68FB61FB691B680021184608
:10166800FFF710FE0346BB843B8F002B01D10023FC
:10167800FB63FB691B681846FFF7DBFB0346B3F502
:10168800827F0BD1FB691B681846FFF735FC0346C0
:10169800B3F5004F02D17B8C013B7B84FB691B684F
:1016A8001846FFF7B3FB0346002B04D1FB691B6800
:1016B8001846FFF78BFBBB88DBB2002B39D1BB6820
:1016C8003B610023FB842FE0FB691B681846FFF78A
:1016D80042FC0346002B0DD0FB691968FB8C3A6964
:1016E800D4180846FFF7ACFC03462370FB8C013383
:1016F800FB8419E00121B86909F0E0FD0246FB6BA3
:10170800934211D2798CFA8CFB6B0393BB690293D9
:10171800BB880193FB8800930B463969F86900F090
:101728000BF90346BB8442E0FA8C7B8C9A42CBD3FC
:101738003DE0BB88DBB2012B39D1BB687B6100235C
:10174800FB8430E0FB691B681846FFF704FC03467E
:10175800002B0ED0FB691968FB8C5B007A69D418E2
:101768000846FFF77BFC03462380FB8C0133FB8490
:1017780019E00121B86909F0A1FD0246FB6B93420B
:1017880011D2798CFA8CFB6B0393BB690293BB88EB
:101798000193FB8800930B467969F86900F0CCF84F
:1017A8000346BB8403E0FA8C7B8C9A42CAD3BB8C79
:1017B80018462C37BD4690BDB0B584B002AF7860EE
:1017C8007B685C687B6893F854301D467B681B68AF
:1017D8001846FFF729FC02467B681B6A1946002356
:1017E80000930B4629462046FFF794FA7B68586811
:1017F8007B6893F8543019467B68DB691B691A4685
:10180800FFF764FA7B685A687B6893F85430194686
:101818001046FFF7BBFA7B681B681846FFF7E4FB26
:101828007B685A687B6893F8543019461046FFF76E
:101838002DFA00BF0837BD46B0BDF0B585B002AF80
:1018480078607B689C687B6893F855301D467B6898
:101858005B6A1E467B681B681846FFF7E5FB034674
:1018680040220092324629462046FFF753FA7B6809
:101878009A687B6893F8553019461046FFF786FA40
:101888007B681B681846FFF7BFFB00BF0C37BD46D7
:10189800F0BD80B582B000AF78607868FFF7B6FA1F
:1018A8000346002B2CD07868FFF726FB0346002B55
:1018B8000AD100BF7868FFF774FB0346002BF9D103
:1018C8007868FFF793FA1BE07868FFF715FB034683
:1018D800B3F5806F06D07868FFF70EFB0346B3F5C3
:1018E800004F03D17868FFF781FA09E000BF7868F4
:1018F800FFF757FB0346002BF9D17868FFF776FA14
:1019080000BF0837BD4680BD80B485B000AFF86021
:10191800B9607A603B6000BF1437BD465DF8047B50
:10192800704780B483B000AF7860012318460C3745
:10193800BD465DF8047B704790B587B000AFF8608E
:10194800B96011461A460B46FB801346BB80FB68FC
:101958001B681846FFF74AFAFB681B681846FFF72A
:1019680068FA0346B3F5827F37D1FB681B681846CF
:10197800FFF7C2FA0346B3F5004F2ED1BA883B8D64
:101988009A422AD0FB681B681846FFF7E4FA034618
:10199800002BF7D0BB8DDBB2002B0CD1BB683B61B1
:1019A800FB681968FB883A69D4180846FFF748FBB2
:1019B8000346237010E0BB8DDBB2012B0CD1BB6852
:1019C8007B61FB681968FB885B007A69D418084654
:1019D800FFF744FB0346238000BF012318461C374A
:1019E800BD4690BD80B485B000AF786039600023F3
:1019F800FB7397F90F3018461437BD465DF8047B22
:101A08007047000080B584B000AF7860396000236B
:101A1800FB727B68002B05D1374803F013FB4FF0AE
:101A2800FF3365E03B68002B05D1344803F00AFB1F
:101A38004FF0FF335CE0324BD3E900014FF0000276
:101A48004FF04043FEF7C0FF0346002B06D03B682B
:101A5800D3E900232A49C1E9002305E0284BD3E94B
:101A680000233968C1E90023254BD3E900014FF071
:101A78000002244BFEF7A8FF0346002B02D02248A1
:101A880003F0E0FA7B685B681B68204A13607B6898
:101A98005B685B681E4A13607B685B689B681D4ACD
:101AA80013607B685B68DB681B4A13601B4B002272
:101AB8001A6003F087FF0023FB600023FB6007E048
:101AC800174AFB68174942F82310FB680133FB608B
:101AD800FB68022BF4D903F0B5FB0346FB7297F9B8
:101AE8000B30002B02D1104B01221A7097F90B30E2
:101AF80018461037BD4680BD18FA00083CFA0008A1
:101B0800000000200000F0BF68FA00085806002016
:101B18005C0600206006002064060020680600209D
:101B280034020020355A00085506002080B586B0DA
:101B380000AF78600023FB7500233B610023FB7333
:101B48002A4B1B78DBB2002B0CBF01230023DBB22E
:101B5800BB73274B02221A707B68002B0BD1234BD7
:101B68001B78DBB2002B06D1224B1B78DBB2002B93
:101B780001D1012300E00023FB7316E00A2009F0DD
:101B88005DFB3B6903F51C5310333B617B68B3F184
:101B9800FF3F05D03A697B689A4201D9012300E0EA
:101BA8000023FB73002003F0A5FB104B1B78DBB26E
:101BB800002B07D10F4B1B78DBB2002B02D1FB7B2C
:101BC800002BDBD00A4B03221A70FB7B002B01D0C1
:101BD8009C23FB75BB7B002B01D004F021F897F9FF
:101BE800173018461837BD4680BD00BF5306002081
:101BF800550600205406002080B588B000AF034683
:101C080087ED000BFB810023FB770123BB774FF0A7
:101C180000024FF00003D7E90001FEF7DFFE03469C
:101C2800002B05D02F4803F00DFA4FF0FF3355E095
:101C3800FB89FF2B08D9FB89FF2219462A4803F0A4
:101C480001FA4FF0FF3349E0284B1B78DBB2032B36
:101C580004D0264B1B78DBB2012B02D1234B042284
:101C68001A70FB89022B15D8FB89214A52F82330B8
:101C7800002B0FD004F096FB03467B777B7F022B6B
:101C880008D1FB891A4A52F82330FA891046984736
:101C98000346BB77FB897B83FB89184697ED000BCE
:101CA80003F08EFA7861BB7F002B07D07B8B7969B4
:101CB800184604F053FB0346FB7703E07B8B18467A
:101CC80004F0ABFB97F91F30002B05D097F91F30B4
:101CD8001946084803F0B6F997F91F301846203717
:101CE800BD4680BDD4FA000818FB00085506002040
:101CF8003402002058FB000880B582B000AF0023F2
:101D0800FB71002003F0F6FA0346FB7197F90730E0
:101D180018460837BD4680BD80B582B000AF0023A5
:101D2800FB710B4B06221A7003F082FB0346FB7112
:101D38000C22002107480DF077FD03F0F7FE044B55
:101D480000221A7097F9073018460837BD4680BD3B
:101D5800550600203402002080B400AF034B1B78E6
:101D6800DBB21846BD465DF8047B70475406002078
:101D780080B400AF034B1B78DBB21846BD465DF854
:101D8800047B70476C06002080B483B000AF786095
:101D980039607B683A689A6100BF0C37BD465DF8C8
:101DA800047B704780B483B000AF786039603B68CB
:101DB8001A047B689A6100BF0C37BD465DF8047B46
:101DC8007047000080B400AF0A4B93F83D20013201
:101DD800D2B283F83D20074B93F83D30632B03D9EB
:101DE800044B002283F83D2000BFBD465DF8047B0C
:101DF800704700BF4805002080B483B000AF78600A
:101E08007B684FF0FF321A6000BF0C37BD465DF8A3
:101E1800047B704780B483B000AF78607B684FF074
:101E2800FF321A6000BF0C37BD465DF8047B70476F
:101E380080B485B000AF0346B9607A60FB817B68E7
:101E48004FF0FF321A60FB89DB039AB2BB681A8035
:101E580000BF1437BD465DF8047B704780B483B07B
:101E680000AF78607B684FF0FF321A6000BF0C3714
:101E7800BD465DF8047B704780B483B000AF7860DE
:101E88007B684FF0FF321A6000BF0C37BD465DF823
:101E9800047B704780B485B000AF0346B9607A60B0
:101EA800FB817B684FF0FF321A60FB89DB029AB234
:101EB800BB681A8000BF1437BD465DF8047B7047C5
:101EC80080B59AB000AF78600023BB620023FB6244
:101ED800234BBB60002387F84E3000233B6300236D
:101EE8007B63012387F84C30022387F84D300023A9
:101EF800FB60002387F85C3000233B61002387F8F0
:101F08005D307B6800221A617B68164A5A6101239A
:101F180087F867307B680E229A617B68012283F814
:101F280024207B6897F867201A777B6801221A6259
:101F38007B6810333B6607F10803396E1846FFF7D4
:101F4800BFF802467B68DA607B68D86803234FF4E1
:101F580070620221FFF7C6F900BF6837BD4680BD31
:101F6800003C00400008024080B582B000AF7860B5
:101F78007B6800221A707B68012283F828207B681E
:101F880000221A727B6801225A607B681846FFF7A4
:101F980097FF7B6801221A7200BF0837BD4680BDD3
:101FA80080B586B002AF03463960FB803B68D868CD
:101FB80003234FF470620221FFF794F90346FB8173
:101FC800FB89002B0FD14FF480410948FFF7EAFE47
:101FD8003B68D868B91D01230193012300930123AD
:101FE8000122FFF77AFA00BF1037BD4680BD00BF57
:101FF8000008024080B586B002AF78607B681B7825
:10200800002B16D17B6801221A707B685B68012B54
:102018000FD17B681B7A002B0BD04FF0FF33FB608E
:102028007B68D8680E230093FB68FA68F968FFF7A5
:102038006BFC00BF1037BD4680BD000080B59AB06C
:1020480000AF78607B6800221A727B6801225A60B0
:102058000023BB620023FB62254BBB60002387F88B
:102068004E3000233B6300237B63012387F84C3009
:10207800022387F84D300023FB60002387F85C308B
:1020880000233B61002387F85D307B6800221A61DA
:102098007B68184A5A61012387F867307B680E22EB
:1020A8009A617B68012283F824207B6897F867206F
:1020B8001A777B6801221A627B6810333B6607F146
:1020C8000803396E1846FEF7FBFF02467B68DA60A4
:1020D8007B68D86803234FF470620221FFF702F986
:1020E8007B6801221A7200BF6837BD4680BD00BFF9
:1020F800003C00400008024080B582B000AF786024
:102108007B6800225A607B6800221A707B68012273
:1021180083F828207B681846FFF790FF00BF083730
:10212800BD4680BD80B586B002AF786039603B6837
:10213800D86803234FF470620221FFF7D3F80346EF
:10214800FB81FB89002B0FD13B68D8687968012394
:1021580001930123009301230122FFF75DFA4FF455
:1021680080410348FFF710FE00BF1037BD4680BD11
:102178000008024080B586B002AF78607B681B78A3
:10218800002B16D17B6801221A707B685B68012BD3
:102198000FD17B681B7A002B0BD04FF0FF33FB600D
:1021A8007B68D8680E230093FB68FA68F968FFF724
:1021B800ABFB00BF1037BD4680BD000080B59AB0AC
:1021C80000AF78607B6800221A727B6801225A602F
:1021D8000023BB620023FB62254BBB60002387F80A
:1021E8004E3000233B6300237B63012387F84C3088
:1021F800022387F84D300023FB60002387F85C300A
:1022080000233B61002387F85D307B6800221A6158
:102218007B68184A5A61012387F867307B680E2269
:102228009A617B68012283F824207B6897F86720ED
:102238001A777B6810221A627B6810333B6607F1B5
:102248000803396E1846FEF73BFF02467B68DA60E2
:102258007B68D86803234FF470620221FFF742F8C5
:102268007B6801221A7200BF6837BD4680BD00BF77
:10227800003C00400008024080B59AB000AF78608A
:102288000023BB620023FB62234BBB60002387F85B
:102298004E3000233B6300237B63012387F84C30D7
:1022A800022387F84D300023FB60002387F85C3059
:1022B80000233B61002387F85D307B6800221A61A8
:1022C8007B68164A5A61012387F867307B680E22BB
:1022D8009A617B68012283F824207B6897F867203D
:1022E8001A777B6801221A627B6810333B6607F114
:1022F8000803396E1846FEF7E3FE02467B68DA608B
:102308007B68D86803234FF470620221FEF7EAFF66
:1023180000BF6837BD4680BD003C00400008024051
:1023280080B59AB000AF78607B6800221A727B682B
:1023380001225A600023BB620023FB62254BBB606D
:10234800002387F84E3000233B6300237B6301237F
:1023580087F84C30022387F84D300023FB600023B8
:1023680087F85C3000233B61002387F85D307B6889
:1023780000221A617B68184A5A61012387F867307E
:102388007B680E229A617B68012283F824207B688F
:1023980097F867201A777B6801221A627B681033E6
:1023A8003B6607F10803396E1846FEF789FE0246B8
:1023B8007B68DA607B68D86803234FF47062022177
:1023C800FEF790FF7B6801221A7200BF6837BD468E
:1023D80080BD00BF003C00400008024080B59AB0B4
:1023E80000AF78607B6800221A727B6801225A600D
:1023F8000023BB620023FB62254BBB60002387F8E8
:102408004E3000233B6300237B63012387F84C3065
:10241800022387F84D300023FB60002387F85C30E7
:1024280000233B61002387F85D307B6800221A6136
:102438007B68184A5A61012387F867307B680E2247
:102448009A617B68012283F824207B6897F86720CB
:102458001A777B680F221A627B6810333B6607F194
:102468000803396E1846FEF72BFE02467B68DA60D1
:102478007B68D86803234FF470620221FEF732FFAD
:102488007B6801221A7200BF6837BD4680BD00BF55
:10249800003C00400008024080B58CB002AF786074
:1024A8007B6800221A727B6801225A600023BB6194
:1024B80000237B74184BFB6100233B620023BB7431
:1024C800002387F82430012387F825300123FB6097
:1024D80001233B7407F10C0000230093042301221D
:1024E80001210CF055FD02467B68DA607B68DB68E9
:1024F80018460CF0E9FD7B68DB68012118460CF0F2
:102508003AFD7B6801221A727B6800225A7200BF6A
:102518002837BD4680BD00BF0021014080B58CB082
:1025280002AF78607B6800221A727B6801225A60C9
:102538000023BB6100237B74184BFB6100233B62C3
:102548000023BB74002387F82430012387F8253043
:102558000123FB6001233B7407F10C000023009367
:102568000423012201210CF013FD02467B68DA6086
:102578007B68DB6818460CF0A7FD7B68DB680121E7
:1025880018460CF0F8FC7B6801221A727B6800225E
:102598005A7200BF2837BD4680BD00BF00220140E7
:1025A80090B5A7B002AFCA4B93F96B3187F87F306B
:1025B800002387F88B3097F87F30042B1FD801A2AF
:1025C80052F823F0E1250008E9250008F125000864
:1025D800F925000801260008002387F88B300EE053
:1025E800032387F88B300AE0032387F88B3006E053
:1025F800002387F88B3002E0002387F88B3097F9A7
:102608008B20B34B83F86B21B14B93F96A3187F870
:102618007E30002387F88A3097F87E30042B20D844
:1026280001A252F823F000BF452600084D260008F5
:10263800552600085D26000865260008002387F84F
:102648008A300EE0032387F88A300AE0032387F8EC
:102658008A3006E0002387F88A3002E0002387F8F2
:102668008A3097F98A209A4B83F86A21984B93F914
:10267800693187F87D30002387F8893097F87D30F5
:10268800042B20D801A252F823F000BFA926000885
:10269800B1260008B9260008C1260008C926000886
:1026A800002387F889300EE0032387F889300AE091
:1026B800032387F8893006E0002387F8893002E091
:1026C800002387F8893097F98920814B83F869219D
:1026D8007F4B93F9683187F87C30002387F888307E
:1026E80097F87C30042B20D801A252F823F000BFC1
:1026F8000D270008152700081D27000825270008B2
:102708002D270008002387F888300EE0032387F878
:1027180088300AE0032387F8883006E0002387F82A
:10272800883002E0002387F8883097F98820684BC2
:1027380083F86821664B93F9673187F87B3000236B
:1027480087F8873097F87B30042B20D801A252F8FD
:1027580023F000BF712700087927000881270008A7
:102768008927000891270008002387F887300EE0A2
:10277800032387F887300AE0032387F8873006E0C9
:10278800002387F8873002E0002387F8873097F91D
:1027980087204F4B83F867214D4B93F9663187F8B3
:1027A8007A30002387F8863097F87A30042B20D8BF
:1027B80001A252F823F000BFD5270008DD27000842
:1027C800E5270008ED270008F5270008002387F80B
:1027D80086300EE0032387F886300AE0032387F863
:1027E800863006E0002387F8863002E0002387F869
:1027F800863097F98620364B83F86621344BB3F838
:10280800643141F6FE72934207D8314BB3F8643114
:1028180001339AB22E4BA3F864212D4B93F86E31F5
:10282800002B19D12A4B012283F86E21284B002254
:10283800A3F86421264B0322C3F8602124494FF0F2
:102848000002244BC1E9482323494FF000024FF00E
:102858000003C1E9082308E21D4BD3F86031013BAE
:102868000D2B00F2D18101A252F823F0AD28000807
:10287800E52800083729000887290008C329000827
:10288800FD290008312A0008812A0008BB2A00080F
:10289800E72A0008212B00085B2B0008A12B000861
:1028A800D92B00080A4BB3F86431B3F57A7FC0F02E
:1028B800C381074B0022A3F86421054B0822C3F803
:1028C800602105494FF00002024BC1E90E23B3E134
:1028D800B00200200000F03F40020020AB494FF05A
:1028E8000002AB4BC1E90823A84BD3E908014FF01C
:1028F8000002A74BFEF768F80346002B00D19DE1C4
:10290800A44BB3F8643141F28732934240F2968186
:10291800A04B0022A3F864219E4B0422C3F8602137
:102928009A494FF000029A4BC1E90C2386E1974976
:102938004FF000024FF00003C1E90823954BD3E99B
:1029480048014FF00002924BFEF73EF80346002B79
:1029580000D175E18F4BB3F86431272B40F27081B9
:102968008C4B0022A3F864218A4B0222C3F8602111
:1029780086494FF00002864BC1E9082360E183498C
:102988004FF00002824BC1E90C23824BB3F864314B
:1029980041F28732934240F255817E4B0022A3F8E0
:1029A80064217C4B0522C3F8602178494FF000026E
:1029B8004FF00003C1E90C2344E174494FF00002D1
:1029C8004FF00003C1E90C23724BB3F86431B3F53F
:1029D8007A7FC0F039816F4B0022A3F864216D4BD8
:1029E8000622C3F8602169494FF00002684BC1E92B
:1029F8000A2329E165494FF00002654BC1E90A2322
:102A0800644BB3F8643140F6B732934240F21E810A
:102A1800604B0722C3F860215C494FF000024FF079
:102A28000003C1E90A2311E158494FF000024FF0B1
:102A38000003C1E90A23554BD3E900014FF0000216
:102A4800534BFDF7C1FF0346002B00D10DE14F4B5F
:102A5800D3E902014FF000024D4BFDF7B5FF0346E5
:102A6800002B00D101E14B4B0022A3F86421494B14
:102A78000122C3F86021F8E044494FF00002444BBA
:102A8800C1E90E23434BB3F86431B3F5FA6FC0F0D4
:102A9800DF80404B0022A3F864213E4B0A22C3F892
:102AA80060213A494FF000024FF00003C1E90E23BC
:102AB800CEE036494FF000024FF00003C1E914237D
:102AC800344B0022A3F86421324B0822C3F860215A
:102AD8002E494FF000022E4BC1E90E23C5E02B49C9
:102AE8004FF000024FF00003C1E90E23294BB3F861
:102AF8006431B3F5FA6FC0F0AD80264B0022A3F81D
:102B08006421244B0B22C3F8602120494FF00002B6
:102B18001F4BC1E910239DE01C494FF000021C4BDC
:102B2800C1E910231B4BB3F86431B3F5FA6FC0F059
:102B38009380184B0022A3F86421164B0C22C3F88B
:102B4800602112494FF000024FF00003C1E9102341
:102B580082E00E494FF000024FF00003C1E9102354
:102B68000C4BB3F86431B3F5FA6F77D3094B0022F5
:102B7800A3F86421074B0D22C3F8602103494FF0E5
:102B88000002034BC1E9122368E000BF40020020A5
:102B98000000F03FB0020020B8494FF00002B84BE7
:102BA800C1E91223B74BB3F86431B3F5FA6F57D3C1
:102BB800B44B0022A3F86421B24B0E22C3F8602163
:102BC800AE494FF000024FF00003C1E9122347E07D
:102BD800AA494FF000024FF00003C1E91223A94BA4
:102BE800B3F86431B3F5FA6F3CD3A64B0022A3F8CF
:102BF8006421A44B0F22C3F86021A0494FF00002C2
:102C08009F4BC1E914232DE09C494FF000029C4BD7
:102C1800C1E914239B4BB3F86431B3F5FA6F23D39E
:102C2800984B0922C3F8602194494FF000024FF0F5
:102C38000003C1E9142317E000BF16E000BF14E049
:102C480000BF12E000BF10E000BF0EE000BF0CE0C4
:102C580000BF0AE000BF08E000BF06E000BF04E0D4
:102C680000BF02E000BF00E000BF874B7B67002386
:102C78003B67824BD3E908014FF000024FF0000395
:102C8800FDF7A2FE0346002B04D14FF48053C7F88A
:102C98008C3002E00023C7F88C30D7F88C203B6FCB
:102CA80002FA03F3C7F88C304FF480523B6F02FAF4
:102CB80003F3FB66D7F88C10786FFFF765F8D7F841
:102CC8008C30DA43FB6E13401946786FFFF76AF8C9
:102CD8006A4BD3E908014FF000024FF00003FDF7FB
:102CE80073FE0346002B0DD1644BD3E90A014FF064
:102CF80000024FF00003FDF767FE0346002B01D1E9
:102D0800012300E00023DAB25C4B83F862205B4BBE
:102D180093F86230002B00F092805A4B93F874318C
:102D2800002B09D15948FFF775F85948FFF7A4F85F
:102D3800544B012283F87421524BD86D03234FF46E
:102D480070620221FEF7CEFA0346FB80FB88002B57
:102D580010D14C4BD86D07F12801012301930123B1
:102D6800009301231022FEF757FC4FF48041494895
:102D7800FFF70AF8BB1D454A19460020FFF758F827
:102D88003B1D434A19460320FFF784F8FA88BB889D
:102D980013439AB2404BDB8813439AB2374BA3F8DC
:102DA8005E20364BB3F85E20344BA3F86020354BD9
:102DB800D3F8D40003234FF470620221FEF792FA8D
:102DC8000346FB80FB88002B11D14FF4804131482A
:102DD800FEF7E8FF2B4BD3F8D4004FF47A73019336
:102DE80001230093012301222C49FEF776FB254B92
:102DF80093F96B3187F86B3097F86B3087F885302B
:102E080097F86B30042B14D801A252F823F000BFB6
:102E18002D2E00083B2E00083B2E0008352E0008FA
:102E28003B2E0008022387F8853002E0012387F84B
:102E3800853097F98520134B83F86B2103E0114BFC
:102E4800002283F874210D4BD3E908014FF00002EA
:102E58004FF00003FDF7B8FD0346002B20D1074BC8
:102E6800D3E90C014FF000024FF00003FDF7ACFD71
:102E78000346002B14D1012313E000BF40020020B9
:102E88000000F03FB0020020000402403C05002092
:102E98003405002000080240B0220108A0020020EA
:102EA8000023DAB28B4B83F863208A4B93F86330A4
:102EB800002B00F08A80884B93F87331002B09D1DE
:102EC8008648FEF7A7FF8648FEF7D6FF824B012209
:102ED80083F87321BB1D814A19460020FEF7A8FF1D
:102EE8003B1D7F4A19460220FEF7D4FFFA88BB88AB
:102EF80013439AB27B4B9B8813439AB2754BA3F842
:102F08005C20754BD3F8AC0003234FF470620221A8
:102F1800FEF7E8F90346FB80FB88002B10D14FF43D
:102F280080417148FEF73EFF6B4BD3F8AC000A2393
:102F3800019301230093012301226C49FEF7CDFA86
:102F4800654B586B03234FF470620221FEF7CAF9F0
:102F58000346FB80FB88002B0FD15F4B586BB91DD4
:102F6800012301930123009301230122FEF754FB5F
:102F78004FF480415C48FEF707FF574B93F96A31DD
:102F880087F86A3097F86A3087F8843097F86A309B
:102F9800042B14D801A252F823F000BFB92F00085F
:102FA800C72F0008C72F0008C12F0008C72F000827
:102FB800022387F8843002E0012387F8843097F9E8
:102FC8008420454B83F86A2103E0434B002283F8B1
:102FD8007321404BD3E90E014FF000024FF000037C
:102FE800FDF71AFD0346002B00F088803A4B93F852
:102FF8007231002B09D13E48FEF70CFF3D48FEF721
:103008003BFF354B012283F87221334BD8680323E9
:103018004FF470620221FEF765F90346FB80FB88D6
:10302800002B10D12C4BD86807F10801012301931C
:103038000123009301230F22FEF7EEFA4FF480419B
:103048002948FEF7A1FEBB1D294A19460120FEF7B3
:10305800EFFE3B1D274A19460220FEF71BFFFA88A0
:10306800BB8813439AB21F4B5B8813439AB2194B20
:10307800A3F85A20174BB3F85A301F491846FEF7E1
:103088008FFF154B93F9693187F8693097F86930E4
:1030980087F8833097F86930042B14D801A252F8C6
:1030A80023F000BFC1300008CF300008CF3000083F
:1030B800C9300008CF300008022387F8833002E0C7
:1030C800012387F8833097F98320034B83F869211C
:1030D80018E000BF40020020B00200202C050020AC
:1030E80024050020B0220108000802409C020020AC
:1030F8001C05002014050020E8040020874B00224E
:1031080083F87221864BD3E912014FF000024FF089
:103118000003FDF781FC0346002B6CD07F4B93F82E
:103128007031002B09D17F48FEF774FE7E48FEF708
:10313800A3FE7A4B012283F87021BB1D794A1946F8
:103148000120FEF775FE3B1D774A19460320FEF75E
:10315800A1FEFA88BB8813439AB2744B1B881343A9
:103168009AB26F4BA3F858206C4BD3F88400032312
:103178004FF470620221FEF7B5F80346FB80FB8826
:10318800002B10D14FF480416948FEF70BFE634BCA
:10319800D3F8840001230193012300930123012222
:1031A8006449FEF79AF95D4B93F9673187F86830FF
:1031B80097F8683087F8823097F86830042B14D86D
:1031C80001A252F823F000BFE5310008F3310008EE
:1031D800F3310008ED310008F3310008022387F8C5
:1031E800823002E0012387F8823097F982204B4B26
:1031F80083F8672103E0494B002283F87021484B8C
:10320800D3E910014FF000024FF00003FDF704FC72
:103218000346002B33D0414B012283F871214649E4
:103228004648FEF77FFF46494FF41040FEF7B8FEC8
:103238003A4B93F9683187F8673097F8673087F821
:10324800813097F86730042B13D801A252F823F085
:103258006D3200087B3200087B32000875320008A6
:103268007B320008022387F8813002E0012387F8C7
:10327800813097F98120294B83F868210CE0274B8E
:1032880093F87131002B07D0254B0022A3F8682052
:10329800224B002283F87121214BD3E914014FF00E
:1032A80000024FF00003FDF7B7FB0346002B4FD099
:1032B8001A4B012283F86F2122492348FEF732FF77
:1032C80022494FF41840FEF76BFE144B93F9663110
:1032D80087F8663097F8663087F8803097F8663058
:1032E800042B14D801A252F823F000BF09330008B8
:1032F8001733000817330008113300081733000884
:10330800022387F8803002E0012387F8803097F99C
:103318008020024B83F8662127E000BFB00200201E
:10332800400200208804002080040020B022010808
:103338000008024098020020BC040020A8020020D7
:103348009004002054040020A60200202804002035
:103358003D4B93F86F31002B07D03C4B0022A3F86C
:103368006620394B002283F86F21384BB3F866305A
:1033780041F6040293420CBF01230023DBB21A4634
:10338800324B83F86420314BB3F8683041F2505225
:1033980093420CBF01230023DBB21A462B4B83F860
:1033A8006520002387F86530294BD3E90823C7E94E
:1033B800162397ED160B0020FEF71EFC034687F830
:1033C8006530234B93F83D30002B18D1002387F844
:1033D80057301F4B9B6B1846FDF714F818A3D3E919
:1033E8000023FDF789F802460B46C7E9122397ED3B
:1033F800120B0120FEF700FC034687F85730144BE8
:103408009A6A01329A629B6A1846FCF7FBFF104BD6
:10341800D3E90C230E4CFDF76FF802460B46C4E9BE
:1034280008230B4B93F83D30002B03D1084B9A6BC4
:1034380001329A63FEF7C6FC00BF9437BD4690BDC3
:103448009A9999999999B93FB002002040020020B1
:10345800480500200000000080B500AF98494FF0F3
:103468000002984BC1E91023954993A3D3E900239F
:10347800C1E90C23924B944A9A60914B934ADA60C3
:103488008F4B934A1A618E4B924A5A618C4B924ADF
:103498005A60914B914A1A60904B914A1A608F4B2F
:1034A8008F4A5A608D4B8F4A9A608C4B8D4ADA60EE
:1034B8008A4B8D4A1A61894B8B4A5A61874B884AD5
:1034C8009A61864B894ADA61844B884A1A62834B2F
:1034D800864A5A62814B854A9A62804B834ADA62ED
:1034E8007E4B824A1A637D4B804A5A637B4B804AE3
:1034F8009A637A4B7E4ADA63784B7D4A1A64774B33
:103508007B4A5A64754B7A4A9A64744B784ADA64EF
:10351800724B774A1A65714B764A5A656F4B754AF2
:103528009A656E4B734ADA656C4B724A1A666B4B36
:10353800704A5A66694B6F4A9A66684B6D4ADA66F2
:10354800664B6D4A1A67654B6B4A5A67634B6A4A02
:103558009A67624B694ADA67604B684AC3F8802009
:103568005E4B664AC3F884205C4B644AC3F88820E3
:103578005A4B624AC3F88C20584B604AC3F89020D3
:10358800564B5F4AC3F89420544B5D4AC3F89820C1
:10359800524B5B4AC3F89C20494A494B5B68183236
:1035A8009A60474A464B5B6808325A60444A444B23
:1035B8005B682032DA6053494FF00002524BC1E990
:1035C800002350494FF000024F4BC1E902234D49F7
:1035D8004FF000024C4BC1E900234A494FF000026A
:1035E800494BC1E902234948FEF706FC4848FEF763
:1035F80035FC484B00225A65464B002283F8502080
:103608004548FEF7DBFD434B002283F8C820414BB9
:10361800002283F8D0203F4B0122C3F8CC203F483A
:10362800FEF72AFE3B4B012283F8D0203C48FEF7E8
:10363800E3FB3C48FEF712FC364B002283F8A0203F
:10364800344B002283F8A820324B0122C3F8A4206F
:103658003548FEF711FE2F4B012283F8A8202D4B89
:103668000022DA622B4B002283F828202F48FEF72D
:1036780057FE2F48FEF7C0FB2E48FEF7EFFB254B01
:1036880000225A60234B00221A702248FEF7A6FE39
:103698002948FEF769FC2948FEF7AEFB2848FEF7E3
:1036A800DDFB1C4B002283F878201A4B002283F89C
:1036B8008020184B012245E0FCA9F1D24D62503F11
:1036C80048050020000059409F92E3BA7D82EC0E25
:1036D8007C42F6907D53A3EC98050020AC050020B1
:1036E800AC2201081D0400201C0400201B0400203B
:1036F8001A040020190400201804002017040020D0
:1037080016040020400200200000F03F3C05002085
:1037180034050020B00200200003002078030020B8
:103728002C0500202405002050030020D80200208A
:103738001C05002014050020E8040020880400204F
:1037480080040020DA671B48FEF796FD1A4B012219
:1037580083F880201948FEF7CFFC1948FEF704FCCF
:103768001848FEF7C9FC1848FEF7FEFB124B00226A
:10377800C3F80421104B002283F800211348FEF7F8
:103788008BFE0D4B0022C3F8F4200B4B002283F86C
:10379800F0200F48FEF7C2FE074B002283F81021E5
:1037A800054B0122C3F81421034B012283F8182189
:1037B80000BF80BD28030020B0020020BC04002008
:1037C800900400205404002028040020B0030020A6
:1037D800A003002080B584B002AF844B93F8103169
:1037E800002B03D1814B012283F810217F4B93F8E2
:1037F8005030002B18D17D4B012283F850207B4B91
:103808005B6D012B10D1794B93F85830002B0BD0FE
:103818004FF0FF337B60754BD86D0E2300937B68A8
:103828007A687968FEF770F8704B93F8C830002B07
:103838001AD16E4B012283F8C8206C4BD3F8CC30D8
:10384800012B11D1694B93F8D030002B0CD04FF0DD
:10385800FF337B60654BD3F8D4000E2300937B685D
:103868007A687968FEF750F8604B93F8A030002B1F
:103878001AD15E4B012283F8A0205C4BD3F8A43008
:10388800012B11D1594B93F8A830002B0CD04FF0D5
:10389800FF337B60554BD3F8AC000E2300937B6855
:1038A8007A687968FEF730F8504B93F82830002B87
:1038B80018D14E4B012283F828204C4BDB6A012B90
:1038C80010D14A4B93F83030002B0BD04FF0FF3318
:1038D8007B60464B586B0E2300937B687A68796847
:1038E800FEF712F8414B1B78002B16D13F4B0122F3
:1038F8001A703E4B5B68012B0FD13C4B1B7A002B97
:103908000BD04FF0FF337B60384BD8680E23009301
:103918007B687A687968FDF7F7FF3548FEF76AFB38
:10392800324B93F87830002B19D1304B012283F8B1
:1039380078202E4BDB6F012B11D12C4B93F8803064
:10394800002B0CD04FF0FF337B60284BD3F884005A
:103958000E2300937B687A687968FDF7D5FF2548C0
:10396800FEF708FC2448FEF745FB2448FEF702FC56
:103978002348FEF73FFB1D4B93F80031002B15D170
:103988001A4B012283F80021184BD3F80431012B7C
:103998000CD1164B93F80831002B07D0134BD3F8F2
:1039A8000C310122012118460BF0A3FB0F4B93F8B1
:1039B800F030002B15D10D4B012283F8F0200B4B72
:1039C800D3F8F430012B0CD1084B93F8F830002BC6
:1039D80007D0064BD3F8FC300122012118460BF022
:1039E80088FB00BF0837BD4680BD00BFB00200207D
:1039F800E8040020BC0400209004002054040020A7
:103A08002804002080B500AF0F4B1B785A1CD1B298
:103A18000D4A1170002B09D00C4B01221A600A4B79
:103A28001B78013BDAB2084B1A700BE062B600BF94
:103A3800FEF7B6FD72B600BF034B1B78013BDAB246
:103A4800014B1A7080BD00BF500600204C060020B4
:103A580080B586B000AF786039605C4B7B615C4BA9
:103A68003B610023FB735B4B00221A705A4B002208
:103A78001A700AF071FA09F06FF907F0F7FB00F015
:103A8800A7FD00F015FE00F0C7FB01F02DFA00F0CD
:103A980039FC00F09FFF00F097FC00F027FA4F4B2D
:103AA8001B6800221A6000210020FDF79BFF0346D7
:103AB800FB7397F90F30002B02D097F90F3080E095
:103AC800FFF7CAFC72B600BF62B600BF434B1B6863
:103AD8005A68424B1B68403319461046FDF792FF5F
:103AE8000346FB7397F90F30002B0DD14FF0FF30D1
:103AF800FEF71CF8FEF730F90346002B04D0374BCD
:103B08001B68012283F8482072B600BF97ED050AAA
:103B180007F06AFCFEF72CF90346002B0CD1FEF7E0
:103B28001BF90346002B07D12C4B1B6893F8483030
:103B3800002B01D1012300E00023DAB2264B1A70D2
:103B480062B600BF62B600BF2FE0FEF7D5F80346A5
:103B5800FB73FEF70DF90346002B0AD1FEF7FCF8BC
:103B68000346002B05D11D4B1B6893F84830002BEA
:103B780001D0012300E00023DAB2164B1A70154B6E
:103B88001B78DBB2002B0CBF01230023DBB21A46E3
:103B9800114B1A700F4B1B78DBB2002B05D0104B62
:103BA8001B680F4A23F0010313600B4B1B78DBB231
:103BB800002BCAD1FFF70EFEFEF7AEF872B600BFB3
:103BC800002318461837BD4680BD00BF6F12833AE0
:103BD800000010435106002052060020A8220108C8
:103BE80010E000E080B485B000AFF860B9607A609A
:103BF8000D4ABB6813441B781A46FB6813441B68BC
:103C080023F0C0020849BB680B441B781946FB68BF
:103C18000B4419467B6813430B6000BF1437BD463D
:103C28005DF8047B704700BFB822010880B485B0F6
:103C380000AFF860B9607A600D4ABB6813441B781E
:103C48001A46FB6813441B6823F490720849BB6842
:103C58000B441B781946FB680B4419467B681343D1
:103C68000B6000BF1437BD465DF8047B704700BF8A
:103C7800B822010880B485B000AFF860B9607A60F6
:103C88000D4ABB6813441B781A46FB6813441B682B
:103C980023F400720849BB680B441B781946FB687B
:103CA8000B4419467B6813430B6000BF1437BD46AD
:103CB8005DF8047B704700BFB822010880B485B066
:103CC80000AFF860B9607A600D4ABB6813441B788E
:103CD8001A46FB6813441B6823F480620849BB68D2
:103CE8000B441B781946FB680B4419467B68134341
:103CF8000B6000BF1437BD465DF8047B704700BFFA
:103D0800B822010880B485B000AFF860B9607A6065
:103D18000D4ABB6813441B781A46FB6813441B689A
:103D280023F4C0520849BB680B441B781946FB684A
:103D38000B4419467B6813430B6000BF1437BD461C
:103D48005DF8047B704700BFB822010880B485B0D5
:103D580000AFF860B9607A600D4ABB6813441B78FD
:103D68001A46FB6813441B6823F4C0420849BB6821
:103D78000B441B781946FB680B4419467B681343B0
:103D88000B6000BF1437BD465DF8047B704700BF69
:103D9800B822010880B485B000AFF860B9607A60D5
:103DA8000D4ABB6813441B781A46FB6813441B680A
:103DB80023F440320849BB680B441B781946FB685A
:103DC8000B4419467B6813430B6000BF1437BD468C
:103DD8005DF8047B704700BFB822010880B485B045
:103DE80000AFF860B9607A600D4ABB6813441B786D
:103DF8001A46FB6813441B6823F060620849BB68D5
:103E08000B441B781946FB680B4419467B6813431F
:103E18000B6000BF1437BD465DF8047B704700BFD8
:103E2800B822010880B483B000AF786039600C4ACA
:103E38003B6813441B781A467B6813445B6908493E
:103E48003A680A44127811467A680A4423F004034F
:103E5800536100BF0C37BD465DF8047B704700BF57
:103E6800B822010880B485B000AF7860084B1A6B9F
:103E780007497B6813430B63054B1A6B7B68134038
:103E8800FB60FB6800BF1437BD465DF8047B7047D4
:103E98000038024080B485B000AF7860084B1A6CD7
:103EA80007497B6813430B64054B1A6C7B68134006
:103EB800FB60FB6800BF1437BD465DF8047B7047A4
:103EC8000038024080B483B000AF786039607B6806
:103ED8005B6823F010023B681A437B685A6000BF96
:103EE8000C37BD465DF8047B7047000080B590B084
:103EF80000AF07F118032822002118460BF094FCA4
:103F08003B4600221A605A609A60DA601A615A6168
:103F18004FF40040FFF7BEFF0420FFF7A3FF4FF464
:103F2800E0533B6002237B600323BB600023FB60FC
:103F380000233B6106237B613B461946424809F052
:103F480030FC002200214148FFF748FF00220021F1
:103F58003E48FFF747FE002200213C48FFF71AFFC2
:103F6800002200213948FFF761FE0022002137486E
:103F7800FFF780FE4FF4806200213448FFF79EFE71
:103F88004FF4006200213148FFF7BCFE4FF40052A5
:103F980000212E48FFF7DAFE00212C48FFF742FFE8
:103FA800002207212948FFF719FF40220721274847
:103FB800FFF718FE4FF4003207212448FFF7EAFE06
:103FC800002207212148FFF731FE002207211F4860
:103FD800FFF750FE4FF4806207211C48FFF76EFE82
:103FE800002207211948FFF78DFE002207211748F4
:103FF800FFF7ACFE07211548FFF714FF0023BB614C
:104008004FF48273FB614FF400633B6200237B62D1
:104018000123BB624FF40073FB6210233B63002350
:104028007B630023BB630A23FB6307F1180319466C
:10403800074809F0F6FF00210548FFF743FF00BFD6
:104048004037BD4680BD00BF000802400060024006
:10405800003C004080B489B000AFF860B9607A6075
:10406800FB682C331946BB6803F440734FF4407265
:104078007A617A6992FAA2F23A613A69BA61BA69DE
:10408800002A01D1202203E0BA69B2FA82F2D2B240
:10409800D3409B000B44FB61FB691A68BB6803F0C3
:1040A8001F031F2101FA03F3DB431A407B6803F067
:1040B8001F01BB6803F01F0301FA03F31A43FB69EE
:1040C8001A6000BF2437BD465DF8047B704780B492
:1040D80083B000AF786039607B689B6823F48062A6
:1040E8003B681A437B689A6000BF0C37BD465DF891
:1040F800047B704780B48FB000AFF860B9607A6015
:10410800FB680C331946BB6803F000734FF000726C
:104118007A617A6992FAA2F23A613A69BA61BA693D
:10412800002A01D1202203E0BA69B2FA82F2D2B29F
:10413800D3409B000B447B637B6B1A68BB6803F01E
:10414800F8734FF0F8713962396A91FAA1F1F9619F
:10415800F9697962796A002901D1202103E0796A35
:10416800B1FA81F1C9B2CB40072101FA03F3DB436D
:104178001A40BB6803F0F8734FF0F871F962F96AF6
:1041880091FAA1F1B962B96A3963396B002901D191
:10419800202103E0396BB1FA81F1C9B2CB407968CB
:1041A80001FA03F31A437B6B1A6000BF3C37BD4624
:1041B8005DF8047B7047000080B485B000AF78607C
:1041C800084B1A6B07497B6813430B63054B1A6B43
:1041D8007B681340FB60FB6800BF1437BD465DF881
:1041E800047B70470038024080B485B000AF786027
:1041F800084B5A6C07497B6813434B64054B5A6C50
:104208007B681340FB60FB6800BF1437BD465DF850
:10421800047B70470038024080B592B000AF07F1C8
:104228003C0300221A605A609A6007F128030022B2
:104238001A605A609A60DA601A6107F1180300225E
:104248001A605A609A60DA603B4600221A605A6027
:104258009A60DA601A615A614FF48070FFF7C4FF00
:104268000120FFF7A9FF40233B6003237B60002365
:104278003B613B4619461F4809F093FA0023FB634C
:1042880000233B6400237B6407F13C0319461A486A
:1042980009F076FB0023BB620023FB6200233B632B
:1042A80000237B630023BB6307F1280319461248E8
:1042B80009F092FB4FF480610F48FFF708FF4FF4B5
:1042C8008033BB610023FB6107F1180319460B48D3
:1042D80009F00EFB0A4A4FF400710748FFF7BAFECF
:1042E800002207490448FFF705FF00BF4837BD46CD
:1042F80080BD00BF000002400020014000230140B3
:104308000600200380B58EB000AF07F12C03002211
:104318001A605A609A6007F1180300221A605A60FE
:104328009A60DA601A613B4600221A605A609A6005
:10433800DA601A615A614FF40070FFF755FF0420E4
:10434800FFF73AFF04233B6003237B6000233B61B4
:104358003B461946194809F024FA0023FB6200235A
:104368003B6300237B6307F12C031946144809F0CB
:1043780007FB0023BB610023FB6100233B62002392
:104388007B620023BB6207F1180319460C4809F049
:1043980023FB4FF480610A48FFF799FE094A4FF45E
:1043A80000710748FFF756FE002206490448FFF748
:1043B800A1FE00BF3837BD4680BD00BF00080240DF
:1043C800002101400C00600080B58EB000AF07F1FD
:1043D8002C0300221A605A609A6007F11803002221
:1043E8001A605A609A60DA601A613B4600221A60C5
:1043F8005A609A60DA601A615A614FF48060FFF778
:10440800F3FE0420FFF7D8FE08233B6003237B60FC
:1044180000233B613B461946194809F0C2F90023BD
:10442800FB6200233B6300237B6307F12C031946DF
:10443800144809F0A5FA0023BB610023FB6100239F
:104448003B6200237B620023BB6207F11803194615
:104458000C4809F0C1FA4FF480610A48FFF737FEAB
:10446800094A4FF400710748FFF7F4FD0022064996
:104478000448FFF73FFE00BF3837BD4680BD00BF88
:1044880000080240002201400D00900080B400AFF7
:10449800044BDB681B0A03F007031846BD465DF8AA
:1044A800047B704700ED00E080B483B000AF0346A2
:1044B800FB7197F90730002B0BDBFB7903F01F0228
:1044C800074997F907305B09012000FA02F241F821
:1044D800232000BF0C37BD465DF8047B704700BF42
:1044E80000E100E080B483B000AF03463960FB719F
:1044F80097F90730002B0ADB3B68DAB20C4997F9C9
:1045080007301201D2B20B4483F800230AE03B685B
:10451800DAB20849FB7903F00F03043B1201D2B267
:104528000B441A7600BF0C37BD465DF8047B704714
:1045380000E100E000ED00E080B489B000AFF86071
:10454800B9607A60FB6803F00703FB61FB69C3F19C
:104558000703042B28BF0423BB61FB690433062B24
:1045680002D9FB69033B00E000237B614FF0FF3277
:10457800BB6902FA03F3DA43BB681A407B699A40C5
:104588004FF0FF317B6901FA03F3D9437B680B4095
:10459800134318462437BD465DF8047B7047000076
:1045A80080B485B000AF7860084B1A6B07497B6808
:1045B80013430B63054B1A6B7B681340FB60FB6866
:1045C80000BF1437BD465DF8047B704700380240D1
:1045D80080B500AF4FF40010FFF7E2FFFFF756FF7A
:1045E8000346002200211846FFF7A6FF0346194696
:1045F8000B20FFF777FF0B20FFF756FFFFF746FF6B
:104608000346002200211846FFF796FF0346194685
:104618001020FFF767FF1020FFF746FFFFF736FF70
:104628000346002200211846FFF786FF0346194675
:104638001120FFF757FF1120FFF736FFFFF726FF7E
:104648000346002200211846FFF776FF0346194665
:104658002F20FFF747FF2F20FFF726FF00BF80BD61
:1046680080B485B000AF7860084B1A6B07497B6847
:1046780013430B63054B1A6B7B681340FB60FB68A5
:1046880000BF1437BD465DF8047B70470038024010
:1046980080B483B000AF786039603B681A047B68E7
:1046A8009A6100BF0C37BD465DF8047B7047000077
:1046B80080B586B000AF3B4600221A605A609A6007
:1046C800DA601A615A610420FFF7CAFF8020FFF7F9
:1046D800C7FF0120FFF7C4FF0220FFF7C1FF44F224
:1046E80010011648FFF7D4FF4FF480511448FFF724
:1046F800CFFF44F210033B6001237B600023BB60C3
:104708000023FB6000233B613B4619460B4809F038
:1047180048F84FF480533B6001237B600023BB6063
:104728000023FB6000233B613B461946044809F01F
:1047380038F800BF1837BD4680BD00BF00080240EA
:104748000004024080B485B000AF7860084B1A6B53
:1047580007497B6813430B63054B1A6B7B6813404F
:10476800FB60FB6800BF1437BD465DF8047B7047EB
:104778000038024080B485B000AF7860084B5A6CAE
:1047880007497B6813434B64054B5A6C7B6813409D
:10479800FB60FB6800BF1437BD465DF8047B7047BB
:1047A8000038024080B483B000AF78607B681B6833
:1047B80023F080027B681A6000BF0C37BD465DF8A5
:1047C800047B704780B485B000AF786039603B687F
:1047D800012B1CD03B68042B17D03B68102B12D040
:1047E8003B68402B0DD03B68B3F5807F07D03B6812
:1047F800B3F5806F01D105230AE0062308E00423FE
:1048080006E0032304E0022302E0012300E0002382
:10481800FB737B6818331946FB7B0B4AD35C0B444C
:10482800BB60BB681A68FB7B0849CB5C194604234C
:104838008B40DB431A40BB681A6000BF1437BD4683
:104848005DF8047B704700BFC0220108C822010838
:1048580080B485B000AF786039603B68012B1CD00C
:104868003B68042B17D03B68102B12D03B68402BB9
:104878000DD03B68B3F5807F07D03B68B3F5806FF8
:1048880001D105230AE0062308E0042306E00323F8
:1048980004E0022302E0012300E00023FB737B68AD
:1048A80018331946FB7B0A4AD35C0B44BB60BB68D0
:1048B8001A68FB7B0749CB5C194608238B401A43CF
:1048C800BB681A6000BF1437BD465DF8047B7047AB
:1048D800C0220108C822010880B483B000AF786004
:1048E80039607B689B6823F4804323F007033A68A8
:1048F8001A437B689A6000BF0C37BD465DF8047B9D
:10490800704780B483B000AF786039607B685B68BB
:1049180023F070023B681A437B685A6000BF0C376B
:10492800BD465DF8047B704780B483B000AF786003
:1049380039607B689B6823F007023B681A437B68F1
:104948009A6000BF0C37BD465DF8047B704780B4A1
:1049580083B000AF786039607B689B6823F0700291
:104968003B681A437B689A6000BF0C37BD465DF808
:10497800047B704780B483B000AF78607B689B6825
:1049880023F080027B689A6000BF0C37BD465DF853
:10499800047B704780B483B000AF78607B68DB68C5
:1049A80023F040027B68DA6000BF0C37BD465DF833
:1049B800047B704780B483B000AF78607B68DB68A5
:1049C80023F480427B68DA6000BF0C37BD465DF88F
:1049D800047B704780B59AB000AF07F154030022FA
:1049E8001A605A609A60DA601A6107F1340320226B
:1049F800002118460AF018FF07F11C0300221A606C
:104A08005A609A60DA601A615A613B1D00221A6086
:104A18005A609A60DA601A615A610220FFF7AAFEAA
:104A28000023A7F854300023BB654FF6FF73FB65DE
:104A380000233B6600237B6607F1540319465B4855
:104A480009F0B4FB5948FFF7ADFE00215748FFF7BE
:104A580043FF01215548FFF7FBFE60237B630023DA
:104A6800BB630023FB6300233B6400237B640223B6
:104A7800BB640023FB6400233B6507F134031A463B
:104A880001214A4809F02CFC01214848FFF79AFE09
:104A980010214648FFF7DCFE07F134031A461021BF
:104AA800424809F01DFC10214048FFF78BFE4FF4E7
:104AB80080713E48FFF7CCFE07F134031A464FF4E5
:104AC80080713A4809F00CFC4FF480713748FFF7C1
:104AD80079FE00213548FFF73AFF00213348FFF7F8
:104AE80023FF3248FFF756FF3048FFF763FF0021E6
:104AF8002E48FFF706FF2D48FFF73CFF0023FB6118
:104B080000233B6200237B62642387F8283000235C
:104B18007B854FF40053FB6200233B6307F11C03C2
:104B28001946224809F01DFC0120FFF70BFE022060
:104B3800FFF708FE0420FFF705FE80237B600223B1
:104B4800BB600023FB6000233B6100237B610323E0
:104B5800BB613B1D1946164808F023FE03237B6002
:104B68000223BB600023FB6000233B6100237B61C1
:104B78000323BB613B1D19460E4808F012FE4FF493
:104B8800E0737B600223BB600023FB6000233B6172
:104B980000237B610323BB613B1D1946064808F0CF
:104BA80000FE00BF6837BD4680BD00BF000401405D
:104BB80000000240000402400008024080B485B0B2
:104BC80000AFF860B9607A600D4ABB6813441B787F
:104BD8001A46FB6813441B6823F0C0020849BB68E7
:104BE8000B441B781946FB680B4419467B68134332
:104BF8000B6000BF1437BD465DF8047B704700BFEB
:104C0800D022010880B485B000AFF860B9607A603E
:104C18000D4ABB6813441B781A46FB6813441B688B
:104C280023F490720849BB680B441B781946FB684B
:104C38000B4419467B6813430B6000BF1437BD460D
:104C48005DF8047B704700BFD022010880B485B0AE
:104C580000AFF860B9607A600D4ABB6813441B78EE
:104C68001A46FB6813441B6823F400720849BB68A2
:104C78000B441B781946FB680B4419467B681343A1
:104C88000B6000BF1437BD465DF8047B704700BF5A
:104C9800D022010880B485B000AFF860B9607A60AE
:104CA8000D4ABB6813441B781A46FB6813441B68FB
:104CB80023F480620849BB680B441B781946FB68DB
:104CC8000B4419467B6813430B6000BF1437BD467D
:104CD8005DF8047B704700BFD022010880B485B01E
:104CE80000AFF860B9607A600D4ABB6813441B785E
:104CF8001A46FB6813441B6823F4C0520849BB6872
:104D08000B441B781946FB680B4419467B68134310
:104D18000B6000BF1437BD465DF8047B704700BFC9
:104D2800D022010880B485B000AFF860B9607A601D
:104D38000D4ABB6813441B781A46FB6813441B686A
:104D480023F4C0420849BB680B441B781946FB682A
:104D58000B4419467B6813430B6000BF1437BD46EC
:104D68005DF8047B704700BFD022010880B485B08D
:104D780000AFF860B9607A600D4ABB6813441B78CD
:104D88001A46FB6813441B6823F440320849BB6881
:104D98000B441B781946FB680B4419467B68134380
:104DA8000B6000BF1437BD465DF8047B704700BF39
:104DB800D022010880B485B000AFF860B9607A608D
:104DC8000D4ABB6813441B781A46FB6813441B68DA
:104DD80023F060620849BB680B441B781946FB68DE
:104DE8000B4419467B6813430B6000BF1437BD465C
:104DF8005DF8047B704700BFD022010880B483B0FF
:104E080000AF786039600C4A3B6813441B781A4637
:104E18007B6813445B6908493A680A44127811466A
:104E28007A680A4423F00403536100BF0C37BD4677
:104E38005DF8047B704700BFD022010880B485B0BC
:104E480000AF7860084B1A6B07497B6813430B6304
:104E5800054B1A6B7B681340FB60FB6800BF143777
:104E6800BD465DF8047B70470038024080B485B0C9
:104E780000AF7860084B1A6C07497B6813430B64D2
:104E8800054B1A6C7B681340FB60FB6800BF143746
:104E9800BD465DF8047B70470038024080B483B09B
:104EA80000AF78607B68DB6843F400527B68DA60A7
:104EB80000BF0C37BD465DF8047B704780B483B0F3
:104EC80000AF78607B681B6923F490427B681A61A5
:104ED8007B685B6923F02A027B685A6100BF0C3744
:104EE800BD465DF8047B704780B58EB000AF07F112
:104EF8001C0300221A605A609A60DA601A615A61CB
:104F08009A613B1D00221A605A609A60DA601A6141
:104F18005A614FF40030FFF7A9FF0120FFF78EFF19
:104F28000C237B600223BB600323FB6000233B61EF
:104F380000237B610723BB613B1D19463E4808F0EF
:104F480030FC4FF0006205213C48FFF733FF002298
:104F580005213A48FFF732FE002205213748FFF7BE
:104F680005FF002205213548FFF74CFE00220521E8
:104F78003248FFF76BFE4FF4806205212F48FFF798
:104F880089FE002205212D48FFF7A8FE00220521F1
:104F98002A48FFF7C7FE05212848FFF72FFF4FF0E3
:104FA800006206212548FFF705FF40220621234815
:104FB800FFF704FE002206212048FFF7D7FE002253
:104FC80006211E48FFF71EFE002206211B48FFF798
:104FD8003DFE4FF4806206211848FFF75BFE002271
:104FE80006211648FFF77AFE002206211348FFF72C
:104FF80099FE06211148FFF701FF4FF4E133FB61E9
:1050080000233B6200237B620023BB620C23FB620C
:1050180000233B6300237B6307F11C031946084800
:1050280009F0EEFD0648FFF749FF0548FFF736FF90
:1050380000BF3837BD4680BD000002400060024016
:10504800004400400FB480B400AF00BFBD465DF817
:10505800047B04B0704780B485B000AFF860B960D5
:105068007A60FB68BA681A60FB6804337A681A6069
:1050780000BF1437BD465DF8047B70470000000090
:10508800F0B58BB000AF87ED020B0346FB80FB88C1
:10509800002B77D14FF00002414BD7E90201FBF713
:1050A8002BFA02460B46C7E906239FED391B97EDFD
:1050B800060B0AF09FF853EC102B10461946FBF725
:1050C800CBFC03467B6100237B6233A3D3E9002337
:1050D800D7E90601FBF7A0FC0346002B0ED02EA350
:1050E800D3E90023D7E90601FBF730FB02460B465C
:1050F80010461946FBF7B0FC03467B627A6A796969
:105108002848FFF7A8FF284BD3E900014FF0000219
:10511800264BFBF759FC0346002B2ED1224BD3E933
:1051280000014FF000024FF04043FBF74DFC0346EF
:10513800002B22D11C4BD3E90001D7E90223FBF74E
:1051480023F802460B4614461D464FF00002184B42
:10515800D7E90201FBF7D0F902460B4601210E46BA
:1051680020462946FBF73AFC0346002B01D10023D1
:105178001E46F3B21A460F4B1A700F49D7E902239D
:10518800C1E9002300BF2C37BD46F0BDAFF3008056
:10519800000000000000F0410000E0FFFFFFEF41C9
:1051A80000408F4080060020000000200000F0BF73
:1051B8000000B03C6C0600208806002000000000BB
:1051C80080B586B000AF87ED020B0346FB80002355
:1051D8007B61FB88184697ED020BFFF751FF17A379
:1051E800D3E90023D7E90201FBF786F902460B460B
:1051F800104619464FF000020F4BFAF7C7FF024658
:105208000B4643EC172B9FED0A1BB0EE470AF0EE56
:10521800670A09F0EFFF53EC102B10461946FBF70D
:105228001BFC03467B617B6918461837BD4680BD69
:10523800000000000000F0410000E03F0000000016
:1052480080842E4180B584B000AF0023BB6000236A
:105258007B600023FB7323494FF000024FF00003EB
:10526800C1E9002320494FF000024FF00003C1E9D3
:1052780000233A1D07F108031146184605F0B0FF50
:10528800BB687A681146184604F0CEF80346FB73EB
:1052980097F90F30002B05D01448FFF7D3FE97F984
:1052A8000F301AE03A1D07F108031146184605F0B9
:1052B800AEFFBB687A681146184600F053FF0346F4
:1052C800FB7397F90F30002B05D097F90F3019466B
:1052D8000748FFF7B7FE97F90F3018461037BD4655
:1052E80080BD00BF7006002078060020D4FC0008AE
:1052F800FCFC000880B584B000AF0346FB710023B6
:10530800FB730023BB73002005F098FF00237B7319
:1053180004F058FA0346FB7397F90F30002B0DD0B1
:1053280097F90F3013F1020F08D097F90F3019468B
:105338003C48FFF787FE0123BB730BE07B7B002B08
:1053480004D197F90F3013F1020F01D0012300E0C7
:1053580000237B73BB7B002B21D100F035FF034674
:10536800FB7397F90F30002B0DD097F90F3013F11D
:10537800020F08D097F90F3019462B48FFF762FE45
:105388000123BB730BE07B7B002B04D197F90F3013
:1053980013F1020F01D0012300E000237B73BB7BD4
:1053A800002B21D104F098F90346FB7397F90F30CD
:1053B800002B0DD097F90F3013F1020F08D097F991
:1053C8000F3019461948FFF73DFE0123BB730BE068
:1053D8007B7B002B04D197F90F3013F1020F01D01A
:1053E800012300E000237B73FB79002B0DD0002004
:1053F80005F024FFBB7B002B02D17B7B002B01D166
:10540800012300E00023BB7301E00123BB73BB7BD6
:10541800002B3FF47BAF97F90F3018461037BD4685
:1054280080BD00BF24FD00085CFD00088CFD00085D
:1054380080B582B000AF0023BB70394B1B78DBB25C
:10544800002B02D0002000F0D9FF00F0ABFF03468C
:10545800FB7000237B600EE00A2005F0EFFE7B68FE
:1054680003F51C5310337B600120FFF743FF00F066
:1054780099FF0346FB707B682A4A934202D2FB7865
:10548800002BE9D100F09AFF0346BB7097F9023070
:10549800002B05D097F9023019462348FFF7D2FDB3
:1054A80004F00AFB0346BB7097F90230002B05D0C5
:1054B80097F9023019461D48FFF7C4FD1C4B00221E
:1054C8001A701C4B00221A701B4B00221A601B4BCF
:1054D80000221A601A4B00221A601A4B00221A6026
:1054E800194B00221A6019494FF000024FF040434F
:1054F800C1E900230A4B00221A700822002114482F
:105508000AF092F913494FF000024FF00003C1E985
:10551800002397F9023018460837BD4680BD00BF02
:105528006C06002000879303C4FD0008E0FD000816
:105538005306002054060020580600205C06002070
:105548006006002064060020680600200000002095
:10555800800600208806002080B586B000AF614B29
:105568001B687B617B69002B00F0B8805E4B1B7861
:10557800DBB2002B04D15B4B1B68002B00F0AE8024
:105588005A4B1B78DBB2022B40F0A880584B1B7893
:10559800002B40F0A3807B69D3E90023C7E90223ED
:1055A800544B1B78002B00F08A80534B1B78DBB2DE
:1055B800002B04D0504B1B78DBB2022B01D1012306
:1055C80000E00023FB714C4B1B78DBB2012B04D0AD
:1055D800494B1B78DBB2022B01D1012300E00023E9
:1055E800BB71FB79002B33D0444BD3E90023D7E9B7
:1055F8000201FBF707FA0346002B0AD0404BD3E918
:1056080000013E4BD3E90023FBF7E8F90346002BE2
:1056180014D13A4BD3E90023D7E90201FBF7FCF98F
:105628000346002B14D0364BD3E90001334BD3E9A2
:105638000023FBF7C9F90346002B09D0314B1B683F
:10564800002B02D1304B01221A70294B01221A700B
:10565800BB79002B33D0294BD3E90023D7E90201CA
:10566800FBF7BCF90346002B0AD0254BD3E9000110
:10567800224BD3E90023FBF7C5F90346002B14D1CD
:105688001E4BD3E90023D7E90201FBF79DF9034636
:10569800002B14D01A4BD3E90001184BD3E900238F
:1056A800FBF7BAF90346002B09D0164B1B68002BF1
:1056B80002D1154B01221A700D4B01221A700C4BA6
:1056C8001B78002B0CBF01230023DBB21A46094BC1
:1056D8001A700B49D7E90223C1E9002300BF183724
:1056E800BD4680BD9406002098060020B406002020
:1056F800C3060020C0060020B0060020A006002037
:10570800B8060020AC060020C206002080B582B092
:1057180000AF0023FB719E4B1B78DBB2002B18D126
:105728009C4B00221A709C4B00221A709B4B1B78D2
:10573800DBB2002B2DD0964B02221A70974B002219
:105748001A70974B1B78DBB2002B22D10123FB7117
:105758001FE0924B00221A708E4B1B78DBB2002B95
:1057680009D0904B00221A70894B00221A70894B7D
:1057780000221A700DE08A4B1B78DBB2002B02D195
:105788000123FB7105E0844B1B78FB71824B0022DF
:105798001A707F4B1B78DBB2042B00F2D78001A272
:1057A80052F823F0C1570008FB580008DB570008DF
:1057B800AF58000839580008784B1B78DBB2002B2B
:1057C80000F0D880724B02221A70744B00221A70B3
:1057D800D0E0FB79002B00F0CF80734B1B68002BC7
:1057E8000DDD6F4B1B78DBB2012B08D16E4B1B68AC
:1057F8001A466E4B1A60664B03221A70BCE06C4B5B
:105808001B68002B0AD0674B01221A70684B1B6873
:10581800664A13605E4B04221A70ADE06548FFF7D4
:1058280011FC604B00221A70594B00221A70A3E039
:105838005E4B1B68002B04D05C4B1B68013B5B4A2A
:1058480013605A4B1B68002B40F098805A4B1B780A
:10585800DBB2012B06D1534B00221A704C4B0022AD
:105868001A708BE0554B1B68002B0AD04D4B002259
:105878001A70524B1B684D4A1360454B01221A702F
:105888007CE0FB79002B07D0494B1B68474A136023
:105898003F4B04221A7071E0424B00221A703C4BB5
:1058A80002221A706AE0414B1B68002B04D03F4B60
:1058B8001B68013B3D4A13603C4B1B68002B5FD1C2
:1058C8003B4B1B68002B0AD0364B01221A70384B11
:1058D8001B68364A13602E4B04221A7050E0354874
:1058E800FFF7B0FB2F4B00221A70294B00221A70C9
:1058F80046E02E4B1B68002B04D02C4B1B68013B49
:105908002A4A1360294B1B68002B3BD1FB79002BDB
:1059180018D0274B1B68002B0AD0224B01221A7083
:10592800234B1B68214A1360194B04221A7029E083
:105938002048FFF787FB1B4B00221A70144B0022EC
:105948001A701FE0124B02221A701BE0104B1B78D2
:10595800DBB219461A48FFF775FB124B00221A7082
:105968000D4B00221A700B4B00221A70084B0022B4
:105978001A7008E000BF06E000BF04E000BF02E0C4
:1059880000BF00E000BF00BF0837BD4680BD00BFB4
:10599800B4060020B1060020C30600200C00002039
:1059A800B2060020C2060020AC060020C406002073
:1059B8000800002004FE0008B3060020A806002006
:1059C8002CFE000880B400AF10494FF000024FF0E1
:1059D8000003C1E900230E4B00221A700D4B1B78FF
:1059E800DAB20D4B1A700D4B00221A700C4B0022C4
:1059F8001A700C4B00221A600B4B00221A700023FD
:105A08001846BD465DF8047B704700BFB806002005
:105A1800C0060020B2060020C1060020C2060020F1
:105A2800C3060020C4060020B406002080B584B058
:105A380000AF0346FB80FB88002B3FD1314B1B781E
:105A4800DAB2314B1B789A4214BF01230023DBB230
:105A5800FB732C4B1B78DAB22B4B1A70FB7B002B99
:105A68000BD02A4B00221A70294B00221A70294B9E
:105A780000221A60284B00221A70224B1B78DBB2D6
:105A8800012B1BD1244B1B78DBB2002B04D1234BF9
:105A98001B78DBB2002B08D11F4B1B78DBB2012B24
:105AA8000CD11C4B1B68012B08D11A4B00221A6021
:105AB8001A4B00221A70184B02221A70114B1B78CD
:105AC800DBB2012B07D1164B1B889BB2FA889A428E
