:020000040800F2
:100000000000022049E500084DC6000855C600085A
:100010005DC6000865C600086DC600080000000047
:1000200000000000000000000000000001AD00081A
:1000300075C6000800000000BDAC0008EDAB00086C
:1000400099E5000899E5000899E5000899E5000898
:1000500099E5000899E5000899E5000899E5000888
:1000600099E5000899E5000899E5000883C60008AD
:1000700099E5000899E5000899E5000899E5000868
:10008000B1BD000891BD000899E5000899E5000898
:1000900099E5000899E5000899E5000899E5000848
:1000A00099E5000891C6000899E5000899E500085F
:1000B00099E5000899E5000899E5000899E5000828
:1000C00099E5000899E5000899E5000899E5000818
:1000D00099E5000899E500087DBD000899E500084C
:1000E00099E5000899E5000899E5000899E50008F8
:1000F00099E5000899E5000899E50008A5C60008FB
:1001000099E5000899E5000899E5000899E50008D7
:1001100099E5000899E5000899E5000899E50008C7
:1001200099E5000899E5000899E5000899E50008B7
:1001300099E50008000000000000000099E50008B3
:1001400099E5000899E5000899E5000899E5000897
:1001500099E5000899E5000899E5000899E5000887
:1001600099E5000899E5000899E5000899E5000877
:1001700099E5000899E50008000000000000000073
:0801800099E5000899E500086B
:1001880081F0004102E000BF83F0004330B54FEA40
:1001980041044FEA430594EA050F08BF90EA020FAD
:1001A8001FBF54EA000C55EA020C7FEA645C7FEA40
:1001B800655C00F0E2804FEA5454D4EB5555B8BF63
:1001C8006D420CDD2C4480EA020281EA030382EAD4
:1001D800000083EA010180EA020281EA0303362D66
:1001E80088BF30BD11F0004F4FEA01314FF4801C39
:1001F8004CEA113102D0404261EB410113F0004F4B
:100208004FEA03334CEA133302D0524263EB430301
:1002180094EA050F00F0A780A4F10104D5F1200E9F
:100228000DDB02FA0EFC22FA05F2801841F10001FA
:1002380003FA0EF2801843FA05F359410EE0A5F1CE
:1002480020050EF1200E012A03FA0EFC28BF4CF0FF
:10025800020C43FA05F3C01851EBE37101F00045B5
:1002680007D54FF0000EDCF1000C7EEB00006EEBC2
:100278000101B1F5801F1BD3B1F5001F0CD349084C
:100288005FEA30004FEA3C0C04F101044FEA4452A3
:1002980012F5800F80F09A80BCF1004F08BF5FEA2A
:1002A800500C50F1000041EB045141EA050130BD0A
:1002B8005FEA4C0C404141EB0101013C28BFB1F51C
:1002C800801FE9D291F0000F04BF01460020B1FA67
:1002D80081F308BF2033A3F10B03B3F120020CDA3A
:1002E8000C3208DD02F1140CC2F10C0201FA0CF018
:1002F80021FA02F10CE002F11402D8BFC2F1200C7D
:1003080001FA02F120FA0CFCDCBF41EA0C01904032
:10031800E41AA2BF01EB0451294330BD6FEA04047B
:100328001F3C1CDA0C340EDC04F11404C4F1200266
:1003380020FA04F001FA02F340EA030021FA04F378
:1003480045EA030130BDC4F10C04C4F1200220FACF
:1003580002F001FA04F340EA0300294630BD21FA0D
:1003680004F0294630BD94F0000F83F4801306BFD3
:1003780081F480110134013D4EE77FEA645C18BFC7
:100388007FEA655C29D094EA050F08BF90EA020F5E
:1003980005D054EA000C04BF1946104630BD91EA56
:1003A800030F1EBF0021002030BD5FEA545C05D159
:1003B8004000494128BF41F0004130BD14F5800498
:1003C8003CBF01F5801130BD01F0004545F0FE410C
:1003D80041F470014FF0000030BD7FEA645C1ABF41
:1003E800194610467FEA655C1CBF0B46024650EA78
:1003F800013406BF52EA033591EA030F41F40021A4
:1004080030BD00BF90F0000F04BF0021704730B529
:100418004FF4806404F132044FF000054FF00001FE
:1004280050E700BF90F0000F04BF0021704730B5BF
:100438004FF4806404F1320410F0004548BF404294
:100448004FF000013EE700BF42004FEAE2014FEAE9
:1004580031014FEA02701FBF12F07F4393F07F4FC4
:1004680081F06051704732F07F4208BF704793F0C7
:100478007F4F04BF41F40021704730B54FF46074DA
:1004880001F0004521F000411CE700BF50EA0102DD
:1004980008BF704730B54FF000050AE050EA010286
:1004A80008BF704730B511F0004502D5404261EBF6
:1004B80041014FF4806404F132045FEA915C3FF437
:1004C800D8AE4FF003025FEADC0C18BF03325FEAD4
:1004D800DC0C18BF033202EBDC02C2F1200300FA85
:1004E80003FC20FA02F001FA03FE40EA0E0021FAAA
:1004F80002F11444BDE600BF70B54FF0FF0C4CF498
:10050800E06C1CEA11541DBF1CEA135594EA0C0F49
:1005180095EA0C0F00F0DEF82C4481EA030621EA84
:100528004C5123EA4C5350EA013518BF52EA0335BF
:1005380041F4801143F4801338D0A0FB02CE4FF071
:100548000005E1FB02E506F00042E0FB03E54FF0A1
:100558000006E1FB03569CF0000F18BF4EF0010E99
:10056800A4F1FF04B6F5007F64F5407404D25FEA95
:100578004E0E6D4146EB060642EAC62141EA555148
:100588004FEAC52040EA5E504FEACE2EB4F1FD0C8A
:1005980088BFBCF5E06F1ED8BEF1004F08BF5FEA08
:1005A800500E50F1000041EB045170BD06F00046BA
:1005B80046EA010140EA020081EA0301B4EB5C0467
:1005C800C2BFD4EB0C0541EA045170BD41F480115F
:1005D8004FF0000E013C00F3AB8014F1360FDEBF84
:1005E800002001F0004170BDC4F10004203C35DA60
:1005F8000C341BDC04F11404C4F1200500FA05F3E3
:1006080020FA04F001FA05F240EA020001F0004283
:1006180021F0004110EBD37021FA04F642EB0601F9
:100628005EEA430E08BF20EAD37070BDC4F10C0423
:10063800C4F1200500FA04F320FA05F001FA04F2E7
:1006480040EA020001F0004110EBD37041F10001D3
:100658005EEA430E08BF20EAD37070BDC4F12005DE
:1006680000FA05F24EEA020E20FA04F301FA05F246
:1006780043EA020321FA04F001F0004121FA04F2EE
:1006880020EA020000EBD3705EEA430E08BF20EABE
:10069800D37070BD94F0000F0FD101F000464000F8
:1006A80041EB010111F4801F08BF013CF7D041EA7A
:1006B800060195F0000F18BF704703F0004652007E
:1006C80043EB030313F4801F08BF013DF7D043EA4F
:1006D8000603704794EA0C0F0CEA135518BF95EA05
:1006E8000C0F0CD050EA410618BF52EA4306D1D18C
:1006F80081EA030101F000414FF0000070BD50EAAB
:10070800410606BF1046194652EA430619D094EA34
:100718000C0F02D150EA013613D195EA0C0F05D11E
:1007280052EA03361CBF104619460AD181EA030172
:1007380001F0004141F0FE4141F470014FF000002A
:1007480070BD41F0FE4141F4780170BD70B54FF0C5
:10075800FF0C4CF4E06C1CEA11541DBF1CEA135545
:1007680094EA0C0F95EA0C0F00F0A7F8A4EB050427
:1007780081EA030E52EA03354FEA013100F088801E
:100788004FEA03334FF0805545EA131343EA1263E7
:100798004FEA022245EA111545EA10654FEA00269C
:1007A8000EF000419D4208BF964244F1FD0404F555
:1007B800407402D25B084FEA3202B61A65EB0305B1
:1007C8005B084FEA32024FF480104FF4002CB6EB6E
:1007D800020E75EB030E22BFB61A754640EA0C00EE
:1007E8005B084FEA3202B6EB020E75EB030E22BF2E
:1007F800B61A754640EA5C005B084FEA3202B6EB6F
:10080800020E75EB030E22BFB61A754640EA9C002D
:100818005B084FEA3202B6EB020E75EB030E22BFFD
:10082800B61A754640EADC0055EA060E18D04FEABB
:10083800051545EA16754FEA06164FEAC30343EA5B
:1008480052734FEAC2025FEA1C1CC0D111F4801F28
:100858000BD141EA00014FF000004FF0004CB6E721
:1008680011F4801F04BF01430020B4F1FD0C88BFC0
:10087800BCF5E06F3FF6AFAEB5EB030C04BFB6EBCB
:10088800020C5FEA500C50F1000041EB045170BDBE
:100898000EF0004E4EEA113114EB5C04C2BFD4EBEB
:1008A8000C0541EA045170BD41F480114FF0000E6F
:1008B800013C90E645EA060E8DE60CEA135594EAEB
:1008C8000C0F08BF95EA0C0F3FF43BAF94EA0C0FEE
:1008D8000AD150EA01347FF434AF95EA0C0F7FF463
:1008E80025AF104619462CE795EA0C0F06D152EAB7
:1008F80003353FF4FDAE1046194622E750EA41069B
:1009080018BF52EA43067FF4C5AE50EA41047FF4AB
:100918000DAF52EA43057FF4EBAE12E74FF0FF3C10
:1009280006E000BF4FF0010C02E000BF4FF0010CE1
:100938004DF804CD4FEA410C7FEA6C5C4FEA430C5A
:1009480018BF7FEA6C5C1BD001B050EA410C0CBFA9
:1009580052EA430C91EA030F02BF90EA020F00200B
:10096800704710F1000F91EA030F58BF994208BF72
:1009780090422CBFD8176FEAE37040F0010070472F
:100988004FEA410C7FEA6C5C02D150EA013C07D186
:100998004FEA430C7FEA6C5CD6D152EA033CD3D0D1
:1009A8005DF8040B704700BF8446104662468C46CB
:1009B8001946634600E000BF01B5FFF7B7FF0028FE
:1009C80048BF10F1000F01BD4DF808EDFFF7F4FF27
:1009D8000CBF012000205DF808FB00BF4DF808EDB2
:1009E800FFF7EAFF34BF012000205DF808FB00BFD5
:1009F8004DF808EDFFF7E0FF94BF012000205DF8F7
:100A080008FB00BF4DF808EDFFF7CEFF94BF0120AB
:100A180000205DF808FB00BF4DF808EDFFF7C4FFA4
:100A280034BF012000205DF808FB00BF4FEA410CED
:100A38007FEA6C5C02D150EA013C0AD14FEA430CD0
:100A48007FEA6C5C02D152EA033C02D14FF000000D
:100A580070474FF0010070474A0011D212F500129A
:100A680011D20DD56FF47873B3EB62520ED44FEAFE
:100A7800C12343F0004343EA505323FA02F070477E
:100A88004FF00000704750EA013002D14FF0FF30BC
:100A980070474FF00000704753B94AB9002908BFA2
:100AA80000281CBF4FF0FF314FF0FF3000F00CB8AA
:100AB800ADF1080C6DE904CE0DF028FFDDF804E077
:100AC800DDE9022304B07047704700BF844641EA5D
:100AD800000313F003036DD1403A41D351F8043BAE
:100AE80040F8043B51F8043B40F8043B51F8043B00
:100AF80040F8043B51F8043B40F8043B51F8043BF0
:100B080040F8043B51F8043B40F8043B51F8043BDF
:100B180040F8043B51F8043B40F8043B51F8043BCF
:100B280040F8043B51F8043B40F8043B51F8043BBF
:100B380040F8043B51F8043B40F8043B51F8043BAF
:100B480040F8043B51F8043B40F8043B51F8043B9F
:100B580040F8043B51F8043B40F8043B403ABDD20E
:100B6800303211D351F8043B40F8043B51F8043BB0
:100B780040F8043B51F8043B40F8043B51F8043B6F
:100B880040F8043B103AEDD20C3205D351F8043B3F
:100B980040F8043B043AF9D2043208D0D2071CBF0B
:100BA80011F8013B00F8013B01D30B880380604634
:100BB800704700BF082A13D38B078DD010F00303AA
:100BC8008AD0C3F10403D21ADB071CBF11F8013B1A
:100BD80000F8013B80D331F8023B20F8023B7BE769
:100BE800043AD9D3013A11F8013B00F8013BF9D294
:100BF8000B7803704B7843708B788370604670472E
:100C08000348044B834202D0034B03B11847704793
:100C1800BC010020BC010020000000000548064B74
:100C28001B1AD90F01EBA301491002D0034B03B1E2
:100C380018477047BC010020BC01002000000000DC
:100C480010B5064C237843B9FFF7DAFF044B13B10C
:100C58000448AFF300800123237010BDC0010020B9
:100C680000000000A0ED000808B5054B1BB10549C0
:100C78000548AFF30080BDE80840FFF7CFBF00BFCD
:100C880000000000C4010020A0ED000880B483B07B
:100C980000AF786039600C4A3B6813441B781A46E9
:100CA8007B6813441B6808493A680A44127811465D
:100CB8007A680A4443F00103136000BF0C37BD464D
:100CC8005DF8047B704700BF4016010880B485B00A
:100CD80000AFF860B9607A600D4ABB6813441B78AE
:100CE8001A46FB6813445B681B0C1B040849BA6866
:100CF8000A4412781146FA680A4411467A6813437E
:100D08004B6000BF1437BD465DF8047B704700BFD9
:100D18004016010880B485B000AFF860B9607A6009
:100D28003B60BB69402B14D1174ABB6813441B783E
:100D38001A46FB6813441A467B68D360124ABB689C
:100D480013441B781A46FB6813441A463B689360A1
:100D580013E00D4ABB6813441B781A46FB6813441A
:100D68001A467B689360084ABB6813441B781A4686
:100D7800FB6813441A463B68D36000BF1437BD466E
:100D88005DF8047B704700BF4016010880B483B04B
:100D980000AF786039600C4A3B6813441B781A46E8
:100DA8007B6813441B6808493A680A44127811465C
:100DB8007A680A4443F01003136000BF0C37BD463D
:100DC8005DF8047B704700BF4016010880B483B00B
:100DD80000AF78607B681B6843F040027B681A604C
:100DE80000BF0C37BD465DF8047B704780B483B004
:100DF80000AF78607B681B6823F040027B681A604C
:100E080000BF0C37BD465DF8047B704780B483B0E3
:100E180000AF78607B681B6803F04003402B01D16A
:100E2800012300E0002318460C37BD465DF8047B1B
:100E3800704780B483B000AF78607B681B6803F4A8
:100E4800827318460C37BD465DF8047B704780B442
:100E580083B000AF786039607B681B6823F00102BB
:100E68003B681A437B681A6000BF0C37BD465DF8C3
:100E7800047B704780B483B000AF78607B681B68E0
:100E880003F0010318460C37BD465DF8047B704734
:100E980080B483B000AF786039607B681B6823F04A
:100EA80002023B681A437B681A6000BF0C37BD46D4
:100EB8005DF8047B704780B483B000AF78607B68CE
:100EC8001B6803F0020318460C37BD465DF8047B27
:100ED800704780B483B000AF786039607B681B6866
:100EE80023F444423B681A437B681A6000BF0C37FE
:100EF800BD465DF8047B704780B483B000AF78606E
:100F08007B681B6803F4444318460C37BD465DF8FC
:100F1800047B704780B483B000AF786039607B6829
:100F28001B6823F400623B681A437B681A6000BFA1
:100F38000C37BD465DF8047B704780B483B000AFC2
:100F480078607B681B6803F4006318460C37BD465D
:100F58005DF8047B704780B483B000AF78607B682D
:100F68009B6803F00103012B01D1012300E000235A
:100F780018460C37BD465DF8047B704780B483B0D3
:100F880000AF78607B689B6803F00203022B01D1F5
:100F9800012300E0002318460C37BD465DF8047BAA
:100FA800704780B483B000AF78607B689B6803F0BB
:100FB8008003802B01D1012300E0002318460C3761
:100FC800BD465DF8047B704780B483B000AF78609D
:100FD8007B685B6843F040027B685A6000BF0C374F
:100FE800BD465DF8047B704780B483B000AF78607D
:100FF8007B685B6843F001027B685A6000BF0C376E
:10100800BD465DF8047B704780B483B000AF78605C
:101018007B685B6843F002027B685A6000BF0C374C
:10102800BD465DF8047B704780B483B000AF78603C
:101038007B680C3318460C37BD465DF8047B704757
:1010480080B483B000AF78607B680C331B78DBB268
:1010580018460C37BD465DF8047B704780B483B0F2
:1010680000AF78607B68DB689BB218460C37BD46DA
:101078005DF8047B704780B485B000AF78600B469C
:10108800FB707B680C33FB60FB68FA781A7000BF52
:101098001437BD465DF8047B704780B485B000AF57
:1010A80078600B467B807B680C33FB60FB687A8832
:1010B8001A8000BF1437BD465DF8047B70470000F6
:1010C80080B584B000AF786039600023FB600023EE
:1010D800BB607B68002B0BD03B68002B08D07B687B
:1010E800BB60BB681B68654A934201D1644BFB60D7
:1010F800FB68002B00F0BC80BB681A68FB681A60AC
:10110800FB6893F84620BB6893F846301343DAB27D
:10111800FB6883F84620FB6893F84420BB6893F883
:1011280044301343DAB2FB6883F84420FB6893F831
:101138004520BB6893F845301343DAB2FB6883F85F
:101148004520FB683A68DA61BB6893F8463003F0DB
:101158000103002B32D0BB689A6AFB689A62BB68AD
:101168001A6AFB681A62FB6800225A63FB6800224D
:101178001A63FB68002283F84020FB6893F8443028
:1011880003F00403002B05D0FB681B681846FFF723
:101198001BFF13E0FB6893F8443003F01003002BA7
:1011A8000CD0BB685A68FB685A60BB6893F8542037
:1011B800FB6883F85420F86800F0FEFABB6893F8DF
:1011C800463003F00203002B28D0BB68DA6AFB68BC
:1011D800DA62BB685A6AFB685A62FB6800229A6343
:1011E800FB680022DA63FB6800229A61FB68002230
:1011F80083F85620FB6893F8453003F02003002B52
:101208000CD0BB689A68FB689A60BB6893F8552055
:10121800FB6883F85520F86800F00FFB3B68FA6814
:101228001A60FB681B681846FFF766FE0346B3F5AD
:10123800004F0ED1FB681B681846FFF7FAFD0346FE
:10124800B3F5827F05D1FB681B681846FFF7CEFD12
:1012580004E0FB681B681846FFF7B8FDBB681B680D
:101268001A46064B9A4202D000233B6000E000BFBA
:101278003B6818461037BD4680BD00BF003C0040A3
:10128800DC01002080B582B000AF78600B467B801F
:101298007868FFF731FE0346B3F5004F0BD17B8822
:1012A800012B08D1786800F0F4FA4FF440417868CF
:1012B800FFF70FFE11E07868FFF71EFE0346B3F54F
:1012C800404F0AD17B88002B07D1786800F0E1FAFB
:1012D8004FF400417868FFF7FCFD002318460837F3
:1012E800BD4680BD80B586B000AFF8607A601A460A
:1012F8000B467B8113467B7200237B61FB68002BC6
:1013080006D0FB681B68002B02D0FB681B687B615A
:101318007B689BB21B0A7B827B897A69134493F8AA
:101328004E30002B0CD07B69B3F84C207B7A9BB2F3
:101338009A4205D17B695B697A689A4200F0C88055
:101348007B7A9AB27B69A3F84C207B697A685A61E8
:101358007B691B68184600F09CFA7B69B3F84C302F
:10136800002B1CD17B691B681846FFF783FD0346D9
:10137800002B05D07B691B6800211846FFF767FD25
:101388007B691B681846FFF796FD0346022B66D05B
:101398007B691B6802211846FFF77AFD5FE07B69CD
:1013A800B3F84C30012B1CD17B691B681846FFF73A
:1013B80061FD0346012B05D07B691B680121184696
:1013C800FFF745FD7B691B681846FFF774FD034668
:1013D800022B44D07B691B6802211846FFF758FD91
:1013E8003DE07B69B3F84C30022B1CD17B691B684C
:1013F8001846FFF73FFD0346002B05D07B691B68A5
:1014080000211846FFF723FD7B691B681846FFF784
:1014180052FD0346002B22D07B691B680021184629
:10142800FFF736FD1BE07B691B681846FFF722FDB6
:101438000346012B05D07B691B6801211846FFF77D
:1014480006FD7B691B681846FFF735FD0346002B30
:1014580005D07B691B6800211846FFF719FD7B69D9
:101468001B681846FFF769FD02467B6893420CD05B
:101478007B691A687B8A082B01D8002301E04FF4A6
:10148800006319461046FFF745FD7B691B6818463F
:10149800FFF732FD0346B3F5004F0ED17B691B6899
:1014A8001846FFF7C6FC0346B3F5827F05D17B6972
:1014B8001B68184600F0EDF904E07B691B681846C4
:1014C800FFF784FC7B897A691344012283F84E2054
:1014D800002318461837BD4680BD80B58AB000AFD6
:1014E800F860B96011461A460B46FB801346BB806C
:1014F8000023BB840023FB610CF072F9F861002320
:101508003B62FB68002B06D0FB681B68002B02D0EF
:10151800FB681B683B623B6A1B6801211846FFF7A2
:10152800B1FE0346BB843B8E002B01D100237B63B5
:101538003B6A1B681846FFF769FC0346002B04D179
:101548003B6A1B681846FFF741FCBB88DBB2002BDF
:101558002CD1BB687B610023FB8422E03B6A1B68BB
:101568001846FFF70BFD0346012B0CD13B6A1868A0
:10157800FB8C7A6913441B781946FFF77CFDFB8CBA
:101588000133FB840DE00121F86909F0A5FA024650
:101598007B6B934205D2386A00F0C3F90346BB84DB
:1015A80035E0FA8CFB889A42D8D330E0BB88DBB2AE
:1015B800012B2CD1BB68BB610023FB8423E03B6A71
:1015C8001B681846FFF7DAFC0346012B0DD13B6A6E
:1015D8001868FB8C5B00BA6913441B881946FFF72F
:1015E8005CFDFB8C0133FB840DE00121F86909F0F7
:1015F80073FA02467B6B934205D2386A00F091F980
:101608000346BB8403E0FA8CFB889A42D7D3BB8C91
:1016180018462837BD4680BD90B58FB004AFF86036
:10162800B96011461A460B46FB801346BB8000235F
:10163800BB840023BB610CF0D3F8B861FB887B84C2
:101648000023FB61FB68002B06D0FB681B68002B9E
:1016580002D0FB681B68FB61FB691B680021184608
:10166800FFF710FE0346BB843B8F002B01D10023FC
:10167800FB63FB691B681846FFF7DBFB0346B3F502
:10168800827F0BD1FB691B681846FFF735FC0346C0
:10169800B3F5004F02D17B8C013B7B84FB691B684F
:1016A8001846FFF7B3FB0346002B04D1FB691B6800
:1016B8001846FFF78BFBBB88DBB2002B39D1BB6820
:1016C8003B610023FB842FE0FB691B681846FFF78A
:1016D80042FC0346002B0DD0FB691968FB8C3A6964
:1016E800D4180846FFF7ACFC03462370FB8C013383
:1016F800FB8419E00121B86909F0EEF90246FB6B99
:10170800934211D2798CFA8CFB6B0393BB690293D9
:10171800BB880193FB8800930B463969F86900F090
:101728000BF90346BB8442E0FA8C7B8C9A42CBD3FC
:101738003DE0BB88DBB2012B39D1BB687B6100235C
:10174800FB8430E0FB691B681846FFF704FC03467E
:10175800002B0ED0FB691968FB8C5B007A69D418E2
:101768000846FFF77BFC03462380FB8C0133FB8490
:1017780019E00121B86909F0AFF90246FB6B934201
:1017880011D2798CFA8CFB6B0393BB690293BB88EB
:101798000193FB8800930B467969F86900F0CCF84F
:1017A8000346BB8403E0FA8C7B8C9A42CAD3BB8C79
:1017B80018462C37BD4690BDB0B584B002AF7860EE
:1017C8007B685C687B6893F854301D467B681B68AF
:1017D8001846FFF729FC02467B681B6A1946002356
:1017E80000930B4629462046FFF794FA7B68586811
:1017F8007B6893F8543019467B68DB691B691A4685
:10180800FFF764FA7B685A687B6893F85430194686
:101818001046FFF7BBFA7B681B681846FFF7E4FB26
:101828007B685A687B6893F8543019461046FFF76E
:101838002DFA00BF0837BD46B0BDF0B585B002AF80
:1018480078607B689C687B6893F855301D467B6898
:101858005B6A1E467B681B681846FFF7E5FB034674
:1018680040220092324629462046FFF753FA7B6809
:101878009A687B6893F8553019461046FFF786FA40
:101888007B681B681846FFF7BFFB00BF0C37BD46D7
:10189800F0BD80B582B000AF78607868FFF7B6FA1F
:1018A8000346002B2CD07868FFF726FB0346002B55
:1018B8000AD100BF7868FFF774FB0346002BF9D103
:1018C8007868FFF793FA1BE07868FFF715FB034683
:1018D800B3F5806F06D07868FFF70EFB0346B3F5C3
:1018E800004F03D17868FFF781FA09E000BF7868F4
:1018F800FFF757FB0346002BF9D17868FFF776FA14
:1019080000BF0837BD4680BD80B485B000AFF86021
:10191800B9607A603B6000BF1437BD465DF8047B50
:10192800704780B483B000AF7860012318460C3745
:10193800BD465DF8047B704790B587B000AFF8608E
:10194800B96011461A460B46FB801346BB80FB68FC
:101958001B681846FFF74AFAFB681B681846FFF72A
:1019680068FA0346B3F5827F37D1FB681B681846CF
:10197800FFF7C2FA0346B3F5004F2ED1BA883B8D64
:101988009A422AD0FB681B681846FFF7E4FA034618
:10199800002BF7D0BB8DDBB2002B0CD1BB683B61B1
:1019A800FB681968FB883A69D4180846FFF748FBB2
:1019B8000346237010E0BB8DDBB2012B0CD1BB6852
:1019C8007B61FB681968FB885B007A69D418084654
:1019D800FFF744FB0346238000BF012318461C374A
:1019E800BD4690BD80B485B000AF786039600023F3
:1019F800FB7397F90F3018461437BD465DF8047B22
:101A08007047000080B584B000AF7860396000236B
:101A1800FB727B68002B05D1374802F021FF4FF09D
:101A2800FF3365E03B68002B05D1344802F018FF0E
:101A38004FF0FF335CE0324BD3E900014FF0000276
:101A48004FF04043FEF7C0FF0346002B06D03B682B
:101A5800D3E900232A49C1E9002305E0284BD3E94B
:101A680000233968C1E90023254BD3E900014FF071
:101A78000002244BFEF7A8FF0346002B02D02248A1
:101A880002F0EEFE7B685B681B68204A13607B6887
:101A98005B685B681E4A13607B685B689B681D4ACD
:101AA80013607B685B68DB681B4A13601B4B002272
:101AB8001A6003F093FB0023FB600023FB6007E040
:101AC800174AFB68174942F82310FB680133FB608B
:101AD800FB68012BF4D902F0C1FF0346FB7297F9AA
:101AE8000B30002B02D1104B01221A7097F90B30E2
:101AF80018461037BD4680BDB8ED0008DCED00087B
:101B0800000000200000F0BF08EE00088405002057
:101B1800880500208C0500209005002094050020F1
:101B2800340200204D5200088105002080B586B09F
:101B380000AF78600023FB7500233B610023FB7333
:101B48002A4B1B78DBB2002B0CBF01230023DBB22E
:101B5800BB73274B02221A707B68002B0BD1234BD7
:101B68001B78DBB2002B06D1224B1B78DBB2002B93
:101B780001D1012300E00023FB7316E00A2008F0DE
:101B88006BFF3B6903F51C5310333B617B68B3F172
:101B9800FF3F05D03A697B689A4201D9012300E0EA
:101BA8000023FB73002002F0B1FF104B1B78DBB25F
:101BB800002B07D10F4B1B78DBB2002B02D1FB7B2C
:101BC800002BDBD00A4B03221A70FB7B002B01D0C1
:101BD8009C23FB75BB7B002B01D003F02DFC97F9F0
:101BE800173018461837BD4680BD00BF7F05002056
:101BF800810500208005002080B588B000AF03462D
:101C080087ED000BFB810023FB770123BB774FF0A7
:101C180000024FF00003D7E90001FEF7DFFE03469C
:101C2800002B05D02F4802F01BFE4FF0FF3355E084
:101C3800FB89FF2B08D9FB89FF2219462A4802F0A5
:101C48000FFE4FF0FF3349E0284B1B78DBB2032B24
:101C580004D0264B1B78DBB2012B02D1234B042284
:101C68001A70FB89012B15D8FB89214A52F82330B9
:101C7800002B0FD003F0A2FF03467B777B7F022B5C
:101C880008D1FB891A4A52F82330FA891046984736
:101C98000346BB77FB897B83FB89184697ED000BCE
:101CA80002F09AFE7861BB7F002B07D07B8B7969A5
:101CB800184603F05FFF0346FB7703E07B8B18466B
:101CC80003F0B7FF97F91F30002B05D097F91F30A5
:101CD8001946084802F0C4FD97F91F301846203706
:101CE800BD4680BD74EE0008B8EE000881050020EE
:101CF80034020020F8EE000880B582B000AF00235F
:101D0800FB71002002F002FF0346FB7197F90730D0
:101D180018460837BD4680BD80B582B000AF0023A5
:101D2800FB710B4B06221A7002F08EFF0346FB7103
:101D38000822002107480CF047FF03F003FB044B7F
:101D480000221A7097F9073018460837BD4680BD3B
:101D5800810500203402002080B400AF034B1B78BB
:101D6800DBB21846BD465DF8047B7047800500204D
:101D780080B400AF034B1B78DBB21846BD465DF854
:101D8800047B70479805002080B483B000AF78606A
:101D980039607B683A689A6100BF0C37BD465DF8C8
:101DA800047B704780B483B000AF786039603B68CB
:101DB8001A047B689A6100BF0C37BD465DF8047B46
:101DC8007047000080B400AF084BDA8F013292B23E
:101DD800DA87064BDB8FB3F57A7F02D3034B0022F9
:101DE800DA8700BFBD465DF8047B70479804002081
:101DF80080B483B000AF78607B684FF0FF321A6020
:101E080000BF0C37BD465DF8047B704780B483B0D3
:101E180000AF78607B684FF0FF321A6000BF0C3764
:101E2800BD465DF8047B704780B485B000AF0346BB
:101E3800B9607A60FB817B684FF0FF321A60FB89DA
:101E4800DB039AB2BB681A8000BF1437BD465DF841
:101E5800047B704780B483B000AF78607B684FF034
:101E6800FF321A6000BF0C37BD465DF8047B70472F
:101E780080B483B000AF78607B684FF0FF321A609F
:101E880000BF0C37BD465DF8047B704780B485B051
:101E980000AF0346B9607A60FB817B684FF0FF3280
:101EA8001A60FB89DB029AB2BB681A8000BF14373C
:101EB800BD465DF8047B704780B59AB000AF786086
:101EC8007B6800221A727B6801225A600023BB6279
:101ED8000023FB62254BBB60002387F84E300023AC
:101EE8003B6300237B63012387F84C30022387F888
:101EF8004D300023FB60002387F85C3000233B61F2
:101F0800002387F85D307B6800221A617B68184AD5
:101F18005A61012387F867307B680E229A617B68D3
:101F2800012283F824207B6897F867201A777B685A
:101F38000F221A627B6810333B6607F10803396E7B
:101F48001846FFF7BDF802467B68DA607B68D868F8
:101F580003234FF470620221FFF7C4F97B68012262
:101F68001A7200BF6837BD4680BD00BF003C004004
:101F78000008024080B582B000AF78607B6800221C
:101F88005A607B6800221A707B68012283F8282037
:101F98007B681846FFF790FF00BF0837BD4680BD35
:101FA80080B586B002AF786039603B68D868032393
:101FB8004FF470620221FFF795F90346FB81FB8914
:101FC800002B0FD13B68D86879680123019301235E
:101FD800009301230F22FFF71FFB4FF480410348B2
:101FE800FFF7D2FE00BF1037BD4680BD0008024093
:101FF80080B586B002AF78607B681B78002B16D15D
:102008007B6801221A707B685B68012B0FD17B68A3
:102018001B7A002B0BD04FF0FF33FB607B68D8682E
:102028000E230093FB68FA68F968FFF76DFC00BFA0
:102038001037BD4680BD000080B59AB000AF78600B
:102048007B6800221A727B6801225A600023BB62F7
:102058000023FB62254BBB60002387F84E3000232A
:102068003B6300237B63012387F84C30022387F806
:102078004D300023FB60002387F85C3000233B6170
:10208800002387F85D307B6800221A617B68184A54
:102098005A61012387F867307B680E229A617B6852
:1020A800012283F824207B6897F867201A777B68D9
:1020B80010221A627B6810333B6607F10803396EF9
:1020C8001846FEF7FDFF02467B68DA607B68D86831
:1020D80003234FF470620221FFF704F97B680122A1
:1020E8001A7200BF6837BD4680BD00BF003C004083
:1020F8000008024080B59AB000AF78600023BB6248
:102108000023FB62234BBB60002387F84E3000237B
:102118003B6300237B63012387F84C30022387F855
:102128004D300023FB60002387F85C3000233B61BF
:10213800002387F85D307B6800221A617B68164AA5
:102148005A61012387F867307B680E229A617B68A1
:10215800012283F824207B6897F867201A777B6828
:1021680001221A627B6810333B6607F10803396E57
:102178001846FEF7A5FF02467B68DA607B68D868D8
:1021880003234FF470620221FFF7ACF800BF6837F1
:10219800BD4680BD003C00400008024080B59AB0B2
:1021A80000AF78607B6800221A727B6801225A604F
:1021B8000023BB620023FB62254BBB60002387F82A
:1021C8004E3000233B6300237B63012387F84C30A8
:1021D800022387F84D300023FB60002387F85C302A
:1021E80000233B61002387F85D307B6800221A6179
:1021F8007B68184A5A61012387F867307B680E228A
:102208009A617B68012283F824207B6897F867200D
:102218001A777B6801221A627B6810333B6607F1E4
:102228000803396E1846FEF74BFF02467B68DA60F2
:102238007B68D86803234FF470620221FFF752F8D5
:102248007B6801221A7200BF6837BD4680BD00BF97
:10225800003C00400008024090B59DB002AFBF4B63
:1022680093F93F3187F85730002387F85F3097F8A4
:102278005730042B1FD801A252F823F099220008E6
:10228800A1220008A9220008B1220008B9220008EA
:10229800002387F85F300EE0032387F85F300AE0F9
:1022A800032387F85F3006E0002387F85F3002E0F9
:1022B800002387F85F3097F95F20A84B83F83F2108
:1022C800A64B93F93E3187F85630002387F85E30E5
:1022D80097F85630042B20D801A252F823F000BFFB
:1022E800FD220008052300080D2300081523000817
:1022F8001D230008002387F85E300EE0032387F8CB
:102308005E300AE0032387F85E3006E0002387F892
:102318005E3002E0002387F85E3097F95E208F4B2D
:1023280083F83E218D4B93F93D3187F855300023D2
:1023380087F85D3097F85530042B20D801A252F861
:1023480023F000BF612300086923000871230008F7
:102358007923000881230008002387F85D300EE008
:10236800032387F85D300AE0032387F85D3006E031
:10237800002387F85D3002E0002387F85D3097F985
:102388005D20764B83F83D21744B93F93C3187F8F7
:102398005430002387F85C3097F85430042B20D849
:1023A80001A252F823F000BFC5230008CD2300087E
:1023B800D5230008DD230008E5230008002387F85B
:1023C8005C300EE0032387F85C300AE0032387F8CB
:1023D8005C3006E0002387F85C3002E0002387F8D1
:1023E8005C3097F95C205D4B83F83C215C4BDB8FBC
:1023F800002B40F0A084594B93F84131062B07D8A5
:10240800564B93F841310133DAB2544B83F84121EA
:10241800524B93F84031002B19D1504B012283F8CD
:1024280040214E4B002283F841214C4B0222C3F835
:1024380038214A494FF000024A4BC1E940234A4932
:102448004FF000024FF00003C1E900237DE1434B48
:10245800D3F83831013B0A2B00F24D8101A252F822
:1024680023F000BF99240008CF2400081325000892
:1024780075250008AD250008D92500081126000893
:102488003D2600085D26000893260008C926000896
:1024980035494FF00002334BC1E900232F4B93F825
:1024A8004131012B40F242812C4B002283F841211B
:1024B8002A4B0822C3F838212B494FF00002294B38
:1024C800C1E90A2332E128494FF000024FF0000326
:1024D800C1E90023214BD3E940014FF00002214B11
:1024E800FEF772FA0346002B00D12EE11B4B0022A7
:1024F80083F84121194B0122C3F838211A494FF0BA
:102508000002184BC1E900231FE117494FF00002F0
:102518004FF00003C1E90A23134BD3E900014FF040
:102528000002104BFEF750FA0346002B00D1FFE0E3
:102538000A4B93F84131042B40F2FA80074B0022F2
:1025480083F84121054B0422C3F8382106494FF08E
:102558000002044BC1E90423EAE000BFB8020020EE
:10256800980400200000F03F4002002093494FF0FB
:102578000002934BC1E90423924B93F84131042B99
:1025880040F2D8808F4B002283F841218D4B0522E1
:10259800C3F8382189494FF000024FF00003C1E920
:1025A8000423C7E085494FF000024FF00003C1E95A
:1025B8000423844B002283F84121824B0622C3F86E
:1025C80038217E494FF000027D4BC1E90223BCE06F
:1025D8007A494FF000027A4BC1E90223794B93F80C
:1025E8004131022B40F2A880764B002283F841212A
:1025F800744B0722C3F8382170494FF000024FF09E
:102608000003C1E9022397E06C494FF000024FF044
:102618000003C1E902236B4B002283F84121694B77
:102628000922C3F8382165494FF00002644BC1E91B
:1026380006238AE0634B002283F84121614B032281
:10264800C3F838215D494FF000024FF00003C1E99B
:102658000A237AE059494FF00002594BC1E9062391
:10266800584B93F84131012B68D9564B002283F817
:102678004121544B0A22C3F8382150494FF0000237
:102688004FF00003C1E9062358E04C494FF000021F
:102698004FF00003C1E906234A4B93F84131012B5F
:1026A8004ED9484B002283F84121464B0B22C3F8F0
:1026B800382142494FF00002414BC1E908233FE06D
:1026C8003E494FF000023E4BC1E908233D4B93F8C9
:1026D8004131012B36D93B4B002283F84121394B3C
:1026E8000C22C3F8382135494FF000024FF000039F
:1026F800C1E9082326E031494FF000024FF00003FA
:10270800C1E908232F4B93F84131012B1CD92D4BDC
:10271800002283F841212B4B0922C3F8382127498D
:102728004FF00002264BC1E906230DE000BF0CE084
:1027380000BF0AE000BF08E000BF06E000BF04E0F9
:1027480000BF02E000BF00E000BF1C4BD3E900015E
:102758004FF000024FF00003FEF736F90346002B56
:102768000DD1164BD3E904014FF000024FF00003DE
:10277800FEF72AF90346002B01D1012300E00023CC
:10278800DAB20E4B83F83A200C4BD3E900014FF034
:1027980000024FF00003FEF717F90346002B13D190
:1027A800064BD3E902014FF000024FF00003FEF799
:1027B8000BF90346002B07D1012306E04002002055
:1027C8000000F03FB80200200023DAB2944B83F8EF
:1027D8003B20934B93F83B30002B00F08E80914BBD
:1027E80093F84531002B09D18F48FFF70FFB8F482D
:1027F800FFF73EFB8B4B012283F84521894B586B31
:1028080003234FF470620221FEF76CFD0346FB8040
:10281800FB88002B10D1834B586B07F1080101236B
:1028280001930123009301231022FEF7F5FE4FF4D4
:1028380080417F48FFF7A8FABB1D7B4A1946002054
:10284800FFF7F2FA3B1D794A19460320FFF71EFBF2
:10285800FA88BB8813439AB2764BDB8813439AB243
:102868006F4BDA866E4BDA8E6D4B1A876D4BD3F849
:10287800D40003234FF470620221FEF733FD0346B0
:10288800FB80FB88002B11D14FF480416848FFF78B
:1028980089FA644BD3F8D4004FF47A730193012377
:1028A8000093012301226449FEF717FE5D4B93F95B
:1028B8003F3187F8533097F8533087F85B3097F8F3
:1028C8005330042B13D801A252F823F0E92800084A
:1028D800F7280008F7280008F1280008F72800085A
:1028E800022387F85B3002E0012387F85B3097F911
:1028F8005B204C4B83F83F2103E04A4B002283F8CE
:102908004521474B93F83A30002B00F09B80454B0C
:1029180093F84431002B09D14848FFF777FA484823
:10292800FFF7A6FA3F4B012283F84421BB1D434A17
:1029380019460020FFF778FA3B1D414A1946022044
:10294800FFF7A4FAFA88BB8813439AB2394B9B88DD
:1029580013439BB2BB80334BD3F8AC0003234FF433
:1029680070620221FEF7BEFC0346FB80FB88002B49
:1029780010D14FF480412E48FFF714FA294BD3F8B1
:10298800AC00391D0A23019301230093012301227E
:10299800FEF7A3FD234BD86803234FF4706202218E
:1029A800FEF7A0FC0346FB80FB88002B0FD11D4BD4
:1029B800D868B91D01230193012300930123012243
:1029C800FEF72AFE4FF480411948FFF7DDF9154B51
:1029D80093F93E3187F8523097F8523087F85A30D9
:1029E80097F85230042B14D801A252F823F000BFF4
:1029F8000D2A00081B2A00081B2A0008152A0008AF
:102A08001B2A0008022387F85A3002E0012387F8BE
:102A18005A3097F95A20034B83F83E2116E000BF3D
:102A280040020020B8020020900400208804002002
:102A38000008024050160108780200208004002097
:102A480078040020A04B002283F844219F4BD3E94F
:102A580006014FF000024FF00003FDF7DDFF0346CB
:102A6800002B72D0984B93F84331002B09D198482A
:102A7800FFF7CCF99748FFF7FBF9934B012283F84E
:102A8800432195499548FFF78BFABB1D904A194693
:102A98000120FFF7C9F93B1D8E4A19460220FFF7AE
:102AA800F5F9FA88BB8813439AB28D4B5B881343B8
:102AB8009AB2864B5A86854B5A8E844B9A86824B9D
:102AC800D3F8840003234FF470620221FEF70AFC56
:102AD8000346FB80FB88002B10D14FF480418148CE
:102AE800FFF760F9784BD3F88400012301930123A1
:102AF8000093012301227C49FEF7EFFC724B93F906
:102B08003D3187F8513097F8513087F8593097F8A8
:102B18005130042B13D801A252F823F0392B0008A6
:102B2800472B0008472B0008412B0008472B0008BB
:102B3800022387F8593002E0012387F8593097F9C2
:102B48005920614B83F83D2118E05F4B93F84331DE
:102B5800002B13D000237B6609E05C4A7B6E2C3384
:102B68005B00134400225A807B6E01337B667B6EC8
:102B78000E2BF2DD544B002283F84321534BD3E94B
:102B880008014FF000024FF00003FDF745FF034630
:102B9800002B6CD04C4B93F84231002B09D1534891
:102BA800FFF734F95248FFF763F9474B012283F8DE
:102BB800422150495048FFF7F3F9BB1D4B4A1946CB
:102BC8000120FFF731F93B1D494A19460320FFF759
:102BD8005DF9FA88BB8813439AB2414B1B881343AB
:102BE8009AB23A4B1A86384BD86D03234FF4706269
:102BF8000221FEF777FB0346FB80FB88002B0FD1F1
:102C08004FF480413748FFF7CDF82F4BD86D01239B
:102C1800019301230093012301223849FEF75DFC4B
:102C2800294B93F93C3187F8503097F8503087F8A2
:102C3800583097F85030042B13D801A252F823F0DB
:102C48005D2C00086B2C00086B2C0008652C000814
:102C58006B2C0008022387F8583002E0012387F81C
:102C6800583097F95820184B83F83C2118E0164B38
:102C780093F84231002B13D000237B6609E0134AF6
:102C88007B6E1C335B00134400229A807B6E0133F9
:102C98007B667B6E0E2BF2DD0B4B002283F8422104
:102CA800174BFB640023BB64084BD3E900014FF0CA
:102CB80000024FF00003FDF787FE0346002B21D1E9
:102CC8004FF480533B661FE0B8020020400200200A
:102CD80070040020680400203C0400209A020020B0
:102CE8005016010800080240740200203404002035
:102CF8002C040020000400207C0200207002002028
:102D08000004024000233B663A6EBB6C02FA03F3F0
:102D18003B664FF48052BB6C02FA03F37B64396E56
:102D2800F86CFFF731F83B6EDA437B6C13401946B9
:102D3800F86CFFF737F8002387F84330224BD3E9C4
:102D48000823C7E90E2397ED0E0B0020FEF754FF6A
:102D5800034687F843301C4BDB8F002B13D100232D
:102D680087F83730184B9B6B1846FDF74BFB02462C
:102D78000B46C7E90A2397ED0A0B0120FEF73CFF33
:102D8800034687F83730104B9A6A01329A629B6A79
:102D98001846FDF737FB0C4BD3E90C230A4CFDF71B
:102DA800ABFB02460B46C4E90823074BDB8F002B1D
:102DB80003D1054B9A6B01329A63FFF703F800BF02
:102DC8006C37BD4690BD00BF98040020000000008D
:102DD80080B500AF8C494FF000028C4BC1E910233D
:102DE800894987A3D3E90023C1E90C23864B884A84
:102DF8009A60854B874ADA60834B874A1A61824B0F
:102E0800864A5A61804B864A5A60854B854A1A60C1
:102E1800844B854A1A60834B834A5A60814B834AA4
:102E28009A60804B814ADA607E4B804A1A617D4BFA
:102E38007E4A5A617B4B7D4A9A617A4B7B4ADA61BA
:102E4800784B7A4A1A62774B794A5A62754B784AB4
:102E58009A62744B764ADA62724B754A1A63714BFE
:102E6800734A5A636F4B724A9A636E4B704ADA63BD
:102E78006C4B6D4A1A646B4B6E4A5A64694B6D4AC7
:102E88009A64684B6B4ADA64664B6A4A1A65654B02
:102E9800684A5A65634B674A9A65624B654ADA65C0
:102EA800604B654A1A665F4B634A5A665D4B624AD5
:102EB8009A665C4B604ADA665A4B5F4A1A67594B06
:102EC8005D4A5A67574B5C4A9A674F4A4E4B5B6854
:102ED80018329A604C4A4C4B5B6808325A604A4A2E
:102EE800494B5B682032DA605448FEF781FF54484A
:102EF800FEF7B0FF534B0022DA62524B002283F8F0
:102F080028205148FFF798F84E4B002283F8C82034
:102F18004C4B002283F8D0204A4B0122C3F8CC2026
:102F28004A48FFF7E7F8474B012283F8D020484882
:102F3800FEF75EFF4748FEF78DFF424B002283F8FD
:102F4800A020404B002283F8A8203E4B0122C3F862
:102F5800A4204148FFF7CEF83A4B012283F8A82075
:102F6800384B00225A60374B00221A703548FFF759
:102F780015F93A48FEF73CFF3948FEF76BFF394828
:102F8800FEF7F8FF2F4B002283F878202D4B002204
:102F980083F880202B4B0122DA673348FFF7AAF821
:102FA800284B012283F880203048FEF721FF304863
:102FB800FEF750FF2F48FEF7DDFF224B002283F873
:102FC8005020204B002283F858201E4B01225A65BE
:102FD8002948FFF78FF81B4B012283F85820194B1B
:102FE800002283F8F020174B0122C3F8F420154B78
:102FF800012283F8F82000BF80BD00BFAFF3008036
:10300800FCA9F1D24D62503F9804002000005940BD
:103018000C49D92E67DDBB4E0582048EDD4C1EA5FA
:10302800E8040020FC0400204C160108F7030020E7
:10303800F6030020F5030020F4030020900400208C
:1030480088040020B8020020E0020020800300204D
:103058008004002078040020580300207004002019
:10306800680400203C0400203003002034040020C1
:103078002C040020000400200803002080B584B040
:1030880002AF644B93F82830002B18D1614B012212
:1030980083F828205F4BDB6A012B10D15D4B93F836
:1030A8003030002B0BD04FF0FF337B60594B586BFF
:1030B8000E2300937B687A687968FEF725FC554BE8
:1030C80093F8C830002B1AD1524B012283F8C8203C
:1030D800504BD3F8CC30012B11D14E4B93F8D03054
:1030E800002B0CD04FF0FF337B604A4BD3F8D40051
:1030F8000E2300937B687A687968FEF705FC454BD8
:1031080093F8A030002B1AD1424B012283F8A0205B
:10311800404BD3F8A430012B11D13E4B93F8A83083
:10312800002B0CD04FF0FF337B603A4BD3F8AC0048
:103138000E2300937B687A687968FEF7E5FB354BC8
:103148001B78002B16D1334B01221A70314B5B6868
:10315800012B0FD12F4B1B7A002B0BD04FF0FF33D5
:103168007B602C4BD8680E2300937B687A6879685B
:10317800FEF7CAFB2848FEF73BFF264B93F878304A
:10318800002B19D1234B012283F87820214BDB6FC8
:10319800012B11D11F4B93F88030002B0CD04FF02E
:1031A800FF337B601B4BD3F884000E2300937B68AE
:1031B8007A687968FEF7A8FB1848FEF719FF154BDF
:1031C80093F85030002B18D1124B012283F850206D
:1031D800104B5B6D012B10D10E4B93F85830002B20
:1031E8000BD04FF0FF337B600A4BD86D0E23009352
:1031F8007B687A687968FEF787FB064B93F8F030AE
:10320800002B03D1034B012283F8F02000BF0837BD
:10321800BD4680BDB80200203C0400200004002008
:1032280080B500AF0F4B1B785A1CD1B20D4A1170F4
:10323800002B09D00C4B01221A600A4B1B78013B6A
:10324800DAB2084B1A700BE062B600BFFFF704F859
:1032580072B600BF034B1B78013BDAB2014B1A7000
:1032680080BD00BF7C0500207805002080B586B0B1
:1032780000AF786039605C4B7B615C4B3B6100233D
:10328800FB735B4B00221A705A4B00221A700AF02B
:1032980071FA09F06FF907F0F7FB00F0A7FD00F0ED
:1032A80015FE00F0C7FB01F02DFA00F039FC00F024
:1032B8009FFF00F097FC00F027FA4F4B1B68002295
:1032C8001A6000210020FEF78DFB0346FB7397F977
:1032D8000F30002B02D097F90F3080E0FFF778FD10
:1032E80072B600BF62B600BF434B1B685A68424BB8
:1032F8001B68403319461046FEF784FB0346FB73F0
:1033080097F90F30002B0DD14FF0FF30FEF70EFC70
:10331800FEF722FD0346002B04D0374B1B68012221
:1033280083F8482072B600BF97ED050A07F06AFCDB
:10333800FEF71EFD0346002B0CD1FEF70DFD0346DC
:10334800002B07D12C4B1B6893F84830002B01D178
:10335800012300E00023DAB2264B1A7062B600BFE0
:1033680062B600BF2FE0FEF7C7FC0346FB73FEF70B
:10337800FFFC0346002B0AD1FEF7EEFC0346002BA8
:1033880005D11D4B1B6893F84830002B01D0012351
:1033980000E00023DAB2164B1A70154B1B78DBB22B
:1033A800002B0CBF01230023DBB21A46114B1A7005
:1033B8000F4B1B78DBB2002B05D0104B1B680F4A54
:1033C80023F0010313600B4B1B78DBB2002BCAD12F
:1033D800FFF754FEFEF7A0FC72B600BF00231846A4
:1033E8001837BD4680BD00BF6F12833A0000C8423F
:1033F8007D0500207E0500204816010810E000E049
:1034080080B485B000AFF860B9607A600D4ABB68D7
:1034180013441B781A46FB6813441B6823F0C00248
:103428000849BB680B441B781946FB680B441946CE
:103438007B6813430B6000BF1437BD465DF8047BFF
:10344800704700BF5816010880B485B000AFF86017
:10345800B9607A600D4ABB6813441B781A46FB684A
:1034680013441B6823F490720849BB680B441B780B
:103478001946FB680B4419467B6813430B6000BF71
:103488001437BD465DF8047B704700BF5816010825
:1034980080B485B000AFF860B9607A600D4ABB6847
:1034A80013441B781A46FB6813441B6823F4007204
:1034B8000849BB680B441B781946FB680B4419463E
:1034C8007B6813430B6000BF1437BD465DF8047B6F
:1034D800704700BF5816010880B485B000AFF86087
:1034E800B9607A600D4ABB6813441B781A46FB68BA
:1034F80013441B6823F480620849BB680B441B789B
:103508001946FB680B4419467B6813430B6000BFE0
:103518001437BD465DF8047B704700BF5816010894
:1035280080B485B000AFF860B9607A600D4ABB68B6
:1035380013441B781A46FB6813441B6823F4C052D3
:103548000849BB680B441B781946FB680B441946AD
:103558007B6813430B6000BF1437BD465DF8047BDE
:10356800704700BF5816010880B485B000AFF860F6
:10357800B9607A600D4ABB6813441B781A46FB6829
:1035880013441B6823F4C0420849BB680B441B78EA
:103598001946FB680B4419467B6813430B6000BF50
:1035A8001437BD465DF8047B704700BF5816010804
:1035B80080B485B000AFF860B9607A600D4ABB6826
:1035C80013441B781A46FB6813441B6823F44032E3
:1035D8000849BB680B441B781946FB680B4419461D
:1035E8007B6813430B6000BF1437BD465DF8047B4E
:1035F800704700BF5816010880B485B000AFF86066
:10360800B9607A600D4ABB6813441B781A46FB6898
:1036180013441B6823F060620849BB680B441B789D
:103628001946FB680B4419467B6813430B6000BFBF
:103638001437BD465DF8047B704700BF5816010873
:1036480080B483B000AF786039600C4A3B6813449B
:103658001B781A467B6813445B6908493A680A4430
:10366800127811467A680A4423F00403536100BFB4
:103678000C37BD465DF8047B704700BF581601083B
:1036880080B485B000AF7860084B1A6B07497B6837
:1036980013430B63054B1A6B7B681340FB60FB6895
:1036A80000BF1437BD465DF8047B70470038024000
:1036B80080B485B000AF7860084B1A6C07497B6806
:1036C80013430B64054B1A6C7B681340FB60FB6863
:1036D80000BF1437BD465DF8047B704700380240D0
:1036E80080B483B000AF786039607B685B6823F092
:1036F80010023B681A437B685A6000BF0C37BD460E
:103708005DF8047B7047000080B590B000AF07F10A
:1037180018032822002118460BF056FA3B460022CF
:103728001A605A609A60DA601A615A614FF4004070
:10373800FFF7BEFF0420FFF7A3FF4FF4E0533B6001
:1037480002237B600323BB600023FB6000233B61F3
:1037580006237B613B461946424809F030FC0022AB
:1037680000214148FFF748FF002200213E48FFF7AB
:1037780047FE002200213C48FFF71AFF00220021E3
:103788003948FFF761FE002200213748FFF780FE25
:103798004FF4806200213448FFF79EFE4FF4006228
:1037A80000213148FFF7BCFE4FF4005200212E489B
:1037B800FFF7DAFE00212C48FFF742FF002207211D
:1037C8002948FFF719FF402207212748FFF718FE6D
:1037D8004FF4003207212448FFF7EAFE00220721B0
:1037E8002148FFF731FE002207211F48FFF750FE4E
:1037F8004FF4806207211C48FFF76EFE0022072164
:103808001948FFF78DFE002207211748FFF7ACFE85
:1038180007211548FFF714FF0023BB614FF482739B
:10382800FB614FF400633B6200237B620123BB62B0
:103838004FF40073FB6210233B6300237B63002378
:10384800BB630A23FB6307F118031946074809F00D
:10385800F6FF00210548FFF743FF00BF4037BD468C
:1038680080BD00BF0008024000600240003C0040EC
:1038780080B489B000AFF860B9607A60FB682C3317
:103888001946BB6803F440734FF440727A617A6951
:1038980092FAA2F23A613A69BA61BA69002A01D188
:1038A800202203E0BA69B2FA82F2D2B2D3409B0076
:1038B8000B44FB61FB691A68BB6803F01F031F21F7
:1038C80001FA03F3DB431A407B6803F01F01BB686E
:1038D80003F01F0301FA03F31A43FB691A6000BFE0
:1038E8002437BD465DF8047B704780B483B000AFD1
:1038F800786039607B689B6823F480623B681A4370
:103908007B689A6000BF0C37BD465DF8047B704742
:1039180080B48FB000AFF860B9607A60FB680C3390
:103928001946BB6803F000734FF000727A617A6938
:1039380092FAA2F23A613A69BA61BA69002A01D1E7
:10394800202203E0BA69B2FA82F2D2B2D3409B00D5
:103958000B447B637B6B1A68BB6803F0F8734FF00A
:10396800F8713962396A91FAA1F1F961F9697962F4
:10397800796A002901D1202103E0796AB1FA81F13D
:10398800C9B2CB40072101FA03F3DB431A40BB68F5
:1039980003F0F8734FF0F871F962F96A91FAA1F13E
:1039A800B962B96A3963396B002901D1202103E072
:1039B800396BB1FA81F1C9B2CB40796801FA03F3E6
:1039C8001A437B6B1A6000BF3C37BD465DF8047B29
:1039D8007047000080B485B000AF7860084B1A6B60
:1039E80007497B6813430B63054B1A6B7B681340CD
:1039F800FB60FB6800BF1437BD465DF8047B704769
:103A08000038024080B485B000AF7860084B5A6C2B
:103A180007497B6813434B64054B5A6C7B6813401A
:103A2800FB60FB6800BF1437BD465DF8047B704738
:103A38000038024080B592B000AF07F13C03002285
:103A48001A605A609A6007F1280300221A605A60C7
:103A58009A60DA601A6107F1180300221A605A6046
:103A68009A60DA603B4600221A605A609A60DA600F
:103A78001A615A614FF48070FFF7C4FF0120FFF705
:103A8800A9FF40233B6003237B6000233B613B4647
:103A980019461F4809F093FA0023FB6300233B648F
:103AA80000237B6407F13C0319461A4809F076FBAA
:103AB8000023BB620023FB6200233B6300237B637C
:103AC8000023BB6307F128031946124809F092FB4B
:103AD8004FF480610F48FFF708FF4FF48033BB6154
:103AE8000023FB6107F1180319460B4809F00EFB88
:103AF8000A4A4FF400710748FFF7BAFE0022074947
:103B08000448FFF705FF00BF4837BD4680BD00BF2A
:103B1800000002400020014000230140060020036D
:103B280080B58EB000AF07F12C0300221A605A60EE
:103B38009A6007F1180300221A605A609A60DA60E6
:103B48001A613B4600221A605A609A60DA601A616C
:103B58005A614FF40070FFF755FF0420FFF73AFF52
:103B680004233B6003237B6000233B613B461946EB
:103B7800194809F024FA0023FB6200233B63002361
:103B88007B6307F12C031946144809F007FB00234F
:103B9800BB610023FB6100233B6200237B6200239F
:103BA800BB6207F1180319460C4809F023FB4FF4D0
:103BB80080610A48FFF799FE094A4FF400710748E7
:103BC800FFF756FE002206490448FFF7A1FE00BF92
:103BD8003837BD4680BD00BF0008024000210140C3
:103BE8000C00600080B58EB000AF07F12C030022F6
:103BF8001A605A609A6007F1180300221A605A6026
:103C08009A60DA601A613B4600221A605A609A602C
:103C1800DA601A615A614FF48060FFF7F3FE0420FE
:103C2800FFF7D8FE08233B6003237B6000233B613A
:103C38003B461946194809F0C2F90023FB620023E4
:103C48003B6300237B6307F12C031946144809F0F2
:103C5800A5FA0023BB610023FB6100233B6200231C
:103C68007B620023BB6207F1180319460C4809F070
:103C7800C1FA4FF480610A48FFF737FE094A4FF44A
:103C880000710748FFF7F4FD002206490448FFF7D2
:103C98003FFE00BF3837BD4680BD00BF0008024068
:103CA800002201400D00900080B400AF044BDB6897
:103CB8001B0A03F007031846BD465DF8047B7047EE
:103CC80000ED00E080B483B000AF0346FB7197F9C4
:103CD8000730002B0BDBFB7903F01F02074997F92C
:103CE80007305B09012000FA02F241F8232000BFE7
:103CF8000C37BD465DF8047B704700BF00E100E06B
:103D080080B483B000AF03463960FB7197F9073080
:103D1800002B0ADB3B68DAB20C4997F9073012012D
:103D2800D2B20B4483F800230AE03B68DAB20849B0
:103D3800FB7903F00F03043B1201D2B20B441A764D
:103D480000BF0C37BD465DF8047B704700E100E01A
:103D580000ED00E080B489B000AFF860B9607A6027
:103D6800FB6803F00703FB61FB69C3F10703042B3E
:103D780028BF0423BB61FB690433062B02D9FB6906
:103D8800033B00E000237B614FF0FF32BB6902FA7E
:103D980003F3DA43BB681A407B699A404FF0FF315E
:103DA8007B6901FA03F3D9437B680B401343184638
:103DB8002437BD465DF8047B7047000080B485B0A9
:103DC80000AF7860084B1A6B07497B6813430B6395
:103DD800054B1A6B7B681340FB60FB6800BF143708
:103DE800BD465DF8047B70470038024080B500AFDF
:103DF8004FF40010FFF7E2FFFFF756FF03460022DB
:103E080000211846FFF7A6FF034619460B20FFF7C7
:103E180077FF0B20FFF756FFFFF746FF0346002208
:103E280000211846FFF796FF034619461020FFF7B2
:103E380067FF1020FFF746FFFFF736FF0346002213
:103E480000211846FFF786FF034619461120FFF7A1
:103E580057FF1120FFF736FFFFF726FF0346002222
:103E680000211846FFF776FF034619462F20FFF773
:103E780047FF2F20FFF726FF00BF80BD80B485B025
:103E880000AF7860084B1A6B07497B6813430B63D4
:103E9800054B1A6B7B681340FB60FB6800BF143747
:103EA800BD465DF8047B70470038024080B483B09B
:103EB80000AF786039603B681A047B689A6100BF7C
:103EC8000C37BD465DF8047B7047000080B586B0AE
:103ED80000AF3B4600221A605A609A60DA601A61A5
:103EE8005A610420FFF7CAFF8020FFF7C7FF0120AF
:103EF800FFF7C4FF0220FFF7C1FF44F21001164884
:103F0800FFF7D4FF4FF480511448FFF7CFFF44F276
:103F180010033B6001237B600023BB600023FB6030
:103F280000233B613B4619460B4809F048F84FF41B
:103F380080533B6001237B600023BB600023FB6050
:103F480000233B613B461946044809F038F800BF96
:103F58001837BD4680BD00BF00080240000402407B
:103F680080B485B000AF7860084B1A6B07497B684E
:103F780013430B63054B1A6B7B681340FB60FB68AC
:103F880000BF1437BD465DF8047B70470038024017
:103F980080B485B000AF7860084B5A6C07497B68DD
:103FA80013434B64054B5A6C7B681340FB60FB68FA
:103FB80000BF1437BD465DF8047B704700380240E7
:103FC80080B483B000AF78607B681B6823F0800200
:103FD8007B681A6000BF0C37BD465DF8047B7047EC
:103FE80080B485B000AF786039603B68012B1CD085
:103FF8003B68042B17D03B68102B12D03B68402B32
:104008000DD03B68B3F5807F07D03B68B3F5806F70
:1040180001D105230AE0062308E0042306E0032370
:1040280004E0022302E0012300E00023FB737B6825
:1040380018331946FB7B0B4AD35C0B44BB60BB6847
:104048001A68FB7B0849CB5C194604238B40DB4389
:104058001A40BB681A6000BF1437BD465DF8047B80
:10406800704700BF601601086816010880B485B063
:1040780000AF786039603B68012B1CD03B68042B8B
:1040880017D03B68102B12D03B68402B0DD03B68F3
:10409800B3F5807F07D03B68B3F5806F01D1052366
:1040A8000AE0062308E0042306E0032304E00223D1
:1040B80002E0012300E00023FB737B6818331946F4
:1040C800FB7B0A4AD35C0B44BB60BB681A68FB7B6A
:1040D8000749CB5C194608238B401A43BB681A6012
:1040E80000BF1437BD465DF8047B704760160108B1
:1040F8006816010880B483B000AF786039607B68C7
:104108009B6823F4804323F007033A681A437B68CB
:104118009A6000BF0C37BD465DF8047B704780B4D9
:1041280083B000AF786039607B685B6823F0700209
:104138003B681A437B685A6000BF0C37BD465DF880
:10414800047B704780B483B000AF786039607B68C7
:104158009B6823F007023B681A437B689A6000BF9C
:104168000C37BD465DF8047B704780B483B000AF60
:10417800786039607B689B6823F070023B681A435B
:104188007B689A6000BF0C37BD465DF8047B7047BA
:1041980080B483B000AF78607B689B6823F08002AE
:1041A8007B689A6000BF0C37BD465DF8047B70479A
:1041B80080B483B000AF78607B68DB6823F040028E
:1041C8007B68DA6000BF0C37BD465DF8047B70473A
:1041D80080B483B000AF78607B68DB6823F48042EA
:1041E8007B68DA6000BF0C37BD465DF8047B70471A
:1041F80080B59AB000AF07F1540300221A605A60E4
:104208009A60DA601A6107F1340320220021184607
:104218000AF0DAFC07F11C0300221A605A609A605F
:10422800DA601A615A613B1D00221A605A609A606E
:10423800DA601A615A610220FFF7AAFE0023A7F884
:1042480054300023BB654FF6FF73FB6500233B66C4
:1042580000237B6607F1540319465B4809F0B4FB59
:104268005948FFF7ADFE00215748FFF743FF0121EA
:104278005548FFF7FBFE60237B630023BB630023E5
:10428800FB6300233B6400237B640223BB6400239D
:10429800FB6400233B6507F134031A4601214A48B1
:1042A80009F02CFC01214848FFF79AFE10214648E6
:1042B800FFF7DCFE07F134031A461021424809F0E3
:1042C8001DFC10214048FFF78BFE4FF480713E48DB
:1042D800FFF7CCFE07F134031A464FF480713A48D1
:1042E80009F00CFC4FF480713748FFF779FE002184
:1042F8003548FFF73AFF00213348FFF723FF3248DC
:10430800FFF756FF3048FFF763FF00212E48FFF7FD
:1043180006FF2D48FFF73CFF0023FB6100233B62AB
:1043280000237B62642387F8283000237B854FF4C1
:104338000053FB6200233B6307F11C031946224824
:1043480009F01DFC0120FFF70BFE0220FFF708FE15
:104358000420FFF705FE80237B600223BB60002357
:10436800FB6000233B6100237B610323BB613B1D92
:104378001946164808F023FE03237B600223BB601E
:104388000023FB6000233B6100237B610323BB61A7
:104398003B1D19460E4808F012FE4FF4E0737B608F
:1043A8000223BB600023FB6000233B6100237B6189
:1043B8000323BB613B1D1946064808F000FE00BFF9
:1043C8006837BD4680BD00BF0004014000000240C0
:1043D800000402400008024080B485B000AFF860D5
:1043E800B9607A600D4ABB6813441B781A46FB68AB
:1043F80013441B6823F0C0020849BB680B441B78B0
:104408001946FB680B4419467B6813430B6000BFD1
:104418001437BD465DF8047B704700BF701601086D
:1044280080B485B000AFF860B9607A600D4ABB68A7
:1044380013441B781A46FB6813441B6823F49072D4
:104448000849BB680B441B781946FB680B4419469E
:104458007B6813430B6000BF1437BD465DF8047BCF
:10446800704700BF7016010880B485B000AFF860CF
:10447800B9607A600D4ABB6813441B781A46FB681A
:1044880013441B6823F400720849BB680B441B786B
:104498001946FB680B4419467B6813430B6000BF41
:1044A8001437BD465DF8047B704700BF70160108DD
:1044B80080B485B000AFF860B9607A600D4ABB6817
:1044C80013441B781A46FB6813441B6823F4806264
:1044D8000849BB680B441B781946FB680B4419460E
:1044E8007B6813430B6000BF1437BD465DF8047B3F
:1044F800704700BF7016010880B485B000AFF8603F
:10450800B9607A600D4ABB6813441B781A46FB6889
:1045180013441B6823F4C0520849BB680B441B783A
:104528001946FB680B4419467B6813430B6000BFB0
:104538001437BD465DF8047B704700BF701601084C
:1045480080B485B000AFF860B9607A600D4ABB6886
:1045580013441B781A46FB6813441B6823F4C042B3
:104568000849BB680B441B781946FB680B4419467D
:104578007B6813430B6000BF1437BD465DF8047BAE
:10458800704700BF7016010880B485B000AFF860AE
:10459800B9607A600D4ABB6813441B781A46FB68F9
:1045A80013441B6823F440320849BB680B441B784A
:1045B8001946FB680B4419467B6813430B6000BF20
:1045C8001437BD465DF8047B704700BF70160108BC
:1045D80080B485B000AFF860B9607A600D4ABB68F6
:1045E80013441B781A46FB6813441B6823F0606267
:1045F8000849BB680B441B781946FB680B441946ED
:104608007B6813430B6000BF1437BD465DF8047B1D
:10461800704700BF7016010880B483B000AF78609F
:1046280039600C4A3B6813441B781A467B6813446C
:104638005B6908493A680A44127811467A680A445C
:1046480023F00403536100BF0C37BD465DF8047BBB
:10465800704700BF7016010880B485B000AF78605D
:10466800084B1A6B07497B6813430B63054B1A6B9E
:104678007B681340FB60FB6800BF1437BD465DF8DC
:10468800047B70470038024080B485B000AF786082
:10469800084B1A6C07497B6813430B64054B1A6C6B
:1046A8007B681340FB60FB6800BF1437BD465DF8AC
:1046B800047B70470038024080B483B000AF786054
:1046C8007B68DB6843F400527B68DA6000BF0C3714
:1046D800BD465DF8047B704780B483B000AF786056
:1046E8007B681B6923F490427B681A617B685B696D
:1046F80023F02A027B685A6100BF0C37BD465DF87B
:10470800047B704780B58EB000AF07F11C03002210
:104718001A605A609A60DA601A615A619A613B1DA0
:1047280000221A605A609A60DA601A615A614FF47E
:104738000030FFF7A9FF0120FFF78EFF0C237B60F5
:104748000223BB600323FB6000233B6100237B61E2
:104758000723BB613B1D19463E4808F030FC4FF06B
:10476800006205213C48FFF733FF002205213A4843
:10477800FFF732FE002205213748FFF705FF002228
:1047880005213548FFF74CFE002205213248FFF786
:104798006BFE4FF4806205212F48FFF789FE002247
:1047A80005212D48FFF7A8FE002205212A48FFF71A
:1047B800C7FE05212848FFF72FFF4FF000620621AA
:1047C8002548FFF705FF402206212348FFF704FE8E
:1047D800002206212048FFF7D7FE002206211E48A6
:1047E800FFF71EFE002206211B48FFF73DFE4FF48F
:1047F800806206211848FFF75BFE00220621164852
:10480800FFF77AFE002206211348FFF799FE0621DA
:104818001148FFF701FF4FF4E133FB6100233B62CE
:1048280000237B620023BB620C23FB6200233B63F3
:1048380000237B6307F11C031946084809F0EEFDC5
:104848000648FFF749FF0548FFF736FF00BF38372E
:10485800BD4680BD000002400060024000440040A8
:104868000FB480B400AF00BFBD465DF8047B04B050
:10487800704780B485B000AFF860B9607A60FB68B3
:10488800BA681A60FB6804337A681A6000BF143784
:10489800BD465DF8047B7047F0B58BB000AF87ED7F
:1048A800020B0346FB80FB88002B77D14FF00002F8
:1048B800414BD7E90201FBF71FFE02460B46C7E949
:1048C80006239FED391B97ED060B09F063FE53ECA9
:1048D800102B10461946FCF7BFF803467B610023EE
:1048E8007B6233A3D3E90023D7E90601FCF794F8E8
:1048F8000346002B0ED02EA3D3E90023D7E90601E7
:10490800FBF724FF02460B4610461946FCF7A4F8AD
:1049180003467B627A6A79692848FFF7AAFF284B21
:10492800D3E900014FF00002264BFCF74DF803468F
:10493800002B2ED1224BD3E900014FF000024FF09B
:104948004043FCF741F80346002B22D11C4BD3E926
:104958000001D7E90223FBF717FC02460B46144671
:104968001D464FF00002184BD7E90201FBF7C4FDC2
:1049780002460B4601210E4620462946FCF72EF832
:104988000346002B01D100231E46F3B21A460F4BF3
:104998001A700F49D7E90223C1E9002300BF2C3759
:1049A800BD46F0BDAFF30080000000000000F041FC
:1049B8000000E0FFFFFFEF4100408F40B0050020FE
:1049C800000000200000F0BF0000B03C9805002067
:1049D800B80500200000000080B586B000AF87ED64
:1049E800020B0346FB8000237B61FB88184697ED8A
:1049F800020BFFF751FF17A3D3E90023D7E9020100
:104A0800FBF77AFD02460B46104619464FF00002A6
:104A18000F4BFBF7BBFB02460B4643EC172B9FEDF6
:104A28000A1BB0EE470AF0EE670A09F0B3FD53EC33
:104A3800102B10461946FCF70FF803467B617B697B
:104A480018461837BD4680BD000000000000F04140
:104A58000000E03F0000000080842E4180B584B053
:104A680000AF0023BB6000237B600023FB73234956
:104A78004FF000024FF00003C1E9002320494FF036
:104A880000024FF00003C1E900233A1D07F10803B3
:104A98001146184605F0B2FFBB687A6811461846F9
:104AA80004F0CEF80346FB7397F90F30002B05D0BE
:104AB8001448FFF7D5FE97F90F301AE03A1D07F1B1
:104AC80008031146184605F0B0FFBB687A6811461E
:104AD800184600F053FF0346FB7397F90F30002B7D
:104AE80005D097F90F3019460748FFF7B9FE97F92F
:104AF8000F3018461037BD4680BD00BFA005002006
:104B0800A805002074F000089CF0000880B584B067
:104B180000AF0346FB710023FB730023BB73002027
:104B280005F09AFF00237B7304F058FA0346FB73E1
:104B380097F90F30002B0DD097F90F3013F1020FB2
:104B480008D097F90F3019463C48FFF789FE012332
:104B5800BB730BE07B7B002B04D197F90F3013F16B
:104B6800020F01D0012300E000237B73BB7B002BE5
:104B780021D100F035FF0346FB7397F90F30002B66
:104B88000DD097F90F3013F1020F08D097F90F30B5
:104B980019462B48FFF764FE0123BB730BE07B7BB0
:104BA800002B04D197F90F3013F1020F01D0012324
:104BB80000E000237B73BB7B002B21D104F098F924
:104BC8000346FB7397F90F30002B0DD097F90F3080
:104BD80013F1020F08D097F90F3019461948FFF75B
:104BE8003FFE0123BB730BE07B7B002B04D197F9BD
:104BF8000F3013F1020F01D0012300E000237B7373
:104C0800FB79002B0DD0002005F026FFBB7B002B85
:104C180002D17B7B002B01D1012300E00023BB7371
:104C280001E00123BB73BB7B002B3FF47BAF97F9FB
:104C38000F3018461037BD4680BD00BFC4F00008CD
:104C4800FCF000082CF1000880B582B000AF00230A
:104C5800BB70394B1B78DBB2002B02D0002000F070
:104C6800D9FF00F0ABFF0346FB7000237B600EE02A
:104C78000A2005F0F1FE7B6803F51C5310337B60B6
:104C88000120FFF743FF00F099FF0346FB707B68A4
:104C98002A4A934202D2FB78002BE9D100F09AFF0E
:104CA8000346BB7097F90230002B05D097F9023004
:104CB80019462348FFF7D4FD04F00AFB0346BB70EE
:104CC80097F90230002B05D097F9023019461D4894
:104CD800FFF7C6FD1C4B00221A701C4B00221A70ED
:104CE8001B4B00221A601B4B00221A601A4B002231
:104CF8001A601A4B00221A60194B00221A601949CF
:104D08004FF000024FF04043C1E900230A4B002254
:104D18001A7008220021144809F056FF13494FF071
:104D280000024FF00003C1E9002397F9023018464A
:104D38000837BD4680BD00BF980500200087930353
:104D480064F1000880F100087F050020800500203C
:104D580084050020880500208C050020900500208F
:104D68009405002000000020B0050020B8050020B0
:104D780080B586B000AF614B1B687B617B69002BF7
:104D880000F0B8805E4B1B78DBB2002B04D15B4B84
:104D98001B68002B00F0AE805A4B1B78DBB2022B4D
:104DA80040F0A880584B1B78002B40F0A3807B690B
:104DB800D3E90023C7E90223544B1B78002B00F0EA
:104DC8008A80534B1B78DBB2002B04D0504B1B78E6
:104DD800DBB2022B01D1012300E00023FB714C4B15
:104DE8001B78DBB2012B04D0494B1B78DBB2022BBA
:104DF80001D1012300E00023BB71FB79002B33D0E4
:104E0800444BD3E90023D7E90201FBF7FBFD034636
:104E1800002B0AD0404BD3E900013E4BD3E90023D5
:104E2800FBF7DCFD0346002B14D13A4BD3E90023F2
:104E3800D7E90201FBF7F0FD0346002B14D0364BEF
:104E4800D3E90001334BD3E90023FBF7BDFD03464B
:104E5800002B09D0314B1B68002B02D1304B0122AB
:104E68001A70294B01221A70BB79002B33D0294BB9
:104E7800D3E90023D7E90201FBF7B0FD0346002B75
:104E88000AD0254BD3E90001224BD3E90023FBF7D5
:104E9800B9FD0346002B14D11E4BD3E90023D7E9F3
:104EA8000201FBF791FD0346002B14D01A4BD3E9FE
:104EB8000001184BD3E90023FBF7AEFD0346002B96
:104EC80009D0164B1B68002B02D1154B01221A7012
:104ED8000D4B01221A700C4B1B78002B0CBF0123C1
:104EE8000023DBB21A46094B1A700B49D7E9022393
:104EF800C1E9002300BF1837BD4680BDC4050020A6
:104F0800C8050020E4050020F3050020F005002076
:104F1800E0050020D0050020E8050020DC05002081
:104F2800F205002080B582B000AF0023FB719E4BD4
:104F38001B78DBB2002B18D19C4B00221A709C4BBB
:104F480000221A709B4B1B78DBB2002B2DD0964B9E
:104F580002221A70974B00221A70974B1B78DBB20B
:104F6800002B22D10123FB711FE0924B00221A7003
:104F78008E4B1B78DBB2002B09D0904B00221A70A5
:104F8800894B00221A70894B00221A700DE08A4B57
:104F98001B78DBB2002B02D10123FB7105E0844BA7
:104FA8001B78FB71824B00221A707F4B1B78DBB297
:104FB800042B00F2D78001A252F823F0D94F000841
:104FC80013510008F34F0008C7500008515000085B
:104FD800784B1B78DBB2002B00F0D880724B022292
:104FE8001A70744B00221A70D0E0FB79002B00F085
:104FF800CF80734B1B68002B0DDD6F4B1B78DBB22A
:10500800012B08D16E4B1B681A466E4B1A60664B13
:1050180003221A70BCE06C4B1B68002B0AD0674B4C
:1050280001221A70684B1B68664A13605E4B0422A3
:105038001A70ADE06548FFF713FC604B00221A7048
:10504800594B00221A70A3E05E4B1B68002B04D05A
:105058005C4B1B68013B5B4A13605A4B1B68002B77
:1050680040F098805A4B1B78DBB2012B06D1534B8A
:1050780000221A704C4B00221A708BE0554B1B68AB
:10508800002B0AD04D4B00221A70524B1B684D4A18
:105098001360454B01221A707CE0FB79002B07D086
:1050A800494B1B68474A13603F4B04221A7071E052
:1050B800424B00221A703C4B02221A706AE0414BA4
:1050C8001B68002B04D03F4B1B68013B3D4A136013
:1050D8003C4B1B68002B5FD13B4B1B68002B0AD055
:1050E800364B01221A70384B1B68364A13602E4B18
:1050F80004221A7050E03548FFF7B2FB2F4B00220C
:105108001A70294B00221A7046E02E4B1B68002BA0
:1051180004D02C4B1B68013B2A4A1360294B1B689F
:10512800002B3BD1FB79002B18D0274B1B68002B99
:105138000AD0224B01221A70234B1B68214A1360A4
:10514800194B04221A7029E02048FFF789FB1B4BF2
:1051580000221A70144B00221A701FE0124B022210
:105168001A701BE0104B1B78DBB219461A48FFF780
:1051780077FB124B00221A700D4B00221A700B4B52
:1051880000221A70084B00221A7008E000BF06E0DF
:1051980000BF04E000BF02E000BF00E000BF00BFA6
:1051A8000837BD4680BD00BFE4050020E1050020AA
:1051B800F30500200C000020E2050020F205002085
:1051C800DC050020F405002008000020A4F10008F8
:1051D800E3050020D8050020CCF1000880B400AF1A
:1051E80010494FF000024FF00003C1E900230E4BB5
:1051F80000221A700D4B1B78DAB20D4B1A700D4B4A
:1052080000221A700C4B00221A700C4B00221A60F4
:105218000B4B00221A7000231846BD465DF8047B2C
:10522800704700BFE8050020F0050020E2050020D7
:10523800F1050020F2050020F3050020F405002008
:10524800E405002080B584B000AF0346FB80FB88EE
:10525800002B3FD1314B1B78DAB2314B1B789A4285
:1052680014BF01230023DBB2FB732C4B1B78DAB28B
:105278002B4B1A70FB7B002B0BD02A4B00221A7089
:10528800294B00221A70294B00221A60284B002251
:105298001A70224B1B78DBB2012B1BD1244B1B78D5
:1052A800DBB2002B04D1234B1B78DBB2002B08D1D7
:1052B8001F4B1B78DBB2012B0CD11C4B1B68012B3D
:1052C80008D11A4B00221A601A4B00221A70184B88
:1052D80002221A70114B1B78DBB2012B07D1164B37
:1052E8001B889BB2FA889A4201D1FFF741FDFB88DF
:1052F800002B05D1FFF716FE104B00221A7006E0AE
:105308000E4B1B78002B02D00D4B1B7801E0054B90
:105318001B7818461037BD4680BD00BFE205002047
:10532800F1050020F2050020F3050020F405002017
:10533800E40500200C000020C0050020F90500202D
:10534800F805002080B400AF26494FF000024FF066
:105358000003C1E90023244B00221A70234B0022CA
:105368001A70234B00221A70224B00221A80224BFB
:1053780000221A70214B00221A70214B00221A6059
:10538800204B00221A70204B00221A701F4B00225B
:105398001A601F4B00221A701E494FF000024FF08E
:1053A8000003C1E900231C4B4FF47A721A601B4BAF
:1053B80000221A601A4B00221A601A4B00221A7037
:1053C800194B01221A70194B00221A70184B00222F
:1053D8001A70184B00221A7000231846BD465DF853
:1053E800047B7047E8050020F0050020E405002054
:1053F800F1050020C0050020F2050020F30500207B
:10540800F4050020F8050020F9050020C405002057
:10541800C8050020D005002008000020D80500207D
:10542800DC050020E00500200C000020E10500203C
:10543800E2050020E305002080B400AF174B1B787D
:10544800DBB2002B25D1164B1B78DBB2002B0BD01F
:10545800144B1B78DBB2002B06D1134B01221A70B8
:10546800124B01221A7014E00E4B1B78DBB2002B92
:105478000BD00B4B1B78DBB2002B06D10A4B00225A
:105488001A700A4B01221A7003E0084B00221A70A6
:10549800FFE700BFBD465DF8047B7047E2050020CA
:1054A8000C000020E1050020F8050020F905002087
:1054B80080B586B000AFF860B9607A603B600023C1
:1054C800FB7503F0F9FE3861FB681B68184604F0A9
:1054D80009F90021386803F067FE0246BB681A60C4
:1054E80003F052FE02467B681A60BB681B68002BFB
:1054F8000FD0BB681B681946386904F0F9FB0246EF
:10550800FB681A60FB681B68002B04D1F623FB7547
:1055180001E0F823FB7597F9173018461837BD4690
:1055280080BD000080B584B000AFF860B9607A60D3
:10553800FA68BB6813441B7819460848FFF790F9C6
:10554800FB68002B02D0F86804F0CCF87B680022D6
:105558001A60002318461037BD4680BDF0F10008D8
:1055680080B584B000AFF860B9607A60FA68BB684B
:1055780013441B7819460648FFF772F97B68022224
:105588001A604FF0FF3318461037BD4680BD00BF84
:105598004CF2000880B485B000AF03460A46FB71A0
:1055A8001346BB710523FB73FB79F02B02D900234B
:1055B800FB7322E0FB79E32B05D9FB79F02B02D8AA
:1055C8000123FB7319E0FB79D22B02D9FB79E22B7B
:1055D80008D9FB79C02B08D1BB79002B05D0BB7942
:1055E800022B02D80223FB7307E0FB79C72B04D9EF
:1055F800FB79D22B01D80323FB73FB7B18461437A6
:10560800BD465DF8047B704780B58CB000AFF8608C
:10561800B9607A603B60FB68BB62BB6A1B7887F83D
:105628002730002387F82F3097F82730C02B06D172
:10563800BB68012B03D9BB6A5B7887F82F30364BE0
:105648001B78002B3ED097F82F2097F8273011466B
:105658001846FFF79FFF0346FB76002387F82E3096
:10566800FB7E052B23D0FB7E2C4A52F823307B612E
:1056780000233B617B69002B19D097F827207B69B1
:105688001046984738613B69002B14BF012300235B
:10569800DBB287F82E3097F82E30002B07D03B6905
:1056A8005A687B681A603B699A683B681A6097F881
:1056B8002E30002B2CD17B68194A1A603B68194A96
:1056C8001A6025E097F82730FF2B1BD1134B1B6876
:1056D8003B627B6800221A603B6800221A603B6AC2
:1056E800002B15D03B6AFF209847F861FB69002B17
:1056F8000ED0FB695A687B681A60FB699A683B6838
:105708001A6005E07B68084A1A603B6800221A6044
:1057180000BF3037BD4680BDFB05002000060020D5
:1057280069550008F95700082D55000880B483B062
:1057380000AF0346FB71044AFB79137000BF0C37B6
:10574800BD465DF8047B7047FB05002080B400AFC0
:10575800034B1B781846BD465DF8047B704700BFB5
:10576800FC05002080B483B000AF0346FB71064BF4
:105778001A78FB791343DAB2034B1A7000BF0C375F
:10578800BD465DF8047B7047FC05002080B483B0FB
:1057980000AF0346FB7197F90730DB435AB2074B5A
:1057A8001B785BB213405BB2DAB2044B1A7000BFCD
:1057B8000C37BD465DF8047B704700BFFC05002030
:1057C80080B400AF034B1B781846BD465DF8047BD8
:1057D800704700BFFD05002080B400AF034B1B8855
:1057E8001846BD465DF8047B704700BFFE050020E3
:1057F80080B586B000AF0346B9607A60FB7397F94D
:105808000F30002B05D1BB683B613B69FF221A7042
:1058180076E0BB687B617B69FE221A7097F90F30CE
:1058280010330F2B62D801A252F823F0ED5800086C
:10583800E5580008DD580008D5580008CD5800087C
:10584800C5580008B5580008BD580008AD580008EC
:10585800A55800089D580008955800087D5800086C
:1058680075580008855800088D5800087B69302253
:105878005A7045E07B6929225A7041E07B692222EF
:105888005A703DE07B6920225A7039E07B6900221A
:105898005A7035E07B6923225A7031E07B692122F6
:1058A8005A702DE07B6911225A7029E07B69272202
:1058B8005A7025E07B692A225A7021E07B69102200
:1058C8005A701DE07B6924225A7019E07B692822EE
:1058D8005A7015E07B6926225A7011E07B693122E3
:1058E8005A700DE07B6933225A7009E097F90F303E
:1058F80019460548FEF7B4FF7B6920225A70FFE776
:1059080000BF1837BD4680BD7CF2000880B487B060
:1059180000AF0346B9607A60FB7300237B61BB6804
:10592800002B23D000233B6100233B6117E03A6939
:1059380013465B0013449B001A46BB6813441B784C
:10594800FA7B9A4208D13A6913465B0013449B00DC
:105958001A46BB6813447B613B6901333B613A6972
:105968007B689A4202D27B69002BE0D07B6918469B
:105978001C37BD465DF8047B7047000080B582B0D7
:1059880000AF78603960134B1B78002B05D01248A4
:10599800FEF766FF6FF00B0318E000F077FC00F0ED
:1059A80081FC03460D4A136002F04EFA02F068FAD1
:1059B80003460A4A936003F041F803F049F80346A6
:1059C800064A5360034B01221A7000231846083711
:1059D800BD4680BDFA050020C0F200080006002080
:1059E80080B58CB002AF002387F82730002387F8F2
:1059F80026300023FB610023BB6100237B61002369
:105A08003B610023FB6000233B620023BB60002353
:105A18007B60554B1B78002B05D15448FEF720FFBF
:105A28006FF008039BE007F1140007F1180207F173
:105A38001C0107F1100300930346002003F00EFB3E
:105A4800034687F8273097F92730002B09D097F9B4
:105A5800273013F1040F04D097F9273013F1050FFD
:105A680071D1FB69002B05D07A693B691A44BB697F
:105A78009A4203D9F82387F8273067E0FA697B69E7
:105A880013443B6239693B1D07F10802386AFFF786
:105A9800BBFDBB68002B09D13B6A1B78194634480B
:105AA800FEF7DEFEF42387F827304FE0BB68F8697D
:105AB800796907F10C029847034687F826307B6816
:105AC800002B3DD0FB68002B3AD0002387F8273005
