:020000040800F2
:1000000000000220312A00089D120008A5120008F5
:10001000AD120008B5120008BD1200080000000073
:100020000000000000000000000000007906000849
:10003000C51200080000000035060008650500082C
:10004000812A0008812A0008812A0008812A0008E4
:10005000812A0008812A0008812A0008812A0008D4
:10006000812A0008812A0008812A0008812A0008C4
:10007000812A0008D3120008812A0008E112000832
:10008000812A0008812A0008212E0008812A000800
:10009000812A0008812A0008812A0008812A000894
:1000A000812A0008F1120008812A0008812A00082C
:1000B000812A0008812A0008812A0008812A000874
:1000C000812A0008812A0008812A0008812A000864
:1000D000812A0008812A0008812A0008812A000854
:1000E000812A0008812A0008812A0008812A000844
:1000F000812A0008812A0008812A0008812A000834
:10010000812A0008812A0008812A0008812A000823
:1001100005130008812A0008812A0008812A0008A6
:10012000812A0008812A0008812A0008812A000803
:10013000812A00080000000000000000812A000859
:10014000812A0008812A0008812A0008812A0008E3
:10015000812A0008812A0008812A0008812A0008D3
:10016000812A0008812A0008812A0008812A0008C3
:10017000812A0008812A0008000000000000000019
:08018000812A0008812A000811
:1001880053B94AB9002908BF00281CBF4FF0FF31F6
:100198004FF0FF3000F00CB8ADF1080C6DE904CE5B
:1001A80002F0F8FFDDF804E0DDE9022304B070474F
:1001B800704700BF0348044B834202D0034B03B18E
:1001C80018477047100000201000002000000000B1
:1001D8000548064B1B1AD90F01EBA301491002D0A1
:1001E800034B03B11847704710000020100000208F
:1001F8000000000010B5064C237843B9FFF7DAFF7A
:10020800044B13B10448AFF300800123237010BDE1
:1002180010000020000000007835000808B5054BE4
:100228001BB105490548AFF30080BDE80840FFF75A
:10023800CFBF00BF00000000140000207835000880
:1002480080B58CB002AF78607B6800221A727B6838
:1002580001225A600023BB6100237B74184BFB61A9
:1002680000233B620023BB74002387F8243001235A
:1002780087F825300123FB6001233B7407F10C004C
:100288000023009304230122012102F0D9FD024634
:100298007B68DA607B68DB68184602F061FE7B6881
:1002A800DB680121184602F0BEFD7B6801221A7244
:1002B8007B6800225A7200BF2837BD4680BD00BF48
:1002C8000020014080B582B000AF094B5B7A002B5B
:1002D80002D0074B00225A72054BDB68BA1D042175
:1002E800184602F052FE00BF0837BD4680BD00BF69
:1002F8002C00002080B500AF054B00225A60044B4B
:1003080000221A700248FFF79BFF00BF80BD00BFA4
:100318002C00002080B500AF0B4B1B78002B11D1AF
:10032800094B01221A70084B5B68012B0AD1064B56
:100338001B7A002B06D0044BDB68012201211846EA
:1003480002F0A8FE00BF80BD2C00002080B500AFE1
:100358000F4B1B785A1CD1B20D4A1170002B09D0D3
:100368000C4B01221A600A4B1B78013BDAB2084B8E
:100378001A700BE062B600BFFFF7A4FF72B600BFA9
:10038800034B1B78013BDAB2014B1A7080BD00BFEA
:10039800440000204000002080B584B000AF7860A1
:1003A80039602C4BFB602C4BBB602C4B00221A7025
:1003B8002B4B00221A7001DF02F006F800F096FDC0
:1003C80000F054F800F018FF00F03EFF00F0E0FDE8
:1003D80000F052FE234B1B6800221A60FFF78AFFC9
:1003E80072B600BF97ED030A00F0C8F81D4B1B68F2
:1003F8001B68002B0CBF01230023DBB21A46184BE5
:100408001A7062B600BF62B600BF15E0154B1B68D4
:100418001B68002B14BF01230023DBB21A460F4BC5
:100428001A700E4B1B78DBB2002B05D00E4B1B68E5
:100438000D4A23F001031360094B1B78DBB2002B34
:10044800E4D1FFF767FF72B600BF002318461037E4
:10045800BD4680BD0AD7233C0000704245000020FD
:10046800460000209035000810E000E080B400AF9E
:1004780000BFBD465DF8047B704700BF80B483B001
:1004880000AF03463960FB7197F90730002B0ADB90
:100498003B68DAB20C4997F907301201D2B20B4423
:1004A80083F800230AE03B68DAB20849FB7903F0D5
:1004B8000F03043B1201D2B20B441A7600BF0C376B
:1004C800BD465DF8047B704700E100E000ED00E008
:1004D80080B582B000AF78607B68013BB3F1807F64
:1004E80001D301230FE00A4A7B68013B53600F21C7
:1004F8004FF0FF30FFF7C2FF054B00229A60044B14
:1005080007221A60002318460837BD4680BD00BF81
:1005180010E000E080B500AFBFF34F8F00BFBFF31E
:100528006F8F00BF0B4B1A680B4B1B689A4202D3A4
:10053800084B00221A60074B1B685A1C05490A60C1
:10054800002B05D172B600BFFFF700FF62B600BFEF
:1005580000BF80BD480000204C00002080B400AFE0
:10056800054B5B68044A43F08053536000BFBD46A7
:100578005DF8047B704700BF00ED00E080B584B0F3
:1005880000AF87ED010A234B1B6807EE903AB8EEDF
:10059800677AD7ED017A67EE277AFCEEE77A17EEED
:1005A800903AFB60FB68B3F1807F18D3FB6807EED5
:1005B800903AB8EE677ADFED186AC7EE267AFCEE55
:1005C800E77A17EE903A0133144A1360134B1B680D
:1005D800FA68B2FBF3F31846FFF77AFF05E00F4B12
:1005E80000221A60F868FFF773FF0D4B00221A60AB
:1005F8000C4A0D4B1A600F216FF00400FFF73EFF05
:100608000F216FF00100FFF739FF00BF1037BD461B
:1006180080BD00BF08000020FFFF7F4B4C0000207A
:10062800480000201D05000850000020EFF300805E
:1006380001B5EFF3118003B41EF0100F08BFB0EE40
:10064800400A0A48006803B488B004A006904FF036
:10065800807007906FF006008646704703BC80479D
:10066800BFF36F8F00DFFEE700BF000050000020DF
:100678001EF0100F08BFB0EE400A1EF0040F0CBFAA
:10068800EFF30880EFF30980816911F8020C10B1CB
:1006980001280DD00BE01EF0100F0CBF1AB008B0E7
:1006A80003BC80F3118803BC80F300880847FEE789
:1006B8004EF61451CEF200010A6842F001020A60B7
:1006C8007047F4E700BF00BF80B400AF044BDB689D
:1006D8001B0A03F007031846BD465DF8047B704704
:1006E80000ED00E080B483B000AF0346FB7197F9DA
:1006F8000730002B0BDBFB7903F01F02074997F942
:1007080007305B09012000FA02F241F8232000BFFC
:100718000C37BD465DF8047B704700BF00E100E080
:1007280080B483B000AF03463960FB7197F9073096
:10073800002B0ADB3B68DAB20C4997F90730120143
:10074800D2B20B4483F800230AE03B68DAB20849C6
:10075800FB7903F00F03043B1201D2B20B441A7663
:1007680000BF0C37BD465DF8047B704700E100E030
:1007780000ED00E080B489B000AFF860B9607A603D
:10078800FB6803F00703FB61FB69C3F10703042B54
:1007980028BF0423BB61FB690433062B02D9FB691C
:1007A800033B00E000237B614FF0FF32BB6902FA94
:1007B80003F3DA43BB681A407B699A404FF0FF3174
:1007C8007B6901FA03F3D9437B680B40134318464E
:1007D8002437BD465DF8047B704780B489B000AF0C
:1007E800F860B9607A60FB682C331946BB6803F47B
:1007F80040734FF440727A617A6992FAA2F23A61D0
:100808003A69BA61BA69002A01D1202203E0BA69BB
:10081800B2FA82F2D2B2D3409B000B44FB61FB696F
:100828001A68BB6803F01F031F2101FA03F3DB43B7
:100838001A407B6803F01F01BB6803F01F0301FA2D
:1008480003F31A43FB691A6000BF2437BD465DF8FD
:10085800047B704780B483B000AF786039607B68F0
:100868009B6823F480623B681A437B689A6000BFE8
:100878000C37BD465DF8047B704780B48FB000AF7D
:10088800F860B9607A60FB680C331946BB6803F0FE
:1008980000734FF000727A617A6992FAA2F23A61B3
:1008A8003A69BA61BA69002A01D1202203E0BA691B
:1008B800B2FA82F2D2B2D3409B000B447B637B6BCB
:1008C8001A68BB6803F0F8734FF0F8713962396A37
:1008D80091FAA1F1F961F9697962796A002901D17E
:1008E800202103E0796AB1FA81F1C9B2CB4007212E
:1008F80001FA03F3DB431A40BB6803F0F8734FF0C7
:10090800F871F962F96A91FAA1F1B962B96A3963C1
:10091800396B002901D1202103E0396BB1FA81F14B
:10092800C9B2CB40796801FA03F31A437B6B1A60AA
:1009380000BF3C37BD465DF8047B704780B485B086
:1009480000AFF860B9607A600D4ABB6813441B7841
:100958001A46FB6813441B6823F0C0020849BB68A9
:100968000B441B781946FB680B4419467B681343F4
:100978000B6000BF1437BD465DF8047B704700BFAD
:100988009435000880B485B000AFF860B9607A602B
:100998000D4ABB6813441B781A46FB6813441B684E
:1009A80023F490720849BB680B441B781946FB680E
:1009B8000B4419467B6813430B6000BF1437BD46D0
:1009C8005DF8047B704700BF9435000880B485B09B
:1009D80000AFF860B9607A600D4ABB6813441B78B1
:1009E8001A46FB6813441B6823F400720849BB6865
:1009F8000B441B781946FB680B4419467B68134364
:100A08000B6000BF1437BD465DF8047B704700BF1C
:100A18009435000880B485B000AFF860B9607A609A
:100A28000D4ABB6813441B781A46FB6813441B68BD
:100A380023F480620849BB680B441B781946FB689D
:100A48000B4419467B6813430B6000BF1437BD463F
:100A58005DF8047B704700BF9435000880B485B00A
:100A680000AFF860B9607A600D4ABB6813441B7820
:100A78001A46FB6813441B6823F4C0520849BB6834
:100A88000B441B781946FB680B4419467B681343D3
:100A98000B6000BF1437BD465DF8047B704700BF8C
:100AA8009435000880B485B000AFF860B9607A600A
:100AB8000D4ABB6813441B781A46FB6813441B682D
:100AC80023F4C0420849BB680B441B781946FB68ED
:100AD8000B4419467B6813430B6000BF1437BD46AF
:100AE8005DF8047B704700BF9435000880B485B07A
:100AF80000AFF860B9607A600D4ABB6813441B7890
:100B08001A46FB6813441B6823F440320849BB6843
:100B18000B441B781946FB680B4419467B68134342
:100B28000B6000BF1437BD465DF8047B704700BFFB
:100B38009435000880B485B000AFF860B9607A6079
:100B48000D4ABB6813441B781A46FB6813441B689C
:100B580023F060620849BB680B441B781946FB68A0
:100B68000B4419467B6813430B6000BF1437BD461E
:100B78005DF8047B704700BF9435000880B483B0EB
:100B880000AF786039600C4A3B6813441B781A46FA
:100B98007B6813445B6908493A680A44127811462D
:100BA8007A680A4423F00403536100BF0C37BD463A
:100BB8005DF8047B704700BF9435000880B400AF2F
:100BC800054B1B68044A43F00103136000BFBD4690
:100BD8005DF8047B704700BF0038024080B400AF66
:100BE800064B1B6803F00203022B0CBF01230023F2
:100BF800DBB21846BD465DF8047B704700380240FA
:100C080080B483B000AF7860074B1B6823F0F8020C
:100C18007B68DB00044913430B6000BF0C37BD46FB
:100C28005DF8047B704700BF0038024080B483B091
:100C380000AF7860064B9B6823F0030204497B6889
:100C480013438B6000BF0C37BD465DF8047B7047CB
:100C58000038024080B400AF044B9B6803F00C03DB
:100C68001846BD465DF8047B704700BF0038024057
:100C780080B483B000AF7860064B9B6823F0F00225
:100C880004497B6813438B6000BF0C37BD465DF891
:100C9800047B70470038024080B483B000AF7860AE
:100CA800064B9B6823F4E05204497B6813438B602E
:100CB80000BF0C37BD465DF8047B70470038024022
:100CC80080B483B000AF7860064B9B6823F4604221
:100CD80004497B6813438B6000BF0C37BD465DF841
:100CE800047B70470038024080B400AF054B1B6896
:100CF800044A43F08073136000BFBD465DF8047B6F
:100D0800704700BF0038024080B400AF074B1B6833
:100D180003F00073B3F1007F0CBF01230023DBB2A3
:100D28001846BD465DF8047B704700BF0038024096
:100D380080B485B000AFF860B9607A603B600D4B55
:100D48005A680D4B1340F968BA6811437A689201E2
:100D58000A43084913434B60064B5B6823F440324F
:100D680004493B6813434B6000BF1437BD465DF828
:100D7800047B7047003802400080BFFF80B485B014
:100D880000AF7860084B1A6B07497B6813430B6305
:100D9800054B1A6B7B681340FB60FB6800BF143778
:100DA800BD465DF8047B70470038024080B485B0CA
:100DB80000AF7860084B1A6C07497B6813430B64D3
:100DC800054B1A6C7B681340FB60FB6800BF143747
:100DD800BD465DF8047B70470038024080B485B09A
:100DE80000AF7860084B5A6C07497B6813434B6423
:100DF800054B5A6C7B681340FB60FB6800BF1437D7
:100E0800BD465DF8047B70470038024080B483B06B
:100E180000AF7860064B1B6823F0070204497B6823
:100E280013430B6000BF0C37BD465DF8047B704769
:100E3800003C024080B400AF044B1B6803F007037A
:100E48001846BD465DF8047B704700BF003C024071
:100E580080B483B000AF7860064B1B6823F48042EF
:100E680004497B6813430B6000BF0C37BD465DF82F
:100E7800047B70470070004080B400AF074B5B688C
:100E880003F48043B3F5804F0CBF01230023DBB28A
:100E98001846BD465DF8047B704700BF00700040EF
:100EA80080B483B000AF78607B68DB6843F400529D
:100EB8007B68DA6000BF0C37BD465DF8047B70477D
:100EC80080B483B000AF78607B681B6923F49042DC
:100ED8007B681A617B685B6923F02A027B685A6128
:100EE80000BF0C37BD465DF8047B704780B500AF86
:100EF8000320FFF78BFF00BFFFF79CFF0346032B80
:100F0800FAD14FF48040FFF7A3FF1020FFF778FED7
:100F1800FFF754FE00BFFFF761FE0346012BFAD12D
:100F28000023642208210020FFF702FFFFF7DCFE00
:100F380000BFFFF7E9FE0346012BFAD100BFFFF718
:100F48009BFF0346002BFAD00020FFF791FE4FF4D9
:100F5800A050FFF7A1FE4FF40040FFF7B1FE0220BA
:100F6800FFF764FE00BFFFF775FE0346082BFAD1B2
:100F7800064801F0E5F80F2000F0F0F90346002BD1
:100F880001D000F081F900BF80BD00BF00E1F50588
:100F980080B592B000AF07F13C0300221A605A6096
:100FA8009A6007F1280300221A605A609A60DA6092
:100FB8001A6107F1180300221A605A609A60DA6011
:100FC8003B4600221A605A609A60DA601A615A61D8
:100FD8004FF48070FFF702FF0120FFF7CFFE402398
:100FE8003B6003237B6000233B613B4619461E4858
:100FF80000F00FFE0023FB6300233B6400237B64A7
:1010080007F13C031946194800F0F2FE0023BB62C1
:101018000023FB6200233B6300237B630023BB6345
:1010280007F128031946114800F00EFF4FF48061BC
:101038000E48FFF70FFC0023BB610023FB6107F19B
:10104800180319460A4800F08BFE0A4A4FF400714B
:101058000648FFF7C2FB002206490448FFF70DFCCB
:1010680000BF4837BD4680BD000002400020014057
:10107800002301400600200380B58EB000AF07F1C1
:101088001C0300221A605A609A60DA601A615A6179
:101098009A613B1D00221A605A609A60DA601A61F0
:1010A8005A614FF40020FFF781FE0120FFF766FE2A
:1010B80003237B600223BB600323FB6000233B61A7
:1010C80000237B610823BB613B1D1946474800F09C
:1010D800A0FD4FF0006202214548FFF72BFD0022DA
:1010E80002214348FFF72AFC4FF48032022140488E
:1010F800FFF7FCFC002202213D48FFF743FC0022D9
:1011080002213B48FFF762FC4FF480620221384815
:10111800FFF780FC002202213548FFF79FFC0022E0
:1011280002213348FFF7BEFC02213148FFF726FDB4
:101138004FF0006204212E48FFF7FCFC40220421F6
:101148002B48FFF7FBFB4FF4803204212848FFF7B8
:10115800CDFC002204212648FFF714FC00220421BC
:101168002348FFF733FC4FF4806204212048FFF73F
:1011780051FC002204211E48FFF770FC00220421C4
:101188001B48FFF78FFC04211948FFF7F7FCFFF70E
:101198009BFA0346002200211846FFF7EBFA0346A4
:1011A80019463420FFF7BCFA3420FFF79BFA4FF4B6
:1011B800E133FB6100233B6200237B620023BB62B7
:1011C8000C23FB6200233B6300237B6307F11C03B2
:1011D8001946084801F096FB0648FFF771FE0548D6
:1011E800FFF75EFE00BF3837BD4680BD00000240F5
:1011F80000600240004C004080B500AF4FF4001082
:10120800FFF7BCFDFFF760FA0346002200211846ED
:10121800FFF7B0FA034619460D20FFF781FA0D20B3
:10122800FFF760FAFFF750FA03460022002118463C
:10123800FFF7A0FA034619460F20FFF771FA0F20AF
:10124800FFF750FA00BF80BD80B500AF0420FFF75C
:1012580095FD8020FFF792FD0120FFF78FFD00BF6D
:1012680080BD000080B582B000AF78607B681B68E5
:10127800044A934201D101F0C9F800BF0837BD46BE
:1012880080BD00BF0000014080B400AF72B600BF4F
:1012980000BFFDE780B400AF00BFFDE780B400AF3A
:1012A80000BFFDE780B400AF00BFFDE780B400AF2A
:1012B80000BFFDE780B400AF00BFFDE780B400AF1A
:1012C80000BFBD465DF8047B704780B400AF00BF27
:1012D800BD465DF8047B704780B400AF00BFBD46D3
:1012E8005DF8047B7047000080B500AF024800F04D
:1012F80073F900BF80BD00BF5400002080B400AF68
:1013080000BFBD465DF8047B7047000080B483B021
:1013180000AF00237B60104B5B6C0F4A43F48043A3
:1013280053640D4B5B6C03F480437B607B68002344
:101338003B60094B1B6C084A43F080531364064B0F
:101348001B6C03F080533B603B6800BF0C37BD4605
:101358005DF8047B704700BF0038024080B58CB050
:1013680000AF78600023BB6200237B620023BB6070
:101378002F4B5B6C2E4A43F0010353642C4B5B6C80
:1013880003F00103BB60BB6807F10C0207F110030F
:101398001146184600F004FF00F0EEFE03465B001D
:1013A800BB62BB6A234AA2FB03239B0C013B7B6203
:1013B800214B224A1A60204B40F2E732DA601E4A7B
:1013C8007B6A53601C4B00221A611B4B00229A60F7
:1013D800194B00229A61184800F034F8034687F840
:1013E8002F3097F82F30002B1BD1134800F084F8CA
:1013F800034687F82F3097F82F30002B11D119208A
:1014080000F0D4FF7B680F2B08D8002279681920D8
:1014180000F0B0FF0A4A7B68136002E0012387F8F6
:101428002F3097F82F3018463037BD4680BD00BFA3
:101438000038024083DE1B435400002000000140B6
:101448000000002080B582B000AF78607B68002B78
:1014580001D1012341E07B6893F83D30DBB2002BDA
:1014680006D17B68002283F83C20786800F039F8C0
:101478007B68022283F83D207B681A687B68043306
:101488001946104600F0C0F97B68012283F846200F
:101498007B68012283F83E207B68012283F83F2085
:1014A8007B68012283F840207B68012283F8412071
:1014B8007B68012283F842207B68012283F843205D
:1014C8007B68012283F844207B68012283F8452049
:1014D8007B68012283F83D20002318460837BD4663
:1014E80080BD80B483B000AF786000BF0C37BD46C4
:1014F8005DF8047B7047000080B485B000AF786069
:101508007B6893F83D30DBB2012B01D001234EE01C
:101518007B68022283F83D207B681B68DA687B6859
:101528001B6842F00102DA607B681B68234A934219
:1015380022D07B681B68B3F1804F1DD07B681B6885
:101548001F4A934218D07B681B681E4A934213D0E7
:101558007B681B681C4A93420ED07B681B681B4A39
:10156800934209D07B681B68194A934204D07B6870
:101578001B68184A934211D17B681B689B6803F06B
:101588000703FB60FB68062B10D07B681B681A6892
:101598007B681B6842F001021A6007E07B681B68E1
:1015A8001A687B681B6842F001021A60002318461B
:1015B8001437BD465DF8047B704700BF000001404A
:1015C8000004004000080040000C004000040140F6
:1015D800004001400018004080B584B000AF78603A
:1015E8007B681B68DB68FB607B681B681B69BB60EA
:1015F800BB6803F00203002B20D0FB6803F0020352
:10160800002B1BD07B681B686FF002021A617B6895
:1016180001221A777B681B689B6903F00303002B80
:1016280003D0786800F0D2F805E0786800F0C4F8D4
:10163800786800F0D5F87B6800221A77BB6803F059
:101648000403002B20D0FB6803F00403002B1BD0FD
:101658007B681B686FF004021A617B6802221A77A4
:101668007B681B689B6903F44073002B03D0786880
:1016780000F0ACF805E0786800F09EF8786800F0B3
:10168800AFF87B6800221A77BB6803F00803002BC9
:1016980020D0FB6803F00803002B1BD07B681B6875
:1016A8006FF008021A617B6804221A777B681B684E
:1016B800DB6903F00303002B03D0786800F086F899
:1016C80005E0786800F078F8786800F089F87B68B9
:1016D80000221A77BB6803F01003002B20D0FB68A8
:1016E80003F01003002B1BD07B681B686FF01002FF
:1016F8001A617B6808221A777B681B68DB6903F428
:101708004073002B03D0786800F060F805E0786833
:1017180000F052F8786800F063F87B6800221A77C6
:10172800BB6803F00103002B0CD0FB6803F0010336
:10173800002B07D07B681B686FF001021A6178687C
:10174800FFF790FDBB6803F08003002B0CD0FB680B
:1017580003F08003002B07D07B681B686FF08002C2
:101768001A61786800F000F9BB6803F04003002BA9
:101778000CD0FB6803F04003002B07D07B681B6884
:101788006FF040021A61786800F034F8BB6803F023
:101798002003002B0CD0FB6803F02003002B07D09C
:1017A8007B681B686FF020021A61786800F0D2F835
:1017B80000BF1037BD4680BD80B483B000AF7860ED
:1017C80000BF0C37BD465DF8047B704780B483B01A
:1017D80000AF786000BF0C37BD465DF8047B7047EA
:1017E80080B483B000AF786000BF0C37BD465DF8A9
:1017F800047B704780B483B000AF786000BF0C37BB
:10180800BD465DF8047B704780B485B000AF786052
:1018180039607B681B68FB607B68434A934213D03E
:101828007B68B3F1804F0FD07B68404A93420BD05E
:101838007B683F4A934207D07B683E4A934203D075
:101848007B683D4A934208D1FB6823F07003FB6034
:101858003B685B68FA681343FB607B68324A9342D3
:101868002BD07B68B3F1804F27D07B682F4A9342F7
:1018780023D07B682E4A93421FD07B682D4A93421F
:101888001BD07B682C4A934217D07B682B4A934223
:1018980013D07B682A4A93420FD07B68294A934227
:1018A8000BD07B68284A934207D07B68274A93422B
:1018B80003D07B68264A934208D1FB6823F440731F
:1018C800FB603B68DB68FA681343FB60FB6823F046
:1018D80080023B685B691343FB603B689A687B68DE
:1018E800DA623B681A687B689A627B680E4A9342A0
:1018F80003D07B68104A934203D13B681A697B681E
:101908001A637B681B6843F004027B681A607B6873
:1019180001225A617B68FA681A6000BF1437BD4615
:101928005DF8047B704700BF0000014000040040E0
:1019380000080040000C0040000401400040014045
:10194800004401400048014000180040001C0040CD
:101958000020004080B483B000AF786000BF0C372F
:10196800BD465DF8047B704780B483B000AF7860F3
:1019780000BF0C37BD465DF8047B704780B48BB060
:1019880000AFF860B9607A60FB681A68BB687B6171
:101998007B6993FAA3F33B613B69BB61BB69002B8D
:1019A80001D1202303E0BB69B3FA83F3DBB25B0008
:1019B800032101FA03F3DB431A40BB683B623B6A2D
:1019C80093FAA3F3FB61FB697B627B6A002B01D16D
:1019D800202303E07B6AB3FA83F3DBB25B00796808
:1019E80001FA03F31A43FB681A6000BF2C37BD469F
:1019F8005DF8047B704780B485B000AFF860B960CB
:101A08007A60FB685A68BB68DB431A40BB68796830
:101A180001FB03F31A43FB685A6000BF1437BD4645
:101A28005DF8047B704780B48BB000AFF860B96094
:101A38007A60FB689A68BB687B617B6993FAA3F359
:101A48003B613B69BB61BB69002B01D1202303E0EB
:101A5800BB69B3FA83F3DBB25B00032101FA03F33A
:101A6800DB431A40BB683B623B6A93FAA3F3FB6112
:101A7800FB697B627B6A002B01D1202303E07B6A30
:101A8800B3FA83F3DBB25B00796801FA03F31A4314
:101A9800FB689A6000BF2C37BD465DF8047B704731
:101AA80080B48BB000AFF860B9607A60FB68DA6820
:101AB800BB687B617B6993FAA3F33B613B69BB61BC
:101AC800BB69002B01D1202303E0BB69B3FA83F380
:101AD800DBB25B00032101FA03F3DB431A40BB6866
:101AE8003B623B6A93FAA3F3FB61FB697B627B6A07
:101AF800002B01D1202303E07B6AB3FA83F3DBB226
:101B08005B00796801FA03F31A43FB68DA6000BFE7
:101B18002C37BD465DF8047B704780B48BB000AFAE
:101B2800F860B9607A60FB681A6ABB687B617B6998
:101B380093FAA3F33B613B69BB61BB69002B01D1FD
:101B4800202303E0BB69B3FA83F3DBB29B000F21C8
:101B580001FA03F3DB431A40BB683B623B6A93FA22
:101B6800A3F3FB61FB697B627B6A002B01D1202315
:101B780003E07B6AB3FA83F3DBB29B00796801FA6E
:101B880003F31A43FB681A6200BF2C37BD465DF8A1
:101B9800047B704780B48BB000AFF860B9607A609E
:101BA800FB685A6ABB681B0A7B617B6993FAA3F3DB
:101BB8003B613B69BB61BB69002B01D1202303E07A
:101BC800BB69B3FA83F3DBB29B000F2101FA03F37D
:101BD800DB431A40BB681B0A3B623B6A93FAA3F3D8
:101BE800FB61FB697B627B6A002B01D1202303E048
:101BF8007B6AB3FA83F3DBB29B00796801FA03F3DB
:101C08001A43FB685A6200BF2C37BD465DF8047B57
:101C1800704780B58AB000AF7860396000237B6276
:101C280000233B623B681B68BB61BB6993FAA3F363
:101C38007B617B69FB61FB69002B01D1202303E0F9
:101C4800FB69B3FA83F3DBB27B6257E03B681A683F
:101C580001217B6A01FA03F313403B623B6A002BC4
:101C680049D03B685B68012B03D03B685B68022B5B
:101C78000DD13B689B681A46396A7868FFF7D3FE2E
:101C88003B68DB681A46396A7868FFF7B4FE3B6838
:101C98001B691A46396A7868FFF702FF3B685B6878
:101CA800022B21D13B6AFB60FB6893FAA3F3BB606C
:101CB800BB683B613B69002B01D1202303E03B69F2
:101CC800B3FA83F3DBB2072B07D83B685B691A4684
:101CD800396A7868FFF721FF06E03B685B691A46B6
:101CE800396A7868FFF756FF3B685B681A46396AB5
:101CF8007868FFF743FE7B6A01337B623B681A68AA
:101D08007B6A22FA03F3002BA0D100231846283758
:101D1800BD4680BD80B483B000AF786039607B6811
:101D2800DB6A23F470023B681A437B68DA6200BFFF
:101D38000C37BD465DF8047B704780B483B000AFB4
:101D480078607B689B6803F00103012B0CBF0123BB
:101D58000023DBB218460C37BD465DF8047B70479C
:101D680090B585B000AF786039600023FB731C48DC
:101D7800FFF7E3FF04461B48FFF7DFFF03461C435A
:101D88001948FFF7DAFF03462343002B20D13B68AD
:101D98005B68002B12D07B685A68144B13403A6872
:101DA80011683A68526811433A68926811433A6870
:101DB800D2680A431A437B685A600BE07B685A680A
:101DC8000A4B13403A6812681A437B685A6001E06C
:101DD8000123FB73FB7B18461437BD4690BD00BF3B
:101DE800002001400021014000220140E010FCFFDA
:101DF80080B584B000AF786039600023FB737868E1
:101E0800FFF79BFF0346002B17D17B685B6823F025
:101E1800407323F480733A6811683A6892680A43F9
:101E28001A437B685A607B689B6823F400623B68AE
:101E38005B681A437B689A6001E00123FB73FB7BB4
:101E480018461037BD4680BD80B584B000AF7860B5
:101E580039600023FB737868FFF76FFF0346002B98
:101E68002BD13B685B68002B09D07B685B6823F447
:101E780068423B689B681A437B685A6005E07B6848
:101E88005B6823F468427B685A607B689A680E4BEB
:101E980013403A68126802F070613A68D2681143D8
:101EA8003A6812690A431A437B689A603B685B6820
:101EB80019467868FFF72EFF01E00123FB73FB7BCF
:101EC80018461037BD4680BDFDFCFFC080B400AF8A
:101ED800044B9B6803F00C031846BD465DF8047B71
:101EE800704700BF0038024080B400AF044B9B68C5
:101EF80003F0F0031846BD465DF8047B704700BF49
:101F08000038024080B400AF044B9B6803F4E053F0
:101F18001846BD465DF8047B704700BF0038024094
:101F280080B400AF044B9B6803F460431846BD4679
:101F38005DF8047B704700BF0038024080B400AFF2
:101F4800044B5B6803F480031846BD465DF8047BC8
:101F5800704700BF0038024080B400AF044B5B6894
:101F68009B09C3F308031846BD465DF8047B704718
:101F78000038024080B400AF044B5B6803F4403380
:101F88001846BD465DF8047B704700BF0038024024
:101F980080B400AF044B5B6803F03F031846BD46AE
:101FA8005DF8047B704700BF0038024080B582B0FE
:101FB80000AF786000F020F802467B681A607B6802
:101FC8001B68184600F040F802467B685A607B6838
:101FD8005B68184600F04EF802467B689A607B689A
:101FE8005B68184600F05AF802467B68DA6000BF62
:101FF8000837BD4680BD000080B582B000AF002321
:102008007B60FFF763FF0346082B0CD0082B0FD823
:10201800002B02D0042B03D00AE0094B7B600AE0B6
:10202800084B7B6007E0082000F04CF8786002E07D
:10203800034B7B6000BF7B6818460837BD4680BDF0
:102048000024F40000127A0080B582B000AF7860F6
:10205800FFF74AFF03461B0903F00F03044AD35C4A
:102068001A467B68D34018460837BD4680BD00BF76
:102078009C35000880B582B000AF7860FFF742FF5A
:1020880003469B0A044AD35C1A467B68D340184629
:102098000837BD4680BD00BFAC35000880B582B0AA
:1020A80000AF7860FFF73CFF03465B0B044AD35C44
:1020B8001A467B68D34018460837BD4680BD00BF26
:1020C800AC35000890B587B000AF786000237B611D
:1020D8000023FB6000233B61FFF730FFF860FB68DB
:1020E800002B04D0FB68B3F5800F03D005E0124B3A
:1020F8007B6105E0114B7B6102E00F4B7B6100BF08
:102108007B68082B13D1FFF743FF02467B69B3FBBB
:10211800F2F4FFF721FF034603FB04F4FFF72AFF5D
:1021280003461B0C01335B00B4FBF3F33B613B69D3
:1021380018461C37BD4690BD0024F40000127A00F2
:1021480080B483B000AF7860044A7B68136000BF36
:102158000C37BD465DF8047B704700BF08000020BF
:1021680080B400AF034B1B681846BD465DF8047B7E
:10217800704700BF0800002080B500AFFFF7F0FFF0
:102188000246054B9B685B0B03F007030349CB5CD6
:1021980022FA03F3184680BD00380240AC35000827
:1021A80080B483B000AF786039607B680F221A6012
:1021B800124B9B6803F003027B685A600F4B9B68C5
:1021C80003F0F0027B689A600C4B9B6803F4E052C2
:1021D8007B68DA60094B9B68DB0803F4E0527B6894
:1021E8001A61074B1B6803F007023B681A6000BFBF
:1021F8000C37BD465DF8047B704700BF00380240CD
:10220800003C024080B485B000AF78607B6803F082
:102218000703FB600C4BDB68BB60BA684FF6FF0333
:102228001340BB60FB681A02BB68134343F0BF63EB
:1022380043F40033BB60044ABB68D36000BF143763
:10224800BD465DF8047B704700ED00E080B400AF48
:10225800044BDB681B0A03F007031846BD465DF80C
:10226800047B704700ED00E080B483B000AF034604
:10227800FB7197F90730002B0BDBFB7903F01F028A
:10228800074997F907305B09012000FA02F241F883
:10229800232000BF0C37BD465DF8047B704700BFA4
:1022A80000E100E080B483B000AF03463960FB7101
:1022B80097F90730002B0ADB3B68DAB20C4997F92B
:1022C80007301201D2B20B4483F800230AE03B68BE
:1022D800DAB20849FB7903F00F03043B1201D2B2CA
:1022E8000B441A7600BF0C37BD465DF8047B704777
:1022F80000E100E000ED00E080B489B000AFF860D4
:10230800B9607A60FB6803F00703FB61FB69C3F1FE
:102318000703042B28BF0423BB61FB690433062B86
:1023280002D9FB69033B00E000237B614FF0FF32D9
:10233800BB6902FA03F3DA43BB681A407B699A4027
:102348004FF0FF317B6901FA03F3D9437B680B40F7
:10235800134318462437BD465DF8047B704780B5A3
:1023680082B000AF78607868FFF74CFF00BF08378D
:10237800BD4680BD80B586B000AF0346B9607A60BF
:10238800FB7300237B61FFF761FF78617A68B968A6
:102398007869FFF7B1FF024697F90F3011461846E2
:1023A800FFF780FF00BF1837BD4680BD80B582B0FB
:1023B80000AF0346FB7197F907301846FFF754FF43
:1023C80000BF0837BD4680BD80B500AF0E4B1B6807
:1023D8000D4A43F4007313600B4B1B680A4A43F41D
:1023E80080631360084B1B68074A43F480731360CB
:1023F8000320FFF7B4FF0F20FEF7B0FFFEF786FFBC
:102408000023184680BD00BF003C024080B400AFE6
:10241800064B1B781A46064B1B681344044A136084
:1024280000BFBD465DF8047B704700BF0400002074
:102438009C00002080B483B000AF78607B68DB68C4
:1024480003F40053B3F5005F0CBF01230023DBB294
:1024580018460C37BD465DF8047B704780B483B0DE
:1024680000AF786039607B681B6923F440523B6891
:102478001A437B681A6100BF0C37BD465DF8047BC0
:10248800704780B483B000AF786039607B685B695F
:1024980023F440723B681A437B685A6100BF0C37CB
:1024A800BD465DF8047B70472DE9B04FC0B000AF62
:1024B800C7F8FC00C7F8F810C7F8F420C7F8F030E0
:1024C800D7F8F430B3F5004F40F00C81D7F8F83066
:1024D8000022C7F8E830C7F8EC20D7E93A45224689
:1024E8002B46911839665B417B66D7E9182321464C
:1024F80012EB0108294643EB01094FF000024FF0A7
:1025080000034FEAC90343EA58734FEAC8029046EA
:102518009946234618EB0303C7F8E0302B4649EBEE
:102528000303C7F8E430D7F8F03000229A46934600
:102538001AEB0A03BB654BEB0B03FB65D7E91623C4
:10254800D7E93801FDF71CFE02460B46644BA3FB96
:1025580002235B099BB21B019CB2D7F8F83000221A
:10256800C7F8D830C7F8DC20D7E9368942464B4649
:10257800911839655B417B65D7E9142341465118A9
:10258800B96449464B41FB644FF000024FF0000329
:10259800D7E912AB5946CB00514643EA517351462D
:1025A800CA0010461946034642469B18C7F8D03061
:1025B8004B460A4642EB0303C7F8D430D7F8F0304D
:1025C8000022C7F8C830C7F8CC20D7E932120B462A
:1025D800DB183B64134642EB03037B64D7E9102303
:1025E800D7E93401FDF7CCFD02460B4611463C4BBA
:1025F800A3FB01235B09642202FB03F3CB1ADB0074
:1026080003F13202364BA3FB02235B099BB25B004A
:102618009BB203F4F8739BB223449CB2D7F8F8300A
:102628000022C7F8C030C7F8C420D7E9308942462D
:102638004B469118B9635B41FB63D7E90E234146CA
:102648005118396349464B417B634FF000024FF004
:102658000003D7E90CAB5946CB00514643EA517306
:102668005146CA0010461946034642469B18C7F809
:10267800B8304B460A4642EB0303C7F8BC30D7F8DC
:10268800F0300022C7F8B030C7F8B420D7E92C12D0
:102698000B46DB18BB62134642EB0303FB62D7E928
:1026A8000A23D7E92E01FDF76BFD02460B460C4BBA
:1026B800A3FB02135B09642101FB03F3D31ADB00BC
:1026C8003233074AA2FB03235B099BB203F00703DB
:1026D8009BB223449BB21A46D7F8FC309A6008E1B3
:1026E8001F85EB51D7F8F8300022C7F8A830C7F893
:1026F800AC20D7E92A8942464B46911839625B419A
:102708007B62D7E9082341465418494643EB010543
:102718004FF000024FF00003EB0043EA5473E2006D
:1027280014461D464346E318C7F8A0304B4645EB10
:102738000303C7F8A430D7F8F0300022C7F8983060
:10274800C7F89C204FF000024FF00003D7E9264558
:1027580029468B00214643EA917321468A00D7E92E
:102768002801FDF70DFD02460B46654BA3FB02232E
:102778005B099BB21B019CB2D7F8F8300022C7F85E
:102788009030C7F89420D7E9248942464B469118DF
:10279800B9615B41FB61D7E90623414651183961AC
:1027A80049464B417B614FF000024FF00003D7E9E7
:1027B80004AB5946CB00514643EA51735146CA000F
:1027C80010461946034642469B18C7F888304B46C0
:1027D8000A4642EB0303C7F88C30D7F8F0300022E2
:1027E800C7F88030C7F884204FF000024FF000038C
:1027F800D7E9208949468B00414643EA917341460F
:102808008A00D7E92201FDF7BBFC02460B461146B8
:102818003B4BA3FB01235B09642202FB03F3CB1AA6
:102828001B013233364AA2FB03235B099BB203F038
:10283800F0039BB223449CB2D7F8F8300022BB6760
:10284800FA67D7E91E8942464B469118B9605B4141
:10285800FB60D7E9022341465118396049464B418C
:102868007B604FF000024FF00003D7E900AB5946F8
:10287800CB00514643EA51735146CA0010461946E7
:10288800034642469B183B674B460A4642EB030306
:102898007B67D7F8F0300022BB66FA664FF000027B
:1028A8004FF00003D7E91A8949468B00414643EAAD
:1028B800917341468A00D7E91C01FDF761FC024685
:1028C8000B460F4BA3FB02135B09642101FB03F3C7
:1028D800D31A1B0132330A4AA2FB03235B099BB2BA
:1028E80003F00F039BB223449BB21A46D7F8FC307F
:1028F8009A6000BF07F58077BD46BDE8B08F00BF7E
:102908001F85EB5180B588B000AF7860396001232E
:10291800FB770023BB617868FFF78CFD0346002B2B
:102928005ED17B68DB6823F4164323F00C033A6816
:1029380051683A68D26811433A68126911433A6893
:1029480092690A431A437B68DA603B689B681946B8
:102958007868FFF783FD3B685B6919467868FFF77D
:1029680090FD07F108031846FFF720FB7B681F4A14
:10297800934202D17B69BB6121E07B681C4A934288
:1029880002D13B69BB611AE07B681A4A934202D1C3
:102998003B69BB6113E07B68174A934202D17B69AC
:1029A800BB610CE07B68154A934202D13B69BB616D
:1029B80005E07B68124A934201D13B69BB61BB6960
:1029C800002B0DD03B681B68002B09D00023FB7738
:1029D8003B689A693B681B68B9697868FFF764FDCA
:1029E800FB7F18462037BD4680BD00BF0010014060
:1029F800004400400048004000140140004C0040E2
:102A08000050004080B400AF064BD3F88830054A28
:102A180043F47003C2F8883000BFBD465DF8047BFC
:102A2800704700BF00ED00E0DFF834D0FFF7EAFFA1
:102A38000C480D490D4A002302E0D458C450043311
:102A4800C4188C42F9D30A4A0A4C002301E01360E7
:102A58000432A242FBD300F0FBFCFDF79DFC70475B
:102A6800000002200000002010000020C8350008E7
:102A78001000002054020020FEE780B483B000AFAD
:102A880078607B689B6803F04053002B0CBF0123E0
:102A98000023DBB218460C37BD465DF8047B70474F
:102AA80080B483B000AF786039607B68DB6A23F458
:102AB80070023B681A437B68DA6200BF0C37BD4678
:102AC8005DF8047B704780B483B000AF78603960EC
:102AD8007B689B6823F440723B681A437B689A6062
:102AE80000BF0C37BD465DF8047B704780B483B0E7
:102AF80000AF78607B689B6843F001027B689A604E
:102B080000BF0C37BD465DF8047B704780B483B0C6
:102B180000AF78607B689B6823F001027B689A604D
:102B280000BF0C37BD465DF8047B704780B483B0A6
:102B380000AF78607B689B6803F00103012B0CBF32
:102B480001230023DBB218460C37BD465DF8047B31
:102B5800704780B483B000AF78607B689B6843F0AF
:102B680080427B689A6000BF0C37BD465DF8047BE5
:102B7800704780B483B000AF78607B68DB6C9BB231
:102B880018460C37BD465DF8047B704780B483B0A7
:102B980000AF78607B681B6803F00203022B0CBF50
:102BA80001230023DBB218460C37BD465DF8047BD1
:102BB800704780B483B000AF78607B681B6803F00F
:102BC8002003202B0CBF01230023DBB218460C374F
:102BD800BD465DF8047B704780B483B000AF786071
:102BE8007B686FF002021A6000BF0C37BD465DF8C3
:102BF800047B704780B483B000AF78607B686FF067
:102C080020021A6000BF0C37BD465DF8047B704790
:102C180080B483B000AF78607B685B6843F02002C3
:102C28007B685A6000BF0C37BD465DF8047B70476F
:102C380080B483B000AF78607B685B6843F0800243
:102C48007B685A6000BF0C37BD465DF8047B70474F
:102C580080B483B000AF78607B685B6823F02002A3
:102C68007B685A6000BF0C37BD465DF8047B70472F
:102C780080B483B000AF78607B685B6823F08062C3
:102C88007B685A6000BF0C37BD465DF8047B70470F
:102C980080B483B000AF78607B685B6823F0800203
:102CA8007B685A6000BF0C37BD465DF8047B7047EF
:102CB80080B483B000AF78607B685B6823F0400223
:102CC8007B685A6000BF0C37BD465DF8047B7047CF
:102CD80080B483B000AF78607B685B6803F0806382
:102CE800B3F1806F0CBF01230023DBB218460C3709
:102CF800BD465DF8047B704780B483B000AF786050
:102D08007B685B6803F04003402B0CBF0123002362
:102D1800DBB218460C37BD465DF8047B704780B5BA
:102D280084B000AF78600123FB817B681B6918467B
:102D3800FFF7A3FE0346002B2FD07B685B7ADBB23C
:102D4800022B11D07B685B7ADBB2042B0CD07B683A
:102D58005B7ADBB2082B07D07B681B691846FFF744
:102D680015FF0346012B18D1786800F034F80346A4
:102D7800002B12D17B685B7ADBB2082B03D17B680E
:102D880001225A7202E07B6820225A727B681B6912
:102D98001846FFF7DEFE0023FB81FB891846103733
:102DA800BD4680BD80B485B000AFF860B9607A6078
:102DB8003B6000BF1437BD465DF8047B704780B4A4
:102DC80085B000AFF860B9607A6000BF1437BD46BF
:102DD8005DF8047B704780B582B000AF78607B688F
:102DE8001B691846FFF7E5FE0346DBB2012B07D146
:102DF8007B681B691846FFF7FDFE7B6810225A7234
:102E08007B685B7ADBB2102B0CBF01230023DBB29B
:102E180018460837BD4680BD80B400AF00BFBD4628
:102E28005DF8047B704780B483B000AF78600B46D0
:102E3800FB7000BF0C37BD465DF8047B704700008F
:102E480090B589B002AFF860084611461A460346A5
:102E58007B810B463B811346FB8000237B61FB682B
:102E68001B693D4A934201D13C4B7B617B69002B36
:102E78006CD0FB681A697B691A617B690022DA7178
:102E8800FB88012B62D03B89002B48D07B695B7A99
:102E9800DBB2082B43D0FB68DA687B69DA60FB6831
:102EA8001A687B691A60FB685A697B695A61FB6812
:102EB8009A797B699A71FB681A797B691A717B69BF
:102EC8001B69B96A1846FFF7EBFD7B89012B22D0F5
:102ED8007B89042B17D17B691B694FF44071184615
:102EE800FFF7F1FD7B6918697B6959697B699B79F3
:102EF8001C467B69DA687B691B6800931346224687
:102F0800FFF750FF07E07B89022B04D17B691B691F
:102F18001846FFF77DFE7B6908225A7216E03B8946
:102F2800002B13D17B699B7ADBB2082B0ED0FB6890
:102F38005A797B695A717B89022B04D17B691B6999
:102F48001846FFF775FE7B6908229A727B69184656
:102F58001C37BD4690BD00BF00200140A0000020E6
:102F680080B582B000AF78607B681B691846FFF7B0
:102F7800DDFD0346002B04D17B681B691846FFF76B
:102F8800B5FD00BF0837BD4680BD90B587B000AF1E
:102F9800F8600B467A607B810123FB82FB681B6922
:102FA800002B72D07B89012B05D1F868FFF7B7FE9B
:102FB8000346FB8269E07B89042B32D1FB681B69DD
:102FC8001846FFF75AFD0346002B5ED0FB68012226
:102FD8005A72FB681B691846FFF7BBFD00BFFB6808
:102FE8001B691846FFF7D2FD0346002BF7D0FB6894
:102FF8001969FB681B7903F10043013B5B007A68A0
:10300800D4180846FFF7B5FD03462380FB681B6903
:103018001846FFF7E1FDFB6808225A720023FB827D
:1030280033E07B89022B30D1FB685B7ADBB2202B43
:103038000CD0FB681B691846FFF7A8FD0346012B57
:1030480004D0FB685B7ADBB2102B1ED1FB681B69CE
:103058001846FFF7C1FDF868FFF7BDFE0346002BD1
:1030680001D10023FB82FB6808225A72FB681969A8
:10307800FB681B7903F10043013B5B007A68D418B5
:103088000846FFF776FD03462380FB8A18461C375F
:10309800BD4690BD80B582B000AF78600B467B809E
:1030A80013463B807B68002B70D07B681B691846F1
:1030B800FFF73CFD0346002B04D07B681B691846CC
:1030C800FFF724FD7B681B691846FFF715FE0346CA
:1030D800002B04D07B681B691846FFF7E9FD7B6865
:1030E8001B691846FFF7F4FD0346002B04D07B68E4
:1030F8001B691846FFF7BCFD3B88002B38D07B883E
:10310800012B1AD07B88022B05D17B681B691846D6
:10311800FFF79EFD11E07B88042B0ED17B681869B0
:103128007B6859697B689B791A46FFF748FE7B687C
:103138001B6900211846FFF7C6FC7B680022DA608D
:103148007B6800221A607B6800225A617B68002233
:103158009A717B6800221A717B6840225A727B68D8
:103168001A697B681B7919461046FFF799FC0DE030
:103178007B6800225A717B6840229A727B88022BF6
:1031880004D17B681B691846FFF782FD00BF08372A
:10319800BD4680BD2DE9F047089D0E4604460F4602
:1031A800002B4AD194468C45B2FA82F260D942B1DA
:1031B800C2F12003974020FA03F30CFA02FC1F43E4
:1031C80094404FEA1C4E1FFA8CF6B7FBFEF1230C15
:1031D8000EFB117743EA074301FB06F098420AD930
:1031E8001CEB030301F1FF3780F01581984240F290
:1031F8001281023963441B1AA4B2B3FBFEF00EFB22
:10320800103344EA034400FB06F6A6420AD91CEB35
:10321800040400F1FF3380F00081A64240F2FD80F3
:103228006444023840EA0140A41B00211DB1D44087
:103238000023C5E90043BDE8F0878B4205D90DB1ED
:10324800C5E9000100210846F5E7B3FA83F1002932
:1032580046D1B34202D3824200F2F580841A66EB6B
:10326800030201201746002DE5D0C5E90047E2E733
:10327800002A40F09380A1EB0C034FEA1C471FFA89
:103288008CFE0121B3FBF7F607FB1630230C43EA4B
:1032980000430EFB06F0984208D91CEB030306F125
:1032A800FF3802D2984200F2D08046461B1AA4B2D8
:1032B800B3FBF7F007FB103344EA03440EFB00FEB0
:1032C800A64508D91CEB040400F1FF3302D2A64539
:1032D80000F2B6801846A4EB0E0440EA0640A5E7C3
:1032E800C1F120078B4022FA07FC4CEA030C06FACE
:1032F80001FE20FA07F426FA07F344EA0E0400FA5E
:1033080001F84FEA1C404FEA1449B3FBF0FE1FFADC
:103318008CF600FB1E3349EA03430EFB06F9994578
:1033280002FA01F20BD91CEB03030EF1FF3A80F00D
:103338008580994540F28280AEF1020E6344A3EB8A
:103348000909A4B2B9FBF0F300FB139944EA094454
:1033580003FB06F6A64208D91CEB040403F1FF3070
:1033680068D2A64266D9023B644443EA0E40A41BD5
:10337800A0FB02E6B4427346B14652D34FD05DB1CA
:10338800B8EB030264EB090404FA07F722FA01F325
:103398001F43CC40C5E9007400214CE7C2F120016D
:1033A80020FA01F30CFA02FC26FA01F196403343A5
:1033B8004FEA1C471FFA8CFEB1FBF7F007FB10160B
:1033C800190C41EA064100FB0EF68E4204FA02F49B
:1033D80008D91CEB010100F1FF382DD28E422BD900
:1033E80002386144891B9BB2B1FBF7F607FB161143
:1033F80043EA014306FB0EF1994208D91CEB03038B
:1034080006F1FF3814D2994212D9023E63445B1A7E
:1034180046EA004136E73946EDE6184602E7F04548
:10342800ADD2BEEB020366EB0C060138B146A6E747
:103438004646ECE7034698E74046D3E7D6467EE79C
:103448006444023847E708460DE7023E63442DE727
:1034580070B50F4B0F4DAB42A3EB050607D0B61066
:10346800002455F8043B01349847A642F9D800F0E7
:103478007FF8094D094B5E1BAB424FEAA60606D002
:10348800002455F8043B01349847A642F9D870BD8A
:10349800BC350008BC350008BC350008C435000838
:1034A800704700BF704700BF024B13B1024800F0DD
:1034B80005B8704700000000D13400080023014619
:1034C8001A46184600F014B838B5074D074C2C1B9F
:1034D800A41005D0013C55F8043D9847002CF9D1BB
:1034E800BDE8384000F04AB8C8350008C4350008BF
:1034F8002DE9F8431B4D0646286898460F46914625
:10350800FFF7CEFF184B1C681CB3286865681F2D91
:1035180022DC4EB96B1C0235636044F82570FFF756
:10352800C1FF0020BDE8F88304EB85010123C1F841
:103538008890D4F88821AB401A43022EC4F8882119
:10354800C1F80881E6D1D4F88C211A43C4F88C213B
:10355800E0E7064C1C60D8E7FFF7A4FF4FF0FF3008
:10356800E0E700BF0C000020C0000020C4000020DD
:10357800F8B500BFF8BC08BC9E467047F8B500BF58
:08358800F8BC08BC9E46704728
:103590003C000020102840587088A0B800000000AF
:1035A00000000000010203040607080900000000F3
:0435B000010203040D
:0835B400E8FBFF7F01000000AD
:0835BC00B134000825020008EB
:0435C400FD010008FD
:1035C80010000000010000000024F400BC000020EE
:0400000508002A3194
:00000001FF
